{
	"contracts/Bank.sol": {
		"Bank": {
			"abi": [
				{
					"inputs": [
						{
							"internalType": "address[]",
							"name": "_tokens",
							"type": "address[]"
						}
					],
					"stateMutability": "nonpayable",
					"type": "constructor"
				},
				{
					"inputs": [
						{
							"internalType": "address",
							"name": "owner",
							"type": "address"
						}
					],
					"name": "OwnableInvalidOwner",
					"type": "error"
				},
				{
					"inputs": [
						{
							"internalType": "address",
							"name": "account",
							"type": "address"
						}
					],
					"name": "OwnableUnauthorizedAccount",
					"type": "error"
				},
				{
					"anonymous": false,
					"inputs": [
						{
							"indexed": true,
							"internalType": "address",
							"name": "user",
							"type": "address"
						},
						{
							"indexed": true,
							"internalType": "address",
							"name": "token",
							"type": "address"
						},
						{
							"indexed": false,
							"internalType": "uint256",
							"name": "amount",
							"type": "uint256"
						}
					],
					"name": "Deposited",
					"type": "event"
				},
				{
					"anonymous": false,
					"inputs": [
						{
							"indexed": true,
							"internalType": "address",
							"name": "user",
							"type": "address"
						},
						{
							"indexed": false,
							"internalType": "uint256",
							"name": "amount",
							"type": "uint256"
						}
					],
					"name": "ETHSaved",
					"type": "event"
				},
				{
					"anonymous": false,
					"inputs": [
						{
							"indexed": true,
							"internalType": "address",
							"name": "from",
							"type": "address"
						},
						{
							"indexed": true,
							"internalType": "address",
							"name": "to",
							"type": "address"
						},
						{
							"indexed": false,
							"internalType": "uint256",
							"name": "amount",
							"type": "uint256"
						}
					],
					"name": "ETHTransferred",
					"type": "event"
				},
				{
					"anonymous": false,
					"inputs": [
						{
							"indexed": true,
							"internalType": "address",
							"name": "user",
							"type": "address"
						},
						{
							"indexed": false,
							"internalType": "uint256",
							"name": "amount",
							"type": "uint256"
						}
					],
					"name": "ETHWithdrawn",
					"type": "event"
				},
				{
					"anonymous": false,
					"inputs": [
						{
							"indexed": true,
							"internalType": "address",
							"name": "previousOwner",
							"type": "address"
						},
						{
							"indexed": true,
							"internalType": "address",
							"name": "newOwner",
							"type": "address"
						}
					],
					"name": "OwnershipTransferred",
					"type": "event"
				},
				{
					"anonymous": false,
					"inputs": [
						{
							"indexed": true,
							"internalType": "address",
							"name": "user",
							"type": "address"
						},
						{
							"indexed": true,
							"internalType": "address",
							"name": "token",
							"type": "address"
						},
						{
							"indexed": false,
							"internalType": "uint256",
							"name": "amount",
							"type": "uint256"
						}
					],
					"name": "Withdrawn",
					"type": "event"
				},
				{
					"inputs": [
						{
							"internalType": "address",
							"name": "",
							"type": "address"
						}
					],
					"name": "decimals",
					"outputs": [
						{
							"internalType": "uint8",
							"name": "",
							"type": "uint8"
						}
					],
					"stateMutability": "view",
					"type": "function"
				},
				{
					"inputs": [
						{
							"internalType": "address",
							"name": "token",
							"type": "address"
						},
						{
							"internalType": "uint256",
							"name": "amount",
							"type": "uint256"
						}
					],
					"name": "deposit",
					"outputs": [],
					"stateMutability": "payable",
					"type": "function"
				},
				{
					"inputs": [
						{
							"internalType": "address",
							"name": "",
							"type": "address"
						},
						{
							"internalType": "address",
							"name": "",
							"type": "address"
						}
					],
					"name": "deposits",
					"outputs": [
						{
							"internalType": "uint256",
							"name": "time",
							"type": "uint256"
						},
						{
							"internalType": "uint256",
							"name": "amount",
							"type": "uint256"
						}
					],
					"stateMutability": "view",
					"type": "function"
				},
				{
					"inputs": [
						{
							"internalType": "address",
							"name": "",
							"type": "address"
						}
					],
					"name": "eth_deposits",
					"outputs": [
						{
							"internalType": "uint256",
							"name": "time",
							"type": "uint256"
						},
						{
							"internalType": "uint256",
							"name": "amount",
							"type": "uint256"
						}
					],
					"stateMutability": "view",
					"type": "function"
				},
				{
					"inputs": [
						{
							"internalType": "address",
							"name": "token",
							"type": "address"
						}
					],
					"name": "getDeposit",
					"outputs": [
						{
							"internalType": "uint256",
							"name": "",
							"type": "uint256"
						}
					],
					"stateMutability": "view",
					"type": "function"
				},
				{
					"inputs": [
						{
							"internalType": "address",
							"name": "",
							"type": "address"
						}
					],
					"name": "isTokenInList",
					"outputs": [
						{
							"internalType": "bool",
							"name": "",
							"type": "bool"
						}
					],
					"stateMutability": "view",
					"type": "function"
				},
				{
					"inputs": [],
					"name": "owner",
					"outputs": [
						{
							"internalType": "address",
							"name": "",
							"type": "address"
						}
					],
					"stateMutability": "view",
					"type": "function"
				},
				{
					"inputs": [],
					"name": "renounceOwnership",
					"outputs": [],
					"stateMutability": "nonpayable",
					"type": "function"
				},
				{
					"inputs": [
						{
							"internalType": "address",
							"name": "token",
							"type": "address"
						},
						{
							"internalType": "address payable",
							"name": "to",
							"type": "address"
						},
						{
							"internalType": "uint256",
							"name": "amount",
							"type": "uint256"
						}
					],
					"name": "transfer",
					"outputs": [],
					"stateMutability": "payable",
					"type": "function"
				},
				{
					"inputs": [
						{
							"internalType": "address",
							"name": "newOwner",
							"type": "address"
						}
					],
					"name": "transferOwnership",
					"outputs": [],
					"stateMutability": "nonpayable",
					"type": "function"
				},
				{
					"inputs": [
						{
							"internalType": "address",
							"name": "token",
							"type": "address"
						},
						{
							"internalType": "uint256",
							"name": "amount",
							"type": "uint256"
						}
					],
					"name": "withdraw",
					"outputs": [],
					"stateMutability": "nonpayable",
					"type": "function"
				},
				{
					"stateMutability": "payable",
					"type": "receive"
				}
			],
			"devdoc": {
				"errors": {
					"OwnableInvalidOwner(address)": [
						{
							"details": "The owner is not a valid owner account. (eg. `address(0)`)"
						}
					],
					"OwnableUnauthorizedAccount(address)": [
						{
							"details": "The caller account is not authorized to perform an operation."
						}
					]
				},
				"kind": "dev",
				"methods": {
					"owner()": {
						"details": "Returns the address of the current owner."
					},
					"renounceOwnership()": {
						"details": "Leaves the contract without owner. It will not be possible to call `onlyOwner` functions. Can only be called by the current owner. NOTE: Renouncing ownership will leave the contract without an owner, thereby disabling any functionality that is only available to the owner."
					},
					"transferOwnership(address)": {
						"details": "Transfers ownership of the contract to a new account (`newOwner`). Can only be called by the current owner."
					}
				},
				"version": 1
			},
			"evm": {
				"assembly": "    /* \"contracts/Bank.sol\":252:4893  contract Bank is Ownable {... */\n  mstore(0x40, 0xc0)\n    /* \"contracts/Bank.sol\":1373:1908  constructor(address[] memory _tokens) Ownable(msg.sender) {... */\n  callvalue\n  dup1\n  iszero\n  tag_1\n  jumpi\n  0x00\n  dup1\n  revert\ntag_1:\n  pop\n  mload(0x40)\n  sub(codesize, bytecodeSize)\n  dup1\n  bytecodeSize\n  dup4\n  codecopy\n  dup2\n  dup2\n  add\n  0x40\n  mstore\n  dup2\n  add\n  swap1\n  tag_2\n  swap2\n  swap1\n  tag_3\n  jump\t// in\ntag_2:\n    /* \"contracts/Bank.sol\":1419:1429  msg.sender */\n  caller\n    /* \"@openzeppelin/contracts/access/Ownable.sol\":1297:1298  0 */\n  0x00\n    /* \"@openzeppelin/contracts/access/Ownable.sol\":1273:1299  initialOwner == address(0) */\n  0xffffffffffffffffffffffffffffffffffffffff\n  and\n    /* \"@openzeppelin/contracts/access/Ownable.sol\":1273:1285  initialOwner */\n  dup2\n    /* \"@openzeppelin/contracts/access/Ownable.sol\":1273:1299  initialOwner == address(0) */\n  0xffffffffffffffffffffffffffffffffffffffff\n  and\n  sub\n    /* \"@openzeppelin/contracts/access/Ownable.sol\":1269:1364  if (initialOwner == address(0)) {... */\n  tag_7\n  jumpi\n    /* \"@openzeppelin/contracts/access/Ownable.sol\":1350:1351  0 */\n  0x00\n    /* \"@openzeppelin/contracts/access/Ownable.sol\":1322:1353  OwnableInvalidOwner(address(0)) */\n  mload(0x40)\n  0x1e4fbdf700000000000000000000000000000000000000000000000000000000\n  dup2\n  mstore\n  0x04\n  add\n  tag_8\n  swap2\n  swap1\n  tag_9\n  jump\t// in\ntag_8:\n  mload(0x40)\n  dup1\n  swap2\n  sub\n  swap1\n  revert\n    /* \"@openzeppelin/contracts/access/Ownable.sol\":1269:1364  if (initialOwner == address(0)) {... */\ntag_7:\n    /* \"@openzeppelin/contracts/access/Ownable.sol\":1373:1405  _transferOwnership(initialOwner) */\n  tag_10\n    /* \"@openzeppelin/contracts/access/Ownable.sol\":1392:1404  initialOwner */\n  dup2\n    /* \"@openzeppelin/contracts/access/Ownable.sol\":1373:1391  _transferOwnership */\n  shl(0x20, tag_11)\n    /* \"@openzeppelin/contracts/access/Ownable.sol\":1373:1405  _transferOwnership(initialOwner) */\n  0x20\n  shr\n  jump\t// in\ntag_10:\n    /* \"@openzeppelin/contracts/access/Ownable.sol\":1225:1412  constructor(address initialOwner) {... */\n  pop\n    /* \"contracts/Bank.sol\":1467:1468  0 */\n  0x00\n    /* \"contracts/Bank.sol\":1450:1457  _tokens */\n  dup2\n    /* \"contracts/Bank.sol\":1450:1464  _tokens.length */\n  mload\n    /* \"contracts/Bank.sol\":1450:1468  _tokens.length > 0 */\n  gt\n    /* \"contracts/Bank.sol\":1442:1508  require(_tokens.length > 0, \"At least one token address required\") */\n  tag_13\n  jumpi\n  mload(0x40)\n  0x08c379a000000000000000000000000000000000000000000000000000000000\n  dup2\n  mstore\n  0x04\n  add\n  tag_14\n  swap1\n  tag_15\n  jump\t// in\ntag_14:\n  mload(0x40)\n  dup1\n  swap2\n  sub\n  swap1\n  revert\ntag_13:\n    /* \"contracts/Bank.sol\":1524:1533  uint256 i */\n  0x00\n    /* \"contracts/Bank.sol\":1519:1828  for (uint256 i = 0; i < _tokens.length; i++) {... */\ntag_16:\n    /* \"contracts/Bank.sol\":1543:1550  _tokens */\n  dup2\n    /* \"contracts/Bank.sol\":1543:1557  _tokens.length */\n  mload\n    /* \"contracts/Bank.sol\":1539:1540  i */\n  dup2\n    /* \"contracts/Bank.sol\":1539:1557  i < _tokens.length */\n  lt\n    /* \"contracts/Bank.sol\":1519:1828  for (uint256 i = 0; i < _tokens.length; i++) {... */\n  iszero\n  tag_17\n  jumpi\n    /* \"contracts/Bank.sol\":1588:1601  isTokenInList */\n  0x05\n    /* \"contracts/Bank.sol\":1588:1613  isTokenInList[_tokens[i]] */\n  0x00\n    /* \"contracts/Bank.sol\":1602:1609  _tokens */\n  dup4\n    /* \"contracts/Bank.sol\":1610:1611  i */\n  dup4\n    /* \"contracts/Bank.sol\":1602:1612  _tokens[i] */\n  dup2\n  mload\n  dup2\n  lt\n  tag_19\n  jumpi\n  tag_20\n  tag_21\n  jump\t// in\ntag_20:\ntag_19:\n  0x20\n  mul\n  0x20\n  add\n  add\n  mload\n    /* \"contracts/Bank.sol\":1588:1613  isTokenInList[_tokens[i]] */\n  0xffffffffffffffffffffffffffffffffffffffff\n  and\n  0xffffffffffffffffffffffffffffffffffffffff\n  and\n  dup2\n  mstore\n  0x20\n  add\n  swap1\n  dup2\n  mstore\n  0x20\n  add\n  0x00\n  keccak256\n  0x00\n  swap1\n  sload\n  swap1\n  0x0100\n  exp\n  swap1\n  div\n  0xff\n  and\n    /* \"contracts/Bank.sol\":1587:1613  !isTokenInList[_tokens[i]] */\n  iszero\n    /* \"contracts/Bank.sol\":1579:1633  require(!isTokenInList[_tokens[i]], \"Duplicate token\") */\n  tag_22\n  jumpi\n  mload(0x40)\n  0x08c379a000000000000000000000000000000000000000000000000000000000\n  dup2\n  mstore\n  0x04\n  add\n  tag_23\n  swap1\n  tag_24\n  jump\t// in\ntag_23:\n  mload(0x40)\n  dup1\n  swap2\n  sub\n  swap1\n  revert\ntag_22:\n    /* \"contracts/Bank.sol\":1648:1654  tokens */\n  0x01\n    /* \"contracts/Bank.sol\":1660:1667  _tokens */\n  dup3\n    /* \"contracts/Bank.sol\":1668:1669  i */\n  dup3\n    /* \"contracts/Bank.sol\":1660:1670  _tokens[i] */\n  dup2\n  mload\n  dup2\n  lt\n  tag_25\n  jumpi\n  tag_26\n  tag_21\n  jump\t// in\ntag_26:\ntag_25:\n  0x20\n  mul\n  0x20\n  add\n  add\n  mload\n    /* \"contracts/Bank.sol\":1648:1671  tokens.push(_tokens[i]) */\n  swap1\n  dup1\n  0x01\n  dup2\n  sload\n  add\n  dup1\n  dup3\n  sstore\n  dup1\n  swap2\n  pop\n  pop\n  0x01\n  swap1\n  sub\n  swap1\n  0x00\n  mstore\n  keccak256(0x00, 0x20)\n  add\n  0x00\n  swap1\n  swap2\n  swap1\n  swap2\n  swap1\n  swap2\n  0x0100\n  exp\n  dup2\n  sload\n  dup2\n  0xffffffffffffffffffffffffffffffffffffffff\n  mul\n  not\n  and\n  swap1\n  dup4\n  0xffffffffffffffffffffffffffffffffffffffff\n  and\n  mul\n  or\n  swap1\n  sstore\n  pop\n    /* \"contracts/Bank.sol\":1724:1731  _tokens */\n  dup2\n    /* \"contracts/Bank.sol\":1732:1733  i */\n  dup2\n    /* \"contracts/Bank.sol\":1724:1734  _tokens[i] */\n  dup2\n  mload\n  dup2\n  lt\n  tag_28\n  jumpi\n  tag_29\n  tag_21\n  jump\t// in\ntag_29:\ntag_28:\n  0x20\n  mul\n  0x20\n  add\n  add\n  mload\n    /* \"contracts/Bank.sol\":1709:1744  IERC20Metadata(_tokens[i]).decimals */\n  0xffffffffffffffffffffffffffffffffffffffff\n  and\n  0x313ce567\n    /* \"contracts/Bank.sol\":1709:1746  IERC20Metadata(_tokens[i]).decimals() */\n  mload(0x40)\n  dup2\n  0xffffffff\n  and\n  0xe0\n  shl\n  dup2\n  mstore\n  0x04\n  add\n  0x20\n  mload(0x40)\n  dup1\n  dup4\n  sub\n  dup2\n  dup7\n  gas\n  staticcall\n  iszero\n  dup1\n  iszero\n  tag_31\n  jumpi\n  returndatasize\n  0x00\n  dup1\n  returndatacopy\n  revert(0x00, returndatasize)\ntag_31:\n  pop\n  pop\n  pop\n  pop\n  mload(0x40)\n  returndatasize\n  not(0x1f)\n  0x1f\n  dup3\n  add\n  and\n  dup3\n  add\n  dup1\n  0x40\n  mstore\n  pop\n  dup2\n  add\n  swap1\n  tag_32\n  swap2\n  swap1\n  tag_33\n  jump\t// in\ntag_32:\n    /* \"contracts/Bank.sol\":1686:1694  decimals */\n  0x06\n    /* \"contracts/Bank.sol\":1686:1706  decimals[_tokens[i]] */\n  0x00\n    /* \"contracts/Bank.sol\":1695:1702  _tokens */\n  dup5\n    /* \"contracts/Bank.sol\":1703:1704  i */\n  dup5\n    /* \"contracts/Bank.sol\":1695:1705  _tokens[i] */\n  dup2\n  mload\n  dup2\n  lt\n  tag_34\n  jumpi\n  tag_35\n  tag_21\n  jump\t// in\ntag_35:\ntag_34:\n  0x20\n  mul\n  0x20\n  add\n  add\n  mload\n    /* \"contracts/Bank.sol\":1686:1706  decimals[_tokens[i]] */\n  0xffffffffffffffffffffffffffffffffffffffff\n  and\n  0xffffffffffffffffffffffffffffffffffffffff\n  and\n  dup2\n  mstore\n  0x20\n  add\n  swap1\n  dup2\n  mstore\n  0x20\n  add\n  0x00\n  keccak256\n  0x00\n    /* \"contracts/Bank.sol\":1686:1746  decimals[_tokens[i]] = IERC20Metadata(_tokens[i]).decimals() */\n  0x0100\n  exp\n  dup2\n  sload\n  dup2\n  0xff\n  mul\n  not\n  and\n  swap1\n  dup4\n  0xff\n  and\n  mul\n  or\n  swap1\n  sstore\n  pop\n    /* \"contracts/Bank.sol\":1789:1793  true */\n  0x01\n    /* \"contracts/Bank.sol\":1761:1774  isTokenInList */\n  0x05\n    /* \"contracts/Bank.sol\":1761:1786  isTokenInList[_tokens[i]] */\n  0x00\n    /* \"contracts/Bank.sol\":1775:1782  _tokens */\n  dup5\n    /* \"contracts/Bank.sol\":1783:1784  i */\n  dup5\n    /* \"contracts/Bank.sol\":1775:1785  _tokens[i] */\n  dup2\n  mload\n  dup2\n  lt\n  tag_36\n  jumpi\n  tag_37\n  tag_21\n  jump\t// in\ntag_37:\ntag_36:\n  0x20\n  mul\n  0x20\n  add\n  add\n  mload\n    /* \"contracts/Bank.sol\":1761:1786  isTokenInList[_tokens[i]] */\n  0xffffffffffffffffffffffffffffffffffffffff\n  and\n  0xffffffffffffffffffffffffffffffffffffffff\n  and\n  dup2\n  mstore\n  0x20\n  add\n  swap1\n  dup2\n  mstore\n  0x20\n  add\n  0x00\n  keccak256\n  0x00\n    /* \"contracts/Bank.sol\":1761:1793  isTokenInList[_tokens[i]] = true */\n  0x0100\n  exp\n  dup2\n  sload\n  dup2\n  0xff\n  mul\n  not\n  and\n  swap1\n  dup4\n  iszero\n  iszero\n  mul\n  or\n  swap1\n  sstore\n  pop\n    /* \"contracts/Bank.sol\":1559:1562  i++ */\n  dup1\n  dup1\n  0x01\n  add\n  swap2\n  pop\n  pop\n    /* \"contracts/Bank.sol\":1519:1828  for (uint256 i = 0; i < _tokens.length; i++) {... */\n  jump(tag_16)\ntag_17:\n  pop\n    /* \"contracts/Bank.sol\":1847:1857  msg.sender */\n  caller\n    /* \"contracts/Bank.sol\":1838:1857  ownner = msg.sender */\n  0xffffffffffffffffffffffffffffffffffffffff\n  and\n  0x80\n  dup2\n  0xffffffffffffffffffffffffffffffffffffffff\n  and\n  dup2\n  mstore\n  pop\n  pop\n    /* \"contracts/Bank.sol\":1880:1900  getCurrentTimeView() */\n  tag_38\n    /* \"contracts/Bank.sol\":1880:1898  getCurrentTimeView */\n  shl(0x20, tag_39)\n    /* \"contracts/Bank.sol\":1880:1900  getCurrentTimeView() */\n  0x20\n  shr\n  jump\t// in\ntag_38:\n    /* \"contracts/Bank.sol\":1868:1900  startTime = getCurrentTimeView() */\n  0xa0\n  dup2\n  dup2\n  mstore\n  pop\n  pop\n    /* \"contracts/Bank.sol\":1373:1908  constructor(address[] memory _tokens) Ownable(msg.sender) {... */\n  pop\n    /* \"contracts/Bank.sol\":252:4893  contract Bank is Ownable {... */\n  jump(tag_40)\n    /* \"@openzeppelin/contracts/access/Ownable.sol\":2912:3099  function _transferOwnership(address newOwner) internal virtual {... */\ntag_11:\n    /* \"@openzeppelin/contracts/access/Ownable.sol\":2985:3001  address oldOwner */\n  0x00\n    /* \"@openzeppelin/contracts/access/Ownable.sol\":3004:3010  _owner */\n  dup1\n  0x00\n  swap1\n  sload\n  swap1\n  0x0100\n  exp\n  swap1\n  div\n  0xffffffffffffffffffffffffffffffffffffffff\n  and\n    /* \"@openzeppelin/contracts/access/Ownable.sol\":2985:3010  address oldOwner = _owner */\n  swap1\n  pop\n    /* \"@openzeppelin/contracts/access/Ownable.sol\":3029:3037  newOwner */\n  dup2\n    /* \"@openzeppelin/contracts/access/Ownable.sol\":3020:3026  _owner */\n  0x00\n  dup1\n    /* \"@openzeppelin/contracts/access/Ownable.sol\":3020:3037  _owner = newOwner */\n  0x0100\n  exp\n  dup2\n  sload\n  dup2\n  0xffffffffffffffffffffffffffffffffffffffff\n  mul\n  not\n  and\n  swap1\n  dup4\n  0xffffffffffffffffffffffffffffffffffffffff\n  and\n  mul\n  or\n  swap1\n  sstore\n  pop\n    /* \"@openzeppelin/contracts/access/Ownable.sol\":3083:3091  newOwner */\n  dup2\n    /* \"@openzeppelin/contracts/access/Ownable.sol\":3052:3092  OwnershipTransferred(oldOwner, newOwner) */\n  0xffffffffffffffffffffffffffffffffffffffff\n  and\n    /* \"@openzeppelin/contracts/access/Ownable.sol\":3073:3081  oldOwner */\n  dup2\n    /* \"@openzeppelin/contracts/access/Ownable.sol\":3052:3092  OwnershipTransferred(oldOwner, newOwner) */\n  0xffffffffffffffffffffffffffffffffffffffff\n  and\n  0x8be0079c531659141344cd1fd0a4f28419497f9722a3daafe3b4186f6b6457e0\n  mload(0x40)\n  mload(0x40)\n  dup1\n  swap2\n  sub\n  swap1\n  log3\n    /* \"@openzeppelin/contracts/access/Ownable.sol\":2975:3099  {... */\n  pop\n    /* \"@openzeppelin/contracts/access/Ownable.sol\":2912:3099  function _transferOwnership(address newOwner) internal virtual {... */\n  pop\n  jump\t// out\n    /* \"contracts/Bank.sol\":1262:1365  function getCurrentTimeView() internal view returns (uint256) {... */\ntag_39:\n    /* \"contracts/Bank.sol\":1315:1322  uint256 */\n  0x00\n    /* \"contracts/Bank.sol\":1342:1357  block.timestamp */\n  timestamp\n    /* \"contracts/Bank.sol\":1335:1357  return block.timestamp */\n  swap1\n  pop\n    /* \"contracts/Bank.sol\":1262:1365  function getCurrentTimeView() internal view returns (uint256) {... */\n  swap1\n  jump\t// out\n    /* \"#utility.yul\":7:82   */\ntag_43:\n    /* \"#utility.yul\":40:46   */\n  0x00\n    /* \"#utility.yul\":73:75   */\n  0x40\n    /* \"#utility.yul\":67:76   */\n  mload\n    /* \"#utility.yul\":57:76   */\n  swap1\n  pop\n    /* \"#utility.yul\":7:82   */\n  swap1\n  jump\t// out\n    /* \"#utility.yul\":88:205   */\ntag_44:\n    /* \"#utility.yul\":197:198   */\n  0x00\n    /* \"#utility.yul\":194:195   */\n  dup1\n    /* \"#utility.yul\":187:199   */\n  revert\n    /* \"#utility.yul\":211:328   */\ntag_45:\n    /* \"#utility.yul\":320:321   */\n  0x00\n    /* \"#utility.yul\":317:318   */\n  dup1\n    /* \"#utility.yul\":310:322   */\n  revert\n    /* \"#utility.yul\":334:451   */\ntag_46:\n    /* \"#utility.yul\":443:444   */\n  0x00\n    /* \"#utility.yul\":440:441   */\n  dup1\n    /* \"#utility.yul\":433:445   */\n  revert\n    /* \"#utility.yul\":457:559   */\ntag_47:\n    /* \"#utility.yul\":498:504   */\n  0x00\n    /* \"#utility.yul\":549:551   */\n  0x1f\n    /* \"#utility.yul\":545:552   */\n  not\n    /* \"#utility.yul\":540:542   */\n  0x1f\n    /* \"#utility.yul\":533:538   */\n  dup4\n    /* \"#utility.yul\":529:543   */\n  add\n    /* \"#utility.yul\":525:553   */\n  and\n    /* \"#utility.yul\":515:553   */\n  swap1\n  pop\n    /* \"#utility.yul\":457:559   */\n  swap2\n  swap1\n  pop\n  jump\t// out\n    /* \"#utility.yul\":565:745   */\ntag_48:\n    /* \"#utility.yul\":613:690   */\n  0x4e487b7100000000000000000000000000000000000000000000000000000000\n    /* \"#utility.yul\":610:611   */\n  0x00\n    /* \"#utility.yul\":603:691   */\n  mstore\n    /* \"#utility.yul\":710:714   */\n  0x41\n    /* \"#utility.yul\":707:708   */\n  0x04\n    /* \"#utility.yul\":700:715   */\n  mstore\n    /* \"#utility.yul\":734:738   */\n  0x24\n    /* \"#utility.yul\":731:732   */\n  0x00\n    /* \"#utility.yul\":724:739   */\n  revert\n    /* \"#utility.yul\":751:1032   */\ntag_49:\n    /* \"#utility.yul\":834:861   */\n  tag_76\n    /* \"#utility.yul\":856:860   */\n  dup3\n    /* \"#utility.yul\":834:861   */\n  tag_47\n  jump\t// in\ntag_76:\n    /* \"#utility.yul\":826:832   */\n  dup2\n    /* \"#utility.yul\":822:862   */\n  add\n    /* \"#utility.yul\":964:970   */\n  dup2\n    /* \"#utility.yul\":952:962   */\n  dup2\n    /* \"#utility.yul\":949:971   */\n  lt\n    /* \"#utility.yul\":928:946   */\n  0xffffffffffffffff\n    /* \"#utility.yul\":916:926   */\n  dup3\n    /* \"#utility.yul\":913:947   */\n  gt\n    /* \"#utility.yul\":910:972   */\n  or\n    /* \"#utility.yul\":907:995   */\n  iszero\n  tag_77\n  jumpi\n    /* \"#utility.yul\":975:993   */\n  tag_78\n  tag_48\n  jump\t// in\ntag_78:\n    /* \"#utility.yul\":907:995   */\ntag_77:\n    /* \"#utility.yul\":1015:1025   */\n  dup1\n    /* \"#utility.yul\":1011:1013   */\n  0x40\n    /* \"#utility.yul\":1004:1026   */\n  mstore\n    /* \"#utility.yul\":794:1032   */\n  pop\n    /* \"#utility.yul\":751:1032   */\n  pop\n  pop\n  jump\t// out\n    /* \"#utility.yul\":1038:1167   */\ntag_50:\n    /* \"#utility.yul\":1072:1078   */\n  0x00\n    /* \"#utility.yul\":1099:1119   */\n  tag_80\n  tag_43\n  jump\t// in\ntag_80:\n    /* \"#utility.yul\":1089:1119   */\n  swap1\n  pop\n    /* \"#utility.yul\":1128:1161   */\n  tag_81\n    /* \"#utility.yul\":1156:1160   */\n  dup3\n    /* \"#utility.yul\":1148:1154   */\n  dup3\n    /* \"#utility.yul\":1128:1161   */\n  tag_49\n  jump\t// in\ntag_81:\n    /* \"#utility.yul\":1038:1167   */\n  swap2\n  swap1\n  pop\n  jump\t// out\n    /* \"#utility.yul\":1173:1484   */\ntag_51:\n    /* \"#utility.yul\":1250:1254   */\n  0x00\n    /* \"#utility.yul\":1340:1358   */\n  0xffffffffffffffff\n    /* \"#utility.yul\":1332:1338   */\n  dup3\n    /* \"#utility.yul\":1329:1359   */\n  gt\n    /* \"#utility.yul\":1326:1382   */\n  iszero\n  tag_83\n  jumpi\n    /* \"#utility.yul\":1362:1380   */\n  tag_84\n  tag_48\n  jump\t// in\ntag_84:\n    /* \"#utility.yul\":1326:1382   */\ntag_83:\n    /* \"#utility.yul\":1412:1416   */\n  0x20\n    /* \"#utility.yul\":1404:1410   */\n  dup3\n    /* \"#utility.yul\":1400:1417   */\n  mul\n    /* \"#utility.yul\":1392:1417   */\n  swap1\n  pop\n    /* \"#utility.yul\":1472:1476   */\n  0x20\n    /* \"#utility.yul\":1466:1470   */\n  dup2\n    /* \"#utility.yul\":1462:1477   */\n  add\n    /* \"#utility.yul\":1454:1477   */\n  swap1\n  pop\n    /* \"#utility.yul\":1173:1484   */\n  swap2\n  swap1\n  pop\n  jump\t// out\n    /* \"#utility.yul\":1490:1607   */\ntag_52:\n    /* \"#utility.yul\":1599:1600   */\n  0x00\n    /* \"#utility.yul\":1596:1597   */\n  dup1\n    /* \"#utility.yul\":1589:1601   */\n  revert\n    /* \"#utility.yul\":1613:1739   */\ntag_53:\n    /* \"#utility.yul\":1650:1657   */\n  0x00\n    /* \"#utility.yul\":1690:1732   */\n  0xffffffffffffffffffffffffffffffffffffffff\n    /* \"#utility.yul\":1683:1688   */\n  dup3\n    /* \"#utility.yul\":1679:1733   */\n  and\n    /* \"#utility.yul\":1668:1733   */\n  swap1\n  pop\n    /* \"#utility.yul\":1613:1739   */\n  swap2\n  swap1\n  pop\n  jump\t// out\n    /* \"#utility.yul\":1745:1841   */\ntag_54:\n    /* \"#utility.yul\":1782:1789   */\n  0x00\n    /* \"#utility.yul\":1811:1835   */\n  tag_88\n    /* \"#utility.yul\":1829:1834   */\n  dup3\n    /* \"#utility.yul\":1811:1835   */\n  tag_53\n  jump\t// in\ntag_88:\n    /* \"#utility.yul\":1800:1835   */\n  swap1\n  pop\n    /* \"#utility.yul\":1745:1841   */\n  swap2\n  swap1\n  pop\n  jump\t// out\n    /* \"#utility.yul\":1847:1969   */\ntag_55:\n    /* \"#utility.yul\":1920:1944   */\n  tag_90\n    /* \"#utility.yul\":1938:1943   */\n  dup2\n    /* \"#utility.yul\":1920:1944   */\n  tag_54\n  jump\t// in\ntag_90:\n    /* \"#utility.yul\":1913:1918   */\n  dup2\n    /* \"#utility.yul\":1910:1945   */\n  eq\n    /* \"#utility.yul\":1900:1963   */\n  tag_91\n  jumpi\n    /* \"#utility.yul\":1959:1960   */\n  0x00\n    /* \"#utility.yul\":1956:1957   */\n  dup1\n    /* \"#utility.yul\":1949:1961   */\n  revert\n    /* \"#utility.yul\":1900:1963   */\ntag_91:\n    /* \"#utility.yul\":1847:1969   */\n  pop\n  jump\t// out\n    /* \"#utility.yul\":1975:2118   */\ntag_56:\n    /* \"#utility.yul\":2032:2037   */\n  0x00\n    /* \"#utility.yul\":2063:2069   */\n  dup2\n    /* \"#utility.yul\":2057:2070   */\n  mload\n    /* \"#utility.yul\":2048:2070   */\n  swap1\n  pop\n    /* \"#utility.yul\":2079:2112   */\n  tag_93\n    /* \"#utility.yul\":2106:2111   */\n  dup2\n    /* \"#utility.yul\":2079:2112   */\n  tag_55\n  jump\t// in\ntag_93:\n    /* \"#utility.yul\":1975:2118   */\n  swap3\n  swap2\n  pop\n  pop\n  jump\t// out\n    /* \"#utility.yul\":2141:2873   */\ntag_57:\n    /* \"#utility.yul\":2248:2253   */\n  0x00\n    /* \"#utility.yul\":2273:2354   */\n  tag_95\n    /* \"#utility.yul\":2289:2353   */\n  tag_96\n    /* \"#utility.yul\":2346:2352   */\n  dup5\n    /* \"#utility.yul\":2289:2353   */\n  tag_51\n  jump\t// in\ntag_96:\n    /* \"#utility.yul\":2273:2354   */\n  tag_50\n  jump\t// in\ntag_95:\n    /* \"#utility.yul\":2264:2354   */\n  swap1\n  pop\n    /* \"#utility.yul\":2374:2379   */\n  dup1\n    /* \"#utility.yul\":2403:2409   */\n  dup4\n    /* \"#utility.yul\":2396:2401   */\n  dup3\n    /* \"#utility.yul\":2389:2410   */\n  mstore\n    /* \"#utility.yul\":2437:2441   */\n  0x20\n    /* \"#utility.yul\":2430:2435   */\n  dup3\n    /* \"#utility.yul\":2426:2442   */\n  add\n    /* \"#utility.yul\":2419:2442   */\n  swap1\n  pop\n    /* \"#utility.yul\":2490:2494   */\n  0x20\n    /* \"#utility.yul\":2482:2488   */\n  dup5\n    /* \"#utility.yul\":2478:2495   */\n  mul\n    /* \"#utility.yul\":2470:2476   */\n  dup4\n    /* \"#utility.yul\":2466:2496   */\n  add\n    /* \"#utility.yul\":2519:2522   */\n  dup6\n    /* \"#utility.yul\":2511:2517   */\n  dup2\n    /* \"#utility.yul\":2508:2523   */\n  gt\n    /* \"#utility.yul\":2505:2627   */\n  iszero\n  tag_97\n  jumpi\n    /* \"#utility.yul\":2538:2617   */\n  tag_98\n  tag_52\n  jump\t// in\ntag_98:\n    /* \"#utility.yul\":2505:2627   */\ntag_97:\n    /* \"#utility.yul\":2653:2659   */\n  dup4\n    /* \"#utility.yul\":2636:2867   */\ntag_99:\n    /* \"#utility.yul\":2670:2676   */\n  dup2\n    /* \"#utility.yul\":2665:2668   */\n  dup2\n    /* \"#utility.yul\":2662:2677   */\n  lt\n    /* \"#utility.yul\":2636:2867   */\n  iszero\n  tag_101\n  jumpi\n    /* \"#utility.yul\":2745:2748   */\n  dup1\n    /* \"#utility.yul\":2774:2822   */\n  tag_102\n    /* \"#utility.yul\":2818:2821   */\n  dup9\n    /* \"#utility.yul\":2806:2816   */\n  dup3\n    /* \"#utility.yul\":2774:2822   */\n  tag_56\n  jump\t// in\ntag_102:\n    /* \"#utility.yul\":2769:2772   */\n  dup5\n    /* \"#utility.yul\":2762:2823   */\n  mstore\n    /* \"#utility.yul\":2852:2856   */\n  0x20\n    /* \"#utility.yul\":2847:2850   */\n  dup5\n    /* \"#utility.yul\":2843:2857   */\n  add\n    /* \"#utility.yul\":2836:2857   */\n  swap4\n  pop\n    /* \"#utility.yul\":2712:2867   */\n  pop\n    /* \"#utility.yul\":2696:2700   */\n  0x20\n    /* \"#utility.yul\":2691:2694   */\n  dup2\n    /* \"#utility.yul\":2687:2701   */\n  add\n    /* \"#utility.yul\":2680:2701   */\n  swap1\n  pop\n    /* \"#utility.yul\":2636:2867   */\n  jump(tag_99)\ntag_101:\n    /* \"#utility.yul\":2640:2661   */\n  pop\n    /* \"#utility.yul\":2254:2873   */\n  pop\n  pop\n    /* \"#utility.yul\":2141:2873   */\n  swap4\n  swap3\n  pop\n  pop\n  pop\n  jump\t// out\n    /* \"#utility.yul\":2896:3281   */\ntag_58:\n    /* \"#utility.yul\":2978:2983   */\n  0x00\n    /* \"#utility.yul\":3027:3030   */\n  dup3\n    /* \"#utility.yul\":3020:3024   */\n  0x1f\n    /* \"#utility.yul\":3012:3018   */\n  dup4\n    /* \"#utility.yul\":3008:3025   */\n  add\n    /* \"#utility.yul\":3004:3031   */\n  slt\n    /* \"#utility.yul\":2994:3116   */\n  tag_104\n  jumpi\n    /* \"#utility.yul\":3035:3114   */\n  tag_105\n  tag_46\n  jump\t// in\ntag_105:\n    /* \"#utility.yul\":2994:3116   */\ntag_104:\n    /* \"#utility.yul\":3145:3151   */\n  dup2\n    /* \"#utility.yul\":3139:3152   */\n  mload\n    /* \"#utility.yul\":3170:3275   */\n  tag_106\n    /* \"#utility.yul\":3271:3274   */\n  dup5\n    /* \"#utility.yul\":3263:3269   */\n  dup3\n    /* \"#utility.yul\":3256:3260   */\n  0x20\n    /* \"#utility.yul\":3248:3254   */\n  dup7\n    /* \"#utility.yul\":3244:3261   */\n  add\n    /* \"#utility.yul\":3170:3275   */\n  tag_57\n  jump\t// in\ntag_106:\n    /* \"#utility.yul\":3161:3275   */\n  swap2\n  pop\n    /* \"#utility.yul\":2984:3281   */\n  pop\n    /* \"#utility.yul\":2896:3281   */\n  swap3\n  swap2\n  pop\n  pop\n  jump\t// out\n    /* \"#utility.yul\":3287:3841   */\ntag_3:\n    /* \"#utility.yul\":3382:3388   */\n  0x00\n    /* \"#utility.yul\":3431:3433   */\n  0x20\n    /* \"#utility.yul\":3419:3428   */\n  dup3\n    /* \"#utility.yul\":3410:3417   */\n  dup5\n    /* \"#utility.yul\":3406:3429   */\n  sub\n    /* \"#utility.yul\":3402:3434   */\n  slt\n    /* \"#utility.yul\":3399:3518   */\n  iszero\n  tag_108\n  jumpi\n    /* \"#utility.yul\":3437:3516   */\n  tag_109\n  tag_44\n  jump\t// in\ntag_109:\n    /* \"#utility.yul\":3399:3518   */\ntag_108:\n    /* \"#utility.yul\":3578:3579   */\n  0x00\n    /* \"#utility.yul\":3567:3576   */\n  dup3\n    /* \"#utility.yul\":3563:3580   */\n  add\n    /* \"#utility.yul\":3557:3581   */\n  mload\n    /* \"#utility.yul\":3608:3626   */\n  0xffffffffffffffff\n    /* \"#utility.yul\":3600:3606   */\n  dup2\n    /* \"#utility.yul\":3597:3627   */\n  gt\n    /* \"#utility.yul\":3594:3711   */\n  iszero\n  tag_110\n  jumpi\n    /* \"#utility.yul\":3630:3709   */\n  tag_111\n  tag_45\n  jump\t// in\ntag_111:\n    /* \"#utility.yul\":3594:3711   */\ntag_110:\n    /* \"#utility.yul\":3735:3824   */\n  tag_112\n    /* \"#utility.yul\":3816:3823   */\n  dup5\n    /* \"#utility.yul\":3807:3813   */\n  dup3\n    /* \"#utility.yul\":3796:3805   */\n  dup6\n    /* \"#utility.yul\":3792:3814   */\n  add\n    /* \"#utility.yul\":3735:3824   */\n  tag_58\n  jump\t// in\ntag_112:\n    /* \"#utility.yul\":3725:3824   */\n  swap2\n  pop\n    /* \"#utility.yul\":3528:3834   */\n  pop\n    /* \"#utility.yul\":3287:3841   */\n  swap3\n  swap2\n  pop\n  pop\n  jump\t// out\n    /* \"#utility.yul\":3847:3965   */\ntag_59:\n    /* \"#utility.yul\":3934:3958   */\n  tag_114\n    /* \"#utility.yul\":3952:3957   */\n  dup2\n    /* \"#utility.yul\":3934:3958   */\n  tag_54\n  jump\t// in\ntag_114:\n    /* \"#utility.yul\":3929:3932   */\n  dup3\n    /* \"#utility.yul\":3922:3959   */\n  mstore\n    /* \"#utility.yul\":3847:3965   */\n  pop\n  pop\n  jump\t// out\n    /* \"#utility.yul\":3971:4193   */\ntag_9:\n    /* \"#utility.yul\":4064:4068   */\n  0x00\n    /* \"#utility.yul\":4102:4104   */\n  0x20\n    /* \"#utility.yul\":4091:4100   */\n  dup3\n    /* \"#utility.yul\":4087:4105   */\n  add\n    /* \"#utility.yul\":4079:4105   */\n  swap1\n  pop\n    /* \"#utility.yul\":4115:4186   */\n  tag_116\n    /* \"#utility.yul\":4183:4184   */\n  0x00\n    /* \"#utility.yul\":4172:4181   */\n  dup4\n    /* \"#utility.yul\":4168:4185   */\n  add\n    /* \"#utility.yul\":4159:4165   */\n  dup5\n    /* \"#utility.yul\":4115:4186   */\n  tag_59\n  jump\t// in\ntag_116:\n    /* \"#utility.yul\":3971:4193   */\n  swap3\n  swap2\n  pop\n  pop\n  jump\t// out\n    /* \"#utility.yul\":4199:4368   */\ntag_60:\n    /* \"#utility.yul\":4283:4294   */\n  0x00\n    /* \"#utility.yul\":4317:4323   */\n  dup3\n    /* \"#utility.yul\":4312:4315   */\n  dup3\n    /* \"#utility.yul\":4305:4324   */\n  mstore\n    /* \"#utility.yul\":4357:4361   */\n  0x20\n    /* \"#utility.yul\":4352:4355   */\n  dup3\n    /* \"#utility.yul\":4348:4362   */\n  add\n    /* \"#utility.yul\":4333:4362   */\n  swap1\n  pop\n    /* \"#utility.yul\":4199:4368   */\n  swap3\n  swap2\n  pop\n  pop\n  jump\t// out\n    /* \"#utility.yul\":4374:4596   */\ntag_61:\n    /* \"#utility.yul\":4514:4548   */\n  0x4174206c65617374206f6e6520746f6b656e2061646472657373207265717569\n    /* \"#utility.yul\":4510:4511   */\n  0x00\n    /* \"#utility.yul\":4502:4508   */\n  dup3\n    /* \"#utility.yul\":4498:4512   */\n  add\n    /* \"#utility.yul\":4491:4549   */\n  mstore\n    /* \"#utility.yul\":4583:4588   */\n  0x7265640000000000000000000000000000000000000000000000000000000000\n    /* \"#utility.yul\":4578:4580   */\n  0x20\n    /* \"#utility.yul\":4570:4576   */\n  dup3\n    /* \"#utility.yul\":4566:4581   */\n  add\n    /* \"#utility.yul\":4559:4589   */\n  mstore\n    /* \"#utility.yul\":4374:4596   */\n  pop\n  jump\t// out\n    /* \"#utility.yul\":4602:4968   */\ntag_62:\n    /* \"#utility.yul\":4744:4747   */\n  0x00\n    /* \"#utility.yul\":4765:4832   */\n  tag_120\n    /* \"#utility.yul\":4829:4831   */\n  0x23\n    /* \"#utility.yul\":4824:4827   */\n  dup4\n    /* \"#utility.yul\":4765:4832   */\n  tag_60\n  jump\t// in\ntag_120:\n    /* \"#utility.yul\":4758:4832   */\n  swap2\n  pop\n    /* \"#utility.yul\":4841:4934   */\n  tag_121\n    /* \"#utility.yul\":4930:4933   */\n  dup3\n    /* \"#utility.yul\":4841:4934   */\n  tag_61\n  jump\t// in\ntag_121:\n    /* \"#utility.yul\":4959:4961   */\n  0x40\n    /* \"#utility.yul\":4954:4957   */\n  dup3\n    /* \"#utility.yul\":4950:4962   */\n  add\n    /* \"#utility.yul\":4943:4962   */\n  swap1\n  pop\n    /* \"#utility.yul\":4602:4968   */\n  swap2\n  swap1\n  pop\n  jump\t// out\n    /* \"#utility.yul\":4974:5393   */\ntag_15:\n    /* \"#utility.yul\":5140:5144   */\n  0x00\n    /* \"#utility.yul\":5178:5180   */\n  0x20\n    /* \"#utility.yul\":5167:5176   */\n  dup3\n    /* \"#utility.yul\":5163:5181   */\n  add\n    /* \"#utility.yul\":5155:5181   */\n  swap1\n  pop\n    /* \"#utility.yul\":5227:5236   */\n  dup2\n    /* \"#utility.yul\":5221:5225   */\n  dup2\n    /* \"#utility.yul\":5217:5237   */\n  sub\n    /* \"#utility.yul\":5213:5214   */\n  0x00\n    /* \"#utility.yul\":5202:5211   */\n  dup4\n    /* \"#utility.yul\":5198:5215   */\n  add\n    /* \"#utility.yul\":5191:5238   */\n  mstore\n    /* \"#utility.yul\":5255:5386   */\n  tag_123\n    /* \"#utility.yul\":5381:5385   */\n  dup2\n    /* \"#utility.yul\":5255:5386   */\n  tag_62\n  jump\t// in\ntag_123:\n    /* \"#utility.yul\":5247:5386   */\n  swap1\n  pop\n    /* \"#utility.yul\":4974:5393   */\n  swap2\n  swap1\n  pop\n  jump\t// out\n    /* \"#utility.yul\":5399:5579   */\ntag_21:\n    /* \"#utility.yul\":5447:5524   */\n  0x4e487b7100000000000000000000000000000000000000000000000000000000\n    /* \"#utility.yul\":5444:5445   */\n  0x00\n    /* \"#utility.yul\":5437:5525   */\n  mstore\n    /* \"#utility.yul\":5544:5548   */\n  0x32\n    /* \"#utility.yul\":5541:5542   */\n  0x04\n    /* \"#utility.yul\":5534:5549   */\n  mstore\n    /* \"#utility.yul\":5568:5572   */\n  0x24\n    /* \"#utility.yul\":5565:5566   */\n  0x00\n    /* \"#utility.yul\":5558:5573   */\n  revert\n    /* \"#utility.yul\":5585:5750   */\ntag_63:\n    /* \"#utility.yul\":5725:5742   */\n  0x4475706c696361746520746f6b656e0000000000000000000000000000000000\n    /* \"#utility.yul\":5721:5722   */\n  0x00\n    /* \"#utility.yul\":5713:5719   */\n  dup3\n    /* \"#utility.yul\":5709:5723   */\n  add\n    /* \"#utility.yul\":5702:5743   */\n  mstore\n    /* \"#utility.yul\":5585:5750   */\n  pop\n  jump\t// out\n    /* \"#utility.yul\":5756:6122   */\ntag_64:\n    /* \"#utility.yul\":5898:5901   */\n  0x00\n    /* \"#utility.yul\":5919:5986   */\n  tag_127\n    /* \"#utility.yul\":5983:5985   */\n  0x0f\n    /* \"#utility.yul\":5978:5981   */\n  dup4\n    /* \"#utility.yul\":5919:5986   */\n  tag_60\n  jump\t// in\ntag_127:\n    /* \"#utility.yul\":5912:5986   */\n  swap2\n  pop\n    /* \"#utility.yul\":5995:6088   */\n  tag_128\n    /* \"#utility.yul\":6084:6087   */\n  dup3\n    /* \"#utility.yul\":5995:6088   */\n  tag_63\n  jump\t// in\ntag_128:\n    /* \"#utility.yul\":6113:6115   */\n  0x20\n    /* \"#utility.yul\":6108:6111   */\n  dup3\n    /* \"#utility.yul\":6104:6116   */\n  add\n    /* \"#utility.yul\":6097:6116   */\n  swap1\n  pop\n    /* \"#utility.yul\":5756:6122   */\n  swap2\n  swap1\n  pop\n  jump\t// out\n    /* \"#utility.yul\":6128:6547   */\ntag_24:\n    /* \"#utility.yul\":6294:6298   */\n  0x00\n    /* \"#utility.yul\":6332:6334   */\n  0x20\n    /* \"#utility.yul\":6321:6330   */\n  dup3\n    /* \"#utility.yul\":6317:6335   */\n  add\n    /* \"#utility.yul\":6309:6335   */\n  swap1\n  pop\n    /* \"#utility.yul\":6381:6390   */\n  dup2\n    /* \"#utility.yul\":6375:6379   */\n  dup2\n    /* \"#utility.yul\":6371:6391   */\n  sub\n    /* \"#utility.yul\":6367:6368   */\n  0x00\n    /* \"#utility.yul\":6356:6365   */\n  dup4\n    /* \"#utility.yul\":6352:6369   */\n  add\n    /* \"#utility.yul\":6345:6392   */\n  mstore\n    /* \"#utility.yul\":6409:6540   */\n  tag_130\n    /* \"#utility.yul\":6535:6539   */\n  dup2\n    /* \"#utility.yul\":6409:6540   */\n  tag_64\n  jump\t// in\ntag_130:\n    /* \"#utility.yul\":6401:6540   */\n  swap1\n  pop\n    /* \"#utility.yul\":6128:6547   */\n  swap2\n  swap1\n  pop\n  jump\t// out\n    /* \"#utility.yul\":6553:6639   */\ntag_65:\n    /* \"#utility.yul\":6588:6595   */\n  0x00\n    /* \"#utility.yul\":6628:6632   */\n  0xff\n    /* \"#utility.yul\":6621:6626   */\n  dup3\n    /* \"#utility.yul\":6617:6633   */\n  and\n    /* \"#utility.yul\":6606:6633   */\n  swap1\n  pop\n    /* \"#utility.yul\":6553:6639   */\n  swap2\n  swap1\n  pop\n  jump\t// out\n    /* \"#utility.yul\":6645:6763   */\ntag_66:\n    /* \"#utility.yul\":6716:6738   */\n  tag_133\n    /* \"#utility.yul\":6732:6737   */\n  dup2\n    /* \"#utility.yul\":6716:6738   */\n  tag_65\n  jump\t// in\ntag_133:\n    /* \"#utility.yul\":6709:6714   */\n  dup2\n    /* \"#utility.yul\":6706:6739   */\n  eq\n    /* \"#utility.yul\":6696:6757   */\n  tag_134\n  jumpi\n    /* \"#utility.yul\":6753:6754   */\n  0x00\n    /* \"#utility.yul\":6750:6751   */\n  dup1\n    /* \"#utility.yul\":6743:6755   */\n  revert\n    /* \"#utility.yul\":6696:6757   */\ntag_134:\n    /* \"#utility.yul\":6645:6763   */\n  pop\n  jump\t// out\n    /* \"#utility.yul\":6769:6908   */\ntag_67:\n    /* \"#utility.yul\":6824:6829   */\n  0x00\n    /* \"#utility.yul\":6855:6861   */\n  dup2\n    /* \"#utility.yul\":6849:6862   */\n  mload\n    /* \"#utility.yul\":6840:6862   */\n  swap1\n  pop\n    /* \"#utility.yul\":6871:6902   */\n  tag_136\n    /* \"#utility.yul\":6896:6901   */\n  dup2\n    /* \"#utility.yul\":6871:6902   */\n  tag_66\n  jump\t// in\ntag_136:\n    /* \"#utility.yul\":6769:6908   */\n  swap3\n  swap2\n  pop\n  pop\n  jump\t// out\n    /* \"#utility.yul\":6914:7261   */\ntag_33:\n    /* \"#utility.yul\":6982:6988   */\n  0x00\n    /* \"#utility.yul\":7031:7033   */\n  0x20\n    /* \"#utility.yul\":7019:7028   */\n  dup3\n    /* \"#utility.yul\":7010:7017   */\n  dup5\n    /* \"#utility.yul\":7006:7029   */\n  sub\n    /* \"#utility.yul\":7002:7034   */\n  slt\n    /* \"#utility.yul\":6999:7118   */\n  iszero\n  tag_138\n  jumpi\n    /* \"#utility.yul\":7037:7116   */\n  tag_139\n  tag_44\n  jump\t// in\ntag_139:\n    /* \"#utility.yul\":6999:7118   */\ntag_138:\n    /* \"#utility.yul\":7157:7158   */\n  0x00\n    /* \"#utility.yul\":7182:7244   */\n  tag_140\n    /* \"#utility.yul\":7236:7243   */\n  dup5\n    /* \"#utility.yul\":7227:7233   */\n  dup3\n    /* \"#utility.yul\":7216:7225   */\n  dup6\n    /* \"#utility.yul\":7212:7234   */\n  add\n    /* \"#utility.yul\":7182:7244   */\n  tag_67\n  jump\t// in\ntag_140:\n    /* \"#utility.yul\":7172:7244   */\n  swap2\n  pop\n    /* \"#utility.yul\":7128:7254   */\n  pop\n    /* \"#utility.yul\":6914:7261   */\n  swap3\n  swap2\n  pop\n  pop\n  jump\t// out\n    /* \"contracts/Bank.sol\":252:4893  contract Bank is Ownable {... */\ntag_40:\n  mload(0x80)\n  mload(0xa0)\n  codecopy(0x00, dataOffset(sub_0), dataSize(sub_0))\n  0x00\n  assignImmutable(\"0xb5ec0f20465329e13a2d85270cb78f65c575ccff472e4a205299224e150cb7e2\")\n  0x00\n  assignImmutable(\"0x5123ab44a95b9e316b860f114ea520934458fa7bff216e60c6945263bff2b6f8\")\n  return(0x00, dataSize(sub_0))\nstop\n\nsub_0: assembly {\n        /* \"contracts/Bank.sol\":252:4893  contract Bank is Ownable {... */\n      mstore(0x40, 0x80)\n      jumpi(tag_1, lt(calldatasize, 0x04))\n      shr(0xe0, calldataload(0x00))\n      dup1\n      0x95533f17\n      gt\n      tag_14\n      jumpi\n      dup1\n      0x95533f17\n      eq\n      tag_8\n      jumpi\n      dup1\n      0xbeabacc8\n      eq\n      tag_9\n      jumpi\n      dup1\n      0xd449a832\n      eq\n      tag_10\n      jumpi\n      dup1\n      0xe1254fba\n      eq\n      tag_11\n      jumpi\n      dup1\n      0xf2fde38b\n      eq\n      tag_12\n      jumpi\n      dup1\n      0xf3fef3a3\n      eq\n      tag_13\n      jumpi\n      jump(tag_2)\n    tag_14:\n      dup1\n      0x2e9708e4\n      eq\n      tag_3\n      jumpi\n      dup1\n      0x47e7ef24\n      eq\n      tag_4\n      jumpi\n      dup1\n      0x715018a6\n      eq\n      tag_5\n      jumpi\n      dup1\n      0x8da5cb5b\n      eq\n      tag_6\n      jumpi\n      dup1\n      0x8f601f66\n      eq\n      tag_7\n      jumpi\n      jump(tag_2)\n    tag_1:\n      jumpi(tag_2, calldatasize)\n      stop\n    tag_2:\n      0x00\n      dup1\n      revert\n        /* \"contracts/Bank.sol\":650:697  mapping(address => Deposit) public eth_deposits */\n    tag_3:\n      callvalue\n      dup1\n      iszero\n      tag_17\n      jumpi\n      0x00\n      dup1\n      revert\n    tag_17:\n      pop\n      tag_18\n      0x04\n      dup1\n      calldatasize\n      sub\n      dup2\n      add\n      swap1\n      tag_19\n      swap2\n      swap1\n      tag_20\n      jump\t// in\n    tag_19:\n      tag_21\n      jump\t// in\n    tag_18:\n      mload(0x40)\n      tag_22\n      swap3\n      swap2\n      swap1\n      tag_23\n      jump\t// in\n    tag_22:\n      mload(0x40)\n      dup1\n      swap2\n      sub\n      swap1\n      return\n        /* \"contracts/Bank.sol\":1954:2620  function deposit(address token, uint256 amount) external payable {... */\n    tag_4:\n      tag_24\n      0x04\n      dup1\n      calldatasize\n      sub\n      dup2\n      add\n      swap1\n      tag_25\n      swap2\n      swap1\n      tag_26\n      jump\t// in\n    tag_25:\n      tag_27\n      jump\t// in\n    tag_24:\n      stop\n        /* \"@openzeppelin/contracts/access/Ownable.sol\":2293:2394  function renounceOwnership() public virtual onlyOwner {... */\n    tag_5:\n      callvalue\n      dup1\n      iszero\n      tag_28\n      jumpi\n      0x00\n      dup1\n      revert\n    tag_28:\n      pop\n      tag_29\n      tag_30\n      jump\t// in\n    tag_29:\n      stop\n        /* \"@openzeppelin/contracts/access/Ownable.sol\":1638:1723  function owner() public view virtual returns (address) {... */\n    tag_6:\n      callvalue\n      dup1\n      iszero\n      tag_31\n      jumpi\n      0x00\n      dup1\n      revert\n    tag_31:\n      pop\n      tag_32\n      tag_33\n      jump\t// in\n    tag_32:\n      mload(0x40)\n      tag_34\n      swap2\n      swap1\n      tag_35\n      jump\t// in\n    tag_34:\n      mload(0x40)\n      dup1\n      swap2\n      sub\n      swap1\n      return\n        /* \"contracts/Bank.sol\":521:584  mapping(address => mapping(address => Deposit)) public deposits */\n    tag_7:\n      callvalue\n      dup1\n      iszero\n      tag_36\n      jumpi\n      0x00\n      dup1\n      revert\n    tag_36:\n      pop\n      tag_37\n      0x04\n      dup1\n      calldatasize\n      sub\n      dup2\n      add\n      swap1\n      tag_38\n      swap2\n      swap1\n      tag_39\n      jump\t// in\n    tag_38:\n      tag_40\n      jump\t// in\n    tag_37:\n      mload(0x40)\n      tag_41\n      swap3\n      swap2\n      swap1\n      tag_23\n      jump\t// in\n    tag_41:\n      mload(0x40)\n      dup1\n      swap2\n      sub\n      swap1\n      return\n        /* \"contracts/Bank.sol\":750:795  mapping(address => bool) public isTokenInList */\n    tag_8:\n      callvalue\n      dup1\n      iszero\n      tag_42\n      jumpi\n      0x00\n      dup1\n      revert\n    tag_42:\n      pop\n      tag_43\n      0x04\n      dup1\n      calldatasize\n      sub\n      dup2\n      add\n      swap1\n      tag_44\n      swap2\n      swap1\n      tag_20\n      jump\t// in\n    tag_44:\n      tag_45\n      jump\t// in\n    tag_43:\n      mload(0x40)\n      tag_46\n      swap2\n      swap1\n      tag_47\n      jump\t// in\n    tag_46:\n      mload(0x40)\n      dup1\n      swap2\n      sub\n      swap1\n      return\n        /* \"contracts/Bank.sol\":3662:4455  function transfer(address token, address payable to, uint256 amount) external payable {... */\n    tag_9:\n      tag_48\n      0x04\n      dup1\n      calldatasize\n      sub\n      dup2\n      add\n      swap1\n      tag_49\n      swap2\n      swap1\n      tag_50\n      jump\t// in\n    tag_49:\n      tag_51\n      jump\t// in\n    tag_48:\n      stop\n        /* \"contracts/Bank.sol\":825:866  mapping(address => uint8) public decimals */\n    tag_10:\n      callvalue\n      dup1\n      iszero\n      tag_52\n      jumpi\n      0x00\n      dup1\n      revert\n    tag_52:\n      pop\n      tag_53\n      0x04\n      dup1\n      calldatasize\n      sub\n      dup2\n      add\n      swap1\n      tag_54\n      swap2\n      swap1\n      tag_20\n      jump\t// in\n    tag_54:\n      tag_55\n      jump\t// in\n    tag_53:\n      mload(0x40)\n      tag_56\n      swap2\n      swap1\n      tag_57\n      jump\t// in\n    tag_56:\n      mload(0x40)\n      dup1\n      swap2\n      sub\n      swap1\n      return\n        /* \"contracts/Bank.sol\":4503:4813  function getDeposit(address token) external view returns (uint256) {... */\n    tag_11:\n      callvalue\n      dup1\n      iszero\n      tag_58\n      jumpi\n      0x00\n      dup1\n      revert\n    tag_58:\n      pop\n      tag_59\n      0x04\n      dup1\n      calldatasize\n      sub\n      dup2\n      add\n      swap1\n      tag_60\n      swap2\n      swap1\n      tag_20\n      jump\t// in\n    tag_60:\n      tag_61\n      jump\t// in\n    tag_59:\n      mload(0x40)\n      tag_62\n      swap2\n      swap1\n      tag_63\n      jump\t// in\n    tag_62:\n      mload(0x40)\n      dup1\n      swap2\n      sub\n      swap1\n      return\n        /* \"@openzeppelin/contracts/access/Ownable.sol\":2543:2758  function transferOwnership(address newOwner) public virtual onlyOwner {... */\n    tag_12:\n      callvalue\n      dup1\n      iszero\n      tag_64\n      jumpi\n      0x00\n      dup1\n      revert\n    tag_64:\n      pop\n      tag_65\n      0x04\n      dup1\n      calldatasize\n      sub\n      dup2\n      add\n      swap1\n      tag_66\n      swap2\n      swap1\n      tag_20\n      jump\t// in\n    tag_66:\n      tag_67\n      jump\t// in\n    tag_65:\n      stop\n        /* \"contracts/Bank.sol\":2666:3616  function withdraw(address token, uint256 amount) external {... */\n    tag_13:\n      callvalue\n      dup1\n      iszero\n      tag_68\n      jumpi\n      0x00\n      dup1\n      revert\n    tag_68:\n      pop\n      tag_69\n      0x04\n      dup1\n      calldatasize\n      sub\n      dup2\n      add\n      swap1\n      tag_70\n      swap2\n      swap1\n      tag_26\n      jump\t// in\n    tag_70:\n      tag_71\n      jump\t// in\n    tag_69:\n      stop\n        /* \"contracts/Bank.sol\":650:697  mapping(address => Deposit) public eth_deposits */\n    tag_21:\n      mstore(0x20, 0x04)\n      dup1\n      0x00\n      mstore\n      keccak256(0x00, 0x40)\n      0x00\n      swap2\n      pop\n      swap1\n      pop\n      dup1\n      0x00\n      add\n      sload\n      swap1\n      dup1\n      0x01\n      add\n      sload\n      swap1\n      pop\n      dup3\n      jump\t// out\n        /* \"contracts/Bank.sol\":1954:2620  function deposit(address token, uint256 amount) external payable {... */\n    tag_27:\n        /* \"contracts/Bank.sol\":2051:2052  0 */\n      0x00\n        /* \"contracts/Bank.sol\":2034:2053  token == address(0) */\n      0xffffffffffffffffffffffffffffffffffffffff\n      and\n        /* \"contracts/Bank.sol\":2034:2039  token */\n      dup3\n        /* \"contracts/Bank.sol\":2034:2053  token == address(0) */\n      0xffffffffffffffffffffffffffffffffffffffff\n      and\n      sub\n        /* \"contracts/Bank.sol\":2030:2613  if (token == address(0)) {... */\n      tag_73\n      jumpi\n        /* \"contracts/Bank.sol\":2105:2114  msg.value */\n      callvalue\n        /* \"contracts/Bank.sol\":2070:2082  eth_deposits */\n      0x04\n        /* \"contracts/Bank.sol\":2070:2094  eth_deposits[msg.sender] */\n      0x00\n        /* \"contracts/Bank.sol\":2083:2093  msg.sender */\n      caller\n        /* \"contracts/Bank.sol\":2070:2094  eth_deposits[msg.sender] */\n      0xffffffffffffffffffffffffffffffffffffffff\n      and\n      0xffffffffffffffffffffffffffffffffffffffff\n      and\n      dup2\n      mstore\n      0x20\n      add\n      swap1\n      dup2\n      mstore\n      0x20\n      add\n      0x00\n      keccak256\n        /* \"contracts/Bank.sol\":2070:2101  eth_deposits[msg.sender].amount */\n      0x01\n      add\n      0x00\n        /* \"contracts/Bank.sol\":2070:2114  eth_deposits[msg.sender].amount += msg.value */\n      dup3\n      dup3\n      sload\n      tag_74\n      swap2\n      swap1\n      tag_75\n      jump\t// in\n    tag_74:\n      swap3\n      pop\n      pop\n      dup2\n      swap1\n      sstore\n      pop\n        /* \"contracts/Bank.sol\":2161:2181  getCurrentTimeView() */\n      tag_76\n        /* \"contracts/Bank.sol\":2161:2179  getCurrentTimeView */\n      tag_77\n        /* \"contracts/Bank.sol\":2161:2181  getCurrentTimeView() */\n      jump\t// in\n    tag_76:\n        /* \"contracts/Bank.sol\":2129:2141  eth_deposits */\n      0x04\n        /* \"contracts/Bank.sol\":2129:2153  eth_deposits[msg.sender] */\n      0x00\n        /* \"contracts/Bank.sol\":2142:2152  msg.sender */\n      caller\n        /* \"contracts/Bank.sol\":2129:2153  eth_deposits[msg.sender] */\n      0xffffffffffffffffffffffffffffffffffffffff\n      and\n      0xffffffffffffffffffffffffffffffffffffffff\n      and\n      dup2\n      mstore\n      0x20\n      add\n      swap1\n      dup2\n      mstore\n      0x20\n      add\n      0x00\n      keccak256\n        /* \"contracts/Bank.sol\":2129:2158  eth_deposits[msg.sender].time */\n      0x00\n      add\n        /* \"contracts/Bank.sol\":2129:2181  eth_deposits[msg.sender].time = getCurrentTimeView() */\n      dup2\n      swap1\n      sstore\n      pop\n        /* \"contracts/Bank.sol\":2210:2220  msg.sender */\n      caller\n        /* \"contracts/Bank.sol\":2201:2232  ETHSaved(msg.sender, msg.value) */\n      0xffffffffffffffffffffffffffffffffffffffff\n      and\n      0x3bc2cc3db9bc1fa24ad4420cf0201d4c07698bf5902c10e3e04a05d343e938c7\n        /* \"contracts/Bank.sol\":2222:2231  msg.value */\n      callvalue\n        /* \"contracts/Bank.sol\":2201:2232  ETHSaved(msg.sender, msg.value) */\n      mload(0x40)\n      tag_78\n      swap2\n      swap1\n      tag_63\n      jump\t// in\n    tag_78:\n      mload(0x40)\n      dup1\n      swap2\n      sub\n      swap1\n      log2\n        /* \"contracts/Bank.sol\":2030:2613  if (token == address(0)) {... */\n      jump(tag_79)\n    tag_73:\n        /* \"contracts/Bank.sol\":2273:2286  isTokenInList */\n      0x05\n        /* \"contracts/Bank.sol\":2273:2293  isTokenInList[token] */\n      0x00\n        /* \"contracts/Bank.sol\":2287:2292  token */\n      dup4\n        /* \"contracts/Bank.sol\":2273:2293  isTokenInList[token] */\n      0xffffffffffffffffffffffffffffffffffffffff\n      and\n      0xffffffffffffffffffffffffffffffffffffffff\n      and\n      dup2\n      mstore\n      0x20\n      add\n      swap1\n      dup2\n      mstore\n      0x20\n      add\n      0x00\n      keccak256\n      0x00\n      swap1\n      sload\n      swap1\n      0x0100\n      exp\n      swap1\n      div\n      0xff\n      and\n        /* \"contracts/Bank.sol\":2265:2311  require(isTokenInList[token], \"Invalid token\") */\n      tag_80\n      jumpi\n      mload(0x40)\n      0x08c379a000000000000000000000000000000000000000000000000000000000\n      dup2\n      mstore\n      0x04\n      add\n      tag_81\n      swap1\n      tag_82\n      jump\t// in\n    tag_81:\n      mload(0x40)\n      dup1\n      swap2\n      sub\n      swap1\n      revert\n    tag_80:\n        /* \"contracts/Bank.sol\":2341:2346  token */\n      dup2\n        /* \"contracts/Bank.sol\":2334:2360  IERC20(token).transferFrom */\n      0xffffffffffffffffffffffffffffffffffffffff\n      and\n      0x23b872dd\n        /* \"contracts/Bank.sol\":2361:2371  msg.sender */\n      caller\n        /* \"contracts/Bank.sol\":2381:2385  this */\n      address\n        /* \"contracts/Bank.sol\":2388:2394  amount */\n      dup5\n        /* \"contracts/Bank.sol\":2334:2395  IERC20(token).transferFrom(msg.sender, address(this), amount) */\n      mload(0x40)\n      dup5\n      0xffffffff\n      and\n      0xe0\n      shl\n      dup2\n      mstore\n      0x04\n      add\n      tag_83\n      swap4\n      swap3\n      swap2\n      swap1\n      tag_84\n      jump\t// in\n    tag_83:\n      0x20\n      mload(0x40)\n      dup1\n      dup4\n      sub\n      dup2\n      0x00\n      dup8\n      gas\n      call\n      iszero\n      dup1\n      iszero\n      tag_86\n      jumpi\n      returndatasize\n      0x00\n      dup1\n      returndatacopy\n      revert(0x00, returndatasize)\n    tag_86:\n      pop\n      pop\n      pop\n      pop\n      mload(0x40)\n      returndatasize\n      not(0x1f)\n      0x1f\n      dup3\n      add\n      and\n      dup3\n      add\n      dup1\n      0x40\n      mstore\n      pop\n      dup2\n      add\n      swap1\n      tag_87\n      swap2\n      swap1\n      tag_88\n      jump\t// in\n    tag_87:\n        /* \"contracts/Bank.sol\":2326:2415  require(IERC20(token).transferFrom(msg.sender, address(this), amount), \"Transfer failed\") */\n      tag_89\n      jumpi\n      mload(0x40)\n      0x08c379a000000000000000000000000000000000000000000000000000000000\n      dup2\n      mstore\n      0x04\n      add\n      tag_90\n      swap1\n      tag_91\n      jump\t// in\n    tag_90:\n      mload(0x40)\n      dup1\n      swap2\n      sub\n      swap1\n      revert\n    tag_89:\n        /* \"contracts/Bank.sol\":2468:2474  amount */\n      dup1\n        /* \"contracts/Bank.sol\":2430:2438  deposits */\n      0x03\n        /* \"contracts/Bank.sol\":2430:2445  deposits[token] */\n      0x00\n        /* \"contracts/Bank.sol\":2439:2444  token */\n      dup5\n        /* \"contracts/Bank.sol\":2430:2445  deposits[token] */\n      0xffffffffffffffffffffffffffffffffffffffff\n      and\n      0xffffffffffffffffffffffffffffffffffffffff\n      and\n      dup2\n      mstore\n      0x20\n      add\n      swap1\n      dup2\n      mstore\n      0x20\n      add\n      0x00\n      keccak256\n        /* \"contracts/Bank.sol\":2430:2457  deposits[token][msg.sender] */\n      0x00\n        /* \"contracts/Bank.sol\":2446:2456  msg.sender */\n      caller\n        /* \"contracts/Bank.sol\":2430:2457  deposits[token][msg.sender] */\n      0xffffffffffffffffffffffffffffffffffffffff\n      and\n      0xffffffffffffffffffffffffffffffffffffffff\n      and\n      dup2\n      mstore\n      0x20\n      add\n      swap1\n      dup2\n      mstore\n      0x20\n      add\n      0x00\n      keccak256\n        /* \"contracts/Bank.sol\":2430:2464  deposits[token][msg.sender].amount */\n      0x01\n      add\n      0x00\n        /* \"contracts/Bank.sol\":2430:2474  deposits[token][msg.sender].amount += amount */\n      dup3\n      dup3\n      sload\n      tag_92\n      swap2\n      swap1\n      tag_75\n      jump\t// in\n    tag_92:\n      swap3\n      pop\n      pop\n      dup2\n      swap1\n      sstore\n      pop\n        /* \"contracts/Bank.sol\":2525:2545  getCurrentTimeView() */\n      tag_93\n        /* \"contracts/Bank.sol\":2525:2543  getCurrentTimeView */\n      tag_77\n        /* \"contracts/Bank.sol\":2525:2545  getCurrentTimeView() */\n      jump\t// in\n    tag_93:\n        /* \"contracts/Bank.sol\":2489:2497  deposits */\n      0x03\n        /* \"contracts/Bank.sol\":2489:2504  deposits[token] */\n      0x00\n        /* \"contracts/Bank.sol\":2498:2503  token */\n      dup5\n        /* \"contracts/Bank.sol\":2489:2504  deposits[token] */\n      0xffffffffffffffffffffffffffffffffffffffff\n      and\n      0xffffffffffffffffffffffffffffffffffffffff\n      and\n      dup2\n      mstore\n      0x20\n      add\n      swap1\n      dup2\n      mstore\n      0x20\n      add\n      0x00\n      keccak256\n        /* \"contracts/Bank.sol\":2489:2516  deposits[token][msg.sender] */\n      0x00\n        /* \"contracts/Bank.sol\":2505:2515  msg.sender */\n      caller\n        /* \"contracts/Bank.sol\":2489:2516  deposits[token][msg.sender] */\n      0xffffffffffffffffffffffffffffffffffffffff\n      and\n      0xffffffffffffffffffffffffffffffffffffffff\n      and\n      dup2\n      mstore\n      0x20\n      add\n      swap1\n      dup2\n      mstore\n      0x20\n      add\n      0x00\n      keccak256\n        /* \"contracts/Bank.sol\":2489:2521  deposits[token][msg.sender].time */\n      0x00\n      add\n      0x00\n        /* \"contracts/Bank.sol\":2489:2545  deposits[token][msg.sender].time += getCurrentTimeView() */\n      dup3\n      dup3\n      sload\n      tag_94\n      swap2\n      swap1\n      tag_75\n      jump\t// in\n    tag_94:\n      swap3\n      pop\n      pop\n      dup2\n      swap1\n      sstore\n      pop\n        /* \"contracts/Bank.sol\":2587:2592  token */\n      dup2\n        /* \"contracts/Bank.sol\":2565:2601  Deposited(msg.sender, token, amount) */\n      0xffffffffffffffffffffffffffffffffffffffff\n      and\n        /* \"contracts/Bank.sol\":2575:2585  msg.sender */\n      caller\n        /* \"contracts/Bank.sol\":2565:2601  Deposited(msg.sender, token, amount) */\n      0xffffffffffffffffffffffffffffffffffffffff\n      and\n      0x8752a472e571a816aea92eec8dae9baf628e840f4929fbcc2d155e6233ff68a7\n        /* \"contracts/Bank.sol\":2594:2600  amount */\n      dup4\n        /* \"contracts/Bank.sol\":2565:2601  Deposited(msg.sender, token, amount) */\n      mload(0x40)\n      tag_95\n      swap2\n      swap1\n      tag_63\n      jump\t// in\n    tag_95:\n      mload(0x40)\n      dup1\n      swap2\n      sub\n      swap1\n      log3\n        /* \"contracts/Bank.sol\":2030:2613  if (token == address(0)) {... */\n    tag_79:\n        /* \"contracts/Bank.sol\":1954:2620  function deposit(address token, uint256 amount) external payable {... */\n      pop\n      pop\n      jump\t// out\n        /* \"@openzeppelin/contracts/access/Ownable.sol\":2293:2394  function renounceOwnership() public virtual onlyOwner {... */\n    tag_30:\n        /* \"@openzeppelin/contracts/access/Ownable.sol\":1531:1544  _checkOwner() */\n      tag_97\n        /* \"@openzeppelin/contracts/access/Ownable.sol\":1531:1542  _checkOwner */\n      tag_98\n        /* \"@openzeppelin/contracts/access/Ownable.sol\":1531:1544  _checkOwner() */\n      jump\t// in\n    tag_97:\n        /* \"@openzeppelin/contracts/access/Ownable.sol\":2357:2387  _transferOwnership(address(0)) */\n      tag_100\n        /* \"@openzeppelin/contracts/access/Ownable.sol\":2384:2385  0 */\n      0x00\n        /* \"@openzeppelin/contracts/access/Ownable.sol\":2357:2375  _transferOwnership */\n      tag_101\n        /* \"@openzeppelin/contracts/access/Ownable.sol\":2357:2387  _transferOwnership(address(0)) */\n      jump\t// in\n    tag_100:\n        /* \"@openzeppelin/contracts/access/Ownable.sol\":2293:2394  function renounceOwnership() public virtual onlyOwner {... */\n      jump\t// out\n        /* \"@openzeppelin/contracts/access/Ownable.sol\":1638:1723  function owner() public view virtual returns (address) {... */\n    tag_33:\n        /* \"@openzeppelin/contracts/access/Ownable.sol\":1684:1691  address */\n      0x00\n        /* \"@openzeppelin/contracts/access/Ownable.sol\":1710:1716  _owner */\n      dup1\n      0x00\n      swap1\n      sload\n      swap1\n      0x0100\n      exp\n      swap1\n      div\n      0xffffffffffffffffffffffffffffffffffffffff\n      and\n        /* \"@openzeppelin/contracts/access/Ownable.sol\":1703:1716  return _owner */\n      swap1\n      pop\n        /* \"@openzeppelin/contracts/access/Ownable.sol\":1638:1723  function owner() public view virtual returns (address) {... */\n      swap1\n      jump\t// out\n        /* \"contracts/Bank.sol\":521:584  mapping(address => mapping(address => Deposit)) public deposits */\n    tag_40:\n      mstore(0x20, 0x03)\n      dup2\n      0x00\n      mstore\n      mstore(0x20, keccak256(0x00, 0x40))\n      dup1\n      0x00\n      mstore\n      keccak256(0x00, 0x40)\n      0x00\n      swap2\n      pop\n      swap2\n      pop\n      pop\n      dup1\n      0x00\n      add\n      sload\n      swap1\n      dup1\n      0x01\n      add\n      sload\n      swap1\n      pop\n      dup3\n      jump\t// out\n        /* \"contracts/Bank.sol\":750:795  mapping(address => bool) public isTokenInList */\n    tag_45:\n      mstore(0x20, 0x05)\n      dup1\n      0x00\n      mstore\n      keccak256(0x00, 0x40)\n      0x00\n      swap2\n      pop\n      sload\n      swap1\n      0x0100\n      exp\n      swap1\n      div\n      0xff\n      and\n      dup2\n      jump\t// out\n        /* \"contracts/Bank.sol\":3662:4455  function transfer(address token, address payable to, uint256 amount) external payable {... */\n    tag_51:\n        /* \"contracts/Bank.sol\":3776:3777  0 */\n      0x00\n        /* \"contracts/Bank.sol\":3767:3773  amount */\n      dup2\n        /* \"contracts/Bank.sol\":3767:3777  amount > 0 */\n      gt\n        /* \"contracts/Bank.sol\":3759:3811  require(amount > 0, \"Amount must be greater than 0\") */\n      tag_104\n      jumpi\n      mload(0x40)\n      0x08c379a000000000000000000000000000000000000000000000000000000000\n      dup2\n      mstore\n      0x04\n      add\n      tag_105\n      swap1\n      tag_106\n      jump\t// in\n    tag_105:\n      mload(0x40)\n      dup1\n      swap2\n      sub\n      swap1\n      revert\n    tag_104:\n        /* \"contracts/Bank.sol\":3844:3845  0 */\n      0x00\n        /* \"contracts/Bank.sol\":3827:3846  token == address(0) */\n      0xffffffffffffffffffffffffffffffffffffffff\n      and\n        /* \"contracts/Bank.sol\":3827:3832  token */\n      dup4\n        /* \"contracts/Bank.sol\":3827:3846  token == address(0) */\n      0xffffffffffffffffffffffffffffffffffffffff\n      and\n      sub\n        /* \"contracts/Bank.sol\":3823:4448  if (token == address(0)) {... */\n      tag_107\n      jumpi\n        /* \"contracts/Bank.sol\":3906:3912  amount */\n      dup1\n        /* \"contracts/Bank.sol\":3871:3883  eth_deposits */\n      0x04\n        /* \"contracts/Bank.sol\":3871:3895  eth_deposits[msg.sender] */\n      0x00\n        /* \"contracts/Bank.sol\":3884:3894  msg.sender */\n      caller\n        /* \"contracts/Bank.sol\":3871:3895  eth_deposits[msg.sender] */\n      0xffffffffffffffffffffffffffffffffffffffff\n      and\n      0xffffffffffffffffffffffffffffffffffffffff\n      and\n      dup2\n      mstore\n      0x20\n      add\n      swap1\n      dup2\n      mstore\n      0x20\n      add\n      0x00\n      keccak256\n        /* \"contracts/Bank.sol\":3871:3902  eth_deposits[msg.sender].amount */\n      0x01\n      add\n      sload\n        /* \"contracts/Bank.sol\":3871:3912  eth_deposits[msg.sender].amount >= amount */\n      lt\n      iszero\n        /* \"contracts/Bank.sol\":3863:3937  require(eth_deposits[msg.sender].amount >= amount, \"Insufficient balance\") */\n      tag_108\n      jumpi\n      mload(0x40)\n      0x08c379a000000000000000000000000000000000000000000000000000000000\n      dup2\n      mstore\n      0x04\n      add\n      tag_109\n      swap1\n      tag_110\n      jump\t// in\n    tag_109:\n      mload(0x40)\n      dup1\n      swap2\n      sub\n      swap1\n      revert\n    tag_108:\n        /* \"contracts/Bank.sol\":3987:3993  amount */\n      dup1\n        /* \"contracts/Bank.sol\":3952:3964  eth_deposits */\n      0x04\n        /* \"contracts/Bank.sol\":3952:3976  eth_deposits[msg.sender] */\n      0x00\n        /* \"contracts/Bank.sol\":3965:3975  msg.sender */\n      caller\n        /* \"contracts/Bank.sol\":3952:3976  eth_deposits[msg.sender] */\n      0xffffffffffffffffffffffffffffffffffffffff\n      and\n      0xffffffffffffffffffffffffffffffffffffffff\n      and\n      dup2\n      mstore\n      0x20\n      add\n      swap1\n      dup2\n      mstore\n      0x20\n      add\n      0x00\n      keccak256\n        /* \"contracts/Bank.sol\":3952:3983  eth_deposits[msg.sender].amount */\n      0x01\n      add\n      0x00\n        /* \"contracts/Bank.sol\":3952:3993  eth_deposits[msg.sender].amount -= amount */\n      dup3\n      dup3\n      sload\n      tag_111\n      swap2\n      swap1\n      tag_112\n      jump\t// in\n    tag_111:\n      swap3\n      pop\n      pop\n      dup2\n      swap1\n      sstore\n      pop\n        /* \"contracts/Bank.sol\":4035:4041  amount */\n      dup1\n        /* \"contracts/Bank.sol\":4008:4020  eth_deposits */\n      0x04\n        /* \"contracts/Bank.sol\":4008:4024  eth_deposits[to] */\n      0x00\n        /* \"contracts/Bank.sol\":4021:4023  to */\n      dup5\n        /* \"contracts/Bank.sol\":4008:4024  eth_deposits[to] */\n      0xffffffffffffffffffffffffffffffffffffffff\n      and\n      0xffffffffffffffffffffffffffffffffffffffff\n      and\n      dup2\n      mstore\n      0x20\n      add\n      swap1\n      dup2\n      mstore\n      0x20\n      add\n      0x00\n      keccak256\n        /* \"contracts/Bank.sol\":4008:4031  eth_deposits[to].amount */\n      0x01\n      add\n      0x00\n        /* \"contracts/Bank.sol\":4008:4041  eth_deposits[to].amount += amount */\n      dup3\n      dup3\n      sload\n      tag_113\n      swap2\n      swap1\n      tag_75\n      jump\t// in\n    tag_113:\n      swap3\n      pop\n      pop\n      dup2\n      swap1\n      sstore\n      pop\n        /* \"contracts/Bank.sol\":4088:4090  to */\n      dup2\n        /* \"contracts/Bank.sol\":4061:4099  ETHTransferred(msg.sender, to, amount) */\n      0xffffffffffffffffffffffffffffffffffffffff\n      and\n        /* \"contracts/Bank.sol\":4076:4086  msg.sender */\n      caller\n        /* \"contracts/Bank.sol\":4061:4099  ETHTransferred(msg.sender, to, amount) */\n      0xffffffffffffffffffffffffffffffffffffffff\n      and\n      0x8dec4e7cfc87eced5c05eafa206697292193ede25a52287bf5fc6cbb0fd84cfa\n        /* \"contracts/Bank.sol\":4092:4098  amount */\n      dup4\n        /* \"contracts/Bank.sol\":4061:4099  ETHTransferred(msg.sender, to, amount) */\n      mload(0x40)\n      tag_114\n      swap2\n      swap1\n      tag_63\n      jump\t// in\n    tag_114:\n      mload(0x40)\n      dup1\n      swap2\n      sub\n      swap1\n      log3\n        /* \"contracts/Bank.sol\":3823:4448  if (token == address(0)) {... */\n      jump(tag_115)\n    tag_107:\n        /* \"contracts/Bank.sol\":4140:4153  isTokenInList */\n      0x05\n        /* \"contracts/Bank.sol\":4140:4160  isTokenInList[token] */\n      0x00\n        /* \"contracts/Bank.sol\":4154:4159  token */\n      dup5\n        /* \"contracts/Bank.sol\":4140:4160  isTokenInList[token] */\n      0xffffffffffffffffffffffffffffffffffffffff\n      and\n      0xffffffffffffffffffffffffffffffffffffffff\n      and\n      dup2\n      mstore\n      0x20\n      add\n      swap1\n      dup2\n      mstore\n      0x20\n      add\n      0x00\n      keccak256\n      0x00\n      swap1\n      sload\n      swap1\n      0x0100\n      exp\n      swap1\n      div\n      0xff\n      and\n        /* \"contracts/Bank.sol\":4132:4178  require(isTokenInList[token], \"Invalid token\") */\n      tag_116\n      jumpi\n      mload(0x40)\n      0x08c379a000000000000000000000000000000000000000000000000000000000\n      dup2\n      mstore\n      0x04\n      add\n      tag_117\n      swap1\n      tag_82\n      jump\t// in\n    tag_117:\n      mload(0x40)\n      dup1\n      swap2\n      sub\n      swap1\n      revert\n    tag_116:\n        /* \"contracts/Bank.sol\":4239:4245  amount */\n      dup1\n        /* \"contracts/Bank.sol\":4201:4209  deposits */\n      0x03\n        /* \"contracts/Bank.sol\":4201:4216  deposits[token] */\n      0x00\n        /* \"contracts/Bank.sol\":4210:4215  token */\n      dup6\n        /* \"contracts/Bank.sol\":4201:4216  deposits[token] */\n      0xffffffffffffffffffffffffffffffffffffffff\n      and\n      0xffffffffffffffffffffffffffffffffffffffff\n      and\n      dup2\n      mstore\n      0x20\n      add\n      swap1\n      dup2\n      mstore\n      0x20\n      add\n      0x00\n      keccak256\n        /* \"contracts/Bank.sol\":4201:4228  deposits[token][msg.sender] */\n      0x00\n        /* \"contracts/Bank.sol\":4217:4227  msg.sender */\n      caller\n        /* \"contracts/Bank.sol\":4201:4228  deposits[token][msg.sender] */\n      0xffffffffffffffffffffffffffffffffffffffff\n      and\n      0xffffffffffffffffffffffffffffffffffffffff\n      and\n      dup2\n      mstore\n      0x20\n      add\n      swap1\n      dup2\n      mstore\n      0x20\n      add\n      0x00\n      keccak256\n        /* \"contracts/Bank.sol\":4201:4235  deposits[token][msg.sender].amount */\n      0x01\n      add\n      sload\n        /* \"contracts/Bank.sol\":4201:4245  deposits[token][msg.sender].amount >= amount */\n      lt\n      iszero\n        /* \"contracts/Bank.sol\":4193:4270  require(deposits[token][msg.sender].amount >= amount, \"Insufficient balance\") */\n      tag_118\n      jumpi\n      mload(0x40)\n      0x08c379a000000000000000000000000000000000000000000000000000000000\n      dup2\n      mstore\n      0x04\n      add\n      tag_119\n      swap1\n      tag_110\n      jump\t// in\n    tag_119:\n      mload(0x40)\n      dup1\n      swap2\n      sub\n      swap1\n      revert\n    tag_118:\n        /* \"contracts/Bank.sol\":4323:4329  amount */\n      dup1\n        /* \"contracts/Bank.sol\":4285:4293  deposits */\n      0x03\n        /* \"contracts/Bank.sol\":4285:4300  deposits[token] */\n      0x00\n        /* \"contracts/Bank.sol\":4294:4299  token */\n      dup6\n        /* \"contracts/Bank.sol\":4285:4300  deposits[token] */\n      0xffffffffffffffffffffffffffffffffffffffff\n      and\n      0xffffffffffffffffffffffffffffffffffffffff\n      and\n      dup2\n      mstore\n      0x20\n      add\n      swap1\n      dup2\n      mstore\n      0x20\n      add\n      0x00\n      keccak256\n        /* \"contracts/Bank.sol\":4285:4312  deposits[token][msg.sender] */\n      0x00\n        /* \"contracts/Bank.sol\":4301:4311  msg.sender */\n      caller\n        /* \"contracts/Bank.sol\":4285:4312  deposits[token][msg.sender] */\n      0xffffffffffffffffffffffffffffffffffffffff\n      and\n      0xffffffffffffffffffffffffffffffffffffffff\n      and\n      dup2\n      mstore\n      0x20\n      add\n      swap1\n      dup2\n      mstore\n      0x20\n      add\n      0x00\n      keccak256\n        /* \"contracts/Bank.sol\":4285:4319  deposits[token][msg.sender].amount */\n      0x01\n      add\n      0x00\n        /* \"contracts/Bank.sol\":4285:4329  deposits[token][msg.sender].amount -= amount */\n      dup3\n      dup3\n      sload\n      tag_120\n      swap2\n      swap1\n      tag_112\n      jump\t// in\n    tag_120:\n      swap3\n      pop\n      pop\n      dup2\n      swap1\n      sstore\n      pop\n        /* \"contracts/Bank.sol\":4374:4380  amount */\n      dup1\n        /* \"contracts/Bank.sol\":4344:4352  deposits */\n      0x03\n        /* \"contracts/Bank.sol\":4344:4359  deposits[token] */\n      0x00\n        /* \"contracts/Bank.sol\":4353:4358  token */\n      dup6\n        /* \"contracts/Bank.sol\":4344:4359  deposits[token] */\n      0xffffffffffffffffffffffffffffffffffffffff\n      and\n      0xffffffffffffffffffffffffffffffffffffffff\n      and\n      dup2\n      mstore\n      0x20\n      add\n      swap1\n      dup2\n      mstore\n      0x20\n      add\n      0x00\n      keccak256\n        /* \"contracts/Bank.sol\":4344:4363  deposits[token][to] */\n      0x00\n        /* \"contracts/Bank.sol\":4360:4362  to */\n      dup5\n        /* \"contracts/Bank.sol\":4344:4363  deposits[token][to] */\n      0xffffffffffffffffffffffffffffffffffffffff\n      and\n      0xffffffffffffffffffffffffffffffffffffffff\n      and\n      dup2\n      mstore\n      0x20\n      add\n      swap1\n      dup2\n      mstore\n      0x20\n      add\n      0x00\n      keccak256\n        /* \"contracts/Bank.sol\":4344:4370  deposits[token][to].amount */\n      0x01\n      add\n      0x00\n        /* \"contracts/Bank.sol\":4344:4380  deposits[token][to].amount += amount */\n      dup3\n      dup3\n      sload\n      tag_121\n      swap2\n      swap1\n      tag_75\n      jump\t// in\n    tag_121:\n      swap3\n      pop\n      pop\n      dup2\n      swap1\n      sstore\n      pop\n        /* \"contracts/Bank.sol\":4422:4427  token */\n      dup3\n        /* \"contracts/Bank.sol\":4400:4436  Deposited(msg.sender, token, amount) */\n      0xffffffffffffffffffffffffffffffffffffffff\n      and\n        /* \"contracts/Bank.sol\":4410:4420  msg.sender */\n      caller\n        /* \"contracts/Bank.sol\":4400:4436  Deposited(msg.sender, token, amount) */\n      0xffffffffffffffffffffffffffffffffffffffff\n      and\n      0x8752a472e571a816aea92eec8dae9baf628e840f4929fbcc2d155e6233ff68a7\n        /* \"contracts/Bank.sol\":4429:4435  amount */\n      dup4\n        /* \"contracts/Bank.sol\":4400:4436  Deposited(msg.sender, token, amount) */\n      mload(0x40)\n      tag_122\n      swap2\n      swap1\n      tag_63\n      jump\t// in\n    tag_122:\n      mload(0x40)\n      dup1\n      swap2\n      sub\n      swap1\n      log3\n        /* \"contracts/Bank.sol\":3823:4448  if (token == address(0)) {... */\n    tag_115:\n        /* \"contracts/Bank.sol\":3662:4455  function transfer(address token, address payable to, uint256 amount) external payable {... */\n      pop\n      pop\n      pop\n      jump\t// out\n        /* \"contracts/Bank.sol\":825:866  mapping(address => uint8) public decimals */\n    tag_55:\n      mstore(0x20, 0x06)\n      dup1\n      0x00\n      mstore\n      keccak256(0x00, 0x40)\n      0x00\n      swap2\n      pop\n      sload\n      swap1\n      0x0100\n      exp\n      swap1\n      div\n      0xff\n      and\n      dup2\n      jump\t// out\n        /* \"contracts/Bank.sol\":4503:4813  function getDeposit(address token) external view returns (uint256) {... */\n    tag_61:\n        /* \"contracts/Bank.sol\":4561:4568  uint256 */\n      0x00\n        /* \"contracts/Bank.sol\":4602:4603  0 */\n      dup1\n        /* \"contracts/Bank.sol\":4585:4604  token == address(0) */\n      0xffffffffffffffffffffffffffffffffffffffff\n      and\n        /* \"contracts/Bank.sol\":4585:4590  token */\n      dup3\n        /* \"contracts/Bank.sol\":4585:4604  token == address(0) */\n      0xffffffffffffffffffffffffffffffffffffffff\n      and\n      sub\n        /* \"contracts/Bank.sol\":4581:4806  if (token == address(0)) {... */\n      tag_124\n      jumpi\n        /* \"contracts/Bank.sol\":4628:4640  eth_deposits */\n      0x04\n        /* \"contracts/Bank.sol\":4628:4652  eth_deposits[msg.sender] */\n      0x00\n        /* \"contracts/Bank.sol\":4641:4651  msg.sender */\n      caller\n        /* \"contracts/Bank.sol\":4628:4652  eth_deposits[msg.sender] */\n      0xffffffffffffffffffffffffffffffffffffffff\n      and\n      0xffffffffffffffffffffffffffffffffffffffff\n      and\n      dup2\n      mstore\n      0x20\n      add\n      swap1\n      dup2\n      mstore\n      0x20\n      add\n      0x00\n      keccak256\n        /* \"contracts/Bank.sol\":4628:4659  eth_deposits[msg.sender].amount */\n      0x01\n      add\n      sload\n        /* \"contracts/Bank.sol\":4621:4659  return eth_deposits[msg.sender].amount */\n      swap1\n      pop\n      jump(tag_123)\n        /* \"contracts/Bank.sol\":4581:4806  if (token == address(0)) {... */\n    tag_124:\n        /* \"contracts/Bank.sol\":4700:4713  isTokenInList */\n      0x05\n        /* \"contracts/Bank.sol\":4700:4720  isTokenInList[token] */\n      0x00\n        /* \"contracts/Bank.sol\":4714:4719  token */\n      dup4\n        /* \"contracts/Bank.sol\":4700:4720  isTokenInList[token] */\n      0xffffffffffffffffffffffffffffffffffffffff\n      and\n      0xffffffffffffffffffffffffffffffffffffffff\n      and\n      dup2\n      mstore\n      0x20\n      add\n      swap1\n      dup2\n      mstore\n      0x20\n      add\n      0x00\n      keccak256\n      0x00\n      swap1\n      sload\n      swap1\n      0x0100\n      exp\n      swap1\n      div\n      0xff\n      and\n        /* \"contracts/Bank.sol\":4692:4738  require(isTokenInList[token], \"Invalid token\") */\n      tag_126\n      jumpi\n      mload(0x40)\n      0x08c379a000000000000000000000000000000000000000000000000000000000\n      dup2\n      mstore\n      0x04\n      add\n      tag_127\n      swap1\n      tag_82\n      jump\t// in\n    tag_127:\n      mload(0x40)\n      dup1\n      swap2\n      sub\n      swap1\n      revert\n    tag_126:\n        /* \"contracts/Bank.sol\":4760:4768  deposits */\n      0x03\n        /* \"contracts/Bank.sol\":4760:4775  deposits[token] */\n      0x00\n        /* \"contracts/Bank.sol\":4769:4774  token */\n      dup4\n        /* \"contracts/Bank.sol\":4760:4775  deposits[token] */\n      0xffffffffffffffffffffffffffffffffffffffff\n      and\n      0xffffffffffffffffffffffffffffffffffffffff\n      and\n      dup2\n      mstore\n      0x20\n      add\n      swap1\n      dup2\n      mstore\n      0x20\n      add\n      0x00\n      keccak256\n        /* \"contracts/Bank.sol\":4760:4787  deposits[token][msg.sender] */\n      0x00\n        /* \"contracts/Bank.sol\":4776:4786  msg.sender */\n      caller\n        /* \"contracts/Bank.sol\":4760:4787  deposits[token][msg.sender] */\n      0xffffffffffffffffffffffffffffffffffffffff\n      and\n      0xffffffffffffffffffffffffffffffffffffffff\n      and\n      dup2\n      mstore\n      0x20\n      add\n      swap1\n      dup2\n      mstore\n      0x20\n      add\n      0x00\n      keccak256\n        /* \"contracts/Bank.sol\":4760:4794  deposits[token][msg.sender].amount */\n      0x01\n      add\n      sload\n        /* \"contracts/Bank.sol\":4753:4794  return deposits[token][msg.sender].amount */\n      swap1\n      pop\n        /* \"contracts/Bank.sol\":4503:4813  function getDeposit(address token) external view returns (uint256) {... */\n    tag_123:\n      swap2\n      swap1\n      pop\n      jump\t// out\n        /* \"@openzeppelin/contracts/access/Ownable.sol\":2543:2758  function transferOwnership(address newOwner) public virtual onlyOwner {... */\n    tag_67:\n        /* \"@openzeppelin/contracts/access/Ownable.sol\":1531:1544  _checkOwner() */\n      tag_129\n        /* \"@openzeppelin/contracts/access/Ownable.sol\":1531:1542  _checkOwner */\n      tag_98\n        /* \"@openzeppelin/contracts/access/Ownable.sol\":1531:1544  _checkOwner() */\n      jump\t// in\n    tag_129:\n        /* \"@openzeppelin/contracts/access/Ownable.sol\":2647:2648  0 */\n      0x00\n        /* \"@openzeppelin/contracts/access/Ownable.sol\":2627:2649  newOwner == address(0) */\n      0xffffffffffffffffffffffffffffffffffffffff\n      and\n        /* \"@openzeppelin/contracts/access/Ownable.sol\":2627:2635  newOwner */\n      dup2\n        /* \"@openzeppelin/contracts/access/Ownable.sol\":2627:2649  newOwner == address(0) */\n      0xffffffffffffffffffffffffffffffffffffffff\n      and\n      sub\n        /* \"@openzeppelin/contracts/access/Ownable.sol\":2623:2714  if (newOwner == address(0)) {... */\n      tag_131\n      jumpi\n        /* \"@openzeppelin/contracts/access/Ownable.sol\":2700:2701  0 */\n      0x00\n        /* \"@openzeppelin/contracts/access/Ownable.sol\":2672:2703  OwnableInvalidOwner(address(0)) */\n      mload(0x40)\n      0x1e4fbdf700000000000000000000000000000000000000000000000000000000\n      dup2\n      mstore\n      0x04\n      add\n      tag_132\n      swap2\n      swap1\n      tag_35\n      jump\t// in\n    tag_132:\n      mload(0x40)\n      dup1\n      swap2\n      sub\n      swap1\n      revert\n        /* \"@openzeppelin/contracts/access/Ownable.sol\":2623:2714  if (newOwner == address(0)) {... */\n    tag_131:\n        /* \"@openzeppelin/contracts/access/Ownable.sol\":2723:2751  _transferOwnership(newOwner) */\n      tag_133\n        /* \"@openzeppelin/contracts/access/Ownable.sol\":2742:2750  newOwner */\n      dup2\n        /* \"@openzeppelin/contracts/access/Ownable.sol\":2723:2741  _transferOwnership */\n      tag_101\n        /* \"@openzeppelin/contracts/access/Ownable.sol\":2723:2751  _transferOwnership(newOwner) */\n      jump\t// in\n    tag_133:\n        /* \"@openzeppelin/contracts/access/Ownable.sol\":2543:2758  function transferOwnership(address newOwner) public virtual onlyOwner {... */\n      pop\n      jump\t// out\n        /* \"contracts/Bank.sol\":2666:3616  function withdraw(address token, uint256 amount) external {... */\n    tag_71:\n        /* \"contracts/Bank.sol\":2756:2757  0 */\n      0x00\n        /* \"contracts/Bank.sol\":2739:2758  token == address(0) */\n      0xffffffffffffffffffffffffffffffffffffffff\n      and\n        /* \"contracts/Bank.sol\":2739:2744  token */\n      dup3\n        /* \"contracts/Bank.sol\":2739:2758  token == address(0) */\n      0xffffffffffffffffffffffffffffffffffffffff\n      and\n      sub\n        /* \"contracts/Bank.sol\":2735:3609  if (token == address(0)) {... */\n      tag_135\n      jumpi\n        /* \"contracts/Bank.sol\":2792:2793  0 */\n      0x00\n        /* \"contracts/Bank.sol\":2783:2789  amount */\n      dup2\n        /* \"contracts/Bank.sol\":2783:2793  amount > 0 */\n      gt\n        /* \"contracts/Bank.sol\":2775:2827  require(amount > 0, \"Amount must be greater than 0\") */\n      tag_136\n      jumpi\n      mload(0x40)\n      0x08c379a000000000000000000000000000000000000000000000000000000000\n      dup2\n      mstore\n      0x04\n      add\n      tag_137\n      swap1\n      tag_106\n      jump\t// in\n    tag_137:\n      mload(0x40)\n      dup1\n      swap2\n      sub\n      swap1\n      revert\n    tag_136:\n        /* \"contracts/Bank.sol\":2886:2892  amount */\n      dup1\n        /* \"contracts/Bank.sol\":2851:2863  eth_deposits */\n      0x04\n        /* \"contracts/Bank.sol\":2851:2875  eth_deposits[msg.sender] */\n      0x00\n        /* \"contracts/Bank.sol\":2864:2874  msg.sender */\n      caller\n        /* \"contracts/Bank.sol\":2851:2875  eth_deposits[msg.sender] */\n      0xffffffffffffffffffffffffffffffffffffffff\n      and\n      0xffffffffffffffffffffffffffffffffffffffff\n      and\n      dup2\n      mstore\n      0x20\n      add\n      swap1\n      dup2\n      mstore\n      0x20\n      add\n      0x00\n      keccak256\n        /* \"contracts/Bank.sol\":2851:2882  eth_deposits[msg.sender].amount */\n      0x01\n      add\n      sload\n        /* \"contracts/Bank.sol\":2851:2892  eth_deposits[msg.sender].amount >= amount */\n      lt\n      iszero\n        /* \"contracts/Bank.sol\":2843:2917  require(eth_deposits[msg.sender].amount >= amount, \"Insufficient balance\") */\n      tag_138\n      jumpi\n      mload(0x40)\n      0x08c379a000000000000000000000000000000000000000000000000000000000\n      dup2\n      mstore\n      0x04\n      add\n      tag_139\n      swap1\n      tag_110\n      jump\t// in\n    tag_139:\n      mload(0x40)\n      dup1\n      swap2\n      sub\n      swap1\n      revert\n    tag_138:\n        /* \"contracts/Bank.sol\":2968:2974  amount */\n      dup1\n        /* \"contracts/Bank.sol\":2933:2945  eth_deposits */\n      0x04\n        /* \"contracts/Bank.sol\":2933:2957  eth_deposits[msg.sender] */\n      0x00\n        /* \"contracts/Bank.sol\":2946:2956  msg.sender */\n      caller\n        /* \"contracts/Bank.sol\":2933:2957  eth_deposits[msg.sender] */\n      0xffffffffffffffffffffffffffffffffffffffff\n      and\n      0xffffffffffffffffffffffffffffffffffffffff\n      and\n      dup2\n      mstore\n      0x20\n      add\n      swap1\n      dup2\n      mstore\n      0x20\n      add\n      0x00\n      keccak256\n        /* \"contracts/Bank.sol\":2933:2964  eth_deposits[msg.sender].amount */\n      0x01\n      add\n      0x00\n        /* \"contracts/Bank.sol\":2933:2974  eth_deposits[msg.sender].amount -= amount */\n      dup3\n      dup3\n      sload\n      tag_140\n      swap2\n      swap1\n      tag_112\n      jump\t// in\n    tag_140:\n      swap3\n      pop\n      pop\n      dup2\n      swap1\n      sstore\n      pop\n        /* \"contracts/Bank.sol\":3021:3041  getCurrentTimeView() */\n      tag_141\n        /* \"contracts/Bank.sol\":3021:3039  getCurrentTimeView */\n      tag_77\n        /* \"contracts/Bank.sol\":3021:3041  getCurrentTimeView() */\n      jump\t// in\n    tag_141:\n        /* \"contracts/Bank.sol\":2989:3001  eth_deposits */\n      0x04\n        /* \"contracts/Bank.sol\":2989:3013  eth_deposits[msg.sender] */\n      0x00\n        /* \"contracts/Bank.sol\":3002:3012  msg.sender */\n      caller\n        /* \"contracts/Bank.sol\":2989:3013  eth_deposits[msg.sender] */\n      0xffffffffffffffffffffffffffffffffffffffff\n      and\n      0xffffffffffffffffffffffffffffffffffffffff\n      and\n      dup2\n      mstore\n      0x20\n      add\n      swap1\n      dup2\n      mstore\n      0x20\n      add\n      0x00\n      keccak256\n        /* \"contracts/Bank.sol\":2989:3018  eth_deposits[msg.sender].time */\n      0x00\n      add\n        /* \"contracts/Bank.sol\":2989:3041  eth_deposits[msg.sender].time = getCurrentTimeView() */\n      dup2\n      swap1\n      sstore\n      pop\n        /* \"contracts/Bank.sol\":3057:3069  bool success */\n      0x00\n        /* \"contracts/Bank.sol\":3083:3093  msg.sender */\n      caller\n        /* \"contracts/Bank.sol\":3075:3099  payable(msg.sender).call */\n      0xffffffffffffffffffffffffffffffffffffffff\n      and\n        /* \"contracts/Bank.sol\":3107:3113  amount */\n      dup3\n        /* \"contracts/Bank.sol\":3075:3118  payable(msg.sender).call{value: amount}(\"\") */\n      mload(0x40)\n      tag_142\n      swap1\n      tag_143\n      jump\t// in\n    tag_142:\n      0x00\n      mload(0x40)\n      dup1\n      dup4\n      sub\n      dup2\n      dup6\n      dup8\n      gas\n      call\n      swap3\n      pop\n      pop\n      pop\n      returndatasize\n      dup1\n      0x00\n      dup2\n      eq\n      tag_146\n      jumpi\n      mload(0x40)\n      swap2\n      pop\n      and(add(returndatasize, 0x3f), not(0x1f))\n      dup3\n      add\n      0x40\n      mstore\n      returndatasize\n      dup3\n      mstore\n      returndatasize\n      0x00\n      0x20\n      dup5\n      add\n      returndatacopy\n      jump(tag_145)\n    tag_146:\n      0x60\n      swap2\n      pop\n    tag_145:\n      pop\n        /* \"contracts/Bank.sol\":3056:3118  (bool success, ) = payable(msg.sender).call{value: amount}(\"\") */\n      pop\n      swap1\n      pop\n        /* \"contracts/Bank.sol\":3141:3148  success */\n      dup1\n        /* \"contracts/Bank.sol\":3133:3174  require(success, \"ETH withdrawal failed\") */\n      tag_147\n      jumpi\n      mload(0x40)\n      0x08c379a000000000000000000000000000000000000000000000000000000000\n      dup2\n      mstore\n      0x04\n      add\n      tag_148\n      swap1\n      tag_149\n      jump\t// in\n    tag_148:\n      mload(0x40)\n      dup1\n      swap2\n      sub\n      swap1\n      revert\n    tag_147:\n        /* \"contracts/Bank.sol\":3207:3217  msg.sender */\n      caller\n        /* \"contracts/Bank.sol\":3194:3226  ETHWithdrawn(msg.sender, amount) */\n      0xffffffffffffffffffffffffffffffffffffffff\n      and\n      0x94b2de810873337ed265c5f8cf98c9cffefa06b8607f9a2f1fbaebdfbcfbef1c\n        /* \"contracts/Bank.sol\":3219:3225  amount */\n      dup4\n        /* \"contracts/Bank.sol\":3194:3226  ETHWithdrawn(msg.sender, amount) */\n      mload(0x40)\n      tag_150\n      swap2\n      swap1\n      tag_63\n      jump\t// in\n    tag_150:\n      mload(0x40)\n      dup1\n      swap2\n      sub\n      swap1\n      log2\n        /* \"contracts/Bank.sol\":2760:3238  {... */\n      pop\n        /* \"contracts/Bank.sol\":2735:3609  if (token == address(0)) {... */\n      jump(tag_151)\n    tag_135:\n        /* \"contracts/Bank.sol\":3267:3280  isTokenInList */\n      0x05\n        /* \"contracts/Bank.sol\":3267:3287  isTokenInList[token] */\n      0x00\n        /* \"contracts/Bank.sol\":3281:3286  token */\n      dup4\n        /* \"contracts/Bank.sol\":3267:3287  isTokenInList[token] */\n      0xffffffffffffffffffffffffffffffffffffffff\n      and\n      0xffffffffffffffffffffffffffffffffffffffff\n      and\n      dup2\n      mstore\n      0x20\n      add\n      swap1\n      dup2\n      mstore\n      0x20\n      add\n      0x00\n      keccak256\n      0x00\n      swap1\n      sload\n      swap1\n      0x0100\n      exp\n      swap1\n      div\n      0xff\n      and\n        /* \"contracts/Bank.sol\":3259:3305  require(isTokenInList[token], \"Invalid token\") */\n      tag_152\n      jumpi\n      mload(0x40)\n      0x08c379a000000000000000000000000000000000000000000000000000000000\n      dup2\n      mstore\n      0x04\n      add\n      tag_153\n      swap1\n      tag_82\n      jump\t// in\n    tag_153:\n      mload(0x40)\n      dup1\n      swap2\n      sub\n      swap1\n      revert\n    tag_152:\n        /* \"contracts/Bank.sol\":3366:3372  amount */\n      dup1\n        /* \"contracts/Bank.sol\":3328:3336  deposits */\n      0x03\n        /* \"contracts/Bank.sol\":3328:3343  deposits[token] */\n      0x00\n        /* \"contracts/Bank.sol\":3337:3342  token */\n      dup5\n        /* \"contracts/Bank.sol\":3328:3343  deposits[token] */\n      0xffffffffffffffffffffffffffffffffffffffff\n      and\n      0xffffffffffffffffffffffffffffffffffffffff\n      and\n      dup2\n      mstore\n      0x20\n      add\n      swap1\n      dup2\n      mstore\n      0x20\n      add\n      0x00\n      keccak256\n        /* \"contracts/Bank.sol\":3328:3355  deposits[token][msg.sender] */\n      0x00\n        /* \"contracts/Bank.sol\":3344:3354  msg.sender */\n      caller\n        /* \"contracts/Bank.sol\":3328:3355  deposits[token][msg.sender] */\n      0xffffffffffffffffffffffffffffffffffffffff\n      and\n      0xffffffffffffffffffffffffffffffffffffffff\n      and\n      dup2\n      mstore\n      0x20\n      add\n      swap1\n      dup2\n      mstore\n      0x20\n      add\n      0x00\n      keccak256\n        /* \"contracts/Bank.sol\":3328:3362  deposits[token][msg.sender].amount */\n      0x01\n      add\n      sload\n        /* \"contracts/Bank.sol\":3328:3372  deposits[token][msg.sender].amount >= amount */\n      lt\n      iszero\n        /* \"contracts/Bank.sol\":3320:3397  require(deposits[token][msg.sender].amount >= amount, \"Insufficient balance\") */\n      tag_154\n      jumpi\n      mload(0x40)\n      0x08c379a000000000000000000000000000000000000000000000000000000000\n      dup2\n      mstore\n      0x04\n      add\n      tag_155\n      swap1\n      tag_110\n      jump\t// in\n    tag_155:\n      mload(0x40)\n      dup1\n      swap2\n      sub\n      swap1\n      revert\n    tag_154:\n        /* \"contracts/Bank.sol\":3450:3456  amount */\n      dup1\n        /* \"contracts/Bank.sol\":3412:3420  deposits */\n      0x03\n        /* \"contracts/Bank.sol\":3412:3427  deposits[token] */\n      0x00\n        /* \"contracts/Bank.sol\":3421:3426  token */\n      dup5\n        /* \"contracts/Bank.sol\":3412:3427  deposits[token] */\n      0xffffffffffffffffffffffffffffffffffffffff\n      and\n      0xffffffffffffffffffffffffffffffffffffffff\n      and\n      dup2\n      mstore\n      0x20\n      add\n      swap1\n      dup2\n      mstore\n      0x20\n      add\n      0x00\n      keccak256\n        /* \"contracts/Bank.sol\":3412:3439  deposits[token][msg.sender] */\n      0x00\n        /* \"contracts/Bank.sol\":3428:3438  msg.sender */\n      caller\n        /* \"contracts/Bank.sol\":3412:3439  deposits[token][msg.sender] */\n      0xffffffffffffffffffffffffffffffffffffffff\n      and\n      0xffffffffffffffffffffffffffffffffffffffff\n      and\n      dup2\n      mstore\n      0x20\n      add\n      swap1\n      dup2\n      mstore\n      0x20\n      add\n      0x00\n      keccak256\n        /* \"contracts/Bank.sol\":3412:3446  deposits[token][msg.sender].amount */\n      0x01\n      add\n      0x00\n        /* \"contracts/Bank.sol\":3412:3456  deposits[token][msg.sender].amount -= amount */\n      dup3\n      dup3\n      sload\n      tag_156\n      swap2\n      swap1\n      tag_112\n      jump\t// in\n    tag_156:\n      swap3\n      pop\n      pop\n      dup2\n      swap1\n      sstore\n      pop\n        /* \"contracts/Bank.sol\":3486:3491  token */\n      dup2\n        /* \"contracts/Bank.sol\":3479:3501  IERC20(token).transfer */\n      0xffffffffffffffffffffffffffffffffffffffff\n      and\n      0xa9059cbb\n        /* \"contracts/Bank.sol\":3502:3512  msg.sender */\n      caller\n        /* \"contracts/Bank.sol\":3514:3520  amount */\n      dup4\n        /* \"contracts/Bank.sol\":3479:3521  IERC20(token).transfer(msg.sender, amount) */\n      mload(0x40)\n      dup4\n      0xffffffff\n      and\n      0xe0\n      shl\n      dup2\n      mstore\n      0x04\n      add\n      tag_157\n      swap3\n      swap2\n      swap1\n      tag_158\n      jump\t// in\n    tag_157:\n      0x20\n      mload(0x40)\n      dup1\n      dup4\n      sub\n      dup2\n      0x00\n      dup8\n      gas\n      call\n      iszero\n      dup1\n      iszero\n      tag_160\n      jumpi\n      returndatasize\n      0x00\n      dup1\n      returndatacopy\n      revert(0x00, returndatasize)\n    tag_160:\n      pop\n      pop\n      pop\n      pop\n      mload(0x40)\n      returndatasize\n      not(0x1f)\n      0x1f\n      dup3\n      add\n      and\n      dup3\n      add\n      dup1\n      0x40\n      mstore\n      pop\n      dup2\n      add\n      swap1\n      tag_161\n      swap2\n      swap1\n      tag_88\n      jump\t// in\n    tag_161:\n        /* \"contracts/Bank.sol\":3471:3541  require(IERC20(token).transfer(msg.sender, amount), \"Transfer failed\") */\n      tag_162\n      jumpi\n      mload(0x40)\n      0x08c379a000000000000000000000000000000000000000000000000000000000\n      dup2\n      mstore\n      0x04\n      add\n      tag_163\n      swap1\n      tag_91\n      jump\t// in\n    tag_163:\n      mload(0x40)\n      dup1\n      swap2\n      sub\n      swap1\n      revert\n    tag_162:\n        /* \"contracts/Bank.sol\":3583:3588  token */\n      dup2\n        /* \"contracts/Bank.sol\":3561:3597  Withdrawn(msg.sender, token, amount) */\n      0xffffffffffffffffffffffffffffffffffffffff\n      and\n        /* \"contracts/Bank.sol\":3571:3581  msg.sender */\n      caller\n        /* \"contracts/Bank.sol\":3561:3597  Withdrawn(msg.sender, token, amount) */\n      0xffffffffffffffffffffffffffffffffffffffff\n      and\n      0xd1c19fbcd4551a5edfb66d43d2e337c04837afda3482b42bdf569a8fccdae5fb\n        /* \"contracts/Bank.sol\":3590:3596  amount */\n      dup4\n        /* \"contracts/Bank.sol\":3561:3597  Withdrawn(msg.sender, token, amount) */\n      mload(0x40)\n      tag_164\n      swap2\n      swap1\n      tag_63\n      jump\t// in\n    tag_164:\n      mload(0x40)\n      dup1\n      swap2\n      sub\n      swap1\n      log3\n        /* \"contracts/Bank.sol\":2735:3609  if (token == address(0)) {... */\n    tag_151:\n        /* \"contracts/Bank.sol\":2666:3616  function withdraw(address token, uint256 amount) external {... */\n      pop\n      pop\n      jump\t// out\n        /* \"contracts/Bank.sol\":1262:1365  function getCurrentTimeView() internal view returns (uint256) {... */\n    tag_77:\n        /* \"contracts/Bank.sol\":1315:1322  uint256 */\n      0x00\n        /* \"contracts/Bank.sol\":1342:1357  block.timestamp */\n      timestamp\n        /* \"contracts/Bank.sol\":1335:1357  return block.timestamp */\n      swap1\n      pop\n        /* \"contracts/Bank.sol\":1262:1365  function getCurrentTimeView() internal view returns (uint256) {... */\n      swap1\n      jump\t// out\n        /* \"@openzeppelin/contracts/access/Ownable.sol\":1796:1958  function _checkOwner() internal view virtual {... */\n    tag_98:\n        /* \"@openzeppelin/contracts/access/Ownable.sol\":1866:1878  _msgSender() */\n      tag_167\n        /* \"@openzeppelin/contracts/access/Ownable.sol\":1866:1876  _msgSender */\n      tag_168\n        /* \"@openzeppelin/contracts/access/Ownable.sol\":1866:1878  _msgSender() */\n      jump\t// in\n    tag_167:\n        /* \"@openzeppelin/contracts/access/Ownable.sol\":1855:1878  owner() != _msgSender() */\n      0xffffffffffffffffffffffffffffffffffffffff\n      and\n        /* \"@openzeppelin/contracts/access/Ownable.sol\":1855:1862  owner() */\n      tag_169\n        /* \"@openzeppelin/contracts/access/Ownable.sol\":1855:1860  owner */\n      tag_33\n        /* \"@openzeppelin/contracts/access/Ownable.sol\":1855:1862  owner() */\n      jump\t// in\n    tag_169:\n        /* \"@openzeppelin/contracts/access/Ownable.sol\":1855:1878  owner() != _msgSender() */\n      0xffffffffffffffffffffffffffffffffffffffff\n      and\n      eq\n        /* \"@openzeppelin/contracts/access/Ownable.sol\":1851:1952  if (owner() != _msgSender()) {... */\n      tag_170\n      jumpi\n        /* \"@openzeppelin/contracts/access/Ownable.sol\":1928:1940  _msgSender() */\n      tag_171\n        /* \"@openzeppelin/contracts/access/Ownable.sol\":1928:1938  _msgSender */\n      tag_168\n        /* \"@openzeppelin/contracts/access/Ownable.sol\":1928:1940  _msgSender() */\n      jump\t// in\n    tag_171:\n        /* \"@openzeppelin/contracts/access/Ownable.sol\":1901:1941  OwnableUnauthorizedAccount(_msgSender()) */\n      mload(0x40)\n      0x118cdaa700000000000000000000000000000000000000000000000000000000\n      dup2\n      mstore\n      0x04\n      add\n      tag_172\n      swap2\n      swap1\n      tag_35\n      jump\t// in\n    tag_172:\n      mload(0x40)\n      dup1\n      swap2\n      sub\n      swap1\n      revert\n        /* \"@openzeppelin/contracts/access/Ownable.sol\":1851:1952  if (owner() != _msgSender()) {... */\n    tag_170:\n        /* \"@openzeppelin/contracts/access/Ownable.sol\":1796:1958  function _checkOwner() internal view virtual {... */\n      jump\t// out\n        /* \"@openzeppelin/contracts/access/Ownable.sol\":2912:3099  function _transferOwnership(address newOwner) internal virtual {... */\n    tag_101:\n        /* \"@openzeppelin/contracts/access/Ownable.sol\":2985:3001  address oldOwner */\n      0x00\n        /* \"@openzeppelin/contracts/access/Ownable.sol\":3004:3010  _owner */\n      dup1\n      0x00\n      swap1\n      sload\n      swap1\n      0x0100\n      exp\n      swap1\n      div\n      0xffffffffffffffffffffffffffffffffffffffff\n      and\n        /* \"@openzeppelin/contracts/access/Ownable.sol\":2985:3010  address oldOwner = _owner */\n      swap1\n      pop\n        /* \"@openzeppelin/contracts/access/Ownable.sol\":3029:3037  newOwner */\n      dup2\n        /* \"@openzeppelin/contracts/access/Ownable.sol\":3020:3026  _owner */\n      0x00\n      dup1\n        /* \"@openzeppelin/contracts/access/Ownable.sol\":3020:3037  _owner = newOwner */\n      0x0100\n      exp\n      dup2\n      sload\n      dup2\n      0xffffffffffffffffffffffffffffffffffffffff\n      mul\n      not\n      and\n      swap1\n      dup4\n      0xffffffffffffffffffffffffffffffffffffffff\n      and\n      mul\n      or\n      swap1\n      sstore\n      pop\n        /* \"@openzeppelin/contracts/access/Ownable.sol\":3083:3091  newOwner */\n      dup2\n        /* \"@openzeppelin/contracts/access/Ownable.sol\":3052:3092  OwnershipTransferred(oldOwner, newOwner) */\n      0xffffffffffffffffffffffffffffffffffffffff\n      and\n        /* \"@openzeppelin/contracts/access/Ownable.sol\":3073:3081  oldOwner */\n      dup2\n        /* \"@openzeppelin/contracts/access/Ownable.sol\":3052:3092  OwnershipTransferred(oldOwner, newOwner) */\n      0xffffffffffffffffffffffffffffffffffffffff\n      and\n      0x8be0079c531659141344cd1fd0a4f28419497f9722a3daafe3b4186f6b6457e0\n      mload(0x40)\n      mload(0x40)\n      dup1\n      swap2\n      sub\n      swap1\n      log3\n        /* \"@openzeppelin/contracts/access/Ownable.sol\":2975:3099  {... */\n      pop\n        /* \"@openzeppelin/contracts/access/Ownable.sol\":2912:3099  function _transferOwnership(address newOwner) internal virtual {... */\n      pop\n      jump\t// out\n        /* \"@openzeppelin/contracts/utils/Context.sol\":656:752  function _msgSender() internal view virtual returns (address) {... */\n    tag_168:\n        /* \"@openzeppelin/contracts/utils/Context.sol\":709:716  address */\n      0x00\n        /* \"@openzeppelin/contracts/utils/Context.sol\":735:745  msg.sender */\n      caller\n        /* \"@openzeppelin/contracts/utils/Context.sol\":728:745  return msg.sender */\n      swap1\n      pop\n        /* \"@openzeppelin/contracts/utils/Context.sol\":656:752  function _msgSender() internal view virtual returns (address) {... */\n      swap1\n      jump\t// out\n        /* \"#utility.yul\":88:205   */\n    tag_176:\n        /* \"#utility.yul\":197:198   */\n      0x00\n        /* \"#utility.yul\":194:195   */\n      dup1\n        /* \"#utility.yul\":187:199   */\n      revert\n        /* \"#utility.yul\":334:460   */\n    tag_178:\n        /* \"#utility.yul\":371:378   */\n      0x00\n        /* \"#utility.yul\":411:453   */\n      0xffffffffffffffffffffffffffffffffffffffff\n        /* \"#utility.yul\":404:409   */\n      dup3\n        /* \"#utility.yul\":400:454   */\n      and\n        /* \"#utility.yul\":389:454   */\n      swap1\n      pop\n        /* \"#utility.yul\":334:460   */\n      swap2\n      swap1\n      pop\n      jump\t// out\n        /* \"#utility.yul\":466:562   */\n    tag_179:\n        /* \"#utility.yul\":503:510   */\n      0x00\n        /* \"#utility.yul\":532:556   */\n      tag_217\n        /* \"#utility.yul\":550:555   */\n      dup3\n        /* \"#utility.yul\":532:556   */\n      tag_178\n      jump\t// in\n    tag_217:\n        /* \"#utility.yul\":521:556   */\n      swap1\n      pop\n        /* \"#utility.yul\":466:562   */\n      swap2\n      swap1\n      pop\n      jump\t// out\n        /* \"#utility.yul\":568:690   */\n    tag_180:\n        /* \"#utility.yul\":641:665   */\n      tag_219\n        /* \"#utility.yul\":659:664   */\n      dup2\n        /* \"#utility.yul\":641:665   */\n      tag_179\n      jump\t// in\n    tag_219:\n        /* \"#utility.yul\":634:639   */\n      dup2\n        /* \"#utility.yul\":631:666   */\n      eq\n        /* \"#utility.yul\":621:684   */\n      tag_220\n      jumpi\n        /* \"#utility.yul\":680:681   */\n      0x00\n        /* \"#utility.yul\":677:678   */\n      dup1\n        /* \"#utility.yul\":670:682   */\n      revert\n        /* \"#utility.yul\":621:684   */\n    tag_220:\n        /* \"#utility.yul\":568:690   */\n      pop\n      jump\t// out\n        /* \"#utility.yul\":696:835   */\n    tag_181:\n        /* \"#utility.yul\":742:747   */\n      0x00\n        /* \"#utility.yul\":780:786   */\n      dup2\n        /* \"#utility.yul\":767:787   */\n      calldataload\n        /* \"#utility.yul\":758:787   */\n      swap1\n      pop\n        /* \"#utility.yul\":796:829   */\n      tag_222\n        /* \"#utility.yul\":823:828   */\n      dup2\n        /* \"#utility.yul\":796:829   */\n      tag_180\n      jump\t// in\n    tag_222:\n        /* \"#utility.yul\":696:835   */\n      swap3\n      swap2\n      pop\n      pop\n      jump\t// out\n        /* \"#utility.yul\":841:1170   */\n    tag_20:\n        /* \"#utility.yul\":900:906   */\n      0x00\n        /* \"#utility.yul\":949:951   */\n      0x20\n        /* \"#utility.yul\":937:946   */\n      dup3\n        /* \"#utility.yul\":928:935   */\n      dup5\n        /* \"#utility.yul\":924:947   */\n      sub\n        /* \"#utility.yul\":920:952   */\n      slt\n        /* \"#utility.yul\":917:1036   */\n      iszero\n      tag_224\n      jumpi\n        /* \"#utility.yul\":955:1034   */\n      tag_225\n      tag_176\n      jump\t// in\n    tag_225:\n        /* \"#utility.yul\":917:1036   */\n    tag_224:\n        /* \"#utility.yul\":1075:1076   */\n      0x00\n        /* \"#utility.yul\":1100:1153   */\n      tag_226\n        /* \"#utility.yul\":1145:1152   */\n      dup5\n        /* \"#utility.yul\":1136:1142   */\n      dup3\n        /* \"#utility.yul\":1125:1134   */\n      dup6\n        /* \"#utility.yul\":1121:1143   */\n      add\n        /* \"#utility.yul\":1100:1153   */\n      tag_181\n      jump\t// in\n    tag_226:\n        /* \"#utility.yul\":1090:1153   */\n      swap2\n      pop\n        /* \"#utility.yul\":1046:1163   */\n      pop\n        /* \"#utility.yul\":841:1170   */\n      swap3\n      swap2\n      pop\n      pop\n      jump\t// out\n        /* \"#utility.yul\":1176:1253   */\n    tag_182:\n        /* \"#utility.yul\":1213:1220   */\n      0x00\n        /* \"#utility.yul\":1242:1247   */\n      dup2\n        /* \"#utility.yul\":1231:1247   */\n      swap1\n      pop\n        /* \"#utility.yul\":1176:1253   */\n      swap2\n      swap1\n      pop\n      jump\t// out\n        /* \"#utility.yul\":1259:1377   */\n    tag_183:\n        /* \"#utility.yul\":1346:1370   */\n      tag_229\n        /* \"#utility.yul\":1364:1369   */\n      dup2\n        /* \"#utility.yul\":1346:1370   */\n      tag_182\n      jump\t// in\n    tag_229:\n        /* \"#utility.yul\":1341:1344   */\n      dup3\n        /* \"#utility.yul\":1334:1371   */\n      mstore\n        /* \"#utility.yul\":1259:1377   */\n      pop\n      pop\n      jump\t// out\n        /* \"#utility.yul\":1383:1715   */\n    tag_23:\n        /* \"#utility.yul\":1504:1508   */\n      0x00\n        /* \"#utility.yul\":1542:1544   */\n      0x40\n        /* \"#utility.yul\":1531:1540   */\n      dup3\n        /* \"#utility.yul\":1527:1545   */\n      add\n        /* \"#utility.yul\":1519:1545   */\n      swap1\n      pop\n        /* \"#utility.yul\":1555:1626   */\n      tag_231\n        /* \"#utility.yul\":1623:1624   */\n      0x00\n        /* \"#utility.yul\":1612:1621   */\n      dup4\n        /* \"#utility.yul\":1608:1625   */\n      add\n        /* \"#utility.yul\":1599:1605   */\n      dup6\n        /* \"#utility.yul\":1555:1626   */\n      tag_183\n      jump\t// in\n    tag_231:\n        /* \"#utility.yul\":1636:1708   */\n      tag_232\n        /* \"#utility.yul\":1704:1706   */\n      0x20\n        /* \"#utility.yul\":1693:1702   */\n      dup4\n        /* \"#utility.yul\":1689:1707   */\n      add\n        /* \"#utility.yul\":1680:1686   */\n      dup5\n        /* \"#utility.yul\":1636:1708   */\n      tag_183\n      jump\t// in\n    tag_232:\n        /* \"#utility.yul\":1383:1715   */\n      swap4\n      swap3\n      pop\n      pop\n      pop\n      jump\t// out\n        /* \"#utility.yul\":1721:1843   */\n    tag_184:\n        /* \"#utility.yul\":1794:1818   */\n      tag_234\n        /* \"#utility.yul\":1812:1817   */\n      dup2\n        /* \"#utility.yul\":1794:1818   */\n      tag_182\n      jump\t// in\n    tag_234:\n        /* \"#utility.yul\":1787:1792   */\n      dup2\n        /* \"#utility.yul\":1784:1819   */\n      eq\n        /* \"#utility.yul\":1774:1837   */\n      tag_235\n      jumpi\n        /* \"#utility.yul\":1833:1834   */\n      0x00\n        /* \"#utility.yul\":1830:1831   */\n      dup1\n        /* \"#utility.yul\":1823:1835   */\n      revert\n        /* \"#utility.yul\":1774:1837   */\n    tag_235:\n        /* \"#utility.yul\":1721:1843   */\n      pop\n      jump\t// out\n        /* \"#utility.yul\":1849:1988   */\n    tag_185:\n        /* \"#utility.yul\":1895:1900   */\n      0x00\n        /* \"#utility.yul\":1933:1939   */\n      dup2\n        /* \"#utility.yul\":1920:1940   */\n      calldataload\n        /* \"#utility.yul\":1911:1940   */\n      swap1\n      pop\n        /* \"#utility.yul\":1949:1982   */\n      tag_237\n        /* \"#utility.yul\":1976:1981   */\n      dup2\n        /* \"#utility.yul\":1949:1982   */\n      tag_184\n      jump\t// in\n    tag_237:\n        /* \"#utility.yul\":1849:1988   */\n      swap3\n      swap2\n      pop\n      pop\n      jump\t// out\n        /* \"#utility.yul\":1994:2468   */\n    tag_26:\n        /* \"#utility.yul\":2062:2068   */\n      0x00\n        /* \"#utility.yul\":2070:2076   */\n      dup1\n        /* \"#utility.yul\":2119:2121   */\n      0x40\n        /* \"#utility.yul\":2107:2116   */\n      dup4\n        /* \"#utility.yul\":2098:2105   */\n      dup6\n        /* \"#utility.yul\":2094:2117   */\n      sub\n        /* \"#utility.yul\":2090:2122   */\n      slt\n        /* \"#utility.yul\":2087:2206   */\n      iszero\n      tag_239\n      jumpi\n        /* \"#utility.yul\":2125:2204   */\n      tag_240\n      tag_176\n      jump\t// in\n    tag_240:\n        /* \"#utility.yul\":2087:2206   */\n    tag_239:\n        /* \"#utility.yul\":2245:2246   */\n      0x00\n        /* \"#utility.yul\":2270:2323   */\n      tag_241\n        /* \"#utility.yul\":2315:2322   */\n      dup6\n        /* \"#utility.yul\":2306:2312   */\n      dup3\n        /* \"#utility.yul\":2295:2304   */\n      dup7\n        /* \"#utility.yul\":2291:2313   */\n      add\n        /* \"#utility.yul\":2270:2323   */\n      tag_181\n      jump\t// in\n    tag_241:\n        /* \"#utility.yul\":2260:2323   */\n      swap3\n      pop\n        /* \"#utility.yul\":2216:2333   */\n      pop\n        /* \"#utility.yul\":2372:2374   */\n      0x20\n        /* \"#utility.yul\":2398:2451   */\n      tag_242\n        /* \"#utility.yul\":2443:2450   */\n      dup6\n        /* \"#utility.yul\":2434:2440   */\n      dup3\n        /* \"#utility.yul\":2423:2432   */\n      dup7\n        /* \"#utility.yul\":2419:2441   */\n      add\n        /* \"#utility.yul\":2398:2451   */\n      tag_185\n      jump\t// in\n    tag_242:\n        /* \"#utility.yul\":2388:2451   */\n      swap2\n      pop\n        /* \"#utility.yul\":2343:2461   */\n      pop\n        /* \"#utility.yul\":1994:2468   */\n      swap3\n      pop\n      swap3\n      swap1\n      pop\n      jump\t// out\n        /* \"#utility.yul\":2474:2592   */\n    tag_186:\n        /* \"#utility.yul\":2561:2585   */\n      tag_244\n        /* \"#utility.yul\":2579:2584   */\n      dup2\n        /* \"#utility.yul\":2561:2585   */\n      tag_179\n      jump\t// in\n    tag_244:\n        /* \"#utility.yul\":2556:2559   */\n      dup3\n        /* \"#utility.yul\":2549:2586   */\n      mstore\n        /* \"#utility.yul\":2474:2592   */\n      pop\n      pop\n      jump\t// out\n        /* \"#utility.yul\":2598:2820   */\n    tag_35:\n        /* \"#utility.yul\":2691:2695   */\n      0x00\n        /* \"#utility.yul\":2729:2731   */\n      0x20\n        /* \"#utility.yul\":2718:2727   */\n      dup3\n        /* \"#utility.yul\":2714:2732   */\n      add\n        /* \"#utility.yul\":2706:2732   */\n      swap1\n      pop\n        /* \"#utility.yul\":2742:2813   */\n      tag_246\n        /* \"#utility.yul\":2810:2811   */\n      0x00\n        /* \"#utility.yul\":2799:2808   */\n      dup4\n        /* \"#utility.yul\":2795:2812   */\n      add\n        /* \"#utility.yul\":2786:2792   */\n      dup5\n        /* \"#utility.yul\":2742:2813   */\n      tag_186\n      jump\t// in\n    tag_246:\n        /* \"#utility.yul\":2598:2820   */\n      swap3\n      swap2\n      pop\n      pop\n      jump\t// out\n        /* \"#utility.yul\":2826:3300   */\n    tag_39:\n        /* \"#utility.yul\":2894:2900   */\n      0x00\n        /* \"#utility.yul\":2902:2908   */\n      dup1\n        /* \"#utility.yul\":2951:2953   */\n      0x40\n        /* \"#utility.yul\":2939:2948   */\n      dup4\n        /* \"#utility.yul\":2930:2937   */\n      dup6\n        /* \"#utility.yul\":2926:2949   */\n      sub\n        /* \"#utility.yul\":2922:2954   */\n      slt\n        /* \"#utility.yul\":2919:3038   */\n      iszero\n      tag_248\n      jumpi\n        /* \"#utility.yul\":2957:3036   */\n      tag_249\n      tag_176\n      jump\t// in\n    tag_249:\n        /* \"#utility.yul\":2919:3038   */\n    tag_248:\n        /* \"#utility.yul\":3077:3078   */\n      0x00\n        /* \"#utility.yul\":3102:3155   */\n      tag_250\n        /* \"#utility.yul\":3147:3154   */\n      dup6\n        /* \"#utility.yul\":3138:3144   */\n      dup3\n        /* \"#utility.yul\":3127:3136   */\n      dup7\n        /* \"#utility.yul\":3123:3145   */\n      add\n        /* \"#utility.yul\":3102:3155   */\n      tag_181\n      jump\t// in\n    tag_250:\n        /* \"#utility.yul\":3092:3155   */\n      swap3\n      pop\n        /* \"#utility.yul\":3048:3165   */\n      pop\n        /* \"#utility.yul\":3204:3206   */\n      0x20\n        /* \"#utility.yul\":3230:3283   */\n      tag_251\n        /* \"#utility.yul\":3275:3282   */\n      dup6\n        /* \"#utility.yul\":3266:3272   */\n      dup3\n        /* \"#utility.yul\":3255:3264   */\n      dup7\n        /* \"#utility.yul\":3251:3273   */\n      add\n        /* \"#utility.yul\":3230:3283   */\n      tag_181\n      jump\t// in\n    tag_251:\n        /* \"#utility.yul\":3220:3283   */\n      swap2\n      pop\n        /* \"#utility.yul\":3175:3293   */\n      pop\n        /* \"#utility.yul\":2826:3300   */\n      swap3\n      pop\n      swap3\n      swap1\n      pop\n      jump\t// out\n        /* \"#utility.yul\":3306:3396   */\n    tag_187:\n        /* \"#utility.yul\":3340:3347   */\n      0x00\n        /* \"#utility.yul\":3383:3388   */\n      dup2\n        /* \"#utility.yul\":3376:3389   */\n      iszero\n        /* \"#utility.yul\":3369:3390   */\n      iszero\n        /* \"#utility.yul\":3358:3390   */\n      swap1\n      pop\n        /* \"#utility.yul\":3306:3396   */\n      swap2\n      swap1\n      pop\n      jump\t// out\n        /* \"#utility.yul\":3402:3511   */\n    tag_188:\n        /* \"#utility.yul\":3483:3504   */\n      tag_254\n        /* \"#utility.yul\":3498:3503   */\n      dup2\n        /* \"#utility.yul\":3483:3504   */\n      tag_187\n      jump\t// in\n    tag_254:\n        /* \"#utility.yul\":3478:3481   */\n      dup3\n        /* \"#utility.yul\":3471:3505   */\n      mstore\n        /* \"#utility.yul\":3402:3511   */\n      pop\n      pop\n      jump\t// out\n        /* \"#utility.yul\":3517:3727   */\n    tag_47:\n        /* \"#utility.yul\":3604:3608   */\n      0x00\n        /* \"#utility.yul\":3642:3644   */\n      0x20\n        /* \"#utility.yul\":3631:3640   */\n      dup3\n        /* \"#utility.yul\":3627:3645   */\n      add\n        /* \"#utility.yul\":3619:3645   */\n      swap1\n      pop\n        /* \"#utility.yul\":3655:3720   */\n      tag_256\n        /* \"#utility.yul\":3717:3718   */\n      0x00\n        /* \"#utility.yul\":3706:3715   */\n      dup4\n        /* \"#utility.yul\":3702:3719   */\n      add\n        /* \"#utility.yul\":3693:3699   */\n      dup5\n        /* \"#utility.yul\":3655:3720   */\n      tag_188\n      jump\t// in\n    tag_256:\n        /* \"#utility.yul\":3517:3727   */\n      swap3\n      swap2\n      pop\n      pop\n      jump\t// out\n        /* \"#utility.yul\":3733:3837   */\n    tag_189:\n        /* \"#utility.yul\":3778:3785   */\n      0x00\n        /* \"#utility.yul\":3807:3831   */\n      tag_258\n        /* \"#utility.yul\":3825:3830   */\n      dup3\n        /* \"#utility.yul\":3807:3831   */\n      tag_178\n      jump\t// in\n    tag_258:\n        /* \"#utility.yul\":3796:3831   */\n      swap1\n      pop\n        /* \"#utility.yul\":3733:3837   */\n      swap2\n      swap1\n      pop\n      jump\t// out\n        /* \"#utility.yul\":3843:3981   */\n    tag_190:\n        /* \"#utility.yul\":3924:3956   */\n      tag_260\n        /* \"#utility.yul\":3950:3955   */\n      dup2\n        /* \"#utility.yul\":3924:3956   */\n      tag_189\n      jump\t// in\n    tag_260:\n        /* \"#utility.yul\":3917:3922   */\n      dup2\n        /* \"#utility.yul\":3914:3957   */\n      eq\n        /* \"#utility.yul\":3904:3975   */\n      tag_261\n      jumpi\n        /* \"#utility.yul\":3971:3972   */\n      0x00\n        /* \"#utility.yul\":3968:3969   */\n      dup1\n        /* \"#utility.yul\":3961:3973   */\n      revert\n        /* \"#utility.yul\":3904:3975   */\n    tag_261:\n        /* \"#utility.yul\":3843:3981   */\n      pop\n      jump\t// out\n        /* \"#utility.yul\":3987:4142   */\n    tag_191:\n        /* \"#utility.yul\":4041:4046   */\n      0x00\n        /* \"#utility.yul\":4079:4085   */\n      dup2\n        /* \"#utility.yul\":4066:4086   */\n      calldataload\n        /* \"#utility.yul\":4057:4086   */\n      swap1\n      pop\n        /* \"#utility.yul\":4095:4136   */\n      tag_263\n        /* \"#utility.yul\":4130:4135   */\n      dup2\n        /* \"#utility.yul\":4095:4136   */\n      tag_190\n      jump\t// in\n    tag_263:\n        /* \"#utility.yul\":3987:4142   */\n      swap3\n      swap2\n      pop\n      pop\n      jump\t// out\n        /* \"#utility.yul\":4148:4783   */\n    tag_50:\n        /* \"#utility.yul\":4233:4239   */\n      0x00\n        /* \"#utility.yul\":4241:4247   */\n      dup1\n        /* \"#utility.yul\":4249:4255   */\n      0x00\n        /* \"#utility.yul\":4298:4300   */\n      0x60\n        /* \"#utility.yul\":4286:4295   */\n      dup5\n        /* \"#utility.yul\":4277:4284   */\n      dup7\n        /* \"#utility.yul\":4273:4296   */\n      sub\n        /* \"#utility.yul\":4269:4301   */\n      slt\n        /* \"#utility.yul\":4266:4385   */\n      iszero\n      tag_265\n      jumpi\n        /* \"#utility.yul\":4304:4383   */\n      tag_266\n      tag_176\n      jump\t// in\n    tag_266:\n        /* \"#utility.yul\":4266:4385   */\n    tag_265:\n        /* \"#utility.yul\":4424:4425   */\n      0x00\n        /* \"#utility.yul\":4449:4502   */\n      tag_267\n        /* \"#utility.yul\":4494:4501   */\n      dup7\n        /* \"#utility.yul\":4485:4491   */\n      dup3\n        /* \"#utility.yul\":4474:4483   */\n      dup8\n        /* \"#utility.yul\":4470:4492   */\n      add\n        /* \"#utility.yul\":4449:4502   */\n      tag_181\n      jump\t// in\n    tag_267:\n        /* \"#utility.yul\":4439:4502   */\n      swap4\n      pop\n        /* \"#utility.yul\":4395:4512   */\n      pop\n        /* \"#utility.yul\":4551:4553   */\n      0x20\n        /* \"#utility.yul\":4577:4638   */\n      tag_268\n        /* \"#utility.yul\":4630:4637   */\n      dup7\n        /* \"#utility.yul\":4621:4627   */\n      dup3\n        /* \"#utility.yul\":4610:4619   */\n      dup8\n        /* \"#utility.yul\":4606:4628   */\n      add\n        /* \"#utility.yul\":4577:4638   */\n      tag_191\n      jump\t// in\n    tag_268:\n        /* \"#utility.yul\":4567:4638   */\n      swap3\n      pop\n        /* \"#utility.yul\":4522:4648   */\n      pop\n        /* \"#utility.yul\":4687:4689   */\n      0x40\n        /* \"#utility.yul\":4713:4766   */\n      tag_269\n        /* \"#utility.yul\":4758:4765   */\n      dup7\n        /* \"#utility.yul\":4749:4755   */\n      dup3\n        /* \"#utility.yul\":4738:4747   */\n      dup8\n        /* \"#utility.yul\":4734:4756   */\n      add\n        /* \"#utility.yul\":4713:4766   */\n      tag_185\n      jump\t// in\n    tag_269:\n        /* \"#utility.yul\":4703:4766   */\n      swap2\n      pop\n        /* \"#utility.yul\":4658:4776   */\n      pop\n        /* \"#utility.yul\":4148:4783   */\n      swap3\n      pop\n      swap3\n      pop\n      swap3\n      jump\t// out\n        /* \"#utility.yul\":4789:4875   */\n    tag_192:\n        /* \"#utility.yul\":4824:4831   */\n      0x00\n        /* \"#utility.yul\":4864:4868   */\n      0xff\n        /* \"#utility.yul\":4857:4862   */\n      dup3\n        /* \"#utility.yul\":4853:4869   */\n      and\n        /* \"#utility.yul\":4842:4869   */\n      swap1\n      pop\n        /* \"#utility.yul\":4789:4875   */\n      swap2\n      swap1\n      pop\n      jump\t// out\n        /* \"#utility.yul\":4881:4993   */\n    tag_193:\n        /* \"#utility.yul\":4964:4986   */\n      tag_272\n        /* \"#utility.yul\":4980:4985   */\n      dup2\n        /* \"#utility.yul\":4964:4986   */\n      tag_192\n      jump\t// in\n    tag_272:\n        /* \"#utility.yul\":4959:4962   */\n      dup3\n        /* \"#utility.yul\":4952:4987   */\n      mstore\n        /* \"#utility.yul\":4881:4993   */\n      pop\n      pop\n      jump\t// out\n        /* \"#utility.yul\":4999:5213   */\n    tag_57:\n        /* \"#utility.yul\":5088:5092   */\n      0x00\n        /* \"#utility.yul\":5126:5128   */\n      0x20\n        /* \"#utility.yul\":5115:5124   */\n      dup3\n        /* \"#utility.yul\":5111:5129   */\n      add\n        /* \"#utility.yul\":5103:5129   */\n      swap1\n      pop\n        /* \"#utility.yul\":5139:5206   */\n      tag_274\n        /* \"#utility.yul\":5203:5204   */\n      0x00\n        /* \"#utility.yul\":5192:5201   */\n      dup4\n        /* \"#utility.yul\":5188:5205   */\n      add\n        /* \"#utility.yul\":5179:5185   */\n      dup5\n        /* \"#utility.yul\":5139:5206   */\n      tag_193\n      jump\t// in\n    tag_274:\n        /* \"#utility.yul\":4999:5213   */\n      swap3\n      swap2\n      pop\n      pop\n      jump\t// out\n        /* \"#utility.yul\":5219:5441   */\n    tag_63:\n        /* \"#utility.yul\":5312:5316   */\n      0x00\n        /* \"#utility.yul\":5350:5352   */\n      0x20\n        /* \"#utility.yul\":5339:5348   */\n      dup3\n        /* \"#utility.yul\":5335:5353   */\n      add\n        /* \"#utility.yul\":5327:5353   */\n      swap1\n      pop\n        /* \"#utility.yul\":5363:5434   */\n      tag_276\n        /* \"#utility.yul\":5431:5432   */\n      0x00\n        /* \"#utility.yul\":5420:5429   */\n      dup4\n        /* \"#utility.yul\":5416:5433   */\n      add\n        /* \"#utility.yul\":5407:5413   */\n      dup5\n        /* \"#utility.yul\":5363:5434   */\n      tag_183\n      jump\t// in\n    tag_276:\n        /* \"#utility.yul\":5219:5441   */\n      swap3\n      swap2\n      pop\n      pop\n      jump\t// out\n        /* \"#utility.yul\":5447:5627   */\n    tag_194:\n        /* \"#utility.yul\":5495:5572   */\n      0x4e487b7100000000000000000000000000000000000000000000000000000000\n        /* \"#utility.yul\":5492:5493   */\n      0x00\n        /* \"#utility.yul\":5485:5573   */\n      mstore\n        /* \"#utility.yul\":5592:5596   */\n      0x11\n        /* \"#utility.yul\":5589:5590   */\n      0x04\n        /* \"#utility.yul\":5582:5597   */\n      mstore\n        /* \"#utility.yul\":5616:5620   */\n      0x24\n        /* \"#utility.yul\":5613:5614   */\n      0x00\n        /* \"#utility.yul\":5606:5621   */\n      revert\n        /* \"#utility.yul\":5633:5824   */\n    tag_75:\n        /* \"#utility.yul\":5673:5676   */\n      0x00\n        /* \"#utility.yul\":5692:5712   */\n      tag_279\n        /* \"#utility.yul\":5710:5711   */\n      dup3\n        /* \"#utility.yul\":5692:5712   */\n      tag_182\n      jump\t// in\n    tag_279:\n        /* \"#utility.yul\":5687:5712   */\n      swap2\n      pop\n        /* \"#utility.yul\":5726:5746   */\n      tag_280\n        /* \"#utility.yul\":5744:5745   */\n      dup4\n        /* \"#utility.yul\":5726:5746   */\n      tag_182\n      jump\t// in\n    tag_280:\n        /* \"#utility.yul\":5721:5746   */\n      swap3\n      pop\n        /* \"#utility.yul\":5769:5770   */\n      dup3\n        /* \"#utility.yul\":5766:5767   */\n      dup3\n        /* \"#utility.yul\":5762:5771   */\n      add\n        /* \"#utility.yul\":5755:5771   */\n      swap1\n      pop\n        /* \"#utility.yul\":5790:5793   */\n      dup1\n        /* \"#utility.yul\":5787:5788   */\n      dup3\n        /* \"#utility.yul\":5784:5794   */\n      gt\n        /* \"#utility.yul\":5781:5817   */\n      iszero\n      tag_281\n      jumpi\n        /* \"#utility.yul\":5797:5815   */\n      tag_282\n      tag_194\n      jump\t// in\n    tag_282:\n        /* \"#utility.yul\":5781:5817   */\n    tag_281:\n        /* \"#utility.yul\":5633:5824   */\n      swap3\n      swap2\n      pop\n      pop\n      jump\t// out\n        /* \"#utility.yul\":5830:5999   */\n    tag_195:\n        /* \"#utility.yul\":5914:5925   */\n      0x00\n        /* \"#utility.yul\":5948:5954   */\n      dup3\n        /* \"#utility.yul\":5943:5946   */\n      dup3\n        /* \"#utility.yul\":5936:5955   */\n      mstore\n        /* \"#utility.yul\":5988:5992   */\n      0x20\n        /* \"#utility.yul\":5983:5986   */\n      dup3\n        /* \"#utility.yul\":5979:5993   */\n      add\n        /* \"#utility.yul\":5964:5993   */\n      swap1\n      pop\n        /* \"#utility.yul\":5830:5999   */\n      swap3\n      swap2\n      pop\n      pop\n      jump\t// out\n        /* \"#utility.yul\":6005:6168   */\n    tag_196:\n        /* \"#utility.yul\":6145:6160   */\n      0x496e76616c696420746f6b656e00000000000000000000000000000000000000\n        /* \"#utility.yul\":6141:6142   */\n      0x00\n        /* \"#utility.yul\":6133:6139   */\n      dup3\n        /* \"#utility.yul\":6129:6143   */\n      add\n        /* \"#utility.yul\":6122:6161   */\n      mstore\n        /* \"#utility.yul\":6005:6168   */\n      pop\n      jump\t// out\n        /* \"#utility.yul\":6174:6540   */\n    tag_197:\n        /* \"#utility.yul\":6316:6319   */\n      0x00\n        /* \"#utility.yul\":6337:6404   */\n      tag_286\n        /* \"#utility.yul\":6401:6403   */\n      0x0d\n        /* \"#utility.yul\":6396:6399   */\n      dup4\n        /* \"#utility.yul\":6337:6404   */\n      tag_195\n      jump\t// in\n    tag_286:\n        /* \"#utility.yul\":6330:6404   */\n      swap2\n      pop\n        /* \"#utility.yul\":6413:6506   */\n      tag_287\n        /* \"#utility.yul\":6502:6505   */\n      dup3\n        /* \"#utility.yul\":6413:6506   */\n      tag_196\n      jump\t// in\n    tag_287:\n        /* \"#utility.yul\":6531:6533   */\n      0x20\n        /* \"#utility.yul\":6526:6529   */\n      dup3\n        /* \"#utility.yul\":6522:6534   */\n      add\n        /* \"#utility.yul\":6515:6534   */\n      swap1\n      pop\n        /* \"#utility.yul\":6174:6540   */\n      swap2\n      swap1\n      pop\n      jump\t// out\n        /* \"#utility.yul\":6546:6965   */\n    tag_82:\n        /* \"#utility.yul\":6712:6716   */\n      0x00\n        /* \"#utility.yul\":6750:6752   */\n      0x20\n        /* \"#utility.yul\":6739:6748   */\n      dup3\n        /* \"#utility.yul\":6735:6753   */\n      add\n        /* \"#utility.yul\":6727:6753   */\n      swap1\n      pop\n        /* \"#utility.yul\":6799:6808   */\n      dup2\n        /* \"#utility.yul\":6793:6797   */\n      dup2\n        /* \"#utility.yul\":6789:6809   */\n      sub\n        /* \"#utility.yul\":6785:6786   */\n      0x00\n        /* \"#utility.yul\":6774:6783   */\n      dup4\n        /* \"#utility.yul\":6770:6787   */\n      add\n        /* \"#utility.yul\":6763:6810   */\n      mstore\n        /* \"#utility.yul\":6827:6958   */\n      tag_289\n        /* \"#utility.yul\":6953:6957   */\n      dup2\n        /* \"#utility.yul\":6827:6958   */\n      tag_197\n      jump\t// in\n    tag_289:\n        /* \"#utility.yul\":6819:6958   */\n      swap1\n      pop\n        /* \"#utility.yul\":6546:6965   */\n      swap2\n      swap1\n      pop\n      jump\t// out\n        /* \"#utility.yul\":6971:7413   */\n    tag_84:\n        /* \"#utility.yul\":7120:7124   */\n      0x00\n        /* \"#utility.yul\":7158:7160   */\n      0x60\n        /* \"#utility.yul\":7147:7156   */\n      dup3\n        /* \"#utility.yul\":7143:7161   */\n      add\n        /* \"#utility.yul\":7135:7161   */\n      swap1\n      pop\n        /* \"#utility.yul\":7171:7242   */\n      tag_291\n        /* \"#utility.yul\":7239:7240   */\n      0x00\n        /* \"#utility.yul\":7228:7237   */\n      dup4\n        /* \"#utility.yul\":7224:7241   */\n      add\n        /* \"#utility.yul\":7215:7221   */\n      dup7\n        /* \"#utility.yul\":7171:7242   */\n      tag_186\n      jump\t// in\n    tag_291:\n        /* \"#utility.yul\":7252:7324   */\n      tag_292\n        /* \"#utility.yul\":7320:7322   */\n      0x20\n        /* \"#utility.yul\":7309:7318   */\n      dup4\n        /* \"#utility.yul\":7305:7323   */\n      add\n        /* \"#utility.yul\":7296:7302   */\n      dup6\n        /* \"#utility.yul\":7252:7324   */\n      tag_186\n      jump\t// in\n    tag_292:\n        /* \"#utility.yul\":7334:7406   */\n      tag_293\n        /* \"#utility.yul\":7402:7404   */\n      0x40\n        /* \"#utility.yul\":7391:7400   */\n      dup4\n        /* \"#utility.yul\":7387:7405   */\n      add\n        /* \"#utility.yul\":7378:7384   */\n      dup5\n        /* \"#utility.yul\":7334:7406   */\n      tag_183\n      jump\t// in\n    tag_293:\n        /* \"#utility.yul\":6971:7413   */\n      swap5\n      swap4\n      pop\n      pop\n      pop\n      pop\n      jump\t// out\n        /* \"#utility.yul\":7419:7535   */\n    tag_198:\n        /* \"#utility.yul\":7489:7510   */\n      tag_295\n        /* \"#utility.yul\":7504:7509   */\n      dup2\n        /* \"#utility.yul\":7489:7510   */\n      tag_187\n      jump\t// in\n    tag_295:\n        /* \"#utility.yul\":7482:7487   */\n      dup2\n        /* \"#utility.yul\":7479:7511   */\n      eq\n        /* \"#utility.yul\":7469:7529   */\n      tag_296\n      jumpi\n        /* \"#utility.yul\":7525:7526   */\n      0x00\n        /* \"#utility.yul\":7522:7523   */\n      dup1\n        /* \"#utility.yul\":7515:7527   */\n      revert\n        /* \"#utility.yul\":7469:7529   */\n    tag_296:\n        /* \"#utility.yul\":7419:7535   */\n      pop\n      jump\t// out\n        /* \"#utility.yul\":7541:7678   */\n    tag_199:\n        /* \"#utility.yul\":7595:7600   */\n      0x00\n        /* \"#utility.yul\":7626:7632   */\n      dup2\n        /* \"#utility.yul\":7620:7633   */\n      mload\n        /* \"#utility.yul\":7611:7633   */\n      swap1\n      pop\n        /* \"#utility.yul\":7642:7672   */\n      tag_298\n        /* \"#utility.yul\":7666:7671   */\n      dup2\n        /* \"#utility.yul\":7642:7672   */\n      tag_198\n      jump\t// in\n    tag_298:\n        /* \"#utility.yul\":7541:7678   */\n      swap3\n      swap2\n      pop\n      pop\n      jump\t// out\n        /* \"#utility.yul\":7684:8029   */\n    tag_88:\n        /* \"#utility.yul\":7751:7757   */\n      0x00\n        /* \"#utility.yul\":7800:7802   */\n      0x20\n        /* \"#utility.yul\":7788:7797   */\n      dup3\n        /* \"#utility.yul\":7779:7786   */\n      dup5\n        /* \"#utility.yul\":7775:7798   */\n      sub\n        /* \"#utility.yul\":7771:7803   */\n      slt\n        /* \"#utility.yul\":7768:7887   */\n      iszero\n      tag_300\n      jumpi\n        /* \"#utility.yul\":7806:7885   */\n      tag_301\n      tag_176\n      jump\t// in\n    tag_301:\n        /* \"#utility.yul\":7768:7887   */\n    tag_300:\n        /* \"#utility.yul\":7926:7927   */\n      0x00\n        /* \"#utility.yul\":7951:8012   */\n      tag_302\n        /* \"#utility.yul\":8004:8011   */\n      dup5\n        /* \"#utility.yul\":7995:8001   */\n      dup3\n        /* \"#utility.yul\":7984:7993   */\n      dup6\n        /* \"#utility.yul\":7980:8002   */\n      add\n        /* \"#utility.yul\":7951:8012   */\n      tag_199\n      jump\t// in\n    tag_302:\n        /* \"#utility.yul\":7941:8012   */\n      swap2\n      pop\n        /* \"#utility.yul\":7897:8022   */\n      pop\n        /* \"#utility.yul\":7684:8029   */\n      swap3\n      swap2\n      pop\n      pop\n      jump\t// out\n        /* \"#utility.yul\":8035:8200   */\n    tag_200:\n        /* \"#utility.yul\":8175:8192   */\n      0x5472616e73666572206661696c65640000000000000000000000000000000000\n        /* \"#utility.yul\":8171:8172   */\n      0x00\n        /* \"#utility.yul\":8163:8169   */\n      dup3\n        /* \"#utility.yul\":8159:8173   */\n      add\n        /* \"#utility.yul\":8152:8193   */\n      mstore\n        /* \"#utility.yul\":8035:8200   */\n      pop\n      jump\t// out\n        /* \"#utility.yul\":8206:8572   */\n    tag_201:\n        /* \"#utility.yul\":8348:8351   */\n      0x00\n        /* \"#utility.yul\":8369:8436   */\n      tag_305\n        /* \"#utility.yul\":8433:8435   */\n      0x0f\n        /* \"#utility.yul\":8428:8431   */\n      dup4\n        /* \"#utility.yul\":8369:8436   */\n      tag_195\n      jump\t// in\n    tag_305:\n        /* \"#utility.yul\":8362:8436   */\n      swap2\n      pop\n        /* \"#utility.yul\":8445:8538   */\n      tag_306\n        /* \"#utility.yul\":8534:8537   */\n      dup3\n        /* \"#utility.yul\":8445:8538   */\n      tag_200\n      jump\t// in\n    tag_306:\n        /* \"#utility.yul\":8563:8565   */\n      0x20\n        /* \"#utility.yul\":8558:8561   */\n      dup3\n        /* \"#utility.yul\":8554:8566   */\n      add\n        /* \"#utility.yul\":8547:8566   */\n      swap1\n      pop\n        /* \"#utility.yul\":8206:8572   */\n      swap2\n      swap1\n      pop\n      jump\t// out\n        /* \"#utility.yul\":8578:8997   */\n    tag_91:\n        /* \"#utility.yul\":8744:8748   */\n      0x00\n        /* \"#utility.yul\":8782:8784   */\n      0x20\n        /* \"#utility.yul\":8771:8780   */\n      dup3\n        /* \"#utility.yul\":8767:8785   */\n      add\n        /* \"#utility.yul\":8759:8785   */\n      swap1\n      pop\n        /* \"#utility.yul\":8831:8840   */\n      dup2\n        /* \"#utility.yul\":8825:8829   */\n      dup2\n        /* \"#utility.yul\":8821:8841   */\n      sub\n        /* \"#utility.yul\":8817:8818   */\n      0x00\n        /* \"#utility.yul\":8806:8815   */\n      dup4\n        /* \"#utility.yul\":8802:8819   */\n      add\n        /* \"#utility.yul\":8795:8842   */\n      mstore\n        /* \"#utility.yul\":8859:8990   */\n      tag_308\n        /* \"#utility.yul\":8985:8989   */\n      dup2\n        /* \"#utility.yul\":8859:8990   */\n      tag_201\n      jump\t// in\n    tag_308:\n        /* \"#utility.yul\":8851:8990   */\n      swap1\n      pop\n        /* \"#utility.yul\":8578:8997   */\n      swap2\n      swap1\n      pop\n      jump\t// out\n        /* \"#utility.yul\":9003:9182   */\n    tag_202:\n        /* \"#utility.yul\":9143:9174   */\n      0x416d6f756e74206d7573742062652067726561746572207468616e2030000000\n        /* \"#utility.yul\":9139:9140   */\n      0x00\n        /* \"#utility.yul\":9131:9137   */\n      dup3\n        /* \"#utility.yul\":9127:9141   */\n      add\n        /* \"#utility.yul\":9120:9175   */\n      mstore\n        /* \"#utility.yul\":9003:9182   */\n      pop\n      jump\t// out\n        /* \"#utility.yul\":9188:9554   */\n    tag_203:\n        /* \"#utility.yul\":9330:9333   */\n      0x00\n        /* \"#utility.yul\":9351:9418   */\n      tag_311\n        /* \"#utility.yul\":9415:9417   */\n      0x1d\n        /* \"#utility.yul\":9410:9413   */\n      dup4\n        /* \"#utility.yul\":9351:9418   */\n      tag_195\n      jump\t// in\n    tag_311:\n        /* \"#utility.yul\":9344:9418   */\n      swap2\n      pop\n        /* \"#utility.yul\":9427:9520   */\n      tag_312\n        /* \"#utility.yul\":9516:9519   */\n      dup3\n        /* \"#utility.yul\":9427:9520   */\n      tag_202\n      jump\t// in\n    tag_312:\n        /* \"#utility.yul\":9545:9547   */\n      0x20\n        /* \"#utility.yul\":9540:9543   */\n      dup3\n        /* \"#utility.yul\":9536:9548   */\n      add\n        /* \"#utility.yul\":9529:9548   */\n      swap1\n      pop\n        /* \"#utility.yul\":9188:9554   */\n      swap2\n      swap1\n      pop\n      jump\t// out\n        /* \"#utility.yul\":9560:9979   */\n    tag_106:\n        /* \"#utility.yul\":9726:9730   */\n      0x00\n        /* \"#utility.yul\":9764:9766   */\n      0x20\n        /* \"#utility.yul\":9753:9762   */\n      dup3\n        /* \"#utility.yul\":9749:9767   */\n      add\n        /* \"#utility.yul\":9741:9767   */\n      swap1\n      pop\n        /* \"#utility.yul\":9813:9822   */\n      dup2\n        /* \"#utility.yul\":9807:9811   */\n      dup2\n        /* \"#utility.yul\":9803:9823   */\n      sub\n        /* \"#utility.yul\":9799:9800   */\n      0x00\n        /* \"#utility.yul\":9788:9797   */\n      dup4\n        /* \"#utility.yul\":9784:9801   */\n      add\n        /* \"#utility.yul\":9777:9824   */\n      mstore\n        /* \"#utility.yul\":9841:9972   */\n      tag_314\n        /* \"#utility.yul\":9967:9971   */\n      dup2\n        /* \"#utility.yul\":9841:9972   */\n      tag_203\n      jump\t// in\n    tag_314:\n        /* \"#utility.yul\":9833:9972   */\n      swap1\n      pop\n        /* \"#utility.yul\":9560:9979   */\n      swap2\n      swap1\n      pop\n      jump\t// out\n        /* \"#utility.yul\":9985:10155   */\n    tag_204:\n        /* \"#utility.yul\":10125:10147   */\n      0x496e73756666696369656e742062616c616e6365000000000000000000000000\n        /* \"#utility.yul\":10121:10122   */\n      0x00\n        /* \"#utility.yul\":10113:10119   */\n      dup3\n        /* \"#utility.yul\":10109:10123   */\n      add\n        /* \"#utility.yul\":10102:10148   */\n      mstore\n        /* \"#utility.yul\":9985:10155   */\n      pop\n      jump\t// out\n        /* \"#utility.yul\":10161:10527   */\n    tag_205:\n        /* \"#utility.yul\":10303:10306   */\n      0x00\n        /* \"#utility.yul\":10324:10391   */\n      tag_317\n        /* \"#utility.yul\":10388:10390   */\n      0x14\n        /* \"#utility.yul\":10383:10386   */\n      dup4\n        /* \"#utility.yul\":10324:10391   */\n      tag_195\n      jump\t// in\n    tag_317:\n        /* \"#utility.yul\":10317:10391   */\n      swap2\n      pop\n        /* \"#utility.yul\":10400:10493   */\n      tag_318\n        /* \"#utility.yul\":10489:10492   */\n      dup3\n        /* \"#utility.yul\":10400:10493   */\n      tag_204\n      jump\t// in\n    tag_318:\n        /* \"#utility.yul\":10518:10520   */\n      0x20\n        /* \"#utility.yul\":10513:10516   */\n      dup3\n        /* \"#utility.yul\":10509:10521   */\n      add\n        /* \"#utility.yul\":10502:10521   */\n      swap1\n      pop\n        /* \"#utility.yul\":10161:10527   */\n      swap2\n      swap1\n      pop\n      jump\t// out\n        /* \"#utility.yul\":10533:10952   */\n    tag_110:\n        /* \"#utility.yul\":10699:10703   */\n      0x00\n        /* \"#utility.yul\":10737:10739   */\n      0x20\n        /* \"#utility.yul\":10726:10735   */\n      dup3\n        /* \"#utility.yul\":10722:10740   */\n      add\n        /* \"#utility.yul\":10714:10740   */\n      swap1\n      pop\n        /* \"#utility.yul\":10786:10795   */\n      dup2\n        /* \"#utility.yul\":10780:10784   */\n      dup2\n        /* \"#utility.yul\":10776:10796   */\n      sub\n        /* \"#utility.yul\":10772:10773   */\n      0x00\n        /* \"#utility.yul\":10761:10770   */\n      dup4\n        /* \"#utility.yul\":10757:10774   */\n      add\n        /* \"#utility.yul\":10750:10797   */\n      mstore\n        /* \"#utility.yul\":10814:10945   */\n      tag_320\n        /* \"#utility.yul\":10940:10944   */\n      dup2\n        /* \"#utility.yul\":10814:10945   */\n      tag_205\n      jump\t// in\n    tag_320:\n        /* \"#utility.yul\":10806:10945   */\n      swap1\n      pop\n        /* \"#utility.yul\":10533:10952   */\n      swap2\n      swap1\n      pop\n      jump\t// out\n        /* \"#utility.yul\":10958:11152   */\n    tag_112:\n        /* \"#utility.yul\":10998:11002   */\n      0x00\n        /* \"#utility.yul\":11018:11038   */\n      tag_322\n        /* \"#utility.yul\":11036:11037   */\n      dup3\n        /* \"#utility.yul\":11018:11038   */\n      tag_182\n      jump\t// in\n    tag_322:\n        /* \"#utility.yul\":11013:11038   */\n      swap2\n      pop\n        /* \"#utility.yul\":11052:11072   */\n      tag_323\n        /* \"#utility.yul\":11070:11071   */\n      dup4\n        /* \"#utility.yul\":11052:11072   */\n      tag_182\n      jump\t// in\n    tag_323:\n        /* \"#utility.yul\":11047:11072   */\n      swap3\n      pop\n        /* \"#utility.yul\":11096:11097   */\n      dup3\n        /* \"#utility.yul\":11093:11094   */\n      dup3\n        /* \"#utility.yul\":11089:11098   */\n      sub\n        /* \"#utility.yul\":11081:11098   */\n      swap1\n      pop\n        /* \"#utility.yul\":11120:11121   */\n      dup2\n        /* \"#utility.yul\":11114:11118   */\n      dup2\n        /* \"#utility.yul\":11111:11122   */\n      gt\n        /* \"#utility.yul\":11108:11145   */\n      iszero\n      tag_324\n      jumpi\n        /* \"#utility.yul\":11125:11143   */\n      tag_325\n      tag_194\n      jump\t// in\n    tag_325:\n        /* \"#utility.yul\":11108:11145   */\n    tag_324:\n        /* \"#utility.yul\":10958:11152   */\n      swap3\n      swap2\n      pop\n      pop\n      jump\t// out\n        /* \"#utility.yul\":11158:11305   */\n    tag_206:\n        /* \"#utility.yul\":11259:11270   */\n      0x00\n        /* \"#utility.yul\":11296:11299   */\n      dup2\n        /* \"#utility.yul\":11281:11299   */\n      swap1\n      pop\n        /* \"#utility.yul\":11158:11305   */\n      swap3\n      swap2\n      pop\n      pop\n      jump\t// out\n        /* \"#utility.yul\":11311:11425   */\n    tag_207:\n      pop\n      jump\t// out\n        /* \"#utility.yul\":11431:11829   */\n    tag_208:\n        /* \"#utility.yul\":11590:11593   */\n      0x00\n        /* \"#utility.yul\":11611:11694   */\n      tag_329\n        /* \"#utility.yul\":11692:11693   */\n      0x00\n        /* \"#utility.yul\":11687:11690   */\n      dup4\n        /* \"#utility.yul\":11611:11694   */\n      tag_206\n      jump\t// in\n    tag_329:\n        /* \"#utility.yul\":11604:11694   */\n      swap2\n      pop\n        /* \"#utility.yul\":11703:11796   */\n      tag_330\n        /* \"#utility.yul\":11792:11795   */\n      dup3\n        /* \"#utility.yul\":11703:11796   */\n      tag_207\n      jump\t// in\n    tag_330:\n        /* \"#utility.yul\":11821:11822   */\n      0x00\n        /* \"#utility.yul\":11816:11819   */\n      dup3\n        /* \"#utility.yul\":11812:11823   */\n      add\n        /* \"#utility.yul\":11805:11823   */\n      swap1\n      pop\n        /* \"#utility.yul\":11431:11829   */\n      swap2\n      swap1\n      pop\n      jump\t// out\n        /* \"#utility.yul\":11835:12214   */\n    tag_143:\n        /* \"#utility.yul\":12019:12022   */\n      0x00\n        /* \"#utility.yul\":12041:12188   */\n      tag_332\n        /* \"#utility.yul\":12184:12187   */\n      dup3\n        /* \"#utility.yul\":12041:12188   */\n      tag_208\n      jump\t// in\n    tag_332:\n        /* \"#utility.yul\":12034:12188   */\n      swap2\n      pop\n        /* \"#utility.yul\":12205:12208   */\n      dup2\n        /* \"#utility.yul\":12198:12208   */\n      swap1\n      pop\n        /* \"#utility.yul\":11835:12214   */\n      swap2\n      swap1\n      pop\n      jump\t// out\n        /* \"#utility.yul\":12220:12391   */\n    tag_209:\n        /* \"#utility.yul\":12360:12383   */\n      0x455448207769746864726177616c206661696c65640000000000000000000000\n        /* \"#utility.yul\":12356:12357   */\n      0x00\n        /* \"#utility.yul\":12348:12354   */\n      dup3\n        /* \"#utility.yul\":12344:12358   */\n      add\n        /* \"#utility.yul\":12337:12384   */\n      mstore\n        /* \"#utility.yul\":12220:12391   */\n      pop\n      jump\t// out\n        /* \"#utility.yul\":12397:12763   */\n    tag_210:\n        /* \"#utility.yul\":12539:12542   */\n      0x00\n        /* \"#utility.yul\":12560:12627   */\n      tag_335\n        /* \"#utility.yul\":12624:12626   */\n      0x15\n        /* \"#utility.yul\":12619:12622   */\n      dup4\n        /* \"#utility.yul\":12560:12627   */\n      tag_195\n      jump\t// in\n    tag_335:\n        /* \"#utility.yul\":12553:12627   */\n      swap2\n      pop\n        /* \"#utility.yul\":12636:12729   */\n      tag_336\n        /* \"#utility.yul\":12725:12728   */\n      dup3\n        /* \"#utility.yul\":12636:12729   */\n      tag_209\n      jump\t// in\n    tag_336:\n        /* \"#utility.yul\":12754:12756   */\n      0x20\n        /* \"#utility.yul\":12749:12752   */\n      dup3\n        /* \"#utility.yul\":12745:12757   */\n      add\n        /* \"#utility.yul\":12738:12757   */\n      swap1\n      pop\n        /* \"#utility.yul\":12397:12763   */\n      swap2\n      swap1\n      pop\n      jump\t// out\n        /* \"#utility.yul\":12769:13188   */\n    tag_149:\n        /* \"#utility.yul\":12935:12939   */\n      0x00\n        /* \"#utility.yul\":12973:12975   */\n      0x20\n        /* \"#utility.yul\":12962:12971   */\n      dup3\n        /* \"#utility.yul\":12958:12976   */\n      add\n        /* \"#utility.yul\":12950:12976   */\n      swap1\n      pop\n        /* \"#utility.yul\":13022:13031   */\n      dup2\n        /* \"#utility.yul\":13016:13020   */\n      dup2\n        /* \"#utility.yul\":13012:13032   */\n      sub\n        /* \"#utility.yul\":13008:13009   */\n      0x00\n        /* \"#utility.yul\":12997:13006   */\n      dup4\n        /* \"#utility.yul\":12993:13010   */\n      add\n        /* \"#utility.yul\":12986:13033   */\n      mstore\n        /* \"#utility.yul\":13050:13181   */\n      tag_338\n        /* \"#utility.yul\":13176:13180   */\n      dup2\n        /* \"#utility.yul\":13050:13181   */\n      tag_210\n      jump\t// in\n    tag_338:\n        /* \"#utility.yul\":13042:13181   */\n      swap1\n      pop\n        /* \"#utility.yul\":12769:13188   */\n      swap2\n      swap1\n      pop\n      jump\t// out\n        /* \"#utility.yul\":13194:13526   */\n    tag_158:\n        /* \"#utility.yul\":13315:13319   */\n      0x00\n        /* \"#utility.yul\":13353:13355   */\n      0x40\n        /* \"#utility.yul\":13342:13351   */\n      dup3\n        /* \"#utility.yul\":13338:13356   */\n      add\n        /* \"#utility.yul\":13330:13356   */\n      swap1\n      pop\n        /* \"#utility.yul\":13366:13437   */\n      tag_340\n        /* \"#utility.yul\":13434:13435   */\n      0x00\n        /* \"#utility.yul\":13423:13432   */\n      dup4\n        /* \"#utility.yul\":13419:13436   */\n      add\n        /* \"#utility.yul\":13410:13416   */\n      dup6\n        /* \"#utility.yul\":13366:13437   */\n      tag_186\n      jump\t// in\n    tag_340:\n        /* \"#utility.yul\":13447:13519   */\n      tag_341\n        /* \"#utility.yul\":13515:13517   */\n      0x20\n        /* \"#utility.yul\":13504:13513   */\n      dup4\n        /* \"#utility.yul\":13500:13518   */\n      add\n        /* \"#utility.yul\":13491:13497   */\n      dup5\n        /* \"#utility.yul\":13447:13519   */\n      tag_183\n      jump\t// in\n    tag_341:\n        /* \"#utility.yul\":13194:13526   */\n      swap4\n      swap3\n      pop\n      pop\n      pop\n      jump\t// out\n\n    auxdata: 0xa26469706673582212201fefa135e5771c31d9efd8c9f6cbb782432b4a305629180e18c59ba94c2560a564736f6c634300081a0033\n}\n",
				"bytecode": {
					"linkReferences": {},
					"object": "60c060405234801561000f575f80fd5b5060405161242738038061242783398181016040528101906100319190610662565b335f73ffffffffffffffffffffffffffffffffffffffff168173ffffffffffffffffffffffffffffffffffffffff16036100a2575f6040517f1e4fbdf700000000000000000000000000000000000000000000000000000000815260040161009991906106b8565b60405180910390fd5b6100b1816103df60201b60201c565b505f8151116100f5576040517f08c379a00000000000000000000000000000000000000000000000000000000081526004016100ec90610751565b60405180910390fd5b5f5b815181101561038f5760055f8383815181106101165761011561076f565b5b602002602001015173ffffffffffffffffffffffffffffffffffffffff1673ffffffffffffffffffffffffffffffffffffffff1681526020019081526020015f205f9054906101000a900460ff16156101a4576040517f08c379a000000000000000000000000000000000000000000000000000000000815260040161019b906107e6565b60405180910390fd5b60018282815181106101b9576101b861076f565b5b6020026020010151908060018154018082558091505060019003905f5260205f20015f9091909190916101000a81548173ffffffffffffffffffffffffffffffffffffffff021916908373ffffffffffffffffffffffffffffffffffffffff1602179055508181815181106102315761023061076f565b5b602002602001015173ffffffffffffffffffffffffffffffffffffffff1663313ce5676040518163ffffffff1660e01b8152600401602060405180830381865afa158015610281573d5f803e3d5ffd5b505050506040513d601f19601f820116820180604052508101906102a5919061083a565b60065f8484815181106102bb576102ba61076f565b5b602002602001015173ffffffffffffffffffffffffffffffffffffffff1673ffffffffffffffffffffffffffffffffffffffff1681526020019081526020015f205f6101000a81548160ff021916908360ff160217905550600160055f84848151811061032b5761032a61076f565b5b602002602001015173ffffffffffffffffffffffffffffffffffffffff1673ffffffffffffffffffffffffffffffffffffffff1681526020019081526020015f205f6101000a81548160ff02191690831515021790555080806001019150506100f7565b503373ffffffffffffffffffffffffffffffffffffffff1660808173ffffffffffffffffffffffffffffffffffffffff16815250506103d26104a060201b60201c565b60a0818152505050610865565b5f805f9054906101000a900473ffffffffffffffffffffffffffffffffffffffff169050815f806101000a81548173ffffffffffffffffffffffffffffffffffffffff021916908373ffffffffffffffffffffffffffffffffffffffff1602179055508173ffffffffffffffffffffffffffffffffffffffff168173ffffffffffffffffffffffffffffffffffffffff167f8be0079c531659141344cd1fd0a4f28419497f9722a3daafe3b4186f6b6457e060405160405180910390a35050565b5f42905090565b5f604051905090565b5f80fd5b5f80fd5b5f80fd5b5f601f19601f8301169050919050565b7f4e487b71000000000000000000000000000000000000000000000000000000005f52604160045260245ffd5b610502826104bc565b810181811067ffffffffffffffff82111715610521576105206104cc565b5b80604052505050565b5f6105336104a7565b905061053f82826104f9565b919050565b5f67ffffffffffffffff82111561055e5761055d6104cc565b5b602082029050602081019050919050565b5f80fd5b5f73ffffffffffffffffffffffffffffffffffffffff82169050919050565b5f61059c82610573565b9050919050565b6105ac81610592565b81146105b6575f80fd5b50565b5f815190506105c7816105a3565b92915050565b5f6105df6105da84610544565b61052a565b905080838252602082019050602084028301858111156106025761060161056f565b5b835b8181101561062b578061061788826105b9565b845260208401935050602081019050610604565b5050509392505050565b5f82601f830112610649576106486104b8565b5b81516106598482602086016105cd565b91505092915050565b5f60208284031215610677576106766104b0565b5b5f82015167ffffffffffffffff811115610694576106936104b4565b5b6106a084828501610635565b91505092915050565b6106b281610592565b82525050565b5f6020820190506106cb5f8301846106a9565b92915050565b5f82825260208201905092915050565b7f4174206c65617374206f6e6520746f6b656e20616464726573732072657175695f8201527f7265640000000000000000000000000000000000000000000000000000000000602082015250565b5f61073b6023836106d1565b9150610746826106e1565b604082019050919050565b5f6020820190508181035f8301526107688161072f565b9050919050565b7f4e487b71000000000000000000000000000000000000000000000000000000005f52603260045260245ffd5b7f4475706c696361746520746f6b656e00000000000000000000000000000000005f82015250565b5f6107d0600f836106d1565b91506107db8261079c565b602082019050919050565b5f6020820190508181035f8301526107fd816107c4565b9050919050565b5f60ff82169050919050565b61081981610804565b8114610823575f80fd5b50565b5f8151905061083481610810565b92915050565b5f6020828403121561084f5761084e6104b0565b5b5f61085c84828501610826565b91505092915050565b60805160a051611ba76108805f395f50505f5050611ba75ff3fe60806040526004361061009f575f3560e01c806395533f171161006357806395533f1714610180578063beabacc8146101bc578063d449a832146101d8578063e1254fba14610214578063f2fde38b14610250578063f3fef3a314610278576100a6565b80632e9708e4146100aa57806347e7ef24146100e7578063715018a6146101035780638da5cb5b146101195780638f601f6614610143576100a6565b366100a657005b5f80fd5b3480156100b5575f80fd5b506100d060048036038101906100cb9190611591565b6102a0565b6040516100de9291906115d4565b60405180910390f35b61010160048036038101906100fc9190611625565b6102c0565b005b34801561010e575f80fd5b506101176106be565b005b348015610124575f80fd5b5061012d6106d1565b60405161013a9190611672565b60405180910390f35b34801561014e575f80fd5b506101696004803603810190610164919061168b565b6106f8565b6040516101779291906115d4565b60405180910390f35b34801561018b575f80fd5b506101a660048036038101906101a19190611591565b610723565b6040516101b391906116e3565b60405180910390f35b6101d660048036038101906101d19190611737565b610740565b005b3480156101e3575f80fd5b506101fe60048036038101906101f99190611591565b610c22565b60405161020b91906117a2565b60405180910390f35b34801561021f575f80fd5b5061023a60048036038101906102359190611591565b610c3f565b60405161024791906117bb565b60405180910390f35b34801561025b575f80fd5b5061027660048036038101906102719190611591565b610dc8565b005b348015610283575f80fd5b5061029e60048036038101906102999190611625565b610e4c565b005b6004602052805f5260405f205f91509050805f0154908060010154905082565b5f73ffffffffffffffffffffffffffffffffffffffff168273ffffffffffffffffffffffffffffffffffffffff16036103e7573460045f3373ffffffffffffffffffffffffffffffffffffffff1673ffffffffffffffffffffffffffffffffffffffff1681526020019081526020015f206001015f8282546103429190611801565b925050819055506103516113dd565b60045f3373ffffffffffffffffffffffffffffffffffffffff1673ffffffffffffffffffffffffffffffffffffffff1681526020019081526020015f205f01819055503373ffffffffffffffffffffffffffffffffffffffff167f3bc2cc3db9bc1fa24ad4420cf0201d4c07698bf5902c10e3e04a05d343e938c7346040516103da91906117bb565b60405180910390a26106ba565b60055f8373ffffffffffffffffffffffffffffffffffffffff1673ffffffffffffffffffffffffffffffffffffffff1681526020019081526020015f205f9054906101000a900460ff16610470576040517f08c379a00000000000000000000000000000000000000000000000000000000081526004016104679061188e565b60405180910390fd5b8173ffffffffffffffffffffffffffffffffffffffff166323b872dd3330846040518463ffffffff1660e01b81526004016104ad939291906118ac565b6020604051808303815f875af11580156104c9573d5f803e3d5ffd5b505050506040513d601f19601f820116820180604052508101906104ed919061190b565b61052c576040517f08c379a000000000000000000000000000000000000000000000000000000000815260040161052390611980565b60405180910390fd5b8060035f8473ffffffffffffffffffffffffffffffffffffffff1673ffffffffffffffffffffffffffffffffffffffff1681526020019081526020015f205f3373ffffffffffffffffffffffffffffffffffffffff1673ffffffffffffffffffffffffffffffffffffffff1681526020019081526020015f206001015f8282546105b69190611801565b925050819055506105c56113dd565b60035f8473ffffffffffffffffffffffffffffffffffffffff1673ffffffffffffffffffffffffffffffffffffffff1681526020019081526020015f205f3373ffffffffffffffffffffffffffffffffffffffff1673ffffffffffffffffffffffffffffffffffffffff1681526020019081526020015f205f015f82825461064d9190611801565b925050819055508173ffffffffffffffffffffffffffffffffffffffff163373ffffffffffffffffffffffffffffffffffffffff167f8752a472e571a816aea92eec8dae9baf628e840f4929fbcc2d155e6233ff68a7836040516106b191906117bb565b60405180910390a35b5050565b6106c66113e4565b6106cf5f61146b565b565b5f805f9054906101000a900473ffffffffffffffffffffffffffffffffffffffff16905090565b6003602052815f5260405f20602052805f5260405f205f9150915050805f0154908060010154905082565b6005602052805f5260405f205f915054906101000a900460ff1681565b5f8111610782576040517f08c379a0000000000000000000000000000000000000000000000000000000008152600401610779906119e8565b60405180910390fd5b5f73ffffffffffffffffffffffffffffffffffffffff168373ffffffffffffffffffffffffffffffffffffffff160361094e578060045f3373ffffffffffffffffffffffffffffffffffffffff1673ffffffffffffffffffffffffffffffffffffffff1681526020019081526020015f20600101541015610838576040517f08c379a000000000000000000000000000000000000000000000000000000000815260040161082f90611a50565b60405180910390fd5b8060045f3373ffffffffffffffffffffffffffffffffffffffff1673ffffffffffffffffffffffffffffffffffffffff1681526020019081526020015f206001015f8282546108879190611a6e565b925050819055508060045f8473ffffffffffffffffffffffffffffffffffffffff1673ffffffffffffffffffffffffffffffffffffffff1681526020019081526020015f206001015f8282546108dd9190611801565b925050819055508173ffffffffffffffffffffffffffffffffffffffff163373ffffffffffffffffffffffffffffffffffffffff167f8dec4e7cfc87eced5c05eafa206697292193ede25a52287bf5fc6cbb0fd84cfa8360405161094191906117bb565b60405180910390a3610c1d565b60055f8473ffffffffffffffffffffffffffffffffffffffff1673ffffffffffffffffffffffffffffffffffffffff1681526020019081526020015f205f9054906101000a900460ff166109d7576040517f08c379a00000000000000000000000000000000000000000000000000000000081526004016109ce9061188e565b60405180910390fd5b8060035f8573ffffffffffffffffffffffffffffffffffffffff1673ffffffffffffffffffffffffffffffffffffffff1681526020019081526020015f205f3373ffffffffffffffffffffffffffffffffffffffff1673ffffffffffffffffffffffffffffffffffffffff1681526020019081526020015f20600101541015610a95576040517f08c379a0000000000000000000000000000000000000000000000000000000008152600401610a8c90611a50565b60405180910390fd5b8060035f8573ffffffffffffffffffffffffffffffffffffffff1673ffffffffffffffffffffffffffffffffffffffff1681526020019081526020015f205f3373ffffffffffffffffffffffffffffffffffffffff1673ffffffffffffffffffffffffffffffffffffffff1681526020019081526020015f206001015f828254610b1f9190611a6e565b925050819055508060035f8573ffffffffffffffffffffffffffffffffffffffff1673ffffffffffffffffffffffffffffffffffffffff1681526020019081526020015f205f8473ffffffffffffffffffffffffffffffffffffffff1673ffffffffffffffffffffffffffffffffffffffff1681526020019081526020015f206001015f828254610bb09190611801565b925050819055508273ffffffffffffffffffffffffffffffffffffffff163373ffffffffffffffffffffffffffffffffffffffff167f8752a472e571a816aea92eec8dae9baf628e840f4929fbcc2d155e6233ff68a783604051610c1491906117bb565b60405180910390a35b505050565b6006602052805f5260405f205f915054906101000a900460ff1681565b5f8073ffffffffffffffffffffffffffffffffffffffff168273ffffffffffffffffffffffffffffffffffffffff1603610cbb5760045f3373ffffffffffffffffffffffffffffffffffffffff1673ffffffffffffffffffffffffffffffffffffffff1681526020019081526020015f20600101549050610dc3565b60055f8373ffffffffffffffffffffffffffffffffffffffff1673ffffffffffffffffffffffffffffffffffffffff1681526020019081526020015f205f9054906101000a900460ff16610d44576040517f08c379a0000000000000000000000000000000000000000000000000000000008152600401610d3b9061188e565b60405180910390fd5b60035f8373ffffffffffffffffffffffffffffffffffffffff1673ffffffffffffffffffffffffffffffffffffffff1681526020019081526020015f205f3373ffffffffffffffffffffffffffffffffffffffff1673ffffffffffffffffffffffffffffffffffffffff1681526020019081526020015f206001015490505b919050565b610dd06113e4565b5f73ffffffffffffffffffffffffffffffffffffffff168173ffffffffffffffffffffffffffffffffffffffff1603610e40575f6040517f1e4fbdf7000000000000000000000000000000000000000000000000000000008152600401610e379190611672565b60405180910390fd5b610e498161146b565b50565b5f73ffffffffffffffffffffffffffffffffffffffff168273ffffffffffffffffffffffffffffffffffffffff16036110e1575f8111610ec1576040517f08c379a0000000000000000000000000000000000000000000000000000000008152600401610eb8906119e8565b60405180910390fd5b8060045f3373ffffffffffffffffffffffffffffffffffffffff1673ffffffffffffffffffffffffffffffffffffffff1681526020019081526020015f20600101541015610f44576040517f08c379a0000000000000000000000000000000000000000000000000000000008152600401610f3b90611a50565b60405180910390fd5b8060045f3373ffffffffffffffffffffffffffffffffffffffff1673ffffffffffffffffffffffffffffffffffffffff1681526020019081526020015f206001015f828254610f939190611a6e565b92505081905550610fa26113dd565b60045f3373ffffffffffffffffffffffffffffffffffffffff1673ffffffffffffffffffffffffffffffffffffffff1681526020019081526020015f205f01819055505f3373ffffffffffffffffffffffffffffffffffffffff168260405161100a90611ace565b5f6040518083038185875af1925050503d805f8114611044576040519150601f19603f3d011682016040523d82523d5f602084013e611049565b606091505b505090508061108d576040517f08c379a000000000000000000000000000000000000000000000000000000000815260040161108490611b2c565b60405180910390fd5b3373ffffffffffffffffffffffffffffffffffffffff167f94b2de810873337ed265c5f8cf98c9cffefa06b8607f9a2f1fbaebdfbcfbef1c836040516110d391906117bb565b60405180910390a2506113d9565b60055f8373ffffffffffffffffffffffffffffffffffffffff1673ffffffffffffffffffffffffffffffffffffffff1681526020019081526020015f205f9054906101000a900460ff1661116a576040517f08c379a00000000000000000000000000000000000000000000000000000000081526004016111619061188e565b60405180910390fd5b8060035f8473ffffffffffffffffffffffffffffffffffffffff1673ffffffffffffffffffffffffffffffffffffffff1681526020019081526020015f205f3373ffffffffffffffffffffffffffffffffffffffff1673ffffffffffffffffffffffffffffffffffffffff1681526020019081526020015f20600101541015611228576040517f08c379a000000000000000000000000000000000000000000000000000000000815260040161121f90611a50565b60405180910390fd5b8060035f8473ffffffffffffffffffffffffffffffffffffffff1673ffffffffffffffffffffffffffffffffffffffff1681526020019081526020015f205f3373ffffffffffffffffffffffffffffffffffffffff1673ffffffffffffffffffffffffffffffffffffffff1681526020019081526020015f206001015f8282546112b29190611a6e565b925050819055508173ffffffffffffffffffffffffffffffffffffffff1663a9059cbb33836040518363ffffffff1660e01b81526004016112f4929190611b4a565b6020604051808303815f875af1158015611310573d5f803e3d5ffd5b505050506040513d601f19601f82011682018060405250810190611334919061190b565b611373576040517f08c379a000000000000000000000000000000000000000000000000000000000815260040161136a90611980565b60405180910390fd5b8173ffffffffffffffffffffffffffffffffffffffff163373ffffffffffffffffffffffffffffffffffffffff167fd1c19fbcd4551a5edfb66d43d2e337c04837afda3482b42bdf569a8fccdae5fb836040516113d091906117bb565b60405180910390a35b5050565b5f42905090565b6113ec61152c565b73ffffffffffffffffffffffffffffffffffffffff1661140a6106d1565b73ffffffffffffffffffffffffffffffffffffffff16146114695761142d61152c565b6040517f118cdaa70000000000000000000000000000000000000000000000000000000081526004016114609190611672565b60405180910390fd5b565b5f805f9054906101000a900473ffffffffffffffffffffffffffffffffffffffff169050815f806101000a81548173ffffffffffffffffffffffffffffffffffffffff021916908373ffffffffffffffffffffffffffffffffffffffff1602179055508173ffffffffffffffffffffffffffffffffffffffff168173ffffffffffffffffffffffffffffffffffffffff167f8be0079c531659141344cd1fd0a4f28419497f9722a3daafe3b4186f6b6457e060405160405180910390a35050565b5f33905090565b5f80fd5b5f73ffffffffffffffffffffffffffffffffffffffff82169050919050565b5f61156082611537565b9050919050565b61157081611556565b811461157a575f80fd5b50565b5f8135905061158b81611567565b92915050565b5f602082840312156115a6576115a5611533565b5b5f6115b38482850161157d565b91505092915050565b5f819050919050565b6115ce816115bc565b82525050565b5f6040820190506115e75f8301856115c5565b6115f460208301846115c5565b9392505050565b611604816115bc565b811461160e575f80fd5b50565b5f8135905061161f816115fb565b92915050565b5f806040838503121561163b5761163a611533565b5b5f6116488582860161157d565b925050602061165985828601611611565b9150509250929050565b61166c81611556565b82525050565b5f6020820190506116855f830184611663565b92915050565b5f80604083850312156116a1576116a0611533565b5b5f6116ae8582860161157d565b92505060206116bf8582860161157d565b9150509250929050565b5f8115159050919050565b6116dd816116c9565b82525050565b5f6020820190506116f65f8301846116d4565b92915050565b5f61170682611537565b9050919050565b611716816116fc565b8114611720575f80fd5b50565b5f813590506117318161170d565b92915050565b5f805f6060848603121561174e5761174d611533565b5b5f61175b8682870161157d565b935050602061176c86828701611723565b925050604061177d86828701611611565b9150509250925092565b5f60ff82169050919050565b61179c81611787565b82525050565b5f6020820190506117b55f830184611793565b92915050565b5f6020820190506117ce5f8301846115c5565b92915050565b7f4e487b71000000000000000000000000000000000000000000000000000000005f52601160045260245ffd5b5f61180b826115bc565b9150611816836115bc565b925082820190508082111561182e5761182d6117d4565b5b92915050565b5f82825260208201905092915050565b7f496e76616c696420746f6b656e000000000000000000000000000000000000005f82015250565b5f611878600d83611834565b915061188382611844565b602082019050919050565b5f6020820190508181035f8301526118a58161186c565b9050919050565b5f6060820190506118bf5f830186611663565b6118cc6020830185611663565b6118d960408301846115c5565b949350505050565b6118ea816116c9565b81146118f4575f80fd5b50565b5f81519050611905816118e1565b92915050565b5f602082840312156119205761191f611533565b5b5f61192d848285016118f7565b91505092915050565b7f5472616e73666572206661696c656400000000000000000000000000000000005f82015250565b5f61196a600f83611834565b915061197582611936565b602082019050919050565b5f6020820190508181035f8301526119978161195e565b9050919050565b7f416d6f756e74206d7573742062652067726561746572207468616e20300000005f82015250565b5f6119d2601d83611834565b91506119dd8261199e565b602082019050919050565b5f6020820190508181035f8301526119ff816119c6565b9050919050565b7f496e73756666696369656e742062616c616e63650000000000000000000000005f82015250565b5f611a3a601483611834565b9150611a4582611a06565b602082019050919050565b5f6020820190508181035f830152611a6781611a2e565b9050919050565b5f611a78826115bc565b9150611a83836115bc565b9250828203905081811115611a9b57611a9a6117d4565b5b92915050565b5f81905092915050565b50565b5f611ab95f83611aa1565b9150611ac482611aab565b5f82019050919050565b5f611ad882611aae565b9150819050919050565b7f455448207769746864726177616c206661696c656400000000000000000000005f82015250565b5f611b16601583611834565b9150611b2182611ae2565b602082019050919050565b5f6020820190508181035f830152611b4381611b0a565b9050919050565b5f604082019050611b5d5f830185611663565b611b6a60208301846115c5565b939250505056fea26469706673582212201fefa135e5771c31d9efd8c9f6cbb782432b4a305629180e18c59ba94c2560a564736f6c634300081a0033",
					"opcodes": "PUSH1 0xC0 PUSH1 0x40 MSTORE CALLVALUE DUP1 ISZERO PUSH2 0xF JUMPI PUSH0 DUP1 REVERT JUMPDEST POP PUSH1 0x40 MLOAD PUSH2 0x2427 CODESIZE SUB DUP1 PUSH2 0x2427 DUP4 CODECOPY DUP2 DUP2 ADD PUSH1 0x40 MSTORE DUP2 ADD SWAP1 PUSH2 0x31 SWAP2 SWAP1 PUSH2 0x662 JUMP JUMPDEST CALLER PUSH0 PUSH20 0xFFFFFFFFFFFFFFFFFFFFFFFFFFFFFFFFFFFFFFFF AND DUP2 PUSH20 0xFFFFFFFFFFFFFFFFFFFFFFFFFFFFFFFFFFFFFFFF AND SUB PUSH2 0xA2 JUMPI PUSH0 PUSH1 0x40 MLOAD PUSH32 0x1E4FBDF700000000000000000000000000000000000000000000000000000000 DUP2 MSTORE PUSH1 0x4 ADD PUSH2 0x99 SWAP2 SWAP1 PUSH2 0x6B8 JUMP JUMPDEST PUSH1 0x40 MLOAD DUP1 SWAP2 SUB SWAP1 REVERT JUMPDEST PUSH2 0xB1 DUP2 PUSH2 0x3DF PUSH1 0x20 SHL PUSH1 0x20 SHR JUMP JUMPDEST POP PUSH0 DUP2 MLOAD GT PUSH2 0xF5 JUMPI PUSH1 0x40 MLOAD PUSH32 0x8C379A000000000000000000000000000000000000000000000000000000000 DUP2 MSTORE PUSH1 0x4 ADD PUSH2 0xEC SWAP1 PUSH2 0x751 JUMP JUMPDEST PUSH1 0x40 MLOAD DUP1 SWAP2 SUB SWAP1 REVERT JUMPDEST PUSH0 JUMPDEST DUP2 MLOAD DUP2 LT ISZERO PUSH2 0x38F JUMPI PUSH1 0x5 PUSH0 DUP4 DUP4 DUP2 MLOAD DUP2 LT PUSH2 0x116 JUMPI PUSH2 0x115 PUSH2 0x76F JUMP JUMPDEST JUMPDEST PUSH1 0x20 MUL PUSH1 0x20 ADD ADD MLOAD PUSH20 0xFFFFFFFFFFFFFFFFFFFFFFFFFFFFFFFFFFFFFFFF AND PUSH20 0xFFFFFFFFFFFFFFFFFFFFFFFFFFFFFFFFFFFFFFFF AND DUP2 MSTORE PUSH1 0x20 ADD SWAP1 DUP2 MSTORE PUSH1 0x20 ADD PUSH0 KECCAK256 PUSH0 SWAP1 SLOAD SWAP1 PUSH2 0x100 EXP SWAP1 DIV PUSH1 0xFF AND ISZERO PUSH2 0x1A4 JUMPI PUSH1 0x40 MLOAD PUSH32 0x8C379A000000000000000000000000000000000000000000000000000000000 DUP2 MSTORE PUSH1 0x4 ADD PUSH2 0x19B SWAP1 PUSH2 0x7E6 JUMP JUMPDEST PUSH1 0x40 MLOAD DUP1 SWAP2 SUB SWAP1 REVERT JUMPDEST PUSH1 0x1 DUP3 DUP3 DUP2 MLOAD DUP2 LT PUSH2 0x1B9 JUMPI PUSH2 0x1B8 PUSH2 0x76F JUMP JUMPDEST JUMPDEST PUSH1 0x20 MUL PUSH1 0x20 ADD ADD MLOAD SWAP1 DUP1 PUSH1 0x1 DUP2 SLOAD ADD DUP1 DUP3 SSTORE DUP1 SWAP2 POP POP PUSH1 0x1 SWAP1 SUB SWAP1 PUSH0 MSTORE PUSH1 0x20 PUSH0 KECCAK256 ADD PUSH0 SWAP1 SWAP2 SWAP1 SWAP2 SWAP1 SWAP2 PUSH2 0x100 EXP DUP2 SLOAD DUP2 PUSH20 0xFFFFFFFFFFFFFFFFFFFFFFFFFFFFFFFFFFFFFFFF MUL NOT AND SWAP1 DUP4 PUSH20 0xFFFFFFFFFFFFFFFFFFFFFFFFFFFFFFFFFFFFFFFF AND MUL OR SWAP1 SSTORE POP DUP2 DUP2 DUP2 MLOAD DUP2 LT PUSH2 0x231 JUMPI PUSH2 0x230 PUSH2 0x76F JUMP JUMPDEST JUMPDEST PUSH1 0x20 MUL PUSH1 0x20 ADD ADD MLOAD PUSH20 0xFFFFFFFFFFFFFFFFFFFFFFFFFFFFFFFFFFFFFFFF AND PUSH4 0x313CE567 PUSH1 0x40 MLOAD DUP2 PUSH4 0xFFFFFFFF AND PUSH1 0xE0 SHL DUP2 MSTORE PUSH1 0x4 ADD PUSH1 0x20 PUSH1 0x40 MLOAD DUP1 DUP4 SUB DUP2 DUP7 GAS STATICCALL ISZERO DUP1 ISZERO PUSH2 0x281 JUMPI RETURNDATASIZE PUSH0 DUP1 RETURNDATACOPY RETURNDATASIZE PUSH0 REVERT JUMPDEST POP POP POP POP PUSH1 0x40 MLOAD RETURNDATASIZE PUSH1 0x1F NOT PUSH1 0x1F DUP3 ADD AND DUP3 ADD DUP1 PUSH1 0x40 MSTORE POP DUP2 ADD SWAP1 PUSH2 0x2A5 SWAP2 SWAP1 PUSH2 0x83A JUMP JUMPDEST PUSH1 0x6 PUSH0 DUP5 DUP5 DUP2 MLOAD DUP2 LT PUSH2 0x2BB JUMPI PUSH2 0x2BA PUSH2 0x76F JUMP JUMPDEST JUMPDEST PUSH1 0x20 MUL PUSH1 0x20 ADD ADD MLOAD PUSH20 0xFFFFFFFFFFFFFFFFFFFFFFFFFFFFFFFFFFFFFFFF AND PUSH20 0xFFFFFFFFFFFFFFFFFFFFFFFFFFFFFFFFFFFFFFFF AND DUP2 MSTORE PUSH1 0x20 ADD SWAP1 DUP2 MSTORE PUSH1 0x20 ADD PUSH0 KECCAK256 PUSH0 PUSH2 0x100 EXP DUP2 SLOAD DUP2 PUSH1 0xFF MUL NOT AND SWAP1 DUP4 PUSH1 0xFF AND MUL OR SWAP1 SSTORE POP PUSH1 0x1 PUSH1 0x5 PUSH0 DUP5 DUP5 DUP2 MLOAD DUP2 LT PUSH2 0x32B JUMPI PUSH2 0x32A PUSH2 0x76F JUMP JUMPDEST JUMPDEST PUSH1 0x20 MUL PUSH1 0x20 ADD ADD MLOAD PUSH20 0xFFFFFFFFFFFFFFFFFFFFFFFFFFFFFFFFFFFFFFFF AND PUSH20 0xFFFFFFFFFFFFFFFFFFFFFFFFFFFFFFFFFFFFFFFF AND DUP2 MSTORE PUSH1 0x20 ADD SWAP1 DUP2 MSTORE PUSH1 0x20 ADD PUSH0 KECCAK256 PUSH0 PUSH2 0x100 EXP DUP2 SLOAD DUP2 PUSH1 0xFF MUL NOT AND SWAP1 DUP4 ISZERO ISZERO MUL OR SWAP1 SSTORE POP DUP1 DUP1 PUSH1 0x1 ADD SWAP2 POP POP PUSH2 0xF7 JUMP JUMPDEST POP CALLER PUSH20 0xFFFFFFFFFFFFFFFFFFFFFFFFFFFFFFFFFFFFFFFF AND PUSH1 0x80 DUP2 PUSH20 0xFFFFFFFFFFFFFFFFFFFFFFFFFFFFFFFFFFFFFFFF AND DUP2 MSTORE POP POP PUSH2 0x3D2 PUSH2 0x4A0 PUSH1 0x20 SHL PUSH1 0x20 SHR JUMP JUMPDEST PUSH1 0xA0 DUP2 DUP2 MSTORE POP POP POP PUSH2 0x865 JUMP JUMPDEST PUSH0 DUP1 PUSH0 SWAP1 SLOAD SWAP1 PUSH2 0x100 EXP SWAP1 DIV PUSH20 0xFFFFFFFFFFFFFFFFFFFFFFFFFFFFFFFFFFFFFFFF AND SWAP1 POP DUP2 PUSH0 DUP1 PUSH2 0x100 EXP DUP2 SLOAD DUP2 PUSH20 0xFFFFFFFFFFFFFFFFFFFFFFFFFFFFFFFFFFFFFFFF MUL NOT AND SWAP1 DUP4 PUSH20 0xFFFFFFFFFFFFFFFFFFFFFFFFFFFFFFFFFFFFFFFF AND MUL OR SWAP1 SSTORE POP DUP2 PUSH20 0xFFFFFFFFFFFFFFFFFFFFFFFFFFFFFFFFFFFFFFFF AND DUP2 PUSH20 0xFFFFFFFFFFFFFFFFFFFFFFFFFFFFFFFFFFFFFFFF AND PUSH32 0x8BE0079C531659141344CD1FD0A4F28419497F9722A3DAAFE3B4186F6B6457E0 PUSH1 0x40 MLOAD PUSH1 0x40 MLOAD DUP1 SWAP2 SUB SWAP1 LOG3 POP POP JUMP JUMPDEST PUSH0 TIMESTAMP SWAP1 POP SWAP1 JUMP JUMPDEST PUSH0 PUSH1 0x40 MLOAD SWAP1 POP SWAP1 JUMP JUMPDEST PUSH0 DUP1 REVERT JUMPDEST PUSH0 DUP1 REVERT JUMPDEST PUSH0 DUP1 REVERT JUMPDEST PUSH0 PUSH1 0x1F NOT PUSH1 0x1F DUP4 ADD AND SWAP1 POP SWAP2 SWAP1 POP JUMP JUMPDEST PUSH32 0x4E487B7100000000000000000000000000000000000000000000000000000000 PUSH0 MSTORE PUSH1 0x41 PUSH1 0x4 MSTORE PUSH1 0x24 PUSH0 REVERT JUMPDEST PUSH2 0x502 DUP3 PUSH2 0x4BC JUMP JUMPDEST DUP2 ADD DUP2 DUP2 LT PUSH8 0xFFFFFFFFFFFFFFFF DUP3 GT OR ISZERO PUSH2 0x521 JUMPI PUSH2 0x520 PUSH2 0x4CC JUMP JUMPDEST JUMPDEST DUP1 PUSH1 0x40 MSTORE POP POP POP JUMP JUMPDEST PUSH0 PUSH2 0x533 PUSH2 0x4A7 JUMP JUMPDEST SWAP1 POP PUSH2 0x53F DUP3 DUP3 PUSH2 0x4F9 JUMP JUMPDEST SWAP2 SWAP1 POP JUMP JUMPDEST PUSH0 PUSH8 0xFFFFFFFFFFFFFFFF DUP3 GT ISZERO PUSH2 0x55E JUMPI PUSH2 0x55D PUSH2 0x4CC JUMP JUMPDEST JUMPDEST PUSH1 0x20 DUP3 MUL SWAP1 POP PUSH1 0x20 DUP2 ADD SWAP1 POP SWAP2 SWAP1 POP JUMP JUMPDEST PUSH0 DUP1 REVERT JUMPDEST PUSH0 PUSH20 0xFFFFFFFFFFFFFFFFFFFFFFFFFFFFFFFFFFFFFFFF DUP3 AND SWAP1 POP SWAP2 SWAP1 POP JUMP JUMPDEST PUSH0 PUSH2 0x59C DUP3 PUSH2 0x573 JUMP JUMPDEST SWAP1 POP SWAP2 SWAP1 POP JUMP JUMPDEST PUSH2 0x5AC DUP2 PUSH2 0x592 JUMP JUMPDEST DUP2 EQ PUSH2 0x5B6 JUMPI PUSH0 DUP1 REVERT JUMPDEST POP JUMP JUMPDEST PUSH0 DUP2 MLOAD SWAP1 POP PUSH2 0x5C7 DUP2 PUSH2 0x5A3 JUMP JUMPDEST SWAP3 SWAP2 POP POP JUMP JUMPDEST PUSH0 PUSH2 0x5DF PUSH2 0x5DA DUP5 PUSH2 0x544 JUMP JUMPDEST PUSH2 0x52A JUMP JUMPDEST SWAP1 POP DUP1 DUP4 DUP3 MSTORE PUSH1 0x20 DUP3 ADD SWAP1 POP PUSH1 0x20 DUP5 MUL DUP4 ADD DUP6 DUP2 GT ISZERO PUSH2 0x602 JUMPI PUSH2 0x601 PUSH2 0x56F JUMP JUMPDEST JUMPDEST DUP4 JUMPDEST DUP2 DUP2 LT ISZERO PUSH2 0x62B JUMPI DUP1 PUSH2 0x617 DUP9 DUP3 PUSH2 0x5B9 JUMP JUMPDEST DUP5 MSTORE PUSH1 0x20 DUP5 ADD SWAP4 POP POP PUSH1 0x20 DUP2 ADD SWAP1 POP PUSH2 0x604 JUMP JUMPDEST POP POP POP SWAP4 SWAP3 POP POP POP JUMP JUMPDEST PUSH0 DUP3 PUSH1 0x1F DUP4 ADD SLT PUSH2 0x649 JUMPI PUSH2 0x648 PUSH2 0x4B8 JUMP JUMPDEST JUMPDEST DUP2 MLOAD PUSH2 0x659 DUP5 DUP3 PUSH1 0x20 DUP7 ADD PUSH2 0x5CD JUMP JUMPDEST SWAP2 POP POP SWAP3 SWAP2 POP POP JUMP JUMPDEST PUSH0 PUSH1 0x20 DUP3 DUP5 SUB SLT ISZERO PUSH2 0x677 JUMPI PUSH2 0x676 PUSH2 0x4B0 JUMP JUMPDEST JUMPDEST PUSH0 DUP3 ADD MLOAD PUSH8 0xFFFFFFFFFFFFFFFF DUP2 GT ISZERO PUSH2 0x694 JUMPI PUSH2 0x693 PUSH2 0x4B4 JUMP JUMPDEST JUMPDEST PUSH2 0x6A0 DUP5 DUP3 DUP6 ADD PUSH2 0x635 JUMP JUMPDEST SWAP2 POP POP SWAP3 SWAP2 POP POP JUMP JUMPDEST PUSH2 0x6B2 DUP2 PUSH2 0x592 JUMP JUMPDEST DUP3 MSTORE POP POP JUMP JUMPDEST PUSH0 PUSH1 0x20 DUP3 ADD SWAP1 POP PUSH2 0x6CB PUSH0 DUP4 ADD DUP5 PUSH2 0x6A9 JUMP JUMPDEST SWAP3 SWAP2 POP POP JUMP JUMPDEST PUSH0 DUP3 DUP3 MSTORE PUSH1 0x20 DUP3 ADD SWAP1 POP SWAP3 SWAP2 POP POP JUMP JUMPDEST PUSH32 0x4174206C65617374206F6E6520746F6B656E2061646472657373207265717569 PUSH0 DUP3 ADD MSTORE PUSH32 0x7265640000000000000000000000000000000000000000000000000000000000 PUSH1 0x20 DUP3 ADD MSTORE POP JUMP JUMPDEST PUSH0 PUSH2 0x73B PUSH1 0x23 DUP4 PUSH2 0x6D1 JUMP JUMPDEST SWAP2 POP PUSH2 0x746 DUP3 PUSH2 0x6E1 JUMP JUMPDEST PUSH1 0x40 DUP3 ADD SWAP1 POP SWAP2 SWAP1 POP JUMP JUMPDEST PUSH0 PUSH1 0x20 DUP3 ADD SWAP1 POP DUP2 DUP2 SUB PUSH0 DUP4 ADD MSTORE PUSH2 0x768 DUP2 PUSH2 0x72F JUMP JUMPDEST SWAP1 POP SWAP2 SWAP1 POP JUMP JUMPDEST PUSH32 0x4E487B7100000000000000000000000000000000000000000000000000000000 PUSH0 MSTORE PUSH1 0x32 PUSH1 0x4 MSTORE PUSH1 0x24 PUSH0 REVERT JUMPDEST PUSH32 0x4475706C696361746520746F6B656E0000000000000000000000000000000000 PUSH0 DUP3 ADD MSTORE POP JUMP JUMPDEST PUSH0 PUSH2 0x7D0 PUSH1 0xF DUP4 PUSH2 0x6D1 JUMP JUMPDEST SWAP2 POP PUSH2 0x7DB DUP3 PUSH2 0x79C JUMP JUMPDEST PUSH1 0x20 DUP3 ADD SWAP1 POP SWAP2 SWAP1 POP JUMP JUMPDEST PUSH0 PUSH1 0x20 DUP3 ADD SWAP1 POP DUP2 DUP2 SUB PUSH0 DUP4 ADD MSTORE PUSH2 0x7FD DUP2 PUSH2 0x7C4 JUMP JUMPDEST SWAP1 POP SWAP2 SWAP1 POP JUMP JUMPDEST PUSH0 PUSH1 0xFF DUP3 AND SWAP1 POP SWAP2 SWAP1 POP JUMP JUMPDEST PUSH2 0x819 DUP2 PUSH2 0x804 JUMP JUMPDEST DUP2 EQ PUSH2 0x823 JUMPI PUSH0 DUP1 REVERT JUMPDEST POP JUMP JUMPDEST PUSH0 DUP2 MLOAD SWAP1 POP PUSH2 0x834 DUP2 PUSH2 0x810 JUMP JUMPDEST SWAP3 SWAP2 POP POP JUMP JUMPDEST PUSH0 PUSH1 0x20 DUP3 DUP5 SUB SLT ISZERO PUSH2 0x84F JUMPI PUSH2 0x84E PUSH2 0x4B0 JUMP JUMPDEST JUMPDEST PUSH0 PUSH2 0x85C DUP5 DUP3 DUP6 ADD PUSH2 0x826 JUMP JUMPDEST SWAP2 POP POP SWAP3 SWAP2 POP POP JUMP JUMPDEST PUSH1 0x80 MLOAD PUSH1 0xA0 MLOAD PUSH2 0x1BA7 PUSH2 0x880 PUSH0 CODECOPY PUSH0 POP POP PUSH0 POP POP PUSH2 0x1BA7 PUSH0 RETURN INVALID PUSH1 0x80 PUSH1 0x40 MSTORE PUSH1 0x4 CALLDATASIZE LT PUSH2 0x9F JUMPI PUSH0 CALLDATALOAD PUSH1 0xE0 SHR DUP1 PUSH4 0x95533F17 GT PUSH2 0x63 JUMPI DUP1 PUSH4 0x95533F17 EQ PUSH2 0x180 JUMPI DUP1 PUSH4 0xBEABACC8 EQ PUSH2 0x1BC JUMPI DUP1 PUSH4 0xD449A832 EQ PUSH2 0x1D8 JUMPI DUP1 PUSH4 0xE1254FBA EQ PUSH2 0x214 JUMPI DUP1 PUSH4 0xF2FDE38B EQ PUSH2 0x250 JUMPI DUP1 PUSH4 0xF3FEF3A3 EQ PUSH2 0x278 JUMPI PUSH2 0xA6 JUMP JUMPDEST DUP1 PUSH4 0x2E9708E4 EQ PUSH2 0xAA JUMPI DUP1 PUSH4 0x47E7EF24 EQ PUSH2 0xE7 JUMPI DUP1 PUSH4 0x715018A6 EQ PUSH2 0x103 JUMPI DUP1 PUSH4 0x8DA5CB5B EQ PUSH2 0x119 JUMPI DUP1 PUSH4 0x8F601F66 EQ PUSH2 0x143 JUMPI PUSH2 0xA6 JUMP JUMPDEST CALLDATASIZE PUSH2 0xA6 JUMPI STOP JUMPDEST PUSH0 DUP1 REVERT JUMPDEST CALLVALUE DUP1 ISZERO PUSH2 0xB5 JUMPI PUSH0 DUP1 REVERT JUMPDEST POP PUSH2 0xD0 PUSH1 0x4 DUP1 CALLDATASIZE SUB DUP2 ADD SWAP1 PUSH2 0xCB SWAP2 SWAP1 PUSH2 0x1591 JUMP JUMPDEST PUSH2 0x2A0 JUMP JUMPDEST PUSH1 0x40 MLOAD PUSH2 0xDE SWAP3 SWAP2 SWAP1 PUSH2 0x15D4 JUMP JUMPDEST PUSH1 0x40 MLOAD DUP1 SWAP2 SUB SWAP1 RETURN JUMPDEST PUSH2 0x101 PUSH1 0x4 DUP1 CALLDATASIZE SUB DUP2 ADD SWAP1 PUSH2 0xFC SWAP2 SWAP1 PUSH2 0x1625 JUMP JUMPDEST PUSH2 0x2C0 JUMP JUMPDEST STOP JUMPDEST CALLVALUE DUP1 ISZERO PUSH2 0x10E JUMPI PUSH0 DUP1 REVERT JUMPDEST POP PUSH2 0x117 PUSH2 0x6BE JUMP JUMPDEST STOP JUMPDEST CALLVALUE DUP1 ISZERO PUSH2 0x124 JUMPI PUSH0 DUP1 REVERT JUMPDEST POP PUSH2 0x12D PUSH2 0x6D1 JUMP JUMPDEST PUSH1 0x40 MLOAD PUSH2 0x13A SWAP2 SWAP1 PUSH2 0x1672 JUMP JUMPDEST PUSH1 0x40 MLOAD DUP1 SWAP2 SUB SWAP1 RETURN JUMPDEST CALLVALUE DUP1 ISZERO PUSH2 0x14E JUMPI PUSH0 DUP1 REVERT JUMPDEST POP PUSH2 0x169 PUSH1 0x4 DUP1 CALLDATASIZE SUB DUP2 ADD SWAP1 PUSH2 0x164 SWAP2 SWAP1 PUSH2 0x168B JUMP JUMPDEST PUSH2 0x6F8 JUMP JUMPDEST PUSH1 0x40 MLOAD PUSH2 0x177 SWAP3 SWAP2 SWAP1 PUSH2 0x15D4 JUMP JUMPDEST PUSH1 0x40 MLOAD DUP1 SWAP2 SUB SWAP1 RETURN JUMPDEST CALLVALUE DUP1 ISZERO PUSH2 0x18B JUMPI PUSH0 DUP1 REVERT JUMPDEST POP PUSH2 0x1A6 PUSH1 0x4 DUP1 CALLDATASIZE SUB DUP2 ADD SWAP1 PUSH2 0x1A1 SWAP2 SWAP1 PUSH2 0x1591 JUMP JUMPDEST PUSH2 0x723 JUMP JUMPDEST PUSH1 0x40 MLOAD PUSH2 0x1B3 SWAP2 SWAP1 PUSH2 0x16E3 JUMP JUMPDEST PUSH1 0x40 MLOAD DUP1 SWAP2 SUB SWAP1 RETURN JUMPDEST PUSH2 0x1D6 PUSH1 0x4 DUP1 CALLDATASIZE SUB DUP2 ADD SWAP1 PUSH2 0x1D1 SWAP2 SWAP1 PUSH2 0x1737 JUMP JUMPDEST PUSH2 0x740 JUMP JUMPDEST STOP JUMPDEST CALLVALUE DUP1 ISZERO PUSH2 0x1E3 JUMPI PUSH0 DUP1 REVERT JUMPDEST POP PUSH2 0x1FE PUSH1 0x4 DUP1 CALLDATASIZE SUB DUP2 ADD SWAP1 PUSH2 0x1F9 SWAP2 SWAP1 PUSH2 0x1591 JUMP JUMPDEST PUSH2 0xC22 JUMP JUMPDEST PUSH1 0x40 MLOAD PUSH2 0x20B SWAP2 SWAP1 PUSH2 0x17A2 JUMP JUMPDEST PUSH1 0x40 MLOAD DUP1 SWAP2 SUB SWAP1 RETURN JUMPDEST CALLVALUE DUP1 ISZERO PUSH2 0x21F JUMPI PUSH0 DUP1 REVERT JUMPDEST POP PUSH2 0x23A PUSH1 0x4 DUP1 CALLDATASIZE SUB DUP2 ADD SWAP1 PUSH2 0x235 SWAP2 SWAP1 PUSH2 0x1591 JUMP JUMPDEST PUSH2 0xC3F JUMP JUMPDEST PUSH1 0x40 MLOAD PUSH2 0x247 SWAP2 SWAP1 PUSH2 0x17BB JUMP JUMPDEST PUSH1 0x40 MLOAD DUP1 SWAP2 SUB SWAP1 RETURN JUMPDEST CALLVALUE DUP1 ISZERO PUSH2 0x25B JUMPI PUSH0 DUP1 REVERT JUMPDEST POP PUSH2 0x276 PUSH1 0x4 DUP1 CALLDATASIZE SUB DUP2 ADD SWAP1 PUSH2 0x271 SWAP2 SWAP1 PUSH2 0x1591 JUMP JUMPDEST PUSH2 0xDC8 JUMP JUMPDEST STOP JUMPDEST CALLVALUE DUP1 ISZERO PUSH2 0x283 JUMPI PUSH0 DUP1 REVERT JUMPDEST POP PUSH2 0x29E PUSH1 0x4 DUP1 CALLDATASIZE SUB DUP2 ADD SWAP1 PUSH2 0x299 SWAP2 SWAP1 PUSH2 0x1625 JUMP JUMPDEST PUSH2 0xE4C JUMP JUMPDEST STOP JUMPDEST PUSH1 0x4 PUSH1 0x20 MSTORE DUP1 PUSH0 MSTORE PUSH1 0x40 PUSH0 KECCAK256 PUSH0 SWAP2 POP SWAP1 POP DUP1 PUSH0 ADD SLOAD SWAP1 DUP1 PUSH1 0x1 ADD SLOAD SWAP1 POP DUP3 JUMP JUMPDEST PUSH0 PUSH20 0xFFFFFFFFFFFFFFFFFFFFFFFFFFFFFFFFFFFFFFFF AND DUP3 PUSH20 0xFFFFFFFFFFFFFFFFFFFFFFFFFFFFFFFFFFFFFFFF AND SUB PUSH2 0x3E7 JUMPI CALLVALUE PUSH1 0x4 PUSH0 CALLER PUSH20 0xFFFFFFFFFFFFFFFFFFFFFFFFFFFFFFFFFFFFFFFF AND PUSH20 0xFFFFFFFFFFFFFFFFFFFFFFFFFFFFFFFFFFFFFFFF AND DUP2 MSTORE PUSH1 0x20 ADD SWAP1 DUP2 MSTORE PUSH1 0x20 ADD PUSH0 KECCAK256 PUSH1 0x1 ADD PUSH0 DUP3 DUP3 SLOAD PUSH2 0x342 SWAP2 SWAP1 PUSH2 0x1801 JUMP JUMPDEST SWAP3 POP POP DUP2 SWAP1 SSTORE POP PUSH2 0x351 PUSH2 0x13DD JUMP JUMPDEST PUSH1 0x4 PUSH0 CALLER PUSH20 0xFFFFFFFFFFFFFFFFFFFFFFFFFFFFFFFFFFFFFFFF AND PUSH20 0xFFFFFFFFFFFFFFFFFFFFFFFFFFFFFFFFFFFFFFFF AND DUP2 MSTORE PUSH1 0x20 ADD SWAP1 DUP2 MSTORE PUSH1 0x20 ADD PUSH0 KECCAK256 PUSH0 ADD DUP2 SWAP1 SSTORE POP CALLER PUSH20 0xFFFFFFFFFFFFFFFFFFFFFFFFFFFFFFFFFFFFFFFF AND PUSH32 0x3BC2CC3DB9BC1FA24AD4420CF0201D4C07698BF5902C10E3E04A05D343E938C7 CALLVALUE PUSH1 0x40 MLOAD PUSH2 0x3DA SWAP2 SWAP1 PUSH2 0x17BB JUMP JUMPDEST PUSH1 0x40 MLOAD DUP1 SWAP2 SUB SWAP1 LOG2 PUSH2 0x6BA JUMP JUMPDEST PUSH1 0x5 PUSH0 DUP4 PUSH20 0xFFFFFFFFFFFFFFFFFFFFFFFFFFFFFFFFFFFFFFFF AND PUSH20 0xFFFFFFFFFFFFFFFFFFFFFFFFFFFFFFFFFFFFFFFF AND DUP2 MSTORE PUSH1 0x20 ADD SWAP1 DUP2 MSTORE PUSH1 0x20 ADD PUSH0 KECCAK256 PUSH0 SWAP1 SLOAD SWAP1 PUSH2 0x100 EXP SWAP1 DIV PUSH1 0xFF AND PUSH2 0x470 JUMPI PUSH1 0x40 MLOAD PUSH32 0x8C379A000000000000000000000000000000000000000000000000000000000 DUP2 MSTORE PUSH1 0x4 ADD PUSH2 0x467 SWAP1 PUSH2 0x188E JUMP JUMPDEST PUSH1 0x40 MLOAD DUP1 SWAP2 SUB SWAP1 REVERT JUMPDEST DUP2 PUSH20 0xFFFFFFFFFFFFFFFFFFFFFFFFFFFFFFFFFFFFFFFF AND PUSH4 0x23B872DD CALLER ADDRESS DUP5 PUSH1 0x40 MLOAD DUP5 PUSH4 0xFFFFFFFF AND PUSH1 0xE0 SHL DUP2 MSTORE PUSH1 0x4 ADD PUSH2 0x4AD SWAP4 SWAP3 SWAP2 SWAP1 PUSH2 0x18AC JUMP JUMPDEST PUSH1 0x20 PUSH1 0x40 MLOAD DUP1 DUP4 SUB DUP2 PUSH0 DUP8 GAS CALL ISZERO DUP1 ISZERO PUSH2 0x4C9 JUMPI RETURNDATASIZE PUSH0 DUP1 RETURNDATACOPY RETURNDATASIZE PUSH0 REVERT JUMPDEST POP POP POP POP PUSH1 0x40 MLOAD RETURNDATASIZE PUSH1 0x1F NOT PUSH1 0x1F DUP3 ADD AND DUP3 ADD DUP1 PUSH1 0x40 MSTORE POP DUP2 ADD SWAP1 PUSH2 0x4ED SWAP2 SWAP1 PUSH2 0x190B JUMP JUMPDEST PUSH2 0x52C JUMPI PUSH1 0x40 MLOAD PUSH32 0x8C379A000000000000000000000000000000000000000000000000000000000 DUP2 MSTORE PUSH1 0x4 ADD PUSH2 0x523 SWAP1 PUSH2 0x1980 JUMP JUMPDEST PUSH1 0x40 MLOAD DUP1 SWAP2 SUB SWAP1 REVERT JUMPDEST DUP1 PUSH1 0x3 PUSH0 DUP5 PUSH20 0xFFFFFFFFFFFFFFFFFFFFFFFFFFFFFFFFFFFFFFFF AND PUSH20 0xFFFFFFFFFFFFFFFFFFFFFFFFFFFFFFFFFFFFFFFF AND DUP2 MSTORE PUSH1 0x20 ADD SWAP1 DUP2 MSTORE PUSH1 0x20 ADD PUSH0 KECCAK256 PUSH0 CALLER PUSH20 0xFFFFFFFFFFFFFFFFFFFFFFFFFFFFFFFFFFFFFFFF AND PUSH20 0xFFFFFFFFFFFFFFFFFFFFFFFFFFFFFFFFFFFFFFFF AND DUP2 MSTORE PUSH1 0x20 ADD SWAP1 DUP2 MSTORE PUSH1 0x20 ADD PUSH0 KECCAK256 PUSH1 0x1 ADD PUSH0 DUP3 DUP3 SLOAD PUSH2 0x5B6 SWAP2 SWAP1 PUSH2 0x1801 JUMP JUMPDEST SWAP3 POP POP DUP2 SWAP1 SSTORE POP PUSH2 0x5C5 PUSH2 0x13DD JUMP JUMPDEST PUSH1 0x3 PUSH0 DUP5 PUSH20 0xFFFFFFFFFFFFFFFFFFFFFFFFFFFFFFFFFFFFFFFF AND PUSH20 0xFFFFFFFFFFFFFFFFFFFFFFFFFFFFFFFFFFFFFFFF AND DUP2 MSTORE PUSH1 0x20 ADD SWAP1 DUP2 MSTORE PUSH1 0x20 ADD PUSH0 KECCAK256 PUSH0 CALLER PUSH20 0xFFFFFFFFFFFFFFFFFFFFFFFFFFFFFFFFFFFFFFFF AND PUSH20 0xFFFFFFFFFFFFFFFFFFFFFFFFFFFFFFFFFFFFFFFF AND DUP2 MSTORE PUSH1 0x20 ADD SWAP1 DUP2 MSTORE PUSH1 0x20 ADD PUSH0 KECCAK256 PUSH0 ADD PUSH0 DUP3 DUP3 SLOAD PUSH2 0x64D SWAP2 SWAP1 PUSH2 0x1801 JUMP JUMPDEST SWAP3 POP POP DUP2 SWAP1 SSTORE POP DUP2 PUSH20 0xFFFFFFFFFFFFFFFFFFFFFFFFFFFFFFFFFFFFFFFF AND CALLER PUSH20 0xFFFFFFFFFFFFFFFFFFFFFFFFFFFFFFFFFFFFFFFF AND PUSH32 0x8752A472E571A816AEA92EEC8DAE9BAF628E840F4929FBCC2D155E6233FF68A7 DUP4 PUSH1 0x40 MLOAD PUSH2 0x6B1 SWAP2 SWAP1 PUSH2 0x17BB JUMP JUMPDEST PUSH1 0x40 MLOAD DUP1 SWAP2 SUB SWAP1 LOG3 JUMPDEST POP POP JUMP JUMPDEST PUSH2 0x6C6 PUSH2 0x13E4 JUMP JUMPDEST PUSH2 0x6CF PUSH0 PUSH2 0x146B JUMP JUMPDEST JUMP JUMPDEST PUSH0 DUP1 PUSH0 SWAP1 SLOAD SWAP1 PUSH2 0x100 EXP SWAP1 DIV PUSH20 0xFFFFFFFFFFFFFFFFFFFFFFFFFFFFFFFFFFFFFFFF AND SWAP1 POP SWAP1 JUMP JUMPDEST PUSH1 0x3 PUSH1 0x20 MSTORE DUP2 PUSH0 MSTORE PUSH1 0x40 PUSH0 KECCAK256 PUSH1 0x20 MSTORE DUP1 PUSH0 MSTORE PUSH1 0x40 PUSH0 KECCAK256 PUSH0 SWAP2 POP SWAP2 POP POP DUP1 PUSH0 ADD SLOAD SWAP1 DUP1 PUSH1 0x1 ADD SLOAD SWAP1 POP DUP3 JUMP JUMPDEST PUSH1 0x5 PUSH1 0x20 MSTORE DUP1 PUSH0 MSTORE PUSH1 0x40 PUSH0 KECCAK256 PUSH0 SWAP2 POP SLOAD SWAP1 PUSH2 0x100 EXP SWAP1 DIV PUSH1 0xFF AND DUP2 JUMP JUMPDEST PUSH0 DUP2 GT PUSH2 0x782 JUMPI PUSH1 0x40 MLOAD PUSH32 0x8C379A000000000000000000000000000000000000000000000000000000000 DUP2 MSTORE PUSH1 0x4 ADD PUSH2 0x779 SWAP1 PUSH2 0x19E8 JUMP JUMPDEST PUSH1 0x40 MLOAD DUP1 SWAP2 SUB SWAP1 REVERT JUMPDEST PUSH0 PUSH20 0xFFFFFFFFFFFFFFFFFFFFFFFFFFFFFFFFFFFFFFFF AND DUP4 PUSH20 0xFFFFFFFFFFFFFFFFFFFFFFFFFFFFFFFFFFFFFFFF AND SUB PUSH2 0x94E JUMPI DUP1 PUSH1 0x4 PUSH0 CALLER PUSH20 0xFFFFFFFFFFFFFFFFFFFFFFFFFFFFFFFFFFFFFFFF AND PUSH20 0xFFFFFFFFFFFFFFFFFFFFFFFFFFFFFFFFFFFFFFFF AND DUP2 MSTORE PUSH1 0x20 ADD SWAP1 DUP2 MSTORE PUSH1 0x20 ADD PUSH0 KECCAK256 PUSH1 0x1 ADD SLOAD LT ISZERO PUSH2 0x838 JUMPI PUSH1 0x40 MLOAD PUSH32 0x8C379A000000000000000000000000000000000000000000000000000000000 DUP2 MSTORE PUSH1 0x4 ADD PUSH2 0x82F SWAP1 PUSH2 0x1A50 JUMP JUMPDEST PUSH1 0x40 MLOAD DUP1 SWAP2 SUB SWAP1 REVERT JUMPDEST DUP1 PUSH1 0x4 PUSH0 CALLER PUSH20 0xFFFFFFFFFFFFFFFFFFFFFFFFFFFFFFFFFFFFFFFF AND PUSH20 0xFFFFFFFFFFFFFFFFFFFFFFFFFFFFFFFFFFFFFFFF AND DUP2 MSTORE PUSH1 0x20 ADD SWAP1 DUP2 MSTORE PUSH1 0x20 ADD PUSH0 KECCAK256 PUSH1 0x1 ADD PUSH0 DUP3 DUP3 SLOAD PUSH2 0x887 SWAP2 SWAP1 PUSH2 0x1A6E JUMP JUMPDEST SWAP3 POP POP DUP2 SWAP1 SSTORE POP DUP1 PUSH1 0x4 PUSH0 DUP5 PUSH20 0xFFFFFFFFFFFFFFFFFFFFFFFFFFFFFFFFFFFFFFFF AND PUSH20 0xFFFFFFFFFFFFFFFFFFFFFFFFFFFFFFFFFFFFFFFF AND DUP2 MSTORE PUSH1 0x20 ADD SWAP1 DUP2 MSTORE PUSH1 0x20 ADD PUSH0 KECCAK256 PUSH1 0x1 ADD PUSH0 DUP3 DUP3 SLOAD PUSH2 0x8DD SWAP2 SWAP1 PUSH2 0x1801 JUMP JUMPDEST SWAP3 POP POP DUP2 SWAP1 SSTORE POP DUP2 PUSH20 0xFFFFFFFFFFFFFFFFFFFFFFFFFFFFFFFFFFFFFFFF AND CALLER PUSH20 0xFFFFFFFFFFFFFFFFFFFFFFFFFFFFFFFFFFFFFFFF AND PUSH32 0x8DEC4E7CFC87ECED5C05EAFA206697292193EDE25A52287BF5FC6CBB0FD84CFA DUP4 PUSH1 0x40 MLOAD PUSH2 0x941 SWAP2 SWAP1 PUSH2 0x17BB JUMP JUMPDEST PUSH1 0x40 MLOAD DUP1 SWAP2 SUB SWAP1 LOG3 PUSH2 0xC1D JUMP JUMPDEST PUSH1 0x5 PUSH0 DUP5 PUSH20 0xFFFFFFFFFFFFFFFFFFFFFFFFFFFFFFFFFFFFFFFF AND PUSH20 0xFFFFFFFFFFFFFFFFFFFFFFFFFFFFFFFFFFFFFFFF AND DUP2 MSTORE PUSH1 0x20 ADD SWAP1 DUP2 MSTORE PUSH1 0x20 ADD PUSH0 KECCAK256 PUSH0 SWAP1 SLOAD SWAP1 PUSH2 0x100 EXP SWAP1 DIV PUSH1 0xFF AND PUSH2 0x9D7 JUMPI PUSH1 0x40 MLOAD PUSH32 0x8C379A000000000000000000000000000000000000000000000000000000000 DUP2 MSTORE PUSH1 0x4 ADD PUSH2 0x9CE SWAP1 PUSH2 0x188E JUMP JUMPDEST PUSH1 0x40 MLOAD DUP1 SWAP2 SUB SWAP1 REVERT JUMPDEST DUP1 PUSH1 0x3 PUSH0 DUP6 PUSH20 0xFFFFFFFFFFFFFFFFFFFFFFFFFFFFFFFFFFFFFFFF AND PUSH20 0xFFFFFFFFFFFFFFFFFFFFFFFFFFFFFFFFFFFFFFFF AND DUP2 MSTORE PUSH1 0x20 ADD SWAP1 DUP2 MSTORE PUSH1 0x20 ADD PUSH0 KECCAK256 PUSH0 CALLER PUSH20 0xFFFFFFFFFFFFFFFFFFFFFFFFFFFFFFFFFFFFFFFF AND PUSH20 0xFFFFFFFFFFFFFFFFFFFFFFFFFFFFFFFFFFFFFFFF AND DUP2 MSTORE PUSH1 0x20 ADD SWAP1 DUP2 MSTORE PUSH1 0x20 ADD PUSH0 KECCAK256 PUSH1 0x1 ADD SLOAD LT ISZERO PUSH2 0xA95 JUMPI PUSH1 0x40 MLOAD PUSH32 0x8C379A000000000000000000000000000000000000000000000000000000000 DUP2 MSTORE PUSH1 0x4 ADD PUSH2 0xA8C SWAP1 PUSH2 0x1A50 JUMP JUMPDEST PUSH1 0x40 MLOAD DUP1 SWAP2 SUB SWAP1 REVERT JUMPDEST DUP1 PUSH1 0x3 PUSH0 DUP6 PUSH20 0xFFFFFFFFFFFFFFFFFFFFFFFFFFFFFFFFFFFFFFFF AND PUSH20 0xFFFFFFFFFFFFFFFFFFFFFFFFFFFFFFFFFFFFFFFF AND DUP2 MSTORE PUSH1 0x20 ADD SWAP1 DUP2 MSTORE PUSH1 0x20 ADD PUSH0 KECCAK256 PUSH0 CALLER PUSH20 0xFFFFFFFFFFFFFFFFFFFFFFFFFFFFFFFFFFFFFFFF AND PUSH20 0xFFFFFFFFFFFFFFFFFFFFFFFFFFFFFFFFFFFFFFFF AND DUP2 MSTORE PUSH1 0x20 ADD SWAP1 DUP2 MSTORE PUSH1 0x20 ADD PUSH0 KECCAK256 PUSH1 0x1 ADD PUSH0 DUP3 DUP3 SLOAD PUSH2 0xB1F SWAP2 SWAP1 PUSH2 0x1A6E JUMP JUMPDEST SWAP3 POP POP DUP2 SWAP1 SSTORE POP DUP1 PUSH1 0x3 PUSH0 DUP6 PUSH20 0xFFFFFFFFFFFFFFFFFFFFFFFFFFFFFFFFFFFFFFFF AND PUSH20 0xFFFFFFFFFFFFFFFFFFFFFFFFFFFFFFFFFFFFFFFF AND DUP2 MSTORE PUSH1 0x20 ADD SWAP1 DUP2 MSTORE PUSH1 0x20 ADD PUSH0 KECCAK256 PUSH0 DUP5 PUSH20 0xFFFFFFFFFFFFFFFFFFFFFFFFFFFFFFFFFFFFFFFF AND PUSH20 0xFFFFFFFFFFFFFFFFFFFFFFFFFFFFFFFFFFFFFFFF AND DUP2 MSTORE PUSH1 0x20 ADD SWAP1 DUP2 MSTORE PUSH1 0x20 ADD PUSH0 KECCAK256 PUSH1 0x1 ADD PUSH0 DUP3 DUP3 SLOAD PUSH2 0xBB0 SWAP2 SWAP1 PUSH2 0x1801 JUMP JUMPDEST SWAP3 POP POP DUP2 SWAP1 SSTORE POP DUP3 PUSH20 0xFFFFFFFFFFFFFFFFFFFFFFFFFFFFFFFFFFFFFFFF AND CALLER PUSH20 0xFFFFFFFFFFFFFFFFFFFFFFFFFFFFFFFFFFFFFFFF AND PUSH32 0x8752A472E571A816AEA92EEC8DAE9BAF628E840F4929FBCC2D155E6233FF68A7 DUP4 PUSH1 0x40 MLOAD PUSH2 0xC14 SWAP2 SWAP1 PUSH2 0x17BB JUMP JUMPDEST PUSH1 0x40 MLOAD DUP1 SWAP2 SUB SWAP1 LOG3 JUMPDEST POP POP POP JUMP JUMPDEST PUSH1 0x6 PUSH1 0x20 MSTORE DUP1 PUSH0 MSTORE PUSH1 0x40 PUSH0 KECCAK256 PUSH0 SWAP2 POP SLOAD SWAP1 PUSH2 0x100 EXP SWAP1 DIV PUSH1 0xFF AND DUP2 JUMP JUMPDEST PUSH0 DUP1 PUSH20 0xFFFFFFFFFFFFFFFFFFFFFFFFFFFFFFFFFFFFFFFF AND DUP3 PUSH20 0xFFFFFFFFFFFFFFFFFFFFFFFFFFFFFFFFFFFFFFFF AND SUB PUSH2 0xCBB JUMPI PUSH1 0x4 PUSH0 CALLER PUSH20 0xFFFFFFFFFFFFFFFFFFFFFFFFFFFFFFFFFFFFFFFF AND PUSH20 0xFFFFFFFFFFFFFFFFFFFFFFFFFFFFFFFFFFFFFFFF AND DUP2 MSTORE PUSH1 0x20 ADD SWAP1 DUP2 MSTORE PUSH1 0x20 ADD PUSH0 KECCAK256 PUSH1 0x1 ADD SLOAD SWAP1 POP PUSH2 0xDC3 JUMP JUMPDEST PUSH1 0x5 PUSH0 DUP4 PUSH20 0xFFFFFFFFFFFFFFFFFFFFFFFFFFFFFFFFFFFFFFFF AND PUSH20 0xFFFFFFFFFFFFFFFFFFFFFFFFFFFFFFFFFFFFFFFF AND DUP2 MSTORE PUSH1 0x20 ADD SWAP1 DUP2 MSTORE PUSH1 0x20 ADD PUSH0 KECCAK256 PUSH0 SWAP1 SLOAD SWAP1 PUSH2 0x100 EXP SWAP1 DIV PUSH1 0xFF AND PUSH2 0xD44 JUMPI PUSH1 0x40 MLOAD PUSH32 0x8C379A000000000000000000000000000000000000000000000000000000000 DUP2 MSTORE PUSH1 0x4 ADD PUSH2 0xD3B SWAP1 PUSH2 0x188E JUMP JUMPDEST PUSH1 0x40 MLOAD DUP1 SWAP2 SUB SWAP1 REVERT JUMPDEST PUSH1 0x3 PUSH0 DUP4 PUSH20 0xFFFFFFFFFFFFFFFFFFFFFFFFFFFFFFFFFFFFFFFF AND PUSH20 0xFFFFFFFFFFFFFFFFFFFFFFFFFFFFFFFFFFFFFFFF AND DUP2 MSTORE PUSH1 0x20 ADD SWAP1 DUP2 MSTORE PUSH1 0x20 ADD PUSH0 KECCAK256 PUSH0 CALLER PUSH20 0xFFFFFFFFFFFFFFFFFFFFFFFFFFFFFFFFFFFFFFFF AND PUSH20 0xFFFFFFFFFFFFFFFFFFFFFFFFFFFFFFFFFFFFFFFF AND DUP2 MSTORE PUSH1 0x20 ADD SWAP1 DUP2 MSTORE PUSH1 0x20 ADD PUSH0 KECCAK256 PUSH1 0x1 ADD SLOAD SWAP1 POP JUMPDEST SWAP2 SWAP1 POP JUMP JUMPDEST PUSH2 0xDD0 PUSH2 0x13E4 JUMP JUMPDEST PUSH0 PUSH20 0xFFFFFFFFFFFFFFFFFFFFFFFFFFFFFFFFFFFFFFFF AND DUP2 PUSH20 0xFFFFFFFFFFFFFFFFFFFFFFFFFFFFFFFFFFFFFFFF AND SUB PUSH2 0xE40 JUMPI PUSH0 PUSH1 0x40 MLOAD PUSH32 0x1E4FBDF700000000000000000000000000000000000000000000000000000000 DUP2 MSTORE PUSH1 0x4 ADD PUSH2 0xE37 SWAP2 SWAP1 PUSH2 0x1672 JUMP JUMPDEST PUSH1 0x40 MLOAD DUP1 SWAP2 SUB SWAP1 REVERT JUMPDEST PUSH2 0xE49 DUP2 PUSH2 0x146B JUMP JUMPDEST POP JUMP JUMPDEST PUSH0 PUSH20 0xFFFFFFFFFFFFFFFFFFFFFFFFFFFFFFFFFFFFFFFF AND DUP3 PUSH20 0xFFFFFFFFFFFFFFFFFFFFFFFFFFFFFFFFFFFFFFFF AND SUB PUSH2 0x10E1 JUMPI PUSH0 DUP2 GT PUSH2 0xEC1 JUMPI PUSH1 0x40 MLOAD PUSH32 0x8C379A000000000000000000000000000000000000000000000000000000000 DUP2 MSTORE PUSH1 0x4 ADD PUSH2 0xEB8 SWAP1 PUSH2 0x19E8 JUMP JUMPDEST PUSH1 0x40 MLOAD DUP1 SWAP2 SUB SWAP1 REVERT JUMPDEST DUP1 PUSH1 0x4 PUSH0 CALLER PUSH20 0xFFFFFFFFFFFFFFFFFFFFFFFFFFFFFFFFFFFFFFFF AND PUSH20 0xFFFFFFFFFFFFFFFFFFFFFFFFFFFFFFFFFFFFFFFF AND DUP2 MSTORE PUSH1 0x20 ADD SWAP1 DUP2 MSTORE PUSH1 0x20 ADD PUSH0 KECCAK256 PUSH1 0x1 ADD SLOAD LT ISZERO PUSH2 0xF44 JUMPI PUSH1 0x40 MLOAD PUSH32 0x8C379A000000000000000000000000000000000000000000000000000000000 DUP2 MSTORE PUSH1 0x4 ADD PUSH2 0xF3B SWAP1 PUSH2 0x1A50 JUMP JUMPDEST PUSH1 0x40 MLOAD DUP1 SWAP2 SUB SWAP1 REVERT JUMPDEST DUP1 PUSH1 0x4 PUSH0 CALLER PUSH20 0xFFFFFFFFFFFFFFFFFFFFFFFFFFFFFFFFFFFFFFFF AND PUSH20 0xFFFFFFFFFFFFFFFFFFFFFFFFFFFFFFFFFFFFFFFF AND DUP2 MSTORE PUSH1 0x20 ADD SWAP1 DUP2 MSTORE PUSH1 0x20 ADD PUSH0 KECCAK256 PUSH1 0x1 ADD PUSH0 DUP3 DUP3 SLOAD PUSH2 0xF93 SWAP2 SWAP1 PUSH2 0x1A6E JUMP JUMPDEST SWAP3 POP POP DUP2 SWAP1 SSTORE POP PUSH2 0xFA2 PUSH2 0x13DD JUMP JUMPDEST PUSH1 0x4 PUSH0 CALLER PUSH20 0xFFFFFFFFFFFFFFFFFFFFFFFFFFFFFFFFFFFFFFFF AND PUSH20 0xFFFFFFFFFFFFFFFFFFFFFFFFFFFFFFFFFFFFFFFF AND DUP2 MSTORE PUSH1 0x20 ADD SWAP1 DUP2 MSTORE PUSH1 0x20 ADD PUSH0 KECCAK256 PUSH0 ADD DUP2 SWAP1 SSTORE POP PUSH0 CALLER PUSH20 0xFFFFFFFFFFFFFFFFFFFFFFFFFFFFFFFFFFFFFFFF AND DUP3 PUSH1 0x40 MLOAD PUSH2 0x100A SWAP1 PUSH2 0x1ACE JUMP JUMPDEST PUSH0 PUSH1 0x40 MLOAD DUP1 DUP4 SUB DUP2 DUP6 DUP8 GAS CALL SWAP3 POP POP POP RETURNDATASIZE DUP1 PUSH0 DUP2 EQ PUSH2 0x1044 JUMPI PUSH1 0x40 MLOAD SWAP2 POP PUSH1 0x1F NOT PUSH1 0x3F RETURNDATASIZE ADD AND DUP3 ADD PUSH1 0x40 MSTORE RETURNDATASIZE DUP3 MSTORE RETURNDATASIZE PUSH0 PUSH1 0x20 DUP5 ADD RETURNDATACOPY PUSH2 0x1049 JUMP JUMPDEST PUSH1 0x60 SWAP2 POP JUMPDEST POP POP SWAP1 POP DUP1 PUSH2 0x108D JUMPI PUSH1 0x40 MLOAD PUSH32 0x8C379A000000000000000000000000000000000000000000000000000000000 DUP2 MSTORE PUSH1 0x4 ADD PUSH2 0x1084 SWAP1 PUSH2 0x1B2C JUMP JUMPDEST PUSH1 0x40 MLOAD DUP1 SWAP2 SUB SWAP1 REVERT JUMPDEST CALLER PUSH20 0xFFFFFFFFFFFFFFFFFFFFFFFFFFFFFFFFFFFFFFFF AND PUSH32 0x94B2DE810873337ED265C5F8CF98C9CFFEFA06B8607F9A2F1FBAEBDFBCFBEF1C DUP4 PUSH1 0x40 MLOAD PUSH2 0x10D3 SWAP2 SWAP1 PUSH2 0x17BB JUMP JUMPDEST PUSH1 0x40 MLOAD DUP1 SWAP2 SUB SWAP1 LOG2 POP PUSH2 0x13D9 JUMP JUMPDEST PUSH1 0x5 PUSH0 DUP4 PUSH20 0xFFFFFFFFFFFFFFFFFFFFFFFFFFFFFFFFFFFFFFFF AND PUSH20 0xFFFFFFFFFFFFFFFFFFFFFFFFFFFFFFFFFFFFFFFF AND DUP2 MSTORE PUSH1 0x20 ADD SWAP1 DUP2 MSTORE PUSH1 0x20 ADD PUSH0 KECCAK256 PUSH0 SWAP1 SLOAD SWAP1 PUSH2 0x100 EXP SWAP1 DIV PUSH1 0xFF AND PUSH2 0x116A JUMPI PUSH1 0x40 MLOAD PUSH32 0x8C379A000000000000000000000000000000000000000000000000000000000 DUP2 MSTORE PUSH1 0x4 ADD PUSH2 0x1161 SWAP1 PUSH2 0x188E JUMP JUMPDEST PUSH1 0x40 MLOAD DUP1 SWAP2 SUB SWAP1 REVERT JUMPDEST DUP1 PUSH1 0x3 PUSH0 DUP5 PUSH20 0xFFFFFFFFFFFFFFFFFFFFFFFFFFFFFFFFFFFFFFFF AND PUSH20 0xFFFFFFFFFFFFFFFFFFFFFFFFFFFFFFFFFFFFFFFF AND DUP2 MSTORE PUSH1 0x20 ADD SWAP1 DUP2 MSTORE PUSH1 0x20 ADD PUSH0 KECCAK256 PUSH0 CALLER PUSH20 0xFFFFFFFFFFFFFFFFFFFFFFFFFFFFFFFFFFFFFFFF AND PUSH20 0xFFFFFFFFFFFFFFFFFFFFFFFFFFFFFFFFFFFFFFFF AND DUP2 MSTORE PUSH1 0x20 ADD SWAP1 DUP2 MSTORE PUSH1 0x20 ADD PUSH0 KECCAK256 PUSH1 0x1 ADD SLOAD LT ISZERO PUSH2 0x1228 JUMPI PUSH1 0x40 MLOAD PUSH32 0x8C379A000000000000000000000000000000000000000000000000000000000 DUP2 MSTORE PUSH1 0x4 ADD PUSH2 0x121F SWAP1 PUSH2 0x1A50 JUMP JUMPDEST PUSH1 0x40 MLOAD DUP1 SWAP2 SUB SWAP1 REVERT JUMPDEST DUP1 PUSH1 0x3 PUSH0 DUP5 PUSH20 0xFFFFFFFFFFFFFFFFFFFFFFFFFFFFFFFFFFFFFFFF AND PUSH20 0xFFFFFFFFFFFFFFFFFFFFFFFFFFFFFFFFFFFFFFFF AND DUP2 MSTORE PUSH1 0x20 ADD SWAP1 DUP2 MSTORE PUSH1 0x20 ADD PUSH0 KECCAK256 PUSH0 CALLER PUSH20 0xFFFFFFFFFFFFFFFFFFFFFFFFFFFFFFFFFFFFFFFF AND PUSH20 0xFFFFFFFFFFFFFFFFFFFFFFFFFFFFFFFFFFFFFFFF AND DUP2 MSTORE PUSH1 0x20 ADD SWAP1 DUP2 MSTORE PUSH1 0x20 ADD PUSH0 KECCAK256 PUSH1 0x1 ADD PUSH0 DUP3 DUP3 SLOAD PUSH2 0x12B2 SWAP2 SWAP1 PUSH2 0x1A6E JUMP JUMPDEST SWAP3 POP POP DUP2 SWAP1 SSTORE POP DUP2 PUSH20 0xFFFFFFFFFFFFFFFFFFFFFFFFFFFFFFFFFFFFFFFF AND PUSH4 0xA9059CBB CALLER DUP4 PUSH1 0x40 MLOAD DUP4 PUSH4 0xFFFFFFFF AND PUSH1 0xE0 SHL DUP2 MSTORE PUSH1 0x4 ADD PUSH2 0x12F4 SWAP3 SWAP2 SWAP1 PUSH2 0x1B4A JUMP JUMPDEST PUSH1 0x20 PUSH1 0x40 MLOAD DUP1 DUP4 SUB DUP2 PUSH0 DUP8 GAS CALL ISZERO DUP1 ISZERO PUSH2 0x1310 JUMPI RETURNDATASIZE PUSH0 DUP1 RETURNDATACOPY RETURNDATASIZE PUSH0 REVERT JUMPDEST POP POP POP POP PUSH1 0x40 MLOAD RETURNDATASIZE PUSH1 0x1F NOT PUSH1 0x1F DUP3 ADD AND DUP3 ADD DUP1 PUSH1 0x40 MSTORE POP DUP2 ADD SWAP1 PUSH2 0x1334 SWAP2 SWAP1 PUSH2 0x190B JUMP JUMPDEST PUSH2 0x1373 JUMPI PUSH1 0x40 MLOAD PUSH32 0x8C379A000000000000000000000000000000000000000000000000000000000 DUP2 MSTORE PUSH1 0x4 ADD PUSH2 0x136A SWAP1 PUSH2 0x1980 JUMP JUMPDEST PUSH1 0x40 MLOAD DUP1 SWAP2 SUB SWAP1 REVERT JUMPDEST DUP2 PUSH20 0xFFFFFFFFFFFFFFFFFFFFFFFFFFFFFFFFFFFFFFFF AND CALLER PUSH20 0xFFFFFFFFFFFFFFFFFFFFFFFFFFFFFFFFFFFFFFFF AND PUSH32 0xD1C19FBCD4551A5EDFB66D43D2E337C04837AFDA3482B42BDF569A8FCCDAE5FB DUP4 PUSH1 0x40 MLOAD PUSH2 0x13D0 SWAP2 SWAP1 PUSH2 0x17BB JUMP JUMPDEST PUSH1 0x40 MLOAD DUP1 SWAP2 SUB SWAP1 LOG3 JUMPDEST POP POP JUMP JUMPDEST PUSH0 TIMESTAMP SWAP1 POP SWAP1 JUMP JUMPDEST PUSH2 0x13EC PUSH2 0x152C JUMP JUMPDEST PUSH20 0xFFFFFFFFFFFFFFFFFFFFFFFFFFFFFFFFFFFFFFFF AND PUSH2 0x140A PUSH2 0x6D1 JUMP JUMPDEST PUSH20 0xFFFFFFFFFFFFFFFFFFFFFFFFFFFFFFFFFFFFFFFF AND EQ PUSH2 0x1469 JUMPI PUSH2 0x142D PUSH2 0x152C JUMP JUMPDEST PUSH1 0x40 MLOAD PUSH32 0x118CDAA700000000000000000000000000000000000000000000000000000000 DUP2 MSTORE PUSH1 0x4 ADD PUSH2 0x1460 SWAP2 SWAP1 PUSH2 0x1672 JUMP JUMPDEST PUSH1 0x40 MLOAD DUP1 SWAP2 SUB SWAP1 REVERT JUMPDEST JUMP JUMPDEST PUSH0 DUP1 PUSH0 SWAP1 SLOAD SWAP1 PUSH2 0x100 EXP SWAP1 DIV PUSH20 0xFFFFFFFFFFFFFFFFFFFFFFFFFFFFFFFFFFFFFFFF AND SWAP1 POP DUP2 PUSH0 DUP1 PUSH2 0x100 EXP DUP2 SLOAD DUP2 PUSH20 0xFFFFFFFFFFFFFFFFFFFFFFFFFFFFFFFFFFFFFFFF MUL NOT AND SWAP1 DUP4 PUSH20 0xFFFFFFFFFFFFFFFFFFFFFFFFFFFFFFFFFFFFFFFF AND MUL OR SWAP1 SSTORE POP DUP2 PUSH20 0xFFFFFFFFFFFFFFFFFFFFFFFFFFFFFFFFFFFFFFFF AND DUP2 PUSH20 0xFFFFFFFFFFFFFFFFFFFFFFFFFFFFFFFFFFFFFFFF AND PUSH32 0x8BE0079C531659141344CD1FD0A4F28419497F9722A3DAAFE3B4186F6B6457E0 PUSH1 0x40 MLOAD PUSH1 0x40 MLOAD DUP1 SWAP2 SUB SWAP1 LOG3 POP POP JUMP JUMPDEST PUSH0 CALLER SWAP1 POP SWAP1 JUMP JUMPDEST PUSH0 DUP1 REVERT JUMPDEST PUSH0 PUSH20 0xFFFFFFFFFFFFFFFFFFFFFFFFFFFFFFFFFFFFFFFF DUP3 AND SWAP1 POP SWAP2 SWAP1 POP JUMP JUMPDEST PUSH0 PUSH2 0x1560 DUP3 PUSH2 0x1537 JUMP JUMPDEST SWAP1 POP SWAP2 SWAP1 POP JUMP JUMPDEST PUSH2 0x1570 DUP2 PUSH2 0x1556 JUMP JUMPDEST DUP2 EQ PUSH2 0x157A JUMPI PUSH0 DUP1 REVERT JUMPDEST POP JUMP JUMPDEST PUSH0 DUP2 CALLDATALOAD SWAP1 POP PUSH2 0x158B DUP2 PUSH2 0x1567 JUMP JUMPDEST SWAP3 SWAP2 POP POP JUMP JUMPDEST PUSH0 PUSH1 0x20 DUP3 DUP5 SUB SLT ISZERO PUSH2 0x15A6 JUMPI PUSH2 0x15A5 PUSH2 0x1533 JUMP JUMPDEST JUMPDEST PUSH0 PUSH2 0x15B3 DUP5 DUP3 DUP6 ADD PUSH2 0x157D JUMP JUMPDEST SWAP2 POP POP SWAP3 SWAP2 POP POP JUMP JUMPDEST PUSH0 DUP2 SWAP1 POP SWAP2 SWAP1 POP JUMP JUMPDEST PUSH2 0x15CE DUP2 PUSH2 0x15BC JUMP JUMPDEST DUP3 MSTORE POP POP JUMP JUMPDEST PUSH0 PUSH1 0x40 DUP3 ADD SWAP1 POP PUSH2 0x15E7 PUSH0 DUP4 ADD DUP6 PUSH2 0x15C5 JUMP JUMPDEST PUSH2 0x15F4 PUSH1 0x20 DUP4 ADD DUP5 PUSH2 0x15C5 JUMP JUMPDEST SWAP4 SWAP3 POP POP POP JUMP JUMPDEST PUSH2 0x1604 DUP2 PUSH2 0x15BC JUMP JUMPDEST DUP2 EQ PUSH2 0x160E JUMPI PUSH0 DUP1 REVERT JUMPDEST POP JUMP JUMPDEST PUSH0 DUP2 CALLDATALOAD SWAP1 POP PUSH2 0x161F DUP2 PUSH2 0x15FB JUMP JUMPDEST SWAP3 SWAP2 POP POP JUMP JUMPDEST PUSH0 DUP1 PUSH1 0x40 DUP4 DUP6 SUB SLT ISZERO PUSH2 0x163B JUMPI PUSH2 0x163A PUSH2 0x1533 JUMP JUMPDEST JUMPDEST PUSH0 PUSH2 0x1648 DUP6 DUP3 DUP7 ADD PUSH2 0x157D JUMP JUMPDEST SWAP3 POP POP PUSH1 0x20 PUSH2 0x1659 DUP6 DUP3 DUP7 ADD PUSH2 0x1611 JUMP JUMPDEST SWAP2 POP POP SWAP3 POP SWAP3 SWAP1 POP JUMP JUMPDEST PUSH2 0x166C DUP2 PUSH2 0x1556 JUMP JUMPDEST DUP3 MSTORE POP POP JUMP JUMPDEST PUSH0 PUSH1 0x20 DUP3 ADD SWAP1 POP PUSH2 0x1685 PUSH0 DUP4 ADD DUP5 PUSH2 0x1663 JUMP JUMPDEST SWAP3 SWAP2 POP POP JUMP JUMPDEST PUSH0 DUP1 PUSH1 0x40 DUP4 DUP6 SUB SLT ISZERO PUSH2 0x16A1 JUMPI PUSH2 0x16A0 PUSH2 0x1533 JUMP JUMPDEST JUMPDEST PUSH0 PUSH2 0x16AE DUP6 DUP3 DUP7 ADD PUSH2 0x157D JUMP JUMPDEST SWAP3 POP POP PUSH1 0x20 PUSH2 0x16BF DUP6 DUP3 DUP7 ADD PUSH2 0x157D JUMP JUMPDEST SWAP2 POP POP SWAP3 POP SWAP3 SWAP1 POP JUMP JUMPDEST PUSH0 DUP2 ISZERO ISZERO SWAP1 POP SWAP2 SWAP1 POP JUMP JUMPDEST PUSH2 0x16DD DUP2 PUSH2 0x16C9 JUMP JUMPDEST DUP3 MSTORE POP POP JUMP JUMPDEST PUSH0 PUSH1 0x20 DUP3 ADD SWAP1 POP PUSH2 0x16F6 PUSH0 DUP4 ADD DUP5 PUSH2 0x16D4 JUMP JUMPDEST SWAP3 SWAP2 POP POP JUMP JUMPDEST PUSH0 PUSH2 0x1706 DUP3 PUSH2 0x1537 JUMP JUMPDEST SWAP1 POP SWAP2 SWAP1 POP JUMP JUMPDEST PUSH2 0x1716 DUP2 PUSH2 0x16FC JUMP JUMPDEST DUP2 EQ PUSH2 0x1720 JUMPI PUSH0 DUP1 REVERT JUMPDEST POP JUMP JUMPDEST PUSH0 DUP2 CALLDATALOAD SWAP1 POP PUSH2 0x1731 DUP2 PUSH2 0x170D JUMP JUMPDEST SWAP3 SWAP2 POP POP JUMP JUMPDEST PUSH0 DUP1 PUSH0 PUSH1 0x60 DUP5 DUP7 SUB SLT ISZERO PUSH2 0x174E JUMPI PUSH2 0x174D PUSH2 0x1533 JUMP JUMPDEST JUMPDEST PUSH0 PUSH2 0x175B DUP7 DUP3 DUP8 ADD PUSH2 0x157D JUMP JUMPDEST SWAP4 POP POP PUSH1 0x20 PUSH2 0x176C DUP7 DUP3 DUP8 ADD PUSH2 0x1723 JUMP JUMPDEST SWAP3 POP POP PUSH1 0x40 PUSH2 0x177D DUP7 DUP3 DUP8 ADD PUSH2 0x1611 JUMP JUMPDEST SWAP2 POP POP SWAP3 POP SWAP3 POP SWAP3 JUMP JUMPDEST PUSH0 PUSH1 0xFF DUP3 AND SWAP1 POP SWAP2 SWAP1 POP JUMP JUMPDEST PUSH2 0x179C DUP2 PUSH2 0x1787 JUMP JUMPDEST DUP3 MSTORE POP POP JUMP JUMPDEST PUSH0 PUSH1 0x20 DUP3 ADD SWAP1 POP PUSH2 0x17B5 PUSH0 DUP4 ADD DUP5 PUSH2 0x1793 JUMP JUMPDEST SWAP3 SWAP2 POP POP JUMP JUMPDEST PUSH0 PUSH1 0x20 DUP3 ADD SWAP1 POP PUSH2 0x17CE PUSH0 DUP4 ADD DUP5 PUSH2 0x15C5 JUMP JUMPDEST SWAP3 SWAP2 POP POP JUMP JUMPDEST PUSH32 0x4E487B7100000000000000000000000000000000000000000000000000000000 PUSH0 MSTORE PUSH1 0x11 PUSH1 0x4 MSTORE PUSH1 0x24 PUSH0 REVERT JUMPDEST PUSH0 PUSH2 0x180B DUP3 PUSH2 0x15BC JUMP JUMPDEST SWAP2 POP PUSH2 0x1816 DUP4 PUSH2 0x15BC JUMP JUMPDEST SWAP3 POP DUP3 DUP3 ADD SWAP1 POP DUP1 DUP3 GT ISZERO PUSH2 0x182E JUMPI PUSH2 0x182D PUSH2 0x17D4 JUMP JUMPDEST JUMPDEST SWAP3 SWAP2 POP POP JUMP JUMPDEST PUSH0 DUP3 DUP3 MSTORE PUSH1 0x20 DUP3 ADD SWAP1 POP SWAP3 SWAP2 POP POP JUMP JUMPDEST PUSH32 0x496E76616C696420746F6B656E00000000000000000000000000000000000000 PUSH0 DUP3 ADD MSTORE POP JUMP JUMPDEST PUSH0 PUSH2 0x1878 PUSH1 0xD DUP4 PUSH2 0x1834 JUMP JUMPDEST SWAP2 POP PUSH2 0x1883 DUP3 PUSH2 0x1844 JUMP JUMPDEST PUSH1 0x20 DUP3 ADD SWAP1 POP SWAP2 SWAP1 POP JUMP JUMPDEST PUSH0 PUSH1 0x20 DUP3 ADD SWAP1 POP DUP2 DUP2 SUB PUSH0 DUP4 ADD MSTORE PUSH2 0x18A5 DUP2 PUSH2 0x186C JUMP JUMPDEST SWAP1 POP SWAP2 SWAP1 POP JUMP JUMPDEST PUSH0 PUSH1 0x60 DUP3 ADD SWAP1 POP PUSH2 0x18BF PUSH0 DUP4 ADD DUP7 PUSH2 0x1663 JUMP JUMPDEST PUSH2 0x18CC PUSH1 0x20 DUP4 ADD DUP6 PUSH2 0x1663 JUMP JUMPDEST PUSH2 0x18D9 PUSH1 0x40 DUP4 ADD DUP5 PUSH2 0x15C5 JUMP JUMPDEST SWAP5 SWAP4 POP POP POP POP JUMP JUMPDEST PUSH2 0x18EA DUP2 PUSH2 0x16C9 JUMP JUMPDEST DUP2 EQ PUSH2 0x18F4 JUMPI PUSH0 DUP1 REVERT JUMPDEST POP JUMP JUMPDEST PUSH0 DUP2 MLOAD SWAP1 POP PUSH2 0x1905 DUP2 PUSH2 0x18E1 JUMP JUMPDEST SWAP3 SWAP2 POP POP JUMP JUMPDEST PUSH0 PUSH1 0x20 DUP3 DUP5 SUB SLT ISZERO PUSH2 0x1920 JUMPI PUSH2 0x191F PUSH2 0x1533 JUMP JUMPDEST JUMPDEST PUSH0 PUSH2 0x192D DUP5 DUP3 DUP6 ADD PUSH2 0x18F7 JUMP JUMPDEST SWAP2 POP POP SWAP3 SWAP2 POP POP JUMP JUMPDEST PUSH32 0x5472616E73666572206661696C65640000000000000000000000000000000000 PUSH0 DUP3 ADD MSTORE POP JUMP JUMPDEST PUSH0 PUSH2 0x196A PUSH1 0xF DUP4 PUSH2 0x1834 JUMP JUMPDEST SWAP2 POP PUSH2 0x1975 DUP3 PUSH2 0x1936 JUMP JUMPDEST PUSH1 0x20 DUP3 ADD SWAP1 POP SWAP2 SWAP1 POP JUMP JUMPDEST PUSH0 PUSH1 0x20 DUP3 ADD SWAP1 POP DUP2 DUP2 SUB PUSH0 DUP4 ADD MSTORE PUSH2 0x1997 DUP2 PUSH2 0x195E JUMP JUMPDEST SWAP1 POP SWAP2 SWAP1 POP JUMP JUMPDEST PUSH32 0x416D6F756E74206D7573742062652067726561746572207468616E2030000000 PUSH0 DUP3 ADD MSTORE POP JUMP JUMPDEST PUSH0 PUSH2 0x19D2 PUSH1 0x1D DUP4 PUSH2 0x1834 JUMP JUMPDEST SWAP2 POP PUSH2 0x19DD DUP3 PUSH2 0x199E JUMP JUMPDEST PUSH1 0x20 DUP3 ADD SWAP1 POP SWAP2 SWAP1 POP JUMP JUMPDEST PUSH0 PUSH1 0x20 DUP3 ADD SWAP1 POP DUP2 DUP2 SUB PUSH0 DUP4 ADD MSTORE PUSH2 0x19FF DUP2 PUSH2 0x19C6 JUMP JUMPDEST SWAP1 POP SWAP2 SWAP1 POP JUMP JUMPDEST PUSH32 0x496E73756666696369656E742062616C616E6365000000000000000000000000 PUSH0 DUP3 ADD MSTORE POP JUMP JUMPDEST PUSH0 PUSH2 0x1A3A PUSH1 0x14 DUP4 PUSH2 0x1834 JUMP JUMPDEST SWAP2 POP PUSH2 0x1A45 DUP3 PUSH2 0x1A06 JUMP JUMPDEST PUSH1 0x20 DUP3 ADD SWAP1 POP SWAP2 SWAP1 POP JUMP JUMPDEST PUSH0 PUSH1 0x20 DUP3 ADD SWAP1 POP DUP2 DUP2 SUB PUSH0 DUP4 ADD MSTORE PUSH2 0x1A67 DUP2 PUSH2 0x1A2E JUMP JUMPDEST SWAP1 POP SWAP2 SWAP1 POP JUMP JUMPDEST PUSH0 PUSH2 0x1A78 DUP3 PUSH2 0x15BC JUMP JUMPDEST SWAP2 POP PUSH2 0x1A83 DUP4 PUSH2 0x15BC JUMP JUMPDEST SWAP3 POP DUP3 DUP3 SUB SWAP1 POP DUP2 DUP2 GT ISZERO PUSH2 0x1A9B JUMPI PUSH2 0x1A9A PUSH2 0x17D4 JUMP JUMPDEST JUMPDEST SWAP3 SWAP2 POP POP JUMP JUMPDEST PUSH0 DUP2 SWAP1 POP SWAP3 SWAP2 POP POP JUMP JUMPDEST POP JUMP JUMPDEST PUSH0 PUSH2 0x1AB9 PUSH0 DUP4 PUSH2 0x1AA1 JUMP JUMPDEST SWAP2 POP PUSH2 0x1AC4 DUP3 PUSH2 0x1AAB JUMP JUMPDEST PUSH0 DUP3 ADD SWAP1 POP SWAP2 SWAP1 POP JUMP JUMPDEST PUSH0 PUSH2 0x1AD8 DUP3 PUSH2 0x1AAE JUMP JUMPDEST SWAP2 POP DUP2 SWAP1 POP SWAP2 SWAP1 POP JUMP JUMPDEST PUSH32 0x455448207769746864726177616C206661696C65640000000000000000000000 PUSH0 DUP3 ADD MSTORE POP JUMP JUMPDEST PUSH0 PUSH2 0x1B16 PUSH1 0x15 DUP4 PUSH2 0x1834 JUMP JUMPDEST SWAP2 POP PUSH2 0x1B21 DUP3 PUSH2 0x1AE2 JUMP JUMPDEST PUSH1 0x20 DUP3 ADD SWAP1 POP SWAP2 SWAP1 POP JUMP JUMPDEST PUSH0 PUSH1 0x20 DUP3 ADD SWAP1 POP DUP2 DUP2 SUB PUSH0 DUP4 ADD MSTORE PUSH2 0x1B43 DUP2 PUSH2 0x1B0A JUMP JUMPDEST SWAP1 POP SWAP2 SWAP1 POP JUMP JUMPDEST PUSH0 PUSH1 0x40 DUP3 ADD SWAP1 POP PUSH2 0x1B5D PUSH0 DUP4 ADD DUP6 PUSH2 0x1663 JUMP JUMPDEST PUSH2 0x1B6A PUSH1 0x20 DUP4 ADD DUP5 PUSH2 0x15C5 JUMP JUMPDEST SWAP4 SWAP3 POP POP POP JUMP INVALID LOG2 PUSH5 0x6970667358 0x22 SLT KECCAK256 0x1F 0xEF LOG1 CALLDATALOAD 0xE5 PUSH24 0x1C31D9EFD8C9F6CBB782432B4A305629180E18C59BA94C25 PUSH1 0xA5 PUSH5 0x736F6C6343 STOP ADDMOD BYTE STOP CALLER "
				},
				"gasEstimates": {
					"creation": {
						"codeDepositCost": "1415800",
						"executionCost": "infinite",
						"totalCost": "infinite"
					},
					"external": {
						"decimals(address)": "2877",
						"deposit(address,uint256)": "infinite",
						"deposits(address,address)": "infinite",
						"eth_deposits(address)": "infinite",
						"getDeposit(address)": "5264",
						"isTokenInList(address)": "2833",
						"owner()": "2582",
						"renounceOwnership()": "infinite",
						"transfer(address,address,uint256)": "infinite",
						"transferOwnership(address)": "infinite",
						"withdraw(address,uint256)": "infinite"
					},
					"internal": {
						"getCurrentTimeView()": "21"
					}
				},
				"methodIdentifiers": {
					"decimals(address)": "d449a832",
					"deposit(address,uint256)": "47e7ef24",
					"deposits(address,address)": "8f601f66",
					"eth_deposits(address)": "2e9708e4",
					"getDeposit(address)": "e1254fba",
					"isTokenInList(address)": "95533f17",
					"owner()": "8da5cb5b",
					"renounceOwnership()": "715018a6",
					"transfer(address,address,uint256)": "beabacc8",
					"transferOwnership(address)": "f2fde38b",
					"withdraw(address,uint256)": "f3fef3a3"
				}
			},
			"storageLayout": {
				"storage": [
					{
						"astId": 8,
						"contract": "contracts/Bank.sol:Bank",
						"label": "_owner",
						"offset": 0,
						"slot": "0",
						"type": "t_address"
					},
					{
						"astId": 291,
						"contract": "contracts/Bank.sol:Bank",
						"label": "tokens",
						"offset": 0,
						"slot": "1",
						"type": "t_array(t_address)dyn_storage"
					},
					{
						"astId": 294,
						"contract": "contracts/Bank.sol:Bank",
						"label": "depositUsers",
						"offset": 0,
						"slot": "2",
						"type": "t_array(t_address)dyn_storage"
					},
					{
						"astId": 310,
						"contract": "contracts/Bank.sol:Bank",
						"label": "deposits",
						"offset": 0,
						"slot": "3",
						"type": "t_mapping(t_address,t_mapping(t_address,t_struct(Deposit)303_storage))"
					},
					{
						"astId": 315,
						"contract": "contracts/Bank.sol:Bank",
						"label": "eth_deposits",
						"offset": 0,
						"slot": "4",
						"type": "t_mapping(t_address,t_struct(Deposit)303_storage)"
					},
					{
						"astId": 319,
						"contract": "contracts/Bank.sol:Bank",
						"label": "isTokenInList",
						"offset": 0,
						"slot": "5",
						"type": "t_mapping(t_address,t_bool)"
					},
					{
						"astId": 323,
						"contract": "contracts/Bank.sol:Bank",
						"label": "decimals",
						"offset": 0,
						"slot": "6",
						"type": "t_mapping(t_address,t_uint8)"
					}
				],
				"types": {
					"t_address": {
						"encoding": "inplace",
						"label": "address",
						"numberOfBytes": "20"
					},
					"t_array(t_address)dyn_storage": {
						"base": "t_address",
						"encoding": "dynamic_array",
						"label": "address[]",
						"numberOfBytes": "32"
					},
					"t_bool": {
						"encoding": "inplace",
						"label": "bool",
						"numberOfBytes": "1"
					},
					"t_mapping(t_address,t_bool)": {
						"encoding": "mapping",
						"key": "t_address",
						"label": "mapping(address => bool)",
						"numberOfBytes": "32",
						"value": "t_bool"
					},
					"t_mapping(t_address,t_mapping(t_address,t_struct(Deposit)303_storage))": {
						"encoding": "mapping",
						"key": "t_address",
						"label": "mapping(address => mapping(address => struct Bank.Deposit))",
						"numberOfBytes": "32",
						"value": "t_mapping(t_address,t_struct(Deposit)303_storage)"
					},
					"t_mapping(t_address,t_struct(Deposit)303_storage)": {
						"encoding": "mapping",
						"key": "t_address",
						"label": "mapping(address => struct Bank.Deposit)",
						"numberOfBytes": "32",
						"value": "t_struct(Deposit)303_storage"
					},
					"t_mapping(t_address,t_uint8)": {
						"encoding": "mapping",
						"key": "t_address",
						"label": "mapping(address => uint8)",
						"numberOfBytes": "32",
						"value": "t_uint8"
					},
					"t_struct(Deposit)303_storage": {
						"encoding": "inplace",
						"label": "struct Bank.Deposit",
						"members": [
							{
								"astId": 300,
								"contract": "contracts/Bank.sol:Bank",
								"label": "time",
								"offset": 0,
								"slot": "0",
								"type": "t_uint256"
							},
							{
								"astId": 302,
								"contract": "contracts/Bank.sol:Bank",
								"label": "amount",
								"offset": 0,
								"slot": "1",
								"type": "t_uint256"
							}
						],
						"numberOfBytes": "64"
					},
					"t_uint256": {
						"encoding": "inplace",
						"label": "uint256",
						"numberOfBytes": "32"
					},
					"t_uint8": {
						"encoding": "inplace",
						"label": "uint8",
						"numberOfBytes": "1"
					}
				}
			},
			"userdoc": {
				"kind": "user",
				"methods": {
					"deposit(address,uint256)": {
						"notice": "存入 ETH 或 Token"
					},
					"getDeposit(address)": {
						"notice": "查询存款余额"
					},
					"transfer(address,address,uint256)": {
						"notice": "转账 ETH 或 Token"
					},
					"withdraw(address,uint256)": {
						"notice": "取出 ETH 或 Token"
					}
				},
				"version": 1
			}
		}
	}
}