{
	"contracts/Bank.sol": {
		"Bank": {
			"abi": [
				{
					"inputs": [
						{
							"internalType": "address[]",
							"name": "_tokens",
							"type": "address[]"
						}
					],
					"stateMutability": "nonpayable",
					"type": "constructor"
				},
				{
					"inputs": [
						{
							"internalType": "address",
							"name": "owner",
							"type": "address"
						}
					],
					"name": "OwnableInvalidOwner",
					"type": "error"
				},
				{
					"inputs": [
						{
							"internalType": "address",
							"name": "account",
							"type": "address"
						}
					],
					"name": "OwnableUnauthorizedAccount",
					"type": "error"
				},
				{
					"anonymous": false,
					"inputs": [
						{
							"indexed": true,
							"internalType": "address",
							"name": "user",
							"type": "address"
						},
						{
							"indexed": true,
							"internalType": "address",
							"name": "loanToken",
							"type": "address"
						},
						{
							"indexed": false,
							"internalType": "uint256",
							"name": "loanAmount",
							"type": "uint256"
						},
						{
							"indexed": true,
							"internalType": "address",
							"name": "collateralToken",
							"type": "address"
						},
						{
							"indexed": false,
							"internalType": "uint256",
							"name": "collateralAmount",
							"type": "uint256"
						}
					],
					"name": "Borrowed",
					"type": "event"
				},
				{
					"anonymous": false,
					"inputs": [
						{
							"indexed": true,
							"internalType": "address",
							"name": "user",
							"type": "address"
						},
						{
							"indexed": true,
							"internalType": "address",
							"name": "token",
							"type": "address"
						},
						{
							"indexed": false,
							"internalType": "uint256",
							"name": "amount",
							"type": "uint256"
						}
					],
					"name": "Deposited",
					"type": "event"
				},
				{
					"anonymous": false,
					"inputs": [
						{
							"indexed": true,
							"internalType": "address",
							"name": "user",
							"type": "address"
						},
						{
							"indexed": false,
							"internalType": "uint256",
							"name": "amount",
							"type": "uint256"
						}
					],
					"name": "ETHSaved",
					"type": "event"
				},
				{
					"anonymous": false,
					"inputs": [
						{
							"indexed": true,
							"internalType": "address",
							"name": "from",
							"type": "address"
						},
						{
							"indexed": true,
							"internalType": "address",
							"name": "to",
							"type": "address"
						},
						{
							"indexed": false,
							"internalType": "uint256",
							"name": "amount",
							"type": "uint256"
						}
					],
					"name": "ETHTransferred",
					"type": "event"
				},
				{
					"anonymous": false,
					"inputs": [
						{
							"indexed": true,
							"internalType": "address",
							"name": "user",
							"type": "address"
						},
						{
							"indexed": false,
							"internalType": "uint256",
							"name": "amount",
							"type": "uint256"
						}
					],
					"name": "ETHWithdrawn",
					"type": "event"
				},
				{
					"anonymous": false,
					"inputs": [
						{
							"indexed": true,
							"internalType": "address",
							"name": "previousOwner",
							"type": "address"
						},
						{
							"indexed": true,
							"internalType": "address",
							"name": "newOwner",
							"type": "address"
						}
					],
					"name": "OwnershipTransferred",
					"type": "event"
				},
				{
					"anonymous": false,
					"inputs": [
						{
							"indexed": true,
							"internalType": "address",
							"name": "user",
							"type": "address"
						},
						{
							"indexed": false,
							"internalType": "uint256",
							"name": "loanIndex",
							"type": "uint256"
						}
					],
					"name": "Repaid",
					"type": "event"
				},
				{
					"anonymous": false,
					"inputs": [
						{
							"indexed": true,
							"internalType": "address",
							"name": "user",
							"type": "address"
						},
						{
							"indexed": true,
							"internalType": "address",
							"name": "token",
							"type": "address"
						},
						{
							"indexed": false,
							"internalType": "uint256",
							"name": "amount",
							"type": "uint256"
						}
					],
					"name": "Withdrawn",
					"type": "event"
				},
				{
					"inputs": [
						{
							"internalType": "uint256",
							"name": "",
							"type": "uint256"
						}
					],
					"name": "decimals",
					"outputs": [
						{
							"internalType": "uint8",
							"name": "",
							"type": "uint8"
						}
					],
					"stateMutability": "view",
					"type": "function"
				},
				{
					"inputs": [
						{
							"internalType": "address",
							"name": "token",
							"type": "address"
						},
						{
							"internalType": "uint256",
							"name": "amount",
							"type": "uint256"
						}
					],
					"name": "deposit",
					"outputs": [],
					"stateMutability": "payable",
					"type": "function"
				},
				{
					"inputs": [
						{
							"internalType": "address",
							"name": "",
							"type": "address"
						},
						{
							"internalType": "address",
							"name": "",
							"type": "address"
						}
					],
					"name": "deposits",
					"outputs": [
						{
							"internalType": "uint256",
							"name": "time",
							"type": "uint256"
						},
						{
							"internalType": "uint256",
							"name": "amount",
							"type": "uint256"
						}
					],
					"stateMutability": "view",
					"type": "function"
				},
				{
					"inputs": [
						{
							"internalType": "address",
							"name": "",
							"type": "address"
						}
					],
					"name": "eth_deposits",
					"outputs": [
						{
							"internalType": "uint256",
							"name": "time",
							"type": "uint256"
						},
						{
							"internalType": "uint256",
							"name": "amount",
							"type": "uint256"
						}
					],
					"stateMutability": "view",
					"type": "function"
				},
				{
					"inputs": [
						{
							"internalType": "address",
							"name": "token",
							"type": "address"
						}
					],
					"name": "getDeposit",
					"outputs": [
						{
							"internalType": "uint256",
							"name": "",
							"type": "uint256"
						}
					],
					"stateMutability": "view",
					"type": "function"
				},
				{
					"inputs": [
						{
							"internalType": "address",
							"name": "",
							"type": "address"
						}
					],
					"name": "isTokenInList",
					"outputs": [
						{
							"internalType": "bool",
							"name": "",
							"type": "bool"
						}
					],
					"stateMutability": "view",
					"type": "function"
				},
				{
					"inputs": [
						{
							"internalType": "address",
							"name": "",
							"type": "address"
						},
						{
							"internalType": "uint256",
							"name": "",
							"type": "uint256"
						}
					],
					"name": "loans",
					"outputs": [
						{
							"internalType": "address",
							"name": "borrower",
							"type": "address"
						},
						{
							"internalType": "address",
							"name": "loanToken",
							"type": "address"
						},
						{
							"internalType": "uint256",
							"name": "loanAmount",
							"type": "uint256"
						},
						{
							"internalType": "address",
							"name": "collateralToken",
							"type": "address"
						},
						{
							"internalType": "uint256",
							"name": "collateralAmount",
							"type": "uint256"
						},
						{
							"internalType": "bool",
							"name": "isActive",
							"type": "bool"
						}
					],
					"stateMutability": "view",
					"type": "function"
				},
				{
					"inputs": [],
					"name": "owner",
					"outputs": [
						{
							"internalType": "address",
							"name": "",
							"type": "address"
						}
					],
					"stateMutability": "view",
					"type": "function"
				},
				{
					"inputs": [],
					"name": "renounceOwnership",
					"outputs": [],
					"stateMutability": "nonpayable",
					"type": "function"
				},
				{
					"inputs": [
						{
							"internalType": "uint256",
							"name": "",
							"type": "uint256"
						}
					],
					"name": "tokens",
					"outputs": [
						{
							"internalType": "address",
							"name": "",
							"type": "address"
						}
					],
					"stateMutability": "view",
					"type": "function"
				},
				{
					"inputs": [
						{
							"internalType": "address",
							"name": "token",
							"type": "address"
						},
						{
							"internalType": "address payable",
							"name": "to",
							"type": "address"
						},
						{
							"internalType": "uint256",
							"name": "amount",
							"type": "uint256"
						}
					],
					"name": "transfer",
					"outputs": [],
					"stateMutability": "payable",
					"type": "function"
				},
				{
					"inputs": [
						{
							"internalType": "address",
							"name": "newOwner",
							"type": "address"
						}
					],
					"name": "transferOwnership",
					"outputs": [],
					"stateMutability": "nonpayable",
					"type": "function"
				},
				{
					"inputs": [
						{
							"internalType": "address",
							"name": "token",
							"type": "address"
						},
						{
							"internalType": "uint256",
							"name": "amount",
							"type": "uint256"
						}
					],
					"name": "withdraw",
					"outputs": [],
					"stateMutability": "nonpayable",
					"type": "function"
				},
				{
					"stateMutability": "payable",
					"type": "receive"
				}
			],
			"devdoc": {
				"errors": {
					"OwnableInvalidOwner(address)": [
						{
							"details": "The owner is not a valid owner account. (eg. `address(0)`)"
						}
					],
					"OwnableUnauthorizedAccount(address)": [
						{
							"details": "The caller account is not authorized to perform an operation."
						}
					]
				},
				"kind": "dev",
				"methods": {
					"owner()": {
						"details": "Returns the address of the current owner."
					},
					"renounceOwnership()": {
						"details": "Leaves the contract without owner. It will not be possible to call `onlyOwner` functions. Can only be called by the current owner. NOTE: Renouncing ownership will leave the contract without an owner, thereby disabling any functionality that is only available to the owner."
					},
					"transferOwnership(address)": {
						"details": "Transfers ownership of the contract to a new account (`newOwner`). Can only be called by the current owner."
					}
				},
				"version": 1
			},
			"evm": {
				"assembly": "    /* \"contracts/Bank.sol\":252:5524  contract Bank is Ownable {... */\n  mstore(0x40, 0xc0)\n    /* \"contracts/Bank.sol\":1882:2409  constructor(address[] memory _tokens) Ownable(msg.sender) {... */\n  callvalue\n  dup1\n  iszero\n  tag_1\n  jumpi\n  0x00\n  dup1\n  revert\ntag_1:\n  pop\n  mload(0x40)\n  sub(codesize, bytecodeSize)\n  dup1\n  bytecodeSize\n  dup4\n  codecopy\n  dup2\n  dup2\n  add\n  0x40\n  mstore\n  dup2\n  add\n  swap1\n  tag_2\n  swap2\n  swap1\n  tag_3\n  jump\t// in\ntag_2:\n    /* \"contracts/Bank.sol\":1928:1938  msg.sender */\n  caller\n    /* \"@openzeppelin/contracts/access/Ownable.sol\":1297:1298  0 */\n  0x00\n    /* \"@openzeppelin/contracts/access/Ownable.sol\":1273:1299  initialOwner == address(0) */\n  0xffffffffffffffffffffffffffffffffffffffff\n  and\n    /* \"@openzeppelin/contracts/access/Ownable.sol\":1273:1285  initialOwner */\n  dup2\n    /* \"@openzeppelin/contracts/access/Ownable.sol\":1273:1299  initialOwner == address(0) */\n  0xffffffffffffffffffffffffffffffffffffffff\n  and\n  sub\n    /* \"@openzeppelin/contracts/access/Ownable.sol\":1269:1364  if (initialOwner == address(0)) {... */\n  tag_7\n  jumpi\n    /* \"@openzeppelin/contracts/access/Ownable.sol\":1350:1351  0 */\n  0x00\n    /* \"@openzeppelin/contracts/access/Ownable.sol\":1322:1353  OwnableInvalidOwner(address(0)) */\n  mload(0x40)\n  0x1e4fbdf700000000000000000000000000000000000000000000000000000000\n  dup2\n  mstore\n  0x04\n  add\n  tag_8\n  swap2\n  swap1\n  tag_9\n  jump\t// in\ntag_8:\n  mload(0x40)\n  dup1\n  swap2\n  sub\n  swap1\n  revert\n    /* \"@openzeppelin/contracts/access/Ownable.sol\":1269:1364  if (initialOwner == address(0)) {... */\ntag_7:\n    /* \"@openzeppelin/contracts/access/Ownable.sol\":1373:1405  _transferOwnership(initialOwner) */\n  tag_10\n    /* \"@openzeppelin/contracts/access/Ownable.sol\":1392:1404  initialOwner */\n  dup2\n    /* \"@openzeppelin/contracts/access/Ownable.sol\":1373:1391  _transferOwnership */\n  shl(0x20, tag_11)\n    /* \"@openzeppelin/contracts/access/Ownable.sol\":1373:1405  _transferOwnership(initialOwner) */\n  0x20\n  shr\n  jump\t// in\ntag_10:\n    /* \"@openzeppelin/contracts/access/Ownable.sol\":1225:1412  constructor(address initialOwner) {... */\n  pop\n    /* \"contracts/Bank.sol\":1976:1977  0 */\n  0x00\n    /* \"contracts/Bank.sol\":1959:1966  _tokens */\n  dup2\n    /* \"contracts/Bank.sol\":1959:1973  _tokens.length */\n  mload\n    /* \"contracts/Bank.sol\":1959:1977  _tokens.length > 0 */\n  gt\n    /* \"contracts/Bank.sol\":1951:2017  require(_tokens.length > 0, \"At least one token address required\") */\n  tag_13\n  jumpi\n  mload(0x40)\n  0x08c379a000000000000000000000000000000000000000000000000000000000\n  dup2\n  mstore\n  0x04\n  add\n  tag_14\n  swap1\n  tag_15\n  jump\t// in\ntag_14:\n  mload(0x40)\n  dup1\n  swap2\n  sub\n  swap1\n  revert\ntag_13:\n    /* \"contracts/Bank.sol\":2033:2042  uint256 i */\n  0x00\n    /* \"contracts/Bank.sol\":2028:2329  for (uint256 i = 0; i < _tokens.length; i++) {... */\ntag_16:\n    /* \"contracts/Bank.sol\":2052:2059  _tokens */\n  dup2\n    /* \"contracts/Bank.sol\":2052:2066  _tokens.length */\n  mload\n    /* \"contracts/Bank.sol\":2048:2049  i */\n  dup2\n    /* \"contracts/Bank.sol\":2048:2066  i < _tokens.length */\n  lt\n    /* \"contracts/Bank.sol\":2028:2329  for (uint256 i = 0; i < _tokens.length; i++) {... */\n  iszero\n  tag_17\n  jumpi\n    /* \"contracts/Bank.sol\":2097:2110  isTokenInList */\n  0x06\n    /* \"contracts/Bank.sol\":2097:2122  isTokenInList[_tokens[i]] */\n  0x00\n    /* \"contracts/Bank.sol\":2111:2118  _tokens */\n  dup4\n    /* \"contracts/Bank.sol\":2119:2120  i */\n  dup4\n    /* \"contracts/Bank.sol\":2111:2121  _tokens[i] */\n  dup2\n  mload\n  dup2\n  lt\n  tag_19\n  jumpi\n  tag_20\n  tag_21\n  jump\t// in\ntag_20:\ntag_19:\n  0x20\n  mul\n  0x20\n  add\n  add\n  mload\n    /* \"contracts/Bank.sol\":2097:2122  isTokenInList[_tokens[i]] */\n  0xffffffffffffffffffffffffffffffffffffffff\n  and\n  0xffffffffffffffffffffffffffffffffffffffff\n  and\n  dup2\n  mstore\n  0x20\n  add\n  swap1\n  dup2\n  mstore\n  0x20\n  add\n  0x00\n  keccak256\n  0x00\n  swap1\n  sload\n  swap1\n  0x0100\n  exp\n  swap1\n  div\n  0xff\n  and\n    /* \"contracts/Bank.sol\":2096:2122  !isTokenInList[_tokens[i]] */\n  iszero\n    /* \"contracts/Bank.sol\":2088:2142  require(!isTokenInList[_tokens[i]], \"Duplicate token\") */\n  tag_22\n  jumpi\n  mload(0x40)\n  0x08c379a000000000000000000000000000000000000000000000000000000000\n  dup2\n  mstore\n  0x04\n  add\n  tag_23\n  swap1\n  tag_24\n  jump\t// in\ntag_23:\n  mload(0x40)\n  dup1\n  swap2\n  sub\n  swap1\n  revert\ntag_22:\n    /* \"contracts/Bank.sol\":2157:2163  tokens */\n  0x01\n    /* \"contracts/Bank.sol\":2169:2176  _tokens */\n  dup3\n    /* \"contracts/Bank.sol\":2177:2178  i */\n  dup3\n    /* \"contracts/Bank.sol\":2169:2179  _tokens[i] */\n  dup2\n  mload\n  dup2\n  lt\n  tag_25\n  jumpi\n  tag_26\n  tag_21\n  jump\t// in\ntag_26:\ntag_25:\n  0x20\n  mul\n  0x20\n  add\n  add\n  mload\n    /* \"contracts/Bank.sol\":2157:2180  tokens.push(_tokens[i]) */\n  swap1\n  dup1\n  0x01\n  dup2\n  sload\n  add\n  dup1\n  dup3\n  sstore\n  dup1\n  swap2\n  pop\n  pop\n  0x01\n  swap1\n  sub\n  swap1\n  0x00\n  mstore\n  keccak256(0x00, 0x20)\n  add\n  0x00\n  swap1\n  swap2\n  swap1\n  swap2\n  swap1\n  swap2\n  0x0100\n  exp\n  dup2\n  sload\n  dup2\n  0xffffffffffffffffffffffffffffffffffffffff\n  mul\n  not\n  and\n  swap1\n  dup4\n  0xffffffffffffffffffffffffffffffffffffffff\n  and\n  mul\n  or\n  swap1\n  sstore\n  pop\n    /* \"contracts/Bank.sol\":2195:2203  decimals */\n  0x02\n    /* \"contracts/Bank.sol\":2224:2231  _tokens */\n  dup3\n    /* \"contracts/Bank.sol\":2232:2233  i */\n  dup3\n    /* \"contracts/Bank.sol\":2224:2234  _tokens[i] */\n  dup2\n  mload\n  dup2\n  lt\n  tag_28\n  jumpi\n  tag_29\n  tag_21\n  jump\t// in\ntag_29:\ntag_28:\n  0x20\n  mul\n  0x20\n  add\n  add\n  mload\n    /* \"contracts/Bank.sol\":2209:2244  IERC20Metadata(_tokens[i]).decimals */\n  0xffffffffffffffffffffffffffffffffffffffff\n  and\n  0x313ce567\n    /* \"contracts/Bank.sol\":2209:2246  IERC20Metadata(_tokens[i]).decimals() */\n  mload(0x40)\n  dup2\n  0xffffffff\n  and\n  0xe0\n  shl\n  dup2\n  mstore\n  0x04\n  add\n  0x20\n  mload(0x40)\n  dup1\n  dup4\n  sub\n  dup2\n  dup7\n  gas\n  staticcall\n  iszero\n  dup1\n  iszero\n  tag_31\n  jumpi\n  returndatasize\n  0x00\n  dup1\n  returndatacopy\n  revert(0x00, returndatasize)\ntag_31:\n  pop\n  pop\n  pop\n  pop\n  mload(0x40)\n  returndatasize\n  not(0x1f)\n  0x1f\n  dup3\n  add\n  and\n  dup3\n  add\n  dup1\n  0x40\n  mstore\n  pop\n  dup2\n  add\n  swap1\n  tag_32\n  swap2\n  swap1\n  tag_33\n  jump\t// in\ntag_32:\n    /* \"contracts/Bank.sol\":2195:2247  decimals.push(IERC20Metadata(_tokens[i]).decimals()) */\n  swap1\n  dup1\n  0x01\n  dup2\n  sload\n  add\n  dup1\n  dup3\n  sstore\n  dup1\n  swap2\n  pop\n  pop\n  0x01\n  swap1\n  sub\n  swap1\n  0x00\n  mstore\n  keccak256(0x00, 0x20)\n  swap1\n  0x20\n  swap2\n  dup3\n  dup3\n  div\n  add\n  swap2\n  swap1\n  mod\n  swap1\n  swap2\n  swap1\n  swap2\n  swap1\n  swap2\n  0x0100\n  exp\n  dup2\n  sload\n  dup2\n  0xff\n  mul\n  not\n  and\n  swap1\n  dup4\n  0xff\n  and\n  mul\n  or\n  swap1\n  sstore\n  pop\n    /* \"contracts/Bank.sol\":2290:2294  true */\n  0x01\n    /* \"contracts/Bank.sol\":2262:2275  isTokenInList */\n  0x06\n    /* \"contracts/Bank.sol\":2262:2287  isTokenInList[_tokens[i]] */\n  0x00\n    /* \"contracts/Bank.sol\":2276:2283  _tokens */\n  dup5\n    /* \"contracts/Bank.sol\":2284:2285  i */\n  dup5\n    /* \"contracts/Bank.sol\":2276:2286  _tokens[i] */\n  dup2\n  mload\n  dup2\n  lt\n  tag_35\n  jumpi\n  tag_36\n  tag_21\n  jump\t// in\ntag_36:\ntag_35:\n  0x20\n  mul\n  0x20\n  add\n  add\n  mload\n    /* \"contracts/Bank.sol\":2262:2287  isTokenInList[_tokens[i]] */\n  0xffffffffffffffffffffffffffffffffffffffff\n  and\n  0xffffffffffffffffffffffffffffffffffffffff\n  and\n  dup2\n  mstore\n  0x20\n  add\n  swap1\n  dup2\n  mstore\n  0x20\n  add\n  0x00\n  keccak256\n  0x00\n    /* \"contracts/Bank.sol\":2262:2294  isTokenInList[_tokens[i]] = true */\n  0x0100\n  exp\n  dup2\n  sload\n  dup2\n  0xff\n  mul\n  not\n  and\n  swap1\n  dup4\n  iszero\n  iszero\n  mul\n  or\n  swap1\n  sstore\n  pop\n    /* \"contracts/Bank.sol\":2068:2071  i++ */\n  dup1\n  dup1\n  0x01\n  add\n  swap2\n  pop\n  pop\n    /* \"contracts/Bank.sol\":2028:2329  for (uint256 i = 0; i < _tokens.length; i++) {... */\n  jump(tag_16)\ntag_17:\n  pop\n    /* \"contracts/Bank.sol\":2348:2358  msg.sender */\n  caller\n    /* \"contracts/Bank.sol\":2339:2358  ownner = msg.sender */\n  0xffffffffffffffffffffffffffffffffffffffff\n  and\n  0x80\n  dup2\n  0xffffffffffffffffffffffffffffffffffffffff\n  and\n  dup2\n  mstore\n  pop\n  pop\n    /* \"contracts/Bank.sol\":2381:2401  getCurrentTimeView() */\n  tag_37\n    /* \"contracts/Bank.sol\":2381:2399  getCurrentTimeView */\n  shl(0x20, tag_38)\n    /* \"contracts/Bank.sol\":2381:2401  getCurrentTimeView() */\n  0x20\n  shr\n  jump\t// in\ntag_37:\n    /* \"contracts/Bank.sol\":2369:2401  startTime = getCurrentTimeView() */\n  0xa0\n  dup2\n  dup2\n  mstore\n  pop\n  pop\n    /* \"contracts/Bank.sol\":1882:2409  constructor(address[] memory _tokens) Ownable(msg.sender) {... */\n  pop\n    /* \"contracts/Bank.sol\":252:5524  contract Bank is Ownable {... */\n  jump(tag_39)\n    /* \"@openzeppelin/contracts/access/Ownable.sol\":2912:3099  function _transferOwnership(address newOwner) internal virtual {... */\ntag_11:\n    /* \"@openzeppelin/contracts/access/Ownable.sol\":2985:3001  address oldOwner */\n  0x00\n    /* \"@openzeppelin/contracts/access/Ownable.sol\":3004:3010  _owner */\n  dup1\n  0x00\n  swap1\n  sload\n  swap1\n  0x0100\n  exp\n  swap1\n  div\n  0xffffffffffffffffffffffffffffffffffffffff\n  and\n    /* \"@openzeppelin/contracts/access/Ownable.sol\":2985:3010  address oldOwner = _owner */\n  swap1\n  pop\n    /* \"@openzeppelin/contracts/access/Ownable.sol\":3029:3037  newOwner */\n  dup2\n    /* \"@openzeppelin/contracts/access/Ownable.sol\":3020:3026  _owner */\n  0x00\n  dup1\n    /* \"@openzeppelin/contracts/access/Ownable.sol\":3020:3037  _owner = newOwner */\n  0x0100\n  exp\n  dup2\n  sload\n  dup2\n  0xffffffffffffffffffffffffffffffffffffffff\n  mul\n  not\n  and\n  swap1\n  dup4\n  0xffffffffffffffffffffffffffffffffffffffff\n  and\n  mul\n  or\n  swap1\n  sstore\n  pop\n    /* \"@openzeppelin/contracts/access/Ownable.sol\":3083:3091  newOwner */\n  dup2\n    /* \"@openzeppelin/contracts/access/Ownable.sol\":3052:3092  OwnershipTransferred(oldOwner, newOwner) */\n  0xffffffffffffffffffffffffffffffffffffffff\n  and\n    /* \"@openzeppelin/contracts/access/Ownable.sol\":3073:3081  oldOwner */\n  dup2\n    /* \"@openzeppelin/contracts/access/Ownable.sol\":3052:3092  OwnershipTransferred(oldOwner, newOwner) */\n  0xffffffffffffffffffffffffffffffffffffffff\n  and\n  0x8be0079c531659141344cd1fd0a4f28419497f9722a3daafe3b4186f6b6457e0\n  mload(0x40)\n  mload(0x40)\n  dup1\n  swap2\n  sub\n  swap1\n  log3\n    /* \"@openzeppelin/contracts/access/Ownable.sol\":2975:3099  {... */\n  pop\n    /* \"@openzeppelin/contracts/access/Ownable.sol\":2912:3099  function _transferOwnership(address newOwner) internal virtual {... */\n  pop\n  jump\t// out\n    /* \"contracts/Bank.sol\":1771:1874  function getCurrentTimeView() internal view returns (uint256) {... */\ntag_38:\n    /* \"contracts/Bank.sol\":1824:1831  uint256 */\n  0x00\n    /* \"contracts/Bank.sol\":1851:1866  block.timestamp */\n  timestamp\n    /* \"contracts/Bank.sol\":1844:1866  return block.timestamp */\n  swap1\n  pop\n    /* \"contracts/Bank.sol\":1771:1874  function getCurrentTimeView() internal view returns (uint256) {... */\n  swap1\n  jump\t// out\n    /* \"#utility.yul\":7:82   */\ntag_42:\n    /* \"#utility.yul\":40:46   */\n  0x00\n    /* \"#utility.yul\":73:75   */\n  0x40\n    /* \"#utility.yul\":67:76   */\n  mload\n    /* \"#utility.yul\":57:76   */\n  swap1\n  pop\n    /* \"#utility.yul\":7:82   */\n  swap1\n  jump\t// out\n    /* \"#utility.yul\":88:205   */\ntag_43:\n    /* \"#utility.yul\":197:198   */\n  0x00\n    /* \"#utility.yul\":194:195   */\n  dup1\n    /* \"#utility.yul\":187:199   */\n  revert\n    /* \"#utility.yul\":211:328   */\ntag_44:\n    /* \"#utility.yul\":320:321   */\n  0x00\n    /* \"#utility.yul\":317:318   */\n  dup1\n    /* \"#utility.yul\":310:322   */\n  revert\n    /* \"#utility.yul\":334:451   */\ntag_45:\n    /* \"#utility.yul\":443:444   */\n  0x00\n    /* \"#utility.yul\":440:441   */\n  dup1\n    /* \"#utility.yul\":433:445   */\n  revert\n    /* \"#utility.yul\":457:559   */\ntag_46:\n    /* \"#utility.yul\":498:504   */\n  0x00\n    /* \"#utility.yul\":549:551   */\n  0x1f\n    /* \"#utility.yul\":545:552   */\n  not\n    /* \"#utility.yul\":540:542   */\n  0x1f\n    /* \"#utility.yul\":533:538   */\n  dup4\n    /* \"#utility.yul\":529:543   */\n  add\n    /* \"#utility.yul\":525:553   */\n  and\n    /* \"#utility.yul\":515:553   */\n  swap1\n  pop\n    /* \"#utility.yul\":457:559   */\n  swap2\n  swap1\n  pop\n  jump\t// out\n    /* \"#utility.yul\":565:745   */\ntag_47:\n    /* \"#utility.yul\":613:690   */\n  0x4e487b7100000000000000000000000000000000000000000000000000000000\n    /* \"#utility.yul\":610:611   */\n  0x00\n    /* \"#utility.yul\":603:691   */\n  mstore\n    /* \"#utility.yul\":710:714   */\n  0x41\n    /* \"#utility.yul\":707:708   */\n  0x04\n    /* \"#utility.yul\":700:715   */\n  mstore\n    /* \"#utility.yul\":734:738   */\n  0x24\n    /* \"#utility.yul\":731:732   */\n  0x00\n    /* \"#utility.yul\":724:739   */\n  revert\n    /* \"#utility.yul\":751:1032   */\ntag_48:\n    /* \"#utility.yul\":834:861   */\n  tag_75\n    /* \"#utility.yul\":856:860   */\n  dup3\n    /* \"#utility.yul\":834:861   */\n  tag_46\n  jump\t// in\ntag_75:\n    /* \"#utility.yul\":826:832   */\n  dup2\n    /* \"#utility.yul\":822:862   */\n  add\n    /* \"#utility.yul\":964:970   */\n  dup2\n    /* \"#utility.yul\":952:962   */\n  dup2\n    /* \"#utility.yul\":949:971   */\n  lt\n    /* \"#utility.yul\":928:946   */\n  0xffffffffffffffff\n    /* \"#utility.yul\":916:926   */\n  dup3\n    /* \"#utility.yul\":913:947   */\n  gt\n    /* \"#utility.yul\":910:972   */\n  or\n    /* \"#utility.yul\":907:995   */\n  iszero\n  tag_76\n  jumpi\n    /* \"#utility.yul\":975:993   */\n  tag_77\n  tag_47\n  jump\t// in\ntag_77:\n    /* \"#utility.yul\":907:995   */\ntag_76:\n    /* \"#utility.yul\":1015:1025   */\n  dup1\n    /* \"#utility.yul\":1011:1013   */\n  0x40\n    /* \"#utility.yul\":1004:1026   */\n  mstore\n    /* \"#utility.yul\":794:1032   */\n  pop\n    /* \"#utility.yul\":751:1032   */\n  pop\n  pop\n  jump\t// out\n    /* \"#utility.yul\":1038:1167   */\ntag_49:\n    /* \"#utility.yul\":1072:1078   */\n  0x00\n    /* \"#utility.yul\":1099:1119   */\n  tag_79\n  tag_42\n  jump\t// in\ntag_79:\n    /* \"#utility.yul\":1089:1119   */\n  swap1\n  pop\n    /* \"#utility.yul\":1128:1161   */\n  tag_80\n    /* \"#utility.yul\":1156:1160   */\n  dup3\n    /* \"#utility.yul\":1148:1154   */\n  dup3\n    /* \"#utility.yul\":1128:1161   */\n  tag_48\n  jump\t// in\ntag_80:\n    /* \"#utility.yul\":1038:1167   */\n  swap2\n  swap1\n  pop\n  jump\t// out\n    /* \"#utility.yul\":1173:1484   */\ntag_50:\n    /* \"#utility.yul\":1250:1254   */\n  0x00\n    /* \"#utility.yul\":1340:1358   */\n  0xffffffffffffffff\n    /* \"#utility.yul\":1332:1338   */\n  dup3\n    /* \"#utility.yul\":1329:1359   */\n  gt\n    /* \"#utility.yul\":1326:1382   */\n  iszero\n  tag_82\n  jumpi\n    /* \"#utility.yul\":1362:1380   */\n  tag_83\n  tag_47\n  jump\t// in\ntag_83:\n    /* \"#utility.yul\":1326:1382   */\ntag_82:\n    /* \"#utility.yul\":1412:1416   */\n  0x20\n    /* \"#utility.yul\":1404:1410   */\n  dup3\n    /* \"#utility.yul\":1400:1417   */\n  mul\n    /* \"#utility.yul\":1392:1417   */\n  swap1\n  pop\n    /* \"#utility.yul\":1472:1476   */\n  0x20\n    /* \"#utility.yul\":1466:1470   */\n  dup2\n    /* \"#utility.yul\":1462:1477   */\n  add\n    /* \"#utility.yul\":1454:1477   */\n  swap1\n  pop\n    /* \"#utility.yul\":1173:1484   */\n  swap2\n  swap1\n  pop\n  jump\t// out\n    /* \"#utility.yul\":1490:1607   */\ntag_51:\n    /* \"#utility.yul\":1599:1600   */\n  0x00\n    /* \"#utility.yul\":1596:1597   */\n  dup1\n    /* \"#utility.yul\":1589:1601   */\n  revert\n    /* \"#utility.yul\":1613:1739   */\ntag_52:\n    /* \"#utility.yul\":1650:1657   */\n  0x00\n    /* \"#utility.yul\":1690:1732   */\n  0xffffffffffffffffffffffffffffffffffffffff\n    /* \"#utility.yul\":1683:1688   */\n  dup3\n    /* \"#utility.yul\":1679:1733   */\n  and\n    /* \"#utility.yul\":1668:1733   */\n  swap1\n  pop\n    /* \"#utility.yul\":1613:1739   */\n  swap2\n  swap1\n  pop\n  jump\t// out\n    /* \"#utility.yul\":1745:1841   */\ntag_53:\n    /* \"#utility.yul\":1782:1789   */\n  0x00\n    /* \"#utility.yul\":1811:1835   */\n  tag_87\n    /* \"#utility.yul\":1829:1834   */\n  dup3\n    /* \"#utility.yul\":1811:1835   */\n  tag_52\n  jump\t// in\ntag_87:\n    /* \"#utility.yul\":1800:1835   */\n  swap1\n  pop\n    /* \"#utility.yul\":1745:1841   */\n  swap2\n  swap1\n  pop\n  jump\t// out\n    /* \"#utility.yul\":1847:1969   */\ntag_54:\n    /* \"#utility.yul\":1920:1944   */\n  tag_89\n    /* \"#utility.yul\":1938:1943   */\n  dup2\n    /* \"#utility.yul\":1920:1944   */\n  tag_53\n  jump\t// in\ntag_89:\n    /* \"#utility.yul\":1913:1918   */\n  dup2\n    /* \"#utility.yul\":1910:1945   */\n  eq\n    /* \"#utility.yul\":1900:1963   */\n  tag_90\n  jumpi\n    /* \"#utility.yul\":1959:1960   */\n  0x00\n    /* \"#utility.yul\":1956:1957   */\n  dup1\n    /* \"#utility.yul\":1949:1961   */\n  revert\n    /* \"#utility.yul\":1900:1963   */\ntag_90:\n    /* \"#utility.yul\":1847:1969   */\n  pop\n  jump\t// out\n    /* \"#utility.yul\":1975:2118   */\ntag_55:\n    /* \"#utility.yul\":2032:2037   */\n  0x00\n    /* \"#utility.yul\":2063:2069   */\n  dup2\n    /* \"#utility.yul\":2057:2070   */\n  mload\n    /* \"#utility.yul\":2048:2070   */\n  swap1\n  pop\n    /* \"#utility.yul\":2079:2112   */\n  tag_92\n    /* \"#utility.yul\":2106:2111   */\n  dup2\n    /* \"#utility.yul\":2079:2112   */\n  tag_54\n  jump\t// in\ntag_92:\n    /* \"#utility.yul\":1975:2118   */\n  swap3\n  swap2\n  pop\n  pop\n  jump\t// out\n    /* \"#utility.yul\":2141:2873   */\ntag_56:\n    /* \"#utility.yul\":2248:2253   */\n  0x00\n    /* \"#utility.yul\":2273:2354   */\n  tag_94\n    /* \"#utility.yul\":2289:2353   */\n  tag_95\n    /* \"#utility.yul\":2346:2352   */\n  dup5\n    /* \"#utility.yul\":2289:2353   */\n  tag_50\n  jump\t// in\ntag_95:\n    /* \"#utility.yul\":2273:2354   */\n  tag_49\n  jump\t// in\ntag_94:\n    /* \"#utility.yul\":2264:2354   */\n  swap1\n  pop\n    /* \"#utility.yul\":2374:2379   */\n  dup1\n    /* \"#utility.yul\":2403:2409   */\n  dup4\n    /* \"#utility.yul\":2396:2401   */\n  dup3\n    /* \"#utility.yul\":2389:2410   */\n  mstore\n    /* \"#utility.yul\":2437:2441   */\n  0x20\n    /* \"#utility.yul\":2430:2435   */\n  dup3\n    /* \"#utility.yul\":2426:2442   */\n  add\n    /* \"#utility.yul\":2419:2442   */\n  swap1\n  pop\n    /* \"#utility.yul\":2490:2494   */\n  0x20\n    /* \"#utility.yul\":2482:2488   */\n  dup5\n    /* \"#utility.yul\":2478:2495   */\n  mul\n    /* \"#utility.yul\":2470:2476   */\n  dup4\n    /* \"#utility.yul\":2466:2496   */\n  add\n    /* \"#utility.yul\":2519:2522   */\n  dup6\n    /* \"#utility.yul\":2511:2517   */\n  dup2\n    /* \"#utility.yul\":2508:2523   */\n  gt\n    /* \"#utility.yul\":2505:2627   */\n  iszero\n  tag_96\n  jumpi\n    /* \"#utility.yul\":2538:2617   */\n  tag_97\n  tag_51\n  jump\t// in\ntag_97:\n    /* \"#utility.yul\":2505:2627   */\ntag_96:\n    /* \"#utility.yul\":2653:2659   */\n  dup4\n    /* \"#utility.yul\":2636:2867   */\ntag_98:\n    /* \"#utility.yul\":2670:2676   */\n  dup2\n    /* \"#utility.yul\":2665:2668   */\n  dup2\n    /* \"#utility.yul\":2662:2677   */\n  lt\n    /* \"#utility.yul\":2636:2867   */\n  iszero\n  tag_100\n  jumpi\n    /* \"#utility.yul\":2745:2748   */\n  dup1\n    /* \"#utility.yul\":2774:2822   */\n  tag_101\n    /* \"#utility.yul\":2818:2821   */\n  dup9\n    /* \"#utility.yul\":2806:2816   */\n  dup3\n    /* \"#utility.yul\":2774:2822   */\n  tag_55\n  jump\t// in\ntag_101:\n    /* \"#utility.yul\":2769:2772   */\n  dup5\n    /* \"#utility.yul\":2762:2823   */\n  mstore\n    /* \"#utility.yul\":2852:2856   */\n  0x20\n    /* \"#utility.yul\":2847:2850   */\n  dup5\n    /* \"#utility.yul\":2843:2857   */\n  add\n    /* \"#utility.yul\":2836:2857   */\n  swap4\n  pop\n    /* \"#utility.yul\":2712:2867   */\n  pop\n    /* \"#utility.yul\":2696:2700   */\n  0x20\n    /* \"#utility.yul\":2691:2694   */\n  dup2\n    /* \"#utility.yul\":2687:2701   */\n  add\n    /* \"#utility.yul\":2680:2701   */\n  swap1\n  pop\n    /* \"#utility.yul\":2636:2867   */\n  jump(tag_98)\ntag_100:\n    /* \"#utility.yul\":2640:2661   */\n  pop\n    /* \"#utility.yul\":2254:2873   */\n  pop\n  pop\n    /* \"#utility.yul\":2141:2873   */\n  swap4\n  swap3\n  pop\n  pop\n  pop\n  jump\t// out\n    /* \"#utility.yul\":2896:3281   */\ntag_57:\n    /* \"#utility.yul\":2978:2983   */\n  0x00\n    /* \"#utility.yul\":3027:3030   */\n  dup3\n    /* \"#utility.yul\":3020:3024   */\n  0x1f\n    /* \"#utility.yul\":3012:3018   */\n  dup4\n    /* \"#utility.yul\":3008:3025   */\n  add\n    /* \"#utility.yul\":3004:3031   */\n  slt\n    /* \"#utility.yul\":2994:3116   */\n  tag_103\n  jumpi\n    /* \"#utility.yul\":3035:3114   */\n  tag_104\n  tag_45\n  jump\t// in\ntag_104:\n    /* \"#utility.yul\":2994:3116   */\ntag_103:\n    /* \"#utility.yul\":3145:3151   */\n  dup2\n    /* \"#utility.yul\":3139:3152   */\n  mload\n    /* \"#utility.yul\":3170:3275   */\n  tag_105\n    /* \"#utility.yul\":3271:3274   */\n  dup5\n    /* \"#utility.yul\":3263:3269   */\n  dup3\n    /* \"#utility.yul\":3256:3260   */\n  0x20\n    /* \"#utility.yul\":3248:3254   */\n  dup7\n    /* \"#utility.yul\":3244:3261   */\n  add\n    /* \"#utility.yul\":3170:3275   */\n  tag_56\n  jump\t// in\ntag_105:\n    /* \"#utility.yul\":3161:3275   */\n  swap2\n  pop\n    /* \"#utility.yul\":2984:3281   */\n  pop\n    /* \"#utility.yul\":2896:3281   */\n  swap3\n  swap2\n  pop\n  pop\n  jump\t// out\n    /* \"#utility.yul\":3287:3841   */\ntag_3:\n    /* \"#utility.yul\":3382:3388   */\n  0x00\n    /* \"#utility.yul\":3431:3433   */\n  0x20\n    /* \"#utility.yul\":3419:3428   */\n  dup3\n    /* \"#utility.yul\":3410:3417   */\n  dup5\n    /* \"#utility.yul\":3406:3429   */\n  sub\n    /* \"#utility.yul\":3402:3434   */\n  slt\n    /* \"#utility.yul\":3399:3518   */\n  iszero\n  tag_107\n  jumpi\n    /* \"#utility.yul\":3437:3516   */\n  tag_108\n  tag_43\n  jump\t// in\ntag_108:\n    /* \"#utility.yul\":3399:3518   */\ntag_107:\n    /* \"#utility.yul\":3578:3579   */\n  0x00\n    /* \"#utility.yul\":3567:3576   */\n  dup3\n    /* \"#utility.yul\":3563:3580   */\n  add\n    /* \"#utility.yul\":3557:3581   */\n  mload\n    /* \"#utility.yul\":3608:3626   */\n  0xffffffffffffffff\n    /* \"#utility.yul\":3600:3606   */\n  dup2\n    /* \"#utility.yul\":3597:3627   */\n  gt\n    /* \"#utility.yul\":3594:3711   */\n  iszero\n  tag_109\n  jumpi\n    /* \"#utility.yul\":3630:3709   */\n  tag_110\n  tag_44\n  jump\t// in\ntag_110:\n    /* \"#utility.yul\":3594:3711   */\ntag_109:\n    /* \"#utility.yul\":3735:3824   */\n  tag_111\n    /* \"#utility.yul\":3816:3823   */\n  dup5\n    /* \"#utility.yul\":3807:3813   */\n  dup3\n    /* \"#utility.yul\":3796:3805   */\n  dup6\n    /* \"#utility.yul\":3792:3814   */\n  add\n    /* \"#utility.yul\":3735:3824   */\n  tag_57\n  jump\t// in\ntag_111:\n    /* \"#utility.yul\":3725:3824   */\n  swap2\n  pop\n    /* \"#utility.yul\":3528:3834   */\n  pop\n    /* \"#utility.yul\":3287:3841   */\n  swap3\n  swap2\n  pop\n  pop\n  jump\t// out\n    /* \"#utility.yul\":3847:3965   */\ntag_58:\n    /* \"#utility.yul\":3934:3958   */\n  tag_113\n    /* \"#utility.yul\":3952:3957   */\n  dup2\n    /* \"#utility.yul\":3934:3958   */\n  tag_53\n  jump\t// in\ntag_113:\n    /* \"#utility.yul\":3929:3932   */\n  dup3\n    /* \"#utility.yul\":3922:3959   */\n  mstore\n    /* \"#utility.yul\":3847:3965   */\n  pop\n  pop\n  jump\t// out\n    /* \"#utility.yul\":3971:4193   */\ntag_9:\n    /* \"#utility.yul\":4064:4068   */\n  0x00\n    /* \"#utility.yul\":4102:4104   */\n  0x20\n    /* \"#utility.yul\":4091:4100   */\n  dup3\n    /* \"#utility.yul\":4087:4105   */\n  add\n    /* \"#utility.yul\":4079:4105   */\n  swap1\n  pop\n    /* \"#utility.yul\":4115:4186   */\n  tag_115\n    /* \"#utility.yul\":4183:4184   */\n  0x00\n    /* \"#utility.yul\":4172:4181   */\n  dup4\n    /* \"#utility.yul\":4168:4185   */\n  add\n    /* \"#utility.yul\":4159:4165   */\n  dup5\n    /* \"#utility.yul\":4115:4186   */\n  tag_58\n  jump\t// in\ntag_115:\n    /* \"#utility.yul\":3971:4193   */\n  swap3\n  swap2\n  pop\n  pop\n  jump\t// out\n    /* \"#utility.yul\":4199:4368   */\ntag_59:\n    /* \"#utility.yul\":4283:4294   */\n  0x00\n    /* \"#utility.yul\":4317:4323   */\n  dup3\n    /* \"#utility.yul\":4312:4315   */\n  dup3\n    /* \"#utility.yul\":4305:4324   */\n  mstore\n    /* \"#utility.yul\":4357:4361   */\n  0x20\n    /* \"#utility.yul\":4352:4355   */\n  dup3\n    /* \"#utility.yul\":4348:4362   */\n  add\n    /* \"#utility.yul\":4333:4362   */\n  swap1\n  pop\n    /* \"#utility.yul\":4199:4368   */\n  swap3\n  swap2\n  pop\n  pop\n  jump\t// out\n    /* \"#utility.yul\":4374:4596   */\ntag_60:\n    /* \"#utility.yul\":4514:4548   */\n  0x4174206c65617374206f6e6520746f6b656e2061646472657373207265717569\n    /* \"#utility.yul\":4510:4511   */\n  0x00\n    /* \"#utility.yul\":4502:4508   */\n  dup3\n    /* \"#utility.yul\":4498:4512   */\n  add\n    /* \"#utility.yul\":4491:4549   */\n  mstore\n    /* \"#utility.yul\":4583:4588   */\n  0x7265640000000000000000000000000000000000000000000000000000000000\n    /* \"#utility.yul\":4578:4580   */\n  0x20\n    /* \"#utility.yul\":4570:4576   */\n  dup3\n    /* \"#utility.yul\":4566:4581   */\n  add\n    /* \"#utility.yul\":4559:4589   */\n  mstore\n    /* \"#utility.yul\":4374:4596   */\n  pop\n  jump\t// out\n    /* \"#utility.yul\":4602:4968   */\ntag_61:\n    /* \"#utility.yul\":4744:4747   */\n  0x00\n    /* \"#utility.yul\":4765:4832   */\n  tag_119\n    /* \"#utility.yul\":4829:4831   */\n  0x23\n    /* \"#utility.yul\":4824:4827   */\n  dup4\n    /* \"#utility.yul\":4765:4832   */\n  tag_59\n  jump\t// in\ntag_119:\n    /* \"#utility.yul\":4758:4832   */\n  swap2\n  pop\n    /* \"#utility.yul\":4841:4934   */\n  tag_120\n    /* \"#utility.yul\":4930:4933   */\n  dup3\n    /* \"#utility.yul\":4841:4934   */\n  tag_60\n  jump\t// in\ntag_120:\n    /* \"#utility.yul\":4959:4961   */\n  0x40\n    /* \"#utility.yul\":4954:4957   */\n  dup3\n    /* \"#utility.yul\":4950:4962   */\n  add\n    /* \"#utility.yul\":4943:4962   */\n  swap1\n  pop\n    /* \"#utility.yul\":4602:4968   */\n  swap2\n  swap1\n  pop\n  jump\t// out\n    /* \"#utility.yul\":4974:5393   */\ntag_15:\n    /* \"#utility.yul\":5140:5144   */\n  0x00\n    /* \"#utility.yul\":5178:5180   */\n  0x20\n    /* \"#utility.yul\":5167:5176   */\n  dup3\n    /* \"#utility.yul\":5163:5181   */\n  add\n    /* \"#utility.yul\":5155:5181   */\n  swap1\n  pop\n    /* \"#utility.yul\":5227:5236   */\n  dup2\n    /* \"#utility.yul\":5221:5225   */\n  dup2\n    /* \"#utility.yul\":5217:5237   */\n  sub\n    /* \"#utility.yul\":5213:5214   */\n  0x00\n    /* \"#utility.yul\":5202:5211   */\n  dup4\n    /* \"#utility.yul\":5198:5215   */\n  add\n    /* \"#utility.yul\":5191:5238   */\n  mstore\n    /* \"#utility.yul\":5255:5386   */\n  tag_122\n    /* \"#utility.yul\":5381:5385   */\n  dup2\n    /* \"#utility.yul\":5255:5386   */\n  tag_61\n  jump\t// in\ntag_122:\n    /* \"#utility.yul\":5247:5386   */\n  swap1\n  pop\n    /* \"#utility.yul\":4974:5393   */\n  swap2\n  swap1\n  pop\n  jump\t// out\n    /* \"#utility.yul\":5399:5579   */\ntag_21:\n    /* \"#utility.yul\":5447:5524   */\n  0x4e487b7100000000000000000000000000000000000000000000000000000000\n    /* \"#utility.yul\":5444:5445   */\n  0x00\n    /* \"#utility.yul\":5437:5525   */\n  mstore\n    /* \"#utility.yul\":5544:5548   */\n  0x32\n    /* \"#utility.yul\":5541:5542   */\n  0x04\n    /* \"#utility.yul\":5534:5549   */\n  mstore\n    /* \"#utility.yul\":5568:5572   */\n  0x24\n    /* \"#utility.yul\":5565:5566   */\n  0x00\n    /* \"#utility.yul\":5558:5573   */\n  revert\n    /* \"#utility.yul\":5585:5750   */\ntag_62:\n    /* \"#utility.yul\":5725:5742   */\n  0x4475706c696361746520746f6b656e0000000000000000000000000000000000\n    /* \"#utility.yul\":5721:5722   */\n  0x00\n    /* \"#utility.yul\":5713:5719   */\n  dup3\n    /* \"#utility.yul\":5709:5723   */\n  add\n    /* \"#utility.yul\":5702:5743   */\n  mstore\n    /* \"#utility.yul\":5585:5750   */\n  pop\n  jump\t// out\n    /* \"#utility.yul\":5756:6122   */\ntag_63:\n    /* \"#utility.yul\":5898:5901   */\n  0x00\n    /* \"#utility.yul\":5919:5986   */\n  tag_126\n    /* \"#utility.yul\":5983:5985   */\n  0x0f\n    /* \"#utility.yul\":5978:5981   */\n  dup4\n    /* \"#utility.yul\":5919:5986   */\n  tag_59\n  jump\t// in\ntag_126:\n    /* \"#utility.yul\":5912:5986   */\n  swap2\n  pop\n    /* \"#utility.yul\":5995:6088   */\n  tag_127\n    /* \"#utility.yul\":6084:6087   */\n  dup3\n    /* \"#utility.yul\":5995:6088   */\n  tag_62\n  jump\t// in\ntag_127:\n    /* \"#utility.yul\":6113:6115   */\n  0x20\n    /* \"#utility.yul\":6108:6111   */\n  dup3\n    /* \"#utility.yul\":6104:6116   */\n  add\n    /* \"#utility.yul\":6097:6116   */\n  swap1\n  pop\n    /* \"#utility.yul\":5756:6122   */\n  swap2\n  swap1\n  pop\n  jump\t// out\n    /* \"#utility.yul\":6128:6547   */\ntag_24:\n    /* \"#utility.yul\":6294:6298   */\n  0x00\n    /* \"#utility.yul\":6332:6334   */\n  0x20\n    /* \"#utility.yul\":6321:6330   */\n  dup3\n    /* \"#utility.yul\":6317:6335   */\n  add\n    /* \"#utility.yul\":6309:6335   */\n  swap1\n  pop\n    /* \"#utility.yul\":6381:6390   */\n  dup2\n    /* \"#utility.yul\":6375:6379   */\n  dup2\n    /* \"#utility.yul\":6371:6391   */\n  sub\n    /* \"#utility.yul\":6367:6368   */\n  0x00\n    /* \"#utility.yul\":6356:6365   */\n  dup4\n    /* \"#utility.yul\":6352:6369   */\n  add\n    /* \"#utility.yul\":6345:6392   */\n  mstore\n    /* \"#utility.yul\":6409:6540   */\n  tag_129\n    /* \"#utility.yul\":6535:6539   */\n  dup2\n    /* \"#utility.yul\":6409:6540   */\n  tag_63\n  jump\t// in\ntag_129:\n    /* \"#utility.yul\":6401:6540   */\n  swap1\n  pop\n    /* \"#utility.yul\":6128:6547   */\n  swap2\n  swap1\n  pop\n  jump\t// out\n    /* \"#utility.yul\":6553:6639   */\ntag_64:\n    /* \"#utility.yul\":6588:6595   */\n  0x00\n    /* \"#utility.yul\":6628:6632   */\n  0xff\n    /* \"#utility.yul\":6621:6626   */\n  dup3\n    /* \"#utility.yul\":6617:6633   */\n  and\n    /* \"#utility.yul\":6606:6633   */\n  swap1\n  pop\n    /* \"#utility.yul\":6553:6639   */\n  swap2\n  swap1\n  pop\n  jump\t// out\n    /* \"#utility.yul\":6645:6763   */\ntag_65:\n    /* \"#utility.yul\":6716:6738   */\n  tag_132\n    /* \"#utility.yul\":6732:6737   */\n  dup2\n    /* \"#utility.yul\":6716:6738   */\n  tag_64\n  jump\t// in\ntag_132:\n    /* \"#utility.yul\":6709:6714   */\n  dup2\n    /* \"#utility.yul\":6706:6739   */\n  eq\n    /* \"#utility.yul\":6696:6757   */\n  tag_133\n  jumpi\n    /* \"#utility.yul\":6753:6754   */\n  0x00\n    /* \"#utility.yul\":6750:6751   */\n  dup1\n    /* \"#utility.yul\":6743:6755   */\n  revert\n    /* \"#utility.yul\":6696:6757   */\ntag_133:\n    /* \"#utility.yul\":6645:6763   */\n  pop\n  jump\t// out\n    /* \"#utility.yul\":6769:6908   */\ntag_66:\n    /* \"#utility.yul\":6824:6829   */\n  0x00\n    /* \"#utility.yul\":6855:6861   */\n  dup2\n    /* \"#utility.yul\":6849:6862   */\n  mload\n    /* \"#utility.yul\":6840:6862   */\n  swap1\n  pop\n    /* \"#utility.yul\":6871:6902   */\n  tag_135\n    /* \"#utility.yul\":6896:6901   */\n  dup2\n    /* \"#utility.yul\":6871:6902   */\n  tag_65\n  jump\t// in\ntag_135:\n    /* \"#utility.yul\":6769:6908   */\n  swap3\n  swap2\n  pop\n  pop\n  jump\t// out\n    /* \"#utility.yul\":6914:7261   */\ntag_33:\n    /* \"#utility.yul\":6982:6988   */\n  0x00\n    /* \"#utility.yul\":7031:7033   */\n  0x20\n    /* \"#utility.yul\":7019:7028   */\n  dup3\n    /* \"#utility.yul\":7010:7017   */\n  dup5\n    /* \"#utility.yul\":7006:7029   */\n  sub\n    /* \"#utility.yul\":7002:7034   */\n  slt\n    /* \"#utility.yul\":6999:7118   */\n  iszero\n  tag_137\n  jumpi\n    /* \"#utility.yul\":7037:7116   */\n  tag_138\n  tag_43\n  jump\t// in\ntag_138:\n    /* \"#utility.yul\":6999:7118   */\ntag_137:\n    /* \"#utility.yul\":7157:7158   */\n  0x00\n    /* \"#utility.yul\":7182:7244   */\n  tag_139\n    /* \"#utility.yul\":7236:7243   */\n  dup5\n    /* \"#utility.yul\":7227:7233   */\n  dup3\n    /* \"#utility.yul\":7216:7225   */\n  dup6\n    /* \"#utility.yul\":7212:7234   */\n  add\n    /* \"#utility.yul\":7182:7244   */\n  tag_66\n  jump\t// in\ntag_139:\n    /* \"#utility.yul\":7172:7244   */\n  swap2\n  pop\n    /* \"#utility.yul\":7128:7254   */\n  pop\n    /* \"#utility.yul\":6914:7261   */\n  swap3\n  swap2\n  pop\n  pop\n  jump\t// out\n    /* \"contracts/Bank.sol\":252:5524  contract Bank is Ownable {... */\ntag_39:\n  mload(0x80)\n  mload(0xa0)\n  codecopy(0x00, dataOffset(sub_0), dataSize(sub_0))\n  0x00\n  assignImmutable(\"0xb5ec0f20465329e13a2d85270cb78f65c575ccff472e4a205299224e150cb7e2\")\n  0x00\n  assignImmutable(\"0x5123ab44a95b9e316b860f114ea520934458fa7bff216e60c6945263bff2b6f8\")\n  return(0x00, dataSize(sub_0))\nstop\n\nsub_0: assembly {\n        /* \"contracts/Bank.sol\":252:5524  contract Bank is Ownable {... */\n      mstore(0x40, 0x80)\n      jumpi(tag_1, lt(calldatasize, 0x04))\n      shr(0xe0, calldataload(0x00))\n      dup1\n      0x8f601f66\n      gt\n      tag_16\n      jumpi\n      dup1\n      0xbeabacc8\n      gt\n      tag_17\n      jumpi\n      dup1\n      0xbeabacc8\n      eq\n      tag_12\n      jumpi\n      dup1\n      0xe1254fba\n      eq\n      tag_13\n      jumpi\n      dup1\n      0xf2fde38b\n      eq\n      tag_14\n      jumpi\n      dup1\n      0xf3fef3a3\n      eq\n      tag_15\n      jumpi\n      jump(tag_2)\n    tag_17:\n      dup1\n      0x8f601f66\n      eq\n      tag_9\n      jumpi\n      dup1\n      0x95533f17\n      eq\n      tag_10\n      jumpi\n      dup1\n      0x98c61c37\n      eq\n      tag_11\n      jumpi\n      jump(tag_2)\n    tag_16:\n      dup1\n      0x2e9708e4\n      eq\n      tag_3\n      jumpi\n      dup1\n      0x3f47e662\n      eq\n      tag_4\n      jumpi\n      dup1\n      0x47e7ef24\n      eq\n      tag_5\n      jumpi\n      dup1\n      0x4f64b2be\n      eq\n      tag_6\n      jumpi\n      dup1\n      0x715018a6\n      eq\n      tag_7\n      jumpi\n      dup1\n      0x8da5cb5b\n      eq\n      tag_8\n      jumpi\n      jump(tag_2)\n    tag_1:\n      jumpi(tag_2, calldatasize)\n      stop\n    tag_2:\n      0x00\n      dup1\n      revert\n        /* \"contracts/Bank.sol\":847:894  mapping(address => Deposit) public eth_deposits */\n    tag_3:\n      callvalue\n      dup1\n      iszero\n      tag_20\n      jumpi\n      0x00\n      dup1\n      revert\n    tag_20:\n      pop\n      tag_21\n      0x04\n      dup1\n      calldatasize\n      sub\n      dup2\n      add\n      swap1\n      tag_22\n      swap2\n      swap1\n      tag_23\n      jump\t// in\n    tag_22:\n      tag_24\n      jump\t// in\n    tag_21:\n      mload(0x40)\n      tag_25\n      swap3\n      swap2\n      swap1\n      tag_26\n      jump\t// in\n    tag_25:\n      mload(0x40)\n      dup1\n      swap2\n      sub\n      swap1\n      return\n        /* \"contracts/Bank.sol\":320:343  uint8[] public decimals */\n    tag_4:\n      callvalue\n      dup1\n      iszero\n      tag_27\n      jumpi\n      0x00\n      dup1\n      revert\n    tag_27:\n      pop\n      tag_28\n      0x04\n      dup1\n      calldatasize\n      sub\n      dup2\n      add\n      swap1\n      tag_29\n      swap2\n      swap1\n      tag_30\n      jump\t// in\n    tag_29:\n      tag_31\n      jump\t// in\n    tag_28:\n      mload(0x40)\n      tag_32\n      swap2\n      swap1\n      tag_33\n      jump\t// in\n    tag_32:\n      mload(0x40)\n      dup1\n      swap2\n      sub\n      swap1\n      return\n        /* \"contracts/Bank.sol\":2455:3121  function deposit(address token, uint256 amount) external payable {... */\n    tag_5:\n      tag_34\n      0x04\n      dup1\n      calldatasize\n      sub\n      dup2\n      add\n      swap1\n      tag_35\n      swap2\n      swap1\n      tag_36\n      jump\t// in\n    tag_35:\n      tag_37\n      jump\t// in\n    tag_34:\n      stop\n        /* \"contracts/Bank.sol\":290:313  address[] public tokens */\n    tag_6:\n      callvalue\n      dup1\n      iszero\n      tag_38\n      jumpi\n      0x00\n      dup1\n      revert\n    tag_38:\n      pop\n      tag_39\n      0x04\n      dup1\n      calldatasize\n      sub\n      dup2\n      add\n      swap1\n      tag_40\n      swap2\n      swap1\n      tag_30\n      jump\t// in\n    tag_40:\n      tag_41\n      jump\t// in\n    tag_39:\n      mload(0x40)\n      tag_42\n      swap2\n      swap1\n      tag_43\n      jump\t// in\n    tag_42:\n      mload(0x40)\n      dup1\n      swap2\n      sub\n      swap1\n      return\n        /* \"@openzeppelin/contracts/access/Ownable.sol\":2293:2394  function renounceOwnership() public virtual onlyOwner {... */\n    tag_7:\n      callvalue\n      dup1\n      iszero\n      tag_44\n      jumpi\n      0x00\n      dup1\n      revert\n    tag_44:\n      pop\n      tag_45\n      tag_46\n      jump\t// in\n    tag_45:\n      stop\n        /* \"@openzeppelin/contracts/access/Ownable.sol\":1638:1723  function owner() public view virtual returns (address) {... */\n    tag_8:\n      callvalue\n      dup1\n      iszero\n      tag_47\n      jumpi\n      0x00\n      dup1\n      revert\n    tag_47:\n      pop\n      tag_48\n      tag_49\n      jump\t// in\n    tag_48:\n      mload(0x40)\n      tag_50\n      swap2\n      swap1\n      tag_43\n      jump\t// in\n    tag_50:\n      mload(0x40)\n      dup1\n      swap2\n      sub\n      swap1\n      return\n        /* \"contracts/Bank.sol\":718:781  mapping(address => mapping(address => Deposit)) public deposits */\n    tag_9:\n      callvalue\n      dup1\n      iszero\n      tag_51\n      jumpi\n      0x00\n      dup1\n      revert\n    tag_51:\n      pop\n      tag_52\n      0x04\n      dup1\n      calldatasize\n      sub\n      dup2\n      add\n      swap1\n      tag_53\n      swap2\n      swap1\n      tag_54\n      jump\t// in\n    tag_53:\n      tag_55\n      jump\t// in\n    tag_52:\n      mload(0x40)\n      tag_56\n      swap3\n      swap2\n      swap1\n      tag_26\n      jump\t// in\n    tag_56:\n      mload(0x40)\n      dup1\n      swap2\n      sub\n      swap1\n      return\n        /* \"contracts/Bank.sol\":1046:1091  mapping(address => bool) public isTokenInList */\n    tag_10:\n      callvalue\n      dup1\n      iszero\n      tag_57\n      jumpi\n      0x00\n      dup1\n      revert\n    tag_57:\n      pop\n      tag_58\n      0x04\n      dup1\n      calldatasize\n      sub\n      dup2\n      add\n      swap1\n      tag_59\n      swap2\n      swap1\n      tag_23\n      jump\t// in\n    tag_59:\n      tag_60\n      jump\t// in\n    tag_58:\n      mload(0x40)\n      tag_61\n      swap2\n      swap1\n      tag_62\n      jump\t// in\n    tag_61:\n      mload(0x40)\n      dup1\n      swap2\n      sub\n      swap1\n      return\n        /* \"contracts/Bank.sol\":947:986  mapping(address => Loan[]) public loans */\n    tag_11:\n      callvalue\n      dup1\n      iszero\n      tag_63\n      jumpi\n      0x00\n      dup1\n      revert\n    tag_63:\n      pop\n      tag_64\n      0x04\n      dup1\n      calldatasize\n      sub\n      dup2\n      add\n      swap1\n      tag_65\n      swap2\n      swap1\n      tag_36\n      jump\t// in\n    tag_65:\n      tag_66\n      jump\t// in\n    tag_64:\n      mload(0x40)\n      tag_67\n      swap7\n      swap6\n      swap5\n      swap4\n      swap3\n      swap2\n      swap1\n      tag_68\n      jump\t// in\n    tag_67:\n      mload(0x40)\n      dup1\n      swap2\n      sub\n      swap1\n      return\n        /* \"contracts/Bank.sol\":4213:5066  function transfer(address token, address payable to, uint256 amount) external payable {... */\n    tag_12:\n      tag_69\n      0x04\n      dup1\n      calldatasize\n      sub\n      dup2\n      add\n      swap1\n      tag_70\n      swap2\n      swap1\n      tag_71\n      jump\t// in\n    tag_70:\n      tag_72\n      jump\t// in\n    tag_69:\n      stop\n        /* \"contracts/Bank.sol\":5114:5444  function getDeposit(address token) external view returns (uint256) {... */\n    tag_13:\n      callvalue\n      dup1\n      iszero\n      tag_73\n      jumpi\n      0x00\n      dup1\n      revert\n    tag_73:\n      pop\n      tag_74\n      0x04\n      dup1\n      calldatasize\n      sub\n      dup2\n      add\n      swap1\n      tag_75\n      swap2\n      swap1\n      tag_23\n      jump\t// in\n    tag_75:\n      tag_76\n      jump\t// in\n    tag_74:\n      mload(0x40)\n      tag_77\n      swap2\n      swap1\n      tag_78\n      jump\t// in\n    tag_77:\n      mload(0x40)\n      dup1\n      swap2\n      sub\n      swap1\n      return\n        /* \"@openzeppelin/contracts/access/Ownable.sol\":2543:2758  function transferOwnership(address newOwner) public virtual onlyOwner {... */\n    tag_14:\n      callvalue\n      dup1\n      iszero\n      tag_79\n      jumpi\n      0x00\n      dup1\n      revert\n    tag_79:\n      pop\n      tag_80\n      0x04\n      dup1\n      calldatasize\n      sub\n      dup2\n      add\n      swap1\n      tag_81\n      swap2\n      swap1\n      tag_23\n      jump\t// in\n    tag_81:\n      tag_82\n      jump\t// in\n    tag_80:\n      stop\n        /* \"contracts/Bank.sol\":3167:4167  function withdraw(address token, uint256 amount) external {... */\n    tag_15:\n      callvalue\n      dup1\n      iszero\n      tag_83\n      jumpi\n      0x00\n      dup1\n      revert\n    tag_83:\n      pop\n      tag_84\n      0x04\n      dup1\n      calldatasize\n      sub\n      dup2\n      add\n      swap1\n      tag_85\n      swap2\n      swap1\n      tag_36\n      jump\t// in\n    tag_85:\n      tag_86\n      jump\t// in\n    tag_84:\n      stop\n        /* \"contracts/Bank.sol\":847:894  mapping(address => Deposit) public eth_deposits */\n    tag_24:\n      mstore(0x20, 0x04)\n      dup1\n      0x00\n      mstore\n      keccak256(0x00, 0x40)\n      0x00\n      swap2\n      pop\n      swap1\n      pop\n      dup1\n      0x00\n      add\n      sload\n      swap1\n      dup1\n      0x01\n      add\n      sload\n      swap1\n      pop\n      dup3\n      jump\t// out\n        /* \"contracts/Bank.sol\":320:343  uint8[] public decimals */\n    tag_31:\n      0x02\n      dup2\n      dup2\n      sload\n      dup2\n      lt\n      tag_87\n      jumpi\n      0x00\n      dup1\n      revert\n    tag_87:\n      swap1\n      0x00\n      mstore\n      keccak256(0x00, 0x20)\n      swap1\n      0x20\n      swap2\n      dup3\n      dup3\n      div\n      add\n      swap2\n      swap1\n      mod\n      swap2\n      pop\n      sload\n      swap1\n      0x0100\n      exp\n      swap1\n      div\n      0xff\n      and\n      dup2\n      jump\t// out\n        /* \"contracts/Bank.sol\":2455:3121  function deposit(address token, uint256 amount) external payable {... */\n    tag_37:\n        /* \"contracts/Bank.sol\":2552:2553  0 */\n      0x00\n        /* \"contracts/Bank.sol\":2535:2554  token == address(0) */\n      0xffffffffffffffffffffffffffffffffffffffff\n      and\n        /* \"contracts/Bank.sol\":2535:2540  token */\n      dup3\n        /* \"contracts/Bank.sol\":2535:2554  token == address(0) */\n      0xffffffffffffffffffffffffffffffffffffffff\n      and\n      sub\n        /* \"contracts/Bank.sol\":2531:3114  if (token == address(0)) {... */\n      tag_90\n      jumpi\n        /* \"contracts/Bank.sol\":2606:2615  msg.value */\n      callvalue\n        /* \"contracts/Bank.sol\":2571:2583  eth_deposits */\n      0x04\n        /* \"contracts/Bank.sol\":2571:2595  eth_deposits[msg.sender] */\n      0x00\n        /* \"contracts/Bank.sol\":2584:2594  msg.sender */\n      caller\n        /* \"contracts/Bank.sol\":2571:2595  eth_deposits[msg.sender] */\n      0xffffffffffffffffffffffffffffffffffffffff\n      and\n      0xffffffffffffffffffffffffffffffffffffffff\n      and\n      dup2\n      mstore\n      0x20\n      add\n      swap1\n      dup2\n      mstore\n      0x20\n      add\n      0x00\n      keccak256\n        /* \"contracts/Bank.sol\":2571:2602  eth_deposits[msg.sender].amount */\n      0x01\n      add\n      0x00\n        /* \"contracts/Bank.sol\":2571:2615  eth_deposits[msg.sender].amount += msg.value */\n      dup3\n      dup3\n      sload\n      tag_91\n      swap2\n      swap1\n      tag_92\n      jump\t// in\n    tag_91:\n      swap3\n      pop\n      pop\n      dup2\n      swap1\n      sstore\n      pop\n        /* \"contracts/Bank.sol\":2662:2682  getCurrentTimeView() */\n      tag_93\n        /* \"contracts/Bank.sol\":2662:2680  getCurrentTimeView */\n      tag_94\n        /* \"contracts/Bank.sol\":2662:2682  getCurrentTimeView() */\n      jump\t// in\n    tag_93:\n        /* \"contracts/Bank.sol\":2630:2642  eth_deposits */\n      0x04\n        /* \"contracts/Bank.sol\":2630:2654  eth_deposits[msg.sender] */\n      0x00\n        /* \"contracts/Bank.sol\":2643:2653  msg.sender */\n      caller\n        /* \"contracts/Bank.sol\":2630:2654  eth_deposits[msg.sender] */\n      0xffffffffffffffffffffffffffffffffffffffff\n      and\n      0xffffffffffffffffffffffffffffffffffffffff\n      and\n      dup2\n      mstore\n      0x20\n      add\n      swap1\n      dup2\n      mstore\n      0x20\n      add\n      0x00\n      keccak256\n        /* \"contracts/Bank.sol\":2630:2659  eth_deposits[msg.sender].time */\n      0x00\n      add\n        /* \"contracts/Bank.sol\":2630:2682  eth_deposits[msg.sender].time = getCurrentTimeView() */\n      dup2\n      swap1\n      sstore\n      pop\n        /* \"contracts/Bank.sol\":2711:2721  msg.sender */\n      caller\n        /* \"contracts/Bank.sol\":2702:2733  ETHSaved(msg.sender, msg.value) */\n      0xffffffffffffffffffffffffffffffffffffffff\n      and\n      0x3bc2cc3db9bc1fa24ad4420cf0201d4c07698bf5902c10e3e04a05d343e938c7\n        /* \"contracts/Bank.sol\":2723:2732  msg.value */\n      callvalue\n        /* \"contracts/Bank.sol\":2702:2733  ETHSaved(msg.sender, msg.value) */\n      mload(0x40)\n      tag_95\n      swap2\n      swap1\n      tag_78\n      jump\t// in\n    tag_95:\n      mload(0x40)\n      dup1\n      swap2\n      sub\n      swap1\n      log2\n        /* \"contracts/Bank.sol\":2531:3114  if (token == address(0)) {... */\n      jump(tag_96)\n    tag_90:\n        /* \"contracts/Bank.sol\":2774:2787  isTokenInList */\n      0x06\n        /* \"contracts/Bank.sol\":2774:2794  isTokenInList[token] */\n      0x00\n        /* \"contracts/Bank.sol\":2788:2793  token */\n      dup4\n        /* \"contracts/Bank.sol\":2774:2794  isTokenInList[token] */\n      0xffffffffffffffffffffffffffffffffffffffff\n      and\n      0xffffffffffffffffffffffffffffffffffffffff\n      and\n      dup2\n      mstore\n      0x20\n      add\n      swap1\n      dup2\n      mstore\n      0x20\n      add\n      0x00\n      keccak256\n      0x00\n      swap1\n      sload\n      swap1\n      0x0100\n      exp\n      swap1\n      div\n      0xff\n      and\n        /* \"contracts/Bank.sol\":2766:2812  require(isTokenInList[token], \"Invalid token\") */\n      tag_97\n      jumpi\n      mload(0x40)\n      0x08c379a000000000000000000000000000000000000000000000000000000000\n      dup2\n      mstore\n      0x04\n      add\n      tag_98\n      swap1\n      tag_99\n      jump\t// in\n    tag_98:\n      mload(0x40)\n      dup1\n      swap2\n      sub\n      swap1\n      revert\n    tag_97:\n        /* \"contracts/Bank.sol\":2842:2847  token */\n      dup2\n        /* \"contracts/Bank.sol\":2835:2861  IERC20(token).transferFrom */\n      0xffffffffffffffffffffffffffffffffffffffff\n      and\n      0x23b872dd\n        /* \"contracts/Bank.sol\":2862:2872  msg.sender */\n      caller\n        /* \"contracts/Bank.sol\":2882:2886  this */\n      address\n        /* \"contracts/Bank.sol\":2889:2895  amount */\n      dup5\n        /* \"contracts/Bank.sol\":2835:2896  IERC20(token).transferFrom(msg.sender, address(this), amount) */\n      mload(0x40)\n      dup5\n      0xffffffff\n      and\n      0xe0\n      shl\n      dup2\n      mstore\n      0x04\n      add\n      tag_100\n      swap4\n      swap3\n      swap2\n      swap1\n      tag_101\n      jump\t// in\n    tag_100:\n      0x20\n      mload(0x40)\n      dup1\n      dup4\n      sub\n      dup2\n      0x00\n      dup8\n      gas\n      call\n      iszero\n      dup1\n      iszero\n      tag_103\n      jumpi\n      returndatasize\n      0x00\n      dup1\n      returndatacopy\n      revert(0x00, returndatasize)\n    tag_103:\n      pop\n      pop\n      pop\n      pop\n      mload(0x40)\n      returndatasize\n      not(0x1f)\n      0x1f\n      dup3\n      add\n      and\n      dup3\n      add\n      dup1\n      0x40\n      mstore\n      pop\n      dup2\n      add\n      swap1\n      tag_104\n      swap2\n      swap1\n      tag_105\n      jump\t// in\n    tag_104:\n        /* \"contracts/Bank.sol\":2827:2916  require(IERC20(token).transferFrom(msg.sender, address(this), amount), \"Transfer failed\") */\n      tag_106\n      jumpi\n      mload(0x40)\n      0x08c379a000000000000000000000000000000000000000000000000000000000\n      dup2\n      mstore\n      0x04\n      add\n      tag_107\n      swap1\n      tag_108\n      jump\t// in\n    tag_107:\n      mload(0x40)\n      dup1\n      swap2\n      sub\n      swap1\n      revert\n    tag_106:\n        /* \"contracts/Bank.sol\":2969:2975  amount */\n      dup1\n        /* \"contracts/Bank.sol\":2931:2939  deposits */\n      0x03\n        /* \"contracts/Bank.sol\":2931:2946  deposits[token] */\n      0x00\n        /* \"contracts/Bank.sol\":2940:2945  token */\n      dup5\n        /* \"contracts/Bank.sol\":2931:2946  deposits[token] */\n      0xffffffffffffffffffffffffffffffffffffffff\n      and\n      0xffffffffffffffffffffffffffffffffffffffff\n      and\n      dup2\n      mstore\n      0x20\n      add\n      swap1\n      dup2\n      mstore\n      0x20\n      add\n      0x00\n      keccak256\n        /* \"contracts/Bank.sol\":2931:2958  deposits[token][msg.sender] */\n      0x00\n        /* \"contracts/Bank.sol\":2947:2957  msg.sender */\n      caller\n        /* \"contracts/Bank.sol\":2931:2958  deposits[token][msg.sender] */\n      0xffffffffffffffffffffffffffffffffffffffff\n      and\n      0xffffffffffffffffffffffffffffffffffffffff\n      and\n      dup2\n      mstore\n      0x20\n      add\n      swap1\n      dup2\n      mstore\n      0x20\n      add\n      0x00\n      keccak256\n        /* \"contracts/Bank.sol\":2931:2965  deposits[token][msg.sender].amount */\n      0x01\n      add\n      0x00\n        /* \"contracts/Bank.sol\":2931:2975  deposits[token][msg.sender].amount += amount */\n      dup3\n      dup3\n      sload\n      tag_109\n      swap2\n      swap1\n      tag_92\n      jump\t// in\n    tag_109:\n      swap3\n      pop\n      pop\n      dup2\n      swap1\n      sstore\n      pop\n        /* \"contracts/Bank.sol\":3026:3046  getCurrentTimeView() */\n      tag_110\n        /* \"contracts/Bank.sol\":3026:3044  getCurrentTimeView */\n      tag_94\n        /* \"contracts/Bank.sol\":3026:3046  getCurrentTimeView() */\n      jump\t// in\n    tag_110:\n        /* \"contracts/Bank.sol\":2990:2998  deposits */\n      0x03\n        /* \"contracts/Bank.sol\":2990:3005  deposits[token] */\n      0x00\n        /* \"contracts/Bank.sol\":2999:3004  token */\n      dup5\n        /* \"contracts/Bank.sol\":2990:3005  deposits[token] */\n      0xffffffffffffffffffffffffffffffffffffffff\n      and\n      0xffffffffffffffffffffffffffffffffffffffff\n      and\n      dup2\n      mstore\n      0x20\n      add\n      swap1\n      dup2\n      mstore\n      0x20\n      add\n      0x00\n      keccak256\n        /* \"contracts/Bank.sol\":2990:3017  deposits[token][msg.sender] */\n      0x00\n        /* \"contracts/Bank.sol\":3006:3016  msg.sender */\n      caller\n        /* \"contracts/Bank.sol\":2990:3017  deposits[token][msg.sender] */\n      0xffffffffffffffffffffffffffffffffffffffff\n      and\n      0xffffffffffffffffffffffffffffffffffffffff\n      and\n      dup2\n      mstore\n      0x20\n      add\n      swap1\n      dup2\n      mstore\n      0x20\n      add\n      0x00\n      keccak256\n        /* \"contracts/Bank.sol\":2990:3022  deposits[token][msg.sender].time */\n      0x00\n      add\n      0x00\n        /* \"contracts/Bank.sol\":2990:3046  deposits[token][msg.sender].time += getCurrentTimeView() */\n      dup3\n      dup3\n      sload\n      tag_111\n      swap2\n      swap1\n      tag_92\n      jump\t// in\n    tag_111:\n      swap3\n      pop\n      pop\n      dup2\n      swap1\n      sstore\n      pop\n        /* \"contracts/Bank.sol\":3088:3093  token */\n      dup2\n        /* \"contracts/Bank.sol\":3066:3102  Deposited(msg.sender, token, amount) */\n      0xffffffffffffffffffffffffffffffffffffffff\n      and\n        /* \"contracts/Bank.sol\":3076:3086  msg.sender */\n      caller\n        /* \"contracts/Bank.sol\":3066:3102  Deposited(msg.sender, token, amount) */\n      0xffffffffffffffffffffffffffffffffffffffff\n      and\n      0x8752a472e571a816aea92eec8dae9baf628e840f4929fbcc2d155e6233ff68a7\n        /* \"contracts/Bank.sol\":3095:3101  amount */\n      dup4\n        /* \"contracts/Bank.sol\":3066:3102  Deposited(msg.sender, token, amount) */\n      mload(0x40)\n      tag_112\n      swap2\n      swap1\n      tag_78\n      jump\t// in\n    tag_112:\n      mload(0x40)\n      dup1\n      swap2\n      sub\n      swap1\n      log3\n        /* \"contracts/Bank.sol\":2531:3114  if (token == address(0)) {... */\n    tag_96:\n        /* \"contracts/Bank.sol\":2455:3121  function deposit(address token, uint256 amount) external payable {... */\n      pop\n      pop\n      jump\t// out\n        /* \"contracts/Bank.sol\":290:313  address[] public tokens */\n    tag_41:\n      0x01\n      dup2\n      dup2\n      sload\n      dup2\n      lt\n      tag_113\n      jumpi\n      0x00\n      dup1\n      revert\n    tag_113:\n      swap1\n      0x00\n      mstore\n      keccak256(0x00, 0x20)\n      add\n      0x00\n      swap2\n      pop\n      sload\n      swap1\n      0x0100\n      exp\n      swap1\n      div\n      0xffffffffffffffffffffffffffffffffffffffff\n      and\n      dup2\n      jump\t// out\n        /* \"@openzeppelin/contracts/access/Ownable.sol\":2293:2394  function renounceOwnership() public virtual onlyOwner {... */\n    tag_46:\n        /* \"@openzeppelin/contracts/access/Ownable.sol\":1531:1544  _checkOwner() */\n      tag_116\n        /* \"@openzeppelin/contracts/access/Ownable.sol\":1531:1542  _checkOwner */\n      tag_117\n        /* \"@openzeppelin/contracts/access/Ownable.sol\":1531:1544  _checkOwner() */\n      jump\t// in\n    tag_116:\n        /* \"@openzeppelin/contracts/access/Ownable.sol\":2357:2387  _transferOwnership(address(0)) */\n      tag_119\n        /* \"@openzeppelin/contracts/access/Ownable.sol\":2384:2385  0 */\n      0x00\n        /* \"@openzeppelin/contracts/access/Ownable.sol\":2357:2375  _transferOwnership */\n      tag_120\n        /* \"@openzeppelin/contracts/access/Ownable.sol\":2357:2387  _transferOwnership(address(0)) */\n      jump\t// in\n    tag_119:\n        /* \"@openzeppelin/contracts/access/Ownable.sol\":2293:2394  function renounceOwnership() public virtual onlyOwner {... */\n      jump\t// out\n        /* \"@openzeppelin/contracts/access/Ownable.sol\":1638:1723  function owner() public view virtual returns (address) {... */\n    tag_49:\n        /* \"@openzeppelin/contracts/access/Ownable.sol\":1684:1691  address */\n      0x00\n        /* \"@openzeppelin/contracts/access/Ownable.sol\":1710:1716  _owner */\n      dup1\n      0x00\n      swap1\n      sload\n      swap1\n      0x0100\n      exp\n      swap1\n      div\n      0xffffffffffffffffffffffffffffffffffffffff\n      and\n        /* \"@openzeppelin/contracts/access/Ownable.sol\":1703:1716  return _owner */\n      swap1\n      pop\n        /* \"@openzeppelin/contracts/access/Ownable.sol\":1638:1723  function owner() public view virtual returns (address) {... */\n      swap1\n      jump\t// out\n        /* \"contracts/Bank.sol\":718:781  mapping(address => mapping(address => Deposit)) public deposits */\n    tag_55:\n      mstore(0x20, 0x03)\n      dup2\n      0x00\n      mstore\n      mstore(0x20, keccak256(0x00, 0x40))\n      dup1\n      0x00\n      mstore\n      keccak256(0x00, 0x40)\n      0x00\n      swap2\n      pop\n      swap2\n      pop\n      pop\n      dup1\n      0x00\n      add\n      sload\n      swap1\n      dup1\n      0x01\n      add\n      sload\n      swap1\n      pop\n      dup3\n      jump\t// out\n        /* \"contracts/Bank.sol\":1046:1091  mapping(address => bool) public isTokenInList */\n    tag_60:\n      mstore(0x20, 0x06)\n      dup1\n      0x00\n      mstore\n      keccak256(0x00, 0x40)\n      0x00\n      swap2\n      pop\n      sload\n      swap1\n      0x0100\n      exp\n      swap1\n      div\n      0xff\n      and\n      dup2\n      jump\t// out\n        /* \"contracts/Bank.sol\":947:986  mapping(address => Loan[]) public loans */\n    tag_66:\n      mstore(0x20, 0x05)\n      dup2\n      0x00\n      mstore\n      keccak256(0x00, 0x40)\n      dup2\n      dup2\n      sload\n      dup2\n      lt\n      tag_122\n      jumpi\n      0x00\n      dup1\n      revert\n    tag_122:\n      swap1\n      0x00\n      mstore\n      keccak256(0x00, 0x20)\n      swap1\n      0x06\n      mul\n      add\n      0x00\n      swap2\n      pop\n      swap2\n      pop\n      pop\n      dup1\n      0x00\n      add\n      0x00\n      swap1\n      sload\n      swap1\n      0x0100\n      exp\n      swap1\n      div\n      0xffffffffffffffffffffffffffffffffffffffff\n      and\n      swap1\n      dup1\n      0x01\n      add\n      0x00\n      swap1\n      sload\n      swap1\n      0x0100\n      exp\n      swap1\n      div\n      0xffffffffffffffffffffffffffffffffffffffff\n      and\n      swap1\n      dup1\n      0x02\n      add\n      sload\n      swap1\n      dup1\n      0x03\n      add\n      0x00\n      swap1\n      sload\n      swap1\n      0x0100\n      exp\n      swap1\n      div\n      0xffffffffffffffffffffffffffffffffffffffff\n      and\n      swap1\n      dup1\n      0x04\n      add\n      sload\n      swap1\n      dup1\n      0x05\n      add\n      0x00\n      swap1\n      sload\n      swap1\n      0x0100\n      exp\n      swap1\n      div\n      0xff\n      and\n      swap1\n      pop\n      dup7\n      jump\t// out\n        /* \"contracts/Bank.sol\":4213:5066  function transfer(address token, address payable to, uint256 amount) external payable {... */\n    tag_72:\n        /* \"contracts/Bank.sol\":4327:4328  0 */\n      0x00\n        /* \"contracts/Bank.sol\":4318:4324  amount */\n      dup2\n        /* \"contracts/Bank.sol\":4318:4328  amount > 0 */\n      gt\n        /* \"contracts/Bank.sol\":4310:4362  require(amount > 0, \"Amount must be greater than 0\") */\n      tag_125\n      jumpi\n      mload(0x40)\n      0x08c379a000000000000000000000000000000000000000000000000000000000\n      dup2\n      mstore\n      0x04\n      add\n      tag_126\n      swap1\n      tag_127\n      jump\t// in\n    tag_126:\n      mload(0x40)\n      dup1\n      swap2\n      sub\n      swap1\n      revert\n    tag_125:\n        /* \"contracts/Bank.sol\":4395:4396  0 */\n      0x00\n        /* \"contracts/Bank.sol\":4378:4397  token == address(0) */\n      0xffffffffffffffffffffffffffffffffffffffff\n      and\n        /* \"contracts/Bank.sol\":4378:4383  token */\n      dup4\n        /* \"contracts/Bank.sol\":4378:4397  token == address(0) */\n      0xffffffffffffffffffffffffffffffffffffffff\n      and\n      sub\n        /* \"contracts/Bank.sol\":4374:5059  if (token == address(0)) {... */\n      tag_128\n      jumpi\n        /* \"contracts/Bank.sol\":4466:4473  1 ether */\n      0x0de0b6b3a7640000\n        /* \"contracts/Bank.sol\":4457:4463  amount */\n      dup2\n        /* \"contracts/Bank.sol\":4457:4473  amount * 1 ether */\n      tag_129\n      swap2\n      swap1\n      tag_130\n      jump\t// in\n    tag_129:\n        /* \"contracts/Bank.sol\":4422:4434  eth_deposits */\n      0x04\n        /* \"contracts/Bank.sol\":4422:4446  eth_deposits[msg.sender] */\n      0x00\n        /* \"contracts/Bank.sol\":4435:4445  msg.sender */\n      caller\n        /* \"contracts/Bank.sol\":4422:4446  eth_deposits[msg.sender] */\n      0xffffffffffffffffffffffffffffffffffffffff\n      and\n      0xffffffffffffffffffffffffffffffffffffffff\n      and\n      dup2\n      mstore\n      0x20\n      add\n      swap1\n      dup2\n      mstore\n      0x20\n      add\n      0x00\n      keccak256\n        /* \"contracts/Bank.sol\":4422:4453  eth_deposits[msg.sender].amount */\n      0x01\n      add\n      sload\n        /* \"contracts/Bank.sol\":4422:4473  eth_deposits[msg.sender].amount >= amount * 1 ether */\n      lt\n      iszero\n        /* \"contracts/Bank.sol\":4414:4498  require(eth_deposits[msg.sender].amount >= amount * 1 ether, \"Insufficient balance\") */\n      tag_131\n      jumpi\n      mload(0x40)\n      0x08c379a000000000000000000000000000000000000000000000000000000000\n      dup2\n      mstore\n      0x04\n      add\n      tag_132\n      swap1\n      tag_133\n      jump\t// in\n    tag_132:\n      mload(0x40)\n      dup1\n      swap2\n      sub\n      swap1\n      revert\n    tag_131:\n        /* \"contracts/Bank.sol\":4557:4564  1 ether */\n      0x0de0b6b3a7640000\n        /* \"contracts/Bank.sol\":4548:4554  amount */\n      dup2\n        /* \"contracts/Bank.sol\":4548:4564  amount * 1 ether */\n      tag_134\n      swap2\n      swap1\n      tag_130\n      jump\t// in\n    tag_134:\n        /* \"contracts/Bank.sol\":4513:4525  eth_deposits */\n      0x04\n        /* \"contracts/Bank.sol\":4513:4537  eth_deposits[msg.sender] */\n      0x00\n        /* \"contracts/Bank.sol\":4526:4536  msg.sender */\n      caller\n        /* \"contracts/Bank.sol\":4513:4537  eth_deposits[msg.sender] */\n      0xffffffffffffffffffffffffffffffffffffffff\n      and\n      0xffffffffffffffffffffffffffffffffffffffff\n      and\n      dup2\n      mstore\n      0x20\n      add\n      swap1\n      dup2\n      mstore\n      0x20\n      add\n      0x00\n      keccak256\n        /* \"contracts/Bank.sol\":4513:4544  eth_deposits[msg.sender].amount */\n      0x01\n      add\n      0x00\n        /* \"contracts/Bank.sol\":4513:4564  eth_deposits[msg.sender].amount -= amount * 1 ether */\n      dup3\n      dup3\n      sload\n      tag_135\n      swap2\n      swap1\n      tag_136\n      jump\t// in\n    tag_135:\n      swap3\n      pop\n      pop\n      dup2\n      swap1\n      sstore\n      pop\n        /* \"contracts/Bank.sol\":4615:4622  1 ether */\n      0x0de0b6b3a7640000\n        /* \"contracts/Bank.sol\":4606:4612  amount */\n      dup2\n        /* \"contracts/Bank.sol\":4606:4622  amount * 1 ether */\n      tag_137\n      swap2\n      swap1\n      tag_130\n      jump\t// in\n    tag_137:\n        /* \"contracts/Bank.sol\":4579:4591  eth_deposits */\n      0x04\n        /* \"contracts/Bank.sol\":4579:4595  eth_deposits[to] */\n      0x00\n        /* \"contracts/Bank.sol\":4592:4594  to */\n      dup5\n        /* \"contracts/Bank.sol\":4579:4595  eth_deposits[to] */\n      0xffffffffffffffffffffffffffffffffffffffff\n      and\n      0xffffffffffffffffffffffffffffffffffffffff\n      and\n      dup2\n      mstore\n      0x20\n      add\n      swap1\n      dup2\n      mstore\n      0x20\n      add\n      0x00\n      keccak256\n        /* \"contracts/Bank.sol\":4579:4602  eth_deposits[to].amount */\n      0x01\n      add\n      0x00\n        /* \"contracts/Bank.sol\":4579:4622  eth_deposits[to].amount += amount * 1 ether */\n      dup3\n      dup3\n      sload\n      tag_138\n      swap2\n      swap1\n      tag_92\n      jump\t// in\n    tag_138:\n      swap3\n      pop\n      pop\n      dup2\n      swap1\n      sstore\n      pop\n        /* \"contracts/Bank.sol\":4669:4671  to */\n      dup2\n        /* \"contracts/Bank.sol\":4642:4680  ETHTransferred(msg.sender, to, amount) */\n      0xffffffffffffffffffffffffffffffffffffffff\n      and\n        /* \"contracts/Bank.sol\":4657:4667  msg.sender */\n      caller\n        /* \"contracts/Bank.sol\":4642:4680  ETHTransferred(msg.sender, to, amount) */\n      0xffffffffffffffffffffffffffffffffffffffff\n      and\n      0x8dec4e7cfc87eced5c05eafa206697292193ede25a52287bf5fc6cbb0fd84cfa\n        /* \"contracts/Bank.sol\":4673:4679  amount */\n      dup4\n        /* \"contracts/Bank.sol\":4642:4680  ETHTransferred(msg.sender, to, amount) */\n      mload(0x40)\n      tag_139\n      swap2\n      swap1\n      tag_78\n      jump\t// in\n    tag_139:\n      mload(0x40)\n      dup1\n      swap2\n      sub\n      swap1\n      log3\n        /* \"contracts/Bank.sol\":4374:5059  if (token == address(0)) {... */\n      jump(tag_140)\n    tag_128:\n        /* \"contracts/Bank.sol\":4721:4734  isTokenInList */\n      0x06\n        /* \"contracts/Bank.sol\":4721:4741  isTokenInList[token] */\n      0x00\n        /* \"contracts/Bank.sol\":4735:4740  token */\n      dup5\n        /* \"contracts/Bank.sol\":4721:4741  isTokenInList[token] */\n      0xffffffffffffffffffffffffffffffffffffffff\n      and\n      0xffffffffffffffffffffffffffffffffffffffff\n      and\n      dup2\n      mstore\n      0x20\n      add\n      swap1\n      dup2\n      mstore\n      0x20\n      add\n      0x00\n      keccak256\n      0x00\n      swap1\n      sload\n      swap1\n      0x0100\n      exp\n      swap1\n      div\n      0xff\n      and\n        /* \"contracts/Bank.sol\":4713:4759  require(isTokenInList[token], \"Invalid token\") */\n      tag_141\n      jumpi\n      mload(0x40)\n      0x08c379a000000000000000000000000000000000000000000000000000000000\n      dup2\n      mstore\n      0x04\n      add\n      tag_142\n      swap1\n      tag_99\n      jump\t// in\n    tag_142:\n      mload(0x40)\n      dup1\n      swap2\n      sub\n      swap1\n      revert\n    tag_141:\n        /* \"contracts/Bank.sol\":4829:4836  1 ether */\n      0x0de0b6b3a7640000\n        /* \"contracts/Bank.sol\":4820:4826  amount */\n      dup2\n        /* \"contracts/Bank.sol\":4820:4836  amount * 1 ether */\n      tag_143\n      swap2\n      swap1\n      tag_130\n      jump\t// in\n    tag_143:\n        /* \"contracts/Bank.sol\":4782:4790  deposits */\n      0x03\n        /* \"contracts/Bank.sol\":4782:4797  deposits[token] */\n      0x00\n        /* \"contracts/Bank.sol\":4791:4796  token */\n      dup6\n        /* \"contracts/Bank.sol\":4782:4797  deposits[token] */\n      0xffffffffffffffffffffffffffffffffffffffff\n      and\n      0xffffffffffffffffffffffffffffffffffffffff\n      and\n      dup2\n      mstore\n      0x20\n      add\n      swap1\n      dup2\n      mstore\n      0x20\n      add\n      0x00\n      keccak256\n        /* \"contracts/Bank.sol\":4782:4809  deposits[token][msg.sender] */\n      0x00\n        /* \"contracts/Bank.sol\":4798:4808  msg.sender */\n      caller\n        /* \"contracts/Bank.sol\":4782:4809  deposits[token][msg.sender] */\n      0xffffffffffffffffffffffffffffffffffffffff\n      and\n      0xffffffffffffffffffffffffffffffffffffffff\n      and\n      dup2\n      mstore\n      0x20\n      add\n      swap1\n      dup2\n      mstore\n      0x20\n      add\n      0x00\n      keccak256\n        /* \"contracts/Bank.sol\":4782:4816  deposits[token][msg.sender].amount */\n      0x01\n      add\n      sload\n        /* \"contracts/Bank.sol\":4782:4836  deposits[token][msg.sender].amount >= amount * 1 ether */\n      lt\n      iszero\n        /* \"contracts/Bank.sol\":4774:4861  require(deposits[token][msg.sender].amount >= amount * 1 ether, \"Insufficient balance\") */\n      tag_144\n      jumpi\n      mload(0x40)\n      0x08c379a000000000000000000000000000000000000000000000000000000000\n      dup2\n      mstore\n      0x04\n      add\n      tag_145\n      swap1\n      tag_133\n      jump\t// in\n    tag_145:\n      mload(0x40)\n      dup1\n      swap2\n      sub\n      swap1\n      revert\n    tag_144:\n        /* \"contracts/Bank.sol\":4923:4930  1 ether */\n      0x0de0b6b3a7640000\n        /* \"contracts/Bank.sol\":4914:4920  amount */\n      dup2\n        /* \"contracts/Bank.sol\":4914:4930  amount * 1 ether */\n      tag_146\n      swap2\n      swap1\n      tag_130\n      jump\t// in\n    tag_146:\n        /* \"contracts/Bank.sol\":4876:4884  deposits */\n      0x03\n        /* \"contracts/Bank.sol\":4876:4891  deposits[token] */\n      0x00\n        /* \"contracts/Bank.sol\":4885:4890  token */\n      dup6\n        /* \"contracts/Bank.sol\":4876:4891  deposits[token] */\n      0xffffffffffffffffffffffffffffffffffffffff\n      and\n      0xffffffffffffffffffffffffffffffffffffffff\n      and\n      dup2\n      mstore\n      0x20\n      add\n      swap1\n      dup2\n      mstore\n      0x20\n      add\n      0x00\n      keccak256\n        /* \"contracts/Bank.sol\":4876:4903  deposits[token][msg.sender] */\n      0x00\n        /* \"contracts/Bank.sol\":4892:4902  msg.sender */\n      caller\n        /* \"contracts/Bank.sol\":4876:4903  deposits[token][msg.sender] */\n      0xffffffffffffffffffffffffffffffffffffffff\n      and\n      0xffffffffffffffffffffffffffffffffffffffff\n      and\n      dup2\n      mstore\n      0x20\n      add\n      swap1\n      dup2\n      mstore\n      0x20\n      add\n      0x00\n      keccak256\n        /* \"contracts/Bank.sol\":4876:4910  deposits[token][msg.sender].amount */\n      0x01\n      add\n      0x00\n        /* \"contracts/Bank.sol\":4876:4930  deposits[token][msg.sender].amount -= amount * 1 ether */\n      dup3\n      dup3\n      sload\n      tag_147\n      swap2\n      swap1\n      tag_136\n      jump\t// in\n    tag_147:\n      swap3\n      pop\n      pop\n      dup2\n      swap1\n      sstore\n      pop\n        /* \"contracts/Bank.sol\":4984:4991  1 ether */\n      0x0de0b6b3a7640000\n        /* \"contracts/Bank.sol\":4975:4981  amount */\n      dup2\n        /* \"contracts/Bank.sol\":4975:4991  amount * 1 ether */\n      tag_148\n      swap2\n      swap1\n      tag_130\n      jump\t// in\n    tag_148:\n        /* \"contracts/Bank.sol\":4945:4953  deposits */\n      0x03\n        /* \"contracts/Bank.sol\":4945:4960  deposits[token] */\n      0x00\n        /* \"contracts/Bank.sol\":4954:4959  token */\n      dup6\n        /* \"contracts/Bank.sol\":4945:4960  deposits[token] */\n      0xffffffffffffffffffffffffffffffffffffffff\n      and\n      0xffffffffffffffffffffffffffffffffffffffff\n      and\n      dup2\n      mstore\n      0x20\n      add\n      swap1\n      dup2\n      mstore\n      0x20\n      add\n      0x00\n      keccak256\n        /* \"contracts/Bank.sol\":4945:4964  deposits[token][to] */\n      0x00\n        /* \"contracts/Bank.sol\":4961:4963  to */\n      dup5\n        /* \"contracts/Bank.sol\":4945:4964  deposits[token][to] */\n      0xffffffffffffffffffffffffffffffffffffffff\n      and\n      0xffffffffffffffffffffffffffffffffffffffff\n      and\n      dup2\n      mstore\n      0x20\n      add\n      swap1\n      dup2\n      mstore\n      0x20\n      add\n      0x00\n      keccak256\n        /* \"contracts/Bank.sol\":4945:4971  deposits[token][to].amount */\n      0x01\n      add\n      0x00\n        /* \"contracts/Bank.sol\":4945:4991  deposits[token][to].amount += amount * 1 ether */\n      dup3\n      dup3\n      sload\n      tag_149\n      swap2\n      swap1\n      tag_92\n      jump\t// in\n    tag_149:\n      swap3\n      pop\n      pop\n      dup2\n      swap1\n      sstore\n      pop\n        /* \"contracts/Bank.sol\":5033:5038  token */\n      dup3\n        /* \"contracts/Bank.sol\":5011:5047  Deposited(msg.sender, token, amount) */\n      0xffffffffffffffffffffffffffffffffffffffff\n      and\n        /* \"contracts/Bank.sol\":5021:5031  msg.sender */\n      caller\n        /* \"contracts/Bank.sol\":5011:5047  Deposited(msg.sender, token, amount) */\n      0xffffffffffffffffffffffffffffffffffffffff\n      and\n      0x8752a472e571a816aea92eec8dae9baf628e840f4929fbcc2d155e6233ff68a7\n        /* \"contracts/Bank.sol\":5040:5046  amount */\n      dup4\n        /* \"contracts/Bank.sol\":5011:5047  Deposited(msg.sender, token, amount) */\n      mload(0x40)\n      tag_150\n      swap2\n      swap1\n      tag_78\n      jump\t// in\n    tag_150:\n      mload(0x40)\n      dup1\n      swap2\n      sub\n      swap1\n      log3\n        /* \"contracts/Bank.sol\":4374:5059  if (token == address(0)) {... */\n    tag_140:\n        /* \"contracts/Bank.sol\":4213:5066  function transfer(address token, address payable to, uint256 amount) external payable {... */\n      pop\n      pop\n      pop\n      jump\t// out\n        /* \"contracts/Bank.sol\":5114:5444  function getDeposit(address token) external view returns (uint256) {... */\n    tag_76:\n        /* \"contracts/Bank.sol\":5172:5179  uint256 */\n      0x00\n        /* \"contracts/Bank.sol\":5213:5214  0 */\n      dup1\n        /* \"contracts/Bank.sol\":5196:5215  token == address(0) */\n      0xffffffffffffffffffffffffffffffffffffffff\n      and\n        /* \"contracts/Bank.sol\":5196:5201  token */\n      dup3\n        /* \"contracts/Bank.sol\":5196:5215  token == address(0) */\n      0xffffffffffffffffffffffffffffffffffffffff\n      and\n      sub\n        /* \"contracts/Bank.sol\":5192:5437  if (token == address(0)) {... */\n      tag_152\n      jumpi\n        /* \"contracts/Bank.sol\":5273:5280  1 ether */\n      0x0de0b6b3a7640000\n        /* \"contracts/Bank.sol\":5239:5251  eth_deposits */\n      0x04\n        /* \"contracts/Bank.sol\":5239:5263  eth_deposits[msg.sender] */\n      0x00\n        /* \"contracts/Bank.sol\":5252:5262  msg.sender */\n      caller\n        /* \"contracts/Bank.sol\":5239:5263  eth_deposits[msg.sender] */\n      0xffffffffffffffffffffffffffffffffffffffff\n      and\n      0xffffffffffffffffffffffffffffffffffffffff\n      and\n      dup2\n      mstore\n      0x20\n      add\n      swap1\n      dup2\n      mstore\n      0x20\n      add\n      0x00\n      keccak256\n        /* \"contracts/Bank.sol\":5239:5270  eth_deposits[msg.sender].amount */\n      0x01\n      add\n      sload\n        /* \"contracts/Bank.sol\":5239:5280  eth_deposits[msg.sender].amount / 1 ether */\n      tag_153\n      swap2\n      swap1\n      tag_154\n      jump\t// in\n    tag_153:\n        /* \"contracts/Bank.sol\":5232:5280  return eth_deposits[msg.sender].amount / 1 ether */\n      swap1\n      pop\n      jump(tag_151)\n        /* \"contracts/Bank.sol\":5192:5437  if (token == address(0)) {... */\n    tag_152:\n        /* \"contracts/Bank.sol\":5321:5334  isTokenInList */\n      0x06\n        /* \"contracts/Bank.sol\":5321:5341  isTokenInList[token] */\n      0x00\n        /* \"contracts/Bank.sol\":5335:5340  token */\n      dup4\n        /* \"contracts/Bank.sol\":5321:5341  isTokenInList[token] */\n      0xffffffffffffffffffffffffffffffffffffffff\n      and\n      0xffffffffffffffffffffffffffffffffffffffff\n      and\n      dup2\n      mstore\n      0x20\n      add\n      swap1\n      dup2\n      mstore\n      0x20\n      add\n      0x00\n      keccak256\n      0x00\n      swap1\n      sload\n      swap1\n      0x0100\n      exp\n      swap1\n      div\n      0xff\n      and\n        /* \"contracts/Bank.sol\":5313:5359  require(isTokenInList[token], \"Invalid token\") */\n      tag_156\n      jumpi\n      mload(0x40)\n      0x08c379a000000000000000000000000000000000000000000000000000000000\n      dup2\n      mstore\n      0x04\n      add\n      tag_157\n      swap1\n      tag_99\n      jump\t// in\n    tag_157:\n      mload(0x40)\n      dup1\n      swap2\n      sub\n      swap1\n      revert\n    tag_156:\n        /* \"contracts/Bank.sol\":5418:5425  1 ether */\n      0x0de0b6b3a7640000\n        /* \"contracts/Bank.sol\":5381:5389  deposits */\n      0x03\n        /* \"contracts/Bank.sol\":5381:5396  deposits[token] */\n      0x00\n        /* \"contracts/Bank.sol\":5390:5395  token */\n      dup5\n        /* \"contracts/Bank.sol\":5381:5396  deposits[token] */\n      0xffffffffffffffffffffffffffffffffffffffff\n      and\n      0xffffffffffffffffffffffffffffffffffffffff\n      and\n      dup2\n      mstore\n      0x20\n      add\n      swap1\n      dup2\n      mstore\n      0x20\n      add\n      0x00\n      keccak256\n        /* \"contracts/Bank.sol\":5381:5408  deposits[token][msg.sender] */\n      0x00\n        /* \"contracts/Bank.sol\":5397:5407  msg.sender */\n      caller\n        /* \"contracts/Bank.sol\":5381:5408  deposits[token][msg.sender] */\n      0xffffffffffffffffffffffffffffffffffffffff\n      and\n      0xffffffffffffffffffffffffffffffffffffffff\n      and\n      dup2\n      mstore\n      0x20\n      add\n      swap1\n      dup2\n      mstore\n      0x20\n      add\n      0x00\n      keccak256\n        /* \"contracts/Bank.sol\":5381:5415  deposits[token][msg.sender].amount */\n      0x01\n      add\n      sload\n        /* \"contracts/Bank.sol\":5381:5425  deposits[token][msg.sender].amount / 1 ether */\n      tag_158\n      swap2\n      swap1\n      tag_154\n      jump\t// in\n    tag_158:\n        /* \"contracts/Bank.sol\":5374:5425  return deposits[token][msg.sender].amount / 1 ether */\n      swap1\n      pop\n        /* \"contracts/Bank.sol\":5114:5444  function getDeposit(address token) external view returns (uint256) {... */\n    tag_151:\n      swap2\n      swap1\n      pop\n      jump\t// out\n        /* \"@openzeppelin/contracts/access/Ownable.sol\":2543:2758  function transferOwnership(address newOwner) public virtual onlyOwner {... */\n    tag_82:\n        /* \"@openzeppelin/contracts/access/Ownable.sol\":1531:1544  _checkOwner() */\n      tag_160\n        /* \"@openzeppelin/contracts/access/Ownable.sol\":1531:1542  _checkOwner */\n      tag_117\n        /* \"@openzeppelin/contracts/access/Ownable.sol\":1531:1544  _checkOwner() */\n      jump\t// in\n    tag_160:\n        /* \"@openzeppelin/contracts/access/Ownable.sol\":2647:2648  0 */\n      0x00\n        /* \"@openzeppelin/contracts/access/Ownable.sol\":2627:2649  newOwner == address(0) */\n      0xffffffffffffffffffffffffffffffffffffffff\n      and\n        /* \"@openzeppelin/contracts/access/Ownable.sol\":2627:2635  newOwner */\n      dup2\n        /* \"@openzeppelin/contracts/access/Ownable.sol\":2627:2649  newOwner == address(0) */\n      0xffffffffffffffffffffffffffffffffffffffff\n      and\n      sub\n        /* \"@openzeppelin/contracts/access/Ownable.sol\":2623:2714  if (newOwner == address(0)) {... */\n      tag_162\n      jumpi\n        /* \"@openzeppelin/contracts/access/Ownable.sol\":2700:2701  0 */\n      0x00\n        /* \"@openzeppelin/contracts/access/Ownable.sol\":2672:2703  OwnableInvalidOwner(address(0)) */\n      mload(0x40)\n      0x1e4fbdf700000000000000000000000000000000000000000000000000000000\n      dup2\n      mstore\n      0x04\n      add\n      tag_163\n      swap2\n      swap1\n      tag_43\n      jump\t// in\n    tag_163:\n      mload(0x40)\n      dup1\n      swap2\n      sub\n      swap1\n      revert\n        /* \"@openzeppelin/contracts/access/Ownable.sol\":2623:2714  if (newOwner == address(0)) {... */\n    tag_162:\n        /* \"@openzeppelin/contracts/access/Ownable.sol\":2723:2751  _transferOwnership(newOwner) */\n      tag_164\n        /* \"@openzeppelin/contracts/access/Ownable.sol\":2742:2750  newOwner */\n      dup2\n        /* \"@openzeppelin/contracts/access/Ownable.sol\":2723:2741  _transferOwnership */\n      tag_120\n        /* \"@openzeppelin/contracts/access/Ownable.sol\":2723:2751  _transferOwnership(newOwner) */\n      jump\t// in\n    tag_164:\n        /* \"@openzeppelin/contracts/access/Ownable.sol\":2543:2758  function transferOwnership(address newOwner) public virtual onlyOwner {... */\n      pop\n      jump\t// out\n        /* \"contracts/Bank.sol\":3167:4167  function withdraw(address token, uint256 amount) external {... */\n    tag_86:\n        /* \"contracts/Bank.sol\":3257:3258  0 */\n      0x00\n        /* \"contracts/Bank.sol\":3240:3259  token == address(0) */\n      0xffffffffffffffffffffffffffffffffffffffff\n      and\n        /* \"contracts/Bank.sol\":3240:3245  token */\n      dup3\n        /* \"contracts/Bank.sol\":3240:3259  token == address(0) */\n      0xffffffffffffffffffffffffffffffffffffffff\n      and\n      sub\n        /* \"contracts/Bank.sol\":3236:4160  if (token == address(0)) {... */\n      tag_166\n      jumpi\n        /* \"contracts/Bank.sol\":3293:3294  0 */\n      0x00\n        /* \"contracts/Bank.sol\":3284:3290  amount */\n      dup2\n        /* \"contracts/Bank.sol\":3284:3294  amount > 0 */\n      gt\n        /* \"contracts/Bank.sol\":3276:3328  require(amount > 0, \"Amount must be greater than 0\") */\n      tag_167\n      jumpi\n      mload(0x40)\n      0x08c379a000000000000000000000000000000000000000000000000000000000\n      dup2\n      mstore\n      0x04\n      add\n      tag_168\n      swap1\n      tag_127\n      jump\t// in\n    tag_168:\n      mload(0x40)\n      dup1\n      swap2\n      sub\n      swap1\n      revert\n    tag_167:\n        /* \"contracts/Bank.sol\":3397:3403  amount */\n      dup1\n        /* \"contracts/Bank.sol\":3386:3393  1 ether */\n      0x0de0b6b3a7640000\n        /* \"contracts/Bank.sol\":3352:3364  eth_deposits */\n      0x04\n        /* \"contracts/Bank.sol\":3352:3376  eth_deposits[msg.sender] */\n      0x00\n        /* \"contracts/Bank.sol\":3365:3375  msg.sender */\n      caller\n        /* \"contracts/Bank.sol\":3352:3376  eth_deposits[msg.sender] */\n      0xffffffffffffffffffffffffffffffffffffffff\n      and\n      0xffffffffffffffffffffffffffffffffffffffff\n      and\n      dup2\n      mstore\n      0x20\n      add\n      swap1\n      dup2\n      mstore\n      0x20\n      add\n      0x00\n      keccak256\n        /* \"contracts/Bank.sol\":3352:3383  eth_deposits[msg.sender].amount */\n      0x01\n      add\n      sload\n        /* \"contracts/Bank.sol\":3352:3393  eth_deposits[msg.sender].amount / 1 ether */\n      tag_169\n      swap2\n      swap1\n      tag_154\n      jump\t// in\n    tag_169:\n        /* \"contracts/Bank.sol\":3352:3403  eth_deposits[msg.sender].amount / 1 ether >= amount */\n      lt\n      iszero\n        /* \"contracts/Bank.sol\":3344:3428  require(eth_deposits[msg.sender].amount / 1 ether >= amount, \"Insufficient balance\") */\n      tag_170\n      jumpi\n      mload(0x40)\n      0x08c379a000000000000000000000000000000000000000000000000000000000\n      dup2\n      mstore\n      0x04\n      add\n      tag_171\n      swap1\n      tag_133\n      jump\t// in\n    tag_171:\n      mload(0x40)\n      dup1\n      swap2\n      sub\n      swap1\n      revert\n    tag_170:\n        /* \"contracts/Bank.sol\":3488:3495  1 ether */\n      0x0de0b6b3a7640000\n        /* \"contracts/Bank.sol\":3479:3485  amount */\n      dup2\n        /* \"contracts/Bank.sol\":3479:3495  amount * 1 ether */\n      tag_172\n      swap2\n      swap1\n      tag_130\n      jump\t// in\n    tag_172:\n        /* \"contracts/Bank.sol\":3444:3456  eth_deposits */\n      0x04\n        /* \"contracts/Bank.sol\":3444:3468  eth_deposits[msg.sender] */\n      0x00\n        /* \"contracts/Bank.sol\":3457:3467  msg.sender */\n      caller\n        /* \"contracts/Bank.sol\":3444:3468  eth_deposits[msg.sender] */\n      0xffffffffffffffffffffffffffffffffffffffff\n      and\n      0xffffffffffffffffffffffffffffffffffffffff\n      and\n      dup2\n      mstore\n      0x20\n      add\n      swap1\n      dup2\n      mstore\n      0x20\n      add\n      0x00\n      keccak256\n        /* \"contracts/Bank.sol\":3444:3475  eth_deposits[msg.sender].amount */\n      0x01\n      add\n      0x00\n        /* \"contracts/Bank.sol\":3444:3495  eth_deposits[msg.sender].amount -= amount * 1 ether */\n      dup3\n      dup3\n      sload\n      tag_173\n      swap2\n      swap1\n      tag_136\n      jump\t// in\n    tag_173:\n      swap3\n      pop\n      pop\n      dup2\n      swap1\n      sstore\n      pop\n        /* \"contracts/Bank.sol\":3542:3562  getCurrentTimeView() */\n      tag_174\n        /* \"contracts/Bank.sol\":3542:3560  getCurrentTimeView */\n      tag_94\n        /* \"contracts/Bank.sol\":3542:3562  getCurrentTimeView() */\n      jump\t// in\n    tag_174:\n        /* \"contracts/Bank.sol\":3510:3522  eth_deposits */\n      0x04\n        /* \"contracts/Bank.sol\":3510:3534  eth_deposits[msg.sender] */\n      0x00\n        /* \"contracts/Bank.sol\":3523:3533  msg.sender */\n      caller\n        /* \"contracts/Bank.sol\":3510:3534  eth_deposits[msg.sender] */\n      0xffffffffffffffffffffffffffffffffffffffff\n      and\n      0xffffffffffffffffffffffffffffffffffffffff\n      and\n      dup2\n      mstore\n      0x20\n      add\n      swap1\n      dup2\n      mstore\n      0x20\n      add\n      0x00\n      keccak256\n        /* \"contracts/Bank.sol\":3510:3539  eth_deposits[msg.sender].time */\n      0x00\n      add\n        /* \"contracts/Bank.sol\":3510:3562  eth_deposits[msg.sender].time = getCurrentTimeView() */\n      dup2\n      swap1\n      sstore\n      pop\n        /* \"contracts/Bank.sol\":3578:3590  bool success */\n      0x00\n        /* \"contracts/Bank.sol\":3604:3614  msg.sender */\n      caller\n        /* \"contracts/Bank.sol\":3596:3620  payable(msg.sender).call */\n      0xffffffffffffffffffffffffffffffffffffffff\n      and\n        /* \"contracts/Bank.sol\":3637:3644  1 ether */\n      0x0de0b6b3a7640000\n        /* \"contracts/Bank.sol\":3628:3634  amount */\n      dup4\n        /* \"contracts/Bank.sol\":3628:3644  amount * 1 ether */\n      tag_175\n      swap2\n      swap1\n      tag_130\n      jump\t// in\n    tag_175:\n        /* \"contracts/Bank.sol\":3596:3649  payable(msg.sender).call{value: amount * 1 ether}(\"\") */\n      mload(0x40)\n      tag_176\n      swap1\n      tag_177\n      jump\t// in\n    tag_176:\n      0x00\n      mload(0x40)\n      dup1\n      dup4\n      sub\n      dup2\n      dup6\n      dup8\n      gas\n      call\n      swap3\n      pop\n      pop\n      pop\n      returndatasize\n      dup1\n      0x00\n      dup2\n      eq\n      tag_180\n      jumpi\n      mload(0x40)\n      swap2\n      pop\n      and(add(returndatasize, 0x3f), not(0x1f))\n      dup3\n      add\n      0x40\n      mstore\n      returndatasize\n      dup3\n      mstore\n      returndatasize\n      0x00\n      0x20\n      dup5\n      add\n      returndatacopy\n      jump(tag_179)\n    tag_180:\n      0x60\n      swap2\n      pop\n    tag_179:\n      pop\n        /* \"contracts/Bank.sol\":3577:3649  (bool success, ) = payable(msg.sender).call{value: amount * 1 ether}(\"\") */\n      pop\n      swap1\n      pop\n        /* \"contracts/Bank.sol\":3672:3679  success */\n      dup1\n        /* \"contracts/Bank.sol\":3664:3705  require(success, \"ETH withdrawal failed\") */\n      tag_181\n      jumpi\n      mload(0x40)\n      0x08c379a000000000000000000000000000000000000000000000000000000000\n      dup2\n      mstore\n      0x04\n      add\n      tag_182\n      swap1\n      tag_183\n      jump\t// in\n    tag_182:\n      mload(0x40)\n      dup1\n      swap2\n      sub\n      swap1\n      revert\n    tag_181:\n        /* \"contracts/Bank.sol\":3738:3748  msg.sender */\n      caller\n        /* \"contracts/Bank.sol\":3725:3757  ETHWithdrawn(msg.sender, amount) */\n      0xffffffffffffffffffffffffffffffffffffffff\n      and\n      0x94b2de810873337ed265c5f8cf98c9cffefa06b8607f9a2f1fbaebdfbcfbef1c\n        /* \"contracts/Bank.sol\":3750:3756  amount */\n      dup4\n        /* \"contracts/Bank.sol\":3725:3757  ETHWithdrawn(msg.sender, amount) */\n      mload(0x40)\n      tag_184\n      swap2\n      swap1\n      tag_78\n      jump\t// in\n    tag_184:\n      mload(0x40)\n      dup1\n      swap2\n      sub\n      swap1\n      log2\n        /* \"contracts/Bank.sol\":3261:3769  {... */\n      pop\n        /* \"contracts/Bank.sol\":3236:4160  if (token == address(0)) {... */\n      jump(tag_185)\n    tag_166:\n        /* \"contracts/Bank.sol\":3798:3811  isTokenInList */\n      0x06\n        /* \"contracts/Bank.sol\":3798:3818  isTokenInList[token] */\n      0x00\n        /* \"contracts/Bank.sol\":3812:3817  token */\n      dup4\n        /* \"contracts/Bank.sol\":3798:3818  isTokenInList[token] */\n      0xffffffffffffffffffffffffffffffffffffffff\n      and\n      0xffffffffffffffffffffffffffffffffffffffff\n      and\n      dup2\n      mstore\n      0x20\n      add\n      swap1\n      dup2\n      mstore\n      0x20\n      add\n      0x00\n      keccak256\n      0x00\n      swap1\n      sload\n      swap1\n      0x0100\n      exp\n      swap1\n      div\n      0xff\n      and\n        /* \"contracts/Bank.sol\":3790:3836  require(isTokenInList[token], \"Invalid token\") */\n      tag_186\n      jumpi\n      mload(0x40)\n      0x08c379a000000000000000000000000000000000000000000000000000000000\n      dup2\n      mstore\n      0x04\n      add\n      tag_187\n      swap1\n      tag_99\n      jump\t// in\n    tag_187:\n      mload(0x40)\n      dup1\n      swap2\n      sub\n      swap1\n      revert\n    tag_186:\n        /* \"contracts/Bank.sol\":3907:3913  amount */\n      dup1\n        /* \"contracts/Bank.sol\":3896:3903  1 ether */\n      0x0de0b6b3a7640000\n        /* \"contracts/Bank.sol\":3859:3867  deposits */\n      0x03\n        /* \"contracts/Bank.sol\":3859:3874  deposits[token] */\n      0x00\n        /* \"contracts/Bank.sol\":3868:3873  token */\n      dup6\n        /* \"contracts/Bank.sol\":3859:3874  deposits[token] */\n      0xffffffffffffffffffffffffffffffffffffffff\n      and\n      0xffffffffffffffffffffffffffffffffffffffff\n      and\n      dup2\n      mstore\n      0x20\n      add\n      swap1\n      dup2\n      mstore\n      0x20\n      add\n      0x00\n      keccak256\n        /* \"contracts/Bank.sol\":3859:3886  deposits[token][msg.sender] */\n      0x00\n        /* \"contracts/Bank.sol\":3875:3885  msg.sender */\n      caller\n        /* \"contracts/Bank.sol\":3859:3886  deposits[token][msg.sender] */\n      0xffffffffffffffffffffffffffffffffffffffff\n      and\n      0xffffffffffffffffffffffffffffffffffffffff\n      and\n      dup2\n      mstore\n      0x20\n      add\n      swap1\n      dup2\n      mstore\n      0x20\n      add\n      0x00\n      keccak256\n        /* \"contracts/Bank.sol\":3859:3893  deposits[token][msg.sender].amount */\n      0x01\n      add\n      sload\n        /* \"contracts/Bank.sol\":3859:3903  deposits[token][msg.sender].amount / 1 ether */\n      tag_188\n      swap2\n      swap1\n      tag_154\n      jump\t// in\n    tag_188:\n        /* \"contracts/Bank.sol\":3859:3913  deposits[token][msg.sender].amount / 1 ether >= amount */\n      lt\n      iszero\n        /* \"contracts/Bank.sol\":3851:3938  require(deposits[token][msg.sender].amount / 1 ether >= amount, \"Insufficient balance\") */\n      tag_189\n      jumpi\n      mload(0x40)\n      0x08c379a000000000000000000000000000000000000000000000000000000000\n      dup2\n      mstore\n      0x04\n      add\n      tag_190\n      swap1\n      tag_133\n      jump\t// in\n    tag_190:\n      mload(0x40)\n      dup1\n      swap2\n      sub\n      swap1\n      revert\n    tag_189:\n        /* \"contracts/Bank.sol\":4000:4007  1 ether */\n      0x0de0b6b3a7640000\n        /* \"contracts/Bank.sol\":3991:3997  amount */\n      dup2\n        /* \"contracts/Bank.sol\":3991:4007  amount * 1 ether */\n      tag_191\n      swap2\n      swap1\n      tag_130\n      jump\t// in\n    tag_191:\n        /* \"contracts/Bank.sol\":3953:3961  deposits */\n      0x03\n        /* \"contracts/Bank.sol\":3953:3968  deposits[token] */\n      0x00\n        /* \"contracts/Bank.sol\":3962:3967  token */\n      dup5\n        /* \"contracts/Bank.sol\":3953:3968  deposits[token] */\n      0xffffffffffffffffffffffffffffffffffffffff\n      and\n      0xffffffffffffffffffffffffffffffffffffffff\n      and\n      dup2\n      mstore\n      0x20\n      add\n      swap1\n      dup2\n      mstore\n      0x20\n      add\n      0x00\n      keccak256\n        /* \"contracts/Bank.sol\":3953:3980  deposits[token][msg.sender] */\n      0x00\n        /* \"contracts/Bank.sol\":3969:3979  msg.sender */\n      caller\n        /* \"contracts/Bank.sol\":3953:3980  deposits[token][msg.sender] */\n      0xffffffffffffffffffffffffffffffffffffffff\n      and\n      0xffffffffffffffffffffffffffffffffffffffff\n      and\n      dup2\n      mstore\n      0x20\n      add\n      swap1\n      dup2\n      mstore\n      0x20\n      add\n      0x00\n      keccak256\n        /* \"contracts/Bank.sol\":3953:3987  deposits[token][msg.sender].amount */\n      0x01\n      add\n      0x00\n        /* \"contracts/Bank.sol\":3953:4007  deposits[token][msg.sender].amount -= amount * 1 ether */\n      dup3\n      dup3\n      sload\n      tag_192\n      swap2\n      swap1\n      tag_136\n      jump\t// in\n    tag_192:\n      swap3\n      pop\n      pop\n      dup2\n      swap1\n      sstore\n      pop\n        /* \"contracts/Bank.sol\":4037:4042  token */\n      dup2\n        /* \"contracts/Bank.sol\":4030:4052  IERC20(token).transfer */\n      0xffffffffffffffffffffffffffffffffffffffff\n      and\n      0xa9059cbb\n        /* \"contracts/Bank.sol\":4053:4063  msg.sender */\n      caller\n        /* \"contracts/Bank.sol\":4065:4071  amount */\n      dup4\n        /* \"contracts/Bank.sol\":4030:4072  IERC20(token).transfer(msg.sender, amount) */\n      mload(0x40)\n      dup4\n      0xffffffff\n      and\n      0xe0\n      shl\n      dup2\n      mstore\n      0x04\n      add\n      tag_193\n      swap3\n      swap2\n      swap1\n      tag_194\n      jump\t// in\n    tag_193:\n      0x20\n      mload(0x40)\n      dup1\n      dup4\n      sub\n      dup2\n      0x00\n      dup8\n      gas\n      call\n      iszero\n      dup1\n      iszero\n      tag_196\n      jumpi\n      returndatasize\n      0x00\n      dup1\n      returndatacopy\n      revert(0x00, returndatasize)\n    tag_196:\n      pop\n      pop\n      pop\n      pop\n      mload(0x40)\n      returndatasize\n      not(0x1f)\n      0x1f\n      dup3\n      add\n      and\n      dup3\n      add\n      dup1\n      0x40\n      mstore\n      pop\n      dup2\n      add\n      swap1\n      tag_197\n      swap2\n      swap1\n      tag_105\n      jump\t// in\n    tag_197:\n        /* \"contracts/Bank.sol\":4022:4092  require(IERC20(token).transfer(msg.sender, amount), \"Transfer failed\") */\n      tag_198\n      jumpi\n      mload(0x40)\n      0x08c379a000000000000000000000000000000000000000000000000000000000\n      dup2\n      mstore\n      0x04\n      add\n      tag_199\n      swap1\n      tag_108\n      jump\t// in\n    tag_199:\n      mload(0x40)\n      dup1\n      swap2\n      sub\n      swap1\n      revert\n    tag_198:\n        /* \"contracts/Bank.sol\":4134:4139  token */\n      dup2\n        /* \"contracts/Bank.sol\":4112:4148  Withdrawn(msg.sender, token, amount) */\n      0xffffffffffffffffffffffffffffffffffffffff\n      and\n        /* \"contracts/Bank.sol\":4122:4132  msg.sender */\n      caller\n        /* \"contracts/Bank.sol\":4112:4148  Withdrawn(msg.sender, token, amount) */\n      0xffffffffffffffffffffffffffffffffffffffff\n      and\n      0xd1c19fbcd4551a5edfb66d43d2e337c04837afda3482b42bdf569a8fccdae5fb\n        /* \"contracts/Bank.sol\":4141:4147  amount */\n      dup4\n        /* \"contracts/Bank.sol\":4112:4148  Withdrawn(msg.sender, token, amount) */\n      mload(0x40)\n      tag_200\n      swap2\n      swap1\n      tag_78\n      jump\t// in\n    tag_200:\n      mload(0x40)\n      dup1\n      swap2\n      sub\n      swap1\n      log3\n        /* \"contracts/Bank.sol\":3236:4160  if (token == address(0)) {... */\n    tag_185:\n        /* \"contracts/Bank.sol\":3167:4167  function withdraw(address token, uint256 amount) external {... */\n      pop\n      pop\n      jump\t// out\n        /* \"contracts/Bank.sol\":1771:1874  function getCurrentTimeView() internal view returns (uint256) {... */\n    tag_94:\n        /* \"contracts/Bank.sol\":1824:1831  uint256 */\n      0x00\n        /* \"contracts/Bank.sol\":1851:1866  block.timestamp */\n      timestamp\n        /* \"contracts/Bank.sol\":1844:1866  return block.timestamp */\n      swap1\n      pop\n        /* \"contracts/Bank.sol\":1771:1874  function getCurrentTimeView() internal view returns (uint256) {... */\n      swap1\n      jump\t// out\n        /* \"@openzeppelin/contracts/access/Ownable.sol\":1796:1958  function _checkOwner() internal view virtual {... */\n    tag_117:\n        /* \"@openzeppelin/contracts/access/Ownable.sol\":1866:1878  _msgSender() */\n      tag_203\n        /* \"@openzeppelin/contracts/access/Ownable.sol\":1866:1876  _msgSender */\n      tag_204\n        /* \"@openzeppelin/contracts/access/Ownable.sol\":1866:1878  _msgSender() */\n      jump\t// in\n    tag_203:\n        /* \"@openzeppelin/contracts/access/Ownable.sol\":1855:1878  owner() != _msgSender() */\n      0xffffffffffffffffffffffffffffffffffffffff\n      and\n        /* \"@openzeppelin/contracts/access/Ownable.sol\":1855:1862  owner() */\n      tag_205\n        /* \"@openzeppelin/contracts/access/Ownable.sol\":1855:1860  owner */\n      tag_49\n        /* \"@openzeppelin/contracts/access/Ownable.sol\":1855:1862  owner() */\n      jump\t// in\n    tag_205:\n        /* \"@openzeppelin/contracts/access/Ownable.sol\":1855:1878  owner() != _msgSender() */\n      0xffffffffffffffffffffffffffffffffffffffff\n      and\n      eq\n        /* \"@openzeppelin/contracts/access/Ownable.sol\":1851:1952  if (owner() != _msgSender()) {... */\n      tag_206\n      jumpi\n        /* \"@openzeppelin/contracts/access/Ownable.sol\":1928:1940  _msgSender() */\n      tag_207\n        /* \"@openzeppelin/contracts/access/Ownable.sol\":1928:1938  _msgSender */\n      tag_204\n        /* \"@openzeppelin/contracts/access/Ownable.sol\":1928:1940  _msgSender() */\n      jump\t// in\n    tag_207:\n        /* \"@openzeppelin/contracts/access/Ownable.sol\":1901:1941  OwnableUnauthorizedAccount(_msgSender()) */\n      mload(0x40)\n      0x118cdaa700000000000000000000000000000000000000000000000000000000\n      dup2\n      mstore\n      0x04\n      add\n      tag_208\n      swap2\n      swap1\n      tag_43\n      jump\t// in\n    tag_208:\n      mload(0x40)\n      dup1\n      swap2\n      sub\n      swap1\n      revert\n        /* \"@openzeppelin/contracts/access/Ownable.sol\":1851:1952  if (owner() != _msgSender()) {... */\n    tag_206:\n        /* \"@openzeppelin/contracts/access/Ownable.sol\":1796:1958  function _checkOwner() internal view virtual {... */\n      jump\t// out\n        /* \"@openzeppelin/contracts/access/Ownable.sol\":2912:3099  function _transferOwnership(address newOwner) internal virtual {... */\n    tag_120:\n        /* \"@openzeppelin/contracts/access/Ownable.sol\":2985:3001  address oldOwner */\n      0x00\n        /* \"@openzeppelin/contracts/access/Ownable.sol\":3004:3010  _owner */\n      dup1\n      0x00\n      swap1\n      sload\n      swap1\n      0x0100\n      exp\n      swap1\n      div\n      0xffffffffffffffffffffffffffffffffffffffff\n      and\n        /* \"@openzeppelin/contracts/access/Ownable.sol\":2985:3010  address oldOwner = _owner */\n      swap1\n      pop\n        /* \"@openzeppelin/contracts/access/Ownable.sol\":3029:3037  newOwner */\n      dup2\n        /* \"@openzeppelin/contracts/access/Ownable.sol\":3020:3026  _owner */\n      0x00\n      dup1\n        /* \"@openzeppelin/contracts/access/Ownable.sol\":3020:3037  _owner = newOwner */\n      0x0100\n      exp\n      dup2\n      sload\n      dup2\n      0xffffffffffffffffffffffffffffffffffffffff\n      mul\n      not\n      and\n      swap1\n      dup4\n      0xffffffffffffffffffffffffffffffffffffffff\n      and\n      mul\n      or\n      swap1\n      sstore\n      pop\n        /* \"@openzeppelin/contracts/access/Ownable.sol\":3083:3091  newOwner */\n      dup2\n        /* \"@openzeppelin/contracts/access/Ownable.sol\":3052:3092  OwnershipTransferred(oldOwner, newOwner) */\n      0xffffffffffffffffffffffffffffffffffffffff\n      and\n        /* \"@openzeppelin/contracts/access/Ownable.sol\":3073:3081  oldOwner */\n      dup2\n        /* \"@openzeppelin/contracts/access/Ownable.sol\":3052:3092  OwnershipTransferred(oldOwner, newOwner) */\n      0xffffffffffffffffffffffffffffffffffffffff\n      and\n      0x8be0079c531659141344cd1fd0a4f28419497f9722a3daafe3b4186f6b6457e0\n      mload(0x40)\n      mload(0x40)\n      dup1\n      swap2\n      sub\n      swap1\n      log3\n        /* \"@openzeppelin/contracts/access/Ownable.sol\":2975:3099  {... */\n      pop\n        /* \"@openzeppelin/contracts/access/Ownable.sol\":2912:3099  function _transferOwnership(address newOwner) internal virtual {... */\n      pop\n      jump\t// out\n        /* \"@openzeppelin/contracts/utils/Context.sol\":656:752  function _msgSender() internal view virtual returns (address) {... */\n    tag_204:\n        /* \"@openzeppelin/contracts/utils/Context.sol\":709:716  address */\n      0x00\n        /* \"@openzeppelin/contracts/utils/Context.sol\":735:745  msg.sender */\n      caller\n        /* \"@openzeppelin/contracts/utils/Context.sol\":728:745  return msg.sender */\n      swap1\n      pop\n        /* \"@openzeppelin/contracts/utils/Context.sol\":656:752  function _msgSender() internal view virtual returns (address) {... */\n      swap1\n      jump\t// out\n        /* \"#utility.yul\":88:205   */\n    tag_212:\n        /* \"#utility.yul\":197:198   */\n      0x00\n        /* \"#utility.yul\":194:195   */\n      dup1\n        /* \"#utility.yul\":187:199   */\n      revert\n        /* \"#utility.yul\":334:460   */\n    tag_214:\n        /* \"#utility.yul\":371:378   */\n      0x00\n        /* \"#utility.yul\":411:453   */\n      0xffffffffffffffffffffffffffffffffffffffff\n        /* \"#utility.yul\":404:409   */\n      dup3\n        /* \"#utility.yul\":400:454   */\n      and\n        /* \"#utility.yul\":389:454   */\n      swap1\n      pop\n        /* \"#utility.yul\":334:460   */\n      swap2\n      swap1\n      pop\n      jump\t// out\n        /* \"#utility.yul\":466:562   */\n    tag_215:\n        /* \"#utility.yul\":503:510   */\n      0x00\n        /* \"#utility.yul\":532:556   */\n      tag_254\n        /* \"#utility.yul\":550:555   */\n      dup3\n        /* \"#utility.yul\":532:556   */\n      tag_214\n      jump\t// in\n    tag_254:\n        /* \"#utility.yul\":521:556   */\n      swap1\n      pop\n        /* \"#utility.yul\":466:562   */\n      swap2\n      swap1\n      pop\n      jump\t// out\n        /* \"#utility.yul\":568:690   */\n    tag_216:\n        /* \"#utility.yul\":641:665   */\n      tag_256\n        /* \"#utility.yul\":659:664   */\n      dup2\n        /* \"#utility.yul\":641:665   */\n      tag_215\n      jump\t// in\n    tag_256:\n        /* \"#utility.yul\":634:639   */\n      dup2\n        /* \"#utility.yul\":631:666   */\n      eq\n        /* \"#utility.yul\":621:684   */\n      tag_257\n      jumpi\n        /* \"#utility.yul\":680:681   */\n      0x00\n        /* \"#utility.yul\":677:678   */\n      dup1\n        /* \"#utility.yul\":670:682   */\n      revert\n        /* \"#utility.yul\":621:684   */\n    tag_257:\n        /* \"#utility.yul\":568:690   */\n      pop\n      jump\t// out\n        /* \"#utility.yul\":696:835   */\n    tag_217:\n        /* \"#utility.yul\":742:747   */\n      0x00\n        /* \"#utility.yul\":780:786   */\n      dup2\n        /* \"#utility.yul\":767:787   */\n      calldataload\n        /* \"#utility.yul\":758:787   */\n      swap1\n      pop\n        /* \"#utility.yul\":796:829   */\n      tag_259\n        /* \"#utility.yul\":823:828   */\n      dup2\n        /* \"#utility.yul\":796:829   */\n      tag_216\n      jump\t// in\n    tag_259:\n        /* \"#utility.yul\":696:835   */\n      swap3\n      swap2\n      pop\n      pop\n      jump\t// out\n        /* \"#utility.yul\":841:1170   */\n    tag_23:\n        /* \"#utility.yul\":900:906   */\n      0x00\n        /* \"#utility.yul\":949:951   */\n      0x20\n        /* \"#utility.yul\":937:946   */\n      dup3\n        /* \"#utility.yul\":928:935   */\n      dup5\n        /* \"#utility.yul\":924:947   */\n      sub\n        /* \"#utility.yul\":920:952   */\n      slt\n        /* \"#utility.yul\":917:1036   */\n      iszero\n      tag_261\n      jumpi\n        /* \"#utility.yul\":955:1034   */\n      tag_262\n      tag_212\n      jump\t// in\n    tag_262:\n        /* \"#utility.yul\":917:1036   */\n    tag_261:\n        /* \"#utility.yul\":1075:1076   */\n      0x00\n        /* \"#utility.yul\":1100:1153   */\n      tag_263\n        /* \"#utility.yul\":1145:1152   */\n      dup5\n        /* \"#utility.yul\":1136:1142   */\n      dup3\n        /* \"#utility.yul\":1125:1134   */\n      dup6\n        /* \"#utility.yul\":1121:1143   */\n      add\n        /* \"#utility.yul\":1100:1153   */\n      tag_217\n      jump\t// in\n    tag_263:\n        /* \"#utility.yul\":1090:1153   */\n      swap2\n      pop\n        /* \"#utility.yul\":1046:1163   */\n      pop\n        /* \"#utility.yul\":841:1170   */\n      swap3\n      swap2\n      pop\n      pop\n      jump\t// out\n        /* \"#utility.yul\":1176:1253   */\n    tag_218:\n        /* \"#utility.yul\":1213:1220   */\n      0x00\n        /* \"#utility.yul\":1242:1247   */\n      dup2\n        /* \"#utility.yul\":1231:1247   */\n      swap1\n      pop\n        /* \"#utility.yul\":1176:1253   */\n      swap2\n      swap1\n      pop\n      jump\t// out\n        /* \"#utility.yul\":1259:1377   */\n    tag_219:\n        /* \"#utility.yul\":1346:1370   */\n      tag_266\n        /* \"#utility.yul\":1364:1369   */\n      dup2\n        /* \"#utility.yul\":1346:1370   */\n      tag_218\n      jump\t// in\n    tag_266:\n        /* \"#utility.yul\":1341:1344   */\n      dup3\n        /* \"#utility.yul\":1334:1371   */\n      mstore\n        /* \"#utility.yul\":1259:1377   */\n      pop\n      pop\n      jump\t// out\n        /* \"#utility.yul\":1383:1715   */\n    tag_26:\n        /* \"#utility.yul\":1504:1508   */\n      0x00\n        /* \"#utility.yul\":1542:1544   */\n      0x40\n        /* \"#utility.yul\":1531:1540   */\n      dup3\n        /* \"#utility.yul\":1527:1545   */\n      add\n        /* \"#utility.yul\":1519:1545   */\n      swap1\n      pop\n        /* \"#utility.yul\":1555:1626   */\n      tag_268\n        /* \"#utility.yul\":1623:1624   */\n      0x00\n        /* \"#utility.yul\":1612:1621   */\n      dup4\n        /* \"#utility.yul\":1608:1625   */\n      add\n        /* \"#utility.yul\":1599:1605   */\n      dup6\n        /* \"#utility.yul\":1555:1626   */\n      tag_219\n      jump\t// in\n    tag_268:\n        /* \"#utility.yul\":1636:1708   */\n      tag_269\n        /* \"#utility.yul\":1704:1706   */\n      0x20\n        /* \"#utility.yul\":1693:1702   */\n      dup4\n        /* \"#utility.yul\":1689:1707   */\n      add\n        /* \"#utility.yul\":1680:1686   */\n      dup5\n        /* \"#utility.yul\":1636:1708   */\n      tag_219\n      jump\t// in\n    tag_269:\n        /* \"#utility.yul\":1383:1715   */\n      swap4\n      swap3\n      pop\n      pop\n      pop\n      jump\t// out\n        /* \"#utility.yul\":1721:1843   */\n    tag_220:\n        /* \"#utility.yul\":1794:1818   */\n      tag_271\n        /* \"#utility.yul\":1812:1817   */\n      dup2\n        /* \"#utility.yul\":1794:1818   */\n      tag_218\n      jump\t// in\n    tag_271:\n        /* \"#utility.yul\":1787:1792   */\n      dup2\n        /* \"#utility.yul\":1784:1819   */\n      eq\n        /* \"#utility.yul\":1774:1837   */\n      tag_272\n      jumpi\n        /* \"#utility.yul\":1833:1834   */\n      0x00\n        /* \"#utility.yul\":1830:1831   */\n      dup1\n        /* \"#utility.yul\":1823:1835   */\n      revert\n        /* \"#utility.yul\":1774:1837   */\n    tag_272:\n        /* \"#utility.yul\":1721:1843   */\n      pop\n      jump\t// out\n        /* \"#utility.yul\":1849:1988   */\n    tag_221:\n        /* \"#utility.yul\":1895:1900   */\n      0x00\n        /* \"#utility.yul\":1933:1939   */\n      dup2\n        /* \"#utility.yul\":1920:1940   */\n      calldataload\n        /* \"#utility.yul\":1911:1940   */\n      swap1\n      pop\n        /* \"#utility.yul\":1949:1982   */\n      tag_274\n        /* \"#utility.yul\":1976:1981   */\n      dup2\n        /* \"#utility.yul\":1949:1982   */\n      tag_220\n      jump\t// in\n    tag_274:\n        /* \"#utility.yul\":1849:1988   */\n      swap3\n      swap2\n      pop\n      pop\n      jump\t// out\n        /* \"#utility.yul\":1994:2323   */\n    tag_30:\n        /* \"#utility.yul\":2053:2059   */\n      0x00\n        /* \"#utility.yul\":2102:2104   */\n      0x20\n        /* \"#utility.yul\":2090:2099   */\n      dup3\n        /* \"#utility.yul\":2081:2088   */\n      dup5\n        /* \"#utility.yul\":2077:2100   */\n      sub\n        /* \"#utility.yul\":2073:2105   */\n      slt\n        /* \"#utility.yul\":2070:2189   */\n      iszero\n      tag_276\n      jumpi\n        /* \"#utility.yul\":2108:2187   */\n      tag_277\n      tag_212\n      jump\t// in\n    tag_277:\n        /* \"#utility.yul\":2070:2189   */\n    tag_276:\n        /* \"#utility.yul\":2228:2229   */\n      0x00\n        /* \"#utility.yul\":2253:2306   */\n      tag_278\n        /* \"#utility.yul\":2298:2305   */\n      dup5\n        /* \"#utility.yul\":2289:2295   */\n      dup3\n        /* \"#utility.yul\":2278:2287   */\n      dup6\n        /* \"#utility.yul\":2274:2296   */\n      add\n        /* \"#utility.yul\":2253:2306   */\n      tag_221\n      jump\t// in\n    tag_278:\n        /* \"#utility.yul\":2243:2306   */\n      swap2\n      pop\n        /* \"#utility.yul\":2199:2316   */\n      pop\n        /* \"#utility.yul\":1994:2323   */\n      swap3\n      swap2\n      pop\n      pop\n      jump\t// out\n        /* \"#utility.yul\":2329:2415   */\n    tag_222:\n        /* \"#utility.yul\":2364:2371   */\n      0x00\n        /* \"#utility.yul\":2404:2408   */\n      0xff\n        /* \"#utility.yul\":2397:2402   */\n      dup3\n        /* \"#utility.yul\":2393:2409   */\n      and\n        /* \"#utility.yul\":2382:2409   */\n      swap1\n      pop\n        /* \"#utility.yul\":2329:2415   */\n      swap2\n      swap1\n      pop\n      jump\t// out\n        /* \"#utility.yul\":2421:2533   */\n    tag_223:\n        /* \"#utility.yul\":2504:2526   */\n      tag_281\n        /* \"#utility.yul\":2520:2525   */\n      dup2\n        /* \"#utility.yul\":2504:2526   */\n      tag_222\n      jump\t// in\n    tag_281:\n        /* \"#utility.yul\":2499:2502   */\n      dup3\n        /* \"#utility.yul\":2492:2527   */\n      mstore\n        /* \"#utility.yul\":2421:2533   */\n      pop\n      pop\n      jump\t// out\n        /* \"#utility.yul\":2539:2753   */\n    tag_33:\n        /* \"#utility.yul\":2628:2632   */\n      0x00\n        /* \"#utility.yul\":2666:2668   */\n      0x20\n        /* \"#utility.yul\":2655:2664   */\n      dup3\n        /* \"#utility.yul\":2651:2669   */\n      add\n        /* \"#utility.yul\":2643:2669   */\n      swap1\n      pop\n        /* \"#utility.yul\":2679:2746   */\n      tag_283\n        /* \"#utility.yul\":2743:2744   */\n      0x00\n        /* \"#utility.yul\":2732:2741   */\n      dup4\n        /* \"#utility.yul\":2728:2745   */\n      add\n        /* \"#utility.yul\":2719:2725   */\n      dup5\n        /* \"#utility.yul\":2679:2746   */\n      tag_223\n      jump\t// in\n    tag_283:\n        /* \"#utility.yul\":2539:2753   */\n      swap3\n      swap2\n      pop\n      pop\n      jump\t// out\n        /* \"#utility.yul\":2759:3233   */\n    tag_36:\n        /* \"#utility.yul\":2827:2833   */\n      0x00\n        /* \"#utility.yul\":2835:2841   */\n      dup1\n        /* \"#utility.yul\":2884:2886   */\n      0x40\n        /* \"#utility.yul\":2872:2881   */\n      dup4\n        /* \"#utility.yul\":2863:2870   */\n      dup6\n        /* \"#utility.yul\":2859:2882   */\n      sub\n        /* \"#utility.yul\":2855:2887   */\n      slt\n        /* \"#utility.yul\":2852:2971   */\n      iszero\n      tag_285\n      jumpi\n        /* \"#utility.yul\":2890:2969   */\n      tag_286\n      tag_212\n      jump\t// in\n    tag_286:\n        /* \"#utility.yul\":2852:2971   */\n    tag_285:\n        /* \"#utility.yul\":3010:3011   */\n      0x00\n        /* \"#utility.yul\":3035:3088   */\n      tag_287\n        /* \"#utility.yul\":3080:3087   */\n      dup6\n        /* \"#utility.yul\":3071:3077   */\n      dup3\n        /* \"#utility.yul\":3060:3069   */\n      dup7\n        /* \"#utility.yul\":3056:3078   */\n      add\n        /* \"#utility.yul\":3035:3088   */\n      tag_217\n      jump\t// in\n    tag_287:\n        /* \"#utility.yul\":3025:3088   */\n      swap3\n      pop\n        /* \"#utility.yul\":2981:3098   */\n      pop\n        /* \"#utility.yul\":3137:3139   */\n      0x20\n        /* \"#utility.yul\":3163:3216   */\n      tag_288\n        /* \"#utility.yul\":3208:3215   */\n      dup6\n        /* \"#utility.yul\":3199:3205   */\n      dup3\n        /* \"#utility.yul\":3188:3197   */\n      dup7\n        /* \"#utility.yul\":3184:3206   */\n      add\n        /* \"#utility.yul\":3163:3216   */\n      tag_221\n      jump\t// in\n    tag_288:\n        /* \"#utility.yul\":3153:3216   */\n      swap2\n      pop\n        /* \"#utility.yul\":3108:3226   */\n      pop\n        /* \"#utility.yul\":2759:3233   */\n      swap3\n      pop\n      swap3\n      swap1\n      pop\n      jump\t// out\n        /* \"#utility.yul\":3239:3357   */\n    tag_224:\n        /* \"#utility.yul\":3326:3350   */\n      tag_290\n        /* \"#utility.yul\":3344:3349   */\n      dup2\n        /* \"#utility.yul\":3326:3350   */\n      tag_215\n      jump\t// in\n    tag_290:\n        /* \"#utility.yul\":3321:3324   */\n      dup3\n        /* \"#utility.yul\":3314:3351   */\n      mstore\n        /* \"#utility.yul\":3239:3357   */\n      pop\n      pop\n      jump\t// out\n        /* \"#utility.yul\":3363:3585   */\n    tag_43:\n        /* \"#utility.yul\":3456:3460   */\n      0x00\n        /* \"#utility.yul\":3494:3496   */\n      0x20\n        /* \"#utility.yul\":3483:3492   */\n      dup3\n        /* \"#utility.yul\":3479:3497   */\n      add\n        /* \"#utility.yul\":3471:3497   */\n      swap1\n      pop\n        /* \"#utility.yul\":3507:3578   */\n      tag_292\n        /* \"#utility.yul\":3575:3576   */\n      0x00\n        /* \"#utility.yul\":3564:3573   */\n      dup4\n        /* \"#utility.yul\":3560:3577   */\n      add\n        /* \"#utility.yul\":3551:3557   */\n      dup5\n        /* \"#utility.yul\":3507:3578   */\n      tag_224\n      jump\t// in\n    tag_292:\n        /* \"#utility.yul\":3363:3585   */\n      swap3\n      swap2\n      pop\n      pop\n      jump\t// out\n        /* \"#utility.yul\":3591:4065   */\n    tag_54:\n        /* \"#utility.yul\":3659:3665   */\n      0x00\n        /* \"#utility.yul\":3667:3673   */\n      dup1\n        /* \"#utility.yul\":3716:3718   */\n      0x40\n        /* \"#utility.yul\":3704:3713   */\n      dup4\n        /* \"#utility.yul\":3695:3702   */\n      dup6\n        /* \"#utility.yul\":3691:3714   */\n      sub\n        /* \"#utility.yul\":3687:3719   */\n      slt\n        /* \"#utility.yul\":3684:3803   */\n      iszero\n      tag_294\n      jumpi\n        /* \"#utility.yul\":3722:3801   */\n      tag_295\n      tag_212\n      jump\t// in\n    tag_295:\n        /* \"#utility.yul\":3684:3803   */\n    tag_294:\n        /* \"#utility.yul\":3842:3843   */\n      0x00\n        /* \"#utility.yul\":3867:3920   */\n      tag_296\n        /* \"#utility.yul\":3912:3919   */\n      dup6\n        /* \"#utility.yul\":3903:3909   */\n      dup3\n        /* \"#utility.yul\":3892:3901   */\n      dup7\n        /* \"#utility.yul\":3888:3910   */\n      add\n        /* \"#utility.yul\":3867:3920   */\n      tag_217\n      jump\t// in\n    tag_296:\n        /* \"#utility.yul\":3857:3920   */\n      swap3\n      pop\n        /* \"#utility.yul\":3813:3930   */\n      pop\n        /* \"#utility.yul\":3969:3971   */\n      0x20\n        /* \"#utility.yul\":3995:4048   */\n      tag_297\n        /* \"#utility.yul\":4040:4047   */\n      dup6\n        /* \"#utility.yul\":4031:4037   */\n      dup3\n        /* \"#utility.yul\":4020:4029   */\n      dup7\n        /* \"#utility.yul\":4016:4038   */\n      add\n        /* \"#utility.yul\":3995:4048   */\n      tag_217\n      jump\t// in\n    tag_297:\n        /* \"#utility.yul\":3985:4048   */\n      swap2\n      pop\n        /* \"#utility.yul\":3940:4058   */\n      pop\n        /* \"#utility.yul\":3591:4065   */\n      swap3\n      pop\n      swap3\n      swap1\n      pop\n      jump\t// out\n        /* \"#utility.yul\":4071:4161   */\n    tag_225:\n        /* \"#utility.yul\":4105:4112   */\n      0x00\n        /* \"#utility.yul\":4148:4153   */\n      dup2\n        /* \"#utility.yul\":4141:4154   */\n      iszero\n        /* \"#utility.yul\":4134:4155   */\n      iszero\n        /* \"#utility.yul\":4123:4155   */\n      swap1\n      pop\n        /* \"#utility.yul\":4071:4161   */\n      swap2\n      swap1\n      pop\n      jump\t// out\n        /* \"#utility.yul\":4167:4276   */\n    tag_226:\n        /* \"#utility.yul\":4248:4269   */\n      tag_300\n        /* \"#utility.yul\":4263:4268   */\n      dup2\n        /* \"#utility.yul\":4248:4269   */\n      tag_225\n      jump\t// in\n    tag_300:\n        /* \"#utility.yul\":4243:4246   */\n      dup3\n        /* \"#utility.yul\":4236:4270   */\n      mstore\n        /* \"#utility.yul\":4167:4276   */\n      pop\n      pop\n      jump\t// out\n        /* \"#utility.yul\":4282:4492   */\n    tag_62:\n        /* \"#utility.yul\":4369:4373   */\n      0x00\n        /* \"#utility.yul\":4407:4409   */\n      0x20\n        /* \"#utility.yul\":4396:4405   */\n      dup3\n        /* \"#utility.yul\":4392:4410   */\n      add\n        /* \"#utility.yul\":4384:4410   */\n      swap1\n      pop\n        /* \"#utility.yul\":4420:4485   */\n      tag_302\n        /* \"#utility.yul\":4482:4483   */\n      0x00\n        /* \"#utility.yul\":4471:4480   */\n      dup4\n        /* \"#utility.yul\":4467:4484   */\n      add\n        /* \"#utility.yul\":4458:4464   */\n      dup5\n        /* \"#utility.yul\":4420:4485   */\n      tag_226\n      jump\t// in\n    tag_302:\n        /* \"#utility.yul\":4282:4492   */\n      swap3\n      swap2\n      pop\n      pop\n      jump\t// out\n        /* \"#utility.yul\":4498:5261   */\n    tag_68:\n        /* \"#utility.yul\":4725:4729   */\n      0x00\n        /* \"#utility.yul\":4763:4766   */\n      0xc0\n        /* \"#utility.yul\":4752:4761   */\n      dup3\n        /* \"#utility.yul\":4748:4767   */\n      add\n        /* \"#utility.yul\":4740:4767   */\n      swap1\n      pop\n        /* \"#utility.yul\":4777:4848   */\n      tag_304\n        /* \"#utility.yul\":4845:4846   */\n      0x00\n        /* \"#utility.yul\":4834:4843   */\n      dup4\n        /* \"#utility.yul\":4830:4847   */\n      add\n        /* \"#utility.yul\":4821:4827   */\n      dup10\n        /* \"#utility.yul\":4777:4848   */\n      tag_224\n      jump\t// in\n    tag_304:\n        /* \"#utility.yul\":4858:4930   */\n      tag_305\n        /* \"#utility.yul\":4926:4928   */\n      0x20\n        /* \"#utility.yul\":4915:4924   */\n      dup4\n        /* \"#utility.yul\":4911:4929   */\n      add\n        /* \"#utility.yul\":4902:4908   */\n      dup9\n        /* \"#utility.yul\":4858:4930   */\n      tag_224\n      jump\t// in\n    tag_305:\n        /* \"#utility.yul\":4940:5012   */\n      tag_306\n        /* \"#utility.yul\":5008:5010   */\n      0x40\n        /* \"#utility.yul\":4997:5006   */\n      dup4\n        /* \"#utility.yul\":4993:5011   */\n      add\n        /* \"#utility.yul\":4984:4990   */\n      dup8\n        /* \"#utility.yul\":4940:5012   */\n      tag_219\n      jump\t// in\n    tag_306:\n        /* \"#utility.yul\":5022:5094   */\n      tag_307\n        /* \"#utility.yul\":5090:5092   */\n      0x60\n        /* \"#utility.yul\":5079:5088   */\n      dup4\n        /* \"#utility.yul\":5075:5093   */\n      add\n        /* \"#utility.yul\":5066:5072   */\n      dup7\n        /* \"#utility.yul\":5022:5094   */\n      tag_224\n      jump\t// in\n    tag_307:\n        /* \"#utility.yul\":5104:5177   */\n      tag_308\n        /* \"#utility.yul\":5172:5175   */\n      0x80\n        /* \"#utility.yul\":5161:5170   */\n      dup4\n        /* \"#utility.yul\":5157:5176   */\n      add\n        /* \"#utility.yul\":5148:5154   */\n      dup6\n        /* \"#utility.yul\":5104:5177   */\n      tag_219\n      jump\t// in\n    tag_308:\n        /* \"#utility.yul\":5187:5254   */\n      tag_309\n        /* \"#utility.yul\":5249:5252   */\n      0xa0\n        /* \"#utility.yul\":5238:5247   */\n      dup4\n        /* \"#utility.yul\":5234:5253   */\n      add\n        /* \"#utility.yul\":5225:5231   */\n      dup5\n        /* \"#utility.yul\":5187:5254   */\n      tag_226\n      jump\t// in\n    tag_309:\n        /* \"#utility.yul\":4498:5261   */\n      swap8\n      swap7\n      pop\n      pop\n      pop\n      pop\n      pop\n      pop\n      pop\n      jump\t// out\n        /* \"#utility.yul\":5267:5371   */\n    tag_227:\n        /* \"#utility.yul\":5312:5319   */\n      0x00\n        /* \"#utility.yul\":5341:5365   */\n      tag_311\n        /* \"#utility.yul\":5359:5364   */\n      dup3\n        /* \"#utility.yul\":5341:5365   */\n      tag_214\n      jump\t// in\n    tag_311:\n        /* \"#utility.yul\":5330:5365   */\n      swap1\n      pop\n        /* \"#utility.yul\":5267:5371   */\n      swap2\n      swap1\n      pop\n      jump\t// out\n        /* \"#utility.yul\":5377:5515   */\n    tag_228:\n        /* \"#utility.yul\":5458:5490   */\n      tag_313\n        /* \"#utility.yul\":5484:5489   */\n      dup2\n        /* \"#utility.yul\":5458:5490   */\n      tag_227\n      jump\t// in\n    tag_313:\n        /* \"#utility.yul\":5451:5456   */\n      dup2\n        /* \"#utility.yul\":5448:5491   */\n      eq\n        /* \"#utility.yul\":5438:5509   */\n      tag_314\n      jumpi\n        /* \"#utility.yul\":5505:5506   */\n      0x00\n        /* \"#utility.yul\":5502:5503   */\n      dup1\n        /* \"#utility.yul\":5495:5507   */\n      revert\n        /* \"#utility.yul\":5438:5509   */\n    tag_314:\n        /* \"#utility.yul\":5377:5515   */\n      pop\n      jump\t// out\n        /* \"#utility.yul\":5521:5676   */\n    tag_229:\n        /* \"#utility.yul\":5575:5580   */\n      0x00\n        /* \"#utility.yul\":5613:5619   */\n      dup2\n        /* \"#utility.yul\":5600:5620   */\n      calldataload\n        /* \"#utility.yul\":5591:5620   */\n      swap1\n      pop\n        /* \"#utility.yul\":5629:5670   */\n      tag_316\n        /* \"#utility.yul\":5664:5669   */\n      dup2\n        /* \"#utility.yul\":5629:5670   */\n      tag_228\n      jump\t// in\n    tag_316:\n        /* \"#utility.yul\":5521:5676   */\n      swap3\n      swap2\n      pop\n      pop\n      jump\t// out\n        /* \"#utility.yul\":5682:6317   */\n    tag_71:\n        /* \"#utility.yul\":5767:5773   */\n      0x00\n        /* \"#utility.yul\":5775:5781   */\n      dup1\n        /* \"#utility.yul\":5783:5789   */\n      0x00\n        /* \"#utility.yul\":5832:5834   */\n      0x60\n        /* \"#utility.yul\":5820:5829   */\n      dup5\n        /* \"#utility.yul\":5811:5818   */\n      dup7\n        /* \"#utility.yul\":5807:5830   */\n      sub\n        /* \"#utility.yul\":5803:5835   */\n      slt\n        /* \"#utility.yul\":5800:5919   */\n      iszero\n      tag_318\n      jumpi\n        /* \"#utility.yul\":5838:5917   */\n      tag_319\n      tag_212\n      jump\t// in\n    tag_319:\n        /* \"#utility.yul\":5800:5919   */\n    tag_318:\n        /* \"#utility.yul\":5958:5959   */\n      0x00\n        /* \"#utility.yul\":5983:6036   */\n      tag_320\n        /* \"#utility.yul\":6028:6035   */\n      dup7\n        /* \"#utility.yul\":6019:6025   */\n      dup3\n        /* \"#utility.yul\":6008:6017   */\n      dup8\n        /* \"#utility.yul\":6004:6026   */\n      add\n        /* \"#utility.yul\":5983:6036   */\n      tag_217\n      jump\t// in\n    tag_320:\n        /* \"#utility.yul\":5973:6036   */\n      swap4\n      pop\n        /* \"#utility.yul\":5929:6046   */\n      pop\n        /* \"#utility.yul\":6085:6087   */\n      0x20\n        /* \"#utility.yul\":6111:6172   */\n      tag_321\n        /* \"#utility.yul\":6164:6171   */\n      dup7\n        /* \"#utility.yul\":6155:6161   */\n      dup3\n        /* \"#utility.yul\":6144:6153   */\n      dup8\n        /* \"#utility.yul\":6140:6162   */\n      add\n        /* \"#utility.yul\":6111:6172   */\n      tag_229\n      jump\t// in\n    tag_321:\n        /* \"#utility.yul\":6101:6172   */\n      swap3\n      pop\n        /* \"#utility.yul\":6056:6182   */\n      pop\n        /* \"#utility.yul\":6221:6223   */\n      0x40\n        /* \"#utility.yul\":6247:6300   */\n      tag_322\n        /* \"#utility.yul\":6292:6299   */\n      dup7\n        /* \"#utility.yul\":6283:6289   */\n      dup3\n        /* \"#utility.yul\":6272:6281   */\n      dup8\n        /* \"#utility.yul\":6268:6290   */\n      add\n        /* \"#utility.yul\":6247:6300   */\n      tag_221\n      jump\t// in\n    tag_322:\n        /* \"#utility.yul\":6237:6300   */\n      swap2\n      pop\n        /* \"#utility.yul\":6192:6310   */\n      pop\n        /* \"#utility.yul\":5682:6317   */\n      swap3\n      pop\n      swap3\n      pop\n      swap3\n      jump\t// out\n        /* \"#utility.yul\":6323:6545   */\n    tag_78:\n        /* \"#utility.yul\":6416:6420   */\n      0x00\n        /* \"#utility.yul\":6454:6456   */\n      0x20\n        /* \"#utility.yul\":6443:6452   */\n      dup3\n        /* \"#utility.yul\":6439:6457   */\n      add\n        /* \"#utility.yul\":6431:6457   */\n      swap1\n      pop\n        /* \"#utility.yul\":6467:6538   */\n      tag_324\n        /* \"#utility.yul\":6535:6536   */\n      0x00\n        /* \"#utility.yul\":6524:6533   */\n      dup4\n        /* \"#utility.yul\":6520:6537   */\n      add\n        /* \"#utility.yul\":6511:6517   */\n      dup5\n        /* \"#utility.yul\":6467:6538   */\n      tag_219\n      jump\t// in\n    tag_324:\n        /* \"#utility.yul\":6323:6545   */\n      swap3\n      swap2\n      pop\n      pop\n      jump\t// out\n        /* \"#utility.yul\":6551:6731   */\n    tag_230:\n        /* \"#utility.yul\":6599:6676   */\n      0x4e487b7100000000000000000000000000000000000000000000000000000000\n        /* \"#utility.yul\":6596:6597   */\n      0x00\n        /* \"#utility.yul\":6589:6677   */\n      mstore\n        /* \"#utility.yul\":6696:6700   */\n      0x11\n        /* \"#utility.yul\":6693:6694   */\n      0x04\n        /* \"#utility.yul\":6686:6701   */\n      mstore\n        /* \"#utility.yul\":6720:6724   */\n      0x24\n        /* \"#utility.yul\":6717:6718   */\n      0x00\n        /* \"#utility.yul\":6710:6725   */\n      revert\n        /* \"#utility.yul\":6737:6928   */\n    tag_92:\n        /* \"#utility.yul\":6777:6780   */\n      0x00\n        /* \"#utility.yul\":6796:6816   */\n      tag_327\n        /* \"#utility.yul\":6814:6815   */\n      dup3\n        /* \"#utility.yul\":6796:6816   */\n      tag_218\n      jump\t// in\n    tag_327:\n        /* \"#utility.yul\":6791:6816   */\n      swap2\n      pop\n        /* \"#utility.yul\":6830:6850   */\n      tag_328\n        /* \"#utility.yul\":6848:6849   */\n      dup4\n        /* \"#utility.yul\":6830:6850   */\n      tag_218\n      jump\t// in\n    tag_328:\n        /* \"#utility.yul\":6825:6850   */\n      swap3\n      pop\n        /* \"#utility.yul\":6873:6874   */\n      dup3\n        /* \"#utility.yul\":6870:6871   */\n      dup3\n        /* \"#utility.yul\":6866:6875   */\n      add\n        /* \"#utility.yul\":6859:6875   */\n      swap1\n      pop\n        /* \"#utility.yul\":6894:6897   */\n      dup1\n        /* \"#utility.yul\":6891:6892   */\n      dup3\n        /* \"#utility.yul\":6888:6898   */\n      gt\n        /* \"#utility.yul\":6885:6921   */\n      iszero\n      tag_329\n      jumpi\n        /* \"#utility.yul\":6901:6919   */\n      tag_330\n      tag_230\n      jump\t// in\n    tag_330:\n        /* \"#utility.yul\":6885:6921   */\n    tag_329:\n        /* \"#utility.yul\":6737:6928   */\n      swap3\n      swap2\n      pop\n      pop\n      jump\t// out\n        /* \"#utility.yul\":6934:7103   */\n    tag_231:\n        /* \"#utility.yul\":7018:7029   */\n      0x00\n        /* \"#utility.yul\":7052:7058   */\n      dup3\n        /* \"#utility.yul\":7047:7050   */\n      dup3\n        /* \"#utility.yul\":7040:7059   */\n      mstore\n        /* \"#utility.yul\":7092:7096   */\n      0x20\n        /* \"#utility.yul\":7087:7090   */\n      dup3\n        /* \"#utility.yul\":7083:7097   */\n      add\n        /* \"#utility.yul\":7068:7097   */\n      swap1\n      pop\n        /* \"#utility.yul\":6934:7103   */\n      swap3\n      swap2\n      pop\n      pop\n      jump\t// out\n        /* \"#utility.yul\":7109:7272   */\n    tag_232:\n        /* \"#utility.yul\":7249:7264   */\n      0x496e76616c696420746f6b656e00000000000000000000000000000000000000\n        /* \"#utility.yul\":7245:7246   */\n      0x00\n        /* \"#utility.yul\":7237:7243   */\n      dup3\n        /* \"#utility.yul\":7233:7247   */\n      add\n        /* \"#utility.yul\":7226:7265   */\n      mstore\n        /* \"#utility.yul\":7109:7272   */\n      pop\n      jump\t// out\n        /* \"#utility.yul\":7278:7644   */\n    tag_233:\n        /* \"#utility.yul\":7420:7423   */\n      0x00\n        /* \"#utility.yul\":7441:7508   */\n      tag_334\n        /* \"#utility.yul\":7505:7507   */\n      0x0d\n        /* \"#utility.yul\":7500:7503   */\n      dup4\n        /* \"#utility.yul\":7441:7508   */\n      tag_231\n      jump\t// in\n    tag_334:\n        /* \"#utility.yul\":7434:7508   */\n      swap2\n      pop\n        /* \"#utility.yul\":7517:7610   */\n      tag_335\n        /* \"#utility.yul\":7606:7609   */\n      dup3\n        /* \"#utility.yul\":7517:7610   */\n      tag_232\n      jump\t// in\n    tag_335:\n        /* \"#utility.yul\":7635:7637   */\n      0x20\n        /* \"#utility.yul\":7630:7633   */\n      dup3\n        /* \"#utility.yul\":7626:7638   */\n      add\n        /* \"#utility.yul\":7619:7638   */\n      swap1\n      pop\n        /* \"#utility.yul\":7278:7644   */\n      swap2\n      swap1\n      pop\n      jump\t// out\n        /* \"#utility.yul\":7650:8069   */\n    tag_99:\n        /* \"#utility.yul\":7816:7820   */\n      0x00\n        /* \"#utility.yul\":7854:7856   */\n      0x20\n        /* \"#utility.yul\":7843:7852   */\n      dup3\n        /* \"#utility.yul\":7839:7857   */\n      add\n        /* \"#utility.yul\":7831:7857   */\n      swap1\n      pop\n        /* \"#utility.yul\":7903:7912   */\n      dup2\n        /* \"#utility.yul\":7897:7901   */\n      dup2\n        /* \"#utility.yul\":7893:7913   */\n      sub\n        /* \"#utility.yul\":7889:7890   */\n      0x00\n        /* \"#utility.yul\":7878:7887   */\n      dup4\n        /* \"#utility.yul\":7874:7891   */\n      add\n        /* \"#utility.yul\":7867:7914   */\n      mstore\n        /* \"#utility.yul\":7931:8062   */\n      tag_337\n        /* \"#utility.yul\":8057:8061   */\n      dup2\n        /* \"#utility.yul\":7931:8062   */\n      tag_233\n      jump\t// in\n    tag_337:\n        /* \"#utility.yul\":7923:8062   */\n      swap1\n      pop\n        /* \"#utility.yul\":7650:8069   */\n      swap2\n      swap1\n      pop\n      jump\t// out\n        /* \"#utility.yul\":8075:8517   */\n    tag_101:\n        /* \"#utility.yul\":8224:8228   */\n      0x00\n        /* \"#utility.yul\":8262:8264   */\n      0x60\n        /* \"#utility.yul\":8251:8260   */\n      dup3\n        /* \"#utility.yul\":8247:8265   */\n      add\n        /* \"#utility.yul\":8239:8265   */\n      swap1\n      pop\n        /* \"#utility.yul\":8275:8346   */\n      tag_339\n        /* \"#utility.yul\":8343:8344   */\n      0x00\n        /* \"#utility.yul\":8332:8341   */\n      dup4\n        /* \"#utility.yul\":8328:8345   */\n      add\n        /* \"#utility.yul\":8319:8325   */\n      dup7\n        /* \"#utility.yul\":8275:8346   */\n      tag_224\n      jump\t// in\n    tag_339:\n        /* \"#utility.yul\":8356:8428   */\n      tag_340\n        /* \"#utility.yul\":8424:8426   */\n      0x20\n        /* \"#utility.yul\":8413:8422   */\n      dup4\n        /* \"#utility.yul\":8409:8427   */\n      add\n        /* \"#utility.yul\":8400:8406   */\n      dup6\n        /* \"#utility.yul\":8356:8428   */\n      tag_224\n      jump\t// in\n    tag_340:\n        /* \"#utility.yul\":8438:8510   */\n      tag_341\n        /* \"#utility.yul\":8506:8508   */\n      0x40\n        /* \"#utility.yul\":8495:8504   */\n      dup4\n        /* \"#utility.yul\":8491:8509   */\n      add\n        /* \"#utility.yul\":8482:8488   */\n      dup5\n        /* \"#utility.yul\":8438:8510   */\n      tag_219\n      jump\t// in\n    tag_341:\n        /* \"#utility.yul\":8075:8517   */\n      swap5\n      swap4\n      pop\n      pop\n      pop\n      pop\n      jump\t// out\n        /* \"#utility.yul\":8523:8639   */\n    tag_234:\n        /* \"#utility.yul\":8593:8614   */\n      tag_343\n        /* \"#utility.yul\":8608:8613   */\n      dup2\n        /* \"#utility.yul\":8593:8614   */\n      tag_225\n      jump\t// in\n    tag_343:\n        /* \"#utility.yul\":8586:8591   */\n      dup2\n        /* \"#utility.yul\":8583:8615   */\n      eq\n        /* \"#utility.yul\":8573:8633   */\n      tag_344\n      jumpi\n        /* \"#utility.yul\":8629:8630   */\n      0x00\n        /* \"#utility.yul\":8626:8627   */\n      dup1\n        /* \"#utility.yul\":8619:8631   */\n      revert\n        /* \"#utility.yul\":8573:8633   */\n    tag_344:\n        /* \"#utility.yul\":8523:8639   */\n      pop\n      jump\t// out\n        /* \"#utility.yul\":8645:8782   */\n    tag_235:\n        /* \"#utility.yul\":8699:8704   */\n      0x00\n        /* \"#utility.yul\":8730:8736   */\n      dup2\n        /* \"#utility.yul\":8724:8737   */\n      mload\n        /* \"#utility.yul\":8715:8737   */\n      swap1\n      pop\n        /* \"#utility.yul\":8746:8776   */\n      tag_346\n        /* \"#utility.yul\":8770:8775   */\n      dup2\n        /* \"#utility.yul\":8746:8776   */\n      tag_234\n      jump\t// in\n    tag_346:\n        /* \"#utility.yul\":8645:8782   */\n      swap3\n      swap2\n      pop\n      pop\n      jump\t// out\n        /* \"#utility.yul\":8788:9133   */\n    tag_105:\n        /* \"#utility.yul\":8855:8861   */\n      0x00\n        /* \"#utility.yul\":8904:8906   */\n      0x20\n        /* \"#utility.yul\":8892:8901   */\n      dup3\n        /* \"#utility.yul\":8883:8890   */\n      dup5\n        /* \"#utility.yul\":8879:8902   */\n      sub\n        /* \"#utility.yul\":8875:8907   */\n      slt\n        /* \"#utility.yul\":8872:8991   */\n      iszero\n      tag_348\n      jumpi\n        /* \"#utility.yul\":8910:8989   */\n      tag_349\n      tag_212\n      jump\t// in\n    tag_349:\n        /* \"#utility.yul\":8872:8991   */\n    tag_348:\n        /* \"#utility.yul\":9030:9031   */\n      0x00\n        /* \"#utility.yul\":9055:9116   */\n      tag_350\n        /* \"#utility.yul\":9108:9115   */\n      dup5\n        /* \"#utility.yul\":9099:9105   */\n      dup3\n        /* \"#utility.yul\":9088:9097   */\n      dup6\n        /* \"#utility.yul\":9084:9106   */\n      add\n        /* \"#utility.yul\":9055:9116   */\n      tag_235\n      jump\t// in\n    tag_350:\n        /* \"#utility.yul\":9045:9116   */\n      swap2\n      pop\n        /* \"#utility.yul\":9001:9126   */\n      pop\n        /* \"#utility.yul\":8788:9133   */\n      swap3\n      swap2\n      pop\n      pop\n      jump\t// out\n        /* \"#utility.yul\":9139:9304   */\n    tag_236:\n        /* \"#utility.yul\":9279:9296   */\n      0x5472616e73666572206661696c65640000000000000000000000000000000000\n        /* \"#utility.yul\":9275:9276   */\n      0x00\n        /* \"#utility.yul\":9267:9273   */\n      dup3\n        /* \"#utility.yul\":9263:9277   */\n      add\n        /* \"#utility.yul\":9256:9297   */\n      mstore\n        /* \"#utility.yul\":9139:9304   */\n      pop\n      jump\t// out\n        /* \"#utility.yul\":9310:9676   */\n    tag_237:\n        /* \"#utility.yul\":9452:9455   */\n      0x00\n        /* \"#utility.yul\":9473:9540   */\n      tag_353\n        /* \"#utility.yul\":9537:9539   */\n      0x0f\n        /* \"#utility.yul\":9532:9535   */\n      dup4\n        /* \"#utility.yul\":9473:9540   */\n      tag_231\n      jump\t// in\n    tag_353:\n        /* \"#utility.yul\":9466:9540   */\n      swap2\n      pop\n        /* \"#utility.yul\":9549:9642   */\n      tag_354\n        /* \"#utility.yul\":9638:9641   */\n      dup3\n        /* \"#utility.yul\":9549:9642   */\n      tag_236\n      jump\t// in\n    tag_354:\n        /* \"#utility.yul\":9667:9669   */\n      0x20\n        /* \"#utility.yul\":9662:9665   */\n      dup3\n        /* \"#utility.yul\":9658:9670   */\n      add\n        /* \"#utility.yul\":9651:9670   */\n      swap1\n      pop\n        /* \"#utility.yul\":9310:9676   */\n      swap2\n      swap1\n      pop\n      jump\t// out\n        /* \"#utility.yul\":9682:10101   */\n    tag_108:\n        /* \"#utility.yul\":9848:9852   */\n      0x00\n        /* \"#utility.yul\":9886:9888   */\n      0x20\n        /* \"#utility.yul\":9875:9884   */\n      dup3\n        /* \"#utility.yul\":9871:9889   */\n      add\n        /* \"#utility.yul\":9863:9889   */\n      swap1\n      pop\n        /* \"#utility.yul\":9935:9944   */\n      dup2\n        /* \"#utility.yul\":9929:9933   */\n      dup2\n        /* \"#utility.yul\":9925:9945   */\n      sub\n        /* \"#utility.yul\":9921:9922   */\n      0x00\n        /* \"#utility.yul\":9910:9919   */\n      dup4\n        /* \"#utility.yul\":9906:9923   */\n      add\n        /* \"#utility.yul\":9899:9946   */\n      mstore\n        /* \"#utility.yul\":9963:10094   */\n      tag_356\n        /* \"#utility.yul\":10089:10093   */\n      dup2\n        /* \"#utility.yul\":9963:10094   */\n      tag_237\n      jump\t// in\n    tag_356:\n        /* \"#utility.yul\":9955:10094   */\n      swap1\n      pop\n        /* \"#utility.yul\":9682:10101   */\n      swap2\n      swap1\n      pop\n      jump\t// out\n        /* \"#utility.yul\":10107:10286   */\n    tag_238:\n        /* \"#utility.yul\":10247:10278   */\n      0x416d6f756e74206d7573742062652067726561746572207468616e2030000000\n        /* \"#utility.yul\":10243:10244   */\n      0x00\n        /* \"#utility.yul\":10235:10241   */\n      dup3\n        /* \"#utility.yul\":10231:10245   */\n      add\n        /* \"#utility.yul\":10224:10279   */\n      mstore\n        /* \"#utility.yul\":10107:10286   */\n      pop\n      jump\t// out\n        /* \"#utility.yul\":10292:10658   */\n    tag_239:\n        /* \"#utility.yul\":10434:10437   */\n      0x00\n        /* \"#utility.yul\":10455:10522   */\n      tag_359\n        /* \"#utility.yul\":10519:10521   */\n      0x1d\n        /* \"#utility.yul\":10514:10517   */\n      dup4\n        /* \"#utility.yul\":10455:10522   */\n      tag_231\n      jump\t// in\n    tag_359:\n        /* \"#utility.yul\":10448:10522   */\n      swap2\n      pop\n        /* \"#utility.yul\":10531:10624   */\n      tag_360\n        /* \"#utility.yul\":10620:10623   */\n      dup3\n        /* \"#utility.yul\":10531:10624   */\n      tag_238\n      jump\t// in\n    tag_360:\n        /* \"#utility.yul\":10649:10651   */\n      0x20\n        /* \"#utility.yul\":10644:10647   */\n      dup3\n        /* \"#utility.yul\":10640:10652   */\n      add\n        /* \"#utility.yul\":10633:10652   */\n      swap1\n      pop\n        /* \"#utility.yul\":10292:10658   */\n      swap2\n      swap1\n      pop\n      jump\t// out\n        /* \"#utility.yul\":10664:11083   */\n    tag_127:\n        /* \"#utility.yul\":10830:10834   */\n      0x00\n        /* \"#utility.yul\":10868:10870   */\n      0x20\n        /* \"#utility.yul\":10857:10866   */\n      dup3\n        /* \"#utility.yul\":10853:10871   */\n      add\n        /* \"#utility.yul\":10845:10871   */\n      swap1\n      pop\n        /* \"#utility.yul\":10917:10926   */\n      dup2\n        /* \"#utility.yul\":10911:10915   */\n      dup2\n        /* \"#utility.yul\":10907:10927   */\n      sub\n        /* \"#utility.yul\":10903:10904   */\n      0x00\n        /* \"#utility.yul\":10892:10901   */\n      dup4\n        /* \"#utility.yul\":10888:10905   */\n      add\n        /* \"#utility.yul\":10881:10928   */\n      mstore\n        /* \"#utility.yul\":10945:11076   */\n      tag_362\n        /* \"#utility.yul\":11071:11075   */\n      dup2\n        /* \"#utility.yul\":10945:11076   */\n      tag_239\n      jump\t// in\n    tag_362:\n        /* \"#utility.yul\":10937:11076   */\n      swap1\n      pop\n        /* \"#utility.yul\":10664:11083   */\n      swap2\n      swap1\n      pop\n      jump\t// out\n        /* \"#utility.yul\":11089:11499   */\n    tag_130:\n        /* \"#utility.yul\":11129:11136   */\n      0x00\n        /* \"#utility.yul\":11152:11172   */\n      tag_364\n        /* \"#utility.yul\":11170:11171   */\n      dup3\n        /* \"#utility.yul\":11152:11172   */\n      tag_218\n      jump\t// in\n    tag_364:\n        /* \"#utility.yul\":11147:11172   */\n      swap2\n      pop\n        /* \"#utility.yul\":11186:11206   */\n      tag_365\n        /* \"#utility.yul\":11204:11205   */\n      dup4\n        /* \"#utility.yul\":11186:11206   */\n      tag_218\n      jump\t// in\n    tag_365:\n        /* \"#utility.yul\":11181:11206   */\n      swap3\n      pop\n        /* \"#utility.yul\":11241:11242   */\n      dup3\n        /* \"#utility.yul\":11238:11239   */\n      dup3\n        /* \"#utility.yul\":11234:11243   */\n      mul\n        /* \"#utility.yul\":11263:11293   */\n      tag_366\n        /* \"#utility.yul\":11281:11292   */\n      dup2\n        /* \"#utility.yul\":11263:11293   */\n      tag_218\n      jump\t// in\n    tag_366:\n        /* \"#utility.yul\":11252:11293   */\n      swap2\n      pop\n        /* \"#utility.yul\":11442:11443   */\n      dup3\n        /* \"#utility.yul\":11433:11440   */\n      dup3\n        /* \"#utility.yul\":11429:11444   */\n      div\n        /* \"#utility.yul\":11426:11427   */\n      dup5\n        /* \"#utility.yul\":11423:11445   */\n      eq\n        /* \"#utility.yul\":11403:11404   */\n      dup4\n        /* \"#utility.yul\":11396:11405   */\n      iszero\n        /* \"#utility.yul\":11376:11459   */\n      or\n        /* \"#utility.yul\":11353:11492   */\n      tag_367\n      jumpi\n        /* \"#utility.yul\":11472:11490   */\n      tag_368\n      tag_230\n      jump\t// in\n    tag_368:\n        /* \"#utility.yul\":11353:11492   */\n    tag_367:\n        /* \"#utility.yul\":11137:11499   */\n      pop\n        /* \"#utility.yul\":11089:11499   */\n      swap3\n      swap2\n      pop\n      pop\n      jump\t// out\n        /* \"#utility.yul\":11505:11675   */\n    tag_240:\n        /* \"#utility.yul\":11645:11667   */\n      0x496e73756666696369656e742062616c616e6365000000000000000000000000\n        /* \"#utility.yul\":11641:11642   */\n      0x00\n        /* \"#utility.yul\":11633:11639   */\n      dup3\n        /* \"#utility.yul\":11629:11643   */\n      add\n        /* \"#utility.yul\":11622:11668   */\n      mstore\n        /* \"#utility.yul\":11505:11675   */\n      pop\n      jump\t// out\n        /* \"#utility.yul\":11681:12047   */\n    tag_241:\n        /* \"#utility.yul\":11823:11826   */\n      0x00\n        /* \"#utility.yul\":11844:11911   */\n      tag_371\n        /* \"#utility.yul\":11908:11910   */\n      0x14\n        /* \"#utility.yul\":11903:11906   */\n      dup4\n        /* \"#utility.yul\":11844:11911   */\n      tag_231\n      jump\t// in\n    tag_371:\n        /* \"#utility.yul\":11837:11911   */\n      swap2\n      pop\n        /* \"#utility.yul\":11920:12013   */\n      tag_372\n        /* \"#utility.yul\":12009:12012   */\n      dup3\n        /* \"#utility.yul\":11920:12013   */\n      tag_240\n      jump\t// in\n    tag_372:\n        /* \"#utility.yul\":12038:12040   */\n      0x20\n        /* \"#utility.yul\":12033:12036   */\n      dup3\n        /* \"#utility.yul\":12029:12041   */\n      add\n        /* \"#utility.yul\":12022:12041   */\n      swap1\n      pop\n        /* \"#utility.yul\":11681:12047   */\n      swap2\n      swap1\n      pop\n      jump\t// out\n        /* \"#utility.yul\":12053:12472   */\n    tag_133:\n        /* \"#utility.yul\":12219:12223   */\n      0x00\n        /* \"#utility.yul\":12257:12259   */\n      0x20\n        /* \"#utility.yul\":12246:12255   */\n      dup3\n        /* \"#utility.yul\":12242:12260   */\n      add\n        /* \"#utility.yul\":12234:12260   */\n      swap1\n      pop\n        /* \"#utility.yul\":12306:12315   */\n      dup2\n        /* \"#utility.yul\":12300:12304   */\n      dup2\n        /* \"#utility.yul\":12296:12316   */\n      sub\n        /* \"#utility.yul\":12292:12293   */\n      0x00\n        /* \"#utility.yul\":12281:12290   */\n      dup4\n        /* \"#utility.yul\":12277:12294   */\n      add\n        /* \"#utility.yul\":12270:12317   */\n      mstore\n        /* \"#utility.yul\":12334:12465   */\n      tag_374\n        /* \"#utility.yul\":12460:12464   */\n      dup2\n        /* \"#utility.yul\":12334:12465   */\n      tag_241\n      jump\t// in\n    tag_374:\n        /* \"#utility.yul\":12326:12465   */\n      swap1\n      pop\n        /* \"#utility.yul\":12053:12472   */\n      swap2\n      swap1\n      pop\n      jump\t// out\n        /* \"#utility.yul\":12478:12672   */\n    tag_136:\n        /* \"#utility.yul\":12518:12522   */\n      0x00\n        /* \"#utility.yul\":12538:12558   */\n      tag_376\n        /* \"#utility.yul\":12556:12557   */\n      dup3\n        /* \"#utility.yul\":12538:12558   */\n      tag_218\n      jump\t// in\n    tag_376:\n        /* \"#utility.yul\":12533:12558   */\n      swap2\n      pop\n        /* \"#utility.yul\":12572:12592   */\n      tag_377\n        /* \"#utility.yul\":12590:12591   */\n      dup4\n        /* \"#utility.yul\":12572:12592   */\n      tag_218\n      jump\t// in\n    tag_377:\n        /* \"#utility.yul\":12567:12592   */\n      swap3\n      pop\n        /* \"#utility.yul\":12616:12617   */\n      dup3\n        /* \"#utility.yul\":12613:12614   */\n      dup3\n        /* \"#utility.yul\":12609:12618   */\n      sub\n        /* \"#utility.yul\":12601:12618   */\n      swap1\n      pop\n        /* \"#utility.yul\":12640:12641   */\n      dup2\n        /* \"#utility.yul\":12634:12638   */\n      dup2\n        /* \"#utility.yul\":12631:12642   */\n      gt\n        /* \"#utility.yul\":12628:12665   */\n      iszero\n      tag_378\n      jumpi\n        /* \"#utility.yul\":12645:12663   */\n      tag_379\n      tag_230\n      jump\t// in\n    tag_379:\n        /* \"#utility.yul\":12628:12665   */\n    tag_378:\n        /* \"#utility.yul\":12478:12672   */\n      swap3\n      swap2\n      pop\n      pop\n      jump\t// out\n        /* \"#utility.yul\":12678:12858   */\n    tag_242:\n        /* \"#utility.yul\":12726:12803   */\n      0x4e487b7100000000000000000000000000000000000000000000000000000000\n        /* \"#utility.yul\":12723:12724   */\n      0x00\n        /* \"#utility.yul\":12716:12804   */\n      mstore\n        /* \"#utility.yul\":12823:12827   */\n      0x12\n        /* \"#utility.yul\":12820:12821   */\n      0x04\n        /* \"#utility.yul\":12813:12828   */\n      mstore\n        /* \"#utility.yul\":12847:12851   */\n      0x24\n        /* \"#utility.yul\":12844:12845   */\n      0x00\n        /* \"#utility.yul\":12837:12852   */\n      revert\n        /* \"#utility.yul\":12864:13049   */\n    tag_154:\n        /* \"#utility.yul\":12904:12905   */\n      0x00\n        /* \"#utility.yul\":12921:12941   */\n      tag_382\n        /* \"#utility.yul\":12939:12940   */\n      dup3\n        /* \"#utility.yul\":12921:12941   */\n      tag_218\n      jump\t// in\n    tag_382:\n        /* \"#utility.yul\":12916:12941   */\n      swap2\n      pop\n        /* \"#utility.yul\":12955:12975   */\n      tag_383\n        /* \"#utility.yul\":12973:12974   */\n      dup4\n        /* \"#utility.yul\":12955:12975   */\n      tag_218\n      jump\t// in\n    tag_383:\n        /* \"#utility.yul\":12950:12975   */\n      swap3\n      pop\n        /* \"#utility.yul\":12994:12995   */\n      dup3\n        /* \"#utility.yul\":12984:13019   */\n      tag_384\n      jumpi\n        /* \"#utility.yul\":12999:13017   */\n      tag_385\n      tag_242\n      jump\t// in\n    tag_385:\n        /* \"#utility.yul\":12984:13019   */\n    tag_384:\n        /* \"#utility.yul\":13041:13042   */\n      dup3\n        /* \"#utility.yul\":13038:13039   */\n      dup3\n        /* \"#utility.yul\":13034:13043   */\n      div\n        /* \"#utility.yul\":13029:13043   */\n      swap1\n      pop\n        /* \"#utility.yul\":12864:13049   */\n      swap3\n      swap2\n      pop\n      pop\n      jump\t// out\n        /* \"#utility.yul\":13055:13202   */\n    tag_243:\n        /* \"#utility.yul\":13156:13167   */\n      0x00\n        /* \"#utility.yul\":13193:13196   */\n      dup2\n        /* \"#utility.yul\":13178:13196   */\n      swap1\n      pop\n        /* \"#utility.yul\":13055:13202   */\n      swap3\n      swap2\n      pop\n      pop\n      jump\t// out\n        /* \"#utility.yul\":13208:13322   */\n    tag_244:\n      pop\n      jump\t// out\n        /* \"#utility.yul\":13328:13726   */\n    tag_245:\n        /* \"#utility.yul\":13487:13490   */\n      0x00\n        /* \"#utility.yul\":13508:13591   */\n      tag_389\n        /* \"#utility.yul\":13589:13590   */\n      0x00\n        /* \"#utility.yul\":13584:13587   */\n      dup4\n        /* \"#utility.yul\":13508:13591   */\n      tag_243\n      jump\t// in\n    tag_389:\n        /* \"#utility.yul\":13501:13591   */\n      swap2\n      pop\n        /* \"#utility.yul\":13600:13693   */\n      tag_390\n        /* \"#utility.yul\":13689:13692   */\n      dup3\n        /* \"#utility.yul\":13600:13693   */\n      tag_244\n      jump\t// in\n    tag_390:\n        /* \"#utility.yul\":13718:13719   */\n      0x00\n        /* \"#utility.yul\":13713:13716   */\n      dup3\n        /* \"#utility.yul\":13709:13720   */\n      add\n        /* \"#utility.yul\":13702:13720   */\n      swap1\n      pop\n        /* \"#utility.yul\":13328:13726   */\n      swap2\n      swap1\n      pop\n      jump\t// out\n        /* \"#utility.yul\":13732:14111   */\n    tag_177:\n        /* \"#utility.yul\":13916:13919   */\n      0x00\n        /* \"#utility.yul\":13938:14085   */\n      tag_392\n        /* \"#utility.yul\":14081:14084   */\n      dup3\n        /* \"#utility.yul\":13938:14085   */\n      tag_245\n      jump\t// in\n    tag_392:\n        /* \"#utility.yul\":13931:14085   */\n      swap2\n      pop\n        /* \"#utility.yul\":14102:14105   */\n      dup2\n        /* \"#utility.yul\":14095:14105   */\n      swap1\n      pop\n        /* \"#utility.yul\":13732:14111   */\n      swap2\n      swap1\n      pop\n      jump\t// out\n        /* \"#utility.yul\":14117:14288   */\n    tag_246:\n        /* \"#utility.yul\":14257:14280   */\n      0x455448207769746864726177616c206661696c65640000000000000000000000\n        /* \"#utility.yul\":14253:14254   */\n      0x00\n        /* \"#utility.yul\":14245:14251   */\n      dup3\n        /* \"#utility.yul\":14241:14255   */\n      add\n        /* \"#utility.yul\":14234:14281   */\n      mstore\n        /* \"#utility.yul\":14117:14288   */\n      pop\n      jump\t// out\n        /* \"#utility.yul\":14294:14660   */\n    tag_247:\n        /* \"#utility.yul\":14436:14439   */\n      0x00\n        /* \"#utility.yul\":14457:14524   */\n      tag_395\n        /* \"#utility.yul\":14521:14523   */\n      0x15\n        /* \"#utility.yul\":14516:14519   */\n      dup4\n        /* \"#utility.yul\":14457:14524   */\n      tag_231\n      jump\t// in\n    tag_395:\n        /* \"#utility.yul\":14450:14524   */\n      swap2\n      pop\n        /* \"#utility.yul\":14533:14626   */\n      tag_396\n        /* \"#utility.yul\":14622:14625   */\n      dup3\n        /* \"#utility.yul\":14533:14626   */\n      tag_246\n      jump\t// in\n    tag_396:\n        /* \"#utility.yul\":14651:14653   */\n      0x20\n        /* \"#utility.yul\":14646:14649   */\n      dup3\n        /* \"#utility.yul\":14642:14654   */\n      add\n        /* \"#utility.yul\":14635:14654   */\n      swap1\n      pop\n        /* \"#utility.yul\":14294:14660   */\n      swap2\n      swap1\n      pop\n      jump\t// out\n        /* \"#utility.yul\":14666:15085   */\n    tag_183:\n        /* \"#utility.yul\":14832:14836   */\n      0x00\n        /* \"#utility.yul\":14870:14872   */\n      0x20\n        /* \"#utility.yul\":14859:14868   */\n      dup3\n        /* \"#utility.yul\":14855:14873   */\n      add\n        /* \"#utility.yul\":14847:14873   */\n      swap1\n      pop\n        /* \"#utility.yul\":14919:14928   */\n      dup2\n        /* \"#utility.yul\":14913:14917   */\n      dup2\n        /* \"#utility.yul\":14909:14929   */\n      sub\n        /* \"#utility.yul\":14905:14906   */\n      0x00\n        /* \"#utility.yul\":14894:14903   */\n      dup4\n        /* \"#utility.yul\":14890:14907   */\n      add\n        /* \"#utility.yul\":14883:14930   */\n      mstore\n        /* \"#utility.yul\":14947:15078   */\n      tag_398\n        /* \"#utility.yul\":15073:15077   */\n      dup2\n        /* \"#utility.yul\":14947:15078   */\n      tag_247\n      jump\t// in\n    tag_398:\n        /* \"#utility.yul\":14939:15078   */\n      swap1\n      pop\n        /* \"#utility.yul\":14666:15085   */\n      swap2\n      swap1\n      pop\n      jump\t// out\n        /* \"#utility.yul\":15091:15423   */\n    tag_194:\n        /* \"#utility.yul\":15212:15216   */\n      0x00\n        /* \"#utility.yul\":15250:15252   */\n      0x40\n        /* \"#utility.yul\":15239:15248   */\n      dup3\n        /* \"#utility.yul\":15235:15253   */\n      add\n        /* \"#utility.yul\":15227:15253   */\n      swap1\n      pop\n        /* \"#utility.yul\":15263:15334   */\n      tag_400\n        /* \"#utility.yul\":15331:15332   */\n      0x00\n        /* \"#utility.yul\":15320:15329   */\n      dup4\n        /* \"#utility.yul\":15316:15333   */\n      add\n        /* \"#utility.yul\":15307:15313   */\n      dup6\n        /* \"#utility.yul\":15263:15334   */\n      tag_224\n      jump\t// in\n    tag_400:\n        /* \"#utility.yul\":15344:15416   */\n      tag_401\n        /* \"#utility.yul\":15412:15414   */\n      0x20\n        /* \"#utility.yul\":15401:15410   */\n      dup4\n        /* \"#utility.yul\":15397:15415   */\n      add\n        /* \"#utility.yul\":15388:15394   */\n      dup5\n        /* \"#utility.yul\":15344:15416   */\n      tag_219\n      jump\t// in\n    tag_401:\n        /* \"#utility.yul\":15091:15423   */\n      swap4\n      swap3\n      pop\n      pop\n      pop\n      jump\t// out\n\n    auxdata: 0xa26469706673582212204072e79e73262896c22511fcc1d4601b0deecf3b1933696b43eb70f55107dff664736f6c634300081a0033\n}\n",
				"bytecode": {
					"linkReferences": {},
					"object": "60c060405234801561000f575f80fd5b506040516127c73803806127c783398181016040528101906100319190610636565b335f73ffffffffffffffffffffffffffffffffffffffff168173ffffffffffffffffffffffffffffffffffffffff16036100a2575f6040517f1e4fbdf7000000000000000000000000000000000000000000000000000000008152600401610099919061068c565b60405180910390fd5b6100b1816103b360201b60201c565b505f8151116100f5576040517f08c379a00000000000000000000000000000000000000000000000000000000081526004016100ec90610725565b60405180910390fd5b5f5b81518110156103635760065f83838151811061011657610115610743565b5b602002602001015173ffffffffffffffffffffffffffffffffffffffff1673ffffffffffffffffffffffffffffffffffffffff1681526020019081526020015f205f9054906101000a900460ff16156101a4576040517f08c379a000000000000000000000000000000000000000000000000000000000815260040161019b906107ba565b60405180910390fd5b60018282815181106101b9576101b8610743565b5b6020026020010151908060018154018082558091505060019003905f5260205f20015f9091909190916101000a81548173ffffffffffffffffffffffffffffffffffffffff021916908373ffffffffffffffffffffffffffffffffffffffff160217905550600282828151811061023357610232610743565b5b602002602001015173ffffffffffffffffffffffffffffffffffffffff1663313ce5676040518163ffffffff1660e01b8152600401602060405180830381865afa158015610283573d5f803e3d5ffd5b505050506040513d601f19601f820116820180604052508101906102a7919061080e565b908060018154018082558091505060019003905f5260205f2090602091828204019190069091909190916101000a81548160ff021916908360ff160217905550600160065f8484815181106102ff576102fe610743565b5b602002602001015173ffffffffffffffffffffffffffffffffffffffff1673ffffffffffffffffffffffffffffffffffffffff1681526020019081526020015f205f6101000a81548160ff02191690831515021790555080806001019150506100f7565b503373ffffffffffffffffffffffffffffffffffffffff1660808173ffffffffffffffffffffffffffffffffffffffff16815250506103a661047460201b60201c565b60a0818152505050610839565b5f805f9054906101000a900473ffffffffffffffffffffffffffffffffffffffff169050815f806101000a81548173ffffffffffffffffffffffffffffffffffffffff021916908373ffffffffffffffffffffffffffffffffffffffff1602179055508173ffffffffffffffffffffffffffffffffffffffff168173ffffffffffffffffffffffffffffffffffffffff167f8be0079c531659141344cd1fd0a4f28419497f9722a3daafe3b4186f6b6457e060405160405180910390a35050565b5f42905090565b5f604051905090565b5f80fd5b5f80fd5b5f80fd5b5f601f19601f8301169050919050565b7f4e487b71000000000000000000000000000000000000000000000000000000005f52604160045260245ffd5b6104d682610490565b810181811067ffffffffffffffff821117156104f5576104f46104a0565b5b80604052505050565b5f61050761047b565b905061051382826104cd565b919050565b5f67ffffffffffffffff821115610532576105316104a0565b5b602082029050602081019050919050565b5f80fd5b5f73ffffffffffffffffffffffffffffffffffffffff82169050919050565b5f61057082610547565b9050919050565b61058081610566565b811461058a575f80fd5b50565b5f8151905061059b81610577565b92915050565b5f6105b36105ae84610518565b6104fe565b905080838252602082019050602084028301858111156105d6576105d5610543565b5b835b818110156105ff57806105eb888261058d565b8452602084019350506020810190506105d8565b5050509392505050565b5f82601f83011261061d5761061c61048c565b5b815161062d8482602086016105a1565b91505092915050565b5f6020828403121561064b5761064a610484565b5b5f82015167ffffffffffffffff81111561066857610667610488565b5b61067484828501610609565b91505092915050565b61068681610566565b82525050565b5f60208201905061069f5f83018461067d565b92915050565b5f82825260208201905092915050565b7f4174206c65617374206f6e6520746f6b656e20616464726573732072657175695f8201527f7265640000000000000000000000000000000000000000000000000000000000602082015250565b5f61070f6023836106a5565b915061071a826106b5565b604082019050919050565b5f6020820190508181035f83015261073c81610703565b9050919050565b7f4e487b71000000000000000000000000000000000000000000000000000000005f52603260045260245ffd5b7f4475706c696361746520746f6b656e00000000000000000000000000000000005f82015250565b5f6107a4600f836106a5565b91506107af82610770565b602082019050919050565b5f6020820190508181035f8301526107d181610798565b9050919050565b5f60ff82169050919050565b6107ed816107d8565b81146107f7575f80fd5b50565b5f81519050610808816107e4565b92915050565b5f6020828403121561082357610822610484565b5b5f610830848285016107fa565b91505092915050565b60805160a051611f736108545f395f50505f5050611f735ff3fe6080604052600436106100c5575f3560e01c80638f601f661161007e578063beabacc811610058578063beabacc81461029b578063e1254fba146102b7578063f2fde38b146102f3578063f3fef3a31461031b576100cc565b80638f601f66146101e157806395533f171461021e57806398c61c371461025a576100cc565b80632e9708e4146100d05780633f47e6621461010d57806347e7ef24146101495780634f64b2be14610165578063715018a6146101a15780638da5cb5b146101b7576100cc565b366100cc57005b5f80fd5b3480156100db575f80fd5b506100f660048036038101906100f19190611835565b610343565b604051610104929190611878565b60405180910390f35b348015610118575f80fd5b50610133600480360381019061012e91906118c9565b610363565b604051610140919061190f565b60405180910390f35b610163600480360381019061015e9190611928565b610394565b005b348015610170575f80fd5b5061018b600480360381019061018691906118c9565b610792565b6040516101989190611975565b60405180910390f35b3480156101ac575f80fd5b506101b56107cd565b005b3480156101c2575f80fd5b506101cb6107e0565b6040516101d89190611975565b60405180910390f35b3480156101ec575f80fd5b506102076004803603810190610202919061198e565b610807565b604051610215929190611878565b60405180910390f35b348015610229575f80fd5b50610244600480360381019061023f9190611835565b610832565b60405161025191906119e6565b60405180910390f35b348015610265575f80fd5b50610280600480360381019061027b9190611928565b61084f565b604051610292969594939291906119ff565b60405180910390f35b6102b560048036038101906102b09190611a99565b61090a565b005b3480156102c2575f80fd5b506102dd60048036038101906102d89190611835565b610e5e565b6040516102ea9190611ae9565b60405180910390f35b3480156102fe575f80fd5b5061031960048036038101906103149190611835565b61100d565b005b348015610326575f80fd5b50610341600480360381019061033c9190611928565b611091565b005b6004602052805f5260405f205f91509050805f0154908060010154905082565b60028181548110610372575f80fd5b905f5260205f209060209182820401919006915054906101000a900460ff1681565b5f73ffffffffffffffffffffffffffffffffffffffff168273ffffffffffffffffffffffffffffffffffffffff16036104bb573460045f3373ffffffffffffffffffffffffffffffffffffffff1673ffffffffffffffffffffffffffffffffffffffff1681526020019081526020015f206001015f8282546104169190611b2f565b92505081905550610425611681565b60045f3373ffffffffffffffffffffffffffffffffffffffff1673ffffffffffffffffffffffffffffffffffffffff1681526020019081526020015f205f01819055503373ffffffffffffffffffffffffffffffffffffffff167f3bc2cc3db9bc1fa24ad4420cf0201d4c07698bf5902c10e3e04a05d343e938c7346040516104ae9190611ae9565b60405180910390a261078e565b60065f8373ffffffffffffffffffffffffffffffffffffffff1673ffffffffffffffffffffffffffffffffffffffff1681526020019081526020015f205f9054906101000a900460ff16610544576040517f08c379a000000000000000000000000000000000000000000000000000000000815260040161053b90611bbc565b60405180910390fd5b8173ffffffffffffffffffffffffffffffffffffffff166323b872dd3330846040518463ffffffff1660e01b815260040161058193929190611bda565b6020604051808303815f875af115801561059d573d5f803e3d5ffd5b505050506040513d601f19601f820116820180604052508101906105c19190611c39565b610600576040517f08c379a00000000000000000000000000000000000000000000000000000000081526004016105f790611cae565b60405180910390fd5b8060035f8473ffffffffffffffffffffffffffffffffffffffff1673ffffffffffffffffffffffffffffffffffffffff1681526020019081526020015f205f3373ffffffffffffffffffffffffffffffffffffffff1673ffffffffffffffffffffffffffffffffffffffff1681526020019081526020015f206001015f82825461068a9190611b2f565b92505081905550610699611681565b60035f8473ffffffffffffffffffffffffffffffffffffffff1673ffffffffffffffffffffffffffffffffffffffff1681526020019081526020015f205f3373ffffffffffffffffffffffffffffffffffffffff1673ffffffffffffffffffffffffffffffffffffffff1681526020019081526020015f205f015f8282546107219190611b2f565b925050819055508173ffffffffffffffffffffffffffffffffffffffff163373ffffffffffffffffffffffffffffffffffffffff167f8752a472e571a816aea92eec8dae9baf628e840f4929fbcc2d155e6233ff68a7836040516107859190611ae9565b60405180910390a35b5050565b600181815481106107a1575f80fd5b905f5260205f20015f915054906101000a900473ffffffffffffffffffffffffffffffffffffffff1681565b6107d5611688565b6107de5f61170f565b565b5f805f9054906101000a900473ffffffffffffffffffffffffffffffffffffffff16905090565b6003602052815f5260405f20602052805f5260405f205f9150915050805f0154908060010154905082565b6006602052805f5260405f205f915054906101000a900460ff1681565b6005602052815f5260405f208181548110610868575f80fd5b905f5260205f2090600602015f9150915050805f015f9054906101000a900473ffffffffffffffffffffffffffffffffffffffff1690806001015f9054906101000a900473ffffffffffffffffffffffffffffffffffffffff1690806002015490806003015f9054906101000a900473ffffffffffffffffffffffffffffffffffffffff1690806004015490806005015f9054906101000a900460ff16905086565b5f811161094c576040517f08c379a000000000000000000000000000000000000000000000000000000000815260040161094390611d16565b60405180910390fd5b5f73ffffffffffffffffffffffffffffffffffffffff168373ffffffffffffffffffffffffffffffffffffffff1603610b5157670de0b6b3a7640000816109939190611d34565b60045f3373ffffffffffffffffffffffffffffffffffffffff1673ffffffffffffffffffffffffffffffffffffffff1681526020019081526020015f20600101541015610a15576040517f08c379a0000000000000000000000000000000000000000000000000000000008152600401610a0c90611dbf565b60405180910390fd5b670de0b6b3a764000081610a299190611d34565b60045f3373ffffffffffffffffffffffffffffffffffffffff1673ffffffffffffffffffffffffffffffffffffffff1681526020019081526020015f206001015f828254610a779190611ddd565b92505081905550670de0b6b3a764000081610a929190611d34565b60045f8473ffffffffffffffffffffffffffffffffffffffff1673ffffffffffffffffffffffffffffffffffffffff1681526020019081526020015f206001015f828254610ae09190611b2f565b925050819055508173ffffffffffffffffffffffffffffffffffffffff163373ffffffffffffffffffffffffffffffffffffffff167f8dec4e7cfc87eced5c05eafa206697292193ede25a52287bf5fc6cbb0fd84cfa83604051610b449190611ae9565b60405180910390a3610e59565b60065f8473ffffffffffffffffffffffffffffffffffffffff1673ffffffffffffffffffffffffffffffffffffffff1681526020019081526020015f205f9054906101000a900460ff16610bda576040517f08c379a0000000000000000000000000000000000000000000000000000000008152600401610bd190611bbc565b60405180910390fd5b670de0b6b3a764000081610bee9190611d34565b60035f8573ffffffffffffffffffffffffffffffffffffffff1673ffffffffffffffffffffffffffffffffffffffff1681526020019081526020015f205f3373ffffffffffffffffffffffffffffffffffffffff1673ffffffffffffffffffffffffffffffffffffffff1681526020019081526020015f20600101541015610cab576040517f08c379a0000000000000000000000000000000000000000000000000000000008152600401610ca290611dbf565b60405180910390fd5b670de0b6b3a764000081610cbf9190611d34565b60035f8573ffffffffffffffffffffffffffffffffffffffff1673ffffffffffffffffffffffffffffffffffffffff1681526020019081526020015f205f3373ffffffffffffffffffffffffffffffffffffffff1673ffffffffffffffffffffffffffffffffffffffff1681526020019081526020015f206001015f828254610d489190611ddd565b92505081905550670de0b6b3a764000081610d639190611d34565b60035f8573ffffffffffffffffffffffffffffffffffffffff1673ffffffffffffffffffffffffffffffffffffffff1681526020019081526020015f205f8473ffffffffffffffffffffffffffffffffffffffff1673ffffffffffffffffffffffffffffffffffffffff1681526020019081526020015f206001015f828254610dec9190611b2f565b925050819055508273ffffffffffffffffffffffffffffffffffffffff163373ffffffffffffffffffffffffffffffffffffffff167f8752a472e571a816aea92eec8dae9baf628e840f4929fbcc2d155e6233ff68a783604051610e509190611ae9565b60405180910390a35b505050565b5f8073ffffffffffffffffffffffffffffffffffffffff168273ffffffffffffffffffffffffffffffffffffffff1603610eed57670de0b6b3a764000060045f3373ffffffffffffffffffffffffffffffffffffffff1673ffffffffffffffffffffffffffffffffffffffff1681526020019081526020015f2060010154610ee69190611e3d565b9050611008565b60065f8373ffffffffffffffffffffffffffffffffffffffff1673ffffffffffffffffffffffffffffffffffffffff1681526020019081526020015f205f9054906101000a900460ff16610f76576040517f08c379a0000000000000000000000000000000000000000000000000000000008152600401610f6d90611bbc565b60405180910390fd5b670de0b6b3a764000060035f8473ffffffffffffffffffffffffffffffffffffffff1673ffffffffffffffffffffffffffffffffffffffff1681526020019081526020015f205f3373ffffffffffffffffffffffffffffffffffffffff1673ffffffffffffffffffffffffffffffffffffffff1681526020019081526020015f20600101546110059190611e3d565b90505b919050565b611015611688565b5f73ffffffffffffffffffffffffffffffffffffffff168173ffffffffffffffffffffffffffffffffffffffff1603611085575f6040517f1e4fbdf700000000000000000000000000000000000000000000000000000000815260040161107c9190611975565b60405180910390fd5b61108e8161170f565b50565b5f73ffffffffffffffffffffffffffffffffffffffff168273ffffffffffffffffffffffffffffffffffffffff160361135f575f8111611106576040517f08c379a00000000000000000000000000000000000000000000000000000000081526004016110fd90611d16565b60405180910390fd5b80670de0b6b3a764000060045f3373ffffffffffffffffffffffffffffffffffffffff1673ffffffffffffffffffffffffffffffffffffffff1681526020019081526020015f206001015461115b9190611e3d565b101561119c576040517f08c379a000000000000000000000000000000000000000000000000000000000815260040161119390611dbf565b60405180910390fd5b670de0b6b3a7640000816111b09190611d34565b60045f3373ffffffffffffffffffffffffffffffffffffffff1673ffffffffffffffffffffffffffffffffffffffff1681526020019081526020015f206001015f8282546111fe9190611ddd565b9250508190555061120d611681565b60045f3373ffffffffffffffffffffffffffffffffffffffff1673ffffffffffffffffffffffffffffffffffffffff1681526020019081526020015f205f01819055505f3373ffffffffffffffffffffffffffffffffffffffff16670de0b6b3a76400008361127c9190611d34565b60405161128890611e9a565b5f6040518083038185875af1925050503d805f81146112c2576040519150601f19603f3d011682016040523d82523d5f602084013e6112c7565b606091505b505090508061130b576040517f08c379a000000000000000000000000000000000000000000000000000000000815260040161130290611ef8565b60405180910390fd5b3373ffffffffffffffffffffffffffffffffffffffff167f94b2de810873337ed265c5f8cf98c9cffefa06b8607f9a2f1fbaebdfbcfbef1c836040516113519190611ae9565b60405180910390a25061167d565b60065f8373ffffffffffffffffffffffffffffffffffffffff1673ffffffffffffffffffffffffffffffffffffffff1681526020019081526020015f205f9054906101000a900460ff166113e8576040517f08c379a00000000000000000000000000000000000000000000000000000000081526004016113df90611bbc565b60405180910390fd5b80670de0b6b3a764000060035f8573ffffffffffffffffffffffffffffffffffffffff1673ffffffffffffffffffffffffffffffffffffffff1681526020019081526020015f205f3373ffffffffffffffffffffffffffffffffffffffff1673ffffffffffffffffffffffffffffffffffffffff1681526020019081526020015f20600101546114789190611e3d565b10156114b9576040517f08c379a00000000000000000000000000000000000000000000000000000000081526004016114b090611dbf565b60405180910390fd5b670de0b6b3a7640000816114cd9190611d34565b60035f8473ffffffffffffffffffffffffffffffffffffffff1673ffffffffffffffffffffffffffffffffffffffff1681526020019081526020015f205f3373ffffffffffffffffffffffffffffffffffffffff1673ffffffffffffffffffffffffffffffffffffffff1681526020019081526020015f206001015f8282546115569190611ddd565b925050819055508173ffffffffffffffffffffffffffffffffffffffff1663a9059cbb33836040518363ffffffff1660e01b8152600401611598929190611f16565b6020604051808303815f875af11580156115b4573d5f803e3d5ffd5b505050506040513d601f19601f820116820180604052508101906115d89190611c39565b611617576040517f08c379a000000000000000000000000000000000000000000000000000000000815260040161160e90611cae565b60405180910390fd5b8173ffffffffffffffffffffffffffffffffffffffff163373ffffffffffffffffffffffffffffffffffffffff167fd1c19fbcd4551a5edfb66d43d2e337c04837afda3482b42bdf569a8fccdae5fb836040516116749190611ae9565b60405180910390a35b5050565b5f42905090565b6116906117d0565b73ffffffffffffffffffffffffffffffffffffffff166116ae6107e0565b73ffffffffffffffffffffffffffffffffffffffff161461170d576116d16117d0565b6040517f118cdaa70000000000000000000000000000000000000000000000000000000081526004016117049190611975565b60405180910390fd5b565b5f805f9054906101000a900473ffffffffffffffffffffffffffffffffffffffff169050815f806101000a81548173ffffffffffffffffffffffffffffffffffffffff021916908373ffffffffffffffffffffffffffffffffffffffff1602179055508173ffffffffffffffffffffffffffffffffffffffff168173ffffffffffffffffffffffffffffffffffffffff167f8be0079c531659141344cd1fd0a4f28419497f9722a3daafe3b4186f6b6457e060405160405180910390a35050565b5f33905090565b5f80fd5b5f73ffffffffffffffffffffffffffffffffffffffff82169050919050565b5f611804826117db565b9050919050565b611814816117fa565b811461181e575f80fd5b50565b5f8135905061182f8161180b565b92915050565b5f6020828403121561184a576118496117d7565b5b5f61185784828501611821565b91505092915050565b5f819050919050565b61187281611860565b82525050565b5f60408201905061188b5f830185611869565b6118986020830184611869565b9392505050565b6118a881611860565b81146118b2575f80fd5b50565b5f813590506118c38161189f565b92915050565b5f602082840312156118de576118dd6117d7565b5b5f6118eb848285016118b5565b91505092915050565b5f60ff82169050919050565b611909816118f4565b82525050565b5f6020820190506119225f830184611900565b92915050565b5f806040838503121561193e5761193d6117d7565b5b5f61194b85828601611821565b925050602061195c858286016118b5565b9150509250929050565b61196f816117fa565b82525050565b5f6020820190506119885f830184611966565b92915050565b5f80604083850312156119a4576119a36117d7565b5b5f6119b185828601611821565b92505060206119c285828601611821565b9150509250929050565b5f8115159050919050565b6119e0816119cc565b82525050565b5f6020820190506119f95f8301846119d7565b92915050565b5f60c082019050611a125f830189611966565b611a1f6020830188611966565b611a2c6040830187611869565b611a396060830186611966565b611a466080830185611869565b611a5360a08301846119d7565b979650505050505050565b5f611a68826117db565b9050919050565b611a7881611a5e565b8114611a82575f80fd5b50565b5f81359050611a9381611a6f565b92915050565b5f805f60608486031215611ab057611aaf6117d7565b5b5f611abd86828701611821565b9350506020611ace86828701611a85565b9250506040611adf868287016118b5565b9150509250925092565b5f602082019050611afc5f830184611869565b92915050565b7f4e487b71000000000000000000000000000000000000000000000000000000005f52601160045260245ffd5b5f611b3982611860565b9150611b4483611860565b9250828201905080821115611b5c57611b5b611b02565b5b92915050565b5f82825260208201905092915050565b7f496e76616c696420746f6b656e000000000000000000000000000000000000005f82015250565b5f611ba6600d83611b62565b9150611bb182611b72565b602082019050919050565b5f6020820190508181035f830152611bd381611b9a565b9050919050565b5f606082019050611bed5f830186611966565b611bfa6020830185611966565b611c076040830184611869565b949350505050565b611c18816119cc565b8114611c22575f80fd5b50565b5f81519050611c3381611c0f565b92915050565b5f60208284031215611c4e57611c4d6117d7565b5b5f611c5b84828501611c25565b91505092915050565b7f5472616e73666572206661696c656400000000000000000000000000000000005f82015250565b5f611c98600f83611b62565b9150611ca382611c64565b602082019050919050565b5f6020820190508181035f830152611cc581611c8c565b9050919050565b7f416d6f756e74206d7573742062652067726561746572207468616e20300000005f82015250565b5f611d00601d83611b62565b9150611d0b82611ccc565b602082019050919050565b5f6020820190508181035f830152611d2d81611cf4565b9050919050565b5f611d3e82611860565b9150611d4983611860565b9250828202611d5781611860565b91508282048414831517611d6e57611d6d611b02565b5b5092915050565b7f496e73756666696369656e742062616c616e63650000000000000000000000005f82015250565b5f611da9601483611b62565b9150611db482611d75565b602082019050919050565b5f6020820190508181035f830152611dd681611d9d565b9050919050565b5f611de782611860565b9150611df283611860565b9250828203905081811115611e0a57611e09611b02565b5b92915050565b7f4e487b71000000000000000000000000000000000000000000000000000000005f52601260045260245ffd5b5f611e4782611860565b9150611e5283611860565b925082611e6257611e61611e10565b5b828204905092915050565b5f81905092915050565b50565b5f611e855f83611e6d565b9150611e9082611e77565b5f82019050919050565b5f611ea482611e7a565b9150819050919050565b7f455448207769746864726177616c206661696c656400000000000000000000005f82015250565b5f611ee2601583611b62565b9150611eed82611eae565b602082019050919050565b5f6020820190508181035f830152611f0f81611ed6565b9050919050565b5f604082019050611f295f830185611966565b611f366020830184611869565b939250505056fea26469706673582212204072e79e73262896c22511fcc1d4601b0deecf3b1933696b43eb70f55107dff664736f6c634300081a0033",
					"opcodes": "PUSH1 0xC0 PUSH1 0x40 MSTORE CALLVALUE DUP1 ISZERO PUSH2 0xF JUMPI PUSH0 DUP1 REVERT JUMPDEST POP PUSH1 0x40 MLOAD PUSH2 0x27C7 CODESIZE SUB DUP1 PUSH2 0x27C7 DUP4 CODECOPY DUP2 DUP2 ADD PUSH1 0x40 MSTORE DUP2 ADD SWAP1 PUSH2 0x31 SWAP2 SWAP1 PUSH2 0x636 JUMP JUMPDEST CALLER PUSH0 PUSH20 0xFFFFFFFFFFFFFFFFFFFFFFFFFFFFFFFFFFFFFFFF AND DUP2 PUSH20 0xFFFFFFFFFFFFFFFFFFFFFFFFFFFFFFFFFFFFFFFF AND SUB PUSH2 0xA2 JUMPI PUSH0 PUSH1 0x40 MLOAD PUSH32 0x1E4FBDF700000000000000000000000000000000000000000000000000000000 DUP2 MSTORE PUSH1 0x4 ADD PUSH2 0x99 SWAP2 SWAP1 PUSH2 0x68C JUMP JUMPDEST PUSH1 0x40 MLOAD DUP1 SWAP2 SUB SWAP1 REVERT JUMPDEST PUSH2 0xB1 DUP2 PUSH2 0x3B3 PUSH1 0x20 SHL PUSH1 0x20 SHR JUMP JUMPDEST POP PUSH0 DUP2 MLOAD GT PUSH2 0xF5 JUMPI PUSH1 0x40 MLOAD PUSH32 0x8C379A000000000000000000000000000000000000000000000000000000000 DUP2 MSTORE PUSH1 0x4 ADD PUSH2 0xEC SWAP1 PUSH2 0x725 JUMP JUMPDEST PUSH1 0x40 MLOAD DUP1 SWAP2 SUB SWAP1 REVERT JUMPDEST PUSH0 JUMPDEST DUP2 MLOAD DUP2 LT ISZERO PUSH2 0x363 JUMPI PUSH1 0x6 PUSH0 DUP4 DUP4 DUP2 MLOAD DUP2 LT PUSH2 0x116 JUMPI PUSH2 0x115 PUSH2 0x743 JUMP JUMPDEST JUMPDEST PUSH1 0x20 MUL PUSH1 0x20 ADD ADD MLOAD PUSH20 0xFFFFFFFFFFFFFFFFFFFFFFFFFFFFFFFFFFFFFFFF AND PUSH20 0xFFFFFFFFFFFFFFFFFFFFFFFFFFFFFFFFFFFFFFFF AND DUP2 MSTORE PUSH1 0x20 ADD SWAP1 DUP2 MSTORE PUSH1 0x20 ADD PUSH0 KECCAK256 PUSH0 SWAP1 SLOAD SWAP1 PUSH2 0x100 EXP SWAP1 DIV PUSH1 0xFF AND ISZERO PUSH2 0x1A4 JUMPI PUSH1 0x40 MLOAD PUSH32 0x8C379A000000000000000000000000000000000000000000000000000000000 DUP2 MSTORE PUSH1 0x4 ADD PUSH2 0x19B SWAP1 PUSH2 0x7BA JUMP JUMPDEST PUSH1 0x40 MLOAD DUP1 SWAP2 SUB SWAP1 REVERT JUMPDEST PUSH1 0x1 DUP3 DUP3 DUP2 MLOAD DUP2 LT PUSH2 0x1B9 JUMPI PUSH2 0x1B8 PUSH2 0x743 JUMP JUMPDEST JUMPDEST PUSH1 0x20 MUL PUSH1 0x20 ADD ADD MLOAD SWAP1 DUP1 PUSH1 0x1 DUP2 SLOAD ADD DUP1 DUP3 SSTORE DUP1 SWAP2 POP POP PUSH1 0x1 SWAP1 SUB SWAP1 PUSH0 MSTORE PUSH1 0x20 PUSH0 KECCAK256 ADD PUSH0 SWAP1 SWAP2 SWAP1 SWAP2 SWAP1 SWAP2 PUSH2 0x100 EXP DUP2 SLOAD DUP2 PUSH20 0xFFFFFFFFFFFFFFFFFFFFFFFFFFFFFFFFFFFFFFFF MUL NOT AND SWAP1 DUP4 PUSH20 0xFFFFFFFFFFFFFFFFFFFFFFFFFFFFFFFFFFFFFFFF AND MUL OR SWAP1 SSTORE POP PUSH1 0x2 DUP3 DUP3 DUP2 MLOAD DUP2 LT PUSH2 0x233 JUMPI PUSH2 0x232 PUSH2 0x743 JUMP JUMPDEST JUMPDEST PUSH1 0x20 MUL PUSH1 0x20 ADD ADD MLOAD PUSH20 0xFFFFFFFFFFFFFFFFFFFFFFFFFFFFFFFFFFFFFFFF AND PUSH4 0x313CE567 PUSH1 0x40 MLOAD DUP2 PUSH4 0xFFFFFFFF AND PUSH1 0xE0 SHL DUP2 MSTORE PUSH1 0x4 ADD PUSH1 0x20 PUSH1 0x40 MLOAD DUP1 DUP4 SUB DUP2 DUP7 GAS STATICCALL ISZERO DUP1 ISZERO PUSH2 0x283 JUMPI RETURNDATASIZE PUSH0 DUP1 RETURNDATACOPY RETURNDATASIZE PUSH0 REVERT JUMPDEST POP POP POP POP PUSH1 0x40 MLOAD RETURNDATASIZE PUSH1 0x1F NOT PUSH1 0x1F DUP3 ADD AND DUP3 ADD DUP1 PUSH1 0x40 MSTORE POP DUP2 ADD SWAP1 PUSH2 0x2A7 SWAP2 SWAP1 PUSH2 0x80E JUMP JUMPDEST SWAP1 DUP1 PUSH1 0x1 DUP2 SLOAD ADD DUP1 DUP3 SSTORE DUP1 SWAP2 POP POP PUSH1 0x1 SWAP1 SUB SWAP1 PUSH0 MSTORE PUSH1 0x20 PUSH0 KECCAK256 SWAP1 PUSH1 0x20 SWAP2 DUP3 DUP3 DIV ADD SWAP2 SWAP1 MOD SWAP1 SWAP2 SWAP1 SWAP2 SWAP1 SWAP2 PUSH2 0x100 EXP DUP2 SLOAD DUP2 PUSH1 0xFF MUL NOT AND SWAP1 DUP4 PUSH1 0xFF AND MUL OR SWAP1 SSTORE POP PUSH1 0x1 PUSH1 0x6 PUSH0 DUP5 DUP5 DUP2 MLOAD DUP2 LT PUSH2 0x2FF JUMPI PUSH2 0x2FE PUSH2 0x743 JUMP JUMPDEST JUMPDEST PUSH1 0x20 MUL PUSH1 0x20 ADD ADD MLOAD PUSH20 0xFFFFFFFFFFFFFFFFFFFFFFFFFFFFFFFFFFFFFFFF AND PUSH20 0xFFFFFFFFFFFFFFFFFFFFFFFFFFFFFFFFFFFFFFFF AND DUP2 MSTORE PUSH1 0x20 ADD SWAP1 DUP2 MSTORE PUSH1 0x20 ADD PUSH0 KECCAK256 PUSH0 PUSH2 0x100 EXP DUP2 SLOAD DUP2 PUSH1 0xFF MUL NOT AND SWAP1 DUP4 ISZERO ISZERO MUL OR SWAP1 SSTORE POP DUP1 DUP1 PUSH1 0x1 ADD SWAP2 POP POP PUSH2 0xF7 JUMP JUMPDEST POP CALLER PUSH20 0xFFFFFFFFFFFFFFFFFFFFFFFFFFFFFFFFFFFFFFFF AND PUSH1 0x80 DUP2 PUSH20 0xFFFFFFFFFFFFFFFFFFFFFFFFFFFFFFFFFFFFFFFF AND DUP2 MSTORE POP POP PUSH2 0x3A6 PUSH2 0x474 PUSH1 0x20 SHL PUSH1 0x20 SHR JUMP JUMPDEST PUSH1 0xA0 DUP2 DUP2 MSTORE POP POP POP PUSH2 0x839 JUMP JUMPDEST PUSH0 DUP1 PUSH0 SWAP1 SLOAD SWAP1 PUSH2 0x100 EXP SWAP1 DIV PUSH20 0xFFFFFFFFFFFFFFFFFFFFFFFFFFFFFFFFFFFFFFFF AND SWAP1 POP DUP2 PUSH0 DUP1 PUSH2 0x100 EXP DUP2 SLOAD DUP2 PUSH20 0xFFFFFFFFFFFFFFFFFFFFFFFFFFFFFFFFFFFFFFFF MUL NOT AND SWAP1 DUP4 PUSH20 0xFFFFFFFFFFFFFFFFFFFFFFFFFFFFFFFFFFFFFFFF AND MUL OR SWAP1 SSTORE POP DUP2 PUSH20 0xFFFFFFFFFFFFFFFFFFFFFFFFFFFFFFFFFFFFFFFF AND DUP2 PUSH20 0xFFFFFFFFFFFFFFFFFFFFFFFFFFFFFFFFFFFFFFFF AND PUSH32 0x8BE0079C531659141344CD1FD0A4F28419497F9722A3DAAFE3B4186F6B6457E0 PUSH1 0x40 MLOAD PUSH1 0x40 MLOAD DUP1 SWAP2 SUB SWAP1 LOG3 POP POP JUMP JUMPDEST PUSH0 TIMESTAMP SWAP1 POP SWAP1 JUMP JUMPDEST PUSH0 PUSH1 0x40 MLOAD SWAP1 POP SWAP1 JUMP JUMPDEST PUSH0 DUP1 REVERT JUMPDEST PUSH0 DUP1 REVERT JUMPDEST PUSH0 DUP1 REVERT JUMPDEST PUSH0 PUSH1 0x1F NOT PUSH1 0x1F DUP4 ADD AND SWAP1 POP SWAP2 SWAP1 POP JUMP JUMPDEST PUSH32 0x4E487B7100000000000000000000000000000000000000000000000000000000 PUSH0 MSTORE PUSH1 0x41 PUSH1 0x4 MSTORE PUSH1 0x24 PUSH0 REVERT JUMPDEST PUSH2 0x4D6 DUP3 PUSH2 0x490 JUMP JUMPDEST DUP2 ADD DUP2 DUP2 LT PUSH8 0xFFFFFFFFFFFFFFFF DUP3 GT OR ISZERO PUSH2 0x4F5 JUMPI PUSH2 0x4F4 PUSH2 0x4A0 JUMP JUMPDEST JUMPDEST DUP1 PUSH1 0x40 MSTORE POP POP POP JUMP JUMPDEST PUSH0 PUSH2 0x507 PUSH2 0x47B JUMP JUMPDEST SWAP1 POP PUSH2 0x513 DUP3 DUP3 PUSH2 0x4CD JUMP JUMPDEST SWAP2 SWAP1 POP JUMP JUMPDEST PUSH0 PUSH8 0xFFFFFFFFFFFFFFFF DUP3 GT ISZERO PUSH2 0x532 JUMPI PUSH2 0x531 PUSH2 0x4A0 JUMP JUMPDEST JUMPDEST PUSH1 0x20 DUP3 MUL SWAP1 POP PUSH1 0x20 DUP2 ADD SWAP1 POP SWAP2 SWAP1 POP JUMP JUMPDEST PUSH0 DUP1 REVERT JUMPDEST PUSH0 PUSH20 0xFFFFFFFFFFFFFFFFFFFFFFFFFFFFFFFFFFFFFFFF DUP3 AND SWAP1 POP SWAP2 SWAP1 POP JUMP JUMPDEST PUSH0 PUSH2 0x570 DUP3 PUSH2 0x547 JUMP JUMPDEST SWAP1 POP SWAP2 SWAP1 POP JUMP JUMPDEST PUSH2 0x580 DUP2 PUSH2 0x566 JUMP JUMPDEST DUP2 EQ PUSH2 0x58A JUMPI PUSH0 DUP1 REVERT JUMPDEST POP JUMP JUMPDEST PUSH0 DUP2 MLOAD SWAP1 POP PUSH2 0x59B DUP2 PUSH2 0x577 JUMP JUMPDEST SWAP3 SWAP2 POP POP JUMP JUMPDEST PUSH0 PUSH2 0x5B3 PUSH2 0x5AE DUP5 PUSH2 0x518 JUMP JUMPDEST PUSH2 0x4FE JUMP JUMPDEST SWAP1 POP DUP1 DUP4 DUP3 MSTORE PUSH1 0x20 DUP3 ADD SWAP1 POP PUSH1 0x20 DUP5 MUL DUP4 ADD DUP6 DUP2 GT ISZERO PUSH2 0x5D6 JUMPI PUSH2 0x5D5 PUSH2 0x543 JUMP JUMPDEST JUMPDEST DUP4 JUMPDEST DUP2 DUP2 LT ISZERO PUSH2 0x5FF JUMPI DUP1 PUSH2 0x5EB DUP9 DUP3 PUSH2 0x58D JUMP JUMPDEST DUP5 MSTORE PUSH1 0x20 DUP5 ADD SWAP4 POP POP PUSH1 0x20 DUP2 ADD SWAP1 POP PUSH2 0x5D8 JUMP JUMPDEST POP POP POP SWAP4 SWAP3 POP POP POP JUMP JUMPDEST PUSH0 DUP3 PUSH1 0x1F DUP4 ADD SLT PUSH2 0x61D JUMPI PUSH2 0x61C PUSH2 0x48C JUMP JUMPDEST JUMPDEST DUP2 MLOAD PUSH2 0x62D DUP5 DUP3 PUSH1 0x20 DUP7 ADD PUSH2 0x5A1 JUMP JUMPDEST SWAP2 POP POP SWAP3 SWAP2 POP POP JUMP JUMPDEST PUSH0 PUSH1 0x20 DUP3 DUP5 SUB SLT ISZERO PUSH2 0x64B JUMPI PUSH2 0x64A PUSH2 0x484 JUMP JUMPDEST JUMPDEST PUSH0 DUP3 ADD MLOAD PUSH8 0xFFFFFFFFFFFFFFFF DUP2 GT ISZERO PUSH2 0x668 JUMPI PUSH2 0x667 PUSH2 0x488 JUMP JUMPDEST JUMPDEST PUSH2 0x674 DUP5 DUP3 DUP6 ADD PUSH2 0x609 JUMP JUMPDEST SWAP2 POP POP SWAP3 SWAP2 POP POP JUMP JUMPDEST PUSH2 0x686 DUP2 PUSH2 0x566 JUMP JUMPDEST DUP3 MSTORE POP POP JUMP JUMPDEST PUSH0 PUSH1 0x20 DUP3 ADD SWAP1 POP PUSH2 0x69F PUSH0 DUP4 ADD DUP5 PUSH2 0x67D JUMP JUMPDEST SWAP3 SWAP2 POP POP JUMP JUMPDEST PUSH0 DUP3 DUP3 MSTORE PUSH1 0x20 DUP3 ADD SWAP1 POP SWAP3 SWAP2 POP POP JUMP JUMPDEST PUSH32 0x4174206C65617374206F6E6520746F6B656E2061646472657373207265717569 PUSH0 DUP3 ADD MSTORE PUSH32 0x7265640000000000000000000000000000000000000000000000000000000000 PUSH1 0x20 DUP3 ADD MSTORE POP JUMP JUMPDEST PUSH0 PUSH2 0x70F PUSH1 0x23 DUP4 PUSH2 0x6A5 JUMP JUMPDEST SWAP2 POP PUSH2 0x71A DUP3 PUSH2 0x6B5 JUMP JUMPDEST PUSH1 0x40 DUP3 ADD SWAP1 POP SWAP2 SWAP1 POP JUMP JUMPDEST PUSH0 PUSH1 0x20 DUP3 ADD SWAP1 POP DUP2 DUP2 SUB PUSH0 DUP4 ADD MSTORE PUSH2 0x73C DUP2 PUSH2 0x703 JUMP JUMPDEST SWAP1 POP SWAP2 SWAP1 POP JUMP JUMPDEST PUSH32 0x4E487B7100000000000000000000000000000000000000000000000000000000 PUSH0 MSTORE PUSH1 0x32 PUSH1 0x4 MSTORE PUSH1 0x24 PUSH0 REVERT JUMPDEST PUSH32 0x4475706C696361746520746F6B656E0000000000000000000000000000000000 PUSH0 DUP3 ADD MSTORE POP JUMP JUMPDEST PUSH0 PUSH2 0x7A4 PUSH1 0xF DUP4 PUSH2 0x6A5 JUMP JUMPDEST SWAP2 POP PUSH2 0x7AF DUP3 PUSH2 0x770 JUMP JUMPDEST PUSH1 0x20 DUP3 ADD SWAP1 POP SWAP2 SWAP1 POP JUMP JUMPDEST PUSH0 PUSH1 0x20 DUP3 ADD SWAP1 POP DUP2 DUP2 SUB PUSH0 DUP4 ADD MSTORE PUSH2 0x7D1 DUP2 PUSH2 0x798 JUMP JUMPDEST SWAP1 POP SWAP2 SWAP1 POP JUMP JUMPDEST PUSH0 PUSH1 0xFF DUP3 AND SWAP1 POP SWAP2 SWAP1 POP JUMP JUMPDEST PUSH2 0x7ED DUP2 PUSH2 0x7D8 JUMP JUMPDEST DUP2 EQ PUSH2 0x7F7 JUMPI PUSH0 DUP1 REVERT JUMPDEST POP JUMP JUMPDEST PUSH0 DUP2 MLOAD SWAP1 POP PUSH2 0x808 DUP2 PUSH2 0x7E4 JUMP JUMPDEST SWAP3 SWAP2 POP POP JUMP JUMPDEST PUSH0 PUSH1 0x20 DUP3 DUP5 SUB SLT ISZERO PUSH2 0x823 JUMPI PUSH2 0x822 PUSH2 0x484 JUMP JUMPDEST JUMPDEST PUSH0 PUSH2 0x830 DUP5 DUP3 DUP6 ADD PUSH2 0x7FA JUMP JUMPDEST SWAP2 POP POP SWAP3 SWAP2 POP POP JUMP JUMPDEST PUSH1 0x80 MLOAD PUSH1 0xA0 MLOAD PUSH2 0x1F73 PUSH2 0x854 PUSH0 CODECOPY PUSH0 POP POP PUSH0 POP POP PUSH2 0x1F73 PUSH0 RETURN INVALID PUSH1 0x80 PUSH1 0x40 MSTORE PUSH1 0x4 CALLDATASIZE LT PUSH2 0xC5 JUMPI PUSH0 CALLDATALOAD PUSH1 0xE0 SHR DUP1 PUSH4 0x8F601F66 GT PUSH2 0x7E JUMPI DUP1 PUSH4 0xBEABACC8 GT PUSH2 0x58 JUMPI DUP1 PUSH4 0xBEABACC8 EQ PUSH2 0x29B JUMPI DUP1 PUSH4 0xE1254FBA EQ PUSH2 0x2B7 JUMPI DUP1 PUSH4 0xF2FDE38B EQ PUSH2 0x2F3 JUMPI DUP1 PUSH4 0xF3FEF3A3 EQ PUSH2 0x31B JUMPI PUSH2 0xCC JUMP JUMPDEST DUP1 PUSH4 0x8F601F66 EQ PUSH2 0x1E1 JUMPI DUP1 PUSH4 0x95533F17 EQ PUSH2 0x21E JUMPI DUP1 PUSH4 0x98C61C37 EQ PUSH2 0x25A JUMPI PUSH2 0xCC JUMP JUMPDEST DUP1 PUSH4 0x2E9708E4 EQ PUSH2 0xD0 JUMPI DUP1 PUSH4 0x3F47E662 EQ PUSH2 0x10D JUMPI DUP1 PUSH4 0x47E7EF24 EQ PUSH2 0x149 JUMPI DUP1 PUSH4 0x4F64B2BE EQ PUSH2 0x165 JUMPI DUP1 PUSH4 0x715018A6 EQ PUSH2 0x1A1 JUMPI DUP1 PUSH4 0x8DA5CB5B EQ PUSH2 0x1B7 JUMPI PUSH2 0xCC JUMP JUMPDEST CALLDATASIZE PUSH2 0xCC JUMPI STOP JUMPDEST PUSH0 DUP1 REVERT JUMPDEST CALLVALUE DUP1 ISZERO PUSH2 0xDB JUMPI PUSH0 DUP1 REVERT JUMPDEST POP PUSH2 0xF6 PUSH1 0x4 DUP1 CALLDATASIZE SUB DUP2 ADD SWAP1 PUSH2 0xF1 SWAP2 SWAP1 PUSH2 0x1835 JUMP JUMPDEST PUSH2 0x343 JUMP JUMPDEST PUSH1 0x40 MLOAD PUSH2 0x104 SWAP3 SWAP2 SWAP1 PUSH2 0x1878 JUMP JUMPDEST PUSH1 0x40 MLOAD DUP1 SWAP2 SUB SWAP1 RETURN JUMPDEST CALLVALUE DUP1 ISZERO PUSH2 0x118 JUMPI PUSH0 DUP1 REVERT JUMPDEST POP PUSH2 0x133 PUSH1 0x4 DUP1 CALLDATASIZE SUB DUP2 ADD SWAP1 PUSH2 0x12E SWAP2 SWAP1 PUSH2 0x18C9 JUMP JUMPDEST PUSH2 0x363 JUMP JUMPDEST PUSH1 0x40 MLOAD PUSH2 0x140 SWAP2 SWAP1 PUSH2 0x190F JUMP JUMPDEST PUSH1 0x40 MLOAD DUP1 SWAP2 SUB SWAP1 RETURN JUMPDEST PUSH2 0x163 PUSH1 0x4 DUP1 CALLDATASIZE SUB DUP2 ADD SWAP1 PUSH2 0x15E SWAP2 SWAP1 PUSH2 0x1928 JUMP JUMPDEST PUSH2 0x394 JUMP JUMPDEST STOP JUMPDEST CALLVALUE DUP1 ISZERO PUSH2 0x170 JUMPI PUSH0 DUP1 REVERT JUMPDEST POP PUSH2 0x18B PUSH1 0x4 DUP1 CALLDATASIZE SUB DUP2 ADD SWAP1 PUSH2 0x186 SWAP2 SWAP1 PUSH2 0x18C9 JUMP JUMPDEST PUSH2 0x792 JUMP JUMPDEST PUSH1 0x40 MLOAD PUSH2 0x198 SWAP2 SWAP1 PUSH2 0x1975 JUMP JUMPDEST PUSH1 0x40 MLOAD DUP1 SWAP2 SUB SWAP1 RETURN JUMPDEST CALLVALUE DUP1 ISZERO PUSH2 0x1AC JUMPI PUSH0 DUP1 REVERT JUMPDEST POP PUSH2 0x1B5 PUSH2 0x7CD JUMP JUMPDEST STOP JUMPDEST CALLVALUE DUP1 ISZERO PUSH2 0x1C2 JUMPI PUSH0 DUP1 REVERT JUMPDEST POP PUSH2 0x1CB PUSH2 0x7E0 JUMP JUMPDEST PUSH1 0x40 MLOAD PUSH2 0x1D8 SWAP2 SWAP1 PUSH2 0x1975 JUMP JUMPDEST PUSH1 0x40 MLOAD DUP1 SWAP2 SUB SWAP1 RETURN JUMPDEST CALLVALUE DUP1 ISZERO PUSH2 0x1EC JUMPI PUSH0 DUP1 REVERT JUMPDEST POP PUSH2 0x207 PUSH1 0x4 DUP1 CALLDATASIZE SUB DUP2 ADD SWAP1 PUSH2 0x202 SWAP2 SWAP1 PUSH2 0x198E JUMP JUMPDEST PUSH2 0x807 JUMP JUMPDEST PUSH1 0x40 MLOAD PUSH2 0x215 SWAP3 SWAP2 SWAP1 PUSH2 0x1878 JUMP JUMPDEST PUSH1 0x40 MLOAD DUP1 SWAP2 SUB SWAP1 RETURN JUMPDEST CALLVALUE DUP1 ISZERO PUSH2 0x229 JUMPI PUSH0 DUP1 REVERT JUMPDEST POP PUSH2 0x244 PUSH1 0x4 DUP1 CALLDATASIZE SUB DUP2 ADD SWAP1 PUSH2 0x23F SWAP2 SWAP1 PUSH2 0x1835 JUMP JUMPDEST PUSH2 0x832 JUMP JUMPDEST PUSH1 0x40 MLOAD PUSH2 0x251 SWAP2 SWAP1 PUSH2 0x19E6 JUMP JUMPDEST PUSH1 0x40 MLOAD DUP1 SWAP2 SUB SWAP1 RETURN JUMPDEST CALLVALUE DUP1 ISZERO PUSH2 0x265 JUMPI PUSH0 DUP1 REVERT JUMPDEST POP PUSH2 0x280 PUSH1 0x4 DUP1 CALLDATASIZE SUB DUP2 ADD SWAP1 PUSH2 0x27B SWAP2 SWAP1 PUSH2 0x1928 JUMP JUMPDEST PUSH2 0x84F JUMP JUMPDEST PUSH1 0x40 MLOAD PUSH2 0x292 SWAP7 SWAP6 SWAP5 SWAP4 SWAP3 SWAP2 SWAP1 PUSH2 0x19FF JUMP JUMPDEST PUSH1 0x40 MLOAD DUP1 SWAP2 SUB SWAP1 RETURN JUMPDEST PUSH2 0x2B5 PUSH1 0x4 DUP1 CALLDATASIZE SUB DUP2 ADD SWAP1 PUSH2 0x2B0 SWAP2 SWAP1 PUSH2 0x1A99 JUMP JUMPDEST PUSH2 0x90A JUMP JUMPDEST STOP JUMPDEST CALLVALUE DUP1 ISZERO PUSH2 0x2C2 JUMPI PUSH0 DUP1 REVERT JUMPDEST POP PUSH2 0x2DD PUSH1 0x4 DUP1 CALLDATASIZE SUB DUP2 ADD SWAP1 PUSH2 0x2D8 SWAP2 SWAP1 PUSH2 0x1835 JUMP JUMPDEST PUSH2 0xE5E JUMP JUMPDEST PUSH1 0x40 MLOAD PUSH2 0x2EA SWAP2 SWAP1 PUSH2 0x1AE9 JUMP JUMPDEST PUSH1 0x40 MLOAD DUP1 SWAP2 SUB SWAP1 RETURN JUMPDEST CALLVALUE DUP1 ISZERO PUSH2 0x2FE JUMPI PUSH0 DUP1 REVERT JUMPDEST POP PUSH2 0x319 PUSH1 0x4 DUP1 CALLDATASIZE SUB DUP2 ADD SWAP1 PUSH2 0x314 SWAP2 SWAP1 PUSH2 0x1835 JUMP JUMPDEST PUSH2 0x100D JUMP JUMPDEST STOP JUMPDEST CALLVALUE DUP1 ISZERO PUSH2 0x326 JUMPI PUSH0 DUP1 REVERT JUMPDEST POP PUSH2 0x341 PUSH1 0x4 DUP1 CALLDATASIZE SUB DUP2 ADD SWAP1 PUSH2 0x33C SWAP2 SWAP1 PUSH2 0x1928 JUMP JUMPDEST PUSH2 0x1091 JUMP JUMPDEST STOP JUMPDEST PUSH1 0x4 PUSH1 0x20 MSTORE DUP1 PUSH0 MSTORE PUSH1 0x40 PUSH0 KECCAK256 PUSH0 SWAP2 POP SWAP1 POP DUP1 PUSH0 ADD SLOAD SWAP1 DUP1 PUSH1 0x1 ADD SLOAD SWAP1 POP DUP3 JUMP JUMPDEST PUSH1 0x2 DUP2 DUP2 SLOAD DUP2 LT PUSH2 0x372 JUMPI PUSH0 DUP1 REVERT JUMPDEST SWAP1 PUSH0 MSTORE PUSH1 0x20 PUSH0 KECCAK256 SWAP1 PUSH1 0x20 SWAP2 DUP3 DUP3 DIV ADD SWAP2 SWAP1 MOD SWAP2 POP SLOAD SWAP1 PUSH2 0x100 EXP SWAP1 DIV PUSH1 0xFF AND DUP2 JUMP JUMPDEST PUSH0 PUSH20 0xFFFFFFFFFFFFFFFFFFFFFFFFFFFFFFFFFFFFFFFF AND DUP3 PUSH20 0xFFFFFFFFFFFFFFFFFFFFFFFFFFFFFFFFFFFFFFFF AND SUB PUSH2 0x4BB JUMPI CALLVALUE PUSH1 0x4 PUSH0 CALLER PUSH20 0xFFFFFFFFFFFFFFFFFFFFFFFFFFFFFFFFFFFFFFFF AND PUSH20 0xFFFFFFFFFFFFFFFFFFFFFFFFFFFFFFFFFFFFFFFF AND DUP2 MSTORE PUSH1 0x20 ADD SWAP1 DUP2 MSTORE PUSH1 0x20 ADD PUSH0 KECCAK256 PUSH1 0x1 ADD PUSH0 DUP3 DUP3 SLOAD PUSH2 0x416 SWAP2 SWAP1 PUSH2 0x1B2F JUMP JUMPDEST SWAP3 POP POP DUP2 SWAP1 SSTORE POP PUSH2 0x425 PUSH2 0x1681 JUMP JUMPDEST PUSH1 0x4 PUSH0 CALLER PUSH20 0xFFFFFFFFFFFFFFFFFFFFFFFFFFFFFFFFFFFFFFFF AND PUSH20 0xFFFFFFFFFFFFFFFFFFFFFFFFFFFFFFFFFFFFFFFF AND DUP2 MSTORE PUSH1 0x20 ADD SWAP1 DUP2 MSTORE PUSH1 0x20 ADD PUSH0 KECCAK256 PUSH0 ADD DUP2 SWAP1 SSTORE POP CALLER PUSH20 0xFFFFFFFFFFFFFFFFFFFFFFFFFFFFFFFFFFFFFFFF AND PUSH32 0x3BC2CC3DB9BC1FA24AD4420CF0201D4C07698BF5902C10E3E04A05D343E938C7 CALLVALUE PUSH1 0x40 MLOAD PUSH2 0x4AE SWAP2 SWAP1 PUSH2 0x1AE9 JUMP JUMPDEST PUSH1 0x40 MLOAD DUP1 SWAP2 SUB SWAP1 LOG2 PUSH2 0x78E JUMP JUMPDEST PUSH1 0x6 PUSH0 DUP4 PUSH20 0xFFFFFFFFFFFFFFFFFFFFFFFFFFFFFFFFFFFFFFFF AND PUSH20 0xFFFFFFFFFFFFFFFFFFFFFFFFFFFFFFFFFFFFFFFF AND DUP2 MSTORE PUSH1 0x20 ADD SWAP1 DUP2 MSTORE PUSH1 0x20 ADD PUSH0 KECCAK256 PUSH0 SWAP1 SLOAD SWAP1 PUSH2 0x100 EXP SWAP1 DIV PUSH1 0xFF AND PUSH2 0x544 JUMPI PUSH1 0x40 MLOAD PUSH32 0x8C379A000000000000000000000000000000000000000000000000000000000 DUP2 MSTORE PUSH1 0x4 ADD PUSH2 0x53B SWAP1 PUSH2 0x1BBC JUMP JUMPDEST PUSH1 0x40 MLOAD DUP1 SWAP2 SUB SWAP1 REVERT JUMPDEST DUP2 PUSH20 0xFFFFFFFFFFFFFFFFFFFFFFFFFFFFFFFFFFFFFFFF AND PUSH4 0x23B872DD CALLER ADDRESS DUP5 PUSH1 0x40 MLOAD DUP5 PUSH4 0xFFFFFFFF AND PUSH1 0xE0 SHL DUP2 MSTORE PUSH1 0x4 ADD PUSH2 0x581 SWAP4 SWAP3 SWAP2 SWAP1 PUSH2 0x1BDA JUMP JUMPDEST PUSH1 0x20 PUSH1 0x40 MLOAD DUP1 DUP4 SUB DUP2 PUSH0 DUP8 GAS CALL ISZERO DUP1 ISZERO PUSH2 0x59D JUMPI RETURNDATASIZE PUSH0 DUP1 RETURNDATACOPY RETURNDATASIZE PUSH0 REVERT JUMPDEST POP POP POP POP PUSH1 0x40 MLOAD RETURNDATASIZE PUSH1 0x1F NOT PUSH1 0x1F DUP3 ADD AND DUP3 ADD DUP1 PUSH1 0x40 MSTORE POP DUP2 ADD SWAP1 PUSH2 0x5C1 SWAP2 SWAP1 PUSH2 0x1C39 JUMP JUMPDEST PUSH2 0x600 JUMPI PUSH1 0x40 MLOAD PUSH32 0x8C379A000000000000000000000000000000000000000000000000000000000 DUP2 MSTORE PUSH1 0x4 ADD PUSH2 0x5F7 SWAP1 PUSH2 0x1CAE JUMP JUMPDEST PUSH1 0x40 MLOAD DUP1 SWAP2 SUB SWAP1 REVERT JUMPDEST DUP1 PUSH1 0x3 PUSH0 DUP5 PUSH20 0xFFFFFFFFFFFFFFFFFFFFFFFFFFFFFFFFFFFFFFFF AND PUSH20 0xFFFFFFFFFFFFFFFFFFFFFFFFFFFFFFFFFFFFFFFF AND DUP2 MSTORE PUSH1 0x20 ADD SWAP1 DUP2 MSTORE PUSH1 0x20 ADD PUSH0 KECCAK256 PUSH0 CALLER PUSH20 0xFFFFFFFFFFFFFFFFFFFFFFFFFFFFFFFFFFFFFFFF AND PUSH20 0xFFFFFFFFFFFFFFFFFFFFFFFFFFFFFFFFFFFFFFFF AND DUP2 MSTORE PUSH1 0x20 ADD SWAP1 DUP2 MSTORE PUSH1 0x20 ADD PUSH0 KECCAK256 PUSH1 0x1 ADD PUSH0 DUP3 DUP3 SLOAD PUSH2 0x68A SWAP2 SWAP1 PUSH2 0x1B2F JUMP JUMPDEST SWAP3 POP POP DUP2 SWAP1 SSTORE POP PUSH2 0x699 PUSH2 0x1681 JUMP JUMPDEST PUSH1 0x3 PUSH0 DUP5 PUSH20 0xFFFFFFFFFFFFFFFFFFFFFFFFFFFFFFFFFFFFFFFF AND PUSH20 0xFFFFFFFFFFFFFFFFFFFFFFFFFFFFFFFFFFFFFFFF AND DUP2 MSTORE PUSH1 0x20 ADD SWAP1 DUP2 MSTORE PUSH1 0x20 ADD PUSH0 KECCAK256 PUSH0 CALLER PUSH20 0xFFFFFFFFFFFFFFFFFFFFFFFFFFFFFFFFFFFFFFFF AND PUSH20 0xFFFFFFFFFFFFFFFFFFFFFFFFFFFFFFFFFFFFFFFF AND DUP2 MSTORE PUSH1 0x20 ADD SWAP1 DUP2 MSTORE PUSH1 0x20 ADD PUSH0 KECCAK256 PUSH0 ADD PUSH0 DUP3 DUP3 SLOAD PUSH2 0x721 SWAP2 SWAP1 PUSH2 0x1B2F JUMP JUMPDEST SWAP3 POP POP DUP2 SWAP1 SSTORE POP DUP2 PUSH20 0xFFFFFFFFFFFFFFFFFFFFFFFFFFFFFFFFFFFFFFFF AND CALLER PUSH20 0xFFFFFFFFFFFFFFFFFFFFFFFFFFFFFFFFFFFFFFFF AND PUSH32 0x8752A472E571A816AEA92EEC8DAE9BAF628E840F4929FBCC2D155E6233FF68A7 DUP4 PUSH1 0x40 MLOAD PUSH2 0x785 SWAP2 SWAP1 PUSH2 0x1AE9 JUMP JUMPDEST PUSH1 0x40 MLOAD DUP1 SWAP2 SUB SWAP1 LOG3 JUMPDEST POP POP JUMP JUMPDEST PUSH1 0x1 DUP2 DUP2 SLOAD DUP2 LT PUSH2 0x7A1 JUMPI PUSH0 DUP1 REVERT JUMPDEST SWAP1 PUSH0 MSTORE PUSH1 0x20 PUSH0 KECCAK256 ADD PUSH0 SWAP2 POP SLOAD SWAP1 PUSH2 0x100 EXP SWAP1 DIV PUSH20 0xFFFFFFFFFFFFFFFFFFFFFFFFFFFFFFFFFFFFFFFF AND DUP2 JUMP JUMPDEST PUSH2 0x7D5 PUSH2 0x1688 JUMP JUMPDEST PUSH2 0x7DE PUSH0 PUSH2 0x170F JUMP JUMPDEST JUMP JUMPDEST PUSH0 DUP1 PUSH0 SWAP1 SLOAD SWAP1 PUSH2 0x100 EXP SWAP1 DIV PUSH20 0xFFFFFFFFFFFFFFFFFFFFFFFFFFFFFFFFFFFFFFFF AND SWAP1 POP SWAP1 JUMP JUMPDEST PUSH1 0x3 PUSH1 0x20 MSTORE DUP2 PUSH0 MSTORE PUSH1 0x40 PUSH0 KECCAK256 PUSH1 0x20 MSTORE DUP1 PUSH0 MSTORE PUSH1 0x40 PUSH0 KECCAK256 PUSH0 SWAP2 POP SWAP2 POP POP DUP1 PUSH0 ADD SLOAD SWAP1 DUP1 PUSH1 0x1 ADD SLOAD SWAP1 POP DUP3 JUMP JUMPDEST PUSH1 0x6 PUSH1 0x20 MSTORE DUP1 PUSH0 MSTORE PUSH1 0x40 PUSH0 KECCAK256 PUSH0 SWAP2 POP SLOAD SWAP1 PUSH2 0x100 EXP SWAP1 DIV PUSH1 0xFF AND DUP2 JUMP JUMPDEST PUSH1 0x5 PUSH1 0x20 MSTORE DUP2 PUSH0 MSTORE PUSH1 0x40 PUSH0 KECCAK256 DUP2 DUP2 SLOAD DUP2 LT PUSH2 0x868 JUMPI PUSH0 DUP1 REVERT JUMPDEST SWAP1 PUSH0 MSTORE PUSH1 0x20 PUSH0 KECCAK256 SWAP1 PUSH1 0x6 MUL ADD PUSH0 SWAP2 POP SWAP2 POP POP DUP1 PUSH0 ADD PUSH0 SWAP1 SLOAD SWAP1 PUSH2 0x100 EXP SWAP1 DIV PUSH20 0xFFFFFFFFFFFFFFFFFFFFFFFFFFFFFFFFFFFFFFFF AND SWAP1 DUP1 PUSH1 0x1 ADD PUSH0 SWAP1 SLOAD SWAP1 PUSH2 0x100 EXP SWAP1 DIV PUSH20 0xFFFFFFFFFFFFFFFFFFFFFFFFFFFFFFFFFFFFFFFF AND SWAP1 DUP1 PUSH1 0x2 ADD SLOAD SWAP1 DUP1 PUSH1 0x3 ADD PUSH0 SWAP1 SLOAD SWAP1 PUSH2 0x100 EXP SWAP1 DIV PUSH20 0xFFFFFFFFFFFFFFFFFFFFFFFFFFFFFFFFFFFFFFFF AND SWAP1 DUP1 PUSH1 0x4 ADD SLOAD SWAP1 DUP1 PUSH1 0x5 ADD PUSH0 SWAP1 SLOAD SWAP1 PUSH2 0x100 EXP SWAP1 DIV PUSH1 0xFF AND SWAP1 POP DUP7 JUMP JUMPDEST PUSH0 DUP2 GT PUSH2 0x94C JUMPI PUSH1 0x40 MLOAD PUSH32 0x8C379A000000000000000000000000000000000000000000000000000000000 DUP2 MSTORE PUSH1 0x4 ADD PUSH2 0x943 SWAP1 PUSH2 0x1D16 JUMP JUMPDEST PUSH1 0x40 MLOAD DUP1 SWAP2 SUB SWAP1 REVERT JUMPDEST PUSH0 PUSH20 0xFFFFFFFFFFFFFFFFFFFFFFFFFFFFFFFFFFFFFFFF AND DUP4 PUSH20 0xFFFFFFFFFFFFFFFFFFFFFFFFFFFFFFFFFFFFFFFF AND SUB PUSH2 0xB51 JUMPI PUSH8 0xDE0B6B3A7640000 DUP2 PUSH2 0x993 SWAP2 SWAP1 PUSH2 0x1D34 JUMP JUMPDEST PUSH1 0x4 PUSH0 CALLER PUSH20 0xFFFFFFFFFFFFFFFFFFFFFFFFFFFFFFFFFFFFFFFF AND PUSH20 0xFFFFFFFFFFFFFFFFFFFFFFFFFFFFFFFFFFFFFFFF AND DUP2 MSTORE PUSH1 0x20 ADD SWAP1 DUP2 MSTORE PUSH1 0x20 ADD PUSH0 KECCAK256 PUSH1 0x1 ADD SLOAD LT ISZERO PUSH2 0xA15 JUMPI PUSH1 0x40 MLOAD PUSH32 0x8C379A000000000000000000000000000000000000000000000000000000000 DUP2 MSTORE PUSH1 0x4 ADD PUSH2 0xA0C SWAP1 PUSH2 0x1DBF JUMP JUMPDEST PUSH1 0x40 MLOAD DUP1 SWAP2 SUB SWAP1 REVERT JUMPDEST PUSH8 0xDE0B6B3A7640000 DUP2 PUSH2 0xA29 SWAP2 SWAP1 PUSH2 0x1D34 JUMP JUMPDEST PUSH1 0x4 PUSH0 CALLER PUSH20 0xFFFFFFFFFFFFFFFFFFFFFFFFFFFFFFFFFFFFFFFF AND PUSH20 0xFFFFFFFFFFFFFFFFFFFFFFFFFFFFFFFFFFFFFFFF AND DUP2 MSTORE PUSH1 0x20 ADD SWAP1 DUP2 MSTORE PUSH1 0x20 ADD PUSH0 KECCAK256 PUSH1 0x1 ADD PUSH0 DUP3 DUP3 SLOAD PUSH2 0xA77 SWAP2 SWAP1 PUSH2 0x1DDD JUMP JUMPDEST SWAP3 POP POP DUP2 SWAP1 SSTORE POP PUSH8 0xDE0B6B3A7640000 DUP2 PUSH2 0xA92 SWAP2 SWAP1 PUSH2 0x1D34 JUMP JUMPDEST PUSH1 0x4 PUSH0 DUP5 PUSH20 0xFFFFFFFFFFFFFFFFFFFFFFFFFFFFFFFFFFFFFFFF AND PUSH20 0xFFFFFFFFFFFFFFFFFFFFFFFFFFFFFFFFFFFFFFFF AND DUP2 MSTORE PUSH1 0x20 ADD SWAP1 DUP2 MSTORE PUSH1 0x20 ADD PUSH0 KECCAK256 PUSH1 0x1 ADD PUSH0 DUP3 DUP3 SLOAD PUSH2 0xAE0 SWAP2 SWAP1 PUSH2 0x1B2F JUMP JUMPDEST SWAP3 POP POP DUP2 SWAP1 SSTORE POP DUP2 PUSH20 0xFFFFFFFFFFFFFFFFFFFFFFFFFFFFFFFFFFFFFFFF AND CALLER PUSH20 0xFFFFFFFFFFFFFFFFFFFFFFFFFFFFFFFFFFFFFFFF AND PUSH32 0x8DEC4E7CFC87ECED5C05EAFA206697292193EDE25A52287BF5FC6CBB0FD84CFA DUP4 PUSH1 0x40 MLOAD PUSH2 0xB44 SWAP2 SWAP1 PUSH2 0x1AE9 JUMP JUMPDEST PUSH1 0x40 MLOAD DUP1 SWAP2 SUB SWAP1 LOG3 PUSH2 0xE59 JUMP JUMPDEST PUSH1 0x6 PUSH0 DUP5 PUSH20 0xFFFFFFFFFFFFFFFFFFFFFFFFFFFFFFFFFFFFFFFF AND PUSH20 0xFFFFFFFFFFFFFFFFFFFFFFFFFFFFFFFFFFFFFFFF AND DUP2 MSTORE PUSH1 0x20 ADD SWAP1 DUP2 MSTORE PUSH1 0x20 ADD PUSH0 KECCAK256 PUSH0 SWAP1 SLOAD SWAP1 PUSH2 0x100 EXP SWAP1 DIV PUSH1 0xFF AND PUSH2 0xBDA JUMPI PUSH1 0x40 MLOAD PUSH32 0x8C379A000000000000000000000000000000000000000000000000000000000 DUP2 MSTORE PUSH1 0x4 ADD PUSH2 0xBD1 SWAP1 PUSH2 0x1BBC JUMP JUMPDEST PUSH1 0x40 MLOAD DUP1 SWAP2 SUB SWAP1 REVERT JUMPDEST PUSH8 0xDE0B6B3A7640000 DUP2 PUSH2 0xBEE SWAP2 SWAP1 PUSH2 0x1D34 JUMP JUMPDEST PUSH1 0x3 PUSH0 DUP6 PUSH20 0xFFFFFFFFFFFFFFFFFFFFFFFFFFFFFFFFFFFFFFFF AND PUSH20 0xFFFFFFFFFFFFFFFFFFFFFFFFFFFFFFFFFFFFFFFF AND DUP2 MSTORE PUSH1 0x20 ADD SWAP1 DUP2 MSTORE PUSH1 0x20 ADD PUSH0 KECCAK256 PUSH0 CALLER PUSH20 0xFFFFFFFFFFFFFFFFFFFFFFFFFFFFFFFFFFFFFFFF AND PUSH20 0xFFFFFFFFFFFFFFFFFFFFFFFFFFFFFFFFFFFFFFFF AND DUP2 MSTORE PUSH1 0x20 ADD SWAP1 DUP2 MSTORE PUSH1 0x20 ADD PUSH0 KECCAK256 PUSH1 0x1 ADD SLOAD LT ISZERO PUSH2 0xCAB JUMPI PUSH1 0x40 MLOAD PUSH32 0x8C379A000000000000000000000000000000000000000000000000000000000 DUP2 MSTORE PUSH1 0x4 ADD PUSH2 0xCA2 SWAP1 PUSH2 0x1DBF JUMP JUMPDEST PUSH1 0x40 MLOAD DUP1 SWAP2 SUB SWAP1 REVERT JUMPDEST PUSH8 0xDE0B6B3A7640000 DUP2 PUSH2 0xCBF SWAP2 SWAP1 PUSH2 0x1D34 JUMP JUMPDEST PUSH1 0x3 PUSH0 DUP6 PUSH20 0xFFFFFFFFFFFFFFFFFFFFFFFFFFFFFFFFFFFFFFFF AND PUSH20 0xFFFFFFFFFFFFFFFFFFFFFFFFFFFFFFFFFFFFFFFF AND DUP2 MSTORE PUSH1 0x20 ADD SWAP1 DUP2 MSTORE PUSH1 0x20 ADD PUSH0 KECCAK256 PUSH0 CALLER PUSH20 0xFFFFFFFFFFFFFFFFFFFFFFFFFFFFFFFFFFFFFFFF AND PUSH20 0xFFFFFFFFFFFFFFFFFFFFFFFFFFFFFFFFFFFFFFFF AND DUP2 MSTORE PUSH1 0x20 ADD SWAP1 DUP2 MSTORE PUSH1 0x20 ADD PUSH0 KECCAK256 PUSH1 0x1 ADD PUSH0 DUP3 DUP3 SLOAD PUSH2 0xD48 SWAP2 SWAP1 PUSH2 0x1DDD JUMP JUMPDEST SWAP3 POP POP DUP2 SWAP1 SSTORE POP PUSH8 0xDE0B6B3A7640000 DUP2 PUSH2 0xD63 SWAP2 SWAP1 PUSH2 0x1D34 JUMP JUMPDEST PUSH1 0x3 PUSH0 DUP6 PUSH20 0xFFFFFFFFFFFFFFFFFFFFFFFFFFFFFFFFFFFFFFFF AND PUSH20 0xFFFFFFFFFFFFFFFFFFFFFFFFFFFFFFFFFFFFFFFF AND DUP2 MSTORE PUSH1 0x20 ADD SWAP1 DUP2 MSTORE PUSH1 0x20 ADD PUSH0 KECCAK256 PUSH0 DUP5 PUSH20 0xFFFFFFFFFFFFFFFFFFFFFFFFFFFFFFFFFFFFFFFF AND PUSH20 0xFFFFFFFFFFFFFFFFFFFFFFFFFFFFFFFFFFFFFFFF AND DUP2 MSTORE PUSH1 0x20 ADD SWAP1 DUP2 MSTORE PUSH1 0x20 ADD PUSH0 KECCAK256 PUSH1 0x1 ADD PUSH0 DUP3 DUP3 SLOAD PUSH2 0xDEC SWAP2 SWAP1 PUSH2 0x1B2F JUMP JUMPDEST SWAP3 POP POP DUP2 SWAP1 SSTORE POP DUP3 PUSH20 0xFFFFFFFFFFFFFFFFFFFFFFFFFFFFFFFFFFFFFFFF AND CALLER PUSH20 0xFFFFFFFFFFFFFFFFFFFFFFFFFFFFFFFFFFFFFFFF AND PUSH32 0x8752A472E571A816AEA92EEC8DAE9BAF628E840F4929FBCC2D155E6233FF68A7 DUP4 PUSH1 0x40 MLOAD PUSH2 0xE50 SWAP2 SWAP1 PUSH2 0x1AE9 JUMP JUMPDEST PUSH1 0x40 MLOAD DUP1 SWAP2 SUB SWAP1 LOG3 JUMPDEST POP POP POP JUMP JUMPDEST PUSH0 DUP1 PUSH20 0xFFFFFFFFFFFFFFFFFFFFFFFFFFFFFFFFFFFFFFFF AND DUP3 PUSH20 0xFFFFFFFFFFFFFFFFFFFFFFFFFFFFFFFFFFFFFFFF AND SUB PUSH2 0xEED JUMPI PUSH8 0xDE0B6B3A7640000 PUSH1 0x4 PUSH0 CALLER PUSH20 0xFFFFFFFFFFFFFFFFFFFFFFFFFFFFFFFFFFFFFFFF AND PUSH20 0xFFFFFFFFFFFFFFFFFFFFFFFFFFFFFFFFFFFFFFFF AND DUP2 MSTORE PUSH1 0x20 ADD SWAP1 DUP2 MSTORE PUSH1 0x20 ADD PUSH0 KECCAK256 PUSH1 0x1 ADD SLOAD PUSH2 0xEE6 SWAP2 SWAP1 PUSH2 0x1E3D JUMP JUMPDEST SWAP1 POP PUSH2 0x1008 JUMP JUMPDEST PUSH1 0x6 PUSH0 DUP4 PUSH20 0xFFFFFFFFFFFFFFFFFFFFFFFFFFFFFFFFFFFFFFFF AND PUSH20 0xFFFFFFFFFFFFFFFFFFFFFFFFFFFFFFFFFFFFFFFF AND DUP2 MSTORE PUSH1 0x20 ADD SWAP1 DUP2 MSTORE PUSH1 0x20 ADD PUSH0 KECCAK256 PUSH0 SWAP1 SLOAD SWAP1 PUSH2 0x100 EXP SWAP1 DIV PUSH1 0xFF AND PUSH2 0xF76 JUMPI PUSH1 0x40 MLOAD PUSH32 0x8C379A000000000000000000000000000000000000000000000000000000000 DUP2 MSTORE PUSH1 0x4 ADD PUSH2 0xF6D SWAP1 PUSH2 0x1BBC JUMP JUMPDEST PUSH1 0x40 MLOAD DUP1 SWAP2 SUB SWAP1 REVERT JUMPDEST PUSH8 0xDE0B6B3A7640000 PUSH1 0x3 PUSH0 DUP5 PUSH20 0xFFFFFFFFFFFFFFFFFFFFFFFFFFFFFFFFFFFFFFFF AND PUSH20 0xFFFFFFFFFFFFFFFFFFFFFFFFFFFFFFFFFFFFFFFF AND DUP2 MSTORE PUSH1 0x20 ADD SWAP1 DUP2 MSTORE PUSH1 0x20 ADD PUSH0 KECCAK256 PUSH0 CALLER PUSH20 0xFFFFFFFFFFFFFFFFFFFFFFFFFFFFFFFFFFFFFFFF AND PUSH20 0xFFFFFFFFFFFFFFFFFFFFFFFFFFFFFFFFFFFFFFFF AND DUP2 MSTORE PUSH1 0x20 ADD SWAP1 DUP2 MSTORE PUSH1 0x20 ADD PUSH0 KECCAK256 PUSH1 0x1 ADD SLOAD PUSH2 0x1005 SWAP2 SWAP1 PUSH2 0x1E3D JUMP JUMPDEST SWAP1 POP JUMPDEST SWAP2 SWAP1 POP JUMP JUMPDEST PUSH2 0x1015 PUSH2 0x1688 JUMP JUMPDEST PUSH0 PUSH20 0xFFFFFFFFFFFFFFFFFFFFFFFFFFFFFFFFFFFFFFFF AND DUP2 PUSH20 0xFFFFFFFFFFFFFFFFFFFFFFFFFFFFFFFFFFFFFFFF AND SUB PUSH2 0x1085 JUMPI PUSH0 PUSH1 0x40 MLOAD PUSH32 0x1E4FBDF700000000000000000000000000000000000000000000000000000000 DUP2 MSTORE PUSH1 0x4 ADD PUSH2 0x107C SWAP2 SWAP1 PUSH2 0x1975 JUMP JUMPDEST PUSH1 0x40 MLOAD DUP1 SWAP2 SUB SWAP1 REVERT JUMPDEST PUSH2 0x108E DUP2 PUSH2 0x170F JUMP JUMPDEST POP JUMP JUMPDEST PUSH0 PUSH20 0xFFFFFFFFFFFFFFFFFFFFFFFFFFFFFFFFFFFFFFFF AND DUP3 PUSH20 0xFFFFFFFFFFFFFFFFFFFFFFFFFFFFFFFFFFFFFFFF AND SUB PUSH2 0x135F JUMPI PUSH0 DUP2 GT PUSH2 0x1106 JUMPI PUSH1 0x40 MLOAD PUSH32 0x8C379A000000000000000000000000000000000000000000000000000000000 DUP2 MSTORE PUSH1 0x4 ADD PUSH2 0x10FD SWAP1 PUSH2 0x1D16 JUMP JUMPDEST PUSH1 0x40 MLOAD DUP1 SWAP2 SUB SWAP1 REVERT JUMPDEST DUP1 PUSH8 0xDE0B6B3A7640000 PUSH1 0x4 PUSH0 CALLER PUSH20 0xFFFFFFFFFFFFFFFFFFFFFFFFFFFFFFFFFFFFFFFF AND PUSH20 0xFFFFFFFFFFFFFFFFFFFFFFFFFFFFFFFFFFFFFFFF AND DUP2 MSTORE PUSH1 0x20 ADD SWAP1 DUP2 MSTORE PUSH1 0x20 ADD PUSH0 KECCAK256 PUSH1 0x1 ADD SLOAD PUSH2 0x115B SWAP2 SWAP1 PUSH2 0x1E3D JUMP JUMPDEST LT ISZERO PUSH2 0x119C JUMPI PUSH1 0x40 MLOAD PUSH32 0x8C379A000000000000000000000000000000000000000000000000000000000 DUP2 MSTORE PUSH1 0x4 ADD PUSH2 0x1193 SWAP1 PUSH2 0x1DBF JUMP JUMPDEST PUSH1 0x40 MLOAD DUP1 SWAP2 SUB SWAP1 REVERT JUMPDEST PUSH8 0xDE0B6B3A7640000 DUP2 PUSH2 0x11B0 SWAP2 SWAP1 PUSH2 0x1D34 JUMP JUMPDEST PUSH1 0x4 PUSH0 CALLER PUSH20 0xFFFFFFFFFFFFFFFFFFFFFFFFFFFFFFFFFFFFFFFF AND PUSH20 0xFFFFFFFFFFFFFFFFFFFFFFFFFFFFFFFFFFFFFFFF AND DUP2 MSTORE PUSH1 0x20 ADD SWAP1 DUP2 MSTORE PUSH1 0x20 ADD PUSH0 KECCAK256 PUSH1 0x1 ADD PUSH0 DUP3 DUP3 SLOAD PUSH2 0x11FE SWAP2 SWAP1 PUSH2 0x1DDD JUMP JUMPDEST SWAP3 POP POP DUP2 SWAP1 SSTORE POP PUSH2 0x120D PUSH2 0x1681 JUMP JUMPDEST PUSH1 0x4 PUSH0 CALLER PUSH20 0xFFFFFFFFFFFFFFFFFFFFFFFFFFFFFFFFFFFFFFFF AND PUSH20 0xFFFFFFFFFFFFFFFFFFFFFFFFFFFFFFFFFFFFFFFF AND DUP2 MSTORE PUSH1 0x20 ADD SWAP1 DUP2 MSTORE PUSH1 0x20 ADD PUSH0 KECCAK256 PUSH0 ADD DUP2 SWAP1 SSTORE POP PUSH0 CALLER PUSH20 0xFFFFFFFFFFFFFFFFFFFFFFFFFFFFFFFFFFFFFFFF AND PUSH8 0xDE0B6B3A7640000 DUP4 PUSH2 0x127C SWAP2 SWAP1 PUSH2 0x1D34 JUMP JUMPDEST PUSH1 0x40 MLOAD PUSH2 0x1288 SWAP1 PUSH2 0x1E9A JUMP JUMPDEST PUSH0 PUSH1 0x40 MLOAD DUP1 DUP4 SUB DUP2 DUP6 DUP8 GAS CALL SWAP3 POP POP POP RETURNDATASIZE DUP1 PUSH0 DUP2 EQ PUSH2 0x12C2 JUMPI PUSH1 0x40 MLOAD SWAP2 POP PUSH1 0x1F NOT PUSH1 0x3F RETURNDATASIZE ADD AND DUP3 ADD PUSH1 0x40 MSTORE RETURNDATASIZE DUP3 MSTORE RETURNDATASIZE PUSH0 PUSH1 0x20 DUP5 ADD RETURNDATACOPY PUSH2 0x12C7 JUMP JUMPDEST PUSH1 0x60 SWAP2 POP JUMPDEST POP POP SWAP1 POP DUP1 PUSH2 0x130B JUMPI PUSH1 0x40 MLOAD PUSH32 0x8C379A000000000000000000000000000000000000000000000000000000000 DUP2 MSTORE PUSH1 0x4 ADD PUSH2 0x1302 SWAP1 PUSH2 0x1EF8 JUMP JUMPDEST PUSH1 0x40 MLOAD DUP1 SWAP2 SUB SWAP1 REVERT JUMPDEST CALLER PUSH20 0xFFFFFFFFFFFFFFFFFFFFFFFFFFFFFFFFFFFFFFFF AND PUSH32 0x94B2DE810873337ED265C5F8CF98C9CFFEFA06B8607F9A2F1FBAEBDFBCFBEF1C DUP4 PUSH1 0x40 MLOAD PUSH2 0x1351 SWAP2 SWAP1 PUSH2 0x1AE9 JUMP JUMPDEST PUSH1 0x40 MLOAD DUP1 SWAP2 SUB SWAP1 LOG2 POP PUSH2 0x167D JUMP JUMPDEST PUSH1 0x6 PUSH0 DUP4 PUSH20 0xFFFFFFFFFFFFFFFFFFFFFFFFFFFFFFFFFFFFFFFF AND PUSH20 0xFFFFFFFFFFFFFFFFFFFFFFFFFFFFFFFFFFFFFFFF AND DUP2 MSTORE PUSH1 0x20 ADD SWAP1 DUP2 MSTORE PUSH1 0x20 ADD PUSH0 KECCAK256 PUSH0 SWAP1 SLOAD SWAP1 PUSH2 0x100 EXP SWAP1 DIV PUSH1 0xFF AND PUSH2 0x13E8 JUMPI PUSH1 0x40 MLOAD PUSH32 0x8C379A000000000000000000000000000000000000000000000000000000000 DUP2 MSTORE PUSH1 0x4 ADD PUSH2 0x13DF SWAP1 PUSH2 0x1BBC JUMP JUMPDEST PUSH1 0x40 MLOAD DUP1 SWAP2 SUB SWAP1 REVERT JUMPDEST DUP1 PUSH8 0xDE0B6B3A7640000 PUSH1 0x3 PUSH0 DUP6 PUSH20 0xFFFFFFFFFFFFFFFFFFFFFFFFFFFFFFFFFFFFFFFF AND PUSH20 0xFFFFFFFFFFFFFFFFFFFFFFFFFFFFFFFFFFFFFFFF AND DUP2 MSTORE PUSH1 0x20 ADD SWAP1 DUP2 MSTORE PUSH1 0x20 ADD PUSH0 KECCAK256 PUSH0 CALLER PUSH20 0xFFFFFFFFFFFFFFFFFFFFFFFFFFFFFFFFFFFFFFFF AND PUSH20 0xFFFFFFFFFFFFFFFFFFFFFFFFFFFFFFFFFFFFFFFF AND DUP2 MSTORE PUSH1 0x20 ADD SWAP1 DUP2 MSTORE PUSH1 0x20 ADD PUSH0 KECCAK256 PUSH1 0x1 ADD SLOAD PUSH2 0x1478 SWAP2 SWAP1 PUSH2 0x1E3D JUMP JUMPDEST LT ISZERO PUSH2 0x14B9 JUMPI PUSH1 0x40 MLOAD PUSH32 0x8C379A000000000000000000000000000000000000000000000000000000000 DUP2 MSTORE PUSH1 0x4 ADD PUSH2 0x14B0 SWAP1 PUSH2 0x1DBF JUMP JUMPDEST PUSH1 0x40 MLOAD DUP1 SWAP2 SUB SWAP1 REVERT JUMPDEST PUSH8 0xDE0B6B3A7640000 DUP2 PUSH2 0x14CD SWAP2 SWAP1 PUSH2 0x1D34 JUMP JUMPDEST PUSH1 0x3 PUSH0 DUP5 PUSH20 0xFFFFFFFFFFFFFFFFFFFFFFFFFFFFFFFFFFFFFFFF AND PUSH20 0xFFFFFFFFFFFFFFFFFFFFFFFFFFFFFFFFFFFFFFFF AND DUP2 MSTORE PUSH1 0x20 ADD SWAP1 DUP2 MSTORE PUSH1 0x20 ADD PUSH0 KECCAK256 PUSH0 CALLER PUSH20 0xFFFFFFFFFFFFFFFFFFFFFFFFFFFFFFFFFFFFFFFF AND PUSH20 0xFFFFFFFFFFFFFFFFFFFFFFFFFFFFFFFFFFFFFFFF AND DUP2 MSTORE PUSH1 0x20 ADD SWAP1 DUP2 MSTORE PUSH1 0x20 ADD PUSH0 KECCAK256 PUSH1 0x1 ADD PUSH0 DUP3 DUP3 SLOAD PUSH2 0x1556 SWAP2 SWAP1 PUSH2 0x1DDD JUMP JUMPDEST SWAP3 POP POP DUP2 SWAP1 SSTORE POP DUP2 PUSH20 0xFFFFFFFFFFFFFFFFFFFFFFFFFFFFFFFFFFFFFFFF AND PUSH4 0xA9059CBB CALLER DUP4 PUSH1 0x40 MLOAD DUP4 PUSH4 0xFFFFFFFF AND PUSH1 0xE0 SHL DUP2 MSTORE PUSH1 0x4 ADD PUSH2 0x1598 SWAP3 SWAP2 SWAP1 PUSH2 0x1F16 JUMP JUMPDEST PUSH1 0x20 PUSH1 0x40 MLOAD DUP1 DUP4 SUB DUP2 PUSH0 DUP8 GAS CALL ISZERO DUP1 ISZERO PUSH2 0x15B4 JUMPI RETURNDATASIZE PUSH0 DUP1 RETURNDATACOPY RETURNDATASIZE PUSH0 REVERT JUMPDEST POP POP POP POP PUSH1 0x40 MLOAD RETURNDATASIZE PUSH1 0x1F NOT PUSH1 0x1F DUP3 ADD AND DUP3 ADD DUP1 PUSH1 0x40 MSTORE POP DUP2 ADD SWAP1 PUSH2 0x15D8 SWAP2 SWAP1 PUSH2 0x1C39 JUMP JUMPDEST PUSH2 0x1617 JUMPI PUSH1 0x40 MLOAD PUSH32 0x8C379A000000000000000000000000000000000000000000000000000000000 DUP2 MSTORE PUSH1 0x4 ADD PUSH2 0x160E SWAP1 PUSH2 0x1CAE JUMP JUMPDEST PUSH1 0x40 MLOAD DUP1 SWAP2 SUB SWAP1 REVERT JUMPDEST DUP2 PUSH20 0xFFFFFFFFFFFFFFFFFFFFFFFFFFFFFFFFFFFFFFFF AND CALLER PUSH20 0xFFFFFFFFFFFFFFFFFFFFFFFFFFFFFFFFFFFFFFFF AND PUSH32 0xD1C19FBCD4551A5EDFB66D43D2E337C04837AFDA3482B42BDF569A8FCCDAE5FB DUP4 PUSH1 0x40 MLOAD PUSH2 0x1674 SWAP2 SWAP1 PUSH2 0x1AE9 JUMP JUMPDEST PUSH1 0x40 MLOAD DUP1 SWAP2 SUB SWAP1 LOG3 JUMPDEST POP POP JUMP JUMPDEST PUSH0 TIMESTAMP SWAP1 POP SWAP1 JUMP JUMPDEST PUSH2 0x1690 PUSH2 0x17D0 JUMP JUMPDEST PUSH20 0xFFFFFFFFFFFFFFFFFFFFFFFFFFFFFFFFFFFFFFFF AND PUSH2 0x16AE PUSH2 0x7E0 JUMP JUMPDEST PUSH20 0xFFFFFFFFFFFFFFFFFFFFFFFFFFFFFFFFFFFFFFFF AND EQ PUSH2 0x170D JUMPI PUSH2 0x16D1 PUSH2 0x17D0 JUMP JUMPDEST PUSH1 0x40 MLOAD PUSH32 0x118CDAA700000000000000000000000000000000000000000000000000000000 DUP2 MSTORE PUSH1 0x4 ADD PUSH2 0x1704 SWAP2 SWAP1 PUSH2 0x1975 JUMP JUMPDEST PUSH1 0x40 MLOAD DUP1 SWAP2 SUB SWAP1 REVERT JUMPDEST JUMP JUMPDEST PUSH0 DUP1 PUSH0 SWAP1 SLOAD SWAP1 PUSH2 0x100 EXP SWAP1 DIV PUSH20 0xFFFFFFFFFFFFFFFFFFFFFFFFFFFFFFFFFFFFFFFF AND SWAP1 POP DUP2 PUSH0 DUP1 PUSH2 0x100 EXP DUP2 SLOAD DUP2 PUSH20 0xFFFFFFFFFFFFFFFFFFFFFFFFFFFFFFFFFFFFFFFF MUL NOT AND SWAP1 DUP4 PUSH20 0xFFFFFFFFFFFFFFFFFFFFFFFFFFFFFFFFFFFFFFFF AND MUL OR SWAP1 SSTORE POP DUP2 PUSH20 0xFFFFFFFFFFFFFFFFFFFFFFFFFFFFFFFFFFFFFFFF AND DUP2 PUSH20 0xFFFFFFFFFFFFFFFFFFFFFFFFFFFFFFFFFFFFFFFF AND PUSH32 0x8BE0079C531659141344CD1FD0A4F28419497F9722A3DAAFE3B4186F6B6457E0 PUSH1 0x40 MLOAD PUSH1 0x40 MLOAD DUP1 SWAP2 SUB SWAP1 LOG3 POP POP JUMP JUMPDEST PUSH0 CALLER SWAP1 POP SWAP1 JUMP JUMPDEST PUSH0 DUP1 REVERT JUMPDEST PUSH0 PUSH20 0xFFFFFFFFFFFFFFFFFFFFFFFFFFFFFFFFFFFFFFFF DUP3 AND SWAP1 POP SWAP2 SWAP1 POP JUMP JUMPDEST PUSH0 PUSH2 0x1804 DUP3 PUSH2 0x17DB JUMP JUMPDEST SWAP1 POP SWAP2 SWAP1 POP JUMP JUMPDEST PUSH2 0x1814 DUP2 PUSH2 0x17FA JUMP JUMPDEST DUP2 EQ PUSH2 0x181E JUMPI PUSH0 DUP1 REVERT JUMPDEST POP JUMP JUMPDEST PUSH0 DUP2 CALLDATALOAD SWAP1 POP PUSH2 0x182F DUP2 PUSH2 0x180B JUMP JUMPDEST SWAP3 SWAP2 POP POP JUMP JUMPDEST PUSH0 PUSH1 0x20 DUP3 DUP5 SUB SLT ISZERO PUSH2 0x184A JUMPI PUSH2 0x1849 PUSH2 0x17D7 JUMP JUMPDEST JUMPDEST PUSH0 PUSH2 0x1857 DUP5 DUP3 DUP6 ADD PUSH2 0x1821 JUMP JUMPDEST SWAP2 POP POP SWAP3 SWAP2 POP POP JUMP JUMPDEST PUSH0 DUP2 SWAP1 POP SWAP2 SWAP1 POP JUMP JUMPDEST PUSH2 0x1872 DUP2 PUSH2 0x1860 JUMP JUMPDEST DUP3 MSTORE POP POP JUMP JUMPDEST PUSH0 PUSH1 0x40 DUP3 ADD SWAP1 POP PUSH2 0x188B PUSH0 DUP4 ADD DUP6 PUSH2 0x1869 JUMP JUMPDEST PUSH2 0x1898 PUSH1 0x20 DUP4 ADD DUP5 PUSH2 0x1869 JUMP JUMPDEST SWAP4 SWAP3 POP POP POP JUMP JUMPDEST PUSH2 0x18A8 DUP2 PUSH2 0x1860 JUMP JUMPDEST DUP2 EQ PUSH2 0x18B2 JUMPI PUSH0 DUP1 REVERT JUMPDEST POP JUMP JUMPDEST PUSH0 DUP2 CALLDATALOAD SWAP1 POP PUSH2 0x18C3 DUP2 PUSH2 0x189F JUMP JUMPDEST SWAP3 SWAP2 POP POP JUMP JUMPDEST PUSH0 PUSH1 0x20 DUP3 DUP5 SUB SLT ISZERO PUSH2 0x18DE JUMPI PUSH2 0x18DD PUSH2 0x17D7 JUMP JUMPDEST JUMPDEST PUSH0 PUSH2 0x18EB DUP5 DUP3 DUP6 ADD PUSH2 0x18B5 JUMP JUMPDEST SWAP2 POP POP SWAP3 SWAP2 POP POP JUMP JUMPDEST PUSH0 PUSH1 0xFF DUP3 AND SWAP1 POP SWAP2 SWAP1 POP JUMP JUMPDEST PUSH2 0x1909 DUP2 PUSH2 0x18F4 JUMP JUMPDEST DUP3 MSTORE POP POP JUMP JUMPDEST PUSH0 PUSH1 0x20 DUP3 ADD SWAP1 POP PUSH2 0x1922 PUSH0 DUP4 ADD DUP5 PUSH2 0x1900 JUMP JUMPDEST SWAP3 SWAP2 POP POP JUMP JUMPDEST PUSH0 DUP1 PUSH1 0x40 DUP4 DUP6 SUB SLT ISZERO PUSH2 0x193E JUMPI PUSH2 0x193D PUSH2 0x17D7 JUMP JUMPDEST JUMPDEST PUSH0 PUSH2 0x194B DUP6 DUP3 DUP7 ADD PUSH2 0x1821 JUMP JUMPDEST SWAP3 POP POP PUSH1 0x20 PUSH2 0x195C DUP6 DUP3 DUP7 ADD PUSH2 0x18B5 JUMP JUMPDEST SWAP2 POP POP SWAP3 POP SWAP3 SWAP1 POP JUMP JUMPDEST PUSH2 0x196F DUP2 PUSH2 0x17FA JUMP JUMPDEST DUP3 MSTORE POP POP JUMP JUMPDEST PUSH0 PUSH1 0x20 DUP3 ADD SWAP1 POP PUSH2 0x1988 PUSH0 DUP4 ADD DUP5 PUSH2 0x1966 JUMP JUMPDEST SWAP3 SWAP2 POP POP JUMP JUMPDEST PUSH0 DUP1 PUSH1 0x40 DUP4 DUP6 SUB SLT ISZERO PUSH2 0x19A4 JUMPI PUSH2 0x19A3 PUSH2 0x17D7 JUMP JUMPDEST JUMPDEST PUSH0 PUSH2 0x19B1 DUP6 DUP3 DUP7 ADD PUSH2 0x1821 JUMP JUMPDEST SWAP3 POP POP PUSH1 0x20 PUSH2 0x19C2 DUP6 DUP3 DUP7 ADD PUSH2 0x1821 JUMP JUMPDEST SWAP2 POP POP SWAP3 POP SWAP3 SWAP1 POP JUMP JUMPDEST PUSH0 DUP2 ISZERO ISZERO SWAP1 POP SWAP2 SWAP1 POP JUMP JUMPDEST PUSH2 0x19E0 DUP2 PUSH2 0x19CC JUMP JUMPDEST DUP3 MSTORE POP POP JUMP JUMPDEST PUSH0 PUSH1 0x20 DUP3 ADD SWAP1 POP PUSH2 0x19F9 PUSH0 DUP4 ADD DUP5 PUSH2 0x19D7 JUMP JUMPDEST SWAP3 SWAP2 POP POP JUMP JUMPDEST PUSH0 PUSH1 0xC0 DUP3 ADD SWAP1 POP PUSH2 0x1A12 PUSH0 DUP4 ADD DUP10 PUSH2 0x1966 JUMP JUMPDEST PUSH2 0x1A1F PUSH1 0x20 DUP4 ADD DUP9 PUSH2 0x1966 JUMP JUMPDEST PUSH2 0x1A2C PUSH1 0x40 DUP4 ADD DUP8 PUSH2 0x1869 JUMP JUMPDEST PUSH2 0x1A39 PUSH1 0x60 DUP4 ADD DUP7 PUSH2 0x1966 JUMP JUMPDEST PUSH2 0x1A46 PUSH1 0x80 DUP4 ADD DUP6 PUSH2 0x1869 JUMP JUMPDEST PUSH2 0x1A53 PUSH1 0xA0 DUP4 ADD DUP5 PUSH2 0x19D7 JUMP JUMPDEST SWAP8 SWAP7 POP POP POP POP POP POP POP JUMP JUMPDEST PUSH0 PUSH2 0x1A68 DUP3 PUSH2 0x17DB JUMP JUMPDEST SWAP1 POP SWAP2 SWAP1 POP JUMP JUMPDEST PUSH2 0x1A78 DUP2 PUSH2 0x1A5E JUMP JUMPDEST DUP2 EQ PUSH2 0x1A82 JUMPI PUSH0 DUP1 REVERT JUMPDEST POP JUMP JUMPDEST PUSH0 DUP2 CALLDATALOAD SWAP1 POP PUSH2 0x1A93 DUP2 PUSH2 0x1A6F JUMP JUMPDEST SWAP3 SWAP2 POP POP JUMP JUMPDEST PUSH0 DUP1 PUSH0 PUSH1 0x60 DUP5 DUP7 SUB SLT ISZERO PUSH2 0x1AB0 JUMPI PUSH2 0x1AAF PUSH2 0x17D7 JUMP JUMPDEST JUMPDEST PUSH0 PUSH2 0x1ABD DUP7 DUP3 DUP8 ADD PUSH2 0x1821 JUMP JUMPDEST SWAP4 POP POP PUSH1 0x20 PUSH2 0x1ACE DUP7 DUP3 DUP8 ADD PUSH2 0x1A85 JUMP JUMPDEST SWAP3 POP POP PUSH1 0x40 PUSH2 0x1ADF DUP7 DUP3 DUP8 ADD PUSH2 0x18B5 JUMP JUMPDEST SWAP2 POP POP SWAP3 POP SWAP3 POP SWAP3 JUMP JUMPDEST PUSH0 PUSH1 0x20 DUP3 ADD SWAP1 POP PUSH2 0x1AFC PUSH0 DUP4 ADD DUP5 PUSH2 0x1869 JUMP JUMPDEST SWAP3 SWAP2 POP POP JUMP JUMPDEST PUSH32 0x4E487B7100000000000000000000000000000000000000000000000000000000 PUSH0 MSTORE PUSH1 0x11 PUSH1 0x4 MSTORE PUSH1 0x24 PUSH0 REVERT JUMPDEST PUSH0 PUSH2 0x1B39 DUP3 PUSH2 0x1860 JUMP JUMPDEST SWAP2 POP PUSH2 0x1B44 DUP4 PUSH2 0x1860 JUMP JUMPDEST SWAP3 POP DUP3 DUP3 ADD SWAP1 POP DUP1 DUP3 GT ISZERO PUSH2 0x1B5C JUMPI PUSH2 0x1B5B PUSH2 0x1B02 JUMP JUMPDEST JUMPDEST SWAP3 SWAP2 POP POP JUMP JUMPDEST PUSH0 DUP3 DUP3 MSTORE PUSH1 0x20 DUP3 ADD SWAP1 POP SWAP3 SWAP2 POP POP JUMP JUMPDEST PUSH32 0x496E76616C696420746F6B656E00000000000000000000000000000000000000 PUSH0 DUP3 ADD MSTORE POP JUMP JUMPDEST PUSH0 PUSH2 0x1BA6 PUSH1 0xD DUP4 PUSH2 0x1B62 JUMP JUMPDEST SWAP2 POP PUSH2 0x1BB1 DUP3 PUSH2 0x1B72 JUMP JUMPDEST PUSH1 0x20 DUP3 ADD SWAP1 POP SWAP2 SWAP1 POP JUMP JUMPDEST PUSH0 PUSH1 0x20 DUP3 ADD SWAP1 POP DUP2 DUP2 SUB PUSH0 DUP4 ADD MSTORE PUSH2 0x1BD3 DUP2 PUSH2 0x1B9A JUMP JUMPDEST SWAP1 POP SWAP2 SWAP1 POP JUMP JUMPDEST PUSH0 PUSH1 0x60 DUP3 ADD SWAP1 POP PUSH2 0x1BED PUSH0 DUP4 ADD DUP7 PUSH2 0x1966 JUMP JUMPDEST PUSH2 0x1BFA PUSH1 0x20 DUP4 ADD DUP6 PUSH2 0x1966 JUMP JUMPDEST PUSH2 0x1C07 PUSH1 0x40 DUP4 ADD DUP5 PUSH2 0x1869 JUMP JUMPDEST SWAP5 SWAP4 POP POP POP POP JUMP JUMPDEST PUSH2 0x1C18 DUP2 PUSH2 0x19CC JUMP JUMPDEST DUP2 EQ PUSH2 0x1C22 JUMPI PUSH0 DUP1 REVERT JUMPDEST POP JUMP JUMPDEST PUSH0 DUP2 MLOAD SWAP1 POP PUSH2 0x1C33 DUP2 PUSH2 0x1C0F JUMP JUMPDEST SWAP3 SWAP2 POP POP JUMP JUMPDEST PUSH0 PUSH1 0x20 DUP3 DUP5 SUB SLT ISZERO PUSH2 0x1C4E JUMPI PUSH2 0x1C4D PUSH2 0x17D7 JUMP JUMPDEST JUMPDEST PUSH0 PUSH2 0x1C5B DUP5 DUP3 DUP6 ADD PUSH2 0x1C25 JUMP JUMPDEST SWAP2 POP POP SWAP3 SWAP2 POP POP JUMP JUMPDEST PUSH32 0x5472616E73666572206661696C65640000000000000000000000000000000000 PUSH0 DUP3 ADD MSTORE POP JUMP JUMPDEST PUSH0 PUSH2 0x1C98 PUSH1 0xF DUP4 PUSH2 0x1B62 JUMP JUMPDEST SWAP2 POP PUSH2 0x1CA3 DUP3 PUSH2 0x1C64 JUMP JUMPDEST PUSH1 0x20 DUP3 ADD SWAP1 POP SWAP2 SWAP1 POP JUMP JUMPDEST PUSH0 PUSH1 0x20 DUP3 ADD SWAP1 POP DUP2 DUP2 SUB PUSH0 DUP4 ADD MSTORE PUSH2 0x1CC5 DUP2 PUSH2 0x1C8C JUMP JUMPDEST SWAP1 POP SWAP2 SWAP1 POP JUMP JUMPDEST PUSH32 0x416D6F756E74206D7573742062652067726561746572207468616E2030000000 PUSH0 DUP3 ADD MSTORE POP JUMP JUMPDEST PUSH0 PUSH2 0x1D00 PUSH1 0x1D DUP4 PUSH2 0x1B62 JUMP JUMPDEST SWAP2 POP PUSH2 0x1D0B DUP3 PUSH2 0x1CCC JUMP JUMPDEST PUSH1 0x20 DUP3 ADD SWAP1 POP SWAP2 SWAP1 POP JUMP JUMPDEST PUSH0 PUSH1 0x20 DUP3 ADD SWAP1 POP DUP2 DUP2 SUB PUSH0 DUP4 ADD MSTORE PUSH2 0x1D2D DUP2 PUSH2 0x1CF4 JUMP JUMPDEST SWAP1 POP SWAP2 SWAP1 POP JUMP JUMPDEST PUSH0 PUSH2 0x1D3E DUP3 PUSH2 0x1860 JUMP JUMPDEST SWAP2 POP PUSH2 0x1D49 DUP4 PUSH2 0x1860 JUMP JUMPDEST SWAP3 POP DUP3 DUP3 MUL PUSH2 0x1D57 DUP2 PUSH2 0x1860 JUMP JUMPDEST SWAP2 POP DUP3 DUP3 DIV DUP5 EQ DUP4 ISZERO OR PUSH2 0x1D6E JUMPI PUSH2 0x1D6D PUSH2 0x1B02 JUMP JUMPDEST JUMPDEST POP SWAP3 SWAP2 POP POP JUMP JUMPDEST PUSH32 0x496E73756666696369656E742062616C616E6365000000000000000000000000 PUSH0 DUP3 ADD MSTORE POP JUMP JUMPDEST PUSH0 PUSH2 0x1DA9 PUSH1 0x14 DUP4 PUSH2 0x1B62 JUMP JUMPDEST SWAP2 POP PUSH2 0x1DB4 DUP3 PUSH2 0x1D75 JUMP JUMPDEST PUSH1 0x20 DUP3 ADD SWAP1 POP SWAP2 SWAP1 POP JUMP JUMPDEST PUSH0 PUSH1 0x20 DUP3 ADD SWAP1 POP DUP2 DUP2 SUB PUSH0 DUP4 ADD MSTORE PUSH2 0x1DD6 DUP2 PUSH2 0x1D9D JUMP JUMPDEST SWAP1 POP SWAP2 SWAP1 POP JUMP JUMPDEST PUSH0 PUSH2 0x1DE7 DUP3 PUSH2 0x1860 JUMP JUMPDEST SWAP2 POP PUSH2 0x1DF2 DUP4 PUSH2 0x1860 JUMP JUMPDEST SWAP3 POP DUP3 DUP3 SUB SWAP1 POP DUP2 DUP2 GT ISZERO PUSH2 0x1E0A JUMPI PUSH2 0x1E09 PUSH2 0x1B02 JUMP JUMPDEST JUMPDEST SWAP3 SWAP2 POP POP JUMP JUMPDEST PUSH32 0x4E487B7100000000000000000000000000000000000000000000000000000000 PUSH0 MSTORE PUSH1 0x12 PUSH1 0x4 MSTORE PUSH1 0x24 PUSH0 REVERT JUMPDEST PUSH0 PUSH2 0x1E47 DUP3 PUSH2 0x1860 JUMP JUMPDEST SWAP2 POP PUSH2 0x1E52 DUP4 PUSH2 0x1860 JUMP JUMPDEST SWAP3 POP DUP3 PUSH2 0x1E62 JUMPI PUSH2 0x1E61 PUSH2 0x1E10 JUMP JUMPDEST JUMPDEST DUP3 DUP3 DIV SWAP1 POP SWAP3 SWAP2 POP POP JUMP JUMPDEST PUSH0 DUP2 SWAP1 POP SWAP3 SWAP2 POP POP JUMP JUMPDEST POP JUMP JUMPDEST PUSH0 PUSH2 0x1E85 PUSH0 DUP4 PUSH2 0x1E6D JUMP JUMPDEST SWAP2 POP PUSH2 0x1E90 DUP3 PUSH2 0x1E77 JUMP JUMPDEST PUSH0 DUP3 ADD SWAP1 POP SWAP2 SWAP1 POP JUMP JUMPDEST PUSH0 PUSH2 0x1EA4 DUP3 PUSH2 0x1E7A JUMP JUMPDEST SWAP2 POP DUP2 SWAP1 POP SWAP2 SWAP1 POP JUMP JUMPDEST PUSH32 0x455448207769746864726177616C206661696C65640000000000000000000000 PUSH0 DUP3 ADD MSTORE POP JUMP JUMPDEST PUSH0 PUSH2 0x1EE2 PUSH1 0x15 DUP4 PUSH2 0x1B62 JUMP JUMPDEST SWAP2 POP PUSH2 0x1EED DUP3 PUSH2 0x1EAE JUMP JUMPDEST PUSH1 0x20 DUP3 ADD SWAP1 POP SWAP2 SWAP1 POP JUMP JUMPDEST PUSH0 PUSH1 0x20 DUP3 ADD SWAP1 POP DUP2 DUP2 SUB PUSH0 DUP4 ADD MSTORE PUSH2 0x1F0F DUP2 PUSH2 0x1ED6 JUMP JUMPDEST SWAP1 POP SWAP2 SWAP1 POP JUMP JUMPDEST PUSH0 PUSH1 0x40 DUP3 ADD SWAP1 POP PUSH2 0x1F29 PUSH0 DUP4 ADD DUP6 PUSH2 0x1966 JUMP JUMPDEST PUSH2 0x1F36 PUSH1 0x20 DUP4 ADD DUP5 PUSH2 0x1869 JUMP JUMPDEST SWAP4 SWAP3 POP POP POP JUMP INVALID LOG2 PUSH5 0x6970667358 0x22 SLT KECCAK256 BLOCKHASH PUSH19 0xE79E73262896C22511FCC1D4601B0DEECF3B19 CALLER PUSH10 0x6B43EB70F55107DFF664 PUSH20 0x6F6C634300081A00330000000000000000000000 "
				},
				"gasEstimates": {
					"creation": {
						"codeDepositCost": "1610200",
						"executionCost": "infinite",
						"totalCost": "infinite"
					},
					"external": {
						"decimals(uint256)": "6554",
						"deposit(address,uint256)": "infinite",
						"deposits(address,address)": "infinite",
						"eth_deposits(address)": "infinite",
						"getDeposit(address)": "infinite",
						"isTokenInList(address)": "2878",
						"loans(address,uint256)": "infinite",
						"owner()": "2626",
						"renounceOwnership()": "infinite",
						"tokens(uint256)": "5011",
						"transfer(address,address,uint256)": "infinite",
						"transferOwnership(address)": "infinite",
						"withdraw(address,uint256)": "infinite"
					},
					"internal": {
						"getCurrentTimeView()": "21"
					}
				},
				"methodIdentifiers": {
					"decimals(uint256)": "3f47e662",
					"deposit(address,uint256)": "47e7ef24",
					"deposits(address,address)": "8f601f66",
					"eth_deposits(address)": "2e9708e4",
					"getDeposit(address)": "e1254fba",
					"isTokenInList(address)": "95533f17",
					"loans(address,uint256)": "98c61c37",
					"owner()": "8da5cb5b",
					"renounceOwnership()": "715018a6",
					"tokens(uint256)": "4f64b2be",
					"transfer(address,address,uint256)": "beabacc8",
					"transferOwnership(address)": "f2fde38b",
					"withdraw(address,uint256)": "f3fef3a3"
				}
			},
			"storageLayout": {
				"storage": [
					{
						"astId": 8,
						"contract": "contracts/Bank.sol:Bank",
						"label": "_owner",
						"offset": 0,
						"slot": "0",
						"type": "t_address"
					},
					{
						"astId": 291,
						"contract": "contracts/Bank.sol:Bank",
						"label": "tokens",
						"offset": 0,
						"slot": "1",
						"type": "t_array(t_address)dyn_storage"
					},
					{
						"astId": 294,
						"contract": "contracts/Bank.sol:Bank",
						"label": "decimals",
						"offset": 0,
						"slot": "2",
						"type": "t_array(t_uint8)dyn_storage"
					},
					{
						"astId": 323,
						"contract": "contracts/Bank.sol:Bank",
						"label": "deposits",
						"offset": 0,
						"slot": "3",
						"type": "t_mapping(t_address,t_mapping(t_address,t_struct(Deposit)316_storage))"
					},
					{
						"astId": 328,
						"contract": "contracts/Bank.sol:Bank",
						"label": "eth_deposits",
						"offset": 0,
						"slot": "4",
						"type": "t_mapping(t_address,t_struct(Deposit)316_storage)"
					},
					{
						"astId": 334,
						"contract": "contracts/Bank.sol:Bank",
						"label": "loans",
						"offset": 0,
						"slot": "5",
						"type": "t_mapping(t_address,t_array(t_struct(Loan)311_storage)dyn_storage)"
					},
					{
						"astId": 338,
						"contract": "contracts/Bank.sol:Bank",
						"label": "isTokenInList",
						"offset": 0,
						"slot": "6",
						"type": "t_mapping(t_address,t_bool)"
					}
				],
				"types": {
					"t_address": {
						"encoding": "inplace",
						"label": "address",
						"numberOfBytes": "20"
					},
					"t_array(t_address)dyn_storage": {
						"base": "t_address",
						"encoding": "dynamic_array",
						"label": "address[]",
						"numberOfBytes": "32"
					},
					"t_array(t_struct(Loan)311_storage)dyn_storage": {
						"base": "t_struct(Loan)311_storage",
						"encoding": "dynamic_array",
						"label": "struct Bank.Loan[]",
						"numberOfBytes": "32"
					},
					"t_array(t_uint8)dyn_storage": {
						"base": "t_uint8",
						"encoding": "dynamic_array",
						"label": "uint8[]",
						"numberOfBytes": "32"
					},
					"t_bool": {
						"encoding": "inplace",
						"label": "bool",
						"numberOfBytes": "1"
					},
					"t_mapping(t_address,t_array(t_struct(Loan)311_storage)dyn_storage)": {
						"encoding": "mapping",
						"key": "t_address",
						"label": "mapping(address => struct Bank.Loan[])",
						"numberOfBytes": "32",
						"value": "t_array(t_struct(Loan)311_storage)dyn_storage"
					},
					"t_mapping(t_address,t_bool)": {
						"encoding": "mapping",
						"key": "t_address",
						"label": "mapping(address => bool)",
						"numberOfBytes": "32",
						"value": "t_bool"
					},
					"t_mapping(t_address,t_mapping(t_address,t_struct(Deposit)316_storage))": {
						"encoding": "mapping",
						"key": "t_address",
						"label": "mapping(address => mapping(address => struct Bank.Deposit))",
						"numberOfBytes": "32",
						"value": "t_mapping(t_address,t_struct(Deposit)316_storage)"
					},
					"t_mapping(t_address,t_struct(Deposit)316_storage)": {
						"encoding": "mapping",
						"key": "t_address",
						"label": "mapping(address => struct Bank.Deposit)",
						"numberOfBytes": "32",
						"value": "t_struct(Deposit)316_storage"
					},
					"t_struct(Deposit)316_storage": {
						"encoding": "inplace",
						"label": "struct Bank.Deposit",
						"members": [
							{
								"astId": 313,
								"contract": "contracts/Bank.sol:Bank",
								"label": "time",
								"offset": 0,
								"slot": "0",
								"type": "t_uint256"
							},
							{
								"astId": 315,
								"contract": "contracts/Bank.sol:Bank",
								"label": "amount",
								"offset": 0,
								"slot": "1",
								"type": "t_uint256"
							}
						],
						"numberOfBytes": "64"
					},
					"t_struct(Loan)311_storage": {
						"encoding": "inplace",
						"label": "struct Bank.Loan",
						"members": [
							{
								"astId": 300,
								"contract": "contracts/Bank.sol:Bank",
								"label": "borrower",
								"offset": 0,
								"slot": "0",
								"type": "t_address"
							},
							{
								"astId": 302,
								"contract": "contracts/Bank.sol:Bank",
								"label": "loanToken",
								"offset": 0,
								"slot": "1",
								"type": "t_address"
							},
							{
								"astId": 304,
								"contract": "contracts/Bank.sol:Bank",
								"label": "loanAmount",
								"offset": 0,
								"slot": "2",
								"type": "t_uint256"
							},
							{
								"astId": 306,
								"contract": "contracts/Bank.sol:Bank",
								"label": "collateralToken",
								"offset": 0,
								"slot": "3",
								"type": "t_address"
							},
							{
								"astId": 308,
								"contract": "contracts/Bank.sol:Bank",
								"label": "collateralAmount",
								"offset": 0,
								"slot": "4",
								"type": "t_uint256"
							},
							{
								"astId": 310,
								"contract": "contracts/Bank.sol:Bank",
								"label": "isActive",
								"offset": 0,
								"slot": "5",
								"type": "t_bool"
							}
						],
						"numberOfBytes": "192"
					},
					"t_uint256": {
						"encoding": "inplace",
						"label": "uint256",
						"numberOfBytes": "32"
					},
					"t_uint8": {
						"encoding": "inplace",
						"label": "uint8",
						"numberOfBytes": "1"
					}
				}
			},
			"userdoc": {
				"kind": "user",
				"methods": {
					"deposit(address,uint256)": {
						"notice": "存入 ETH 或 Token"
					},
					"getDeposit(address)": {
						"notice": "查询存款余额"
					},
					"transfer(address,address,uint256)": {
						"notice": "转账 ETH 或 Token"
					},
					"withdraw(address,uint256)": {
						"notice": "取出 ETH 或 Token"
					}
				},
				"version": 1
			}
		}
	}
}