{
	"contracts/Bank.sol": {
		"Bank": {
			"abi": [
				{
					"inputs": [
						{
							"internalType": "address",
							"name": "_tokenA",
							"type": "address"
						},
						{
							"internalType": "address",
							"name": "_tokenB",
							"type": "address"
						},
						{
							"internalType": "address",
							"name": "_tokenC",
							"type": "address"
						}
					],
					"stateMutability": "nonpayable",
					"type": "constructor"
				},
				{
					"inputs": [
						{
							"internalType": "address",
							"name": "owner",
							"type": "address"
						}
					],
					"name": "OwnableInvalidOwner",
					"type": "error"
				},
				{
					"inputs": [
						{
							"internalType": "address",
							"name": "account",
							"type": "address"
						}
					],
					"name": "OwnableUnauthorizedAccount",
					"type": "error"
				},
				{
					"anonymous": false,
					"inputs": [
						{
							"indexed": true,
							"internalType": "address",
							"name": "user",
							"type": "address"
						},
						{
							"indexed": true,
							"internalType": "address",
							"name": "loanToken",
							"type": "address"
						},
						{
							"indexed": false,
							"internalType": "uint256",
							"name": "loanAmount",
							"type": "uint256"
						},
						{
							"indexed": true,
							"internalType": "address",
							"name": "collateralToken",
							"type": "address"
						},
						{
							"indexed": false,
							"internalType": "uint256",
							"name": "collateralAmount",
							"type": "uint256"
						}
					],
					"name": "Borrowed",
					"type": "event"
				},
				{
					"anonymous": false,
					"inputs": [
						{
							"indexed": true,
							"internalType": "address",
							"name": "user",
							"type": "address"
						},
						{
							"indexed": true,
							"internalType": "address",
							"name": "token",
							"type": "address"
						},
						{
							"indexed": false,
							"internalType": "uint256",
							"name": "amount",
							"type": "uint256"
						}
					],
					"name": "Deposited",
					"type": "event"
				},
				{
					"anonymous": false,
					"inputs": [
						{
							"indexed": true,
							"internalType": "address",
							"name": "user",
							"type": "address"
						},
						{
							"indexed": false,
							"internalType": "uint256",
							"name": "amount",
							"type": "uint256"
						}
					],
					"name": "ETHSaved",
					"type": "event"
				},
				{
					"anonymous": false,
					"inputs": [
						{
							"indexed": true,
							"internalType": "address",
							"name": "from",
							"type": "address"
						},
						{
							"indexed": true,
							"internalType": "address",
							"name": "to",
							"type": "address"
						},
						{
							"indexed": false,
							"internalType": "uint256",
							"name": "amount",
							"type": "uint256"
						}
					],
					"name": "ETHTransferred",
					"type": "event"
				},
				{
					"anonymous": false,
					"inputs": [
						{
							"indexed": true,
							"internalType": "address",
							"name": "user",
							"type": "address"
						},
						{
							"indexed": false,
							"internalType": "uint256",
							"name": "amount",
							"type": "uint256"
						}
					],
					"name": "ETHWithdrawn",
					"type": "event"
				},
				{
					"anonymous": false,
					"inputs": [
						{
							"indexed": true,
							"internalType": "address",
							"name": "previousOwner",
							"type": "address"
						},
						{
							"indexed": true,
							"internalType": "address",
							"name": "newOwner",
							"type": "address"
						}
					],
					"name": "OwnershipTransferred",
					"type": "event"
				},
				{
					"anonymous": false,
					"inputs": [
						{
							"indexed": true,
							"internalType": "address",
							"name": "user",
							"type": "address"
						},
						{
							"indexed": false,
							"internalType": "uint256",
							"name": "loanIndex",
							"type": "uint256"
						}
					],
					"name": "Repaid",
					"type": "event"
				},
				{
					"anonymous": false,
					"inputs": [
						{
							"indexed": true,
							"internalType": "address",
							"name": "user",
							"type": "address"
						},
						{
							"indexed": true,
							"internalType": "address",
							"name": "token",
							"type": "address"
						},
						{
							"indexed": false,
							"internalType": "uint256",
							"name": "amount",
							"type": "uint256"
						}
					],
					"name": "Withdrawn",
					"type": "event"
				},
				{
					"inputs": [
						{
							"internalType": "address",
							"name": "token",
							"type": "address"
						},
						{
							"internalType": "uint256",
							"name": "amount",
							"type": "uint256"
						}
					],
					"name": "deposit",
					"outputs": [],
					"stateMutability": "payable",
					"type": "function"
				},
				{
					"inputs": [
						{
							"internalType": "address",
							"name": "",
							"type": "address"
						},
						{
							"internalType": "address",
							"name": "",
							"type": "address"
						}
					],
					"name": "deposits",
					"outputs": [
						{
							"internalType": "uint256",
							"name": "time",
							"type": "uint256"
						},
						{
							"internalType": "uint256",
							"name": "amount",
							"type": "uint256"
						}
					],
					"stateMutability": "view",
					"type": "function"
				},
				{
					"inputs": [
						{
							"internalType": "address",
							"name": "",
							"type": "address"
						}
					],
					"name": "eth_deposits",
					"outputs": [
						{
							"internalType": "uint256",
							"name": "time",
							"type": "uint256"
						},
						{
							"internalType": "uint256",
							"name": "amount",
							"type": "uint256"
						}
					],
					"stateMutability": "view",
					"type": "function"
				},
				{
					"inputs": [
						{
							"internalType": "address",
							"name": "token",
							"type": "address"
						}
					],
					"name": "getDeposit",
					"outputs": [
						{
							"internalType": "uint256",
							"name": "",
							"type": "uint256"
						}
					],
					"stateMutability": "view",
					"type": "function"
				},
				{
					"inputs": [
						{
							"internalType": "address",
							"name": "",
							"type": "address"
						},
						{
							"internalType": "uint256",
							"name": "",
							"type": "uint256"
						}
					],
					"name": "loans",
					"outputs": [
						{
							"internalType": "address",
							"name": "borrower",
							"type": "address"
						},
						{
							"internalType": "address",
							"name": "loanToken",
							"type": "address"
						},
						{
							"internalType": "uint256",
							"name": "loanAmount",
							"type": "uint256"
						},
						{
							"internalType": "address",
							"name": "collateralToken",
							"type": "address"
						},
						{
							"internalType": "uint256",
							"name": "collateralAmount",
							"type": "uint256"
						},
						{
							"internalType": "bool",
							"name": "isActive",
							"type": "bool"
						}
					],
					"stateMutability": "view",
					"type": "function"
				},
				{
					"inputs": [],
					"name": "owner",
					"outputs": [
						{
							"internalType": "address",
							"name": "",
							"type": "address"
						}
					],
					"stateMutability": "view",
					"type": "function"
				},
				{
					"inputs": [],
					"name": "renounceOwnership",
					"outputs": [],
					"stateMutability": "nonpayable",
					"type": "function"
				},
				{
					"inputs": [],
					"name": "tokenA",
					"outputs": [
						{
							"internalType": "address",
							"name": "",
							"type": "address"
						}
					],
					"stateMutability": "view",
					"type": "function"
				},
				{
					"inputs": [],
					"name": "tokenB",
					"outputs": [
						{
							"internalType": "address",
							"name": "",
							"type": "address"
						}
					],
					"stateMutability": "view",
					"type": "function"
				},
				{
					"inputs": [],
					"name": "tokenC",
					"outputs": [
						{
							"internalType": "address",
							"name": "",
							"type": "address"
						}
					],
					"stateMutability": "view",
					"type": "function"
				},
				{
					"inputs": [
						{
							"internalType": "address payable",
							"name": "_to",
							"type": "address"
						},
						{
							"internalType": "uint256",
							"name": "_amount",
							"type": "uint256"
						}
					],
					"name": "transferETH",
					"outputs": [],
					"stateMutability": "payable",
					"type": "function"
				},
				{
					"inputs": [
						{
							"internalType": "address",
							"name": "newOwner",
							"type": "address"
						}
					],
					"name": "transferOwnership",
					"outputs": [],
					"stateMutability": "nonpayable",
					"type": "function"
				},
				{
					"inputs": [
						{
							"internalType": "address",
							"name": "token",
							"type": "address"
						},
						{
							"internalType": "uint256",
							"name": "amount",
							"type": "uint256"
						}
					],
					"name": "withdraw",
					"outputs": [],
					"stateMutability": "nonpayable",
					"type": "function"
				},
				{
					"stateMutability": "payable",
					"type": "receive"
				}
			],
			"devdoc": {
				"errors": {
					"OwnableInvalidOwner(address)": [
						{
							"details": "The owner is not a valid owner account. (eg. `address(0)`)"
						}
					],
					"OwnableUnauthorizedAccount(address)": [
						{
							"details": "The caller account is not authorized to perform an operation."
						}
					]
				},
				"kind": "dev",
				"methods": {
					"owner()": {
						"details": "Returns the address of the current owner."
					},
					"renounceOwnership()": {
						"details": "Leaves the contract without owner. It will not be possible to call `onlyOwner` functions. Can only be called by the current owner. NOTE: Renouncing ownership will leave the contract without an owner, thereby disabling any functionality that is only available to the owner."
					},
					"transferOwnership(address)": {
						"details": "Transfers ownership of the contract to a new account (`newOwner`). Can only be called by the current owner."
					}
				},
				"version": 1
			},
			"evm": {
				"assembly": "    /* \"contracts/Bank.sol\":175:4680  contract Bank is Ownable {... */\n  mstore(0x40, 0x0120)\n    /* \"contracts/Bank.sol\":1784:2029  constructor(address _tokenA, address _tokenB, address _tokenC) Ownable(msg.sender) {... */\n  callvalue\n  dup1\n  iszero\n  tag_1\n  jumpi\n  0x00\n  dup1\n  revert\ntag_1:\n  pop\n  mload(0x40)\n  sub(codesize, bytecodeSize)\n  dup1\n  bytecodeSize\n  dup4\n  codecopy\n  dup2\n  dup2\n  add\n  0x40\n  mstore\n  dup2\n  add\n  swap1\n  tag_2\n  swap2\n  swap1\n  tag_3\n  jump\t// in\ntag_2:\n    /* \"contracts/Bank.sol\":1855:1865  msg.sender */\n  caller\n    /* \"@openzeppelin/contracts/access/Ownable.sol\":1297:1298  0 */\n  0x00\n    /* \"@openzeppelin/contracts/access/Ownable.sol\":1273:1299  initialOwner == address(0) */\n  0xffffffffffffffffffffffffffffffffffffffff\n  and\n    /* \"@openzeppelin/contracts/access/Ownable.sol\":1273:1285  initialOwner */\n  dup2\n    /* \"@openzeppelin/contracts/access/Ownable.sol\":1273:1299  initialOwner == address(0) */\n  0xffffffffffffffffffffffffffffffffffffffff\n  and\n  sub\n    /* \"@openzeppelin/contracts/access/Ownable.sol\":1269:1364  if (initialOwner == address(0)) {... */\n  tag_7\n  jumpi\n    /* \"@openzeppelin/contracts/access/Ownable.sol\":1350:1351  0 */\n  0x00\n    /* \"@openzeppelin/contracts/access/Ownable.sol\":1322:1353  OwnableInvalidOwner(address(0)) */\n  mload(0x40)\n  0x1e4fbdf700000000000000000000000000000000000000000000000000000000\n  dup2\n  mstore\n  0x04\n  add\n  tag_8\n  swap2\n  swap1\n  tag_9\n  jump\t// in\ntag_8:\n  mload(0x40)\n  dup1\n  swap2\n  sub\n  swap1\n  revert\n    /* \"@openzeppelin/contracts/access/Ownable.sol\":1269:1364  if (initialOwner == address(0)) {... */\ntag_7:\n    /* \"@openzeppelin/contracts/access/Ownable.sol\":1373:1405  _transferOwnership(initialOwner) */\n  tag_10\n    /* \"@openzeppelin/contracts/access/Ownable.sol\":1392:1404  initialOwner */\n  dup2\n    /* \"@openzeppelin/contracts/access/Ownable.sol\":1373:1391  _transferOwnership */\n  shl(0x20, tag_11)\n    /* \"@openzeppelin/contracts/access/Ownable.sol\":1373:1405  _transferOwnership(initialOwner) */\n  0x20\n  shr\n  jump\t// in\ntag_10:\n    /* \"@openzeppelin/contracts/access/Ownable.sol\":1225:1412  constructor(address initialOwner) {... */\n  pop\n    /* \"contracts/Bank.sol\":1887:1894  _tokenA */\n  dup3\n    /* \"contracts/Bank.sol\":1878:1894  tokenA = _tokenA */\n  0xffffffffffffffffffffffffffffffffffffffff\n  and\n  0x80\n  dup2\n  0xffffffffffffffffffffffffffffffffffffffff\n  and\n  dup2\n  mstore\n  pop\n  pop\n    /* \"contracts/Bank.sol\":1914:1921  _tokenB */\n  dup2\n    /* \"contracts/Bank.sol\":1905:1921  tokenB = _tokenB */\n  0xffffffffffffffffffffffffffffffffffffffff\n  and\n  0xa0\n  dup2\n  0xffffffffffffffffffffffffffffffffffffffff\n  and\n  dup2\n  mstore\n  pop\n  pop\n    /* \"contracts/Bank.sol\":1941:1948  _tokenC */\n  dup1\n    /* \"contracts/Bank.sol\":1932:1948  tokenC = _tokenC */\n  0xffffffffffffffffffffffffffffffffffffffff\n  and\n  0xc0\n  dup2\n  0xffffffffffffffffffffffffffffffffffffffff\n  and\n  dup2\n  mstore\n  pop\n  pop\n    /* \"contracts/Bank.sol\":1968:1978  msg.sender */\n  caller\n    /* \"contracts/Bank.sol\":1959:1978  ownner = msg.sender */\n  0xffffffffffffffffffffffffffffffffffffffff\n  and\n  0xe0\n  dup2\n  0xffffffffffffffffffffffffffffffffffffffff\n  and\n  dup2\n  mstore\n  pop\n  pop\n    /* \"contracts/Bank.sol\":2001:2021  getCurrentTimeView() */\n  tag_13\n    /* \"contracts/Bank.sol\":2001:2019  getCurrentTimeView */\n  shl(0x20, tag_14)\n    /* \"contracts/Bank.sol\":2001:2021  getCurrentTimeView() */\n  0x20\n  shr\n  jump\t// in\ntag_13:\n    /* \"contracts/Bank.sol\":1989:2021  startTime = getCurrentTimeView() */\n  0x0100\n  dup2\n  dup2\n  mstore\n  pop\n  pop\n    /* \"contracts/Bank.sol\":1784:2029  constructor(address _tokenA, address _tokenB, address _tokenC) Ownable(msg.sender) {... */\n  pop\n  pop\n  pop\n    /* \"contracts/Bank.sol\":175:4680  contract Bank is Ownable {... */\n  jump(tag_15)\n    /* \"@openzeppelin/contracts/access/Ownable.sol\":2912:3099  function _transferOwnership(address newOwner) internal virtual {... */\ntag_11:\n    /* \"@openzeppelin/contracts/access/Ownable.sol\":2985:3001  address oldOwner */\n  0x00\n    /* \"@openzeppelin/contracts/access/Ownable.sol\":3004:3010  _owner */\n  dup1\n  0x00\n  swap1\n  sload\n  swap1\n  0x0100\n  exp\n  swap1\n  div\n  0xffffffffffffffffffffffffffffffffffffffff\n  and\n    /* \"@openzeppelin/contracts/access/Ownable.sol\":2985:3010  address oldOwner = _owner */\n  swap1\n  pop\n    /* \"@openzeppelin/contracts/access/Ownable.sol\":3029:3037  newOwner */\n  dup2\n    /* \"@openzeppelin/contracts/access/Ownable.sol\":3020:3026  _owner */\n  0x00\n  dup1\n    /* \"@openzeppelin/contracts/access/Ownable.sol\":3020:3037  _owner = newOwner */\n  0x0100\n  exp\n  dup2\n  sload\n  dup2\n  0xffffffffffffffffffffffffffffffffffffffff\n  mul\n  not\n  and\n  swap1\n  dup4\n  0xffffffffffffffffffffffffffffffffffffffff\n  and\n  mul\n  or\n  swap1\n  sstore\n  pop\n    /* \"@openzeppelin/contracts/access/Ownable.sol\":3083:3091  newOwner */\n  dup2\n    /* \"@openzeppelin/contracts/access/Ownable.sol\":3052:3092  OwnershipTransferred(oldOwner, newOwner) */\n  0xffffffffffffffffffffffffffffffffffffffff\n  and\n    /* \"@openzeppelin/contracts/access/Ownable.sol\":3073:3081  oldOwner */\n  dup2\n    /* \"@openzeppelin/contracts/access/Ownable.sol\":3052:3092  OwnershipTransferred(oldOwner, newOwner) */\n  0xffffffffffffffffffffffffffffffffffffffff\n  and\n  0x8be0079c531659141344cd1fd0a4f28419497f9722a3daafe3b4186f6b6457e0\n  mload(0x40)\n  mload(0x40)\n  dup1\n  swap2\n  sub\n  swap1\n  log3\n    /* \"@openzeppelin/contracts/access/Ownable.sol\":2975:3099  {... */\n  pop\n    /* \"@openzeppelin/contracts/access/Ownable.sol\":2912:3099  function _transferOwnership(address newOwner) internal virtual {... */\n  pop\n  jump\t// out\n    /* \"contracts/Bank.sol\":1673:1776  function getCurrentTimeView() internal view returns (uint256) {... */\ntag_14:\n    /* \"contracts/Bank.sol\":1726:1733  uint256 */\n  0x00\n    /* \"contracts/Bank.sol\":1753:1768  block.timestamp */\n  timestamp\n    /* \"contracts/Bank.sol\":1746:1768  return block.timestamp */\n  swap1\n  pop\n    /* \"contracts/Bank.sol\":1673:1776  function getCurrentTimeView() internal view returns (uint256) {... */\n  swap1\n  jump\t// out\n    /* \"#utility.yul\":88:205   */\ntag_19:\n    /* \"#utility.yul\":197:198   */\n  0x00\n    /* \"#utility.yul\":194:195   */\n  dup1\n    /* \"#utility.yul\":187:199   */\n  revert\n    /* \"#utility.yul\":334:460   */\ntag_21:\n    /* \"#utility.yul\":371:378   */\n  0x00\n    /* \"#utility.yul\":411:453   */\n  0xffffffffffffffffffffffffffffffffffffffff\n    /* \"#utility.yul\":404:409   */\n  dup3\n    /* \"#utility.yul\":400:454   */\n  and\n    /* \"#utility.yul\":389:454   */\n  swap1\n  pop\n    /* \"#utility.yul\":334:460   */\n  swap2\n  swap1\n  pop\n  jump\t// out\n    /* \"#utility.yul\":466:562   */\ntag_22:\n    /* \"#utility.yul\":503:510   */\n  0x00\n    /* \"#utility.yul\":532:556   */\n  tag_32\n    /* \"#utility.yul\":550:555   */\n  dup3\n    /* \"#utility.yul\":532:556   */\n  tag_21\n  jump\t// in\ntag_32:\n    /* \"#utility.yul\":521:556   */\n  swap1\n  pop\n    /* \"#utility.yul\":466:562   */\n  swap2\n  swap1\n  pop\n  jump\t// out\n    /* \"#utility.yul\":568:690   */\ntag_23:\n    /* \"#utility.yul\":641:665   */\n  tag_34\n    /* \"#utility.yul\":659:664   */\n  dup2\n    /* \"#utility.yul\":641:665   */\n  tag_22\n  jump\t// in\ntag_34:\n    /* \"#utility.yul\":634:639   */\n  dup2\n    /* \"#utility.yul\":631:666   */\n  eq\n    /* \"#utility.yul\":621:684   */\n  tag_35\n  jumpi\n    /* \"#utility.yul\":680:681   */\n  0x00\n    /* \"#utility.yul\":677:678   */\n  dup1\n    /* \"#utility.yul\":670:682   */\n  revert\n    /* \"#utility.yul\":621:684   */\ntag_35:\n    /* \"#utility.yul\":568:690   */\n  pop\n  jump\t// out\n    /* \"#utility.yul\":696:839   */\ntag_24:\n    /* \"#utility.yul\":753:758   */\n  0x00\n    /* \"#utility.yul\":784:790   */\n  dup2\n    /* \"#utility.yul\":778:791   */\n  mload\n    /* \"#utility.yul\":769:791   */\n  swap1\n  pop\n    /* \"#utility.yul\":800:833   */\n  tag_37\n    /* \"#utility.yul\":827:832   */\n  dup2\n    /* \"#utility.yul\":800:833   */\n  tag_23\n  jump\t// in\ntag_37:\n    /* \"#utility.yul\":696:839   */\n  swap3\n  swap2\n  pop\n  pop\n  jump\t// out\n    /* \"#utility.yul\":845:1508   */\ntag_3:\n    /* \"#utility.yul\":933:939   */\n  0x00\n    /* \"#utility.yul\":941:947   */\n  dup1\n    /* \"#utility.yul\":949:955   */\n  0x00\n    /* \"#utility.yul\":998:1000   */\n  0x60\n    /* \"#utility.yul\":986:995   */\n  dup5\n    /* \"#utility.yul\":977:984   */\n  dup7\n    /* \"#utility.yul\":973:996   */\n  sub\n    /* \"#utility.yul\":969:1001   */\n  slt\n    /* \"#utility.yul\":966:1085   */\n  iszero\n  tag_39\n  jumpi\n    /* \"#utility.yul\":1004:1083   */\n  tag_40\n  tag_19\n  jump\t// in\ntag_40:\n    /* \"#utility.yul\":966:1085   */\ntag_39:\n    /* \"#utility.yul\":1124:1125   */\n  0x00\n    /* \"#utility.yul\":1149:1213   */\n  tag_41\n    /* \"#utility.yul\":1205:1212   */\n  dup7\n    /* \"#utility.yul\":1196:1202   */\n  dup3\n    /* \"#utility.yul\":1185:1194   */\n  dup8\n    /* \"#utility.yul\":1181:1203   */\n  add\n    /* \"#utility.yul\":1149:1213   */\n  tag_24\n  jump\t// in\ntag_41:\n    /* \"#utility.yul\":1139:1213   */\n  swap4\n  pop\n    /* \"#utility.yul\":1095:1223   */\n  pop\n    /* \"#utility.yul\":1262:1264   */\n  0x20\n    /* \"#utility.yul\":1288:1352   */\n  tag_42\n    /* \"#utility.yul\":1344:1351   */\n  dup7\n    /* \"#utility.yul\":1335:1341   */\n  dup3\n    /* \"#utility.yul\":1324:1333   */\n  dup8\n    /* \"#utility.yul\":1320:1342   */\n  add\n    /* \"#utility.yul\":1288:1352   */\n  tag_24\n  jump\t// in\ntag_42:\n    /* \"#utility.yul\":1278:1352   */\n  swap3\n  pop\n    /* \"#utility.yul\":1233:1362   */\n  pop\n    /* \"#utility.yul\":1401:1403   */\n  0x40\n    /* \"#utility.yul\":1427:1491   */\n  tag_43\n    /* \"#utility.yul\":1483:1490   */\n  dup7\n    /* \"#utility.yul\":1474:1480   */\n  dup3\n    /* \"#utility.yul\":1463:1472   */\n  dup8\n    /* \"#utility.yul\":1459:1481   */\n  add\n    /* \"#utility.yul\":1427:1491   */\n  tag_24\n  jump\t// in\ntag_43:\n    /* \"#utility.yul\":1417:1491   */\n  swap2\n  pop\n    /* \"#utility.yul\":1372:1501   */\n  pop\n    /* \"#utility.yul\":845:1508   */\n  swap3\n  pop\n  swap3\n  pop\n  swap3\n  jump\t// out\n    /* \"#utility.yul\":1514:1632   */\ntag_25:\n    /* \"#utility.yul\":1601:1625   */\n  tag_45\n    /* \"#utility.yul\":1619:1624   */\n  dup2\n    /* \"#utility.yul\":1601:1625   */\n  tag_22\n  jump\t// in\ntag_45:\n    /* \"#utility.yul\":1596:1599   */\n  dup3\n    /* \"#utility.yul\":1589:1626   */\n  mstore\n    /* \"#utility.yul\":1514:1632   */\n  pop\n  pop\n  jump\t// out\n    /* \"#utility.yul\":1638:1860   */\ntag_9:\n    /* \"#utility.yul\":1731:1735   */\n  0x00\n    /* \"#utility.yul\":1769:1771   */\n  0x20\n    /* \"#utility.yul\":1758:1767   */\n  dup3\n    /* \"#utility.yul\":1754:1772   */\n  add\n    /* \"#utility.yul\":1746:1772   */\n  swap1\n  pop\n    /* \"#utility.yul\":1782:1853   */\n  tag_47\n    /* \"#utility.yul\":1850:1851   */\n  0x00\n    /* \"#utility.yul\":1839:1848   */\n  dup4\n    /* \"#utility.yul\":1835:1852   */\n  add\n    /* \"#utility.yul\":1826:1832   */\n  dup5\n    /* \"#utility.yul\":1782:1853   */\n  tag_25\n  jump\t// in\ntag_47:\n    /* \"#utility.yul\":1638:1860   */\n  swap3\n  swap2\n  pop\n  pop\n  jump\t// out\n    /* \"contracts/Bank.sol\":175:4680  contract Bank is Ownable {... */\ntag_15:\n  mload(0x80)\n  mload(0xa0)\n  mload(0xc0)\n  mload(0xe0)\n  mload(0x0100)\n  codecopy(0x00, dataOffset(sub_0), dataSize(sub_0))\n  0x00\n  assignImmutable(\"0x0e2ebb9616682a934d374d36ec533ac8c688d143a19ec3095914433ecc16266a\")\n  0x00\n  assignImmutable(\"0x273aa4908e152d529e25a9f5482459ad34b85c65a2a2eb2d4dcc86bed0f67292\")\n  0x00\n  assignImmutable(\"0x7d94b1fd5befe75fac04677148728067a5c7750c4535d59cf8d692301dae078c\")\n  0x00\n  assignImmutable(\"0xddf732f49edf4f39000cbbb8d0940c0999195c9b1b0aec524c1c4b4adca5a581\")\n  0x00\n  assignImmutable(\"0x3f0db30619999417fd8760d29229e62155714c378b0408610dbffdd45f116b21\")\n  return(0x00, dataSize(sub_0))\nstop\n\nsub_0: assembly {\n        /* \"contracts/Bank.sol\":175:4680  contract Bank is Ownable {... */\n      mstore(0x40, 0x80)\n      jumpi(tag_1, lt(calldatasize, 0x04))\n      shr(0xe0, calldataload(0x00))\n      dup1\n      0x8da5cb5b\n      gt\n      tag_16\n      jumpi\n      dup1\n      0xc483a308\n      gt\n      tag_17\n      jumpi\n      dup1\n      0xc483a308\n      eq\n      tag_12\n      jumpi\n      dup1\n      0xe1254fba\n      eq\n      tag_13\n      jumpi\n      dup1\n      0xf2fde38b\n      eq\n      tag_14\n      jumpi\n      dup1\n      0xf3fef3a3\n      eq\n      tag_15\n      jumpi\n      jump(tag_2)\n    tag_17:\n      dup1\n      0x8da5cb5b\n      eq\n      tag_9\n      jumpi\n      dup1\n      0x8f601f66\n      eq\n      tag_10\n      jumpi\n      dup1\n      0x98c61c37\n      eq\n      tag_11\n      jumpi\n      jump(tag_2)\n    tag_16:\n      dup1\n      0x0fc63d10\n      eq\n      tag_3\n      jumpi\n      dup1\n      0x2e9708e4\n      eq\n      tag_4\n      jumpi\n      dup1\n      0x47e7ef24\n      eq\n      tag_5\n      jumpi\n      dup1\n      0x5f64b55b\n      eq\n      tag_6\n      jumpi\n      dup1\n      0x715018a6\n      eq\n      tag_7\n      jumpi\n      dup1\n      0x7b1a4909\n      eq\n      tag_8\n      jumpi\n      jump(tag_2)\n    tag_1:\n      jumpi(tag_2, calldatasize)\n      stop\n    tag_2:\n      0x00\n      dup1\n      revert\n        /* \"contracts/Bank.sol\":213:244  address public immutable tokenA */\n    tag_3:\n      callvalue\n      dup1\n      iszero\n      tag_20\n      jumpi\n      0x00\n      dup1\n      revert\n    tag_20:\n      pop\n      tag_21\n      tag_22\n      jump\t// in\n    tag_21:\n      mload(0x40)\n      tag_23\n      swap2\n      swap1\n      tag_24\n      jump\t// in\n    tag_23:\n      mload(0x40)\n      dup1\n      swap2\n      sub\n      swap1\n      return\n        /* \"contracts/Bank.sol\":824:871  mapping(address => Deposit) public eth_deposits */\n    tag_4:\n      callvalue\n      dup1\n      iszero\n      tag_25\n      jumpi\n      0x00\n      dup1\n      revert\n    tag_25:\n      pop\n      tag_26\n      0x04\n      dup1\n      calldatasize\n      sub\n      dup2\n      add\n      swap1\n      tag_27\n      swap2\n      swap1\n      tag_28\n      jump\t// in\n    tag_27:\n      tag_29\n      jump\t// in\n    tag_26:\n      mload(0x40)\n      tag_30\n      swap3\n      swap2\n      swap1\n      tag_31\n      jump\t// in\n    tag_30:\n      mload(0x40)\n      dup1\n      swap2\n      sub\n      swap1\n      return\n        /* \"contracts/Bank.sol\":2075:2699  function deposit(address token, uint256 amount) external payable {... */\n    tag_5:\n      tag_32\n      0x04\n      dup1\n      calldatasize\n      sub\n      dup2\n      add\n      swap1\n      tag_33\n      swap2\n      swap1\n      tag_34\n      jump\t// in\n    tag_33:\n      tag_35\n      jump\t// in\n    tag_32:\n      stop\n        /* \"contracts/Bank.sol\":251:282  address public immutable tokenB */\n    tag_6:\n      callvalue\n      dup1\n      iszero\n      tag_36\n      jumpi\n      0x00\n      dup1\n      revert\n    tag_36:\n      pop\n      tag_37\n      tag_38\n      jump\t// in\n    tag_37:\n      mload(0x40)\n      tag_39\n      swap2\n      swap1\n      tag_24\n      jump\t// in\n    tag_39:\n      mload(0x40)\n      dup1\n      swap2\n      sub\n      swap1\n      return\n        /* \"@openzeppelin/contracts/access/Ownable.sol\":2293:2394  function renounceOwnership() public virtual onlyOwner {... */\n    tag_7:\n      callvalue\n      dup1\n      iszero\n      tag_40\n      jumpi\n      0x00\n      dup1\n      revert\n    tag_40:\n      pop\n      tag_41\n      tag_42\n      jump\t// in\n    tag_41:\n      stop\n        /* \"contracts/Bank.sol\":3828:4309  function transferETH(address payable _to, uint256 _amount) external payable {... */\n    tag_8:\n      tag_43\n      0x04\n      dup1\n      calldatasize\n      sub\n      dup2\n      add\n      swap1\n      tag_44\n      swap2\n      swap1\n      tag_45\n      jump\t// in\n    tag_44:\n      tag_46\n      jump\t// in\n    tag_43:\n      stop\n        /* \"@openzeppelin/contracts/access/Ownable.sol\":1638:1723  function owner() public view virtual returns (address) {... */\n    tag_9:\n      callvalue\n      dup1\n      iszero\n      tag_47\n      jumpi\n      0x00\n      dup1\n      revert\n    tag_47:\n      pop\n      tag_48\n      tag_49\n      jump\t// in\n    tag_48:\n      mload(0x40)\n      tag_50\n      swap2\n      swap1\n      tag_24\n      jump\t// in\n    tag_50:\n      mload(0x40)\n      dup1\n      swap2\n      sub\n      swap1\n      return\n        /* \"contracts/Bank.sol\":695:758  mapping(address => mapping(address => Deposit)) public deposits */\n    tag_10:\n      callvalue\n      dup1\n      iszero\n      tag_51\n      jumpi\n      0x00\n      dup1\n      revert\n    tag_51:\n      pop\n      tag_52\n      0x04\n      dup1\n      calldatasize\n      sub\n      dup2\n      add\n      swap1\n      tag_53\n      swap2\n      swap1\n      tag_54\n      jump\t// in\n    tag_53:\n      tag_55\n      jump\t// in\n    tag_52:\n      mload(0x40)\n      tag_56\n      swap3\n      swap2\n      swap1\n      tag_31\n      jump\t// in\n    tag_56:\n      mload(0x40)\n      dup1\n      swap2\n      sub\n      swap1\n      return\n        /* \"contracts/Bank.sol\":924:963  mapping(address => Loan[]) public loans */\n    tag_11:\n      callvalue\n      dup1\n      iszero\n      tag_57\n      jumpi\n      0x00\n      dup1\n      revert\n    tag_57:\n      pop\n      tag_58\n      0x04\n      dup1\n      calldatasize\n      sub\n      dup2\n      add\n      swap1\n      tag_59\n      swap2\n      swap1\n      tag_34\n      jump\t// in\n    tag_59:\n      tag_60\n      jump\t// in\n    tag_58:\n      mload(0x40)\n      tag_61\n      swap7\n      swap6\n      swap5\n      swap4\n      swap3\n      swap2\n      swap1\n      tag_62\n      jump\t// in\n    tag_61:\n      mload(0x40)\n      dup1\n      swap2\n      sub\n      swap1\n      return\n        /* \"contracts/Bank.sol\":289:320  address public immutable tokenC */\n    tag_12:\n      callvalue\n      dup1\n      iszero\n      tag_63\n      jumpi\n      0x00\n      dup1\n      revert\n    tag_63:\n      pop\n      tag_64\n      tag_65\n      jump\t// in\n    tag_64:\n      mload(0x40)\n      tag_66\n      swap2\n      swap1\n      tag_24\n      jump\t// in\n    tag_66:\n      mload(0x40)\n      dup1\n      swap2\n      sub\n      swap1\n      return\n        /* \"contracts/Bank.sol\":4353:4600  function getDeposit(address token) external view returns (uint256) {... */\n    tag_13:\n      callvalue\n      dup1\n      iszero\n      tag_67\n      jumpi\n      0x00\n      dup1\n      revert\n    tag_67:\n      pop\n      tag_68\n      0x04\n      dup1\n      calldatasize\n      sub\n      dup2\n      add\n      swap1\n      tag_69\n      swap2\n      swap1\n      tag_28\n      jump\t// in\n    tag_69:\n      tag_70\n      jump\t// in\n    tag_68:\n      mload(0x40)\n      tag_71\n      swap2\n      swap1\n      tag_72\n      jump\t// in\n    tag_71:\n      mload(0x40)\n      dup1\n      swap2\n      sub\n      swap1\n      return\n        /* \"@openzeppelin/contracts/access/Ownable.sol\":2543:2758  function transferOwnership(address newOwner) public virtual onlyOwner {... */\n    tag_14:\n      callvalue\n      dup1\n      iszero\n      tag_73\n      jumpi\n      0x00\n      dup1\n      revert\n    tag_73:\n      pop\n      tag_74\n      0x04\n      dup1\n      calldatasize\n      sub\n      dup2\n      add\n      swap1\n      tag_75\n      swap2\n      swap1\n      tag_28\n      jump\t// in\n    tag_75:\n      tag_76\n      jump\t// in\n    tag_74:\n      stop\n        /* \"contracts/Bank.sol\":2745:3278  function withdraw(address token, uint256 amount) external {... */\n    tag_15:\n      callvalue\n      dup1\n      iszero\n      tag_77\n      jumpi\n      0x00\n      dup1\n      revert\n    tag_77:\n      pop\n      tag_78\n      0x04\n      dup1\n      calldatasize\n      sub\n      dup2\n      add\n      swap1\n      tag_79\n      swap2\n      swap1\n      tag_34\n      jump\t// in\n    tag_79:\n      tag_80\n      jump\t// in\n    tag_78:\n      stop\n        /* \"contracts/Bank.sol\":213:244  address public immutable tokenA */\n    tag_22:\n      immutable(\"0x3f0db30619999417fd8760d29229e62155714c378b0408610dbffdd45f116b21\")\n      dup2\n      jump\t// out\n        /* \"contracts/Bank.sol\":824:871  mapping(address => Deposit) public eth_deposits */\n    tag_29:\n      mstore(0x20, 0x02)\n      dup1\n      0x00\n      mstore\n      keccak256(0x00, 0x40)\n      0x00\n      swap2\n      pop\n      swap1\n      pop\n      dup1\n      0x00\n      add\n      sload\n      swap1\n      dup1\n      0x01\n      add\n      sload\n      swap1\n      pop\n      dup3\n      jump\t// out\n        /* \"contracts/Bank.sol\":2075:2699  function deposit(address token, uint256 amount) external payable {... */\n    tag_35:\n        /* \"contracts/Bank.sol\":2172:2173  0 */\n      0x00\n        /* \"contracts/Bank.sol\":2155:2174  token == address(0) */\n      0xffffffffffffffffffffffffffffffffffffffff\n      and\n        /* \"contracts/Bank.sol\":2155:2160  token */\n      dup3\n        /* \"contracts/Bank.sol\":2155:2174  token == address(0) */\n      0xffffffffffffffffffffffffffffffffffffffff\n      and\n      sub\n        /* \"contracts/Bank.sol\":2151:2640  if (token == address(0)) {... */\n      tag_82\n      jumpi\n        /* \"contracts/Bank.sol\":2226:2235  msg.value */\n      callvalue\n        /* \"contracts/Bank.sol\":2191:2203  eth_deposits */\n      0x02\n        /* \"contracts/Bank.sol\":2191:2215  eth_deposits[msg.sender] */\n      0x00\n        /* \"contracts/Bank.sol\":2204:2214  msg.sender */\n      caller\n        /* \"contracts/Bank.sol\":2191:2215  eth_deposits[msg.sender] */\n      0xffffffffffffffffffffffffffffffffffffffff\n      and\n      0xffffffffffffffffffffffffffffffffffffffff\n      and\n      dup2\n      mstore\n      0x20\n      add\n      swap1\n      dup2\n      mstore\n      0x20\n      add\n      0x00\n      keccak256\n        /* \"contracts/Bank.sol\":2191:2222  eth_deposits[msg.sender].amount */\n      0x01\n      add\n      0x00\n        /* \"contracts/Bank.sol\":2191:2235  eth_deposits[msg.sender].amount += msg.value */\n      dup3\n      dup3\n      sload\n      tag_83\n      swap2\n      swap1\n      tag_84\n      jump\t// in\n    tag_83:\n      swap3\n      pop\n      pop\n      dup2\n      swap1\n      sstore\n      pop\n        /* \"contracts/Bank.sol\":2282:2302  getCurrentTimeView() */\n      tag_85\n        /* \"contracts/Bank.sol\":2282:2300  getCurrentTimeView */\n      tag_86\n        /* \"contracts/Bank.sol\":2282:2302  getCurrentTimeView() */\n      jump\t// in\n    tag_85:\n        /* \"contracts/Bank.sol\":2250:2262  eth_deposits */\n      0x02\n        /* \"contracts/Bank.sol\":2250:2274  eth_deposits[msg.sender] */\n      0x00\n        /* \"contracts/Bank.sol\":2263:2273  msg.sender */\n      caller\n        /* \"contracts/Bank.sol\":2250:2274  eth_deposits[msg.sender] */\n      0xffffffffffffffffffffffffffffffffffffffff\n      and\n      0xffffffffffffffffffffffffffffffffffffffff\n      and\n      dup2\n      mstore\n      0x20\n      add\n      swap1\n      dup2\n      mstore\n      0x20\n      add\n      0x00\n      keccak256\n        /* \"contracts/Bank.sol\":2250:2279  eth_deposits[msg.sender].time */\n      0x00\n      add\n        /* \"contracts/Bank.sol\":2250:2302  eth_deposits[msg.sender].time = getCurrentTimeView() */\n      dup2\n      swap1\n      sstore\n      pop\n        /* \"contracts/Bank.sol\":2331:2341  msg.sender */\n      caller\n        /* \"contracts/Bank.sol\":2322:2353  ETHSaved(msg.sender, msg.value) */\n      0xffffffffffffffffffffffffffffffffffffffff\n      and\n      0x3bc2cc3db9bc1fa24ad4420cf0201d4c07698bf5902c10e3e04a05d343e938c7\n        /* \"contracts/Bank.sol\":2343:2352  msg.value */\n      callvalue\n        /* \"contracts/Bank.sol\":2322:2353  ETHSaved(msg.sender, msg.value) */\n      mload(0x40)\n      tag_87\n      swap2\n      swap1\n      tag_72\n      jump\t// in\n    tag_87:\n      mload(0x40)\n      dup1\n      swap2\n      sub\n      swap1\n      log2\n        /* \"contracts/Bank.sol\":2151:2640  if (token == address(0)) {... */\n      jump(tag_88)\n    tag_82:\n        /* \"contracts/Bank.sol\":2403:2409  tokenA */\n      immutable(\"0x3f0db30619999417fd8760d29229e62155714c378b0408610dbffdd45f116b21\")\n        /* \"contracts/Bank.sol\":2394:2409  token == tokenA */\n      0xffffffffffffffffffffffffffffffffffffffff\n      and\n        /* \"contracts/Bank.sol\":2394:2399  token */\n      dup3\n        /* \"contracts/Bank.sol\":2394:2409  token == tokenA */\n      0xffffffffffffffffffffffffffffffffffffffff\n      and\n      eq\n        /* \"contracts/Bank.sol\":2394:2428  token == tokenA || token == tokenB */\n      dup1\n      tag_89\n      jumpi\n      pop\n        /* \"contracts/Bank.sol\":2422:2428  tokenB */\n      immutable(\"0xddf732f49edf4f39000cbbb8d0940c0999195c9b1b0aec524c1c4b4adca5a581\")\n        /* \"contracts/Bank.sol\":2413:2428  token == tokenB */\n      0xffffffffffffffffffffffffffffffffffffffff\n      and\n        /* \"contracts/Bank.sol\":2413:2418  token */\n      dup3\n        /* \"contracts/Bank.sol\":2413:2428  token == tokenB */\n      0xffffffffffffffffffffffffffffffffffffffff\n      and\n      eq\n        /* \"contracts/Bank.sol\":2394:2428  token == tokenA || token == tokenB */\n    tag_89:\n        /* \"contracts/Bank.sol\":2394:2447  token == tokenA || token == tokenB || token == tokenC */\n      dup1\n      tag_90\n      jumpi\n      pop\n        /* \"contracts/Bank.sol\":2441:2447  tokenC */\n      immutable(\"0x7d94b1fd5befe75fac04677148728067a5c7750c4535d59cf8d692301dae078c\")\n        /* \"contracts/Bank.sol\":2432:2447  token == tokenC */\n      0xffffffffffffffffffffffffffffffffffffffff\n      and\n        /* \"contracts/Bank.sol\":2432:2437  token */\n      dup3\n        /* \"contracts/Bank.sol\":2432:2447  token == tokenC */\n      0xffffffffffffffffffffffffffffffffffffffff\n      and\n      eq\n        /* \"contracts/Bank.sol\":2394:2447  token == tokenA || token == tokenB || token == tokenC */\n    tag_90:\n        /* \"contracts/Bank.sol\":2386:2465  require(token == tokenA || token == tokenB || token == tokenC, \"Invalid token\") */\n      tag_91\n      jumpi\n      mload(0x40)\n      0x08c379a000000000000000000000000000000000000000000000000000000000\n      dup2\n      mstore\n      0x04\n      add\n      tag_92\n      swap1\n      tag_93\n      jump\t// in\n    tag_92:\n      mload(0x40)\n      dup1\n      swap2\n      sub\n      swap1\n      revert\n    tag_91:\n        /* \"contracts/Bank.sol\":2495:2500  token */\n      dup2\n        /* \"contracts/Bank.sol\":2488:2514  IERC20(token).transferFrom */\n      0xffffffffffffffffffffffffffffffffffffffff\n      and\n      0x23b872dd\n        /* \"contracts/Bank.sol\":2515:2525  msg.sender */\n      caller\n        /* \"contracts/Bank.sol\":2535:2539  this */\n      address\n        /* \"contracts/Bank.sol\":2542:2548  amount */\n      dup5\n        /* \"contracts/Bank.sol\":2488:2549  IERC20(token).transferFrom(msg.sender, address(this), amount) */\n      mload(0x40)\n      dup5\n      0xffffffff\n      and\n      0xe0\n      shl\n      dup2\n      mstore\n      0x04\n      add\n      tag_94\n      swap4\n      swap3\n      swap2\n      swap1\n      tag_95\n      jump\t// in\n    tag_94:\n      0x20\n      mload(0x40)\n      dup1\n      dup4\n      sub\n      dup2\n      0x00\n      dup8\n      gas\n      call\n      iszero\n      dup1\n      iszero\n      tag_97\n      jumpi\n      returndatasize\n      0x00\n      dup1\n      returndatacopy\n      revert(0x00, returndatasize)\n    tag_97:\n      pop\n      pop\n      pop\n      pop\n      mload(0x40)\n      returndatasize\n      not(0x1f)\n      0x1f\n      dup3\n      add\n      and\n      dup3\n      add\n      dup1\n      0x40\n      mstore\n      pop\n      dup2\n      add\n      swap1\n      tag_98\n      swap2\n      swap1\n      tag_99\n      jump\t// in\n    tag_98:\n        /* \"contracts/Bank.sol\":2480:2569  require(IERC20(token).transferFrom(msg.sender, address(this), amount), \"Transfer failed\") */\n      tag_100\n      jumpi\n      mload(0x40)\n      0x08c379a000000000000000000000000000000000000000000000000000000000\n      dup2\n      mstore\n      0x04\n      add\n      tag_101\n      swap1\n      tag_102\n      jump\t// in\n    tag_101:\n      mload(0x40)\n      dup1\n      swap2\n      sub\n      swap1\n      revert\n    tag_100:\n        /* \"contracts/Bank.sol\":2622:2628  amount */\n      dup1\n        /* \"contracts/Bank.sol\":2584:2592  deposits */\n      0x01\n        /* \"contracts/Bank.sol\":2584:2599  deposits[token] */\n      0x00\n        /* \"contracts/Bank.sol\":2593:2598  token */\n      dup5\n        /* \"contracts/Bank.sol\":2584:2599  deposits[token] */\n      0xffffffffffffffffffffffffffffffffffffffff\n      and\n      0xffffffffffffffffffffffffffffffffffffffff\n      and\n      dup2\n      mstore\n      0x20\n      add\n      swap1\n      dup2\n      mstore\n      0x20\n      add\n      0x00\n      keccak256\n        /* \"contracts/Bank.sol\":2584:2611  deposits[token][msg.sender] */\n      0x00\n        /* \"contracts/Bank.sol\":2600:2610  msg.sender */\n      caller\n        /* \"contracts/Bank.sol\":2584:2611  deposits[token][msg.sender] */\n      0xffffffffffffffffffffffffffffffffffffffff\n      and\n      0xffffffffffffffffffffffffffffffffffffffff\n      and\n      dup2\n      mstore\n      0x20\n      add\n      swap1\n      dup2\n      mstore\n      0x20\n      add\n      0x00\n      keccak256\n        /* \"contracts/Bank.sol\":2584:2618  deposits[token][msg.sender].amount */\n      0x01\n      add\n      0x00\n        /* \"contracts/Bank.sol\":2584:2628  deposits[token][msg.sender].amount += amount */\n      dup3\n      dup3\n      sload\n      tag_103\n      swap2\n      swap1\n      tag_84\n      jump\t// in\n    tag_103:\n      swap3\n      pop\n      pop\n      dup2\n      swap1\n      sstore\n      pop\n        /* \"contracts/Bank.sol\":2151:2640  if (token == address(0)) {... */\n    tag_88:\n        /* \"contracts/Bank.sol\":2677:2682  token */\n      dup2\n        /* \"contracts/Bank.sol\":2655:2691  Deposited(msg.sender, token, amount) */\n      0xffffffffffffffffffffffffffffffffffffffff\n      and\n        /* \"contracts/Bank.sol\":2665:2675  msg.sender */\n      caller\n        /* \"contracts/Bank.sol\":2655:2691  Deposited(msg.sender, token, amount) */\n      0xffffffffffffffffffffffffffffffffffffffff\n      and\n      0x8752a472e571a816aea92eec8dae9baf628e840f4929fbcc2d155e6233ff68a7\n        /* \"contracts/Bank.sol\":2684:2690  amount */\n      dup4\n        /* \"contracts/Bank.sol\":2655:2691  Deposited(msg.sender, token, amount) */\n      mload(0x40)\n      tag_104\n      swap2\n      swap1\n      tag_72\n      jump\t// in\n    tag_104:\n      mload(0x40)\n      dup1\n      swap2\n      sub\n      swap1\n      log3\n        /* \"contracts/Bank.sol\":2075:2699  function deposit(address token, uint256 amount) external payable {... */\n      pop\n      pop\n      jump\t// out\n        /* \"contracts/Bank.sol\":251:282  address public immutable tokenB */\n    tag_38:\n      immutable(\"0xddf732f49edf4f39000cbbb8d0940c0999195c9b1b0aec524c1c4b4adca5a581\")\n      dup2\n      jump\t// out\n        /* \"@openzeppelin/contracts/access/Ownable.sol\":2293:2394  function renounceOwnership() public virtual onlyOwner {... */\n    tag_42:\n        /* \"@openzeppelin/contracts/access/Ownable.sol\":1531:1544  _checkOwner() */\n      tag_106\n        /* \"@openzeppelin/contracts/access/Ownable.sol\":1531:1542  _checkOwner */\n      tag_107\n        /* \"@openzeppelin/contracts/access/Ownable.sol\":1531:1544  _checkOwner() */\n      jump\t// in\n    tag_106:\n        /* \"@openzeppelin/contracts/access/Ownable.sol\":2357:2387  _transferOwnership(address(0)) */\n      tag_109\n        /* \"@openzeppelin/contracts/access/Ownable.sol\":2384:2385  0 */\n      0x00\n        /* \"@openzeppelin/contracts/access/Ownable.sol\":2357:2375  _transferOwnership */\n      tag_110\n        /* \"@openzeppelin/contracts/access/Ownable.sol\":2357:2387  _transferOwnership(address(0)) */\n      jump\t// in\n    tag_109:\n        /* \"@openzeppelin/contracts/access/Ownable.sol\":2293:2394  function renounceOwnership() public virtual onlyOwner {... */\n      jump\t// out\n        /* \"contracts/Bank.sol\":3828:4309  function transferETH(address payable _to, uint256 _amount) external payable {... */\n    tag_46:\n        /* \"contracts/Bank.sol\":3938:3939  0 */\n      0x00\n        /* \"contracts/Bank.sol\":3923:3940  _to != address(0) */\n      0xffffffffffffffffffffffffffffffffffffffff\n      and\n        /* \"contracts/Bank.sol\":3923:3926  _to */\n      dup3\n        /* \"contracts/Bank.sol\":3923:3940  _to != address(0) */\n      0xffffffffffffffffffffffffffffffffffffffff\n      and\n      sub\n        /* \"contracts/Bank.sol\":3915:3960  require(_to != address(0), \"Invalid address\") */\n      tag_112\n      jumpi\n      mload(0x40)\n      0x08c379a000000000000000000000000000000000000000000000000000000000\n      dup2\n      mstore\n      0x04\n      add\n      tag_113\n      swap1\n      tag_114\n      jump\t// in\n    tag_113:\n      mload(0x40)\n      dup1\n      swap2\n      sub\n      swap1\n      revert\n    tag_112:\n        /* \"contracts/Bank.sol\":3990:3991  0 */\n      0x00\n        /* \"contracts/Bank.sol\":3980:3987  _amount */\n      dup2\n        /* \"contracts/Bank.sol\":3980:3991  _amount > 0 */\n      gt\n        /* \"contracts/Bank.sol\":3972:4025  require(_amount > 0, \"Amount must be greater than 0\") */\n      tag_115\n      jumpi\n      mload(0x40)\n      0x08c379a000000000000000000000000000000000000000000000000000000000\n      dup2\n      mstore\n      0x04\n      add\n      tag_116\n      swap1\n      tag_117\n      jump\t// in\n    tag_116:\n      mload(0x40)\n      dup1\n      swap2\n      sub\n      swap1\n      revert\n    tag_115:\n        /* \"contracts/Bank.sol\":4090:4097  1 ether */\n      0x0de0b6b3a7640000\n        /* \"contracts/Bank.sol\":4080:4087  _amount */\n      dup2\n        /* \"contracts/Bank.sol\":4080:4097  _amount * 1 ether */\n      tag_118\n      swap2\n      swap1\n      tag_119\n      jump\t// in\n    tag_118:\n        /* \"contracts/Bank.sol\":4045:4057  eth_deposits */\n      0x02\n        /* \"contracts/Bank.sol\":4045:4069  eth_deposits[msg.sender] */\n      0x00\n        /* \"contracts/Bank.sol\":4058:4068  msg.sender */\n      caller\n        /* \"contracts/Bank.sol\":4045:4069  eth_deposits[msg.sender] */\n      0xffffffffffffffffffffffffffffffffffffffff\n      and\n      0xffffffffffffffffffffffffffffffffffffffff\n      and\n      dup2\n      mstore\n      0x20\n      add\n      swap1\n      dup2\n      mstore\n      0x20\n      add\n      0x00\n      keccak256\n        /* \"contracts/Bank.sol\":4045:4076  eth_deposits[msg.sender].amount */\n      0x01\n      add\n      sload\n        /* \"contracts/Bank.sol\":4045:4097  eth_deposits[msg.sender].amount >= _amount * 1 ether */\n      lt\n      iszero\n        /* \"contracts/Bank.sol\":4037:4122  require(eth_deposits[msg.sender].amount >= _amount * 1 ether, \"Insufficient balance\") */\n      tag_120\n      jumpi\n      mload(0x40)\n      0x08c379a000000000000000000000000000000000000000000000000000000000\n      dup2\n      mstore\n      0x04\n      add\n      tag_121\n      swap1\n      tag_122\n      jump\t// in\n    tag_121:\n      mload(0x40)\n      dup1\n      swap2\n      sub\n      swap1\n      revert\n    tag_120:\n        /* \"contracts/Bank.sol\":4180:4187  1 ether */\n      0x0de0b6b3a7640000\n        /* \"contracts/Bank.sol\":4170:4177  _amount */\n      dup2\n        /* \"contracts/Bank.sol\":4170:4187  _amount * 1 ether */\n      tag_123\n      swap2\n      swap1\n      tag_119\n      jump\t// in\n    tag_123:\n        /* \"contracts/Bank.sol\":4135:4147  eth_deposits */\n      0x02\n        /* \"contracts/Bank.sol\":4135:4159  eth_deposits[msg.sender] */\n      0x00\n        /* \"contracts/Bank.sol\":4148:4158  msg.sender */\n      caller\n        /* \"contracts/Bank.sol\":4135:4159  eth_deposits[msg.sender] */\n      0xffffffffffffffffffffffffffffffffffffffff\n      and\n      0xffffffffffffffffffffffffffffffffffffffff\n      and\n      dup2\n      mstore\n      0x20\n      add\n      swap1\n      dup2\n      mstore\n      0x20\n      add\n      0x00\n      keccak256\n        /* \"contracts/Bank.sol\":4135:4166  eth_deposits[msg.sender].amount */\n      0x01\n      add\n      0x00\n        /* \"contracts/Bank.sol\":4135:4187  eth_deposits[msg.sender].amount -= _amount * 1 ether */\n      dup3\n      dup3\n      sload\n      tag_124\n      swap2\n      swap1\n      tag_125\n      jump\t// in\n    tag_124:\n      swap3\n      pop\n      pop\n      dup2\n      swap1\n      sstore\n      pop\n        /* \"contracts/Bank.sol\":4236:4243  1 ether */\n      0x0de0b6b3a7640000\n        /* \"contracts/Bank.sol\":4226:4233  _amount */\n      dup2\n        /* \"contracts/Bank.sol\":4226:4243  _amount * 1 ether */\n      tag_126\n      swap2\n      swap1\n      tag_119\n      jump\t// in\n    tag_126:\n        /* \"contracts/Bank.sol\":4198:4210  eth_deposits */\n      0x02\n        /* \"contracts/Bank.sol\":4198:4215  eth_deposits[_to] */\n      0x00\n        /* \"contracts/Bank.sol\":4211:4214  _to */\n      dup5\n        /* \"contracts/Bank.sol\":4198:4215  eth_deposits[_to] */\n      0xffffffffffffffffffffffffffffffffffffffff\n      and\n      0xffffffffffffffffffffffffffffffffffffffff\n      and\n      dup2\n      mstore\n      0x20\n      add\n      swap1\n      dup2\n      mstore\n      0x20\n      add\n      0x00\n      keccak256\n        /* \"contracts/Bank.sol\":4198:4222  eth_deposits[_to].amount */\n      0x01\n      add\n      0x00\n        /* \"contracts/Bank.sol\":4198:4243  eth_deposits[_to].amount += _amount * 1 ether */\n      dup3\n      dup3\n      sload\n      tag_127\n      swap2\n      swap1\n      tag_84\n      jump\t// in\n    tag_127:\n      swap3\n      pop\n      pop\n      dup2\n      swap1\n      sstore\n      pop\n        /* \"contracts/Bank.sol\":4288:4291  _to */\n      dup2\n        /* \"contracts/Bank.sol\":4261:4301  ETHTransferred(msg.sender, _to, _amount) */\n      0xffffffffffffffffffffffffffffffffffffffff\n      and\n        /* \"contracts/Bank.sol\":4276:4286  msg.sender */\n      caller\n        /* \"contracts/Bank.sol\":4261:4301  ETHTransferred(msg.sender, _to, _amount) */\n      0xffffffffffffffffffffffffffffffffffffffff\n      and\n      0x8dec4e7cfc87eced5c05eafa206697292193ede25a52287bf5fc6cbb0fd84cfa\n        /* \"contracts/Bank.sol\":4293:4300  _amount */\n      dup4\n        /* \"contracts/Bank.sol\":4261:4301  ETHTransferred(msg.sender, _to, _amount) */\n      mload(0x40)\n      tag_128\n      swap2\n      swap1\n      tag_72\n      jump\t// in\n    tag_128:\n      mload(0x40)\n      dup1\n      swap2\n      sub\n      swap1\n      log3\n        /* \"contracts/Bank.sol\":3828:4309  function transferETH(address payable _to, uint256 _amount) external payable {... */\n      pop\n      pop\n      jump\t// out\n        /* \"@openzeppelin/contracts/access/Ownable.sol\":1638:1723  function owner() public view virtual returns (address) {... */\n    tag_49:\n        /* \"@openzeppelin/contracts/access/Ownable.sol\":1684:1691  address */\n      0x00\n        /* \"@openzeppelin/contracts/access/Ownable.sol\":1710:1716  _owner */\n      dup1\n      0x00\n      swap1\n      sload\n      swap1\n      0x0100\n      exp\n      swap1\n      div\n      0xffffffffffffffffffffffffffffffffffffffff\n      and\n        /* \"@openzeppelin/contracts/access/Ownable.sol\":1703:1716  return _owner */\n      swap1\n      pop\n        /* \"@openzeppelin/contracts/access/Ownable.sol\":1638:1723  function owner() public view virtual returns (address) {... */\n      swap1\n      jump\t// out\n        /* \"contracts/Bank.sol\":695:758  mapping(address => mapping(address => Deposit)) public deposits */\n    tag_55:\n      mstore(0x20, 0x01)\n      dup2\n      0x00\n      mstore\n      mstore(0x20, keccak256(0x00, 0x40))\n      dup1\n      0x00\n      mstore\n      keccak256(0x00, 0x40)\n      0x00\n      swap2\n      pop\n      swap2\n      pop\n      pop\n      dup1\n      0x00\n      add\n      sload\n      swap1\n      dup1\n      0x01\n      add\n      sload\n      swap1\n      pop\n      dup3\n      jump\t// out\n        /* \"contracts/Bank.sol\":924:963  mapping(address => Loan[]) public loans */\n    tag_60:\n      mstore(0x20, 0x03)\n      dup2\n      0x00\n      mstore\n      keccak256(0x00, 0x40)\n      dup2\n      dup2\n      sload\n      dup2\n      lt\n      tag_130\n      jumpi\n      0x00\n      dup1\n      revert\n    tag_130:\n      swap1\n      0x00\n      mstore\n      keccak256(0x00, 0x20)\n      swap1\n      0x06\n      mul\n      add\n      0x00\n      swap2\n      pop\n      swap2\n      pop\n      pop\n      dup1\n      0x00\n      add\n      0x00\n      swap1\n      sload\n      swap1\n      0x0100\n      exp\n      swap1\n      div\n      0xffffffffffffffffffffffffffffffffffffffff\n      and\n      swap1\n      dup1\n      0x01\n      add\n      0x00\n      swap1\n      sload\n      swap1\n      0x0100\n      exp\n      swap1\n      div\n      0xffffffffffffffffffffffffffffffffffffffff\n      and\n      swap1\n      dup1\n      0x02\n      add\n      sload\n      swap1\n      dup1\n      0x03\n      add\n      0x00\n      swap1\n      sload\n      swap1\n      0x0100\n      exp\n      swap1\n      div\n      0xffffffffffffffffffffffffffffffffffffffff\n      and\n      swap1\n      dup1\n      0x04\n      add\n      sload\n      swap1\n      dup1\n      0x05\n      add\n      0x00\n      swap1\n      sload\n      swap1\n      0x0100\n      exp\n      swap1\n      div\n      0xff\n      and\n      swap1\n      pop\n      dup7\n      jump\t// out\n        /* \"contracts/Bank.sol\":289:320  address public immutable tokenC */\n    tag_65:\n      immutable(\"0x7d94b1fd5befe75fac04677148728067a5c7750c4535d59cf8d692301dae078c\")\n      dup2\n      jump\t// out\n        /* \"contracts/Bank.sol\":4353:4600  function getDeposit(address token) external view returns (uint256) {... */\n    tag_70:\n        /* \"contracts/Bank.sol\":4411:4418  uint256 */\n      0x00\n        /* \"contracts/Bank.sol\":4452:4453  0 */\n      dup1\n        /* \"contracts/Bank.sol\":4435:4454  token == address(0) */\n      0xffffffffffffffffffffffffffffffffffffffff\n      and\n        /* \"contracts/Bank.sol\":4435:4440  token */\n      dup3\n        /* \"contracts/Bank.sol\":4435:4454  token == address(0) */\n      0xffffffffffffffffffffffffffffffffffffffff\n      and\n      sub\n        /* \"contracts/Bank.sol\":4431:4531  if (token == address(0)) {... */\n      tag_133\n      jumpi\n        /* \"contracts/Bank.sol\":4512:4519  1 ether */\n      0x0de0b6b3a7640000\n        /* \"contracts/Bank.sol\":4478:4490  eth_deposits */\n      0x02\n        /* \"contracts/Bank.sol\":4478:4502  eth_deposits[msg.sender] */\n      0x00\n        /* \"contracts/Bank.sol\":4491:4501  msg.sender */\n      caller\n        /* \"contracts/Bank.sol\":4478:4502  eth_deposits[msg.sender] */\n      0xffffffffffffffffffffffffffffffffffffffff\n      and\n      0xffffffffffffffffffffffffffffffffffffffff\n      and\n      dup2\n      mstore\n      0x20\n      add\n      swap1\n      dup2\n      mstore\n      0x20\n      add\n      0x00\n      keccak256\n        /* \"contracts/Bank.sol\":4478:4509  eth_deposits[msg.sender].amount */\n      0x01\n      add\n      sload\n        /* \"contracts/Bank.sol\":4478:4519  eth_deposits[msg.sender].amount / 1 ether */\n      tag_134\n      swap2\n      swap1\n      tag_135\n      jump\t// in\n    tag_134:\n        /* \"contracts/Bank.sol\":4471:4519  return eth_deposits[msg.sender].amount / 1 ether */\n      swap1\n      pop\n      jump(tag_132)\n        /* \"contracts/Bank.sol\":4431:4531  if (token == address(0)) {... */\n    tag_133:\n        /* \"contracts/Bank.sol\":4585:4592  1 ether */\n      0x0de0b6b3a7640000\n        /* \"contracts/Bank.sol\":4548:4556  deposits */\n      0x01\n        /* \"contracts/Bank.sol\":4548:4563  deposits[token] */\n      0x00\n        /* \"contracts/Bank.sol\":4557:4562  token */\n      dup5\n        /* \"contracts/Bank.sol\":4548:4563  deposits[token] */\n      0xffffffffffffffffffffffffffffffffffffffff\n      and\n      0xffffffffffffffffffffffffffffffffffffffff\n      and\n      dup2\n      mstore\n      0x20\n      add\n      swap1\n      dup2\n      mstore\n      0x20\n      add\n      0x00\n      keccak256\n        /* \"contracts/Bank.sol\":4548:4575  deposits[token][msg.sender] */\n      0x00\n        /* \"contracts/Bank.sol\":4564:4574  msg.sender */\n      caller\n        /* \"contracts/Bank.sol\":4548:4575  deposits[token][msg.sender] */\n      0xffffffffffffffffffffffffffffffffffffffff\n      and\n      0xffffffffffffffffffffffffffffffffffffffff\n      and\n      dup2\n      mstore\n      0x20\n      add\n      swap1\n      dup2\n      mstore\n      0x20\n      add\n      0x00\n      keccak256\n        /* \"contracts/Bank.sol\":4548:4582  deposits[token][msg.sender].amount */\n      0x01\n      add\n      sload\n        /* \"contracts/Bank.sol\":4548:4592  deposits[token][msg.sender].amount / 1 ether */\n      tag_136\n      swap2\n      swap1\n      tag_135\n      jump\t// in\n    tag_136:\n        /* \"contracts/Bank.sol\":4541:4592  return deposits[token][msg.sender].amount / 1 ether */\n      swap1\n      pop\n        /* \"contracts/Bank.sol\":4353:4600  function getDeposit(address token) external view returns (uint256) {... */\n    tag_132:\n      swap2\n      swap1\n      pop\n      jump\t// out\n        /* \"@openzeppelin/contracts/access/Ownable.sol\":2543:2758  function transferOwnership(address newOwner) public virtual onlyOwner {... */\n    tag_76:\n        /* \"@openzeppelin/contracts/access/Ownable.sol\":1531:1544  _checkOwner() */\n      tag_138\n        /* \"@openzeppelin/contracts/access/Ownable.sol\":1531:1542  _checkOwner */\n      tag_107\n        /* \"@openzeppelin/contracts/access/Ownable.sol\":1531:1544  _checkOwner() */\n      jump\t// in\n    tag_138:\n        /* \"@openzeppelin/contracts/access/Ownable.sol\":2647:2648  0 */\n      0x00\n        /* \"@openzeppelin/contracts/access/Ownable.sol\":2627:2649  newOwner == address(0) */\n      0xffffffffffffffffffffffffffffffffffffffff\n      and\n        /* \"@openzeppelin/contracts/access/Ownable.sol\":2627:2635  newOwner */\n      dup2\n        /* \"@openzeppelin/contracts/access/Ownable.sol\":2627:2649  newOwner == address(0) */\n      0xffffffffffffffffffffffffffffffffffffffff\n      and\n      sub\n        /* \"@openzeppelin/contracts/access/Ownable.sol\":2623:2714  if (newOwner == address(0)) {... */\n      tag_140\n      jumpi\n        /* \"@openzeppelin/contracts/access/Ownable.sol\":2700:2701  0 */\n      0x00\n        /* \"@openzeppelin/contracts/access/Ownable.sol\":2672:2703  OwnableInvalidOwner(address(0)) */\n      mload(0x40)\n      0x1e4fbdf700000000000000000000000000000000000000000000000000000000\n      dup2\n      mstore\n      0x04\n      add\n      tag_141\n      swap2\n      swap1\n      tag_24\n      jump\t// in\n    tag_141:\n      mload(0x40)\n      dup1\n      swap2\n      sub\n      swap1\n      revert\n        /* \"@openzeppelin/contracts/access/Ownable.sol\":2623:2714  if (newOwner == address(0)) {... */\n    tag_140:\n        /* \"@openzeppelin/contracts/access/Ownable.sol\":2723:2751  _transferOwnership(newOwner) */\n      tag_142\n        /* \"@openzeppelin/contracts/access/Ownable.sol\":2742:2750  newOwner */\n      dup2\n        /* \"@openzeppelin/contracts/access/Ownable.sol\":2723:2741  _transferOwnership */\n      tag_110\n        /* \"@openzeppelin/contracts/access/Ownable.sol\":2723:2751  _transferOwnership(newOwner) */\n      jump\t// in\n    tag_142:\n        /* \"@openzeppelin/contracts/access/Ownable.sol\":2543:2758  function transferOwnership(address newOwner) public virtual onlyOwner {... */\n      pop\n      jump\t// out\n        /* \"contracts/Bank.sol\":2745:3278  function withdraw(address token, uint256 amount) external {... */\n    tag_80:\n        /* \"contracts/Bank.sol\":2870:2876  amount */\n      dup1\n        /* \"contracts/Bank.sol\":2859:2866  1 ether */\n      0x0de0b6b3a7640000\n        /* \"contracts/Bank.sol\":2822:2830  deposits */\n      0x01\n        /* \"contracts/Bank.sol\":2822:2837  deposits[token] */\n      0x00\n        /* \"contracts/Bank.sol\":2831:2836  token */\n      dup6\n        /* \"contracts/Bank.sol\":2822:2837  deposits[token] */\n      0xffffffffffffffffffffffffffffffffffffffff\n      and\n      0xffffffffffffffffffffffffffffffffffffffff\n      and\n      dup2\n      mstore\n      0x20\n      add\n      swap1\n      dup2\n      mstore\n      0x20\n      add\n      0x00\n      keccak256\n        /* \"contracts/Bank.sol\":2822:2849  deposits[token][msg.sender] */\n      0x00\n        /* \"contracts/Bank.sol\":2838:2848  msg.sender */\n      caller\n        /* \"contracts/Bank.sol\":2822:2849  deposits[token][msg.sender] */\n      0xffffffffffffffffffffffffffffffffffffffff\n      and\n      0xffffffffffffffffffffffffffffffffffffffff\n      and\n      dup2\n      mstore\n      0x20\n      add\n      swap1\n      dup2\n      mstore\n      0x20\n      add\n      0x00\n      keccak256\n        /* \"contracts/Bank.sol\":2822:2856  deposits[token][msg.sender].amount */\n      0x01\n      add\n      sload\n        /* \"contracts/Bank.sol\":2822:2866  deposits[token][msg.sender].amount / 1 ether */\n      tag_144\n      swap2\n      swap1\n      tag_135\n      jump\t// in\n    tag_144:\n        /* \"contracts/Bank.sol\":2822:2876  deposits[token][msg.sender].amount / 1 ether >= amount */\n      lt\n      iszero\n        /* \"contracts/Bank.sol\":2814:2901  require(deposits[token][msg.sender].amount / 1 ether >= amount, \"Insufficient balance\") */\n      tag_145\n      jumpi\n      mload(0x40)\n      0x08c379a000000000000000000000000000000000000000000000000000000000\n      dup2\n      mstore\n      0x04\n      add\n      tag_146\n      swap1\n      tag_122\n      jump\t// in\n    tag_146:\n      mload(0x40)\n      dup1\n      swap2\n      sub\n      swap1\n      revert\n    tag_145:\n        /* \"contracts/Bank.sol\":2961:2968  1 ether */\n      0x0de0b6b3a7640000\n        /* \"contracts/Bank.sol\":2952:2958  amount */\n      dup2\n        /* \"contracts/Bank.sol\":2952:2968  amount * 1 ether */\n      tag_147\n      swap2\n      swap1\n      tag_119\n      jump\t// in\n    tag_147:\n        /* \"contracts/Bank.sol\":2914:2922  deposits */\n      0x01\n        /* \"contracts/Bank.sol\":2914:2929  deposits[token] */\n      0x00\n        /* \"contracts/Bank.sol\":2923:2928  token */\n      dup5\n        /* \"contracts/Bank.sol\":2914:2929  deposits[token] */\n      0xffffffffffffffffffffffffffffffffffffffff\n      and\n      0xffffffffffffffffffffffffffffffffffffffff\n      and\n      dup2\n      mstore\n      0x20\n      add\n      swap1\n      dup2\n      mstore\n      0x20\n      add\n      0x00\n      keccak256\n        /* \"contracts/Bank.sol\":2914:2941  deposits[token][msg.sender] */\n      0x00\n        /* \"contracts/Bank.sol\":2930:2940  msg.sender */\n      caller\n        /* \"contracts/Bank.sol\":2914:2941  deposits[token][msg.sender] */\n      0xffffffffffffffffffffffffffffffffffffffff\n      and\n      0xffffffffffffffffffffffffffffffffffffffff\n      and\n      dup2\n      mstore\n      0x20\n      add\n      swap1\n      dup2\n      mstore\n      0x20\n      add\n      0x00\n      keccak256\n        /* \"contracts/Bank.sol\":2914:2948  deposits[token][msg.sender].amount */\n      0x01\n      add\n      0x00\n        /* \"contracts/Bank.sol\":2914:2968  deposits[token][msg.sender].amount -= amount * 1 ether */\n      dup3\n      dup3\n      sload\n      tag_148\n      swap2\n      swap1\n      tag_125\n      jump\t// in\n    tag_148:\n      swap3\n      pop\n      pop\n      dup2\n      swap1\n      sstore\n      pop\n        /* \"contracts/Bank.sol\":3014:3034  getCurrentTimeView() */\n      tag_149\n        /* \"contracts/Bank.sol\":3014:3032  getCurrentTimeView */\n      tag_86\n        /* \"contracts/Bank.sol\":3014:3034  getCurrentTimeView() */\n      jump\t// in\n    tag_149:\n        /* \"contracts/Bank.sol\":2979:2987  deposits */\n      0x01\n        /* \"contracts/Bank.sol\":2979:2994  deposits[token] */\n      0x00\n        /* \"contracts/Bank.sol\":2988:2993  token */\n      dup5\n        /* \"contracts/Bank.sol\":2979:2994  deposits[token] */\n      0xffffffffffffffffffffffffffffffffffffffff\n      and\n      0xffffffffffffffffffffffffffffffffffffffff\n      and\n      dup2\n      mstore\n      0x20\n      add\n      swap1\n      dup2\n      mstore\n      0x20\n      add\n      0x00\n      keccak256\n        /* \"contracts/Bank.sol\":2979:3006  deposits[token][msg.sender] */\n      0x00\n        /* \"contracts/Bank.sol\":2995:3005  msg.sender */\n      caller\n        /* \"contracts/Bank.sol\":2979:3006  deposits[token][msg.sender] */\n      0xffffffffffffffffffffffffffffffffffffffff\n      and\n      0xffffffffffffffffffffffffffffffffffffffff\n      and\n      dup2\n      mstore\n      0x20\n      add\n      swap1\n      dup2\n      mstore\n      0x20\n      add\n      0x00\n      keccak256\n        /* \"contracts/Bank.sol\":2979:3011  deposits[token][msg.sender].time */\n      0x00\n      add\n        /* \"contracts/Bank.sol\":2979:3034  deposits[token][msg.sender].time = getCurrentTimeView() */\n      dup2\n      swap1\n      sstore\n      pop\n        /* \"contracts/Bank.sol\":3066:3067  0 */\n      0x00\n        /* \"contracts/Bank.sol\":3049:3068  token == address(0) */\n      0xffffffffffffffffffffffffffffffffffffffff\n      and\n        /* \"contracts/Bank.sol\":3049:3054  token */\n      dup3\n        /* \"contracts/Bank.sol\":3049:3068  token == address(0) */\n      0xffffffffffffffffffffffffffffffffffffffff\n      and\n      sub\n        /* \"contracts/Bank.sol\":3045:3219  if (token == address(0)) {... */\n      tag_150\n      jumpi\n        /* \"contracts/Bank.sol\":3085:3104  withdrawETH(amount) */\n      tag_151\n        /* \"contracts/Bank.sol\":3097:3103  amount */\n      dup2\n        /* \"contracts/Bank.sol\":3085:3096  withdrawETH */\n      tag_152\n        /* \"contracts/Bank.sol\":3085:3104  withdrawETH(amount) */\n      jump\t// in\n    tag_151:\n        /* \"contracts/Bank.sol\":3045:3219  if (token == address(0)) {... */\n      jump(tag_153)\n    tag_150:\n        /* \"contracts/Bank.sol\":3152:3157  token */\n      dup2\n        /* \"contracts/Bank.sol\":3145:3167  IERC20(token).transfer */\n      0xffffffffffffffffffffffffffffffffffffffff\n      and\n      0xa9059cbb\n        /* \"contracts/Bank.sol\":3168:3178  msg.sender */\n      caller\n        /* \"contracts/Bank.sol\":3180:3186  amount */\n      dup4\n        /* \"contracts/Bank.sol\":3145:3187  IERC20(token).transfer(msg.sender, amount) */\n      mload(0x40)\n      dup4\n      0xffffffff\n      and\n      0xe0\n      shl\n      dup2\n      mstore\n      0x04\n      add\n      tag_154\n      swap3\n      swap2\n      swap1\n      tag_155\n      jump\t// in\n    tag_154:\n      0x20\n      mload(0x40)\n      dup1\n      dup4\n      sub\n      dup2\n      0x00\n      dup8\n      gas\n      call\n      iszero\n      dup1\n      iszero\n      tag_157\n      jumpi\n      returndatasize\n      0x00\n      dup1\n      returndatacopy\n      revert(0x00, returndatasize)\n    tag_157:\n      pop\n      pop\n      pop\n      pop\n      mload(0x40)\n      returndatasize\n      not(0x1f)\n      0x1f\n      dup3\n      add\n      and\n      dup3\n      add\n      dup1\n      0x40\n      mstore\n      pop\n      dup2\n      add\n      swap1\n      tag_158\n      swap2\n      swap1\n      tag_99\n      jump\t// in\n    tag_158:\n        /* \"contracts/Bank.sol\":3137:3207  require(IERC20(token).transfer(msg.sender, amount), \"Transfer failed\") */\n      tag_159\n      jumpi\n      mload(0x40)\n      0x08c379a000000000000000000000000000000000000000000000000000000000\n      dup2\n      mstore\n      0x04\n      add\n      tag_160\n      swap1\n      tag_102\n      jump\t// in\n    tag_160:\n      mload(0x40)\n      dup1\n      swap2\n      sub\n      swap1\n      revert\n    tag_159:\n        /* \"contracts/Bank.sol\":3045:3219  if (token == address(0)) {... */\n    tag_153:\n        /* \"contracts/Bank.sol\":3256:3261  token */\n      dup2\n        /* \"contracts/Bank.sol\":3234:3270  Withdrawn(msg.sender, token, amount) */\n      0xffffffffffffffffffffffffffffffffffffffff\n      and\n        /* \"contracts/Bank.sol\":3244:3254  msg.sender */\n      caller\n        /* \"contracts/Bank.sol\":3234:3270  Withdrawn(msg.sender, token, amount) */\n      0xffffffffffffffffffffffffffffffffffffffff\n      and\n      0xd1c19fbcd4551a5edfb66d43d2e337c04837afda3482b42bdf569a8fccdae5fb\n        /* \"contracts/Bank.sol\":3263:3269  amount */\n      dup4\n        /* \"contracts/Bank.sol\":3234:3270  Withdrawn(msg.sender, token, amount) */\n      mload(0x40)\n      tag_161\n      swap2\n      swap1\n      tag_72\n      jump\t// in\n    tag_161:\n      mload(0x40)\n      dup1\n      swap2\n      sub\n      swap1\n      log3\n        /* \"contracts/Bank.sol\":2745:3278  function withdraw(address token, uint256 amount) external {... */\n      pop\n      pop\n      jump\t// out\n        /* \"contracts/Bank.sol\":1673:1776  function getCurrentTimeView() internal view returns (uint256) {... */\n    tag_86:\n        /* \"contracts/Bank.sol\":1726:1733  uint256 */\n      0x00\n        /* \"contracts/Bank.sol\":1753:1768  block.timestamp */\n      timestamp\n        /* \"contracts/Bank.sol\":1746:1768  return block.timestamp */\n      swap1\n      pop\n        /* \"contracts/Bank.sol\":1673:1776  function getCurrentTimeView() internal view returns (uint256) {... */\n      swap1\n      jump\t// out\n        /* \"@openzeppelin/contracts/access/Ownable.sol\":1796:1958  function _checkOwner() internal view virtual {... */\n    tag_107:\n        /* \"@openzeppelin/contracts/access/Ownable.sol\":1866:1878  _msgSender() */\n      tag_164\n        /* \"@openzeppelin/contracts/access/Ownable.sol\":1866:1876  _msgSender */\n      tag_165\n        /* \"@openzeppelin/contracts/access/Ownable.sol\":1866:1878  _msgSender() */\n      jump\t// in\n    tag_164:\n        /* \"@openzeppelin/contracts/access/Ownable.sol\":1855:1878  owner() != _msgSender() */\n      0xffffffffffffffffffffffffffffffffffffffff\n      and\n        /* \"@openzeppelin/contracts/access/Ownable.sol\":1855:1862  owner() */\n      tag_166\n        /* \"@openzeppelin/contracts/access/Ownable.sol\":1855:1860  owner */\n      tag_49\n        /* \"@openzeppelin/contracts/access/Ownable.sol\":1855:1862  owner() */\n      jump\t// in\n    tag_166:\n        /* \"@openzeppelin/contracts/access/Ownable.sol\":1855:1878  owner() != _msgSender() */\n      0xffffffffffffffffffffffffffffffffffffffff\n      and\n      eq\n        /* \"@openzeppelin/contracts/access/Ownable.sol\":1851:1952  if (owner() != _msgSender()) {... */\n      tag_167\n      jumpi\n        /* \"@openzeppelin/contracts/access/Ownable.sol\":1928:1940  _msgSender() */\n      tag_168\n        /* \"@openzeppelin/contracts/access/Ownable.sol\":1928:1938  _msgSender */\n      tag_165\n        /* \"@openzeppelin/contracts/access/Ownable.sol\":1928:1940  _msgSender() */\n      jump\t// in\n    tag_168:\n        /* \"@openzeppelin/contracts/access/Ownable.sol\":1901:1941  OwnableUnauthorizedAccount(_msgSender()) */\n      mload(0x40)\n      0x118cdaa700000000000000000000000000000000000000000000000000000000\n      dup2\n      mstore\n      0x04\n      add\n      tag_169\n      swap2\n      swap1\n      tag_24\n      jump\t// in\n    tag_169:\n      mload(0x40)\n      dup1\n      swap2\n      sub\n      swap1\n      revert\n        /* \"@openzeppelin/contracts/access/Ownable.sol\":1851:1952  if (owner() != _msgSender()) {... */\n    tag_167:\n        /* \"@openzeppelin/contracts/access/Ownable.sol\":1796:1958  function _checkOwner() internal view virtual {... */\n      jump\t// out\n        /* \"@openzeppelin/contracts/access/Ownable.sol\":2912:3099  function _transferOwnership(address newOwner) internal virtual {... */\n    tag_110:\n        /* \"@openzeppelin/contracts/access/Ownable.sol\":2985:3001  address oldOwner */\n      0x00\n        /* \"@openzeppelin/contracts/access/Ownable.sol\":3004:3010  _owner */\n      dup1\n      0x00\n      swap1\n      sload\n      swap1\n      0x0100\n      exp\n      swap1\n      div\n      0xffffffffffffffffffffffffffffffffffffffff\n      and\n        /* \"@openzeppelin/contracts/access/Ownable.sol\":2985:3010  address oldOwner = _owner */\n      swap1\n      pop\n        /* \"@openzeppelin/contracts/access/Ownable.sol\":3029:3037  newOwner */\n      dup2\n        /* \"@openzeppelin/contracts/access/Ownable.sol\":3020:3026  _owner */\n      0x00\n      dup1\n        /* \"@openzeppelin/contracts/access/Ownable.sol\":3020:3037  _owner = newOwner */\n      0x0100\n      exp\n      dup2\n      sload\n      dup2\n      0xffffffffffffffffffffffffffffffffffffffff\n      mul\n      not\n      and\n      swap1\n      dup4\n      0xffffffffffffffffffffffffffffffffffffffff\n      and\n      mul\n      or\n      swap1\n      sstore\n      pop\n        /* \"@openzeppelin/contracts/access/Ownable.sol\":3083:3091  newOwner */\n      dup2\n        /* \"@openzeppelin/contracts/access/Ownable.sol\":3052:3092  OwnershipTransferred(oldOwner, newOwner) */\n      0xffffffffffffffffffffffffffffffffffffffff\n      and\n        /* \"@openzeppelin/contracts/access/Ownable.sol\":3073:3081  oldOwner */\n      dup2\n        /* \"@openzeppelin/contracts/access/Ownable.sol\":3052:3092  OwnershipTransferred(oldOwner, newOwner) */\n      0xffffffffffffffffffffffffffffffffffffffff\n      and\n      0x8be0079c531659141344cd1fd0a4f28419497f9722a3daafe3b4186f6b6457e0\n      mload(0x40)\n      mload(0x40)\n      dup1\n      swap2\n      sub\n      swap1\n      log3\n        /* \"@openzeppelin/contracts/access/Ownable.sol\":2975:3099  {... */\n      pop\n        /* \"@openzeppelin/contracts/access/Ownable.sol\":2912:3099  function _transferOwnership(address newOwner) internal virtual {... */\n      pop\n      jump\t// out\n        /* \"contracts/Bank.sol\":3286:3820  function withdrawETH(uint256 _amount) internal {... */\n    tag_152:\n        /* \"contracts/Bank.sol\":3362:3363  0 */\n      0x00\n        /* \"contracts/Bank.sol\":3352:3359  _amount */\n      dup2\n        /* \"contracts/Bank.sol\":3352:3363  _amount > 0 */\n      gt\n        /* \"contracts/Bank.sol\":3344:3397  require(_amount > 0, \"Amount must be greater than 0\") */\n      tag_172\n      jumpi\n      mload(0x40)\n      0x08c379a000000000000000000000000000000000000000000000000000000000\n      dup2\n      mstore\n      0x04\n      add\n      tag_173\n      swap1\n      tag_117\n      jump\t// in\n    tag_173:\n      mload(0x40)\n      dup1\n      swap2\n      sub\n      swap1\n      revert\n    tag_172:\n        /* \"contracts/Bank.sol\":3462:3469  _amount */\n      dup1\n        /* \"contracts/Bank.sol\":3451:3458  1 ether */\n      0x0de0b6b3a7640000\n        /* \"contracts/Bank.sol\":3417:3429  eth_deposits */\n      0x02\n        /* \"contracts/Bank.sol\":3417:3441  eth_deposits[msg.sender] */\n      0x00\n        /* \"contracts/Bank.sol\":3430:3440  msg.sender */\n      caller\n        /* \"contracts/Bank.sol\":3417:3441  eth_deposits[msg.sender] */\n      0xffffffffffffffffffffffffffffffffffffffff\n      and\n      0xffffffffffffffffffffffffffffffffffffffff\n      and\n      dup2\n      mstore\n      0x20\n      add\n      swap1\n      dup2\n      mstore\n      0x20\n      add\n      0x00\n      keccak256\n        /* \"contracts/Bank.sol\":3417:3448  eth_deposits[msg.sender].amount */\n      0x01\n      add\n      sload\n        /* \"contracts/Bank.sol\":3417:3458  eth_deposits[msg.sender].amount / 1 ether */\n      tag_174\n      swap2\n      swap1\n      tag_135\n      jump\t// in\n    tag_174:\n        /* \"contracts/Bank.sol\":3417:3469  eth_deposits[msg.sender].amount / 1 ether >= _amount */\n      lt\n      iszero\n        /* \"contracts/Bank.sol\":3409:3494  require(eth_deposits[msg.sender].amount / 1 ether >= _amount, \"Insufficient balance\") */\n      tag_175\n      jumpi\n      mload(0x40)\n      0x08c379a000000000000000000000000000000000000000000000000000000000\n      dup2\n      mstore\n      0x04\n      add\n      tag_176\n      swap1\n      tag_122\n      jump\t// in\n    tag_176:\n      mload(0x40)\n      dup1\n      swap2\n      sub\n      swap1\n      revert\n    tag_175:\n        /* \"contracts/Bank.sol\":3553:3560  1 ether */\n      0x0de0b6b3a7640000\n        /* \"contracts/Bank.sol\":3543:3550  _amount */\n      dup2\n        /* \"contracts/Bank.sol\":3543:3560  _amount * 1 ether */\n      tag_177\n      swap2\n      swap1\n      tag_119\n      jump\t// in\n    tag_177:\n        /* \"contracts/Bank.sol\":3508:3520  eth_deposits */\n      0x02\n        /* \"contracts/Bank.sol\":3508:3532  eth_deposits[msg.sender] */\n      0x00\n        /* \"contracts/Bank.sol\":3521:3531  msg.sender */\n      caller\n        /* \"contracts/Bank.sol\":3508:3532  eth_deposits[msg.sender] */\n      0xffffffffffffffffffffffffffffffffffffffff\n      and\n      0xffffffffffffffffffffffffffffffffffffffff\n      and\n      dup2\n      mstore\n      0x20\n      add\n      swap1\n      dup2\n      mstore\n      0x20\n      add\n      0x00\n      keccak256\n        /* \"contracts/Bank.sol\":3508:3539  eth_deposits[msg.sender].amount */\n      0x01\n      add\n      0x00\n        /* \"contracts/Bank.sol\":3508:3560  eth_deposits[msg.sender].amount -= _amount * 1 ether */\n      dup3\n      dup3\n      sload\n      tag_178\n      swap2\n      swap1\n      tag_125\n      jump\t// in\n    tag_178:\n      swap3\n      pop\n      pop\n      dup2\n      swap1\n      sstore\n      pop\n        /* \"contracts/Bank.sol\":3603:3623  getCurrentTimeView() */\n      tag_179\n        /* \"contracts/Bank.sol\":3603:3621  getCurrentTimeView */\n      tag_86\n        /* \"contracts/Bank.sol\":3603:3623  getCurrentTimeView() */\n      jump\t// in\n    tag_179:\n        /* \"contracts/Bank.sol\":3571:3583  eth_deposits */\n      0x02\n        /* \"contracts/Bank.sol\":3571:3595  eth_deposits[msg.sender] */\n      0x00\n        /* \"contracts/Bank.sol\":3584:3594  msg.sender */\n      caller\n        /* \"contracts/Bank.sol\":3571:3595  eth_deposits[msg.sender] */\n      0xffffffffffffffffffffffffffffffffffffffff\n      and\n      0xffffffffffffffffffffffffffffffffffffffff\n      and\n      dup2\n      mstore\n      0x20\n      add\n      swap1\n      dup2\n      mstore\n      0x20\n      add\n      0x00\n      keccak256\n        /* \"contracts/Bank.sol\":3571:3600  eth_deposits[msg.sender].time */\n      0x00\n      add\n        /* \"contracts/Bank.sol\":3571:3623  eth_deposits[msg.sender].time = getCurrentTimeView() */\n      dup2\n      swap1\n      sstore\n      pop\n        /* \"contracts/Bank.sol\":3637:3649  bool success */\n      0x00\n        /* \"contracts/Bank.sol\":3663:3673  msg.sender */\n      caller\n        /* \"contracts/Bank.sol\":3655:3679  payable(msg.sender).call */\n      0xffffffffffffffffffffffffffffffffffffffff\n      and\n        /* \"contracts/Bank.sol\":3697:3704  1 ether */\n      0x0de0b6b3a7640000\n        /* \"contracts/Bank.sol\":3687:3694  _amount */\n      dup4\n        /* \"contracts/Bank.sol\":3687:3704  _amount * 1 ether */\n      tag_180\n      swap2\n      swap1\n      tag_119\n      jump\t// in\n    tag_180:\n        /* \"contracts/Bank.sol\":3655:3709  payable(msg.sender).call{value: _amount * 1 ether}(\"\") */\n      mload(0x40)\n      tag_181\n      swap1\n      tag_182\n      jump\t// in\n    tag_181:\n      0x00\n      mload(0x40)\n      dup1\n      dup4\n      sub\n      dup2\n      dup6\n      dup8\n      gas\n      call\n      swap3\n      pop\n      pop\n      pop\n      returndatasize\n      dup1\n      0x00\n      dup2\n      eq\n      tag_185\n      jumpi\n      mload(0x40)\n      swap2\n      pop\n      and(add(returndatasize, 0x3f), not(0x1f))\n      dup3\n      add\n      0x40\n      mstore\n      returndatasize\n      dup3\n      mstore\n      returndatasize\n      0x00\n      0x20\n      dup5\n      add\n      returndatacopy\n      jump(tag_184)\n    tag_185:\n      0x60\n      swap2\n      pop\n    tag_184:\n      pop\n        /* \"contracts/Bank.sol\":3636:3709  (bool success, ) = payable(msg.sender).call{value: _amount * 1 ether}(\"\") */\n      pop\n      swap1\n      pop\n        /* \"contracts/Bank.sol\":3728:3735  success */\n      dup1\n        /* \"contracts/Bank.sol\":3720:3761  require(success, \"ETH withdrawal failed\") */\n      tag_186\n      jumpi\n      mload(0x40)\n      0x08c379a000000000000000000000000000000000000000000000000000000000\n      dup2\n      mstore\n      0x04\n      add\n      tag_187\n      swap1\n      tag_188\n      jump\t// in\n    tag_187:\n      mload(0x40)\n      dup1\n      swap2\n      sub\n      swap1\n      revert\n    tag_186:\n        /* \"contracts/Bank.sol\":3792:3802  msg.sender */\n      caller\n        /* \"contracts/Bank.sol\":3779:3812  ETHWithdrawn(msg.sender, _amount) */\n      0xffffffffffffffffffffffffffffffffffffffff\n      and\n      0x94b2de810873337ed265c5f8cf98c9cffefa06b8607f9a2f1fbaebdfbcfbef1c\n        /* \"contracts/Bank.sol\":3804:3811  _amount */\n      dup4\n        /* \"contracts/Bank.sol\":3779:3812  ETHWithdrawn(msg.sender, _amount) */\n      mload(0x40)\n      tag_189\n      swap2\n      swap1\n      tag_72\n      jump\t// in\n    tag_189:\n      mload(0x40)\n      dup1\n      swap2\n      sub\n      swap1\n      log2\n        /* \"contracts/Bank.sol\":3333:3820  {... */\n      pop\n        /* \"contracts/Bank.sol\":3286:3820  function withdrawETH(uint256 _amount) internal {... */\n      pop\n      jump\t// out\n        /* \"@openzeppelin/contracts/utils/Context.sol\":656:752  function _msgSender() internal view virtual returns (address) {... */\n    tag_165:\n        /* \"@openzeppelin/contracts/utils/Context.sol\":709:716  address */\n      0x00\n        /* \"@openzeppelin/contracts/utils/Context.sol\":735:745  msg.sender */\n      caller\n        /* \"@openzeppelin/contracts/utils/Context.sol\":728:745  return msg.sender */\n      swap1\n      pop\n        /* \"@openzeppelin/contracts/utils/Context.sol\":656:752  function _msgSender() internal view virtual returns (address) {... */\n      swap1\n      jump\t// out\n        /* \"#utility.yul\":7:133   */\n    tag_191:\n        /* \"#utility.yul\":44:51   */\n      0x00\n        /* \"#utility.yul\":84:126   */\n      0xffffffffffffffffffffffffffffffffffffffff\n        /* \"#utility.yul\":77:82   */\n      dup3\n        /* \"#utility.yul\":73:127   */\n      and\n        /* \"#utility.yul\":62:127   */\n      swap1\n      pop\n        /* \"#utility.yul\":7:133   */\n      swap2\n      swap1\n      pop\n      jump\t// out\n        /* \"#utility.yul\":139:235   */\n    tag_192:\n        /* \"#utility.yul\":176:183   */\n      0x00\n        /* \"#utility.yul\":205:229   */\n      tag_231\n        /* \"#utility.yul\":223:228   */\n      dup3\n        /* \"#utility.yul\":205:229   */\n      tag_191\n      jump\t// in\n    tag_231:\n        /* \"#utility.yul\":194:229   */\n      swap1\n      pop\n        /* \"#utility.yul\":139:235   */\n      swap2\n      swap1\n      pop\n      jump\t// out\n        /* \"#utility.yul\":241:359   */\n    tag_193:\n        /* \"#utility.yul\":328:352   */\n      tag_233\n        /* \"#utility.yul\":346:351   */\n      dup2\n        /* \"#utility.yul\":328:352   */\n      tag_192\n      jump\t// in\n    tag_233:\n        /* \"#utility.yul\":323:326   */\n      dup3\n        /* \"#utility.yul\":316:353   */\n      mstore\n        /* \"#utility.yul\":241:359   */\n      pop\n      pop\n      jump\t// out\n        /* \"#utility.yul\":365:587   */\n    tag_24:\n        /* \"#utility.yul\":458:462   */\n      0x00\n        /* \"#utility.yul\":496:498   */\n      0x20\n        /* \"#utility.yul\":485:494   */\n      dup3\n        /* \"#utility.yul\":481:499   */\n      add\n        /* \"#utility.yul\":473:499   */\n      swap1\n      pop\n        /* \"#utility.yul\":509:580   */\n      tag_235\n        /* \"#utility.yul\":577:578   */\n      0x00\n        /* \"#utility.yul\":566:575   */\n      dup4\n        /* \"#utility.yul\":562:579   */\n      add\n        /* \"#utility.yul\":553:559   */\n      dup5\n        /* \"#utility.yul\":509:580   */\n      tag_193\n      jump\t// in\n    tag_235:\n        /* \"#utility.yul\":365:587   */\n      swap3\n      swap2\n      pop\n      pop\n      jump\t// out\n        /* \"#utility.yul\":674:791   */\n    tag_195:\n        /* \"#utility.yul\":783:784   */\n      0x00\n        /* \"#utility.yul\":780:781   */\n      dup1\n        /* \"#utility.yul\":773:785   */\n      revert\n        /* \"#utility.yul\":920:1042   */\n    tag_197:\n        /* \"#utility.yul\":993:1017   */\n      tag_240\n        /* \"#utility.yul\":1011:1016   */\n      dup2\n        /* \"#utility.yul\":993:1017   */\n      tag_192\n      jump\t// in\n    tag_240:\n        /* \"#utility.yul\":986:991   */\n      dup2\n        /* \"#utility.yul\":983:1018   */\n      eq\n        /* \"#utility.yul\":973:1036   */\n      tag_241\n      jumpi\n        /* \"#utility.yul\":1032:1033   */\n      0x00\n        /* \"#utility.yul\":1029:1030   */\n      dup1\n        /* \"#utility.yul\":1022:1034   */\n      revert\n        /* \"#utility.yul\":973:1036   */\n    tag_241:\n        /* \"#utility.yul\":920:1042   */\n      pop\n      jump\t// out\n        /* \"#utility.yul\":1048:1187   */\n    tag_198:\n        /* \"#utility.yul\":1094:1099   */\n      0x00\n        /* \"#utility.yul\":1132:1138   */\n      dup2\n        /* \"#utility.yul\":1119:1139   */\n      calldataload\n        /* \"#utility.yul\":1110:1139   */\n      swap1\n      pop\n        /* \"#utility.yul\":1148:1181   */\n      tag_243\n        /* \"#utility.yul\":1175:1180   */\n      dup2\n        /* \"#utility.yul\":1148:1181   */\n      tag_197\n      jump\t// in\n    tag_243:\n        /* \"#utility.yul\":1048:1187   */\n      swap3\n      swap2\n      pop\n      pop\n      jump\t// out\n        /* \"#utility.yul\":1193:1522   */\n    tag_28:\n        /* \"#utility.yul\":1252:1258   */\n      0x00\n        /* \"#utility.yul\":1301:1303   */\n      0x20\n        /* \"#utility.yul\":1289:1298   */\n      dup3\n        /* \"#utility.yul\":1280:1287   */\n      dup5\n        /* \"#utility.yul\":1276:1299   */\n      sub\n        /* \"#utility.yul\":1272:1304   */\n      slt\n        /* \"#utility.yul\":1269:1388   */\n      iszero\n      tag_245\n      jumpi\n        /* \"#utility.yul\":1307:1386   */\n      tag_246\n      tag_195\n      jump\t// in\n    tag_246:\n        /* \"#utility.yul\":1269:1388   */\n    tag_245:\n        /* \"#utility.yul\":1427:1428   */\n      0x00\n        /* \"#utility.yul\":1452:1505   */\n      tag_247\n        /* \"#utility.yul\":1497:1504   */\n      dup5\n        /* \"#utility.yul\":1488:1494   */\n      dup3\n        /* \"#utility.yul\":1477:1486   */\n      dup6\n        /* \"#utility.yul\":1473:1495   */\n      add\n        /* \"#utility.yul\":1452:1505   */\n      tag_198\n      jump\t// in\n    tag_247:\n        /* \"#utility.yul\":1442:1505   */\n      swap2\n      pop\n        /* \"#utility.yul\":1398:1515   */\n      pop\n        /* \"#utility.yul\":1193:1522   */\n      swap3\n      swap2\n      pop\n      pop\n      jump\t// out\n        /* \"#utility.yul\":1528:1605   */\n    tag_199:\n        /* \"#utility.yul\":1565:1572   */\n      0x00\n        /* \"#utility.yul\":1594:1599   */\n      dup2\n        /* \"#utility.yul\":1583:1599   */\n      swap1\n      pop\n        /* \"#utility.yul\":1528:1605   */\n      swap2\n      swap1\n      pop\n      jump\t// out\n        /* \"#utility.yul\":1611:1729   */\n    tag_200:\n        /* \"#utility.yul\":1698:1722   */\n      tag_250\n        /* \"#utility.yul\":1716:1721   */\n      dup2\n        /* \"#utility.yul\":1698:1722   */\n      tag_199\n      jump\t// in\n    tag_250:\n        /* \"#utility.yul\":1693:1696   */\n      dup3\n        /* \"#utility.yul\":1686:1723   */\n      mstore\n        /* \"#utility.yul\":1611:1729   */\n      pop\n      pop\n      jump\t// out\n        /* \"#utility.yul\":1735:2067   */\n    tag_31:\n        /* \"#utility.yul\":1856:1860   */\n      0x00\n        /* \"#utility.yul\":1894:1896   */\n      0x40\n        /* \"#utility.yul\":1883:1892   */\n      dup3\n        /* \"#utility.yul\":1879:1897   */\n      add\n        /* \"#utility.yul\":1871:1897   */\n      swap1\n      pop\n        /* \"#utility.yul\":1907:1978   */\n      tag_252\n        /* \"#utility.yul\":1975:1976   */\n      0x00\n        /* \"#utility.yul\":1964:1973   */\n      dup4\n        /* \"#utility.yul\":1960:1977   */\n      add\n        /* \"#utility.yul\":1951:1957   */\n      dup6\n        /* \"#utility.yul\":1907:1978   */\n      tag_200\n      jump\t// in\n    tag_252:\n        /* \"#utility.yul\":1988:2060   */\n      tag_253\n        /* \"#utility.yul\":2056:2058   */\n      0x20\n        /* \"#utility.yul\":2045:2054   */\n      dup4\n        /* \"#utility.yul\":2041:2059   */\n      add\n        /* \"#utility.yul\":2032:2038   */\n      dup5\n        /* \"#utility.yul\":1988:2060   */\n      tag_200\n      jump\t// in\n    tag_253:\n        /* \"#utility.yul\":1735:2067   */\n      swap4\n      swap3\n      pop\n      pop\n      pop\n      jump\t// out\n        /* \"#utility.yul\":2073:2195   */\n    tag_201:\n        /* \"#utility.yul\":2146:2170   */\n      tag_255\n        /* \"#utility.yul\":2164:2169   */\n      dup2\n        /* \"#utility.yul\":2146:2170   */\n      tag_199\n      jump\t// in\n    tag_255:\n        /* \"#utility.yul\":2139:2144   */\n      dup2\n        /* \"#utility.yul\":2136:2171   */\n      eq\n        /* \"#utility.yul\":2126:2189   */\n      tag_256\n      jumpi\n        /* \"#utility.yul\":2185:2186   */\n      0x00\n        /* \"#utility.yul\":2182:2183   */\n      dup1\n        /* \"#utility.yul\":2175:2187   */\n      revert\n        /* \"#utility.yul\":2126:2189   */\n    tag_256:\n        /* \"#utility.yul\":2073:2195   */\n      pop\n      jump\t// out\n        /* \"#utility.yul\":2201:2340   */\n    tag_202:\n        /* \"#utility.yul\":2247:2252   */\n      0x00\n        /* \"#utility.yul\":2285:2291   */\n      dup2\n        /* \"#utility.yul\":2272:2292   */\n      calldataload\n        /* \"#utility.yul\":2263:2292   */\n      swap1\n      pop\n        /* \"#utility.yul\":2301:2334   */\n      tag_258\n        /* \"#utility.yul\":2328:2333   */\n      dup2\n        /* \"#utility.yul\":2301:2334   */\n      tag_201\n      jump\t// in\n    tag_258:\n        /* \"#utility.yul\":2201:2340   */\n      swap3\n      swap2\n      pop\n      pop\n      jump\t// out\n        /* \"#utility.yul\":2346:2820   */\n    tag_34:\n        /* \"#utility.yul\":2414:2420   */\n      0x00\n        /* \"#utility.yul\":2422:2428   */\n      dup1\n        /* \"#utility.yul\":2471:2473   */\n      0x40\n        /* \"#utility.yul\":2459:2468   */\n      dup4\n        /* \"#utility.yul\":2450:2457   */\n      dup6\n        /* \"#utility.yul\":2446:2469   */\n      sub\n        /* \"#utility.yul\":2442:2474   */\n      slt\n        /* \"#utility.yul\":2439:2558   */\n      iszero\n      tag_260\n      jumpi\n        /* \"#utility.yul\":2477:2556   */\n      tag_261\n      tag_195\n      jump\t// in\n    tag_261:\n        /* \"#utility.yul\":2439:2558   */\n    tag_260:\n        /* \"#utility.yul\":2597:2598   */\n      0x00\n        /* \"#utility.yul\":2622:2675   */\n      tag_262\n        /* \"#utility.yul\":2667:2674   */\n      dup6\n        /* \"#utility.yul\":2658:2664   */\n      dup3\n        /* \"#utility.yul\":2647:2656   */\n      dup7\n        /* \"#utility.yul\":2643:2665   */\n      add\n        /* \"#utility.yul\":2622:2675   */\n      tag_198\n      jump\t// in\n    tag_262:\n        /* \"#utility.yul\":2612:2675   */\n      swap3\n      pop\n        /* \"#utility.yul\":2568:2685   */\n      pop\n        /* \"#utility.yul\":2724:2726   */\n      0x20\n        /* \"#utility.yul\":2750:2803   */\n      tag_263\n        /* \"#utility.yul\":2795:2802   */\n      dup6\n        /* \"#utility.yul\":2786:2792   */\n      dup3\n        /* \"#utility.yul\":2775:2784   */\n      dup7\n        /* \"#utility.yul\":2771:2793   */\n      add\n        /* \"#utility.yul\":2750:2803   */\n      tag_202\n      jump\t// in\n    tag_263:\n        /* \"#utility.yul\":2740:2803   */\n      swap2\n      pop\n        /* \"#utility.yul\":2695:2813   */\n      pop\n        /* \"#utility.yul\":2346:2820   */\n      swap3\n      pop\n      swap3\n      swap1\n      pop\n      jump\t// out\n        /* \"#utility.yul\":2826:2930   */\n    tag_203:\n        /* \"#utility.yul\":2871:2878   */\n      0x00\n        /* \"#utility.yul\":2900:2924   */\n      tag_265\n        /* \"#utility.yul\":2918:2923   */\n      dup3\n        /* \"#utility.yul\":2900:2924   */\n      tag_191\n      jump\t// in\n    tag_265:\n        /* \"#utility.yul\":2889:2924   */\n      swap1\n      pop\n        /* \"#utility.yul\":2826:2930   */\n      swap2\n      swap1\n      pop\n      jump\t// out\n        /* \"#utility.yul\":2936:3074   */\n    tag_204:\n        /* \"#utility.yul\":3017:3049   */\n      tag_267\n        /* \"#utility.yul\":3043:3048   */\n      dup2\n        /* \"#utility.yul\":3017:3049   */\n      tag_203\n      jump\t// in\n    tag_267:\n        /* \"#utility.yul\":3010:3015   */\n      dup2\n        /* \"#utility.yul\":3007:3050   */\n      eq\n        /* \"#utility.yul\":2997:3068   */\n      tag_268\n      jumpi\n        /* \"#utility.yul\":3064:3065   */\n      0x00\n        /* \"#utility.yul\":3061:3062   */\n      dup1\n        /* \"#utility.yul\":3054:3066   */\n      revert\n        /* \"#utility.yul\":2997:3068   */\n    tag_268:\n        /* \"#utility.yul\":2936:3074   */\n      pop\n      jump\t// out\n        /* \"#utility.yul\":3080:3235   */\n    tag_205:\n        /* \"#utility.yul\":3134:3139   */\n      0x00\n        /* \"#utility.yul\":3172:3178   */\n      dup2\n        /* \"#utility.yul\":3159:3179   */\n      calldataload\n        /* \"#utility.yul\":3150:3179   */\n      swap1\n      pop\n        /* \"#utility.yul\":3188:3229   */\n      tag_270\n        /* \"#utility.yul\":3223:3228   */\n      dup2\n        /* \"#utility.yul\":3188:3229   */\n      tag_204\n      jump\t// in\n    tag_270:\n        /* \"#utility.yul\":3080:3235   */\n      swap3\n      swap2\n      pop\n      pop\n      jump\t// out\n        /* \"#utility.yul\":3241:3731   */\n    tag_45:\n        /* \"#utility.yul\":3317:3323   */\n      0x00\n        /* \"#utility.yul\":3325:3331   */\n      dup1\n        /* \"#utility.yul\":3374:3376   */\n      0x40\n        /* \"#utility.yul\":3362:3371   */\n      dup4\n        /* \"#utility.yul\":3353:3360   */\n      dup6\n        /* \"#utility.yul\":3349:3372   */\n      sub\n        /* \"#utility.yul\":3345:3377   */\n      slt\n        /* \"#utility.yul\":3342:3461   */\n      iszero\n      tag_272\n      jumpi\n        /* \"#utility.yul\":3380:3459   */\n      tag_273\n      tag_195\n      jump\t// in\n    tag_273:\n        /* \"#utility.yul\":3342:3461   */\n    tag_272:\n        /* \"#utility.yul\":3500:3501   */\n      0x00\n        /* \"#utility.yul\":3525:3586   */\n      tag_274\n        /* \"#utility.yul\":3578:3585   */\n      dup6\n        /* \"#utility.yul\":3569:3575   */\n      dup3\n        /* \"#utility.yul\":3558:3567   */\n      dup7\n        /* \"#utility.yul\":3554:3576   */\n      add\n        /* \"#utility.yul\":3525:3586   */\n      tag_205\n      jump\t// in\n    tag_274:\n        /* \"#utility.yul\":3515:3586   */\n      swap3\n      pop\n        /* \"#utility.yul\":3471:3596   */\n      pop\n        /* \"#utility.yul\":3635:3637   */\n      0x20\n        /* \"#utility.yul\":3661:3714   */\n      tag_275\n        /* \"#utility.yul\":3706:3713   */\n      dup6\n        /* \"#utility.yul\":3697:3703   */\n      dup3\n        /* \"#utility.yul\":3686:3695   */\n      dup7\n        /* \"#utility.yul\":3682:3704   */\n      add\n        /* \"#utility.yul\":3661:3714   */\n      tag_202\n      jump\t// in\n    tag_275:\n        /* \"#utility.yul\":3651:3714   */\n      swap2\n      pop\n        /* \"#utility.yul\":3606:3724   */\n      pop\n        /* \"#utility.yul\":3241:3731   */\n      swap3\n      pop\n      swap3\n      swap1\n      pop\n      jump\t// out\n        /* \"#utility.yul\":3737:4211   */\n    tag_54:\n        /* \"#utility.yul\":3805:3811   */\n      0x00\n        /* \"#utility.yul\":3813:3819   */\n      dup1\n        /* \"#utility.yul\":3862:3864   */\n      0x40\n        /* \"#utility.yul\":3850:3859   */\n      dup4\n        /* \"#utility.yul\":3841:3848   */\n      dup6\n        /* \"#utility.yul\":3837:3860   */\n      sub\n        /* \"#utility.yul\":3833:3865   */\n      slt\n        /* \"#utility.yul\":3830:3949   */\n      iszero\n      tag_277\n      jumpi\n        /* \"#utility.yul\":3868:3947   */\n      tag_278\n      tag_195\n      jump\t// in\n    tag_278:\n        /* \"#utility.yul\":3830:3949   */\n    tag_277:\n        /* \"#utility.yul\":3988:3989   */\n      0x00\n        /* \"#utility.yul\":4013:4066   */\n      tag_279\n        /* \"#utility.yul\":4058:4065   */\n      dup6\n        /* \"#utility.yul\":4049:4055   */\n      dup3\n        /* \"#utility.yul\":4038:4047   */\n      dup7\n        /* \"#utility.yul\":4034:4056   */\n      add\n        /* \"#utility.yul\":4013:4066   */\n      tag_198\n      jump\t// in\n    tag_279:\n        /* \"#utility.yul\":4003:4066   */\n      swap3\n      pop\n        /* \"#utility.yul\":3959:4076   */\n      pop\n        /* \"#utility.yul\":4115:4117   */\n      0x20\n        /* \"#utility.yul\":4141:4194   */\n      tag_280\n        /* \"#utility.yul\":4186:4193   */\n      dup6\n        /* \"#utility.yul\":4177:4183   */\n      dup3\n        /* \"#utility.yul\":4166:4175   */\n      dup7\n        /* \"#utility.yul\":4162:4184   */\n      add\n        /* \"#utility.yul\":4141:4194   */\n      tag_198\n      jump\t// in\n    tag_280:\n        /* \"#utility.yul\":4131:4194   */\n      swap2\n      pop\n        /* \"#utility.yul\":4086:4204   */\n      pop\n        /* \"#utility.yul\":3737:4211   */\n      swap3\n      pop\n      swap3\n      swap1\n      pop\n      jump\t// out\n        /* \"#utility.yul\":4217:4307   */\n    tag_206:\n        /* \"#utility.yul\":4251:4258   */\n      0x00\n        /* \"#utility.yul\":4294:4299   */\n      dup2\n        /* \"#utility.yul\":4287:4300   */\n      iszero\n        /* \"#utility.yul\":4280:4301   */\n      iszero\n        /* \"#utility.yul\":4269:4301   */\n      swap1\n      pop\n        /* \"#utility.yul\":4217:4307   */\n      swap2\n      swap1\n      pop\n      jump\t// out\n        /* \"#utility.yul\":4313:4422   */\n    tag_207:\n        /* \"#utility.yul\":4394:4415   */\n      tag_283\n        /* \"#utility.yul\":4409:4414   */\n      dup2\n        /* \"#utility.yul\":4394:4415   */\n      tag_206\n      jump\t// in\n    tag_283:\n        /* \"#utility.yul\":4389:4392   */\n      dup3\n        /* \"#utility.yul\":4382:4416   */\n      mstore\n        /* \"#utility.yul\":4313:4422   */\n      pop\n      pop\n      jump\t// out\n        /* \"#utility.yul\":4428:5191   */\n    tag_62:\n        /* \"#utility.yul\":4655:4659   */\n      0x00\n        /* \"#utility.yul\":4693:4696   */\n      0xc0\n        /* \"#utility.yul\":4682:4691   */\n      dup3\n        /* \"#utility.yul\":4678:4697   */\n      add\n        /* \"#utility.yul\":4670:4697   */\n      swap1\n      pop\n        /* \"#utility.yul\":4707:4778   */\n      tag_285\n        /* \"#utility.yul\":4775:4776   */\n      0x00\n        /* \"#utility.yul\":4764:4773   */\n      dup4\n        /* \"#utility.yul\":4760:4777   */\n      add\n        /* \"#utility.yul\":4751:4757   */\n      dup10\n        /* \"#utility.yul\":4707:4778   */\n      tag_193\n      jump\t// in\n    tag_285:\n        /* \"#utility.yul\":4788:4860   */\n      tag_286\n        /* \"#utility.yul\":4856:4858   */\n      0x20\n        /* \"#utility.yul\":4845:4854   */\n      dup4\n        /* \"#utility.yul\":4841:4859   */\n      add\n        /* \"#utility.yul\":4832:4838   */\n      dup9\n        /* \"#utility.yul\":4788:4860   */\n      tag_193\n      jump\t// in\n    tag_286:\n        /* \"#utility.yul\":4870:4942   */\n      tag_287\n        /* \"#utility.yul\":4938:4940   */\n      0x40\n        /* \"#utility.yul\":4927:4936   */\n      dup4\n        /* \"#utility.yul\":4923:4941   */\n      add\n        /* \"#utility.yul\":4914:4920   */\n      dup8\n        /* \"#utility.yul\":4870:4942   */\n      tag_200\n      jump\t// in\n    tag_287:\n        /* \"#utility.yul\":4952:5024   */\n      tag_288\n        /* \"#utility.yul\":5020:5022   */\n      0x60\n        /* \"#utility.yul\":5009:5018   */\n      dup4\n        /* \"#utility.yul\":5005:5023   */\n      add\n        /* \"#utility.yul\":4996:5002   */\n      dup7\n        /* \"#utility.yul\":4952:5024   */\n      tag_193\n      jump\t// in\n    tag_288:\n        /* \"#utility.yul\":5034:5107   */\n      tag_289\n        /* \"#utility.yul\":5102:5105   */\n      0x80\n        /* \"#utility.yul\":5091:5100   */\n      dup4\n        /* \"#utility.yul\":5087:5106   */\n      add\n        /* \"#utility.yul\":5078:5084   */\n      dup6\n        /* \"#utility.yul\":5034:5107   */\n      tag_200\n      jump\t// in\n    tag_289:\n        /* \"#utility.yul\":5117:5184   */\n      tag_290\n        /* \"#utility.yul\":5179:5182   */\n      0xa0\n        /* \"#utility.yul\":5168:5177   */\n      dup4\n        /* \"#utility.yul\":5164:5183   */\n      add\n        /* \"#utility.yul\":5155:5161   */\n      dup5\n        /* \"#utility.yul\":5117:5184   */\n      tag_207\n      jump\t// in\n    tag_290:\n        /* \"#utility.yul\":4428:5191   */\n      swap8\n      swap7\n      pop\n      pop\n      pop\n      pop\n      pop\n      pop\n      pop\n      jump\t// out\n        /* \"#utility.yul\":5197:5419   */\n    tag_72:\n        /* \"#utility.yul\":5290:5294   */\n      0x00\n        /* \"#utility.yul\":5328:5330   */\n      0x20\n        /* \"#utility.yul\":5317:5326   */\n      dup3\n        /* \"#utility.yul\":5313:5331   */\n      add\n        /* \"#utility.yul\":5305:5331   */\n      swap1\n      pop\n        /* \"#utility.yul\":5341:5412   */\n      tag_292\n        /* \"#utility.yul\":5409:5410   */\n      0x00\n        /* \"#utility.yul\":5398:5407   */\n      dup4\n        /* \"#utility.yul\":5394:5411   */\n      add\n        /* \"#utility.yul\":5385:5391   */\n      dup5\n        /* \"#utility.yul\":5341:5412   */\n      tag_200\n      jump\t// in\n    tag_292:\n        /* \"#utility.yul\":5197:5419   */\n      swap3\n      swap2\n      pop\n      pop\n      jump\t// out\n        /* \"#utility.yul\":5425:5605   */\n    tag_208:\n        /* \"#utility.yul\":5473:5550   */\n      0x4e487b7100000000000000000000000000000000000000000000000000000000\n        /* \"#utility.yul\":5470:5471   */\n      0x00\n        /* \"#utility.yul\":5463:5551   */\n      mstore\n        /* \"#utility.yul\":5570:5574   */\n      0x11\n        /* \"#utility.yul\":5567:5568   */\n      0x04\n        /* \"#utility.yul\":5560:5575   */\n      mstore\n        /* \"#utility.yul\":5594:5598   */\n      0x24\n        /* \"#utility.yul\":5591:5592   */\n      0x00\n        /* \"#utility.yul\":5584:5599   */\n      revert\n        /* \"#utility.yul\":5611:5802   */\n    tag_84:\n        /* \"#utility.yul\":5651:5654   */\n      0x00\n        /* \"#utility.yul\":5670:5690   */\n      tag_295\n        /* \"#utility.yul\":5688:5689   */\n      dup3\n        /* \"#utility.yul\":5670:5690   */\n      tag_199\n      jump\t// in\n    tag_295:\n        /* \"#utility.yul\":5665:5690   */\n      swap2\n      pop\n        /* \"#utility.yul\":5704:5724   */\n      tag_296\n        /* \"#utility.yul\":5722:5723   */\n      dup4\n        /* \"#utility.yul\":5704:5724   */\n      tag_199\n      jump\t// in\n    tag_296:\n        /* \"#utility.yul\":5699:5724   */\n      swap3\n      pop\n        /* \"#utility.yul\":5747:5748   */\n      dup3\n        /* \"#utility.yul\":5744:5745   */\n      dup3\n        /* \"#utility.yul\":5740:5749   */\n      add\n        /* \"#utility.yul\":5733:5749   */\n      swap1\n      pop\n        /* \"#utility.yul\":5768:5771   */\n      dup1\n        /* \"#utility.yul\":5765:5766   */\n      dup3\n        /* \"#utility.yul\":5762:5772   */\n      gt\n        /* \"#utility.yul\":5759:5795   */\n      iszero\n      tag_297\n      jumpi\n        /* \"#utility.yul\":5775:5793   */\n      tag_298\n      tag_208\n      jump\t// in\n    tag_298:\n        /* \"#utility.yul\":5759:5795   */\n    tag_297:\n        /* \"#utility.yul\":5611:5802   */\n      swap3\n      swap2\n      pop\n      pop\n      jump\t// out\n        /* \"#utility.yul\":5808:5977   */\n    tag_209:\n        /* \"#utility.yul\":5892:5903   */\n      0x00\n        /* \"#utility.yul\":5926:5932   */\n      dup3\n        /* \"#utility.yul\":5921:5924   */\n      dup3\n        /* \"#utility.yul\":5914:5933   */\n      mstore\n        /* \"#utility.yul\":5966:5970   */\n      0x20\n        /* \"#utility.yul\":5961:5964   */\n      dup3\n        /* \"#utility.yul\":5957:5971   */\n      add\n        /* \"#utility.yul\":5942:5971   */\n      swap1\n      pop\n        /* \"#utility.yul\":5808:5977   */\n      swap3\n      swap2\n      pop\n      pop\n      jump\t// out\n        /* \"#utility.yul\":5983:6146   */\n    tag_210:\n        /* \"#utility.yul\":6123:6138   */\n      0x496e76616c696420746f6b656e00000000000000000000000000000000000000\n        /* \"#utility.yul\":6119:6120   */\n      0x00\n        /* \"#utility.yul\":6111:6117   */\n      dup3\n        /* \"#utility.yul\":6107:6121   */\n      add\n        /* \"#utility.yul\":6100:6139   */\n      mstore\n        /* \"#utility.yul\":5983:6146   */\n      pop\n      jump\t// out\n        /* \"#utility.yul\":6152:6518   */\n    tag_211:\n        /* \"#utility.yul\":6294:6297   */\n      0x00\n        /* \"#utility.yul\":6315:6382   */\n      tag_302\n        /* \"#utility.yul\":6379:6381   */\n      0x0d\n        /* \"#utility.yul\":6374:6377   */\n      dup4\n        /* \"#utility.yul\":6315:6382   */\n      tag_209\n      jump\t// in\n    tag_302:\n        /* \"#utility.yul\":6308:6382   */\n      swap2\n      pop\n        /* \"#utility.yul\":6391:6484   */\n      tag_303\n        /* \"#utility.yul\":6480:6483   */\n      dup3\n        /* \"#utility.yul\":6391:6484   */\n      tag_210\n      jump\t// in\n    tag_303:\n        /* \"#utility.yul\":6509:6511   */\n      0x20\n        /* \"#utility.yul\":6504:6507   */\n      dup3\n        /* \"#utility.yul\":6500:6512   */\n      add\n        /* \"#utility.yul\":6493:6512   */\n      swap1\n      pop\n        /* \"#utility.yul\":6152:6518   */\n      swap2\n      swap1\n      pop\n      jump\t// out\n        /* \"#utility.yul\":6524:6943   */\n    tag_93:\n        /* \"#utility.yul\":6690:6694   */\n      0x00\n        /* \"#utility.yul\":6728:6730   */\n      0x20\n        /* \"#utility.yul\":6717:6726   */\n      dup3\n        /* \"#utility.yul\":6713:6731   */\n      add\n        /* \"#utility.yul\":6705:6731   */\n      swap1\n      pop\n        /* \"#utility.yul\":6777:6786   */\n      dup2\n        /* \"#utility.yul\":6771:6775   */\n      dup2\n        /* \"#utility.yul\":6767:6787   */\n      sub\n        /* \"#utility.yul\":6763:6764   */\n      0x00\n        /* \"#utility.yul\":6752:6761   */\n      dup4\n        /* \"#utility.yul\":6748:6765   */\n      add\n        /* \"#utility.yul\":6741:6788   */\n      mstore\n        /* \"#utility.yul\":6805:6936   */\n      tag_305\n        /* \"#utility.yul\":6931:6935   */\n      dup2\n        /* \"#utility.yul\":6805:6936   */\n      tag_211\n      jump\t// in\n    tag_305:\n        /* \"#utility.yul\":6797:6936   */\n      swap1\n      pop\n        /* \"#utility.yul\":6524:6943   */\n      swap2\n      swap1\n      pop\n      jump\t// out\n        /* \"#utility.yul\":6949:7391   */\n    tag_95:\n        /* \"#utility.yul\":7098:7102   */\n      0x00\n        /* \"#utility.yul\":7136:7138   */\n      0x60\n        /* \"#utility.yul\":7125:7134   */\n      dup3\n        /* \"#utility.yul\":7121:7139   */\n      add\n        /* \"#utility.yul\":7113:7139   */\n      swap1\n      pop\n        /* \"#utility.yul\":7149:7220   */\n      tag_307\n        /* \"#utility.yul\":7217:7218   */\n      0x00\n        /* \"#utility.yul\":7206:7215   */\n      dup4\n        /* \"#utility.yul\":7202:7219   */\n      add\n        /* \"#utility.yul\":7193:7199   */\n      dup7\n        /* \"#utility.yul\":7149:7220   */\n      tag_193\n      jump\t// in\n    tag_307:\n        /* \"#utility.yul\":7230:7302   */\n      tag_308\n        /* \"#utility.yul\":7298:7300   */\n      0x20\n        /* \"#utility.yul\":7287:7296   */\n      dup4\n        /* \"#utility.yul\":7283:7301   */\n      add\n        /* \"#utility.yul\":7274:7280   */\n      dup6\n        /* \"#utility.yul\":7230:7302   */\n      tag_193\n      jump\t// in\n    tag_308:\n        /* \"#utility.yul\":7312:7384   */\n      tag_309\n        /* \"#utility.yul\":7380:7382   */\n      0x40\n        /* \"#utility.yul\":7369:7378   */\n      dup4\n        /* \"#utility.yul\":7365:7383   */\n      add\n        /* \"#utility.yul\":7356:7362   */\n      dup5\n        /* \"#utility.yul\":7312:7384   */\n      tag_200\n      jump\t// in\n    tag_309:\n        /* \"#utility.yul\":6949:7391   */\n      swap5\n      swap4\n      pop\n      pop\n      pop\n      pop\n      jump\t// out\n        /* \"#utility.yul\":7397:7513   */\n    tag_212:\n        /* \"#utility.yul\":7467:7488   */\n      tag_311\n        /* \"#utility.yul\":7482:7487   */\n      dup2\n        /* \"#utility.yul\":7467:7488   */\n      tag_206\n      jump\t// in\n    tag_311:\n        /* \"#utility.yul\":7460:7465   */\n      dup2\n        /* \"#utility.yul\":7457:7489   */\n      eq\n        /* \"#utility.yul\":7447:7507   */\n      tag_312\n      jumpi\n        /* \"#utility.yul\":7503:7504   */\n      0x00\n        /* \"#utility.yul\":7500:7501   */\n      dup1\n        /* \"#utility.yul\":7493:7505   */\n      revert\n        /* \"#utility.yul\":7447:7507   */\n    tag_312:\n        /* \"#utility.yul\":7397:7513   */\n      pop\n      jump\t// out\n        /* \"#utility.yul\":7519:7656   */\n    tag_213:\n        /* \"#utility.yul\":7573:7578   */\n      0x00\n        /* \"#utility.yul\":7604:7610   */\n      dup2\n        /* \"#utility.yul\":7598:7611   */\n      mload\n        /* \"#utility.yul\":7589:7611   */\n      swap1\n      pop\n        /* \"#utility.yul\":7620:7650   */\n      tag_314\n        /* \"#utility.yul\":7644:7649   */\n      dup2\n        /* \"#utility.yul\":7620:7650   */\n      tag_212\n      jump\t// in\n    tag_314:\n        /* \"#utility.yul\":7519:7656   */\n      swap3\n      swap2\n      pop\n      pop\n      jump\t// out\n        /* \"#utility.yul\":7662:8007   */\n    tag_99:\n        /* \"#utility.yul\":7729:7735   */\n      0x00\n        /* \"#utility.yul\":7778:7780   */\n      0x20\n        /* \"#utility.yul\":7766:7775   */\n      dup3\n        /* \"#utility.yul\":7757:7764   */\n      dup5\n        /* \"#utility.yul\":7753:7776   */\n      sub\n        /* \"#utility.yul\":7749:7781   */\n      slt\n        /* \"#utility.yul\":7746:7865   */\n      iszero\n      tag_316\n      jumpi\n        /* \"#utility.yul\":7784:7863   */\n      tag_317\n      tag_195\n      jump\t// in\n    tag_317:\n        /* \"#utility.yul\":7746:7865   */\n    tag_316:\n        /* \"#utility.yul\":7904:7905   */\n      0x00\n        /* \"#utility.yul\":7929:7990   */\n      tag_318\n        /* \"#utility.yul\":7982:7989   */\n      dup5\n        /* \"#utility.yul\":7973:7979   */\n      dup3\n        /* \"#utility.yul\":7962:7971   */\n      dup6\n        /* \"#utility.yul\":7958:7980   */\n      add\n        /* \"#utility.yul\":7929:7990   */\n      tag_213\n      jump\t// in\n    tag_318:\n        /* \"#utility.yul\":7919:7990   */\n      swap2\n      pop\n        /* \"#utility.yul\":7875:8000   */\n      pop\n        /* \"#utility.yul\":7662:8007   */\n      swap3\n      swap2\n      pop\n      pop\n      jump\t// out\n        /* \"#utility.yul\":8013:8178   */\n    tag_214:\n        /* \"#utility.yul\":8153:8170   */\n      0x5472616e73666572206661696c65640000000000000000000000000000000000\n        /* \"#utility.yul\":8149:8150   */\n      0x00\n        /* \"#utility.yul\":8141:8147   */\n      dup3\n        /* \"#utility.yul\":8137:8151   */\n      add\n        /* \"#utility.yul\":8130:8171   */\n      mstore\n        /* \"#utility.yul\":8013:8178   */\n      pop\n      jump\t// out\n        /* \"#utility.yul\":8184:8550   */\n    tag_215:\n        /* \"#utility.yul\":8326:8329   */\n      0x00\n        /* \"#utility.yul\":8347:8414   */\n      tag_321\n        /* \"#utility.yul\":8411:8413   */\n      0x0f\n        /* \"#utility.yul\":8406:8409   */\n      dup4\n        /* \"#utility.yul\":8347:8414   */\n      tag_209\n      jump\t// in\n    tag_321:\n        /* \"#utility.yul\":8340:8414   */\n      swap2\n      pop\n        /* \"#utility.yul\":8423:8516   */\n      tag_322\n        /* \"#utility.yul\":8512:8515   */\n      dup3\n        /* \"#utility.yul\":8423:8516   */\n      tag_214\n      jump\t// in\n    tag_322:\n        /* \"#utility.yul\":8541:8543   */\n      0x20\n        /* \"#utility.yul\":8536:8539   */\n      dup3\n        /* \"#utility.yul\":8532:8544   */\n      add\n        /* \"#utility.yul\":8525:8544   */\n      swap1\n      pop\n        /* \"#utility.yul\":8184:8550   */\n      swap2\n      swap1\n      pop\n      jump\t// out\n        /* \"#utility.yul\":8556:8975   */\n    tag_102:\n        /* \"#utility.yul\":8722:8726   */\n      0x00\n        /* \"#utility.yul\":8760:8762   */\n      0x20\n        /* \"#utility.yul\":8749:8758   */\n      dup3\n        /* \"#utility.yul\":8745:8763   */\n      add\n        /* \"#utility.yul\":8737:8763   */\n      swap1\n      pop\n        /* \"#utility.yul\":8809:8818   */\n      dup2\n        /* \"#utility.yul\":8803:8807   */\n      dup2\n        /* \"#utility.yul\":8799:8819   */\n      sub\n        /* \"#utility.yul\":8795:8796   */\n      0x00\n        /* \"#utility.yul\":8784:8793   */\n      dup4\n        /* \"#utility.yul\":8780:8797   */\n      add\n        /* \"#utility.yul\":8773:8820   */\n      mstore\n        /* \"#utility.yul\":8837:8968   */\n      tag_324\n        /* \"#utility.yul\":8963:8967   */\n      dup2\n        /* \"#utility.yul\":8837:8968   */\n      tag_215\n      jump\t// in\n    tag_324:\n        /* \"#utility.yul\":8829:8968   */\n      swap1\n      pop\n        /* \"#utility.yul\":8556:8975   */\n      swap2\n      swap1\n      pop\n      jump\t// out\n        /* \"#utility.yul\":8981:9146   */\n    tag_216:\n        /* \"#utility.yul\":9121:9138   */\n      0x496e76616c696420616464726573730000000000000000000000000000000000\n        /* \"#utility.yul\":9117:9118   */\n      0x00\n        /* \"#utility.yul\":9109:9115   */\n      dup3\n        /* \"#utility.yul\":9105:9119   */\n      add\n        /* \"#utility.yul\":9098:9139   */\n      mstore\n        /* \"#utility.yul\":8981:9146   */\n      pop\n      jump\t// out\n        /* \"#utility.yul\":9152:9518   */\n    tag_217:\n        /* \"#utility.yul\":9294:9297   */\n      0x00\n        /* \"#utility.yul\":9315:9382   */\n      tag_327\n        /* \"#utility.yul\":9379:9381   */\n      0x0f\n        /* \"#utility.yul\":9374:9377   */\n      dup4\n        /* \"#utility.yul\":9315:9382   */\n      tag_209\n      jump\t// in\n    tag_327:\n        /* \"#utility.yul\":9308:9382   */\n      swap2\n      pop\n        /* \"#utility.yul\":9391:9484   */\n      tag_328\n        /* \"#utility.yul\":9480:9483   */\n      dup3\n        /* \"#utility.yul\":9391:9484   */\n      tag_216\n      jump\t// in\n    tag_328:\n        /* \"#utility.yul\":9509:9511   */\n      0x20\n        /* \"#utility.yul\":9504:9507   */\n      dup3\n        /* \"#utility.yul\":9500:9512   */\n      add\n        /* \"#utility.yul\":9493:9512   */\n      swap1\n      pop\n        /* \"#utility.yul\":9152:9518   */\n      swap2\n      swap1\n      pop\n      jump\t// out\n        /* \"#utility.yul\":9524:9943   */\n    tag_114:\n        /* \"#utility.yul\":9690:9694   */\n      0x00\n        /* \"#utility.yul\":9728:9730   */\n      0x20\n        /* \"#utility.yul\":9717:9726   */\n      dup3\n        /* \"#utility.yul\":9713:9731   */\n      add\n        /* \"#utility.yul\":9705:9731   */\n      swap1\n      pop\n        /* \"#utility.yul\":9777:9786   */\n      dup2\n        /* \"#utility.yul\":9771:9775   */\n      dup2\n        /* \"#utility.yul\":9767:9787   */\n      sub\n        /* \"#utility.yul\":9763:9764   */\n      0x00\n        /* \"#utility.yul\":9752:9761   */\n      dup4\n        /* \"#utility.yul\":9748:9765   */\n      add\n        /* \"#utility.yul\":9741:9788   */\n      mstore\n        /* \"#utility.yul\":9805:9936   */\n      tag_330\n        /* \"#utility.yul\":9931:9935   */\n      dup2\n        /* \"#utility.yul\":9805:9936   */\n      tag_217\n      jump\t// in\n    tag_330:\n        /* \"#utility.yul\":9797:9936   */\n      swap1\n      pop\n        /* \"#utility.yul\":9524:9943   */\n      swap2\n      swap1\n      pop\n      jump\t// out\n        /* \"#utility.yul\":9949:10128   */\n    tag_218:\n        /* \"#utility.yul\":10089:10120   */\n      0x416d6f756e74206d7573742062652067726561746572207468616e2030000000\n        /* \"#utility.yul\":10085:10086   */\n      0x00\n        /* \"#utility.yul\":10077:10083   */\n      dup3\n        /* \"#utility.yul\":10073:10087   */\n      add\n        /* \"#utility.yul\":10066:10121   */\n      mstore\n        /* \"#utility.yul\":9949:10128   */\n      pop\n      jump\t// out\n        /* \"#utility.yul\":10134:10500   */\n    tag_219:\n        /* \"#utility.yul\":10276:10279   */\n      0x00\n        /* \"#utility.yul\":10297:10364   */\n      tag_333\n        /* \"#utility.yul\":10361:10363   */\n      0x1d\n        /* \"#utility.yul\":10356:10359   */\n      dup4\n        /* \"#utility.yul\":10297:10364   */\n      tag_209\n      jump\t// in\n    tag_333:\n        /* \"#utility.yul\":10290:10364   */\n      swap2\n      pop\n        /* \"#utility.yul\":10373:10466   */\n      tag_334\n        /* \"#utility.yul\":10462:10465   */\n      dup3\n        /* \"#utility.yul\":10373:10466   */\n      tag_218\n      jump\t// in\n    tag_334:\n        /* \"#utility.yul\":10491:10493   */\n      0x20\n        /* \"#utility.yul\":10486:10489   */\n      dup3\n        /* \"#utility.yul\":10482:10494   */\n      add\n        /* \"#utility.yul\":10475:10494   */\n      swap1\n      pop\n        /* \"#utility.yul\":10134:10500   */\n      swap2\n      swap1\n      pop\n      jump\t// out\n        /* \"#utility.yul\":10506:10925   */\n    tag_117:\n        /* \"#utility.yul\":10672:10676   */\n      0x00\n        /* \"#utility.yul\":10710:10712   */\n      0x20\n        /* \"#utility.yul\":10699:10708   */\n      dup3\n        /* \"#utility.yul\":10695:10713   */\n      add\n        /* \"#utility.yul\":10687:10713   */\n      swap1\n      pop\n        /* \"#utility.yul\":10759:10768   */\n      dup2\n        /* \"#utility.yul\":10753:10757   */\n      dup2\n        /* \"#utility.yul\":10749:10769   */\n      sub\n        /* \"#utility.yul\":10745:10746   */\n      0x00\n        /* \"#utility.yul\":10734:10743   */\n      dup4\n        /* \"#utility.yul\":10730:10747   */\n      add\n        /* \"#utility.yul\":10723:10770   */\n      mstore\n        /* \"#utility.yul\":10787:10918   */\n      tag_336\n        /* \"#utility.yul\":10913:10917   */\n      dup2\n        /* \"#utility.yul\":10787:10918   */\n      tag_219\n      jump\t// in\n    tag_336:\n        /* \"#utility.yul\":10779:10918   */\n      swap1\n      pop\n        /* \"#utility.yul\":10506:10925   */\n      swap2\n      swap1\n      pop\n      jump\t// out\n        /* \"#utility.yul\":10931:11341   */\n    tag_119:\n        /* \"#utility.yul\":10971:10978   */\n      0x00\n        /* \"#utility.yul\":10994:11014   */\n      tag_338\n        /* \"#utility.yul\":11012:11013   */\n      dup3\n        /* \"#utility.yul\":10994:11014   */\n      tag_199\n      jump\t// in\n    tag_338:\n        /* \"#utility.yul\":10989:11014   */\n      swap2\n      pop\n        /* \"#utility.yul\":11028:11048   */\n      tag_339\n        /* \"#utility.yul\":11046:11047   */\n      dup4\n        /* \"#utility.yul\":11028:11048   */\n      tag_199\n      jump\t// in\n    tag_339:\n        /* \"#utility.yul\":11023:11048   */\n      swap3\n      pop\n        /* \"#utility.yul\":11083:11084   */\n      dup3\n        /* \"#utility.yul\":11080:11081   */\n      dup3\n        /* \"#utility.yul\":11076:11085   */\n      mul\n        /* \"#utility.yul\":11105:11135   */\n      tag_340\n        /* \"#utility.yul\":11123:11134   */\n      dup2\n        /* \"#utility.yul\":11105:11135   */\n      tag_199\n      jump\t// in\n    tag_340:\n        /* \"#utility.yul\":11094:11135   */\n      swap2\n      pop\n        /* \"#utility.yul\":11284:11285   */\n      dup3\n        /* \"#utility.yul\":11275:11282   */\n      dup3\n        /* \"#utility.yul\":11271:11286   */\n      div\n        /* \"#utility.yul\":11268:11269   */\n      dup5\n        /* \"#utility.yul\":11265:11287   */\n      eq\n        /* \"#utility.yul\":11245:11246   */\n      dup4\n        /* \"#utility.yul\":11238:11247   */\n      iszero\n        /* \"#utility.yul\":11218:11301   */\n      or\n        /* \"#utility.yul\":11195:11334   */\n      tag_341\n      jumpi\n        /* \"#utility.yul\":11314:11332   */\n      tag_342\n      tag_208\n      jump\t// in\n    tag_342:\n        /* \"#utility.yul\":11195:11334   */\n    tag_341:\n        /* \"#utility.yul\":10979:11341   */\n      pop\n        /* \"#utility.yul\":10931:11341   */\n      swap3\n      swap2\n      pop\n      pop\n      jump\t// out\n        /* \"#utility.yul\":11347:11517   */\n    tag_220:\n        /* \"#utility.yul\":11487:11509   */\n      0x496e73756666696369656e742062616c616e6365000000000000000000000000\n        /* \"#utility.yul\":11483:11484   */\n      0x00\n        /* \"#utility.yul\":11475:11481   */\n      dup3\n        /* \"#utility.yul\":11471:11485   */\n      add\n        /* \"#utility.yul\":11464:11510   */\n      mstore\n        /* \"#utility.yul\":11347:11517   */\n      pop\n      jump\t// out\n        /* \"#utility.yul\":11523:11889   */\n    tag_221:\n        /* \"#utility.yul\":11665:11668   */\n      0x00\n        /* \"#utility.yul\":11686:11753   */\n      tag_345\n        /* \"#utility.yul\":11750:11752   */\n      0x14\n        /* \"#utility.yul\":11745:11748   */\n      dup4\n        /* \"#utility.yul\":11686:11753   */\n      tag_209\n      jump\t// in\n    tag_345:\n        /* \"#utility.yul\":11679:11753   */\n      swap2\n      pop\n        /* \"#utility.yul\":11762:11855   */\n      tag_346\n        /* \"#utility.yul\":11851:11854   */\n      dup3\n        /* \"#utility.yul\":11762:11855   */\n      tag_220\n      jump\t// in\n    tag_346:\n        /* \"#utility.yul\":11880:11882   */\n      0x20\n        /* \"#utility.yul\":11875:11878   */\n      dup3\n        /* \"#utility.yul\":11871:11883   */\n      add\n        /* \"#utility.yul\":11864:11883   */\n      swap1\n      pop\n        /* \"#utility.yul\":11523:11889   */\n      swap2\n      swap1\n      pop\n      jump\t// out\n        /* \"#utility.yul\":11895:12314   */\n    tag_122:\n        /* \"#utility.yul\":12061:12065   */\n      0x00\n        /* \"#utility.yul\":12099:12101   */\n      0x20\n        /* \"#utility.yul\":12088:12097   */\n      dup3\n        /* \"#utility.yul\":12084:12102   */\n      add\n        /* \"#utility.yul\":12076:12102   */\n      swap1\n      pop\n        /* \"#utility.yul\":12148:12157   */\n      dup2\n        /* \"#utility.yul\":12142:12146   */\n      dup2\n        /* \"#utility.yul\":12138:12158   */\n      sub\n        /* \"#utility.yul\":12134:12135   */\n      0x00\n        /* \"#utility.yul\":12123:12132   */\n      dup4\n        /* \"#utility.yul\":12119:12136   */\n      add\n        /* \"#utility.yul\":12112:12159   */\n      mstore\n        /* \"#utility.yul\":12176:12307   */\n      tag_348\n        /* \"#utility.yul\":12302:12306   */\n      dup2\n        /* \"#utility.yul\":12176:12307   */\n      tag_221\n      jump\t// in\n    tag_348:\n        /* \"#utility.yul\":12168:12307   */\n      swap1\n      pop\n        /* \"#utility.yul\":11895:12314   */\n      swap2\n      swap1\n      pop\n      jump\t// out\n        /* \"#utility.yul\":12320:12514   */\n    tag_125:\n        /* \"#utility.yul\":12360:12364   */\n      0x00\n        /* \"#utility.yul\":12380:12400   */\n      tag_350\n        /* \"#utility.yul\":12398:12399   */\n      dup3\n        /* \"#utility.yul\":12380:12400   */\n      tag_199\n      jump\t// in\n    tag_350:\n        /* \"#utility.yul\":12375:12400   */\n      swap2\n      pop\n        /* \"#utility.yul\":12414:12434   */\n      tag_351\n        /* \"#utility.yul\":12432:12433   */\n      dup4\n        /* \"#utility.yul\":12414:12434   */\n      tag_199\n      jump\t// in\n    tag_351:\n        /* \"#utility.yul\":12409:12434   */\n      swap3\n      pop\n        /* \"#utility.yul\":12458:12459   */\n      dup3\n        /* \"#utility.yul\":12455:12456   */\n      dup3\n        /* \"#utility.yul\":12451:12460   */\n      sub\n        /* \"#utility.yul\":12443:12460   */\n      swap1\n      pop\n        /* \"#utility.yul\":12482:12483   */\n      dup2\n        /* \"#utility.yul\":12476:12480   */\n      dup2\n        /* \"#utility.yul\":12473:12484   */\n      gt\n        /* \"#utility.yul\":12470:12507   */\n      iszero\n      tag_352\n      jumpi\n        /* \"#utility.yul\":12487:12505   */\n      tag_353\n      tag_208\n      jump\t// in\n    tag_353:\n        /* \"#utility.yul\":12470:12507   */\n    tag_352:\n        /* \"#utility.yul\":12320:12514   */\n      swap3\n      swap2\n      pop\n      pop\n      jump\t// out\n        /* \"#utility.yul\":12520:12700   */\n    tag_222:\n        /* \"#utility.yul\":12568:12645   */\n      0x4e487b7100000000000000000000000000000000000000000000000000000000\n        /* \"#utility.yul\":12565:12566   */\n      0x00\n        /* \"#utility.yul\":12558:12646   */\n      mstore\n        /* \"#utility.yul\":12665:12669   */\n      0x12\n        /* \"#utility.yul\":12662:12663   */\n      0x04\n        /* \"#utility.yul\":12655:12670   */\n      mstore\n        /* \"#utility.yul\":12689:12693   */\n      0x24\n        /* \"#utility.yul\":12686:12687   */\n      0x00\n        /* \"#utility.yul\":12679:12694   */\n      revert\n        /* \"#utility.yul\":12706:12891   */\n    tag_135:\n        /* \"#utility.yul\":12746:12747   */\n      0x00\n        /* \"#utility.yul\":12763:12783   */\n      tag_356\n        /* \"#utility.yul\":12781:12782   */\n      dup3\n        /* \"#utility.yul\":12763:12783   */\n      tag_199\n      jump\t// in\n    tag_356:\n        /* \"#utility.yul\":12758:12783   */\n      swap2\n      pop\n        /* \"#utility.yul\":12797:12817   */\n      tag_357\n        /* \"#utility.yul\":12815:12816   */\n      dup4\n        /* \"#utility.yul\":12797:12817   */\n      tag_199\n      jump\t// in\n    tag_357:\n        /* \"#utility.yul\":12792:12817   */\n      swap3\n      pop\n        /* \"#utility.yul\":12836:12837   */\n      dup3\n        /* \"#utility.yul\":12826:12861   */\n      tag_358\n      jumpi\n        /* \"#utility.yul\":12841:12859   */\n      tag_359\n      tag_222\n      jump\t// in\n    tag_359:\n        /* \"#utility.yul\":12826:12861   */\n    tag_358:\n        /* \"#utility.yul\":12883:12884   */\n      dup3\n        /* \"#utility.yul\":12880:12881   */\n      dup3\n        /* \"#utility.yul\":12876:12885   */\n      div\n        /* \"#utility.yul\":12871:12885   */\n      swap1\n      pop\n        /* \"#utility.yul\":12706:12891   */\n      swap3\n      swap2\n      pop\n      pop\n      jump\t// out\n        /* \"#utility.yul\":12897:13229   */\n    tag_155:\n        /* \"#utility.yul\":13018:13022   */\n      0x00\n        /* \"#utility.yul\":13056:13058   */\n      0x40\n        /* \"#utility.yul\":13045:13054   */\n      dup3\n        /* \"#utility.yul\":13041:13059   */\n      add\n        /* \"#utility.yul\":13033:13059   */\n      swap1\n      pop\n        /* \"#utility.yul\":13069:13140   */\n      tag_361\n        /* \"#utility.yul\":13137:13138   */\n      0x00\n        /* \"#utility.yul\":13126:13135   */\n      dup4\n        /* \"#utility.yul\":13122:13139   */\n      add\n        /* \"#utility.yul\":13113:13119   */\n      dup6\n        /* \"#utility.yul\":13069:13140   */\n      tag_193\n      jump\t// in\n    tag_361:\n        /* \"#utility.yul\":13150:13222   */\n      tag_362\n        /* \"#utility.yul\":13218:13220   */\n      0x20\n        /* \"#utility.yul\":13207:13216   */\n      dup4\n        /* \"#utility.yul\":13203:13221   */\n      add\n        /* \"#utility.yul\":13194:13200   */\n      dup5\n        /* \"#utility.yul\":13150:13222   */\n      tag_200\n      jump\t// in\n    tag_362:\n        /* \"#utility.yul\":12897:13229   */\n      swap4\n      swap3\n      pop\n      pop\n      pop\n      jump\t// out\n        /* \"#utility.yul\":13235:13382   */\n    tag_223:\n        /* \"#utility.yul\":13336:13347   */\n      0x00\n        /* \"#utility.yul\":13373:13376   */\n      dup2\n        /* \"#utility.yul\":13358:13376   */\n      swap1\n      pop\n        /* \"#utility.yul\":13235:13382   */\n      swap3\n      swap2\n      pop\n      pop\n      jump\t// out\n        /* \"#utility.yul\":13388:13502   */\n    tag_224:\n      pop\n      jump\t// out\n        /* \"#utility.yul\":13508:13906   */\n    tag_225:\n        /* \"#utility.yul\":13667:13670   */\n      0x00\n        /* \"#utility.yul\":13688:13771   */\n      tag_366\n        /* \"#utility.yul\":13769:13770   */\n      0x00\n        /* \"#utility.yul\":13764:13767   */\n      dup4\n        /* \"#utility.yul\":13688:13771   */\n      tag_223\n      jump\t// in\n    tag_366:\n        /* \"#utility.yul\":13681:13771   */\n      swap2\n      pop\n        /* \"#utility.yul\":13780:13873   */\n      tag_367\n        /* \"#utility.yul\":13869:13872   */\n      dup3\n        /* \"#utility.yul\":13780:13873   */\n      tag_224\n      jump\t// in\n    tag_367:\n        /* \"#utility.yul\":13898:13899   */\n      0x00\n        /* \"#utility.yul\":13893:13896   */\n      dup3\n        /* \"#utility.yul\":13889:13900   */\n      add\n        /* \"#utility.yul\":13882:13900   */\n      swap1\n      pop\n        /* \"#utility.yul\":13508:13906   */\n      swap2\n      swap1\n      pop\n      jump\t// out\n        /* \"#utility.yul\":13912:14291   */\n    tag_182:\n        /* \"#utility.yul\":14096:14099   */\n      0x00\n        /* \"#utility.yul\":14118:14265   */\n      tag_369\n        /* \"#utility.yul\":14261:14264   */\n      dup3\n        /* \"#utility.yul\":14118:14265   */\n      tag_225\n      jump\t// in\n    tag_369:\n        /* \"#utility.yul\":14111:14265   */\n      swap2\n      pop\n        /* \"#utility.yul\":14282:14285   */\n      dup2\n        /* \"#utility.yul\":14275:14285   */\n      swap1\n      pop\n        /* \"#utility.yul\":13912:14291   */\n      swap2\n      swap1\n      pop\n      jump\t// out\n        /* \"#utility.yul\":14297:14468   */\n    tag_226:\n        /* \"#utility.yul\":14437:14460   */\n      0x455448207769746864726177616c206661696c65640000000000000000000000\n        /* \"#utility.yul\":14433:14434   */\n      0x00\n        /* \"#utility.yul\":14425:14431   */\n      dup3\n        /* \"#utility.yul\":14421:14435   */\n      add\n        /* \"#utility.yul\":14414:14461   */\n      mstore\n        /* \"#utility.yul\":14297:14468   */\n      pop\n      jump\t// out\n        /* \"#utility.yul\":14474:14840   */\n    tag_227:\n        /* \"#utility.yul\":14616:14619   */\n      0x00\n        /* \"#utility.yul\":14637:14704   */\n      tag_372\n        /* \"#utility.yul\":14701:14703   */\n      0x15\n        /* \"#utility.yul\":14696:14699   */\n      dup4\n        /* \"#utility.yul\":14637:14704   */\n      tag_209\n      jump\t// in\n    tag_372:\n        /* \"#utility.yul\":14630:14704   */\n      swap2\n      pop\n        /* \"#utility.yul\":14713:14806   */\n      tag_373\n        /* \"#utility.yul\":14802:14805   */\n      dup3\n        /* \"#utility.yul\":14713:14806   */\n      tag_226\n      jump\t// in\n    tag_373:\n        /* \"#utility.yul\":14831:14833   */\n      0x20\n        /* \"#utility.yul\":14826:14829   */\n      dup3\n        /* \"#utility.yul\":14822:14834   */\n      add\n        /* \"#utility.yul\":14815:14834   */\n      swap1\n      pop\n        /* \"#utility.yul\":14474:14840   */\n      swap2\n      swap1\n      pop\n      jump\t// out\n        /* \"#utility.yul\":14846:15265   */\n    tag_188:\n        /* \"#utility.yul\":15012:15016   */\n      0x00\n        /* \"#utility.yul\":15050:15052   */\n      0x20\n        /* \"#utility.yul\":15039:15048   */\n      dup3\n        /* \"#utility.yul\":15035:15053   */\n      add\n        /* \"#utility.yul\":15027:15053   */\n      swap1\n      pop\n        /* \"#utility.yul\":15099:15108   */\n      dup2\n        /* \"#utility.yul\":15093:15097   */\n      dup2\n        /* \"#utility.yul\":15089:15109   */\n      sub\n        /* \"#utility.yul\":15085:15086   */\n      0x00\n        /* \"#utility.yul\":15074:15083   */\n      dup4\n        /* \"#utility.yul\":15070:15087   */\n      add\n        /* \"#utility.yul\":15063:15110   */\n      mstore\n        /* \"#utility.yul\":15127:15258   */\n      tag_375\n        /* \"#utility.yul\":15253:15257   */\n      dup2\n        /* \"#utility.yul\":15127:15258   */\n      tag_227\n      jump\t// in\n    tag_375:\n        /* \"#utility.yul\":15119:15258   */\n      swap1\n      pop\n        /* \"#utility.yul\":14846:15265   */\n      swap2\n      swap1\n      pop\n      jump\t// out\n\n    auxdata: 0xa26469706673582212204ef11ad58ce02f439c292e1c780ac0ba71b87423f62c087757c34239ec175e2d64736f6c634300081a0033\n}\n",
				"bytecode": {
					"linkReferences": {},
					"object": "610120604052348015610010575f80fd5b50604051611f50380380611f50833981810160405281019061003291906102c7565b335f73ffffffffffffffffffffffffffffffffffffffff168173ffffffffffffffffffffffffffffffffffffffff16036100a3575f6040517f1e4fbdf700000000000000000000000000000000000000000000000000000000815260040161009a9190610326565b60405180910390fd5b6100b2816101a160201b60201c565b508273ffffffffffffffffffffffffffffffffffffffff1660808173ffffffffffffffffffffffffffffffffffffffff16815250508173ffffffffffffffffffffffffffffffffffffffff1660a08173ffffffffffffffffffffffffffffffffffffffff16815250508073ffffffffffffffffffffffffffffffffffffffff1660c08173ffffffffffffffffffffffffffffffffffffffff16815250503373ffffffffffffffffffffffffffffffffffffffff1660e08173ffffffffffffffffffffffffffffffffffffffff168152505061019161026260201b60201c565b610100818152505050505061033f565b5f805f9054906101000a900473ffffffffffffffffffffffffffffffffffffffff169050815f806101000a81548173ffffffffffffffffffffffffffffffffffffffff021916908373ffffffffffffffffffffffffffffffffffffffff1602179055508173ffffffffffffffffffffffffffffffffffffffff168173ffffffffffffffffffffffffffffffffffffffff167f8be0079c531659141344cd1fd0a4f28419497f9722a3daafe3b4186f6b6457e060405160405180910390a35050565b5f42905090565b5f80fd5b5f73ffffffffffffffffffffffffffffffffffffffff82169050919050565b5f6102968261026d565b9050919050565b6102a68161028c565b81146102b0575f80fd5b50565b5f815190506102c18161029d565b92915050565b5f805f606084860312156102de576102dd610269565b5b5f6102eb868287016102b3565b93505060206102fc868287016102b3565b925050604061030d868287016102b3565b9150509250925092565b6103208161028c565b82525050565b5f6020820190506103395f830184610317565b92915050565b60805160a05160c05160e05161010051611bc561038b5f395f50505f50505f81816105250152610b3001525f81816104cf015261076b01525f818161030f015261047a0152611bc55ff3fe6080604052600436106100c5575f3560e01c80638da5cb5b1161007e578063c483a30811610058578063c483a30814610257578063e1254fba14610281578063f2fde38b146102bd578063f3fef3a3146102e5576100cc565b80638da5cb5b146101af5780638f601f66146101d957806398c61c3714610216576100cc565b80630fc63d10146100d05780632e9708e4146100fa57806347e7ef24146101375780635f64b55b14610153578063715018a61461017d5780637b1a490914610193576100cc565b366100cc57005b5f80fd5b3480156100db575f80fd5b506100e461030d565b6040516100f1919061148a565b60405180910390f35b348015610105575f80fd5b50610120600480360381019061011b91906114d1565b610331565b60405161012e929190611514565b60405180910390f35b610151600480360381019061014c9190611565565b610351565b005b34801561015e575f80fd5b50610167610769565b604051610174919061148a565b60405180910390f35b348015610188575f80fd5b5061019161078d565b005b6101ad60048036038101906101a891906115de565b6107a0565b005b3480156101ba575f80fd5b506101c3610a21565b6040516101d0919061148a565b60405180910390f35b3480156101e4575f80fd5b506101ff60048036038101906101fa919061161c565b610a48565b60405161020d929190611514565b60405180910390f35b348015610221575f80fd5b5061023c60048036038101906102379190611565565b610a73565b60405161024e96959493929190611674565b60405180910390f35b348015610262575f80fd5b5061026b610b2e565b604051610278919061148a565b60405180910390f35b34801561028c575f80fd5b506102a760048036038101906102a291906114d1565b610b52565b6040516102b491906116d3565b60405180910390f35b3480156102c8575f80fd5b506102e360048036038101906102de91906114d1565b610c78565b005b3480156102f0575f80fd5b5061030b60048036038101906103069190611565565b610cfc565b005b7f000000000000000000000000000000000000000000000000000000000000000081565b6002602052805f5260405f205f91509050805f0154908060010154905082565b5f73ffffffffffffffffffffffffffffffffffffffff168273ffffffffffffffffffffffffffffffffffffffff1603610478573460025f3373ffffffffffffffffffffffffffffffffffffffff1673ffffffffffffffffffffffffffffffffffffffff1681526020019081526020015f206001015f8282546103d39190611719565b925050819055506103e261105c565b60025f3373ffffffffffffffffffffffffffffffffffffffff1673ffffffffffffffffffffffffffffffffffffffff1681526020019081526020015f205f01819055503373ffffffffffffffffffffffffffffffffffffffff167f3bc2cc3db9bc1fa24ad4420cf0201d4c07698bf5902c10e3e04a05d343e938c73460405161046b91906116d3565b60405180910390a2610700565b7f000000000000000000000000000000000000000000000000000000000000000073ffffffffffffffffffffffffffffffffffffffff168273ffffffffffffffffffffffffffffffffffffffff16148061051d57507f000000000000000000000000000000000000000000000000000000000000000073ffffffffffffffffffffffffffffffffffffffff168273ffffffffffffffffffffffffffffffffffffffff16145b8061057357507f000000000000000000000000000000000000000000000000000000000000000073ffffffffffffffffffffffffffffffffffffffff168273ffffffffffffffffffffffffffffffffffffffff16145b6105b2576040517f08c379a00000000000000000000000000000000000000000000000000000000081526004016105a9906117a6565b60405180910390fd5b8173ffffffffffffffffffffffffffffffffffffffff166323b872dd3330846040518463ffffffff1660e01b81526004016105ef939291906117c4565b6020604051808303815f875af115801561060b573d5f803e3d5ffd5b505050506040513d601f19601f8201168201806040525081019061062f9190611823565b61066e576040517f08c379a000000000000000000000000000000000000000000000000000000000815260040161066590611898565b60405180910390fd5b8060015f8473ffffffffffffffffffffffffffffffffffffffff1673ffffffffffffffffffffffffffffffffffffffff1681526020019081526020015f205f3373ffffffffffffffffffffffffffffffffffffffff1673ffffffffffffffffffffffffffffffffffffffff1681526020019081526020015f206001015f8282546106f89190611719565b925050819055505b8173ffffffffffffffffffffffffffffffffffffffff163373ffffffffffffffffffffffffffffffffffffffff167f8752a472e571a816aea92eec8dae9baf628e840f4929fbcc2d155e6233ff68a78360405161075d91906116d3565b60405180910390a35050565b7f000000000000000000000000000000000000000000000000000000000000000081565b610795611063565b61079e5f6110ea565b565b5f73ffffffffffffffffffffffffffffffffffffffff168273ffffffffffffffffffffffffffffffffffffffff160361080e576040517f08c379a000000000000000000000000000000000000000000000000000000000815260040161080590611900565b60405180910390fd5b5f8111610850576040517f08c379a000000000000000000000000000000000000000000000000000000000815260040161084790611968565b60405180910390fd5b670de0b6b3a7640000816108649190611986565b60025f3373ffffffffffffffffffffffffffffffffffffffff1673ffffffffffffffffffffffffffffffffffffffff1681526020019081526020015f206001015410156108e6576040517f08c379a00000000000000000000000000000000000000000000000000000000081526004016108dd90611a11565b60405180910390fd5b670de0b6b3a7640000816108fa9190611986565b60025f3373ffffffffffffffffffffffffffffffffffffffff1673ffffffffffffffffffffffffffffffffffffffff1681526020019081526020015f206001015f8282546109489190611a2f565b92505081905550670de0b6b3a7640000816109639190611986565b60025f8473ffffffffffffffffffffffffffffffffffffffff1673ffffffffffffffffffffffffffffffffffffffff1681526020019081526020015f206001015f8282546109b19190611719565b925050819055508173ffffffffffffffffffffffffffffffffffffffff163373ffffffffffffffffffffffffffffffffffffffff167f8dec4e7cfc87eced5c05eafa206697292193ede25a52287bf5fc6cbb0fd84cfa83604051610a1591906116d3565b60405180910390a35050565b5f805f9054906101000a900473ffffffffffffffffffffffffffffffffffffffff16905090565b6001602052815f5260405f20602052805f5260405f205f9150915050805f0154908060010154905082565b6003602052815f5260405f208181548110610a8c575f80fd5b905f5260205f2090600602015f9150915050805f015f9054906101000a900473ffffffffffffffffffffffffffffffffffffffff1690806001015f9054906101000a900473ffffffffffffffffffffffffffffffffffffffff1690806002015490806003015f9054906101000a900473ffffffffffffffffffffffffffffffffffffffff1690806004015490806005015f9054906101000a900460ff16905086565b7f000000000000000000000000000000000000000000000000000000000000000081565b5f8073ffffffffffffffffffffffffffffffffffffffff168273ffffffffffffffffffffffffffffffffffffffff1603610be157670de0b6b3a764000060025f3373ffffffffffffffffffffffffffffffffffffffff1673ffffffffffffffffffffffffffffffffffffffff1681526020019081526020015f2060010154610bda9190611a8f565b9050610c73565b670de0b6b3a764000060015f8473ffffffffffffffffffffffffffffffffffffffff1673ffffffffffffffffffffffffffffffffffffffff1681526020019081526020015f205f3373ffffffffffffffffffffffffffffffffffffffff1673ffffffffffffffffffffffffffffffffffffffff1681526020019081526020015f2060010154610c709190611a8f565b90505b919050565b610c80611063565b5f73ffffffffffffffffffffffffffffffffffffffff168173ffffffffffffffffffffffffffffffffffffffff1603610cf0575f6040517f1e4fbdf7000000000000000000000000000000000000000000000000000000008152600401610ce7919061148a565b60405180910390fd5b610cf9816110ea565b50565b80670de0b6b3a764000060015f8573ffffffffffffffffffffffffffffffffffffffff1673ffffffffffffffffffffffffffffffffffffffff1681526020019081526020015f205f3373ffffffffffffffffffffffffffffffffffffffff1673ffffffffffffffffffffffffffffffffffffffff1681526020019081526020015f2060010154610d8c9190611a8f565b1015610dcd576040517f08c379a0000000000000000000000000000000000000000000000000000000008152600401610dc490611a11565b60405180910390fd5b670de0b6b3a764000081610de19190611986565b60015f8473ffffffffffffffffffffffffffffffffffffffff1673ffffffffffffffffffffffffffffffffffffffff1681526020019081526020015f205f3373ffffffffffffffffffffffffffffffffffffffff1673ffffffffffffffffffffffffffffffffffffffff1681526020019081526020015f206001015f828254610e6a9190611a2f565b92505081905550610e7961105c565b60015f8473ffffffffffffffffffffffffffffffffffffffff1673ffffffffffffffffffffffffffffffffffffffff1681526020019081526020015f205f3373ffffffffffffffffffffffffffffffffffffffff1673ffffffffffffffffffffffffffffffffffffffff1681526020019081526020015f205f01819055505f73ffffffffffffffffffffffffffffffffffffffff168273ffffffffffffffffffffffffffffffffffffffff1603610f3857610f33816111ab565b610ff3565b8173ffffffffffffffffffffffffffffffffffffffff1663a9059cbb33836040518363ffffffff1660e01b8152600401610f73929190611abf565b6020604051808303815f875af1158015610f8f573d5f803e3d5ffd5b505050506040513d601f19601f82011682018060405250810190610fb39190611823565b610ff2576040517f08c379a0000000000000000000000000000000000000000000000000000000008152600401610fe990611898565b60405180910390fd5b5b8173ffffffffffffffffffffffffffffffffffffffff163373ffffffffffffffffffffffffffffffffffffffff167fd1c19fbcd4551a5edfb66d43d2e337c04837afda3482b42bdf569a8fccdae5fb8360405161105091906116d3565b60405180910390a35050565b5f42905090565b61106b611444565b73ffffffffffffffffffffffffffffffffffffffff16611089610a21565b73ffffffffffffffffffffffffffffffffffffffff16146110e8576110ac611444565b6040517f118cdaa70000000000000000000000000000000000000000000000000000000081526004016110df919061148a565b60405180910390fd5b565b5f805f9054906101000a900473ffffffffffffffffffffffffffffffffffffffff169050815f806101000a81548173ffffffffffffffffffffffffffffffffffffffff021916908373ffffffffffffffffffffffffffffffffffffffff1602179055508173ffffffffffffffffffffffffffffffffffffffff168173ffffffffffffffffffffffffffffffffffffffff167f8be0079c531659141344cd1fd0a4f28419497f9722a3daafe3b4186f6b6457e060405160405180910390a35050565b5f81116111ed576040517f08c379a00000000000000000000000000000000000000000000000000000000081526004016111e490611968565b60405180910390fd5b80670de0b6b3a764000060025f3373ffffffffffffffffffffffffffffffffffffffff1673ffffffffffffffffffffffffffffffffffffffff1681526020019081526020015f20600101546112429190611a8f565b1015611283576040517f08c379a000000000000000000000000000000000000000000000000000000000815260040161127a90611a11565b60405180910390fd5b670de0b6b3a7640000816112979190611986565b60025f3373ffffffffffffffffffffffffffffffffffffffff1673ffffffffffffffffffffffffffffffffffffffff1681526020019081526020015f206001015f8282546112e59190611a2f565b925050819055506112f461105c565b60025f3373ffffffffffffffffffffffffffffffffffffffff1673ffffffffffffffffffffffffffffffffffffffff1681526020019081526020015f205f01819055505f3373ffffffffffffffffffffffffffffffffffffffff16670de0b6b3a7640000836113639190611986565b60405161136f90611b13565b5f6040518083038185875af1925050503d805f81146113a9576040519150601f19603f3d011682016040523d82523d5f602084013e6113ae565b606091505b50509050806113f2576040517f08c379a00000000000000000000000000000000000000000000000000000000081526004016113e990611b71565b60405180910390fd5b3373ffffffffffffffffffffffffffffffffffffffff167f94b2de810873337ed265c5f8cf98c9cffefa06b8607f9a2f1fbaebdfbcfbef1c8360405161143891906116d3565b60405180910390a25050565b5f33905090565b5f73ffffffffffffffffffffffffffffffffffffffff82169050919050565b5f6114748261144b565b9050919050565b6114848161146a565b82525050565b5f60208201905061149d5f83018461147b565b92915050565b5f80fd5b6114b08161146a565b81146114ba575f80fd5b50565b5f813590506114cb816114a7565b92915050565b5f602082840312156114e6576114e56114a3565b5b5f6114f3848285016114bd565b91505092915050565b5f819050919050565b61150e816114fc565b82525050565b5f6040820190506115275f830185611505565b6115346020830184611505565b9392505050565b611544816114fc565b811461154e575f80fd5b50565b5f8135905061155f8161153b565b92915050565b5f806040838503121561157b5761157a6114a3565b5b5f611588858286016114bd565b925050602061159985828601611551565b9150509250929050565b5f6115ad8261144b565b9050919050565b6115bd816115a3565b81146115c7575f80fd5b50565b5f813590506115d8816115b4565b92915050565b5f80604083850312156115f4576115f36114a3565b5b5f611601858286016115ca565b925050602061161285828601611551565b9150509250929050565b5f8060408385031215611632576116316114a3565b5b5f61163f858286016114bd565b9250506020611650858286016114bd565b9150509250929050565b5f8115159050919050565b61166e8161165a565b82525050565b5f60c0820190506116875f83018961147b565b611694602083018861147b565b6116a16040830187611505565b6116ae606083018661147b565b6116bb6080830185611505565b6116c860a0830184611665565b979650505050505050565b5f6020820190506116e65f830184611505565b92915050565b7f4e487b71000000000000000000000000000000000000000000000000000000005f52601160045260245ffd5b5f611723826114fc565b915061172e836114fc565b9250828201905080821115611746576117456116ec565b5b92915050565b5f82825260208201905092915050565b7f496e76616c696420746f6b656e000000000000000000000000000000000000005f82015250565b5f611790600d8361174c565b915061179b8261175c565b602082019050919050565b5f6020820190508181035f8301526117bd81611784565b9050919050565b5f6060820190506117d75f83018661147b565b6117e4602083018561147b565b6117f16040830184611505565b949350505050565b6118028161165a565b811461180c575f80fd5b50565b5f8151905061181d816117f9565b92915050565b5f60208284031215611838576118376114a3565b5b5f6118458482850161180f565b91505092915050565b7f5472616e73666572206661696c656400000000000000000000000000000000005f82015250565b5f611882600f8361174c565b915061188d8261184e565b602082019050919050565b5f6020820190508181035f8301526118af81611876565b9050919050565b7f496e76616c6964206164647265737300000000000000000000000000000000005f82015250565b5f6118ea600f8361174c565b91506118f5826118b6565b602082019050919050565b5f6020820190508181035f830152611917816118de565b9050919050565b7f416d6f756e74206d7573742062652067726561746572207468616e20300000005f82015250565b5f611952601d8361174c565b915061195d8261191e565b602082019050919050565b5f6020820190508181035f83015261197f81611946565b9050919050565b5f611990826114fc565b915061199b836114fc565b92508282026119a9816114fc565b915082820484148315176119c0576119bf6116ec565b5b5092915050565b7f496e73756666696369656e742062616c616e63650000000000000000000000005f82015250565b5f6119fb60148361174c565b9150611a06826119c7565b602082019050919050565b5f6020820190508181035f830152611a28816119ef565b9050919050565b5f611a39826114fc565b9150611a44836114fc565b9250828203905081811115611a5c57611a5b6116ec565b5b92915050565b7f4e487b71000000000000000000000000000000000000000000000000000000005f52601260045260245ffd5b5f611a99826114fc565b9150611aa4836114fc565b925082611ab457611ab3611a62565b5b828204905092915050565b5f604082019050611ad25f83018561147b565b611adf6020830184611505565b9392505050565b5f81905092915050565b50565b5f611afe5f83611ae6565b9150611b0982611af0565b5f82019050919050565b5f611b1d82611af3565b9150819050919050565b7f455448207769746864726177616c206661696c656400000000000000000000005f82015250565b5f611b5b60158361174c565b9150611b6682611b27565b602082019050919050565b5f6020820190508181035f830152611b8881611b4f565b905091905056fea26469706673582212204ef11ad58ce02f439c292e1c780ac0ba71b87423f62c087757c34239ec175e2d64736f6c634300081a0033",
					"opcodes": "PUSH2 0x120 PUSH1 0x40 MSTORE CALLVALUE DUP1 ISZERO PUSH2 0x10 JUMPI PUSH0 DUP1 REVERT JUMPDEST POP PUSH1 0x40 MLOAD PUSH2 0x1F50 CODESIZE SUB DUP1 PUSH2 0x1F50 DUP4 CODECOPY DUP2 DUP2 ADD PUSH1 0x40 MSTORE DUP2 ADD SWAP1 PUSH2 0x32 SWAP2 SWAP1 PUSH2 0x2C7 JUMP JUMPDEST CALLER PUSH0 PUSH20 0xFFFFFFFFFFFFFFFFFFFFFFFFFFFFFFFFFFFFFFFF AND DUP2 PUSH20 0xFFFFFFFFFFFFFFFFFFFFFFFFFFFFFFFFFFFFFFFF AND SUB PUSH2 0xA3 JUMPI PUSH0 PUSH1 0x40 MLOAD PUSH32 0x1E4FBDF700000000000000000000000000000000000000000000000000000000 DUP2 MSTORE PUSH1 0x4 ADD PUSH2 0x9A SWAP2 SWAP1 PUSH2 0x326 JUMP JUMPDEST PUSH1 0x40 MLOAD DUP1 SWAP2 SUB SWAP1 REVERT JUMPDEST PUSH2 0xB2 DUP2 PUSH2 0x1A1 PUSH1 0x20 SHL PUSH1 0x20 SHR JUMP JUMPDEST POP DUP3 PUSH20 0xFFFFFFFFFFFFFFFFFFFFFFFFFFFFFFFFFFFFFFFF AND PUSH1 0x80 DUP2 PUSH20 0xFFFFFFFFFFFFFFFFFFFFFFFFFFFFFFFFFFFFFFFF AND DUP2 MSTORE POP POP DUP2 PUSH20 0xFFFFFFFFFFFFFFFFFFFFFFFFFFFFFFFFFFFFFFFF AND PUSH1 0xA0 DUP2 PUSH20 0xFFFFFFFFFFFFFFFFFFFFFFFFFFFFFFFFFFFFFFFF AND DUP2 MSTORE POP POP DUP1 PUSH20 0xFFFFFFFFFFFFFFFFFFFFFFFFFFFFFFFFFFFFFFFF AND PUSH1 0xC0 DUP2 PUSH20 0xFFFFFFFFFFFFFFFFFFFFFFFFFFFFFFFFFFFFFFFF AND DUP2 MSTORE POP POP CALLER PUSH20 0xFFFFFFFFFFFFFFFFFFFFFFFFFFFFFFFFFFFFFFFF AND PUSH1 0xE0 DUP2 PUSH20 0xFFFFFFFFFFFFFFFFFFFFFFFFFFFFFFFFFFFFFFFF AND DUP2 MSTORE POP POP PUSH2 0x191 PUSH2 0x262 PUSH1 0x20 SHL PUSH1 0x20 SHR JUMP JUMPDEST PUSH2 0x100 DUP2 DUP2 MSTORE POP POP POP POP POP PUSH2 0x33F JUMP JUMPDEST PUSH0 DUP1 PUSH0 SWAP1 SLOAD SWAP1 PUSH2 0x100 EXP SWAP1 DIV PUSH20 0xFFFFFFFFFFFFFFFFFFFFFFFFFFFFFFFFFFFFFFFF AND SWAP1 POP DUP2 PUSH0 DUP1 PUSH2 0x100 EXP DUP2 SLOAD DUP2 PUSH20 0xFFFFFFFFFFFFFFFFFFFFFFFFFFFFFFFFFFFFFFFF MUL NOT AND SWAP1 DUP4 PUSH20 0xFFFFFFFFFFFFFFFFFFFFFFFFFFFFFFFFFFFFFFFF AND MUL OR SWAP1 SSTORE POP DUP2 PUSH20 0xFFFFFFFFFFFFFFFFFFFFFFFFFFFFFFFFFFFFFFFF AND DUP2 PUSH20 0xFFFFFFFFFFFFFFFFFFFFFFFFFFFFFFFFFFFFFFFF AND PUSH32 0x8BE0079C531659141344CD1FD0A4F28419497F9722A3DAAFE3B4186F6B6457E0 PUSH1 0x40 MLOAD PUSH1 0x40 MLOAD DUP1 SWAP2 SUB SWAP1 LOG3 POP POP JUMP JUMPDEST PUSH0 TIMESTAMP SWAP1 POP SWAP1 JUMP JUMPDEST PUSH0 DUP1 REVERT JUMPDEST PUSH0 PUSH20 0xFFFFFFFFFFFFFFFFFFFFFFFFFFFFFFFFFFFFFFFF DUP3 AND SWAP1 POP SWAP2 SWAP1 POP JUMP JUMPDEST PUSH0 PUSH2 0x296 DUP3 PUSH2 0x26D JUMP JUMPDEST SWAP1 POP SWAP2 SWAP1 POP JUMP JUMPDEST PUSH2 0x2A6 DUP2 PUSH2 0x28C JUMP JUMPDEST DUP2 EQ PUSH2 0x2B0 JUMPI PUSH0 DUP1 REVERT JUMPDEST POP JUMP JUMPDEST PUSH0 DUP2 MLOAD SWAP1 POP PUSH2 0x2C1 DUP2 PUSH2 0x29D JUMP JUMPDEST SWAP3 SWAP2 POP POP JUMP JUMPDEST PUSH0 DUP1 PUSH0 PUSH1 0x60 DUP5 DUP7 SUB SLT ISZERO PUSH2 0x2DE JUMPI PUSH2 0x2DD PUSH2 0x269 JUMP JUMPDEST JUMPDEST PUSH0 PUSH2 0x2EB DUP7 DUP3 DUP8 ADD PUSH2 0x2B3 JUMP JUMPDEST SWAP4 POP POP PUSH1 0x20 PUSH2 0x2FC DUP7 DUP3 DUP8 ADD PUSH2 0x2B3 JUMP JUMPDEST SWAP3 POP POP PUSH1 0x40 PUSH2 0x30D DUP7 DUP3 DUP8 ADD PUSH2 0x2B3 JUMP JUMPDEST SWAP2 POP POP SWAP3 POP SWAP3 POP SWAP3 JUMP JUMPDEST PUSH2 0x320 DUP2 PUSH2 0x28C JUMP JUMPDEST DUP3 MSTORE POP POP JUMP JUMPDEST PUSH0 PUSH1 0x20 DUP3 ADD SWAP1 POP PUSH2 0x339 PUSH0 DUP4 ADD DUP5 PUSH2 0x317 JUMP JUMPDEST SWAP3 SWAP2 POP POP JUMP JUMPDEST PUSH1 0x80 MLOAD PUSH1 0xA0 MLOAD PUSH1 0xC0 MLOAD PUSH1 0xE0 MLOAD PUSH2 0x100 MLOAD PUSH2 0x1BC5 PUSH2 0x38B PUSH0 CODECOPY PUSH0 POP POP PUSH0 POP POP PUSH0 DUP2 DUP2 PUSH2 0x525 ADD MSTORE PUSH2 0xB30 ADD MSTORE PUSH0 DUP2 DUP2 PUSH2 0x4CF ADD MSTORE PUSH2 0x76B ADD MSTORE PUSH0 DUP2 DUP2 PUSH2 0x30F ADD MSTORE PUSH2 0x47A ADD MSTORE PUSH2 0x1BC5 PUSH0 RETURN INVALID PUSH1 0x80 PUSH1 0x40 MSTORE PUSH1 0x4 CALLDATASIZE LT PUSH2 0xC5 JUMPI PUSH0 CALLDATALOAD PUSH1 0xE0 SHR DUP1 PUSH4 0x8DA5CB5B GT PUSH2 0x7E JUMPI DUP1 PUSH4 0xC483A308 GT PUSH2 0x58 JUMPI DUP1 PUSH4 0xC483A308 EQ PUSH2 0x257 JUMPI DUP1 PUSH4 0xE1254FBA EQ PUSH2 0x281 JUMPI DUP1 PUSH4 0xF2FDE38B EQ PUSH2 0x2BD JUMPI DUP1 PUSH4 0xF3FEF3A3 EQ PUSH2 0x2E5 JUMPI PUSH2 0xCC JUMP JUMPDEST DUP1 PUSH4 0x8DA5CB5B EQ PUSH2 0x1AF JUMPI DUP1 PUSH4 0x8F601F66 EQ PUSH2 0x1D9 JUMPI DUP1 PUSH4 0x98C61C37 EQ PUSH2 0x216 JUMPI PUSH2 0xCC JUMP JUMPDEST DUP1 PUSH4 0xFC63D10 EQ PUSH2 0xD0 JUMPI DUP1 PUSH4 0x2E9708E4 EQ PUSH2 0xFA JUMPI DUP1 PUSH4 0x47E7EF24 EQ PUSH2 0x137 JUMPI DUP1 PUSH4 0x5F64B55B EQ PUSH2 0x153 JUMPI DUP1 PUSH4 0x715018A6 EQ PUSH2 0x17D JUMPI DUP1 PUSH4 0x7B1A4909 EQ PUSH2 0x193 JUMPI PUSH2 0xCC JUMP JUMPDEST CALLDATASIZE PUSH2 0xCC JUMPI STOP JUMPDEST PUSH0 DUP1 REVERT JUMPDEST CALLVALUE DUP1 ISZERO PUSH2 0xDB JUMPI PUSH0 DUP1 REVERT JUMPDEST POP PUSH2 0xE4 PUSH2 0x30D JUMP JUMPDEST PUSH1 0x40 MLOAD PUSH2 0xF1 SWAP2 SWAP1 PUSH2 0x148A JUMP JUMPDEST PUSH1 0x40 MLOAD DUP1 SWAP2 SUB SWAP1 RETURN JUMPDEST CALLVALUE DUP1 ISZERO PUSH2 0x105 JUMPI PUSH0 DUP1 REVERT JUMPDEST POP PUSH2 0x120 PUSH1 0x4 DUP1 CALLDATASIZE SUB DUP2 ADD SWAP1 PUSH2 0x11B SWAP2 SWAP1 PUSH2 0x14D1 JUMP JUMPDEST PUSH2 0x331 JUMP JUMPDEST PUSH1 0x40 MLOAD PUSH2 0x12E SWAP3 SWAP2 SWAP1 PUSH2 0x1514 JUMP JUMPDEST PUSH1 0x40 MLOAD DUP1 SWAP2 SUB SWAP1 RETURN JUMPDEST PUSH2 0x151 PUSH1 0x4 DUP1 CALLDATASIZE SUB DUP2 ADD SWAP1 PUSH2 0x14C SWAP2 SWAP1 PUSH2 0x1565 JUMP JUMPDEST PUSH2 0x351 JUMP JUMPDEST STOP JUMPDEST CALLVALUE DUP1 ISZERO PUSH2 0x15E JUMPI PUSH0 DUP1 REVERT JUMPDEST POP PUSH2 0x167 PUSH2 0x769 JUMP JUMPDEST PUSH1 0x40 MLOAD PUSH2 0x174 SWAP2 SWAP1 PUSH2 0x148A JUMP JUMPDEST PUSH1 0x40 MLOAD DUP1 SWAP2 SUB SWAP1 RETURN JUMPDEST CALLVALUE DUP1 ISZERO PUSH2 0x188 JUMPI PUSH0 DUP1 REVERT JUMPDEST POP PUSH2 0x191 PUSH2 0x78D JUMP JUMPDEST STOP JUMPDEST PUSH2 0x1AD PUSH1 0x4 DUP1 CALLDATASIZE SUB DUP2 ADD SWAP1 PUSH2 0x1A8 SWAP2 SWAP1 PUSH2 0x15DE JUMP JUMPDEST PUSH2 0x7A0 JUMP JUMPDEST STOP JUMPDEST CALLVALUE DUP1 ISZERO PUSH2 0x1BA JUMPI PUSH0 DUP1 REVERT JUMPDEST POP PUSH2 0x1C3 PUSH2 0xA21 JUMP JUMPDEST PUSH1 0x40 MLOAD PUSH2 0x1D0 SWAP2 SWAP1 PUSH2 0x148A JUMP JUMPDEST PUSH1 0x40 MLOAD DUP1 SWAP2 SUB SWAP1 RETURN JUMPDEST CALLVALUE DUP1 ISZERO PUSH2 0x1E4 JUMPI PUSH0 DUP1 REVERT JUMPDEST POP PUSH2 0x1FF PUSH1 0x4 DUP1 CALLDATASIZE SUB DUP2 ADD SWAP1 PUSH2 0x1FA SWAP2 SWAP1 PUSH2 0x161C JUMP JUMPDEST PUSH2 0xA48 JUMP JUMPDEST PUSH1 0x40 MLOAD PUSH2 0x20D SWAP3 SWAP2 SWAP1 PUSH2 0x1514 JUMP JUMPDEST PUSH1 0x40 MLOAD DUP1 SWAP2 SUB SWAP1 RETURN JUMPDEST CALLVALUE DUP1 ISZERO PUSH2 0x221 JUMPI PUSH0 DUP1 REVERT JUMPDEST POP PUSH2 0x23C PUSH1 0x4 DUP1 CALLDATASIZE SUB DUP2 ADD SWAP1 PUSH2 0x237 SWAP2 SWAP1 PUSH2 0x1565 JUMP JUMPDEST PUSH2 0xA73 JUMP JUMPDEST PUSH1 0x40 MLOAD PUSH2 0x24E SWAP7 SWAP6 SWAP5 SWAP4 SWAP3 SWAP2 SWAP1 PUSH2 0x1674 JUMP JUMPDEST PUSH1 0x40 MLOAD DUP1 SWAP2 SUB SWAP1 RETURN JUMPDEST CALLVALUE DUP1 ISZERO PUSH2 0x262 JUMPI PUSH0 DUP1 REVERT JUMPDEST POP PUSH2 0x26B PUSH2 0xB2E JUMP JUMPDEST PUSH1 0x40 MLOAD PUSH2 0x278 SWAP2 SWAP1 PUSH2 0x148A JUMP JUMPDEST PUSH1 0x40 MLOAD DUP1 SWAP2 SUB SWAP1 RETURN JUMPDEST CALLVALUE DUP1 ISZERO PUSH2 0x28C JUMPI PUSH0 DUP1 REVERT JUMPDEST POP PUSH2 0x2A7 PUSH1 0x4 DUP1 CALLDATASIZE SUB DUP2 ADD SWAP1 PUSH2 0x2A2 SWAP2 SWAP1 PUSH2 0x14D1 JUMP JUMPDEST PUSH2 0xB52 JUMP JUMPDEST PUSH1 0x40 MLOAD PUSH2 0x2B4 SWAP2 SWAP1 PUSH2 0x16D3 JUMP JUMPDEST PUSH1 0x40 MLOAD DUP1 SWAP2 SUB SWAP1 RETURN JUMPDEST CALLVALUE DUP1 ISZERO PUSH2 0x2C8 JUMPI PUSH0 DUP1 REVERT JUMPDEST POP PUSH2 0x2E3 PUSH1 0x4 DUP1 CALLDATASIZE SUB DUP2 ADD SWAP1 PUSH2 0x2DE SWAP2 SWAP1 PUSH2 0x14D1 JUMP JUMPDEST PUSH2 0xC78 JUMP JUMPDEST STOP JUMPDEST CALLVALUE DUP1 ISZERO PUSH2 0x2F0 JUMPI PUSH0 DUP1 REVERT JUMPDEST POP PUSH2 0x30B PUSH1 0x4 DUP1 CALLDATASIZE SUB DUP2 ADD SWAP1 PUSH2 0x306 SWAP2 SWAP1 PUSH2 0x1565 JUMP JUMPDEST PUSH2 0xCFC JUMP JUMPDEST STOP JUMPDEST PUSH32 0x0 DUP2 JUMP JUMPDEST PUSH1 0x2 PUSH1 0x20 MSTORE DUP1 PUSH0 MSTORE PUSH1 0x40 PUSH0 KECCAK256 PUSH0 SWAP2 POP SWAP1 POP DUP1 PUSH0 ADD SLOAD SWAP1 DUP1 PUSH1 0x1 ADD SLOAD SWAP1 POP DUP3 JUMP JUMPDEST PUSH0 PUSH20 0xFFFFFFFFFFFFFFFFFFFFFFFFFFFFFFFFFFFFFFFF AND DUP3 PUSH20 0xFFFFFFFFFFFFFFFFFFFFFFFFFFFFFFFFFFFFFFFF AND SUB PUSH2 0x478 JUMPI CALLVALUE PUSH1 0x2 PUSH0 CALLER PUSH20 0xFFFFFFFFFFFFFFFFFFFFFFFFFFFFFFFFFFFFFFFF AND PUSH20 0xFFFFFFFFFFFFFFFFFFFFFFFFFFFFFFFFFFFFFFFF AND DUP2 MSTORE PUSH1 0x20 ADD SWAP1 DUP2 MSTORE PUSH1 0x20 ADD PUSH0 KECCAK256 PUSH1 0x1 ADD PUSH0 DUP3 DUP3 SLOAD PUSH2 0x3D3 SWAP2 SWAP1 PUSH2 0x1719 JUMP JUMPDEST SWAP3 POP POP DUP2 SWAP1 SSTORE POP PUSH2 0x3E2 PUSH2 0x105C JUMP JUMPDEST PUSH1 0x2 PUSH0 CALLER PUSH20 0xFFFFFFFFFFFFFFFFFFFFFFFFFFFFFFFFFFFFFFFF AND PUSH20 0xFFFFFFFFFFFFFFFFFFFFFFFFFFFFFFFFFFFFFFFF AND DUP2 MSTORE PUSH1 0x20 ADD SWAP1 DUP2 MSTORE PUSH1 0x20 ADD PUSH0 KECCAK256 PUSH0 ADD DUP2 SWAP1 SSTORE POP CALLER PUSH20 0xFFFFFFFFFFFFFFFFFFFFFFFFFFFFFFFFFFFFFFFF AND PUSH32 0x3BC2CC3DB9BC1FA24AD4420CF0201D4C07698BF5902C10E3E04A05D343E938C7 CALLVALUE PUSH1 0x40 MLOAD PUSH2 0x46B SWAP2 SWAP1 PUSH2 0x16D3 JUMP JUMPDEST PUSH1 0x40 MLOAD DUP1 SWAP2 SUB SWAP1 LOG2 PUSH2 0x700 JUMP JUMPDEST PUSH32 0x0 PUSH20 0xFFFFFFFFFFFFFFFFFFFFFFFFFFFFFFFFFFFFFFFF AND DUP3 PUSH20 0xFFFFFFFFFFFFFFFFFFFFFFFFFFFFFFFFFFFFFFFF AND EQ DUP1 PUSH2 0x51D JUMPI POP PUSH32 0x0 PUSH20 0xFFFFFFFFFFFFFFFFFFFFFFFFFFFFFFFFFFFFFFFF AND DUP3 PUSH20 0xFFFFFFFFFFFFFFFFFFFFFFFFFFFFFFFFFFFFFFFF AND EQ JUMPDEST DUP1 PUSH2 0x573 JUMPI POP PUSH32 0x0 PUSH20 0xFFFFFFFFFFFFFFFFFFFFFFFFFFFFFFFFFFFFFFFF AND DUP3 PUSH20 0xFFFFFFFFFFFFFFFFFFFFFFFFFFFFFFFFFFFFFFFF AND EQ JUMPDEST PUSH2 0x5B2 JUMPI PUSH1 0x40 MLOAD PUSH32 0x8C379A000000000000000000000000000000000000000000000000000000000 DUP2 MSTORE PUSH1 0x4 ADD PUSH2 0x5A9 SWAP1 PUSH2 0x17A6 JUMP JUMPDEST PUSH1 0x40 MLOAD DUP1 SWAP2 SUB SWAP1 REVERT JUMPDEST DUP2 PUSH20 0xFFFFFFFFFFFFFFFFFFFFFFFFFFFFFFFFFFFFFFFF AND PUSH4 0x23B872DD CALLER ADDRESS DUP5 PUSH1 0x40 MLOAD DUP5 PUSH4 0xFFFFFFFF AND PUSH1 0xE0 SHL DUP2 MSTORE PUSH1 0x4 ADD PUSH2 0x5EF SWAP4 SWAP3 SWAP2 SWAP1 PUSH2 0x17C4 JUMP JUMPDEST PUSH1 0x20 PUSH1 0x40 MLOAD DUP1 DUP4 SUB DUP2 PUSH0 DUP8 GAS CALL ISZERO DUP1 ISZERO PUSH2 0x60B JUMPI RETURNDATASIZE PUSH0 DUP1 RETURNDATACOPY RETURNDATASIZE PUSH0 REVERT JUMPDEST POP POP POP POP PUSH1 0x40 MLOAD RETURNDATASIZE PUSH1 0x1F NOT PUSH1 0x1F DUP3 ADD AND DUP3 ADD DUP1 PUSH1 0x40 MSTORE POP DUP2 ADD SWAP1 PUSH2 0x62F SWAP2 SWAP1 PUSH2 0x1823 JUMP JUMPDEST PUSH2 0x66E JUMPI PUSH1 0x40 MLOAD PUSH32 0x8C379A000000000000000000000000000000000000000000000000000000000 DUP2 MSTORE PUSH1 0x4 ADD PUSH2 0x665 SWAP1 PUSH2 0x1898 JUMP JUMPDEST PUSH1 0x40 MLOAD DUP1 SWAP2 SUB SWAP1 REVERT JUMPDEST DUP1 PUSH1 0x1 PUSH0 DUP5 PUSH20 0xFFFFFFFFFFFFFFFFFFFFFFFFFFFFFFFFFFFFFFFF AND PUSH20 0xFFFFFFFFFFFFFFFFFFFFFFFFFFFFFFFFFFFFFFFF AND DUP2 MSTORE PUSH1 0x20 ADD SWAP1 DUP2 MSTORE PUSH1 0x20 ADD PUSH0 KECCAK256 PUSH0 CALLER PUSH20 0xFFFFFFFFFFFFFFFFFFFFFFFFFFFFFFFFFFFFFFFF AND PUSH20 0xFFFFFFFFFFFFFFFFFFFFFFFFFFFFFFFFFFFFFFFF AND DUP2 MSTORE PUSH1 0x20 ADD SWAP1 DUP2 MSTORE PUSH1 0x20 ADD PUSH0 KECCAK256 PUSH1 0x1 ADD PUSH0 DUP3 DUP3 SLOAD PUSH2 0x6F8 SWAP2 SWAP1 PUSH2 0x1719 JUMP JUMPDEST SWAP3 POP POP DUP2 SWAP1 SSTORE POP JUMPDEST DUP2 PUSH20 0xFFFFFFFFFFFFFFFFFFFFFFFFFFFFFFFFFFFFFFFF AND CALLER PUSH20 0xFFFFFFFFFFFFFFFFFFFFFFFFFFFFFFFFFFFFFFFF AND PUSH32 0x8752A472E571A816AEA92EEC8DAE9BAF628E840F4929FBCC2D155E6233FF68A7 DUP4 PUSH1 0x40 MLOAD PUSH2 0x75D SWAP2 SWAP1 PUSH2 0x16D3 JUMP JUMPDEST PUSH1 0x40 MLOAD DUP1 SWAP2 SUB SWAP1 LOG3 POP POP JUMP JUMPDEST PUSH32 0x0 DUP2 JUMP JUMPDEST PUSH2 0x795 PUSH2 0x1063 JUMP JUMPDEST PUSH2 0x79E PUSH0 PUSH2 0x10EA JUMP JUMPDEST JUMP JUMPDEST PUSH0 PUSH20 0xFFFFFFFFFFFFFFFFFFFFFFFFFFFFFFFFFFFFFFFF AND DUP3 PUSH20 0xFFFFFFFFFFFFFFFFFFFFFFFFFFFFFFFFFFFFFFFF AND SUB PUSH2 0x80E JUMPI PUSH1 0x40 MLOAD PUSH32 0x8C379A000000000000000000000000000000000000000000000000000000000 DUP2 MSTORE PUSH1 0x4 ADD PUSH2 0x805 SWAP1 PUSH2 0x1900 JUMP JUMPDEST PUSH1 0x40 MLOAD DUP1 SWAP2 SUB SWAP1 REVERT JUMPDEST PUSH0 DUP2 GT PUSH2 0x850 JUMPI PUSH1 0x40 MLOAD PUSH32 0x8C379A000000000000000000000000000000000000000000000000000000000 DUP2 MSTORE PUSH1 0x4 ADD PUSH2 0x847 SWAP1 PUSH2 0x1968 JUMP JUMPDEST PUSH1 0x40 MLOAD DUP1 SWAP2 SUB SWAP1 REVERT JUMPDEST PUSH8 0xDE0B6B3A7640000 DUP2 PUSH2 0x864 SWAP2 SWAP1 PUSH2 0x1986 JUMP JUMPDEST PUSH1 0x2 PUSH0 CALLER PUSH20 0xFFFFFFFFFFFFFFFFFFFFFFFFFFFFFFFFFFFFFFFF AND PUSH20 0xFFFFFFFFFFFFFFFFFFFFFFFFFFFFFFFFFFFFFFFF AND DUP2 MSTORE PUSH1 0x20 ADD SWAP1 DUP2 MSTORE PUSH1 0x20 ADD PUSH0 KECCAK256 PUSH1 0x1 ADD SLOAD LT ISZERO PUSH2 0x8E6 JUMPI PUSH1 0x40 MLOAD PUSH32 0x8C379A000000000000000000000000000000000000000000000000000000000 DUP2 MSTORE PUSH1 0x4 ADD PUSH2 0x8DD SWAP1 PUSH2 0x1A11 JUMP JUMPDEST PUSH1 0x40 MLOAD DUP1 SWAP2 SUB SWAP1 REVERT JUMPDEST PUSH8 0xDE0B6B3A7640000 DUP2 PUSH2 0x8FA SWAP2 SWAP1 PUSH2 0x1986 JUMP JUMPDEST PUSH1 0x2 PUSH0 CALLER PUSH20 0xFFFFFFFFFFFFFFFFFFFFFFFFFFFFFFFFFFFFFFFF AND PUSH20 0xFFFFFFFFFFFFFFFFFFFFFFFFFFFFFFFFFFFFFFFF AND DUP2 MSTORE PUSH1 0x20 ADD SWAP1 DUP2 MSTORE PUSH1 0x20 ADD PUSH0 KECCAK256 PUSH1 0x1 ADD PUSH0 DUP3 DUP3 SLOAD PUSH2 0x948 SWAP2 SWAP1 PUSH2 0x1A2F JUMP JUMPDEST SWAP3 POP POP DUP2 SWAP1 SSTORE POP PUSH8 0xDE0B6B3A7640000 DUP2 PUSH2 0x963 SWAP2 SWAP1 PUSH2 0x1986 JUMP JUMPDEST PUSH1 0x2 PUSH0 DUP5 PUSH20 0xFFFFFFFFFFFFFFFFFFFFFFFFFFFFFFFFFFFFFFFF AND PUSH20 0xFFFFFFFFFFFFFFFFFFFFFFFFFFFFFFFFFFFFFFFF AND DUP2 MSTORE PUSH1 0x20 ADD SWAP1 DUP2 MSTORE PUSH1 0x20 ADD PUSH0 KECCAK256 PUSH1 0x1 ADD PUSH0 DUP3 DUP3 SLOAD PUSH2 0x9B1 SWAP2 SWAP1 PUSH2 0x1719 JUMP JUMPDEST SWAP3 POP POP DUP2 SWAP1 SSTORE POP DUP2 PUSH20 0xFFFFFFFFFFFFFFFFFFFFFFFFFFFFFFFFFFFFFFFF AND CALLER PUSH20 0xFFFFFFFFFFFFFFFFFFFFFFFFFFFFFFFFFFFFFFFF AND PUSH32 0x8DEC4E7CFC87ECED5C05EAFA206697292193EDE25A52287BF5FC6CBB0FD84CFA DUP4 PUSH1 0x40 MLOAD PUSH2 0xA15 SWAP2 SWAP1 PUSH2 0x16D3 JUMP JUMPDEST PUSH1 0x40 MLOAD DUP1 SWAP2 SUB SWAP1 LOG3 POP POP JUMP JUMPDEST PUSH0 DUP1 PUSH0 SWAP1 SLOAD SWAP1 PUSH2 0x100 EXP SWAP1 DIV PUSH20 0xFFFFFFFFFFFFFFFFFFFFFFFFFFFFFFFFFFFFFFFF AND SWAP1 POP SWAP1 JUMP JUMPDEST PUSH1 0x1 PUSH1 0x20 MSTORE DUP2 PUSH0 MSTORE PUSH1 0x40 PUSH0 KECCAK256 PUSH1 0x20 MSTORE DUP1 PUSH0 MSTORE PUSH1 0x40 PUSH0 KECCAK256 PUSH0 SWAP2 POP SWAP2 POP POP DUP1 PUSH0 ADD SLOAD SWAP1 DUP1 PUSH1 0x1 ADD SLOAD SWAP1 POP DUP3 JUMP JUMPDEST PUSH1 0x3 PUSH1 0x20 MSTORE DUP2 PUSH0 MSTORE PUSH1 0x40 PUSH0 KECCAK256 DUP2 DUP2 SLOAD DUP2 LT PUSH2 0xA8C JUMPI PUSH0 DUP1 REVERT JUMPDEST SWAP1 PUSH0 MSTORE PUSH1 0x20 PUSH0 KECCAK256 SWAP1 PUSH1 0x6 MUL ADD PUSH0 SWAP2 POP SWAP2 POP POP DUP1 PUSH0 ADD PUSH0 SWAP1 SLOAD SWAP1 PUSH2 0x100 EXP SWAP1 DIV PUSH20 0xFFFFFFFFFFFFFFFFFFFFFFFFFFFFFFFFFFFFFFFF AND SWAP1 DUP1 PUSH1 0x1 ADD PUSH0 SWAP1 SLOAD SWAP1 PUSH2 0x100 EXP SWAP1 DIV PUSH20 0xFFFFFFFFFFFFFFFFFFFFFFFFFFFFFFFFFFFFFFFF AND SWAP1 DUP1 PUSH1 0x2 ADD SLOAD SWAP1 DUP1 PUSH1 0x3 ADD PUSH0 SWAP1 SLOAD SWAP1 PUSH2 0x100 EXP SWAP1 DIV PUSH20 0xFFFFFFFFFFFFFFFFFFFFFFFFFFFFFFFFFFFFFFFF AND SWAP1 DUP1 PUSH1 0x4 ADD SLOAD SWAP1 DUP1 PUSH1 0x5 ADD PUSH0 SWAP1 SLOAD SWAP1 PUSH2 0x100 EXP SWAP1 DIV PUSH1 0xFF AND SWAP1 POP DUP7 JUMP JUMPDEST PUSH32 0x0 DUP2 JUMP JUMPDEST PUSH0 DUP1 PUSH20 0xFFFFFFFFFFFFFFFFFFFFFFFFFFFFFFFFFFFFFFFF AND DUP3 PUSH20 0xFFFFFFFFFFFFFFFFFFFFFFFFFFFFFFFFFFFFFFFF AND SUB PUSH2 0xBE1 JUMPI PUSH8 0xDE0B6B3A7640000 PUSH1 0x2 PUSH0 CALLER PUSH20 0xFFFFFFFFFFFFFFFFFFFFFFFFFFFFFFFFFFFFFFFF AND PUSH20 0xFFFFFFFFFFFFFFFFFFFFFFFFFFFFFFFFFFFFFFFF AND DUP2 MSTORE PUSH1 0x20 ADD SWAP1 DUP2 MSTORE PUSH1 0x20 ADD PUSH0 KECCAK256 PUSH1 0x1 ADD SLOAD PUSH2 0xBDA SWAP2 SWAP1 PUSH2 0x1A8F JUMP JUMPDEST SWAP1 POP PUSH2 0xC73 JUMP JUMPDEST PUSH8 0xDE0B6B3A7640000 PUSH1 0x1 PUSH0 DUP5 PUSH20 0xFFFFFFFFFFFFFFFFFFFFFFFFFFFFFFFFFFFFFFFF AND PUSH20 0xFFFFFFFFFFFFFFFFFFFFFFFFFFFFFFFFFFFFFFFF AND DUP2 MSTORE PUSH1 0x20 ADD SWAP1 DUP2 MSTORE PUSH1 0x20 ADD PUSH0 KECCAK256 PUSH0 CALLER PUSH20 0xFFFFFFFFFFFFFFFFFFFFFFFFFFFFFFFFFFFFFFFF AND PUSH20 0xFFFFFFFFFFFFFFFFFFFFFFFFFFFFFFFFFFFFFFFF AND DUP2 MSTORE PUSH1 0x20 ADD SWAP1 DUP2 MSTORE PUSH1 0x20 ADD PUSH0 KECCAK256 PUSH1 0x1 ADD SLOAD PUSH2 0xC70 SWAP2 SWAP1 PUSH2 0x1A8F JUMP JUMPDEST SWAP1 POP JUMPDEST SWAP2 SWAP1 POP JUMP JUMPDEST PUSH2 0xC80 PUSH2 0x1063 JUMP JUMPDEST PUSH0 PUSH20 0xFFFFFFFFFFFFFFFFFFFFFFFFFFFFFFFFFFFFFFFF AND DUP2 PUSH20 0xFFFFFFFFFFFFFFFFFFFFFFFFFFFFFFFFFFFFFFFF AND SUB PUSH2 0xCF0 JUMPI PUSH0 PUSH1 0x40 MLOAD PUSH32 0x1E4FBDF700000000000000000000000000000000000000000000000000000000 DUP2 MSTORE PUSH1 0x4 ADD PUSH2 0xCE7 SWAP2 SWAP1 PUSH2 0x148A JUMP JUMPDEST PUSH1 0x40 MLOAD DUP1 SWAP2 SUB SWAP1 REVERT JUMPDEST PUSH2 0xCF9 DUP2 PUSH2 0x10EA JUMP JUMPDEST POP JUMP JUMPDEST DUP1 PUSH8 0xDE0B6B3A7640000 PUSH1 0x1 PUSH0 DUP6 PUSH20 0xFFFFFFFFFFFFFFFFFFFFFFFFFFFFFFFFFFFFFFFF AND PUSH20 0xFFFFFFFFFFFFFFFFFFFFFFFFFFFFFFFFFFFFFFFF AND DUP2 MSTORE PUSH1 0x20 ADD SWAP1 DUP2 MSTORE PUSH1 0x20 ADD PUSH0 KECCAK256 PUSH0 CALLER PUSH20 0xFFFFFFFFFFFFFFFFFFFFFFFFFFFFFFFFFFFFFFFF AND PUSH20 0xFFFFFFFFFFFFFFFFFFFFFFFFFFFFFFFFFFFFFFFF AND DUP2 MSTORE PUSH1 0x20 ADD SWAP1 DUP2 MSTORE PUSH1 0x20 ADD PUSH0 KECCAK256 PUSH1 0x1 ADD SLOAD PUSH2 0xD8C SWAP2 SWAP1 PUSH2 0x1A8F JUMP JUMPDEST LT ISZERO PUSH2 0xDCD JUMPI PUSH1 0x40 MLOAD PUSH32 0x8C379A000000000000000000000000000000000000000000000000000000000 DUP2 MSTORE PUSH1 0x4 ADD PUSH2 0xDC4 SWAP1 PUSH2 0x1A11 JUMP JUMPDEST PUSH1 0x40 MLOAD DUP1 SWAP2 SUB SWAP1 REVERT JUMPDEST PUSH8 0xDE0B6B3A7640000 DUP2 PUSH2 0xDE1 SWAP2 SWAP1 PUSH2 0x1986 JUMP JUMPDEST PUSH1 0x1 PUSH0 DUP5 PUSH20 0xFFFFFFFFFFFFFFFFFFFFFFFFFFFFFFFFFFFFFFFF AND PUSH20 0xFFFFFFFFFFFFFFFFFFFFFFFFFFFFFFFFFFFFFFFF AND DUP2 MSTORE PUSH1 0x20 ADD SWAP1 DUP2 MSTORE PUSH1 0x20 ADD PUSH0 KECCAK256 PUSH0 CALLER PUSH20 0xFFFFFFFFFFFFFFFFFFFFFFFFFFFFFFFFFFFFFFFF AND PUSH20 0xFFFFFFFFFFFFFFFFFFFFFFFFFFFFFFFFFFFFFFFF AND DUP2 MSTORE PUSH1 0x20 ADD SWAP1 DUP2 MSTORE PUSH1 0x20 ADD PUSH0 KECCAK256 PUSH1 0x1 ADD PUSH0 DUP3 DUP3 SLOAD PUSH2 0xE6A SWAP2 SWAP1 PUSH2 0x1A2F JUMP JUMPDEST SWAP3 POP POP DUP2 SWAP1 SSTORE POP PUSH2 0xE79 PUSH2 0x105C JUMP JUMPDEST PUSH1 0x1 PUSH0 DUP5 PUSH20 0xFFFFFFFFFFFFFFFFFFFFFFFFFFFFFFFFFFFFFFFF AND PUSH20 0xFFFFFFFFFFFFFFFFFFFFFFFFFFFFFFFFFFFFFFFF AND DUP2 MSTORE PUSH1 0x20 ADD SWAP1 DUP2 MSTORE PUSH1 0x20 ADD PUSH0 KECCAK256 PUSH0 CALLER PUSH20 0xFFFFFFFFFFFFFFFFFFFFFFFFFFFFFFFFFFFFFFFF AND PUSH20 0xFFFFFFFFFFFFFFFFFFFFFFFFFFFFFFFFFFFFFFFF AND DUP2 MSTORE PUSH1 0x20 ADD SWAP1 DUP2 MSTORE PUSH1 0x20 ADD PUSH0 KECCAK256 PUSH0 ADD DUP2 SWAP1 SSTORE POP PUSH0 PUSH20 0xFFFFFFFFFFFFFFFFFFFFFFFFFFFFFFFFFFFFFFFF AND DUP3 PUSH20 0xFFFFFFFFFFFFFFFFFFFFFFFFFFFFFFFFFFFFFFFF AND SUB PUSH2 0xF38 JUMPI PUSH2 0xF33 DUP2 PUSH2 0x11AB JUMP JUMPDEST PUSH2 0xFF3 JUMP JUMPDEST DUP2 PUSH20 0xFFFFFFFFFFFFFFFFFFFFFFFFFFFFFFFFFFFFFFFF AND PUSH4 0xA9059CBB CALLER DUP4 PUSH1 0x40 MLOAD DUP4 PUSH4 0xFFFFFFFF AND PUSH1 0xE0 SHL DUP2 MSTORE PUSH1 0x4 ADD PUSH2 0xF73 SWAP3 SWAP2 SWAP1 PUSH2 0x1ABF JUMP JUMPDEST PUSH1 0x20 PUSH1 0x40 MLOAD DUP1 DUP4 SUB DUP2 PUSH0 DUP8 GAS CALL ISZERO DUP1 ISZERO PUSH2 0xF8F JUMPI RETURNDATASIZE PUSH0 DUP1 RETURNDATACOPY RETURNDATASIZE PUSH0 REVERT JUMPDEST POP POP POP POP PUSH1 0x40 MLOAD RETURNDATASIZE PUSH1 0x1F NOT PUSH1 0x1F DUP3 ADD AND DUP3 ADD DUP1 PUSH1 0x40 MSTORE POP DUP2 ADD SWAP1 PUSH2 0xFB3 SWAP2 SWAP1 PUSH2 0x1823 JUMP JUMPDEST PUSH2 0xFF2 JUMPI PUSH1 0x40 MLOAD PUSH32 0x8C379A000000000000000000000000000000000000000000000000000000000 DUP2 MSTORE PUSH1 0x4 ADD PUSH2 0xFE9 SWAP1 PUSH2 0x1898 JUMP JUMPDEST PUSH1 0x40 MLOAD DUP1 SWAP2 SUB SWAP1 REVERT JUMPDEST JUMPDEST DUP2 PUSH20 0xFFFFFFFFFFFFFFFFFFFFFFFFFFFFFFFFFFFFFFFF AND CALLER PUSH20 0xFFFFFFFFFFFFFFFFFFFFFFFFFFFFFFFFFFFFFFFF AND PUSH32 0xD1C19FBCD4551A5EDFB66D43D2E337C04837AFDA3482B42BDF569A8FCCDAE5FB DUP4 PUSH1 0x40 MLOAD PUSH2 0x1050 SWAP2 SWAP1 PUSH2 0x16D3 JUMP JUMPDEST PUSH1 0x40 MLOAD DUP1 SWAP2 SUB SWAP1 LOG3 POP POP JUMP JUMPDEST PUSH0 TIMESTAMP SWAP1 POP SWAP1 JUMP JUMPDEST PUSH2 0x106B PUSH2 0x1444 JUMP JUMPDEST PUSH20 0xFFFFFFFFFFFFFFFFFFFFFFFFFFFFFFFFFFFFFFFF AND PUSH2 0x1089 PUSH2 0xA21 JUMP JUMPDEST PUSH20 0xFFFFFFFFFFFFFFFFFFFFFFFFFFFFFFFFFFFFFFFF AND EQ PUSH2 0x10E8 JUMPI PUSH2 0x10AC PUSH2 0x1444 JUMP JUMPDEST PUSH1 0x40 MLOAD PUSH32 0x118CDAA700000000000000000000000000000000000000000000000000000000 DUP2 MSTORE PUSH1 0x4 ADD PUSH2 0x10DF SWAP2 SWAP1 PUSH2 0x148A JUMP JUMPDEST PUSH1 0x40 MLOAD DUP1 SWAP2 SUB SWAP1 REVERT JUMPDEST JUMP JUMPDEST PUSH0 DUP1 PUSH0 SWAP1 SLOAD SWAP1 PUSH2 0x100 EXP SWAP1 DIV PUSH20 0xFFFFFFFFFFFFFFFFFFFFFFFFFFFFFFFFFFFFFFFF AND SWAP1 POP DUP2 PUSH0 DUP1 PUSH2 0x100 EXP DUP2 SLOAD DUP2 PUSH20 0xFFFFFFFFFFFFFFFFFFFFFFFFFFFFFFFFFFFFFFFF MUL NOT AND SWAP1 DUP4 PUSH20 0xFFFFFFFFFFFFFFFFFFFFFFFFFFFFFFFFFFFFFFFF AND MUL OR SWAP1 SSTORE POP DUP2 PUSH20 0xFFFFFFFFFFFFFFFFFFFFFFFFFFFFFFFFFFFFFFFF AND DUP2 PUSH20 0xFFFFFFFFFFFFFFFFFFFFFFFFFFFFFFFFFFFFFFFF AND PUSH32 0x8BE0079C531659141344CD1FD0A4F28419497F9722A3DAAFE3B4186F6B6457E0 PUSH1 0x40 MLOAD PUSH1 0x40 MLOAD DUP1 SWAP2 SUB SWAP1 LOG3 POP POP JUMP JUMPDEST PUSH0 DUP2 GT PUSH2 0x11ED JUMPI PUSH1 0x40 MLOAD PUSH32 0x8C379A000000000000000000000000000000000000000000000000000000000 DUP2 MSTORE PUSH1 0x4 ADD PUSH2 0x11E4 SWAP1 PUSH2 0x1968 JUMP JUMPDEST PUSH1 0x40 MLOAD DUP1 SWAP2 SUB SWAP1 REVERT JUMPDEST DUP1 PUSH8 0xDE0B6B3A7640000 PUSH1 0x2 PUSH0 CALLER PUSH20 0xFFFFFFFFFFFFFFFFFFFFFFFFFFFFFFFFFFFFFFFF AND PUSH20 0xFFFFFFFFFFFFFFFFFFFFFFFFFFFFFFFFFFFFFFFF AND DUP2 MSTORE PUSH1 0x20 ADD SWAP1 DUP2 MSTORE PUSH1 0x20 ADD PUSH0 KECCAK256 PUSH1 0x1 ADD SLOAD PUSH2 0x1242 SWAP2 SWAP1 PUSH2 0x1A8F JUMP JUMPDEST LT ISZERO PUSH2 0x1283 JUMPI PUSH1 0x40 MLOAD PUSH32 0x8C379A000000000000000000000000000000000000000000000000000000000 DUP2 MSTORE PUSH1 0x4 ADD PUSH2 0x127A SWAP1 PUSH2 0x1A11 JUMP JUMPDEST PUSH1 0x40 MLOAD DUP1 SWAP2 SUB SWAP1 REVERT JUMPDEST PUSH8 0xDE0B6B3A7640000 DUP2 PUSH2 0x1297 SWAP2 SWAP1 PUSH2 0x1986 JUMP JUMPDEST PUSH1 0x2 PUSH0 CALLER PUSH20 0xFFFFFFFFFFFFFFFFFFFFFFFFFFFFFFFFFFFFFFFF AND PUSH20 0xFFFFFFFFFFFFFFFFFFFFFFFFFFFFFFFFFFFFFFFF AND DUP2 MSTORE PUSH1 0x20 ADD SWAP1 DUP2 MSTORE PUSH1 0x20 ADD PUSH0 KECCAK256 PUSH1 0x1 ADD PUSH0 DUP3 DUP3 SLOAD PUSH2 0x12E5 SWAP2 SWAP1 PUSH2 0x1A2F JUMP JUMPDEST SWAP3 POP POP DUP2 SWAP1 SSTORE POP PUSH2 0x12F4 PUSH2 0x105C JUMP JUMPDEST PUSH1 0x2 PUSH0 CALLER PUSH20 0xFFFFFFFFFFFFFFFFFFFFFFFFFFFFFFFFFFFFFFFF AND PUSH20 0xFFFFFFFFFFFFFFFFFFFFFFFFFFFFFFFFFFFFFFFF AND DUP2 MSTORE PUSH1 0x20 ADD SWAP1 DUP2 MSTORE PUSH1 0x20 ADD PUSH0 KECCAK256 PUSH0 ADD DUP2 SWAP1 SSTORE POP PUSH0 CALLER PUSH20 0xFFFFFFFFFFFFFFFFFFFFFFFFFFFFFFFFFFFFFFFF AND PUSH8 0xDE0B6B3A7640000 DUP4 PUSH2 0x1363 SWAP2 SWAP1 PUSH2 0x1986 JUMP JUMPDEST PUSH1 0x40 MLOAD PUSH2 0x136F SWAP1 PUSH2 0x1B13 JUMP JUMPDEST PUSH0 PUSH1 0x40 MLOAD DUP1 DUP4 SUB DUP2 DUP6 DUP8 GAS CALL SWAP3 POP POP POP RETURNDATASIZE DUP1 PUSH0 DUP2 EQ PUSH2 0x13A9 JUMPI PUSH1 0x40 MLOAD SWAP2 POP PUSH1 0x1F NOT PUSH1 0x3F RETURNDATASIZE ADD AND DUP3 ADD PUSH1 0x40 MSTORE RETURNDATASIZE DUP3 MSTORE RETURNDATASIZE PUSH0 PUSH1 0x20 DUP5 ADD RETURNDATACOPY PUSH2 0x13AE JUMP JUMPDEST PUSH1 0x60 SWAP2 POP JUMPDEST POP POP SWAP1 POP DUP1 PUSH2 0x13F2 JUMPI PUSH1 0x40 MLOAD PUSH32 0x8C379A000000000000000000000000000000000000000000000000000000000 DUP2 MSTORE PUSH1 0x4 ADD PUSH2 0x13E9 SWAP1 PUSH2 0x1B71 JUMP JUMPDEST PUSH1 0x40 MLOAD DUP1 SWAP2 SUB SWAP1 REVERT JUMPDEST CALLER PUSH20 0xFFFFFFFFFFFFFFFFFFFFFFFFFFFFFFFFFFFFFFFF AND PUSH32 0x94B2DE810873337ED265C5F8CF98C9CFFEFA06B8607F9A2F1FBAEBDFBCFBEF1C DUP4 PUSH1 0x40 MLOAD PUSH2 0x1438 SWAP2 SWAP1 PUSH2 0x16D3 JUMP JUMPDEST PUSH1 0x40 MLOAD DUP1 SWAP2 SUB SWAP1 LOG2 POP POP JUMP JUMPDEST PUSH0 CALLER SWAP1 POP SWAP1 JUMP JUMPDEST PUSH0 PUSH20 0xFFFFFFFFFFFFFFFFFFFFFFFFFFFFFFFFFFFFFFFF DUP3 AND SWAP1 POP SWAP2 SWAP1 POP JUMP JUMPDEST PUSH0 PUSH2 0x1474 DUP3 PUSH2 0x144B JUMP JUMPDEST SWAP1 POP SWAP2 SWAP1 POP JUMP JUMPDEST PUSH2 0x1484 DUP2 PUSH2 0x146A JUMP JUMPDEST DUP3 MSTORE POP POP JUMP JUMPDEST PUSH0 PUSH1 0x20 DUP3 ADD SWAP1 POP PUSH2 0x149D PUSH0 DUP4 ADD DUP5 PUSH2 0x147B JUMP JUMPDEST SWAP3 SWAP2 POP POP JUMP JUMPDEST PUSH0 DUP1 REVERT JUMPDEST PUSH2 0x14B0 DUP2 PUSH2 0x146A JUMP JUMPDEST DUP2 EQ PUSH2 0x14BA JUMPI PUSH0 DUP1 REVERT JUMPDEST POP JUMP JUMPDEST PUSH0 DUP2 CALLDATALOAD SWAP1 POP PUSH2 0x14CB DUP2 PUSH2 0x14A7 JUMP JUMPDEST SWAP3 SWAP2 POP POP JUMP JUMPDEST PUSH0 PUSH1 0x20 DUP3 DUP5 SUB SLT ISZERO PUSH2 0x14E6 JUMPI PUSH2 0x14E5 PUSH2 0x14A3 JUMP JUMPDEST JUMPDEST PUSH0 PUSH2 0x14F3 DUP5 DUP3 DUP6 ADD PUSH2 0x14BD JUMP JUMPDEST SWAP2 POP POP SWAP3 SWAP2 POP POP JUMP JUMPDEST PUSH0 DUP2 SWAP1 POP SWAP2 SWAP1 POP JUMP JUMPDEST PUSH2 0x150E DUP2 PUSH2 0x14FC JUMP JUMPDEST DUP3 MSTORE POP POP JUMP JUMPDEST PUSH0 PUSH1 0x40 DUP3 ADD SWAP1 POP PUSH2 0x1527 PUSH0 DUP4 ADD DUP6 PUSH2 0x1505 JUMP JUMPDEST PUSH2 0x1534 PUSH1 0x20 DUP4 ADD DUP5 PUSH2 0x1505 JUMP JUMPDEST SWAP4 SWAP3 POP POP POP JUMP JUMPDEST PUSH2 0x1544 DUP2 PUSH2 0x14FC JUMP JUMPDEST DUP2 EQ PUSH2 0x154E JUMPI PUSH0 DUP1 REVERT JUMPDEST POP JUMP JUMPDEST PUSH0 DUP2 CALLDATALOAD SWAP1 POP PUSH2 0x155F DUP2 PUSH2 0x153B JUMP JUMPDEST SWAP3 SWAP2 POP POP JUMP JUMPDEST PUSH0 DUP1 PUSH1 0x40 DUP4 DUP6 SUB SLT ISZERO PUSH2 0x157B JUMPI PUSH2 0x157A PUSH2 0x14A3 JUMP JUMPDEST JUMPDEST PUSH0 PUSH2 0x1588 DUP6 DUP3 DUP7 ADD PUSH2 0x14BD JUMP JUMPDEST SWAP3 POP POP PUSH1 0x20 PUSH2 0x1599 DUP6 DUP3 DUP7 ADD PUSH2 0x1551 JUMP JUMPDEST SWAP2 POP POP SWAP3 POP SWAP3 SWAP1 POP JUMP JUMPDEST PUSH0 PUSH2 0x15AD DUP3 PUSH2 0x144B JUMP JUMPDEST SWAP1 POP SWAP2 SWAP1 POP JUMP JUMPDEST PUSH2 0x15BD DUP2 PUSH2 0x15A3 JUMP JUMPDEST DUP2 EQ PUSH2 0x15C7 JUMPI PUSH0 DUP1 REVERT JUMPDEST POP JUMP JUMPDEST PUSH0 DUP2 CALLDATALOAD SWAP1 POP PUSH2 0x15D8 DUP2 PUSH2 0x15B4 JUMP JUMPDEST SWAP3 SWAP2 POP POP JUMP JUMPDEST PUSH0 DUP1 PUSH1 0x40 DUP4 DUP6 SUB SLT ISZERO PUSH2 0x15F4 JUMPI PUSH2 0x15F3 PUSH2 0x14A3 JUMP JUMPDEST JUMPDEST PUSH0 PUSH2 0x1601 DUP6 DUP3 DUP7 ADD PUSH2 0x15CA JUMP JUMPDEST SWAP3 POP POP PUSH1 0x20 PUSH2 0x1612 DUP6 DUP3 DUP7 ADD PUSH2 0x1551 JUMP JUMPDEST SWAP2 POP POP SWAP3 POP SWAP3 SWAP1 POP JUMP JUMPDEST PUSH0 DUP1 PUSH1 0x40 DUP4 DUP6 SUB SLT ISZERO PUSH2 0x1632 JUMPI PUSH2 0x1631 PUSH2 0x14A3 JUMP JUMPDEST JUMPDEST PUSH0 PUSH2 0x163F DUP6 DUP3 DUP7 ADD PUSH2 0x14BD JUMP JUMPDEST SWAP3 POP POP PUSH1 0x20 PUSH2 0x1650 DUP6 DUP3 DUP7 ADD PUSH2 0x14BD JUMP JUMPDEST SWAP2 POP POP SWAP3 POP SWAP3 SWAP1 POP JUMP JUMPDEST PUSH0 DUP2 ISZERO ISZERO SWAP1 POP SWAP2 SWAP1 POP JUMP JUMPDEST PUSH2 0x166E DUP2 PUSH2 0x165A JUMP JUMPDEST DUP3 MSTORE POP POP JUMP JUMPDEST PUSH0 PUSH1 0xC0 DUP3 ADD SWAP1 POP PUSH2 0x1687 PUSH0 DUP4 ADD DUP10 PUSH2 0x147B JUMP JUMPDEST PUSH2 0x1694 PUSH1 0x20 DUP4 ADD DUP9 PUSH2 0x147B JUMP JUMPDEST PUSH2 0x16A1 PUSH1 0x40 DUP4 ADD DUP8 PUSH2 0x1505 JUMP JUMPDEST PUSH2 0x16AE PUSH1 0x60 DUP4 ADD DUP7 PUSH2 0x147B JUMP JUMPDEST PUSH2 0x16BB PUSH1 0x80 DUP4 ADD DUP6 PUSH2 0x1505 JUMP JUMPDEST PUSH2 0x16C8 PUSH1 0xA0 DUP4 ADD DUP5 PUSH2 0x1665 JUMP JUMPDEST SWAP8 SWAP7 POP POP POP POP POP POP POP JUMP JUMPDEST PUSH0 PUSH1 0x20 DUP3 ADD SWAP1 POP PUSH2 0x16E6 PUSH0 DUP4 ADD DUP5 PUSH2 0x1505 JUMP JUMPDEST SWAP3 SWAP2 POP POP JUMP JUMPDEST PUSH32 0x4E487B7100000000000000000000000000000000000000000000000000000000 PUSH0 MSTORE PUSH1 0x11 PUSH1 0x4 MSTORE PUSH1 0x24 PUSH0 REVERT JUMPDEST PUSH0 PUSH2 0x1723 DUP3 PUSH2 0x14FC JUMP JUMPDEST SWAP2 POP PUSH2 0x172E DUP4 PUSH2 0x14FC JUMP JUMPDEST SWAP3 POP DUP3 DUP3 ADD SWAP1 POP DUP1 DUP3 GT ISZERO PUSH2 0x1746 JUMPI PUSH2 0x1745 PUSH2 0x16EC JUMP JUMPDEST JUMPDEST SWAP3 SWAP2 POP POP JUMP JUMPDEST PUSH0 DUP3 DUP3 MSTORE PUSH1 0x20 DUP3 ADD SWAP1 POP SWAP3 SWAP2 POP POP JUMP JUMPDEST PUSH32 0x496E76616C696420746F6B656E00000000000000000000000000000000000000 PUSH0 DUP3 ADD MSTORE POP JUMP JUMPDEST PUSH0 PUSH2 0x1790 PUSH1 0xD DUP4 PUSH2 0x174C JUMP JUMPDEST SWAP2 POP PUSH2 0x179B DUP3 PUSH2 0x175C JUMP JUMPDEST PUSH1 0x20 DUP3 ADD SWAP1 POP SWAP2 SWAP1 POP JUMP JUMPDEST PUSH0 PUSH1 0x20 DUP3 ADD SWAP1 POP DUP2 DUP2 SUB PUSH0 DUP4 ADD MSTORE PUSH2 0x17BD DUP2 PUSH2 0x1784 JUMP JUMPDEST SWAP1 POP SWAP2 SWAP1 POP JUMP JUMPDEST PUSH0 PUSH1 0x60 DUP3 ADD SWAP1 POP PUSH2 0x17D7 PUSH0 DUP4 ADD DUP7 PUSH2 0x147B JUMP JUMPDEST PUSH2 0x17E4 PUSH1 0x20 DUP4 ADD DUP6 PUSH2 0x147B JUMP JUMPDEST PUSH2 0x17F1 PUSH1 0x40 DUP4 ADD DUP5 PUSH2 0x1505 JUMP JUMPDEST SWAP5 SWAP4 POP POP POP POP JUMP JUMPDEST PUSH2 0x1802 DUP2 PUSH2 0x165A JUMP JUMPDEST DUP2 EQ PUSH2 0x180C JUMPI PUSH0 DUP1 REVERT JUMPDEST POP JUMP JUMPDEST PUSH0 DUP2 MLOAD SWAP1 POP PUSH2 0x181D DUP2 PUSH2 0x17F9 JUMP JUMPDEST SWAP3 SWAP2 POP POP JUMP JUMPDEST PUSH0 PUSH1 0x20 DUP3 DUP5 SUB SLT ISZERO PUSH2 0x1838 JUMPI PUSH2 0x1837 PUSH2 0x14A3 JUMP JUMPDEST JUMPDEST PUSH0 PUSH2 0x1845 DUP5 DUP3 DUP6 ADD PUSH2 0x180F JUMP JUMPDEST SWAP2 POP POP SWAP3 SWAP2 POP POP JUMP JUMPDEST PUSH32 0x5472616E73666572206661696C65640000000000000000000000000000000000 PUSH0 DUP3 ADD MSTORE POP JUMP JUMPDEST PUSH0 PUSH2 0x1882 PUSH1 0xF DUP4 PUSH2 0x174C JUMP JUMPDEST SWAP2 POP PUSH2 0x188D DUP3 PUSH2 0x184E JUMP JUMPDEST PUSH1 0x20 DUP3 ADD SWAP1 POP SWAP2 SWAP1 POP JUMP JUMPDEST PUSH0 PUSH1 0x20 DUP3 ADD SWAP1 POP DUP2 DUP2 SUB PUSH0 DUP4 ADD MSTORE PUSH2 0x18AF DUP2 PUSH2 0x1876 JUMP JUMPDEST SWAP1 POP SWAP2 SWAP1 POP JUMP JUMPDEST PUSH32 0x496E76616C696420616464726573730000000000000000000000000000000000 PUSH0 DUP3 ADD MSTORE POP JUMP JUMPDEST PUSH0 PUSH2 0x18EA PUSH1 0xF DUP4 PUSH2 0x174C JUMP JUMPDEST SWAP2 POP PUSH2 0x18F5 DUP3 PUSH2 0x18B6 JUMP JUMPDEST PUSH1 0x20 DUP3 ADD SWAP1 POP SWAP2 SWAP1 POP JUMP JUMPDEST PUSH0 PUSH1 0x20 DUP3 ADD SWAP1 POP DUP2 DUP2 SUB PUSH0 DUP4 ADD MSTORE PUSH2 0x1917 DUP2 PUSH2 0x18DE JUMP JUMPDEST SWAP1 POP SWAP2 SWAP1 POP JUMP JUMPDEST PUSH32 0x416D6F756E74206D7573742062652067726561746572207468616E2030000000 PUSH0 DUP3 ADD MSTORE POP JUMP JUMPDEST PUSH0 PUSH2 0x1952 PUSH1 0x1D DUP4 PUSH2 0x174C JUMP JUMPDEST SWAP2 POP PUSH2 0x195D DUP3 PUSH2 0x191E JUMP JUMPDEST PUSH1 0x20 DUP3 ADD SWAP1 POP SWAP2 SWAP1 POP JUMP JUMPDEST PUSH0 PUSH1 0x20 DUP3 ADD SWAP1 POP DUP2 DUP2 SUB PUSH0 DUP4 ADD MSTORE PUSH2 0x197F DUP2 PUSH2 0x1946 JUMP JUMPDEST SWAP1 POP SWAP2 SWAP1 POP JUMP JUMPDEST PUSH0 PUSH2 0x1990 DUP3 PUSH2 0x14FC JUMP JUMPDEST SWAP2 POP PUSH2 0x199B DUP4 PUSH2 0x14FC JUMP JUMPDEST SWAP3 POP DUP3 DUP3 MUL PUSH2 0x19A9 DUP2 PUSH2 0x14FC JUMP JUMPDEST SWAP2 POP DUP3 DUP3 DIV DUP5 EQ DUP4 ISZERO OR PUSH2 0x19C0 JUMPI PUSH2 0x19BF PUSH2 0x16EC JUMP JUMPDEST JUMPDEST POP SWAP3 SWAP2 POP POP JUMP JUMPDEST PUSH32 0x496E73756666696369656E742062616C616E6365000000000000000000000000 PUSH0 DUP3 ADD MSTORE POP JUMP JUMPDEST PUSH0 PUSH2 0x19FB PUSH1 0x14 DUP4 PUSH2 0x174C JUMP JUMPDEST SWAP2 POP PUSH2 0x1A06 DUP3 PUSH2 0x19C7 JUMP JUMPDEST PUSH1 0x20 DUP3 ADD SWAP1 POP SWAP2 SWAP1 POP JUMP JUMPDEST PUSH0 PUSH1 0x20 DUP3 ADD SWAP1 POP DUP2 DUP2 SUB PUSH0 DUP4 ADD MSTORE PUSH2 0x1A28 DUP2 PUSH2 0x19EF JUMP JUMPDEST SWAP1 POP SWAP2 SWAP1 POP JUMP JUMPDEST PUSH0 PUSH2 0x1A39 DUP3 PUSH2 0x14FC JUMP JUMPDEST SWAP2 POP PUSH2 0x1A44 DUP4 PUSH2 0x14FC JUMP JUMPDEST SWAP3 POP DUP3 DUP3 SUB SWAP1 POP DUP2 DUP2 GT ISZERO PUSH2 0x1A5C JUMPI PUSH2 0x1A5B PUSH2 0x16EC JUMP JUMPDEST JUMPDEST SWAP3 SWAP2 POP POP JUMP JUMPDEST PUSH32 0x4E487B7100000000000000000000000000000000000000000000000000000000 PUSH0 MSTORE PUSH1 0x12 PUSH1 0x4 MSTORE PUSH1 0x24 PUSH0 REVERT JUMPDEST PUSH0 PUSH2 0x1A99 DUP3 PUSH2 0x14FC JUMP JUMPDEST SWAP2 POP PUSH2 0x1AA4 DUP4 PUSH2 0x14FC JUMP JUMPDEST SWAP3 POP DUP3 PUSH2 0x1AB4 JUMPI PUSH2 0x1AB3 PUSH2 0x1A62 JUMP JUMPDEST JUMPDEST DUP3 DUP3 DIV SWAP1 POP SWAP3 SWAP2 POP POP JUMP JUMPDEST PUSH0 PUSH1 0x40 DUP3 ADD SWAP1 POP PUSH2 0x1AD2 PUSH0 DUP4 ADD DUP6 PUSH2 0x147B JUMP JUMPDEST PUSH2 0x1ADF PUSH1 0x20 DUP4 ADD DUP5 PUSH2 0x1505 JUMP JUMPDEST SWAP4 SWAP3 POP POP POP JUMP JUMPDEST PUSH0 DUP2 SWAP1 POP SWAP3 SWAP2 POP POP JUMP JUMPDEST POP JUMP JUMPDEST PUSH0 PUSH2 0x1AFE PUSH0 DUP4 PUSH2 0x1AE6 JUMP JUMPDEST SWAP2 POP PUSH2 0x1B09 DUP3 PUSH2 0x1AF0 JUMP JUMPDEST PUSH0 DUP3 ADD SWAP1 POP SWAP2 SWAP1 POP JUMP JUMPDEST PUSH0 PUSH2 0x1B1D DUP3 PUSH2 0x1AF3 JUMP JUMPDEST SWAP2 POP DUP2 SWAP1 POP SWAP2 SWAP1 POP JUMP JUMPDEST PUSH32 0x455448207769746864726177616C206661696C65640000000000000000000000 PUSH0 DUP3 ADD MSTORE POP JUMP JUMPDEST PUSH0 PUSH2 0x1B5B PUSH1 0x15 DUP4 PUSH2 0x174C JUMP JUMPDEST SWAP2 POP PUSH2 0x1B66 DUP3 PUSH2 0x1B27 JUMP JUMPDEST PUSH1 0x20 DUP3 ADD SWAP1 POP SWAP2 SWAP1 POP JUMP JUMPDEST PUSH0 PUSH1 0x20 DUP3 ADD SWAP1 POP DUP2 DUP2 SUB PUSH0 DUP4 ADD MSTORE PUSH2 0x1B88 DUP2 PUSH2 0x1B4F JUMP JUMPDEST SWAP1 POP SWAP2 SWAP1 POP JUMP INVALID LOG2 PUSH5 0x6970667358 0x22 SLT KECCAK256 0x4E CALL BYTE 0xD5 DUP13 0xE0 0x2F NUMBER SWAP13 0x29 0x2E SHR PUSH25 0xAC0BA71B87423F62C087757C34239EC175E2D64736F6C6343 STOP ADDMOD BYTE STOP CALLER "
				},
				"gasEstimates": {
					"creation": {
						"codeDepositCost": "1421800",
						"executionCost": "infinite",
						"totalCost": "infinite"
					},
					"external": {
						"deposit(address,uint256)": "infinite",
						"deposits(address,address)": "infinite",
						"eth_deposits(address)": "infinite",
						"getDeposit(address)": "infinite",
						"loans(address,uint256)": "infinite",
						"owner()": "2538",
						"renounceOwnership()": "infinite",
						"tokenA()": "infinite",
						"tokenB()": "infinite",
						"tokenC()": "infinite",
						"transferETH(address,uint256)": "infinite",
						"transferOwnership(address)": "infinite",
						"withdraw(address,uint256)": "infinite"
					},
					"internal": {
						"getCurrentTimeView()": "21",
						"withdrawETH(uint256)": "infinite"
					}
				},
				"methodIdentifiers": {
					"deposit(address,uint256)": "47e7ef24",
					"deposits(address,address)": "8f601f66",
					"eth_deposits(address)": "2e9708e4",
					"getDeposit(address)": "e1254fba",
					"loans(address,uint256)": "98c61c37",
					"owner()": "8da5cb5b",
					"renounceOwnership()": "715018a6",
					"tokenA()": "0fc63d10",
					"tokenB()": "5f64b55b",
					"tokenC()": "c483a308",
					"transferETH(address,uint256)": "7b1a4909",
					"transferOwnership(address)": "f2fde38b",
					"withdraw(address,uint256)": "f3fef3a3"
				}
			},
			"storageLayout": {
				"storage": [
					{
						"astId": 8,
						"contract": "contracts/Bank.sol:Bank",
						"label": "_owner",
						"offset": 0,
						"slot": "0",
						"type": "t_address"
					},
					{
						"astId": 296,
						"contract": "contracts/Bank.sol:Bank",
						"label": "deposits",
						"offset": 0,
						"slot": "1",
						"type": "t_mapping(t_address,t_mapping(t_address,t_struct(Deposit)289_storage))"
					},
					{
						"astId": 301,
						"contract": "contracts/Bank.sol:Bank",
						"label": "eth_deposits",
						"offset": 0,
						"slot": "2",
						"type": "t_mapping(t_address,t_struct(Deposit)289_storage)"
					},
					{
						"astId": 307,
						"contract": "contracts/Bank.sol:Bank",
						"label": "loans",
						"offset": 0,
						"slot": "3",
						"type": "t_mapping(t_address,t_array(t_struct(Loan)284_storage)dyn_storage)"
					}
				],
				"types": {
					"t_address": {
						"encoding": "inplace",
						"label": "address",
						"numberOfBytes": "20"
					},
					"t_array(t_struct(Loan)284_storage)dyn_storage": {
						"base": "t_struct(Loan)284_storage",
						"encoding": "dynamic_array",
						"label": "struct Bank.Loan[]",
						"numberOfBytes": "32"
					},
					"t_bool": {
						"encoding": "inplace",
						"label": "bool",
						"numberOfBytes": "1"
					},
					"t_mapping(t_address,t_array(t_struct(Loan)284_storage)dyn_storage)": {
						"encoding": "mapping",
						"key": "t_address",
						"label": "mapping(address => struct Bank.Loan[])",
						"numberOfBytes": "32",
						"value": "t_array(t_struct(Loan)284_storage)dyn_storage"
					},
					"t_mapping(t_address,t_mapping(t_address,t_struct(Deposit)289_storage))": {
						"encoding": "mapping",
						"key": "t_address",
						"label": "mapping(address => mapping(address => struct Bank.Deposit))",
						"numberOfBytes": "32",
						"value": "t_mapping(t_address,t_struct(Deposit)289_storage)"
					},
					"t_mapping(t_address,t_struct(Deposit)289_storage)": {
						"encoding": "mapping",
						"key": "t_address",
						"label": "mapping(address => struct Bank.Deposit)",
						"numberOfBytes": "32",
						"value": "t_struct(Deposit)289_storage"
					},
					"t_struct(Deposit)289_storage": {
						"encoding": "inplace",
						"label": "struct Bank.Deposit",
						"members": [
							{
								"astId": 286,
								"contract": "contracts/Bank.sol:Bank",
								"label": "time",
								"offset": 0,
								"slot": "0",
								"type": "t_uint256"
							},
							{
								"astId": 288,
								"contract": "contracts/Bank.sol:Bank",
								"label": "amount",
								"offset": 0,
								"slot": "1",
								"type": "t_uint256"
							}
						],
						"numberOfBytes": "64"
					},
					"t_struct(Loan)284_storage": {
						"encoding": "inplace",
						"label": "struct Bank.Loan",
						"members": [
							{
								"astId": 273,
								"contract": "contracts/Bank.sol:Bank",
								"label": "borrower",
								"offset": 0,
								"slot": "0",
								"type": "t_address"
							},
							{
								"astId": 275,
								"contract": "contracts/Bank.sol:Bank",
								"label": "loanToken",
								"offset": 0,
								"slot": "1",
								"type": "t_address"
							},
							{
								"astId": 277,
								"contract": "contracts/Bank.sol:Bank",
								"label": "loanAmount",
								"offset": 0,
								"slot": "2",
								"type": "t_uint256"
							},
							{
								"astId": 279,
								"contract": "contracts/Bank.sol:Bank",
								"label": "collateralToken",
								"offset": 0,
								"slot": "3",
								"type": "t_address"
							},
							{
								"astId": 281,
								"contract": "contracts/Bank.sol:Bank",
								"label": "collateralAmount",
								"offset": 0,
								"slot": "4",
								"type": "t_uint256"
							},
							{
								"astId": 283,
								"contract": "contracts/Bank.sol:Bank",
								"label": "isActive",
								"offset": 0,
								"slot": "5",
								"type": "t_bool"
							}
						],
						"numberOfBytes": "192"
					},
					"t_uint256": {
						"encoding": "inplace",
						"label": "uint256",
						"numberOfBytes": "32"
					}
				}
			},
			"userdoc": {
				"kind": "user",
				"methods": {
					"deposit(address,uint256)": {
						"notice": "存入 ETH 或 Token"
					},
					"getDeposit(address)": {
						"notice": "查询存款余额"
					},
					"withdraw(address,uint256)": {
						"notice": "取出 ETH 或 Token"
					}
				},
				"version": 1
			}
		}
	}
}