{
	"contracts/Loanable.sol": {
		"LendingContract": {
			"abi": [
				{
					"inputs": [
						{
							"internalType": "address",
							"name": "_tokenA",
							"type": "address"
						},
						{
							"internalType": "address",
							"name": "_tokenB",
							"type": "address"
						},
						{
							"internalType": "address",
							"name": "_tokenC",
							"type": "address"
						}
					],
					"stateMutability": "nonpayable",
					"type": "constructor"
				},
				{
					"inputs": [
						{
							"internalType": "address",
							"name": "owner",
							"type": "address"
						}
					],
					"name": "OwnableInvalidOwner",
					"type": "error"
				},
				{
					"inputs": [
						{
							"internalType": "address",
							"name": "account",
							"type": "address"
						}
					],
					"name": "OwnableUnauthorizedAccount",
					"type": "error"
				},
				{
					"anonymous": false,
					"inputs": [
						{
							"indexed": true,
							"internalType": "address",
							"name": "user",
							"type": "address"
						},
						{
							"indexed": true,
							"internalType": "address",
							"name": "loanToken",
							"type": "address"
						},
						{
							"indexed": false,
							"internalType": "uint256",
							"name": "loanAmount",
							"type": "uint256"
						},
						{
							"indexed": true,
							"internalType": "address",
							"name": "collateralToken",
							"type": "address"
						},
						{
							"indexed": false,
							"internalType": "uint256",
							"name": "collateralAmount",
							"type": "uint256"
						}
					],
					"name": "Borrowed",
					"type": "event"
				},
				{
					"anonymous": false,
					"inputs": [
						{
							"indexed": true,
							"internalType": "address",
							"name": "user",
							"type": "address"
						},
						{
							"indexed": true,
							"internalType": "address",
							"name": "token",
							"type": "address"
						},
						{
							"indexed": false,
							"internalType": "uint256",
							"name": "amount",
							"type": "uint256"
						}
					],
					"name": "Deposited",
					"type": "event"
				},
				{
					"anonymous": false,
					"inputs": [
						{
							"indexed": true,
							"internalType": "address",
							"name": "previousOwner",
							"type": "address"
						},
						{
							"indexed": true,
							"internalType": "address",
							"name": "newOwner",
							"type": "address"
						}
					],
					"name": "OwnershipTransferred",
					"type": "event"
				},
				{
					"anonymous": false,
					"inputs": [
						{
							"indexed": true,
							"internalType": "address",
							"name": "user",
							"type": "address"
						},
						{
							"indexed": false,
							"internalType": "uint256",
							"name": "loanIndex",
							"type": "uint256"
						}
					],
					"name": "Repaid",
					"type": "event"
				},
				{
					"anonymous": false,
					"inputs": [
						{
							"indexed": true,
							"internalType": "address",
							"name": "user",
							"type": "address"
						},
						{
							"indexed": true,
							"internalType": "address",
							"name": "token",
							"type": "address"
						},
						{
							"indexed": false,
							"internalType": "uint256",
							"name": "amount",
							"type": "uint256"
						}
					],
					"name": "Withdrawn",
					"type": "event"
				},
				{
					"inputs": [
						{
							"internalType": "address",
							"name": "loanToken",
							"type": "address"
						},
						{
							"internalType": "uint256",
							"name": "loanAmount",
							"type": "uint256"
						},
						{
							"internalType": "address",
							"name": "collateralToken",
							"type": "address"
						},
						{
							"internalType": "uint256",
							"name": "collateralAmount",
							"type": "uint256"
						}
					],
					"name": "borrow",
					"outputs": [],
					"stateMutability": "nonpayable",
					"type": "function"
				},
				{
					"inputs": [
						{
							"internalType": "address",
							"name": "token",
							"type": "address"
						},
						{
							"internalType": "uint256",
							"name": "amount",
							"type": "uint256"
						}
					],
					"name": "deposit",
					"outputs": [],
					"stateMutability": "payable",
					"type": "function"
				},
				{
					"inputs": [
						{
							"internalType": "address",
							"name": "",
							"type": "address"
						},
						{
							"internalType": "address",
							"name": "",
							"type": "address"
						}
					],
					"name": "deposits",
					"outputs": [
						{
							"internalType": "uint256",
							"name": "",
							"type": "uint256"
						}
					],
					"stateMutability": "view",
					"type": "function"
				},
				{
					"inputs": [
						{
							"internalType": "address",
							"name": "token",
							"type": "address"
						}
					],
					"name": "getDeposit",
					"outputs": [
						{
							"internalType": "uint256",
							"name": "",
							"type": "uint256"
						}
					],
					"stateMutability": "view",
					"type": "function"
				},
				{
					"inputs": [],
					"name": "getLoans",
					"outputs": [
						{
							"components": [
								{
									"internalType": "address",
									"name": "borrower",
									"type": "address"
								},
								{
									"internalType": "address",
									"name": "loanToken",
									"type": "address"
								},
								{
									"internalType": "uint256",
									"name": "loanAmount",
									"type": "uint256"
								},
								{
									"internalType": "address",
									"name": "collateralToken",
									"type": "address"
								},
								{
									"internalType": "uint256",
									"name": "collateralAmount",
									"type": "uint256"
								},
								{
									"internalType": "bool",
									"name": "isActive",
									"type": "bool"
								}
							],
							"internalType": "struct LendingContract.Loan[]",
							"name": "",
							"type": "tuple[]"
						}
					],
					"stateMutability": "view",
					"type": "function"
				},
				{
					"inputs": [
						{
							"internalType": "address",
							"name": "",
							"type": "address"
						},
						{
							"internalType": "uint256",
							"name": "",
							"type": "uint256"
						}
					],
					"name": "loans",
					"outputs": [
						{
							"internalType": "address",
							"name": "borrower",
							"type": "address"
						},
						{
							"internalType": "address",
							"name": "loanToken",
							"type": "address"
						},
						{
							"internalType": "uint256",
							"name": "loanAmount",
							"type": "uint256"
						},
						{
							"internalType": "address",
							"name": "collateralToken",
							"type": "address"
						},
						{
							"internalType": "uint256",
							"name": "collateralAmount",
							"type": "uint256"
						},
						{
							"internalType": "bool",
							"name": "isActive",
							"type": "bool"
						}
					],
					"stateMutability": "view",
					"type": "function"
				},
				{
					"inputs": [],
					"name": "owner",
					"outputs": [
						{
							"internalType": "address",
							"name": "",
							"type": "address"
						}
					],
					"stateMutability": "view",
					"type": "function"
				},
				{
					"inputs": [],
					"name": "renounceOwnership",
					"outputs": [],
					"stateMutability": "nonpayable",
					"type": "function"
				},
				{
					"inputs": [
						{
							"internalType": "uint256",
							"name": "loanIndex",
							"type": "uint256"
						}
					],
					"name": "repay",
					"outputs": [],
					"stateMutability": "payable",
					"type": "function"
				},
				{
					"inputs": [],
					"name": "tokenA",
					"outputs": [
						{
							"internalType": "address",
							"name": "",
							"type": "address"
						}
					],
					"stateMutability": "view",
					"type": "function"
				},
				{
					"inputs": [],
					"name": "tokenB",
					"outputs": [
						{
							"internalType": "address",
							"name": "",
							"type": "address"
						}
					],
					"stateMutability": "view",
					"type": "function"
				},
				{
					"inputs": [],
					"name": "tokenC",
					"outputs": [
						{
							"internalType": "address",
							"name": "",
							"type": "address"
						}
					],
					"stateMutability": "view",
					"type": "function"
				},
				{
					"inputs": [
						{
							"internalType": "address",
							"name": "newOwner",
							"type": "address"
						}
					],
					"name": "transferOwnership",
					"outputs": [],
					"stateMutability": "nonpayable",
					"type": "function"
				},
				{
					"inputs": [
						{
							"internalType": "address",
							"name": "token",
							"type": "address"
						},
						{
							"internalType": "uint256",
							"name": "amount",
							"type": "uint256"
						}
					],
					"name": "withdraw",
					"outputs": [],
					"stateMutability": "nonpayable",
					"type": "function"
				},
				{
					"stateMutability": "payable",
					"type": "receive"
				}
			],
			"devdoc": {
				"errors": {
					"OwnableInvalidOwner(address)": [
						{
							"details": "The owner is not a valid owner account. (eg. `address(0)`)"
						}
					],
					"OwnableUnauthorizedAccount(address)": [
						{
							"details": "The caller account is not authorized to perform an operation."
						}
					]
				},
				"kind": "dev",
				"methods": {
					"owner()": {
						"details": "Returns the address of the current owner."
					},
					"renounceOwnership()": {
						"details": "Leaves the contract without owner. It will not be possible to call `onlyOwner` functions. Can only be called by the current owner. NOTE: Renouncing ownership will leave the contract without an owner, thereby disabling any functionality that is only available to the owner."
					},
					"transferOwnership(address)": {
						"details": "Transfers ownership of the contract to a new account (`newOwner`). Can only be called by the current owner."
					}
				},
				"version": 1
			},
			"evm": {
				"assembly": "    /* \"contracts/Loanable.sol\":175:5132  contract LendingContract is Ownable {... */\n  mstore(0x40, 0xe0)\n    /* \"contracts/Loanable.sol\":1216:1388  constructor(address _tokenA, address _tokenB, address _tokenC) Ownable(msg.sender) {... */\n  callvalue\n  dup1\n  iszero\n  tag_1\n  jumpi\n  0x00\n  dup1\n  revert\ntag_1:\n  pop\n  mload(0x40)\n  sub(codesize, bytecodeSize)\n  dup1\n  bytecodeSize\n  dup4\n  codecopy\n  dup2\n  dup2\n  add\n  0x40\n  mstore\n  dup2\n  add\n  swap1\n  tag_2\n  swap2\n  swap1\n  tag_3\n  jump\t// in\ntag_2:\n    /* \"contracts/Loanable.sol\":1287:1297  msg.sender */\n  caller\n    /* \"@openzeppelin/contracts/access/Ownable.sol\":1297:1298  0 */\n  0x00\n    /* \"@openzeppelin/contracts/access/Ownable.sol\":1273:1299  initialOwner == address(0) */\n  0xffffffffffffffffffffffffffffffffffffffff\n  and\n    /* \"@openzeppelin/contracts/access/Ownable.sol\":1273:1285  initialOwner */\n  dup2\n    /* \"@openzeppelin/contracts/access/Ownable.sol\":1273:1299  initialOwner == address(0) */\n  0xffffffffffffffffffffffffffffffffffffffff\n  and\n  sub\n    /* \"@openzeppelin/contracts/access/Ownable.sol\":1269:1364  if (initialOwner == address(0)) {... */\n  tag_7\n  jumpi\n    /* \"@openzeppelin/contracts/access/Ownable.sol\":1350:1351  0 */\n  0x00\n    /* \"@openzeppelin/contracts/access/Ownable.sol\":1322:1353  OwnableInvalidOwner(address(0)) */\n  mload(0x40)\n  0x1e4fbdf700000000000000000000000000000000000000000000000000000000\n  dup2\n  mstore\n  0x04\n  add\n  tag_8\n  swap2\n  swap1\n  tag_9\n  jump\t// in\ntag_8:\n  mload(0x40)\n  dup1\n  swap2\n  sub\n  swap1\n  revert\n    /* \"@openzeppelin/contracts/access/Ownable.sol\":1269:1364  if (initialOwner == address(0)) {... */\ntag_7:\n    /* \"@openzeppelin/contracts/access/Ownable.sol\":1373:1405  _transferOwnership(initialOwner) */\n  tag_10\n    /* \"@openzeppelin/contracts/access/Ownable.sol\":1392:1404  initialOwner */\n  dup2\n    /* \"@openzeppelin/contracts/access/Ownable.sol\":1373:1391  _transferOwnership */\n  shl(0x20, tag_11)\n    /* \"@openzeppelin/contracts/access/Ownable.sol\":1373:1405  _transferOwnership(initialOwner) */\n  0x20\n  shr\n  jump\t// in\ntag_10:\n    /* \"@openzeppelin/contracts/access/Ownable.sol\":1225:1412  constructor(address initialOwner) {... */\n  pop\n    /* \"contracts/Loanable.sol\":1319:1326  _tokenA */\n  dup3\n    /* \"contracts/Loanable.sol\":1310:1326  tokenA = _tokenA */\n  0xffffffffffffffffffffffffffffffffffffffff\n  and\n  0x80\n  dup2\n  0xffffffffffffffffffffffffffffffffffffffff\n  and\n  dup2\n  mstore\n  pop\n  pop\n    /* \"contracts/Loanable.sol\":1346:1353  _tokenB */\n  dup2\n    /* \"contracts/Loanable.sol\":1337:1353  tokenB = _tokenB */\n  0xffffffffffffffffffffffffffffffffffffffff\n  and\n  0xa0\n  dup2\n  0xffffffffffffffffffffffffffffffffffffffff\n  and\n  dup2\n  mstore\n  pop\n  pop\n    /* \"contracts/Loanable.sol\":1373:1380  _tokenC */\n  dup1\n    /* \"contracts/Loanable.sol\":1364:1380  tokenC = _tokenC */\n  0xffffffffffffffffffffffffffffffffffffffff\n  and\n  0xc0\n  dup2\n  0xffffffffffffffffffffffffffffffffffffffff\n  and\n  dup2\n  mstore\n  pop\n  pop\n    /* \"contracts/Loanable.sol\":1216:1388  constructor(address _tokenA, address _tokenB, address _tokenC) Ownable(msg.sender) {... */\n  pop\n  pop\n  pop\n    /* \"contracts/Loanable.sol\":175:5132  contract LendingContract is Ownable {... */\n  jump(tag_13)\n    /* \"@openzeppelin/contracts/access/Ownable.sol\":2912:3099  function _transferOwnership(address newOwner) internal virtual {... */\ntag_11:\n    /* \"@openzeppelin/contracts/access/Ownable.sol\":2985:3001  address oldOwner */\n  0x00\n    /* \"@openzeppelin/contracts/access/Ownable.sol\":3004:3010  _owner */\n  dup1\n  0x00\n  swap1\n  sload\n  swap1\n  0x0100\n  exp\n  swap1\n  div\n  0xffffffffffffffffffffffffffffffffffffffff\n  and\n    /* \"@openzeppelin/contracts/access/Ownable.sol\":2985:3010  address oldOwner = _owner */\n  swap1\n  pop\n    /* \"@openzeppelin/contracts/access/Ownable.sol\":3029:3037  newOwner */\n  dup2\n    /* \"@openzeppelin/contracts/access/Ownable.sol\":3020:3026  _owner */\n  0x00\n  dup1\n    /* \"@openzeppelin/contracts/access/Ownable.sol\":3020:3037  _owner = newOwner */\n  0x0100\n  exp\n  dup2\n  sload\n  dup2\n  0xffffffffffffffffffffffffffffffffffffffff\n  mul\n  not\n  and\n  swap1\n  dup4\n  0xffffffffffffffffffffffffffffffffffffffff\n  and\n  mul\n  or\n  swap1\n  sstore\n  pop\n    /* \"@openzeppelin/contracts/access/Ownable.sol\":3083:3091  newOwner */\n  dup2\n    /* \"@openzeppelin/contracts/access/Ownable.sol\":3052:3092  OwnershipTransferred(oldOwner, newOwner) */\n  0xffffffffffffffffffffffffffffffffffffffff\n  and\n    /* \"@openzeppelin/contracts/access/Ownable.sol\":3073:3081  oldOwner */\n  dup2\n    /* \"@openzeppelin/contracts/access/Ownable.sol\":3052:3092  OwnershipTransferred(oldOwner, newOwner) */\n  0xffffffffffffffffffffffffffffffffffffffff\n  and\n  0x8be0079c531659141344cd1fd0a4f28419497f9722a3daafe3b4186f6b6457e0\n  mload(0x40)\n  mload(0x40)\n  dup1\n  swap2\n  sub\n  swap1\n  log3\n    /* \"@openzeppelin/contracts/access/Ownable.sol\":2975:3099  {... */\n  pop\n    /* \"@openzeppelin/contracts/access/Ownable.sol\":2912:3099  function _transferOwnership(address newOwner) internal virtual {... */\n  pop\n  jump\t// out\n    /* \"#utility.yul\":88:205   */\ntag_16:\n    /* \"#utility.yul\":197:198   */\n  0x00\n    /* \"#utility.yul\":194:195   */\n  dup1\n    /* \"#utility.yul\":187:199   */\n  revert\n    /* \"#utility.yul\":334:460   */\ntag_18:\n    /* \"#utility.yul\":371:378   */\n  0x00\n    /* \"#utility.yul\":411:453   */\n  0xffffffffffffffffffffffffffffffffffffffff\n    /* \"#utility.yul\":404:409   */\n  dup3\n    /* \"#utility.yul\":400:454   */\n  and\n    /* \"#utility.yul\":389:454   */\n  swap1\n  pop\n    /* \"#utility.yul\":334:460   */\n  swap2\n  swap1\n  pop\n  jump\t// out\n    /* \"#utility.yul\":466:562   */\ntag_19:\n    /* \"#utility.yul\":503:510   */\n  0x00\n    /* \"#utility.yul\":532:556   */\n  tag_29\n    /* \"#utility.yul\":550:555   */\n  dup3\n    /* \"#utility.yul\":532:556   */\n  tag_18\n  jump\t// in\ntag_29:\n    /* \"#utility.yul\":521:556   */\n  swap1\n  pop\n    /* \"#utility.yul\":466:562   */\n  swap2\n  swap1\n  pop\n  jump\t// out\n    /* \"#utility.yul\":568:690   */\ntag_20:\n    /* \"#utility.yul\":641:665   */\n  tag_31\n    /* \"#utility.yul\":659:664   */\n  dup2\n    /* \"#utility.yul\":641:665   */\n  tag_19\n  jump\t// in\ntag_31:\n    /* \"#utility.yul\":634:639   */\n  dup2\n    /* \"#utility.yul\":631:666   */\n  eq\n    /* \"#utility.yul\":621:684   */\n  tag_32\n  jumpi\n    /* \"#utility.yul\":680:681   */\n  0x00\n    /* \"#utility.yul\":677:678   */\n  dup1\n    /* \"#utility.yul\":670:682   */\n  revert\n    /* \"#utility.yul\":621:684   */\ntag_32:\n    /* \"#utility.yul\":568:690   */\n  pop\n  jump\t// out\n    /* \"#utility.yul\":696:839   */\ntag_21:\n    /* \"#utility.yul\":753:758   */\n  0x00\n    /* \"#utility.yul\":784:790   */\n  dup2\n    /* \"#utility.yul\":778:791   */\n  mload\n    /* \"#utility.yul\":769:791   */\n  swap1\n  pop\n    /* \"#utility.yul\":800:833   */\n  tag_34\n    /* \"#utility.yul\":827:832   */\n  dup2\n    /* \"#utility.yul\":800:833   */\n  tag_20\n  jump\t// in\ntag_34:\n    /* \"#utility.yul\":696:839   */\n  swap3\n  swap2\n  pop\n  pop\n  jump\t// out\n    /* \"#utility.yul\":845:1508   */\ntag_3:\n    /* \"#utility.yul\":933:939   */\n  0x00\n    /* \"#utility.yul\":941:947   */\n  dup1\n    /* \"#utility.yul\":949:955   */\n  0x00\n    /* \"#utility.yul\":998:1000   */\n  0x60\n    /* \"#utility.yul\":986:995   */\n  dup5\n    /* \"#utility.yul\":977:984   */\n  dup7\n    /* \"#utility.yul\":973:996   */\n  sub\n    /* \"#utility.yul\":969:1001   */\n  slt\n    /* \"#utility.yul\":966:1085   */\n  iszero\n  tag_36\n  jumpi\n    /* \"#utility.yul\":1004:1083   */\n  tag_37\n  tag_16\n  jump\t// in\ntag_37:\n    /* \"#utility.yul\":966:1085   */\ntag_36:\n    /* \"#utility.yul\":1124:1125   */\n  0x00\n    /* \"#utility.yul\":1149:1213   */\n  tag_38\n    /* \"#utility.yul\":1205:1212   */\n  dup7\n    /* \"#utility.yul\":1196:1202   */\n  dup3\n    /* \"#utility.yul\":1185:1194   */\n  dup8\n    /* \"#utility.yul\":1181:1203   */\n  add\n    /* \"#utility.yul\":1149:1213   */\n  tag_21\n  jump\t// in\ntag_38:\n    /* \"#utility.yul\":1139:1213   */\n  swap4\n  pop\n    /* \"#utility.yul\":1095:1223   */\n  pop\n    /* \"#utility.yul\":1262:1264   */\n  0x20\n    /* \"#utility.yul\":1288:1352   */\n  tag_39\n    /* \"#utility.yul\":1344:1351   */\n  dup7\n    /* \"#utility.yul\":1335:1341   */\n  dup3\n    /* \"#utility.yul\":1324:1333   */\n  dup8\n    /* \"#utility.yul\":1320:1342   */\n  add\n    /* \"#utility.yul\":1288:1352   */\n  tag_21\n  jump\t// in\ntag_39:\n    /* \"#utility.yul\":1278:1352   */\n  swap3\n  pop\n    /* \"#utility.yul\":1233:1362   */\n  pop\n    /* \"#utility.yul\":1401:1403   */\n  0x40\n    /* \"#utility.yul\":1427:1491   */\n  tag_40\n    /* \"#utility.yul\":1483:1490   */\n  dup7\n    /* \"#utility.yul\":1474:1480   */\n  dup3\n    /* \"#utility.yul\":1463:1472   */\n  dup8\n    /* \"#utility.yul\":1459:1481   */\n  add\n    /* \"#utility.yul\":1427:1491   */\n  tag_21\n  jump\t// in\ntag_40:\n    /* \"#utility.yul\":1417:1491   */\n  swap2\n  pop\n    /* \"#utility.yul\":1372:1501   */\n  pop\n    /* \"#utility.yul\":845:1508   */\n  swap3\n  pop\n  swap3\n  pop\n  swap3\n  jump\t// out\n    /* \"#utility.yul\":1514:1632   */\ntag_22:\n    /* \"#utility.yul\":1601:1625   */\n  tag_42\n    /* \"#utility.yul\":1619:1624   */\n  dup2\n    /* \"#utility.yul\":1601:1625   */\n  tag_19\n  jump\t// in\ntag_42:\n    /* \"#utility.yul\":1596:1599   */\n  dup3\n    /* \"#utility.yul\":1589:1626   */\n  mstore\n    /* \"#utility.yul\":1514:1632   */\n  pop\n  pop\n  jump\t// out\n    /* \"#utility.yul\":1638:1860   */\ntag_9:\n    /* \"#utility.yul\":1731:1735   */\n  0x00\n    /* \"#utility.yul\":1769:1771   */\n  0x20\n    /* \"#utility.yul\":1758:1767   */\n  dup3\n    /* \"#utility.yul\":1754:1772   */\n  add\n    /* \"#utility.yul\":1746:1772   */\n  swap1\n  pop\n    /* \"#utility.yul\":1782:1853   */\n  tag_44\n    /* \"#utility.yul\":1850:1851   */\n  0x00\n    /* \"#utility.yul\":1839:1848   */\n  dup4\n    /* \"#utility.yul\":1835:1852   */\n  add\n    /* \"#utility.yul\":1826:1832   */\n  dup5\n    /* \"#utility.yul\":1782:1853   */\n  tag_22\n  jump\t// in\ntag_44:\n    /* \"#utility.yul\":1638:1860   */\n  swap3\n  swap2\n  pop\n  pop\n  jump\t// out\n    /* \"contracts/Loanable.sol\":175:5132  contract LendingContract is Ownable {... */\ntag_13:\n  mload(0x80)\n  mload(0xa0)\n  mload(0xc0)\n  codecopy(0x00, dataOffset(sub_0), dataSize(sub_0))\n  0x00\n  assignImmutable(\"0x7d94b1fd5befe75fac04677148728067a5c7750c4535d59cf8d692301dae078c\")\n  0x00\n  assignImmutable(\"0xddf732f49edf4f39000cbbb8d0940c0999195c9b1b0aec524c1c4b4adca5a581\")\n  0x00\n  assignImmutable(\"0x3f0db30619999417fd8760d29229e62155714c378b0408610dbffdd45f116b21\")\n  return(0x00, dataSize(sub_0))\nstop\n\nsub_0: assembly {\n        /* \"contracts/Loanable.sol\":175:5132  contract LendingContract is Ownable {... */\n      mstore(0x40, 0x80)\n      jumpi(tag_1, lt(calldatasize, 0x04))\n      shr(0xe0, calldataload(0x00))\n      dup1\n      0x98c61c37\n      gt\n      tag_17\n      jumpi\n      dup1\n      0xd0280539\n      gt\n      tag_18\n      jumpi\n      dup1\n      0xd0280539\n      eq\n      tag_13\n      jumpi\n      dup1\n      0xe1254fba\n      eq\n      tag_14\n      jumpi\n      dup1\n      0xf2fde38b\n      eq\n      tag_15\n      jumpi\n      dup1\n      0xf3fef3a3\n      eq\n      tag_16\n      jumpi\n      jump(tag_2)\n    tag_18:\n      dup1\n      0x98c61c37\n      eq\n      tag_10\n      jumpi\n      dup1\n      0xaa4a8711\n      eq\n      tag_11\n      jumpi\n      dup1\n      0xc483a308\n      eq\n      tag_12\n      jumpi\n      jump(tag_2)\n    tag_17:\n      dup1\n      0x5f64b55b\n      gt\n      tag_19\n      jumpi\n      dup1\n      0x5f64b55b\n      eq\n      tag_6\n      jumpi\n      dup1\n      0x715018a6\n      eq\n      tag_7\n      jumpi\n      dup1\n      0x8da5cb5b\n      eq\n      tag_8\n      jumpi\n      dup1\n      0x8f601f66\n      eq\n      tag_9\n      jumpi\n      jump(tag_2)\n    tag_19:\n      dup1\n      0x0fc63d10\n      eq\n      tag_3\n      jumpi\n      dup1\n      0x371fd8e6\n      eq\n      tag_4\n      jumpi\n      dup1\n      0x47e7ef24\n      eq\n      tag_5\n      jumpi\n      jump(tag_2)\n    tag_1:\n      jumpi(tag_2, calldatasize)\n      stop\n    tag_2:\n      0x00\n      dup1\n      revert\n        /* \"contracts/Loanable.sol\":224:255  address public immutable tokenA */\n    tag_3:\n      callvalue\n      dup1\n      iszero\n      tag_22\n      jumpi\n      0x00\n      dup1\n      revert\n    tag_22:\n      pop\n      tag_23\n      tag_24\n      jump\t// in\n    tag_23:\n      mload(0x40)\n      tag_25\n      swap2\n      swap1\n      tag_26\n      jump\t// in\n    tag_25:\n      mload(0x40)\n      dup1\n      swap2\n      sub\n      swap1\n      return\n        /* \"contracts/Loanable.sol\":3991:4737  function repay(uint256 loanIndex) external payable {... */\n    tag_4:\n      tag_27\n      0x04\n      dup1\n      calldatasize\n      sub\n      dup2\n      add\n      swap1\n      tag_28\n      swap2\n      swap1\n      tag_29\n      jump\t// in\n    tag_28:\n      tag_30\n      jump\t// in\n    tag_27:\n      stop\n        /* \"contracts/Loanable.sol\":1434:1997  function deposit(address token, uint256 amount) external payable {... */\n    tag_5:\n      tag_31\n      0x04\n      dup1\n      calldatasize\n      sub\n      dup2\n      add\n      swap1\n      tag_32\n      swap2\n      swap1\n      tag_33\n      jump\t// in\n    tag_32:\n      tag_34\n      jump\t// in\n    tag_31:\n      stop\n        /* \"contracts/Loanable.sol\":262:293  address public immutable tokenB */\n    tag_6:\n      callvalue\n      dup1\n      iszero\n      tag_35\n      jumpi\n      0x00\n      dup1\n      revert\n    tag_35:\n      pop\n      tag_36\n      tag_37\n      jump\t// in\n    tag_36:\n      mload(0x40)\n      tag_38\n      swap2\n      swap1\n      tag_26\n      jump\t// in\n    tag_38:\n      mload(0x40)\n      dup1\n      swap2\n      sub\n      swap1\n      return\n        /* \"@openzeppelin/contracts/access/Ownable.sol\":2293:2394  function renounceOwnership() public virtual onlyOwner {... */\n    tag_7:\n      callvalue\n      dup1\n      iszero\n      tag_39\n      jumpi\n      0x00\n      dup1\n      revert\n    tag_39:\n      pop\n      tag_40\n      tag_41\n      jump\t// in\n    tag_40:\n      stop\n        /* \"@openzeppelin/contracts/access/Ownable.sol\":1638:1723  function owner() public view virtual returns (address) {... */\n    tag_8:\n      callvalue\n      dup1\n      iszero\n      tag_42\n      jumpi\n      0x00\n      dup1\n      revert\n    tag_42:\n      pop\n      tag_43\n      tag_44\n      jump\t// in\n    tag_43:\n      mload(0x40)\n      tag_45\n      swap2\n      swap1\n      tag_26\n      jump\t// in\n    tag_45:\n      mload(0x40)\n      dup1\n      swap2\n      sub\n      swap1\n      return\n        /* \"contracts/Loanable.sol\":551:614  mapping(address => mapping(address => uint256)) public deposits */\n    tag_9:\n      callvalue\n      dup1\n      iszero\n      tag_46\n      jumpi\n      0x00\n      dup1\n      revert\n    tag_46:\n      pop\n      tag_47\n      0x04\n      dup1\n      calldatasize\n      sub\n      dup2\n      add\n      swap1\n      tag_48\n      swap2\n      swap1\n      tag_49\n      jump\t// in\n    tag_48:\n      tag_50\n      jump\t// in\n    tag_47:\n      mload(0x40)\n      tag_51\n      swap2\n      swap1\n      tag_52\n      jump\t// in\n    tag_51:\n      mload(0x40)\n      dup1\n      swap2\n      sub\n      swap1\n      return\n        /* \"contracts/Loanable.sol\":686:725  mapping(address => Loan[]) public loans */\n    tag_10:\n      callvalue\n      dup1\n      iszero\n      tag_53\n      jumpi\n      0x00\n      dup1\n      revert\n    tag_53:\n      pop\n      tag_54\n      0x04\n      dup1\n      calldatasize\n      sub\n      dup2\n      add\n      swap1\n      tag_55\n      swap2\n      swap1\n      tag_33\n      jump\t// in\n    tag_55:\n      tag_56\n      jump\t// in\n    tag_54:\n      mload(0x40)\n      tag_57\n      swap7\n      swap6\n      swap5\n      swap4\n      swap3\n      swap2\n      swap1\n      tag_58\n      jump\t// in\n    tag_57:\n      mload(0x40)\n      dup1\n      swap2\n      sub\n      swap1\n      return\n        /* \"contracts/Loanable.sol\":4951:5052  function getLoans() external view returns (Loan[] memory) {... */\n    tag_11:\n      callvalue\n      dup1\n      iszero\n      tag_59\n      jumpi\n      0x00\n      dup1\n      revert\n    tag_59:\n      pop\n      tag_60\n      tag_61\n      jump\t// in\n    tag_60:\n      mload(0x40)\n      tag_62\n      swap2\n      swap1\n      tag_63\n      jump\t// in\n    tag_62:\n      mload(0x40)\n      dup1\n      swap2\n      sub\n      swap1\n      return\n        /* \"contracts/Loanable.sol\":300:331  address public immutable tokenC */\n    tag_12:\n      callvalue\n      dup1\n      iszero\n      tag_64\n      jumpi\n      0x00\n      dup1\n      revert\n    tag_64:\n      pop\n      tag_65\n      tag_66\n      jump\t// in\n    tag_65:\n      mload(0x40)\n      tag_67\n      swap2\n      swap1\n      tag_26\n      jump\t// in\n    tag_67:\n      mload(0x40)\n      dup1\n      swap2\n      sub\n      swap1\n      return\n        /* \"contracts/Loanable.sol\":2565:3935  function borrow(address loanToken, uint256 loanAmount, address collateralToken, uint256 collateralAmount) external {... */\n    tag_13:\n      callvalue\n      dup1\n      iszero\n      tag_68\n      jumpi\n      0x00\n      dup1\n      revert\n    tag_68:\n      pop\n      tag_69\n      0x04\n      dup1\n      calldatasize\n      sub\n      dup2\n      add\n      swap1\n      tag_70\n      swap2\n      swap1\n      tag_71\n      jump\t// in\n    tag_70:\n      tag_72\n      jump\t// in\n    tag_69:\n      stop\n        /* \"contracts/Loanable.sol\":4781:4901  function getDeposit(address token) external view returns (uint256) {... */\n    tag_14:\n      callvalue\n      dup1\n      iszero\n      tag_73\n      jumpi\n      0x00\n      dup1\n      revert\n    tag_73:\n      pop\n      tag_74\n      0x04\n      dup1\n      calldatasize\n      sub\n      dup2\n      add\n      swap1\n      tag_75\n      swap2\n      swap1\n      tag_76\n      jump\t// in\n    tag_75:\n      tag_77\n      jump\t// in\n    tag_74:\n      mload(0x40)\n      tag_78\n      swap2\n      swap1\n      tag_52\n      jump\t// in\n    tag_78:\n      mload(0x40)\n      dup1\n      swap2\n      sub\n      swap1\n      return\n        /* \"@openzeppelin/contracts/access/Ownable.sol\":2543:2758  function transferOwnership(address newOwner) public virtual onlyOwner {... */\n    tag_15:\n      callvalue\n      dup1\n      iszero\n      tag_79\n      jumpi\n      0x00\n      dup1\n      revert\n    tag_79:\n      pop\n      tag_80\n      0x04\n      dup1\n      calldatasize\n      sub\n      dup2\n      add\n      swap1\n      tag_81\n      swap2\n      swap1\n      tag_76\n      jump\t// in\n    tag_81:\n      tag_82\n      jump\t// in\n    tag_80:\n      stop\n        /* \"contracts/Loanable.sol\":2043:2493  function withdraw(address token, uint256 amount) external {... */\n    tag_16:\n      callvalue\n      dup1\n      iszero\n      tag_83\n      jumpi\n      0x00\n      dup1\n      revert\n    tag_83:\n      pop\n      tag_84\n      0x04\n      dup1\n      calldatasize\n      sub\n      dup2\n      add\n      swap1\n      tag_85\n      swap2\n      swap1\n      tag_33\n      jump\t// in\n    tag_85:\n      tag_86\n      jump\t// in\n    tag_84:\n      stop\n        /* \"contracts/Loanable.sol\":224:255  address public immutable tokenA */\n    tag_24:\n      immutable(\"0x3f0db30619999417fd8760d29229e62155714c378b0408610dbffdd45f116b21\")\n      dup2\n      jump\t// out\n        /* \"contracts/Loanable.sol\":3991:4737  function repay(uint256 loanIndex) external payable {... */\n    tag_30:\n        /* \"contracts/Loanable.sol\":4073:4078  loans */\n      0x02\n        /* \"contracts/Loanable.sol\":4073:4090  loans[msg.sender] */\n      0x00\n        /* \"contracts/Loanable.sol\":4079:4089  msg.sender */\n      caller\n        /* \"contracts/Loanable.sol\":4073:4090  loans[msg.sender] */\n      0xffffffffffffffffffffffffffffffffffffffff\n      and\n      0xffffffffffffffffffffffffffffffffffffffff\n      and\n      dup2\n      mstore\n      0x20\n      add\n      swap1\n      dup2\n      mstore\n      0x20\n      add\n      0x00\n      keccak256\n        /* \"contracts/Loanable.sol\":4073:4097  loans[msg.sender].length */\n      dup1\n      sload\n      swap1\n      pop\n        /* \"contracts/Loanable.sol\":4061:4070  loanIndex */\n      dup2\n        /* \"contracts/Loanable.sol\":4061:4097  loanIndex < loans[msg.sender].length */\n      lt\n        /* \"contracts/Loanable.sol\":4053:4120  require(loanIndex < loans[msg.sender].length, \"Invalid loan index\") */\n      tag_88\n      jumpi\n      mload(0x40)\n      0x08c379a000000000000000000000000000000000000000000000000000000000\n      dup2\n      mstore\n      0x04\n      add\n      tag_89\n      swap1\n      tag_90\n      jump\t// in\n    tag_89:\n      mload(0x40)\n      dup1\n      swap2\n      sub\n      swap1\n      revert\n    tag_88:\n        /* \"contracts/Loanable.sol\":4131:4148  Loan storage loan */\n      0x00\n        /* \"contracts/Loanable.sol\":4151:4156  loans */\n      0x02\n        /* \"contracts/Loanable.sol\":4151:4168  loans[msg.sender] */\n      0x00\n        /* \"contracts/Loanable.sol\":4157:4167  msg.sender */\n      caller\n        /* \"contracts/Loanable.sol\":4151:4168  loans[msg.sender] */\n      0xffffffffffffffffffffffffffffffffffffffff\n      and\n      0xffffffffffffffffffffffffffffffffffffffff\n      and\n      dup2\n      mstore\n      0x20\n      add\n      swap1\n      dup2\n      mstore\n      0x20\n      add\n      0x00\n      keccak256\n        /* \"contracts/Loanable.sol\":4169:4178  loanIndex */\n      dup3\n        /* \"contracts/Loanable.sol\":4151:4179  loans[msg.sender][loanIndex] */\n      dup2\n      sload\n      dup2\n      lt\n      tag_91\n      jumpi\n      tag_92\n      tag_93\n      jump\t// in\n    tag_92:\n    tag_91:\n      swap1\n      0x00\n      mstore\n      keccak256(0x00, 0x20)\n      swap1\n      0x06\n      mul\n      add\n        /* \"contracts/Loanable.sol\":4131:4179  Loan storage loan = loans[msg.sender][loanIndex] */\n      swap1\n      pop\n        /* \"contracts/Loanable.sol\":4198:4202  loan */\n      dup1\n        /* \"contracts/Loanable.sol\":4198:4211  loan.isActive */\n      0x05\n      add\n      0x00\n      swap1\n      sload\n      swap1\n      0x0100\n      exp\n      swap1\n      div\n      0xff\n      and\n        /* \"contracts/Loanable.sol\":4190:4235  require(loan.isActive, \"Loan already repaid\") */\n      tag_95\n      jumpi\n      mload(0x40)\n      0x08c379a000000000000000000000000000000000000000000000000000000000\n      dup2\n      mstore\n      0x04\n      add\n      tag_96\n      swap1\n      tag_97\n      jump\t// in\n    tag_96:\n      mload(0x40)\n      dup1\n      swap2\n      sub\n      swap1\n      revert\n    tag_95:\n        /* \"contracts/Loanable.sol\":4303:4304  0 */\n      0x00\n        /* \"contracts/Loanable.sol\":4277:4305  loan.loanToken == address(0) */\n      0xffffffffffffffffffffffffffffffffffffffff\n      and\n        /* \"contracts/Loanable.sol\":4277:4281  loan */\n      dup2\n        /* \"contracts/Loanable.sol\":4277:4291  loan.loanToken */\n      0x01\n      add\n      0x00\n      swap1\n      sload\n      swap1\n      0x0100\n      exp\n      swap1\n      div\n      0xffffffffffffffffffffffffffffffffffffffff\n      and\n        /* \"contracts/Loanable.sol\":4277:4305  loan.loanToken == address(0) */\n      0xffffffffffffffffffffffffffffffffffffffff\n      and\n      sub\n        /* \"contracts/Loanable.sol\":4273:4543  if (loan.loanToken == address(0)) {... */\n      tag_98\n      jumpi\n        /* \"contracts/Loanable.sol\":4343:4347  loan */\n      dup1\n        /* \"contracts/Loanable.sol\":4343:4358  loan.loanAmount */\n      0x02\n      add\n      sload\n        /* \"contracts/Loanable.sol\":4330:4339  msg.value */\n      callvalue\n        /* \"contracts/Loanable.sol\":4330:4358  msg.value == loan.loanAmount */\n      eq\n        /* \"contracts/Loanable.sol\":4322:4385  require(msg.value == loan.loanAmount, \"ETH repayment mismatch\") */\n      tag_99\n      jumpi\n      mload(0x40)\n      0x08c379a000000000000000000000000000000000000000000000000000000000\n      dup2\n      mstore\n      0x04\n      add\n      tag_100\n      swap1\n      tag_101\n      jump\t// in\n    tag_100:\n      mload(0x40)\n      dup1\n      swap2\n      sub\n      swap1\n      revert\n    tag_99:\n        /* \"contracts/Loanable.sol\":4273:4543  if (loan.loanToken == address(0)) {... */\n      jump(tag_102)\n    tag_98:\n        /* \"contracts/Loanable.sol\":4433:4437  loan */\n      dup1\n        /* \"contracts/Loanable.sol\":4433:4447  loan.loanToken */\n      0x01\n      add\n      0x00\n      swap1\n      sload\n      swap1\n      0x0100\n      exp\n      swap1\n      div\n      0xffffffffffffffffffffffffffffffffffffffff\n      and\n        /* \"contracts/Loanable.sol\":4426:4461  IERC20(loan.loanToken).transferFrom */\n      0xffffffffffffffffffffffffffffffffffffffff\n      and\n      0x23b872dd\n        /* \"contracts/Loanable.sol\":4462:4472  msg.sender */\n      caller\n        /* \"contracts/Loanable.sol\":4482:4486  this */\n      address\n        /* \"contracts/Loanable.sol\":4489:4493  loan */\n      dup5\n        /* \"contracts/Loanable.sol\":4489:4504  loan.loanAmount */\n      0x02\n      add\n      sload\n        /* \"contracts/Loanable.sol\":4426:4505  IERC20(loan.loanToken).transferFrom(msg.sender, address(this), loan.loanAmount) */\n      mload(0x40)\n      dup5\n      0xffffffff\n      and\n      0xe0\n      shl\n      dup2\n      mstore\n      0x04\n      add\n      tag_103\n      swap4\n      swap3\n      swap2\n      swap1\n      tag_104\n      jump\t// in\n    tag_103:\n      0x20\n      mload(0x40)\n      dup1\n      dup4\n      sub\n      dup2\n      0x00\n      dup8\n      gas\n      call\n      iszero\n      dup1\n      iszero\n      tag_106\n      jumpi\n      returndatasize\n      0x00\n      dup1\n      returndatacopy\n      revert(0x00, returndatasize)\n    tag_106:\n      pop\n      pop\n      pop\n      pop\n      mload(0x40)\n      returndatasize\n      not(0x1f)\n      0x1f\n      dup3\n      add\n      and\n      dup3\n      add\n      dup1\n      0x40\n      mstore\n      pop\n      dup2\n      add\n      swap1\n      tag_107\n      swap2\n      swap1\n      tag_108\n      jump\t// in\n    tag_107:\n        /* \"contracts/Loanable.sol\":4418:4531  require(IERC20(loan.loanToken).transferFrom(msg.sender, address(this), loan.loanAmount), \"Loan repayment failed\") */\n      tag_109\n      jumpi\n      mload(0x40)\n      0x08c379a000000000000000000000000000000000000000000000000000000000\n      dup2\n      mstore\n      0x04\n      add\n      tag_110\n      swap1\n      tag_111\n      jump\t// in\n    tag_110:\n      mload(0x40)\n      dup1\n      swap2\n      sub\n      swap1\n      revert\n    tag_109:\n        /* \"contracts/Loanable.sol\":4273:4543  if (loan.loanToken == address(0)) {... */\n    tag_102:\n        /* \"contracts/Loanable.sol\":4629:4633  loan */\n      dup1\n        /* \"contracts/Loanable.sol\":4629:4650  loan.collateralAmount */\n      0x04\n      add\n      sload\n        /* \"contracts/Loanable.sol\":4583:4591  deposits */\n      0x01\n        /* \"contracts/Loanable.sol\":4583:4603  deposits[msg.sender] */\n      0x00\n        /* \"contracts/Loanable.sol\":4592:4602  msg.sender */\n      caller\n        /* \"contracts/Loanable.sol\":4583:4603  deposits[msg.sender] */\n      0xffffffffffffffffffffffffffffffffffffffff\n      and\n      0xffffffffffffffffffffffffffffffffffffffff\n      and\n      dup2\n      mstore\n      0x20\n      add\n      swap1\n      dup2\n      mstore\n      0x20\n      add\n      0x00\n      keccak256\n        /* \"contracts/Loanable.sol\":4583:4625  deposits[msg.sender][loan.collateralToken] */\n      0x00\n        /* \"contracts/Loanable.sol\":4604:4608  loan */\n      dup4\n        /* \"contracts/Loanable.sol\":4604:4624  loan.collateralToken */\n      0x03\n      add\n      0x00\n      swap1\n      sload\n      swap1\n      0x0100\n      exp\n      swap1\n      div\n      0xffffffffffffffffffffffffffffffffffffffff\n      and\n        /* \"contracts/Loanable.sol\":4583:4625  deposits[msg.sender][loan.collateralToken] */\n      0xffffffffffffffffffffffffffffffffffffffff\n      and\n      0xffffffffffffffffffffffffffffffffffffffff\n      and\n      dup2\n      mstore\n      0x20\n      add\n      swap1\n      dup2\n      mstore\n      0x20\n      add\n      0x00\n      keccak256\n      0x00\n        /* \"contracts/Loanable.sol\":4583:4650  deposits[msg.sender][loan.collateralToken] += loan.collateralAmount */\n      dup3\n      dup3\n      sload\n      tag_112\n      swap2\n      swap1\n      tag_113\n      jump\t// in\n    tag_112:\n      swap3\n      pop\n      pop\n      dup2\n      swap1\n      sstore\n      pop\n        /* \"contracts/Loanable.sol\":4677:4682  false */\n      0x00\n        /* \"contracts/Loanable.sol\":4661:4665  loan */\n      dup2\n        /* \"contracts/Loanable.sol\":4661:4674  loan.isActive */\n      0x05\n      add\n      0x00\n        /* \"contracts/Loanable.sol\":4661:4682  loan.isActive = false */\n      0x0100\n      exp\n      dup2\n      sload\n      dup2\n      0xff\n      mul\n      not\n      and\n      swap1\n      dup4\n      iszero\n      iszero\n      mul\n      or\n      swap1\n      sstore\n      pop\n        /* \"contracts/Loanable.sol\":4707:4717  msg.sender */\n      caller\n        /* \"contracts/Loanable.sol\":4700:4729  Repaid(msg.sender, loanIndex) */\n      0xffffffffffffffffffffffffffffffffffffffff\n      and\n      0x0516911bcc3a0a7412a44601057c0a0a1ec628bde049a84284bc428866534488\n        /* \"contracts/Loanable.sol\":4719:4728  loanIndex */\n      dup4\n        /* \"contracts/Loanable.sol\":4700:4729  Repaid(msg.sender, loanIndex) */\n      mload(0x40)\n      tag_114\n      swap2\n      swap1\n      tag_52\n      jump\t// in\n    tag_114:\n      mload(0x40)\n      dup1\n      swap2\n      sub\n      swap1\n      log2\n        /* \"contracts/Loanable.sol\":4042:4737  {... */\n      pop\n        /* \"contracts/Loanable.sol\":3991:4737  function repay(uint256 loanIndex) external payable {... */\n      pop\n      jump\t// out\n        /* \"contracts/Loanable.sol\":1434:1997  function deposit(address token, uint256 amount) external payable {... */\n    tag_34:\n        /* \"contracts/Loanable.sol\":1531:1532  0 */\n      0x00\n        /* \"contracts/Loanable.sol\":1514:1533  token == address(0) */\n      0xffffffffffffffffffffffffffffffffffffffff\n      and\n        /* \"contracts/Loanable.sol\":1514:1519  token */\n      dup3\n        /* \"contracts/Loanable.sol\":1514:1533  token == address(0) */\n      0xffffffffffffffffffffffffffffffffffffffff\n      and\n      sub\n        /* \"contracts/Loanable.sol\":1510:1938  if (token == address(0)) {... */\n      tag_116\n      jumpi\n        /* \"contracts/Loanable.sol\":1571:1577  amount */\n      dup1\n        /* \"contracts/Loanable.sol\":1558:1567  msg.value */\n      callvalue\n        /* \"contracts/Loanable.sol\":1558:1577  msg.value == amount */\n      eq\n        /* \"contracts/Loanable.sol\":1550:1601  require(msg.value == amount, \"ETH amount mismatch\") */\n      tag_117\n      jumpi\n      mload(0x40)\n      0x08c379a000000000000000000000000000000000000000000000000000000000\n      dup2\n      mstore\n      0x04\n      add\n      tag_118\n      swap1\n      tag_119\n      jump\t// in\n    tag_118:\n      mload(0x40)\n      dup1\n      swap2\n      sub\n      swap1\n      revert\n    tag_117:\n        /* \"contracts/Loanable.sol\":1652:1658  amount */\n      dup1\n        /* \"contracts/Loanable.sol\":1616:1624  deposits */\n      0x01\n        /* \"contracts/Loanable.sol\":1616:1636  deposits[msg.sender] */\n      0x00\n        /* \"contracts/Loanable.sol\":1625:1635  msg.sender */\n      caller\n        /* \"contracts/Loanable.sol\":1616:1636  deposits[msg.sender] */\n      0xffffffffffffffffffffffffffffffffffffffff\n      and\n      0xffffffffffffffffffffffffffffffffffffffff\n      and\n      dup2\n      mstore\n      0x20\n      add\n      swap1\n      dup2\n      mstore\n      0x20\n      add\n      0x00\n      keccak256\n        /* \"contracts/Loanable.sol\":1616:1648  deposits[msg.sender][address(0)] */\n      0x00\n        /* \"contracts/Loanable.sol\":1645:1646  0 */\n      dup1\n        /* \"contracts/Loanable.sol\":1616:1648  deposits[msg.sender][address(0)] */\n      0xffffffffffffffffffffffffffffffffffffffff\n      and\n      0xffffffffffffffffffffffffffffffffffffffff\n      and\n      dup2\n      mstore\n      0x20\n      add\n      swap1\n      dup2\n      mstore\n      0x20\n      add\n      0x00\n      keccak256\n      0x00\n        /* \"contracts/Loanable.sol\":1616:1658  deposits[msg.sender][address(0)] += amount */\n      dup3\n      dup3\n      sload\n      tag_120\n      swap2\n      swap1\n      tag_113\n      jump\t// in\n    tag_120:\n      swap3\n      pop\n      pop\n      dup2\n      swap1\n      sstore\n      pop\n        /* \"contracts/Loanable.sol\":1510:1938  if (token == address(0)) {... */\n      jump(tag_121)\n    tag_116:\n        /* \"contracts/Loanable.sol\":1708:1714  tokenA */\n      immutable(\"0x3f0db30619999417fd8760d29229e62155714c378b0408610dbffdd45f116b21\")\n        /* \"contracts/Loanable.sol\":1699:1714  token == tokenA */\n      0xffffffffffffffffffffffffffffffffffffffff\n      and\n        /* \"contracts/Loanable.sol\":1699:1704  token */\n      dup3\n        /* \"contracts/Loanable.sol\":1699:1714  token == tokenA */\n      0xffffffffffffffffffffffffffffffffffffffff\n      and\n      eq\n        /* \"contracts/Loanable.sol\":1699:1733  token == tokenA || token == tokenB */\n      dup1\n      tag_122\n      jumpi\n      pop\n        /* \"contracts/Loanable.sol\":1727:1733  tokenB */\n      immutable(\"0xddf732f49edf4f39000cbbb8d0940c0999195c9b1b0aec524c1c4b4adca5a581\")\n        /* \"contracts/Loanable.sol\":1718:1733  token == tokenB */\n      0xffffffffffffffffffffffffffffffffffffffff\n      and\n        /* \"contracts/Loanable.sol\":1718:1723  token */\n      dup3\n        /* \"contracts/Loanable.sol\":1718:1733  token == tokenB */\n      0xffffffffffffffffffffffffffffffffffffffff\n      and\n      eq\n        /* \"contracts/Loanable.sol\":1699:1733  token == tokenA || token == tokenB */\n    tag_122:\n        /* \"contracts/Loanable.sol\":1699:1752  token == tokenA || token == tokenB || token == tokenC */\n      dup1\n      tag_123\n      jumpi\n      pop\n        /* \"contracts/Loanable.sol\":1746:1752  tokenC */\n      immutable(\"0x7d94b1fd5befe75fac04677148728067a5c7750c4535d59cf8d692301dae078c\")\n        /* \"contracts/Loanable.sol\":1737:1752  token == tokenC */\n      0xffffffffffffffffffffffffffffffffffffffff\n      and\n        /* \"contracts/Loanable.sol\":1737:1742  token */\n      dup3\n        /* \"contracts/Loanable.sol\":1737:1752  token == tokenC */\n      0xffffffffffffffffffffffffffffffffffffffff\n      and\n      eq\n        /* \"contracts/Loanable.sol\":1699:1752  token == tokenA || token == tokenB || token == tokenC */\n    tag_123:\n        /* \"contracts/Loanable.sol\":1691:1770  require(token == tokenA || token == tokenB || token == tokenC, \"Invalid token\") */\n      tag_124\n      jumpi\n      mload(0x40)\n      0x08c379a000000000000000000000000000000000000000000000000000000000\n      dup2\n      mstore\n      0x04\n      add\n      tag_125\n      swap1\n      tag_126\n      jump\t// in\n    tag_125:\n      mload(0x40)\n      dup1\n      swap2\n      sub\n      swap1\n      revert\n    tag_124:\n        /* \"contracts/Loanable.sol\":1800:1805  token */\n      dup2\n        /* \"contracts/Loanable.sol\":1793:1819  IERC20(token).transferFrom */\n      0xffffffffffffffffffffffffffffffffffffffff\n      and\n      0x23b872dd\n        /* \"contracts/Loanable.sol\":1820:1830  msg.sender */\n      caller\n        /* \"contracts/Loanable.sol\":1840:1844  this */\n      address\n        /* \"contracts/Loanable.sol\":1847:1853  amount */\n      dup5\n        /* \"contracts/Loanable.sol\":1793:1854  IERC20(token).transferFrom(msg.sender, address(this), amount) */\n      mload(0x40)\n      dup5\n      0xffffffff\n      and\n      0xe0\n      shl\n      dup2\n      mstore\n      0x04\n      add\n      tag_127\n      swap4\n      swap3\n      swap2\n      swap1\n      tag_104\n      jump\t// in\n    tag_127:\n      0x20\n      mload(0x40)\n      dup1\n      dup4\n      sub\n      dup2\n      0x00\n      dup8\n      gas\n      call\n      iszero\n      dup1\n      iszero\n      tag_129\n      jumpi\n      returndatasize\n      0x00\n      dup1\n      returndatacopy\n      revert(0x00, returndatasize)\n    tag_129:\n      pop\n      pop\n      pop\n      pop\n      mload(0x40)\n      returndatasize\n      not(0x1f)\n      0x1f\n      dup3\n      add\n      and\n      dup3\n      add\n      dup1\n      0x40\n      mstore\n      pop\n      dup2\n      add\n      swap1\n      tag_130\n      swap2\n      swap1\n      tag_108\n      jump\t// in\n    tag_130:\n        /* \"contracts/Loanable.sol\":1785:1874  require(IERC20(token).transferFrom(msg.sender, address(this), amount), \"Transfer failed\") */\n      tag_131\n      jumpi\n      mload(0x40)\n      0x08c379a000000000000000000000000000000000000000000000000000000000\n      dup2\n      mstore\n      0x04\n      add\n      tag_132\n      swap1\n      tag_133\n      jump\t// in\n    tag_132:\n      mload(0x40)\n      dup1\n      swap2\n      sub\n      swap1\n      revert\n    tag_131:\n        /* \"contracts/Loanable.sol\":1920:1926  amount */\n      dup1\n        /* \"contracts/Loanable.sol\":1889:1897  deposits */\n      0x01\n        /* \"contracts/Loanable.sol\":1889:1909  deposits[msg.sender] */\n      0x00\n        /* \"contracts/Loanable.sol\":1898:1908  msg.sender */\n      caller\n        /* \"contracts/Loanable.sol\":1889:1909  deposits[msg.sender] */\n      0xffffffffffffffffffffffffffffffffffffffff\n      and\n      0xffffffffffffffffffffffffffffffffffffffff\n      and\n      dup2\n      mstore\n      0x20\n      add\n      swap1\n      dup2\n      mstore\n      0x20\n      add\n      0x00\n      keccak256\n        /* \"contracts/Loanable.sol\":1889:1916  deposits[msg.sender][token] */\n      0x00\n        /* \"contracts/Loanable.sol\":1910:1915  token */\n      dup5\n        /* \"contracts/Loanable.sol\":1889:1916  deposits[msg.sender][token] */\n      0xffffffffffffffffffffffffffffffffffffffff\n      and\n      0xffffffffffffffffffffffffffffffffffffffff\n      and\n      dup2\n      mstore\n      0x20\n      add\n      swap1\n      dup2\n      mstore\n      0x20\n      add\n      0x00\n      keccak256\n      0x00\n        /* \"contracts/Loanable.sol\":1889:1926  deposits[msg.sender][token] += amount */\n      dup3\n      dup3\n      sload\n      tag_134\n      swap2\n      swap1\n      tag_113\n      jump\t// in\n    tag_134:\n      swap3\n      pop\n      pop\n      dup2\n      swap1\n      sstore\n      pop\n        /* \"contracts/Loanable.sol\":1510:1938  if (token == address(0)) {... */\n    tag_121:\n        /* \"contracts/Loanable.sol\":1975:1980  token */\n      dup2\n        /* \"contracts/Loanable.sol\":1953:1989  Deposited(msg.sender, token, amount) */\n      0xffffffffffffffffffffffffffffffffffffffff\n      and\n        /* \"contracts/Loanable.sol\":1963:1973  msg.sender */\n      caller\n        /* \"contracts/Loanable.sol\":1953:1989  Deposited(msg.sender, token, amount) */\n      0xffffffffffffffffffffffffffffffffffffffff\n      and\n      0x8752a472e571a816aea92eec8dae9baf628e840f4929fbcc2d155e6233ff68a7\n        /* \"contracts/Loanable.sol\":1982:1988  amount */\n      dup4\n        /* \"contracts/Loanable.sol\":1953:1989  Deposited(msg.sender, token, amount) */\n      mload(0x40)\n      tag_135\n      swap2\n      swap1\n      tag_52\n      jump\t// in\n    tag_135:\n      mload(0x40)\n      dup1\n      swap2\n      sub\n      swap1\n      log3\n        /* \"contracts/Loanable.sol\":1434:1997  function deposit(address token, uint256 amount) external payable {... */\n      pop\n      pop\n      jump\t// out\n        /* \"contracts/Loanable.sol\":262:293  address public immutable tokenB */\n    tag_37:\n      immutable(\"0xddf732f49edf4f39000cbbb8d0940c0999195c9b1b0aec524c1c4b4adca5a581\")\n      dup2\n      jump\t// out\n        /* \"@openzeppelin/contracts/access/Ownable.sol\":2293:2394  function renounceOwnership() public virtual onlyOwner {... */\n    tag_41:\n        /* \"@openzeppelin/contracts/access/Ownable.sol\":1531:1544  _checkOwner() */\n      tag_137\n        /* \"@openzeppelin/contracts/access/Ownable.sol\":1531:1542  _checkOwner */\n      tag_138\n        /* \"@openzeppelin/contracts/access/Ownable.sol\":1531:1544  _checkOwner() */\n      jump\t// in\n    tag_137:\n        /* \"@openzeppelin/contracts/access/Ownable.sol\":2357:2387  _transferOwnership(address(0)) */\n      tag_140\n        /* \"@openzeppelin/contracts/access/Ownable.sol\":2384:2385  0 */\n      0x00\n        /* \"@openzeppelin/contracts/access/Ownable.sol\":2357:2375  _transferOwnership */\n      tag_141\n        /* \"@openzeppelin/contracts/access/Ownable.sol\":2357:2387  _transferOwnership(address(0)) */\n      jump\t// in\n    tag_140:\n        /* \"@openzeppelin/contracts/access/Ownable.sol\":2293:2394  function renounceOwnership() public virtual onlyOwner {... */\n      jump\t// out\n        /* \"@openzeppelin/contracts/access/Ownable.sol\":1638:1723  function owner() public view virtual returns (address) {... */\n    tag_44:\n        /* \"@openzeppelin/contracts/access/Ownable.sol\":1684:1691  address */\n      0x00\n        /* \"@openzeppelin/contracts/access/Ownable.sol\":1710:1716  _owner */\n      dup1\n      0x00\n      swap1\n      sload\n      swap1\n      0x0100\n      exp\n      swap1\n      div\n      0xffffffffffffffffffffffffffffffffffffffff\n      and\n        /* \"@openzeppelin/contracts/access/Ownable.sol\":1703:1716  return _owner */\n      swap1\n      pop\n        /* \"@openzeppelin/contracts/access/Ownable.sol\":1638:1723  function owner() public view virtual returns (address) {... */\n      swap1\n      jump\t// out\n        /* \"contracts/Loanable.sol\":551:614  mapping(address => mapping(address => uint256)) public deposits */\n    tag_50:\n      mstore(0x20, 0x01)\n      dup2\n      0x00\n      mstore\n      mstore(0x20, keccak256(0x00, 0x40))\n      dup1\n      0x00\n      mstore\n      keccak256(0x00, 0x40)\n      0x00\n      swap2\n      pop\n      swap2\n      pop\n      pop\n      sload\n      dup2\n      jump\t// out\n        /* \"contracts/Loanable.sol\":686:725  mapping(address => Loan[]) public loans */\n    tag_56:\n      mstore(0x20, 0x02)\n      dup2\n      0x00\n      mstore\n      keccak256(0x00, 0x40)\n      dup2\n      dup2\n      sload\n      dup2\n      lt\n      tag_143\n      jumpi\n      0x00\n      dup1\n      revert\n    tag_143:\n      swap1\n      0x00\n      mstore\n      keccak256(0x00, 0x20)\n      swap1\n      0x06\n      mul\n      add\n      0x00\n      swap2\n      pop\n      swap2\n      pop\n      pop\n      dup1\n      0x00\n      add\n      0x00\n      swap1\n      sload\n      swap1\n      0x0100\n      exp\n      swap1\n      div\n      0xffffffffffffffffffffffffffffffffffffffff\n      and\n      swap1\n      dup1\n      0x01\n      add\n      0x00\n      swap1\n      sload\n      swap1\n      0x0100\n      exp\n      swap1\n      div\n      0xffffffffffffffffffffffffffffffffffffffff\n      and\n      swap1\n      dup1\n      0x02\n      add\n      sload\n      swap1\n      dup1\n      0x03\n      add\n      0x00\n      swap1\n      sload\n      swap1\n      0x0100\n      exp\n      swap1\n      div\n      0xffffffffffffffffffffffffffffffffffffffff\n      and\n      swap1\n      dup1\n      0x04\n      add\n      sload\n      swap1\n      dup1\n      0x05\n      add\n      0x00\n      swap1\n      sload\n      swap1\n      0x0100\n      exp\n      swap1\n      div\n      0xff\n      and\n      swap1\n      pop\n      dup7\n      jump\t// out\n        /* \"contracts/Loanable.sol\":4951:5052  function getLoans() external view returns (Loan[] memory) {... */\n    tag_61:\n        /* \"contracts/Loanable.sol\":4994:5007  Loan[] memory */\n      0x60\n        /* \"contracts/Loanable.sol\":5027:5032  loans */\n      0x02\n        /* \"contracts/Loanable.sol\":5027:5044  loans[msg.sender] */\n      0x00\n        /* \"contracts/Loanable.sol\":5033:5043  msg.sender */\n      caller\n        /* \"contracts/Loanable.sol\":5027:5044  loans[msg.sender] */\n      0xffffffffffffffffffffffffffffffffffffffff\n      and\n      0xffffffffffffffffffffffffffffffffffffffff\n      and\n      dup2\n      mstore\n      0x20\n      add\n      swap1\n      dup2\n      mstore\n      0x20\n      add\n      0x00\n      keccak256\n        /* \"contracts/Loanable.sol\":5020:5044  return loans[msg.sender] */\n      dup1\n      sload\n      dup1\n      0x20\n      mul\n      0x20\n      add\n      mload(0x40)\n      swap1\n      dup2\n      add\n      0x40\n      mstore\n      dup1\n      swap3\n      swap2\n      swap1\n      dup2\n      dup2\n      mstore\n      0x20\n      add\n      0x00\n      swap1\n    tag_146:\n      dup3\n      dup3\n      lt\n      iszero\n      tag_147\n      jumpi\n      dup4\n      dup3\n      swap1\n      0x00\n      mstore\n      keccak256(0x00, 0x20)\n      swap1\n      0x06\n      mul\n      add\n      mload(0x40)\n      dup1\n      0xc0\n      add\n      0x40\n      mstore\n      swap1\n      dup2\n      0x00\n      dup3\n      add\n      0x00\n      swap1\n      sload\n      swap1\n      0x0100\n      exp\n      swap1\n      div\n      0xffffffffffffffffffffffffffffffffffffffff\n      and\n      0xffffffffffffffffffffffffffffffffffffffff\n      and\n      0xffffffffffffffffffffffffffffffffffffffff\n      and\n      dup2\n      mstore\n      0x20\n      add\n      0x01\n      dup3\n      add\n      0x00\n      swap1\n      sload\n      swap1\n      0x0100\n      exp\n      swap1\n      div\n      0xffffffffffffffffffffffffffffffffffffffff\n      and\n      0xffffffffffffffffffffffffffffffffffffffff\n      and\n      0xffffffffffffffffffffffffffffffffffffffff\n      and\n      dup2\n      mstore\n      0x20\n      add\n      0x02\n      dup3\n      add\n      sload\n      dup2\n      mstore\n      0x20\n      add\n      0x03\n      dup3\n      add\n      0x00\n      swap1\n      sload\n      swap1\n      0x0100\n      exp\n      swap1\n      div\n      0xffffffffffffffffffffffffffffffffffffffff\n      and\n      0xffffffffffffffffffffffffffffffffffffffff\n      and\n      0xffffffffffffffffffffffffffffffffffffffff\n      and\n      dup2\n      mstore\n      0x20\n      add\n      0x04\n      dup3\n      add\n      sload\n      dup2\n      mstore\n      0x20\n      add\n      0x05\n      dup3\n      add\n      0x00\n      swap1\n      sload\n      swap1\n      0x0100\n      exp\n      swap1\n      div\n      0xff\n      and\n      iszero\n      iszero\n      iszero\n      iszero\n      dup2\n      mstore\n      pop\n      pop\n      dup2\n      mstore\n      0x20\n      add\n      swap1\n      0x01\n      add\n      swap1\n      jump(tag_146)\n    tag_147:\n      pop\n      pop\n      pop\n      pop\n      swap1\n      pop\n        /* \"contracts/Loanable.sol\":4951:5052  function getLoans() external view returns (Loan[] memory) {... */\n      swap1\n      jump\t// out\n        /* \"contracts/Loanable.sol\":300:331  address public immutable tokenC */\n    tag_66:\n      immutable(\"0x7d94b1fd5befe75fac04677148728067a5c7750c4535d59cf8d692301dae078c\")\n      dup2\n      jump\t// out\n        /* \"contracts/Loanable.sol\":2565:3935  function borrow(address loanToken, uint256 loanAmount, address collateralToken, uint256 collateralAmount) external {... */\n    tag_72:\n        /* \"contracts/Loanable.sol\":2720:2721  0 */\n      0x00\n        /* \"contracts/Loanable.sol\":2699:2722  loanToken == address(0) */\n      0xffffffffffffffffffffffffffffffffffffffff\n      and\n        /* \"contracts/Loanable.sol\":2699:2708  loanToken */\n      dup5\n        /* \"contracts/Loanable.sol\":2699:2722  loanToken == address(0) */\n      0xffffffffffffffffffffffffffffffffffffffff\n      and\n      eq\n        /* \"contracts/Loanable.sol\":2699:2745  loanToken == address(0) || loanToken == tokenA */\n      dup1\n      tag_150\n      jumpi\n      pop\n        /* \"contracts/Loanable.sol\":2739:2745  tokenA */\n      immutable(\"0x3f0db30619999417fd8760d29229e62155714c378b0408610dbffdd45f116b21\")\n        /* \"contracts/Loanable.sol\":2726:2745  loanToken == tokenA */\n      0xffffffffffffffffffffffffffffffffffffffff\n      and\n        /* \"contracts/Loanable.sol\":2726:2735  loanToken */\n      dup5\n        /* \"contracts/Loanable.sol\":2726:2745  loanToken == tokenA */\n      0xffffffffffffffffffffffffffffffffffffffff\n      and\n      eq\n        /* \"contracts/Loanable.sol\":2699:2745  loanToken == address(0) || loanToken == tokenA */\n    tag_150:\n        /* \"contracts/Loanable.sol\":2699:2768  loanToken == address(0) || loanToken == tokenA || loanToken == tokenB */\n      dup1\n      tag_151\n      jumpi\n      pop\n        /* \"contracts/Loanable.sol\":2762:2768  tokenB */\n      immutable(\"0xddf732f49edf4f39000cbbb8d0940c0999195c9b1b0aec524c1c4b4adca5a581\")\n        /* \"contracts/Loanable.sol\":2749:2768  loanToken == tokenB */\n      0xffffffffffffffffffffffffffffffffffffffff\n      and\n        /* \"contracts/Loanable.sol\":2749:2758  loanToken */\n      dup5\n        /* \"contracts/Loanable.sol\":2749:2768  loanToken == tokenB */\n      0xffffffffffffffffffffffffffffffffffffffff\n      and\n      eq\n        /* \"contracts/Loanable.sol\":2699:2768  loanToken == address(0) || loanToken == tokenA || loanToken == tokenB */\n    tag_151:\n        /* \"contracts/Loanable.sol\":2699:2791  loanToken == address(0) || loanToken == tokenA || loanToken == tokenB || loanToken == tokenC */\n      dup1\n      tag_152\n      jumpi\n      pop\n        /* \"contracts/Loanable.sol\":2785:2791  tokenC */\n      immutable(\"0x7d94b1fd5befe75fac04677148728067a5c7750c4535d59cf8d692301dae078c\")\n        /* \"contracts/Loanable.sol\":2772:2791  loanToken == tokenC */\n      0xffffffffffffffffffffffffffffffffffffffff\n      and\n        /* \"contracts/Loanable.sol\":2772:2781  loanToken */\n      dup5\n        /* \"contracts/Loanable.sol\":2772:2791  loanToken == tokenC */\n      0xffffffffffffffffffffffffffffffffffffffff\n      and\n      eq\n        /* \"contracts/Loanable.sol\":2699:2791  loanToken == address(0) || loanToken == tokenA || loanToken == tokenB || loanToken == tokenC */\n    tag_152:\n        /* \"contracts/Loanable.sol\":2691:2814  require(loanToken == address(0) || loanToken == tokenA || loanToken == tokenB || loanToken == tokenC, \"Invalid loan token\") */\n      tag_153\n      jumpi\n      mload(0x40)\n      0x08c379a000000000000000000000000000000000000000000000000000000000\n      dup2\n      mstore\n      0x04\n      add\n      tag_154\n      swap1\n      tag_155\n      jump\t// in\n    tag_154:\n      mload(0x40)\n      dup1\n      swap2\n      sub\n      swap1\n      revert\n    tag_153:\n        /* \"contracts/Loanable.sol\":2860:2861  0 */\n      0x00\n        /* \"contracts/Loanable.sol\":2833:2862  collateralToken == address(0) */\n      0xffffffffffffffffffffffffffffffffffffffff\n      and\n        /* \"contracts/Loanable.sol\":2833:2848  collateralToken */\n      dup3\n        /* \"contracts/Loanable.sol\":2833:2862  collateralToken == address(0) */\n      0xffffffffffffffffffffffffffffffffffffffff\n      and\n      eq\n        /* \"contracts/Loanable.sol\":2833:2891  collateralToken == address(0) || collateralToken == tokenA */\n      dup1\n      tag_156\n      jumpi\n      pop\n        /* \"contracts/Loanable.sol\":2885:2891  tokenA */\n      immutable(\"0x3f0db30619999417fd8760d29229e62155714c378b0408610dbffdd45f116b21\")\n        /* \"contracts/Loanable.sol\":2866:2891  collateralToken == tokenA */\n      0xffffffffffffffffffffffffffffffffffffffff\n      and\n        /* \"contracts/Loanable.sol\":2866:2881  collateralToken */\n      dup3\n        /* \"contracts/Loanable.sol\":2866:2891  collateralToken == tokenA */\n      0xffffffffffffffffffffffffffffffffffffffff\n      and\n      eq\n        /* \"contracts/Loanable.sol\":2833:2891  collateralToken == address(0) || collateralToken == tokenA */\n    tag_156:\n        /* \"contracts/Loanable.sol\":2833:2920  collateralToken == address(0) || collateralToken == tokenA || collateralToken == tokenB */\n      dup1\n      tag_157\n      jumpi\n      pop\n        /* \"contracts/Loanable.sol\":2914:2920  tokenB */\n      immutable(\"0xddf732f49edf4f39000cbbb8d0940c0999195c9b1b0aec524c1c4b4adca5a581\")\n        /* \"contracts/Loanable.sol\":2895:2920  collateralToken == tokenB */\n      0xffffffffffffffffffffffffffffffffffffffff\n      and\n        /* \"contracts/Loanable.sol\":2895:2910  collateralToken */\n      dup3\n        /* \"contracts/Loanable.sol\":2895:2920  collateralToken == tokenB */\n      0xffffffffffffffffffffffffffffffffffffffff\n      and\n      eq\n        /* \"contracts/Loanable.sol\":2833:2920  collateralToken == address(0) || collateralToken == tokenA || collateralToken == tokenB */\n    tag_157:\n        /* \"contracts/Loanable.sol\":2833:2949  collateralToken == address(0) || collateralToken == tokenA || collateralToken == tokenB || collateralToken == tokenC */\n      dup1\n      tag_158\n      jumpi\n      pop\n        /* \"contracts/Loanable.sol\":2943:2949  tokenC */\n      immutable(\"0x7d94b1fd5befe75fac04677148728067a5c7750c4535d59cf8d692301dae078c\")\n        /* \"contracts/Loanable.sol\":2924:2949  collateralToken == tokenC */\n      0xffffffffffffffffffffffffffffffffffffffff\n      and\n        /* \"contracts/Loanable.sol\":2924:2939  collateralToken */\n      dup3\n        /* \"contracts/Loanable.sol\":2924:2949  collateralToken == tokenC */\n      0xffffffffffffffffffffffffffffffffffffffff\n      and\n      eq\n        /* \"contracts/Loanable.sol\":2833:2949  collateralToken == address(0) || collateralToken == tokenA || collateralToken == tokenB || collateralToken == tokenC */\n    tag_158:\n        /* \"contracts/Loanable.sol\":2825:2978  require(collateralToken == address(0) || collateralToken == tokenA || collateralToken == tokenB || collateralToken == tokenC, \"Invalid collateral token\") */\n      tag_159\n      jumpi\n      mload(0x40)\n      0x08c379a000000000000000000000000000000000000000000000000000000000\n      dup2\n      mstore\n      0x04\n      add\n      tag_160\n      swap1\n      tag_161\n      jump\t// in\n    tag_160:\n      mload(0x40)\n      dup1\n      swap2\n      sub\n      swap1\n      revert\n    tag_159:\n        /* \"contracts/Loanable.sol\":3010:3025  collateralToken */\n      dup2\n        /* \"contracts/Loanable.sol\":2997:3025  loanToken != collateralToken */\n      0xffffffffffffffffffffffffffffffffffffffff\n      and\n        /* \"contracts/Loanable.sol\":2997:3006  loanToken */\n      dup5\n        /* \"contracts/Loanable.sol\":2997:3025  loanToken != collateralToken */\n      0xffffffffffffffffffffffffffffffffffffffff\n      and\n      sub\n        /* \"contracts/Loanable.sol\":2989:3072  require(loanToken != collateralToken, \"Cannot borrow the same token as collateral\") */\n      tag_162\n      jumpi\n      mload(0x40)\n      0x08c379a000000000000000000000000000000000000000000000000000000000\n      dup2\n      mstore\n      0x04\n      add\n      tag_163\n      swap1\n      tag_164\n      jump\t// in\n    tag_163:\n      mload(0x40)\n      dup1\n      swap2\n      sub\n      swap1\n      revert\n    tag_162:\n        /* \"contracts/Loanable.sol\":3132:3148  collateralAmount */\n      dup1\n        /* \"contracts/Loanable.sol\":3091:3099  deposits */\n      0x01\n        /* \"contracts/Loanable.sol\":3091:3111  deposits[msg.sender] */\n      0x00\n        /* \"contracts/Loanable.sol\":3100:3110  msg.sender */\n      caller\n        /* \"contracts/Loanable.sol\":3091:3111  deposits[msg.sender] */\n      0xffffffffffffffffffffffffffffffffffffffff\n      and\n      0xffffffffffffffffffffffffffffffffffffffff\n      and\n      dup2\n      mstore\n      0x20\n      add\n      swap1\n      dup2\n      mstore\n      0x20\n      add\n      0x00\n      keccak256\n        /* \"contracts/Loanable.sol\":3091:3128  deposits[msg.sender][collateralToken] */\n      0x00\n        /* \"contracts/Loanable.sol\":3112:3127  collateralToken */\n      dup5\n        /* \"contracts/Loanable.sol\":3091:3128  deposits[msg.sender][collateralToken] */\n      0xffffffffffffffffffffffffffffffffffffffff\n      and\n      0xffffffffffffffffffffffffffffffffffffffff\n      and\n      dup2\n      mstore\n      0x20\n      add\n      swap1\n      dup2\n      mstore\n      0x20\n      add\n      0x00\n      keccak256\n      sload\n        /* \"contracts/Loanable.sol\":3091:3148  deposits[msg.sender][collateralToken] >= collateralAmount */\n      lt\n      iszero\n        /* \"contracts/Loanable.sol\":3083:3176  require(deposits[msg.sender][collateralToken] >= collateralAmount, \"Insufficient collateral\") */\n      tag_165\n      jumpi\n      mload(0x40)\n      0x08c379a000000000000000000000000000000000000000000000000000000000\n      dup2\n      mstore\n      0x04\n      add\n      tag_166\n      swap1\n      tag_167\n      jump\t// in\n    tag_166:\n      mload(0x40)\n      dup1\n      swap2\n      sub\n      swap1\n      revert\n    tag_165:\n        /* \"contracts/Loanable.sol\":3249:3265  collateralAmount */\n      dup1\n        /* \"contracts/Loanable.sol\":3208:3216  deposits */\n      0x01\n        /* \"contracts/Loanable.sol\":3208:3228  deposits[msg.sender] */\n      0x00\n        /* \"contracts/Loanable.sol\":3217:3227  msg.sender */\n      caller\n        /* \"contracts/Loanable.sol\":3208:3228  deposits[msg.sender] */\n      0xffffffffffffffffffffffffffffffffffffffff\n      and\n      0xffffffffffffffffffffffffffffffffffffffff\n      and\n      dup2\n      mstore\n      0x20\n      add\n      swap1\n      dup2\n      mstore\n      0x20\n      add\n      0x00\n      keccak256\n        /* \"contracts/Loanable.sol\":3208:3245  deposits[msg.sender][collateralToken] */\n      0x00\n        /* \"contracts/Loanable.sol\":3229:3244  collateralToken */\n      dup5\n        /* \"contracts/Loanable.sol\":3208:3245  deposits[msg.sender][collateralToken] */\n      0xffffffffffffffffffffffffffffffffffffffff\n      and\n      0xffffffffffffffffffffffffffffffffffffffff\n      and\n      dup2\n      mstore\n      0x20\n      add\n      swap1\n      dup2\n      mstore\n      0x20\n      add\n      0x00\n      keccak256\n      0x00\n        /* \"contracts/Loanable.sol\":3208:3265  deposits[msg.sender][collateralToken] -= collateralAmount */\n      dup3\n      dup3\n      sload\n      tag_168\n      swap2\n      swap1\n      tag_169\n      jump\t// in\n    tag_168:\n      swap3\n      pop\n      pop\n      dup2\n      swap1\n      sstore\n      pop\n        /* \"contracts/Loanable.sol\":3303:3308  loans */\n      0x02\n        /* \"contracts/Loanable.sol\":3303:3320  loans[msg.sender] */\n      0x00\n        /* \"contracts/Loanable.sol\":3309:3319  msg.sender */\n      caller\n        /* \"contracts/Loanable.sol\":3303:3320  loans[msg.sender] */\n      0xffffffffffffffffffffffffffffffffffffffff\n      and\n      0xffffffffffffffffffffffffffffffffffffffff\n      and\n      dup2\n      mstore\n      0x20\n      add\n      swap1\n      dup2\n      mstore\n      0x20\n      add\n      0x00\n      keccak256\n        /* \"contracts/Loanable.sol\":3326:3575  Loan({... */\n      mload(0x40)\n      dup1\n      0xc0\n      add\n      0x40\n      mstore\n      dup1\n        /* \"contracts/Loanable.sol\":3356:3366  msg.sender */\n      caller\n        /* \"contracts/Loanable.sol\":3326:3575  Loan({... */\n      0xffffffffffffffffffffffffffffffffffffffff\n      and\n      dup2\n      mstore\n      0x20\n      add\n        /* \"contracts/Loanable.sol\":3392:3401  loanToken */\n      dup7\n        /* \"contracts/Loanable.sol\":3326:3575  Loan({... */\n      0xffffffffffffffffffffffffffffffffffffffff\n      and\n      dup2\n      mstore\n      0x20\n      add\n        /* \"contracts/Loanable.sol\":3428:3438  loanAmount */\n      dup6\n        /* \"contracts/Loanable.sol\":3326:3575  Loan({... */\n      dup2\n      mstore\n      0x20\n      add\n        /* \"contracts/Loanable.sol\":3470:3485  collateralToken */\n      dup5\n        /* \"contracts/Loanable.sol\":3326:3575  Loan({... */\n      0xffffffffffffffffffffffffffffffffffffffff\n      and\n      dup2\n      mstore\n      0x20\n      add\n        /* \"contracts/Loanable.sol\":3518:3534  collateralAmount */\n      dup4\n        /* \"contracts/Loanable.sol\":3326:3575  Loan({... */\n      dup2\n      mstore\n      0x20\n      add\n        /* \"contracts/Loanable.sol\":3559:3563  true */\n      0x01\n        /* \"contracts/Loanable.sol\":3326:3575  Loan({... */\n      iszero\n      iszero\n      dup2\n      mstore\n      pop\n        /* \"contracts/Loanable.sol\":3303:3576  loans[msg.sender].push(Loan({... */\n      swap1\n      dup1\n      0x01\n      dup2\n      sload\n      add\n      dup1\n      dup3\n      sstore\n      dup1\n      swap2\n      pop\n      pop\n      0x01\n      swap1\n      sub\n      swap1\n      0x00\n      mstore\n      keccak256(0x00, 0x20)\n      swap1\n      0x06\n      mul\n      add\n      0x00\n      swap1\n      swap2\n      swap1\n      swap2\n      swap1\n      swap2\n      pop\n      0x00\n      dup3\n      add\n      mload\n      dup2\n      0x00\n      add\n      exp(0x0100, 0x00)\n      dup2\n      sload\n      dup2\n      0xffffffffffffffffffffffffffffffffffffffff\n      mul\n      not\n      and\n      swap1\n      dup4\n      0xffffffffffffffffffffffffffffffffffffffff\n      and\n      mul\n      or\n      swap1\n      sstore\n      pop\n      0x20\n      dup3\n      add\n      mload\n      dup2\n      0x01\n      add\n      exp(0x0100, 0x00)\n      dup2\n      sload\n      dup2\n      0xffffffffffffffffffffffffffffffffffffffff\n      mul\n      not\n      and\n      swap1\n      dup4\n      0xffffffffffffffffffffffffffffffffffffffff\n      and\n      mul\n      or\n      swap1\n      sstore\n      pop\n      0x40\n      dup3\n      add\n      mload\n      dup2\n      0x02\n      add\n      sstore\n      0x60\n      dup3\n      add\n      mload\n      dup2\n      0x03\n      add\n      exp(0x0100, 0x00)\n      dup2\n      sload\n      dup2\n      0xffffffffffffffffffffffffffffffffffffffff\n      mul\n      not\n      and\n      swap1\n      dup4\n      0xffffffffffffffffffffffffffffffffffffffff\n      and\n      mul\n      or\n      swap1\n      sstore\n      pop\n      0x80\n      dup3\n      add\n      mload\n      dup2\n      0x04\n      add\n      sstore\n      0xa0\n      dup3\n      add\n      mload\n      dup2\n      0x05\n      add\n      exp(0x0100, 0x00)\n      dup2\n      sload\n      dup2\n      0xff\n      mul\n      not\n      and\n      swap1\n      dup4\n      iszero\n      iszero\n      mul\n      or\n      swap1\n      sstore\n      pop\n      pop\n      pop\n        /* \"contracts/Loanable.sol\":3645:3646  0 */\n      0x00\n        /* \"contracts/Loanable.sol\":3624:3647  loanToken == address(0) */\n      0xffffffffffffffffffffffffffffffffffffffff\n      and\n        /* \"contracts/Loanable.sol\":3624:3633  loanToken */\n      dup5\n        /* \"contracts/Loanable.sol\":3624:3647  loanToken == address(0) */\n      0xffffffffffffffffffffffffffffffffffffffff\n      and\n      sub\n        /* \"contracts/Loanable.sol\":3620:3832  if (loanToken == address(0)) {... */\n      tag_171\n      jumpi\n        /* \"contracts/Loanable.sol\":3672:3682  msg.sender */\n      caller\n        /* \"contracts/Loanable.sol\":3664:3692  payable(msg.sender).transfer */\n      0xffffffffffffffffffffffffffffffffffffffff\n      and\n        /* \"contracts/Loanable.sol\":3664:3704  payable(msg.sender).transfer(loanAmount) */\n      0x08fc\n        /* \"contracts/Loanable.sol\":3693:3703  loanAmount */\n      dup5\n        /* \"contracts/Loanable.sol\":3664:3704  payable(msg.sender).transfer(loanAmount) */\n      swap1\n      dup2\n      iszero\n      mul\n      swap1\n      mload(0x40)\n      0x00\n      mload(0x40)\n      dup1\n      dup4\n      sub\n      dup2\n      dup6\n      dup9\n      dup9\n      call\n      swap4\n      pop\n      pop\n      pop\n      pop\n      iszero\n      dup1\n      iszero\n      tag_173\n      jumpi\n      returndatasize\n      0x00\n      dup1\n      returndatacopy\n      revert(0x00, returndatasize)\n    tag_173:\n      pop\n        /* \"contracts/Loanable.sol\":3620:3832  if (loanToken == address(0)) {... */\n      jump(tag_174)\n    tag_171:\n        /* \"contracts/Loanable.sol\":3752:3761  loanToken */\n      dup4\n        /* \"contracts/Loanable.sol\":3745:3771  IERC20(loanToken).transfer */\n      0xffffffffffffffffffffffffffffffffffffffff\n      and\n      0xa9059cbb\n        /* \"contracts/Loanable.sol\":3772:3782  msg.sender */\n      caller\n        /* \"contracts/Loanable.sol\":3784:3794  loanAmount */\n      dup6\n        /* \"contracts/Loanable.sol\":3745:3795  IERC20(loanToken).transfer(msg.sender, loanAmount) */\n      mload(0x40)\n      dup4\n      0xffffffff\n      and\n      0xe0\n      shl\n      dup2\n      mstore\n      0x04\n      add\n      tag_175\n      swap3\n      swap2\n      swap1\n      tag_176\n      jump\t// in\n    tag_175:\n      0x20\n      mload(0x40)\n      dup1\n      dup4\n      sub\n      dup2\n      0x00\n      dup8\n      gas\n      call\n      iszero\n      dup1\n      iszero\n      tag_178\n      jumpi\n      returndatasize\n      0x00\n      dup1\n      returndatacopy\n      revert(0x00, returndatasize)\n    tag_178:\n      pop\n      pop\n      pop\n      pop\n      mload(0x40)\n      returndatasize\n      not(0x1f)\n      0x1f\n      dup3\n      add\n      and\n      dup3\n      add\n      dup1\n      0x40\n      mstore\n      pop\n      dup2\n      add\n      swap1\n      tag_179\n      swap2\n      swap1\n      tag_108\n      jump\t// in\n    tag_179:\n        /* \"contracts/Loanable.sol\":3737:3820  require(IERC20(loanToken).transfer(msg.sender, loanAmount), \"Loan transfer failed\") */\n      tag_180\n      jumpi\n      mload(0x40)\n      0x08c379a000000000000000000000000000000000000000000000000000000000\n      dup2\n      mstore\n      0x04\n      add\n      tag_181\n      swap1\n      tag_182\n      jump\t// in\n    tag_181:\n      mload(0x40)\n      dup1\n      swap2\n      sub\n      swap1\n      revert\n    tag_180:\n        /* \"contracts/Loanable.sol\":3620:3832  if (loanToken == address(0)) {... */\n    tag_174:\n        /* \"contracts/Loanable.sol\":3893:3908  collateralToken */\n      dup2\n        /* \"contracts/Loanable.sol\":3849:3927  Borrowed(msg.sender, loanToken, loanAmount, collateralToken, collateralAmount) */\n      0xffffffffffffffffffffffffffffffffffffffff\n      and\n        /* \"contracts/Loanable.sol\":3870:3879  loanToken */\n      dup5\n        /* \"contracts/Loanable.sol\":3849:3927  Borrowed(msg.sender, loanToken, loanAmount, collateralToken, collateralAmount) */\n      0xffffffffffffffffffffffffffffffffffffffff\n      and\n        /* \"contracts/Loanable.sol\":3858:3868  msg.sender */\n      caller\n        /* \"contracts/Loanable.sol\":3849:3927  Borrowed(msg.sender, loanToken, loanAmount, collateralToken, collateralAmount) */\n      0xffffffffffffffffffffffffffffffffffffffff\n      and\n      0x96bf4d524a427510fe8ab2fc75ba6f1a56af9e8b6c33cdcc4f05ecc04e2b25fa\n        /* \"contracts/Loanable.sol\":3881:3891  loanAmount */\n      dup7\n        /* \"contracts/Loanable.sol\":3910:3926  collateralAmount */\n      dup6\n        /* \"contracts/Loanable.sol\":3849:3927  Borrowed(msg.sender, loanToken, loanAmount, collateralToken, collateralAmount) */\n      mload(0x40)\n      tag_183\n      swap3\n      swap2\n      swap1\n      tag_184\n      jump\t// in\n    tag_183:\n      mload(0x40)\n      dup1\n      swap2\n      sub\n      swap1\n      log4\n        /* \"contracts/Loanable.sol\":2565:3935  function borrow(address loanToken, uint256 loanAmount, address collateralToken, uint256 collateralAmount) external {... */\n      pop\n      pop\n      pop\n      pop\n      jump\t// out\n        /* \"contracts/Loanable.sol\":4781:4901  function getDeposit(address token) external view returns (uint256) {... */\n    tag_77:\n        /* \"contracts/Loanable.sol\":4839:4846  uint256 */\n      0x00\n        /* \"contracts/Loanable.sol\":4866:4874  deposits */\n      0x01\n        /* \"contracts/Loanable.sol\":4866:4886  deposits[msg.sender] */\n      0x00\n        /* \"contracts/Loanable.sol\":4875:4885  msg.sender */\n      caller\n        /* \"contracts/Loanable.sol\":4866:4886  deposits[msg.sender] */\n      0xffffffffffffffffffffffffffffffffffffffff\n      and\n      0xffffffffffffffffffffffffffffffffffffffff\n      and\n      dup2\n      mstore\n      0x20\n      add\n      swap1\n      dup2\n      mstore\n      0x20\n      add\n      0x00\n      keccak256\n        /* \"contracts/Loanable.sol\":4866:4893  deposits[msg.sender][token] */\n      0x00\n        /* \"contracts/Loanable.sol\":4887:4892  token */\n      dup4\n        /* \"contracts/Loanable.sol\":4866:4893  deposits[msg.sender][token] */\n      0xffffffffffffffffffffffffffffffffffffffff\n      and\n      0xffffffffffffffffffffffffffffffffffffffff\n      and\n      dup2\n      mstore\n      0x20\n      add\n      swap1\n      dup2\n      mstore\n      0x20\n      add\n      0x00\n      keccak256\n      sload\n        /* \"contracts/Loanable.sol\":4859:4893  return deposits[msg.sender][token] */\n      swap1\n      pop\n        /* \"contracts/Loanable.sol\":4781:4901  function getDeposit(address token) external view returns (uint256) {... */\n      swap2\n      swap1\n      pop\n      jump\t// out\n        /* \"@openzeppelin/contracts/access/Ownable.sol\":2543:2758  function transferOwnership(address newOwner) public virtual onlyOwner {... */\n    tag_82:\n        /* \"@openzeppelin/contracts/access/Ownable.sol\":1531:1544  _checkOwner() */\n      tag_187\n        /* \"@openzeppelin/contracts/access/Ownable.sol\":1531:1542  _checkOwner */\n      tag_138\n        /* \"@openzeppelin/contracts/access/Ownable.sol\":1531:1544  _checkOwner() */\n      jump\t// in\n    tag_187:\n        /* \"@openzeppelin/contracts/access/Ownable.sol\":2647:2648  0 */\n      0x00\n        /* \"@openzeppelin/contracts/access/Ownable.sol\":2627:2649  newOwner == address(0) */\n      0xffffffffffffffffffffffffffffffffffffffff\n      and\n        /* \"@openzeppelin/contracts/access/Ownable.sol\":2627:2635  newOwner */\n      dup2\n        /* \"@openzeppelin/contracts/access/Ownable.sol\":2627:2649  newOwner == address(0) */\n      0xffffffffffffffffffffffffffffffffffffffff\n      and\n      sub\n        /* \"@openzeppelin/contracts/access/Ownable.sol\":2623:2714  if (newOwner == address(0)) {... */\n      tag_189\n      jumpi\n        /* \"@openzeppelin/contracts/access/Ownable.sol\":2700:2701  0 */\n      0x00\n        /* \"@openzeppelin/contracts/access/Ownable.sol\":2672:2703  OwnableInvalidOwner(address(0)) */\n      mload(0x40)\n      0x1e4fbdf700000000000000000000000000000000000000000000000000000000\n      dup2\n      mstore\n      0x04\n      add\n      tag_190\n      swap2\n      swap1\n      tag_26\n      jump\t// in\n    tag_190:\n      mload(0x40)\n      dup1\n      swap2\n      sub\n      swap1\n      revert\n        /* \"@openzeppelin/contracts/access/Ownable.sol\":2623:2714  if (newOwner == address(0)) {... */\n    tag_189:\n        /* \"@openzeppelin/contracts/access/Ownable.sol\":2723:2751  _transferOwnership(newOwner) */\n      tag_191\n        /* \"@openzeppelin/contracts/access/Ownable.sol\":2742:2750  newOwner */\n      dup2\n        /* \"@openzeppelin/contracts/access/Ownable.sol\":2723:2741  _transferOwnership */\n      tag_141\n        /* \"@openzeppelin/contracts/access/Ownable.sol\":2723:2751  _transferOwnership(newOwner) */\n      jump\t// in\n    tag_191:\n        /* \"@openzeppelin/contracts/access/Ownable.sol\":2543:2758  function transferOwnership(address newOwner) public virtual onlyOwner {... */\n      pop\n      jump\t// out\n        /* \"contracts/Loanable.sol\":2043:2493  function withdraw(address token, uint256 amount) external {... */\n    tag_86:\n        /* \"contracts/Loanable.sol\":2151:2157  amount */\n      dup1\n        /* \"contracts/Loanable.sol\":2120:2128  deposits */\n      0x01\n        /* \"contracts/Loanable.sol\":2120:2140  deposits[msg.sender] */\n      0x00\n        /* \"contracts/Loanable.sol\":2129:2139  msg.sender */\n      caller\n        /* \"contracts/Loanable.sol\":2120:2140  deposits[msg.sender] */\n      0xffffffffffffffffffffffffffffffffffffffff\n      and\n      0xffffffffffffffffffffffffffffffffffffffff\n      and\n      dup2\n      mstore\n      0x20\n      add\n      swap1\n      dup2\n      mstore\n      0x20\n      add\n      0x00\n      keccak256\n        /* \"contracts/Loanable.sol\":2120:2147  deposits[msg.sender][token] */\n      0x00\n        /* \"contracts/Loanable.sol\":2141:2146  token */\n      dup5\n        /* \"contracts/Loanable.sol\":2120:2147  deposits[msg.sender][token] */\n      0xffffffffffffffffffffffffffffffffffffffff\n      and\n      0xffffffffffffffffffffffffffffffffffffffff\n      and\n      dup2\n      mstore\n      0x20\n      add\n      swap1\n      dup2\n      mstore\n      0x20\n      add\n      0x00\n      keccak256\n      sload\n        /* \"contracts/Loanable.sol\":2120:2157  deposits[msg.sender][token] >= amount */\n      lt\n      iszero\n        /* \"contracts/Loanable.sol\":2112:2182  require(deposits[msg.sender][token] >= amount, \"Insufficient balance\") */\n      tag_193\n      jumpi\n      mload(0x40)\n      0x08c379a000000000000000000000000000000000000000000000000000000000\n      dup2\n      mstore\n      0x04\n      add\n      tag_194\n      swap1\n      tag_195\n      jump\t// in\n    tag_194:\n      mload(0x40)\n      dup1\n      swap2\n      sub\n      swap1\n      revert\n    tag_193:\n        /* \"contracts/Loanable.sol\":2226:2232  amount */\n      dup1\n        /* \"contracts/Loanable.sol\":2195:2203  deposits */\n      0x01\n        /* \"contracts/Loanable.sol\":2195:2215  deposits[msg.sender] */\n      0x00\n        /* \"contracts/Loanable.sol\":2204:2214  msg.sender */\n      caller\n        /* \"contracts/Loanable.sol\":2195:2215  deposits[msg.sender] */\n      0xffffffffffffffffffffffffffffffffffffffff\n      and\n      0xffffffffffffffffffffffffffffffffffffffff\n      and\n      dup2\n      mstore\n      0x20\n      add\n      swap1\n      dup2\n      mstore\n      0x20\n      add\n      0x00\n      keccak256\n        /* \"contracts/Loanable.sol\":2195:2222  deposits[msg.sender][token] */\n      0x00\n        /* \"contracts/Loanable.sol\":2216:2221  token */\n      dup5\n        /* \"contracts/Loanable.sol\":2195:2222  deposits[msg.sender][token] */\n      0xffffffffffffffffffffffffffffffffffffffff\n      and\n      0xffffffffffffffffffffffffffffffffffffffff\n      and\n      dup2\n      mstore\n      0x20\n      add\n      swap1\n      dup2\n      mstore\n      0x20\n      add\n      0x00\n      keccak256\n      0x00\n        /* \"contracts/Loanable.sol\":2195:2232  deposits[msg.sender][token] -= amount */\n      dup3\n      dup3\n      sload\n      tag_196\n      swap2\n      swap1\n      tag_169\n      jump\t// in\n    tag_196:\n      swap3\n      pop\n      pop\n      dup2\n      swap1\n      sstore\n      pop\n        /* \"contracts/Loanable.sol\":2264:2265  0 */\n      0x00\n        /* \"contracts/Loanable.sol\":2247:2266  token == address(0) */\n      0xffffffffffffffffffffffffffffffffffffffff\n      and\n        /* \"contracts/Loanable.sol\":2247:2252  token */\n      dup3\n        /* \"contracts/Loanable.sol\":2247:2266  token == address(0) */\n      0xffffffffffffffffffffffffffffffffffffffff\n      and\n      sub\n        /* \"contracts/Loanable.sol\":2243:2434  if (token == address(0)) {... */\n      tag_197\n      jumpi\n        /* \"contracts/Loanable.sol\":2291:2301  msg.sender */\n      caller\n        /* \"contracts/Loanable.sol\":2283:2311  payable(msg.sender).transfer */\n      0xffffffffffffffffffffffffffffffffffffffff\n      and\n        /* \"contracts/Loanable.sol\":2283:2319  payable(msg.sender).transfer(amount) */\n      0x08fc\n        /* \"contracts/Loanable.sol\":2312:2318  amount */\n      dup3\n        /* \"contracts/Loanable.sol\":2283:2319  payable(msg.sender).transfer(amount) */\n      swap1\n      dup2\n      iszero\n      mul\n      swap1\n      mload(0x40)\n      0x00\n      mload(0x40)\n      dup1\n      dup4\n      sub\n      dup2\n      dup6\n      dup9\n      dup9\n      call\n      swap4\n      pop\n      pop\n      pop\n      pop\n      iszero\n      dup1\n      iszero\n      tag_199\n      jumpi\n      returndatasize\n      0x00\n      dup1\n      returndatacopy\n      revert(0x00, returndatasize)\n    tag_199:\n      pop\n        /* \"contracts/Loanable.sol\":2243:2434  if (token == address(0)) {... */\n      jump(tag_200)\n    tag_197:\n        /* \"contracts/Loanable.sol\":2367:2372  token */\n      dup2\n        /* \"contracts/Loanable.sol\":2360:2382  IERC20(token).transfer */\n      0xffffffffffffffffffffffffffffffffffffffff\n      and\n      0xa9059cbb\n        /* \"contracts/Loanable.sol\":2383:2393  msg.sender */\n      caller\n        /* \"contracts/Loanable.sol\":2395:2401  amount */\n      dup4\n        /* \"contracts/Loanable.sol\":2360:2402  IERC20(token).transfer(msg.sender, amount) */\n      mload(0x40)\n      dup4\n      0xffffffff\n      and\n      0xe0\n      shl\n      dup2\n      mstore\n      0x04\n      add\n      tag_201\n      swap3\n      swap2\n      swap1\n      tag_176\n      jump\t// in\n    tag_201:\n      0x20\n      mload(0x40)\n      dup1\n      dup4\n      sub\n      dup2\n      0x00\n      dup8\n      gas\n      call\n      iszero\n      dup1\n      iszero\n      tag_203\n      jumpi\n      returndatasize\n      0x00\n      dup1\n      returndatacopy\n      revert(0x00, returndatasize)\n    tag_203:\n      pop\n      pop\n      pop\n      pop\n      mload(0x40)\n      returndatasize\n      not(0x1f)\n      0x1f\n      dup3\n      add\n      and\n      dup3\n      add\n      dup1\n      0x40\n      mstore\n      pop\n      dup2\n      add\n      swap1\n      tag_204\n      swap2\n      swap1\n      tag_108\n      jump\t// in\n    tag_204:\n        /* \"contracts/Loanable.sol\":2352:2422  require(IERC20(token).transfer(msg.sender, amount), \"Transfer failed\") */\n      tag_205\n      jumpi\n      mload(0x40)\n      0x08c379a000000000000000000000000000000000000000000000000000000000\n      dup2\n      mstore\n      0x04\n      add\n      tag_206\n      swap1\n      tag_133\n      jump\t// in\n    tag_206:\n      mload(0x40)\n      dup1\n      swap2\n      sub\n      swap1\n      revert\n    tag_205:\n        /* \"contracts/Loanable.sol\":2243:2434  if (token == address(0)) {... */\n    tag_200:\n        /* \"contracts/Loanable.sol\":2471:2476  token */\n      dup2\n        /* \"contracts/Loanable.sol\":2449:2485  Withdrawn(msg.sender, token, amount) */\n      0xffffffffffffffffffffffffffffffffffffffff\n      and\n        /* \"contracts/Loanable.sol\":2459:2469  msg.sender */\n      caller\n        /* \"contracts/Loanable.sol\":2449:2485  Withdrawn(msg.sender, token, amount) */\n      0xffffffffffffffffffffffffffffffffffffffff\n      and\n      0xd1c19fbcd4551a5edfb66d43d2e337c04837afda3482b42bdf569a8fccdae5fb\n        /* \"contracts/Loanable.sol\":2478:2484  amount */\n      dup4\n        /* \"contracts/Loanable.sol\":2449:2485  Withdrawn(msg.sender, token, amount) */\n      mload(0x40)\n      tag_207\n      swap2\n      swap1\n      tag_52\n      jump\t// in\n    tag_207:\n      mload(0x40)\n      dup1\n      swap2\n      sub\n      swap1\n      log3\n        /* \"contracts/Loanable.sol\":2043:2493  function withdraw(address token, uint256 amount) external {... */\n      pop\n      pop\n      jump\t// out\n        /* \"@openzeppelin/contracts/access/Ownable.sol\":1796:1958  function _checkOwner() internal view virtual {... */\n    tag_138:\n        /* \"@openzeppelin/contracts/access/Ownable.sol\":1866:1878  _msgSender() */\n      tag_209\n        /* \"@openzeppelin/contracts/access/Ownable.sol\":1866:1876  _msgSender */\n      tag_210\n        /* \"@openzeppelin/contracts/access/Ownable.sol\":1866:1878  _msgSender() */\n      jump\t// in\n    tag_209:\n        /* \"@openzeppelin/contracts/access/Ownable.sol\":1855:1878  owner() != _msgSender() */\n      0xffffffffffffffffffffffffffffffffffffffff\n      and\n        /* \"@openzeppelin/contracts/access/Ownable.sol\":1855:1862  owner() */\n      tag_211\n        /* \"@openzeppelin/contracts/access/Ownable.sol\":1855:1860  owner */\n      tag_44\n        /* \"@openzeppelin/contracts/access/Ownable.sol\":1855:1862  owner() */\n      jump\t// in\n    tag_211:\n        /* \"@openzeppelin/contracts/access/Ownable.sol\":1855:1878  owner() != _msgSender() */\n      0xffffffffffffffffffffffffffffffffffffffff\n      and\n      eq\n        /* \"@openzeppelin/contracts/access/Ownable.sol\":1851:1952  if (owner() != _msgSender()) {... */\n      tag_212\n      jumpi\n        /* \"@openzeppelin/contracts/access/Ownable.sol\":1928:1940  _msgSender() */\n      tag_213\n        /* \"@openzeppelin/contracts/access/Ownable.sol\":1928:1938  _msgSender */\n      tag_210\n        /* \"@openzeppelin/contracts/access/Ownable.sol\":1928:1940  _msgSender() */\n      jump\t// in\n    tag_213:\n        /* \"@openzeppelin/contracts/access/Ownable.sol\":1901:1941  OwnableUnauthorizedAccount(_msgSender()) */\n      mload(0x40)\n      0x118cdaa700000000000000000000000000000000000000000000000000000000\n      dup2\n      mstore\n      0x04\n      add\n      tag_214\n      swap2\n      swap1\n      tag_26\n      jump\t// in\n    tag_214:\n      mload(0x40)\n      dup1\n      swap2\n      sub\n      swap1\n      revert\n        /* \"@openzeppelin/contracts/access/Ownable.sol\":1851:1952  if (owner() != _msgSender()) {... */\n    tag_212:\n        /* \"@openzeppelin/contracts/access/Ownable.sol\":1796:1958  function _checkOwner() internal view virtual {... */\n      jump\t// out\n        /* \"@openzeppelin/contracts/access/Ownable.sol\":2912:3099  function _transferOwnership(address newOwner) internal virtual {... */\n    tag_141:\n        /* \"@openzeppelin/contracts/access/Ownable.sol\":2985:3001  address oldOwner */\n      0x00\n        /* \"@openzeppelin/contracts/access/Ownable.sol\":3004:3010  _owner */\n      dup1\n      0x00\n      swap1\n      sload\n      swap1\n      0x0100\n      exp\n      swap1\n      div\n      0xffffffffffffffffffffffffffffffffffffffff\n      and\n        /* \"@openzeppelin/contracts/access/Ownable.sol\":2985:3010  address oldOwner = _owner */\n      swap1\n      pop\n        /* \"@openzeppelin/contracts/access/Ownable.sol\":3029:3037  newOwner */\n      dup2\n        /* \"@openzeppelin/contracts/access/Ownable.sol\":3020:3026  _owner */\n      0x00\n      dup1\n        /* \"@openzeppelin/contracts/access/Ownable.sol\":3020:3037  _owner = newOwner */\n      0x0100\n      exp\n      dup2\n      sload\n      dup2\n      0xffffffffffffffffffffffffffffffffffffffff\n      mul\n      not\n      and\n      swap1\n      dup4\n      0xffffffffffffffffffffffffffffffffffffffff\n      and\n      mul\n      or\n      swap1\n      sstore\n      pop\n        /* \"@openzeppelin/contracts/access/Ownable.sol\":3083:3091  newOwner */\n      dup2\n        /* \"@openzeppelin/contracts/access/Ownable.sol\":3052:3092  OwnershipTransferred(oldOwner, newOwner) */\n      0xffffffffffffffffffffffffffffffffffffffff\n      and\n        /* \"@openzeppelin/contracts/access/Ownable.sol\":3073:3081  oldOwner */\n      dup2\n        /* \"@openzeppelin/contracts/access/Ownable.sol\":3052:3092  OwnershipTransferred(oldOwner, newOwner) */\n      0xffffffffffffffffffffffffffffffffffffffff\n      and\n      0x8be0079c531659141344cd1fd0a4f28419497f9722a3daafe3b4186f6b6457e0\n      mload(0x40)\n      mload(0x40)\n      dup1\n      swap2\n      sub\n      swap1\n      log3\n        /* \"@openzeppelin/contracts/access/Ownable.sol\":2975:3099  {... */\n      pop\n        /* \"@openzeppelin/contracts/access/Ownable.sol\":2912:3099  function _transferOwnership(address newOwner) internal virtual {... */\n      pop\n      jump\t// out\n        /* \"@openzeppelin/contracts/utils/Context.sol\":656:752  function _msgSender() internal view virtual returns (address) {... */\n    tag_210:\n        /* \"@openzeppelin/contracts/utils/Context.sol\":709:716  address */\n      0x00\n        /* \"@openzeppelin/contracts/utils/Context.sol\":735:745  msg.sender */\n      caller\n        /* \"@openzeppelin/contracts/utils/Context.sol\":728:745  return msg.sender */\n      swap1\n      pop\n        /* \"@openzeppelin/contracts/utils/Context.sol\":656:752  function _msgSender() internal view virtual returns (address) {... */\n      swap1\n      jump\t// out\n        /* \"#utility.yul\":7:133   */\n    tag_217:\n        /* \"#utility.yul\":44:51   */\n      0x00\n        /* \"#utility.yul\":84:126   */\n      0xffffffffffffffffffffffffffffffffffffffff\n        /* \"#utility.yul\":77:82   */\n      dup3\n        /* \"#utility.yul\":73:127   */\n      and\n        /* \"#utility.yul\":62:127   */\n      swap1\n      pop\n        /* \"#utility.yul\":7:133   */\n      swap2\n      swap1\n      pop\n      jump\t// out\n        /* \"#utility.yul\":139:235   */\n    tag_218:\n        /* \"#utility.yul\":176:183   */\n      0x00\n        /* \"#utility.yul\":205:229   */\n      tag_274\n        /* \"#utility.yul\":223:228   */\n      dup3\n        /* \"#utility.yul\":205:229   */\n      tag_217\n      jump\t// in\n    tag_274:\n        /* \"#utility.yul\":194:229   */\n      swap1\n      pop\n        /* \"#utility.yul\":139:235   */\n      swap2\n      swap1\n      pop\n      jump\t// out\n        /* \"#utility.yul\":241:359   */\n    tag_219:\n        /* \"#utility.yul\":328:352   */\n      tag_276\n        /* \"#utility.yul\":346:351   */\n      dup2\n        /* \"#utility.yul\":328:352   */\n      tag_218\n      jump\t// in\n    tag_276:\n        /* \"#utility.yul\":323:326   */\n      dup3\n        /* \"#utility.yul\":316:353   */\n      mstore\n        /* \"#utility.yul\":241:359   */\n      pop\n      pop\n      jump\t// out\n        /* \"#utility.yul\":365:587   */\n    tag_26:\n        /* \"#utility.yul\":458:462   */\n      0x00\n        /* \"#utility.yul\":496:498   */\n      0x20\n        /* \"#utility.yul\":485:494   */\n      dup3\n        /* \"#utility.yul\":481:499   */\n      add\n        /* \"#utility.yul\":473:499   */\n      swap1\n      pop\n        /* \"#utility.yul\":509:580   */\n      tag_278\n        /* \"#utility.yul\":577:578   */\n      0x00\n        /* \"#utility.yul\":566:575   */\n      dup4\n        /* \"#utility.yul\":562:579   */\n      add\n        /* \"#utility.yul\":553:559   */\n      dup5\n        /* \"#utility.yul\":509:580   */\n      tag_219\n      jump\t// in\n    tag_278:\n        /* \"#utility.yul\":365:587   */\n      swap3\n      swap2\n      pop\n      pop\n      jump\t// out\n        /* \"#utility.yul\":674:791   */\n    tag_221:\n        /* \"#utility.yul\":783:784   */\n      0x00\n        /* \"#utility.yul\":780:781   */\n      dup1\n        /* \"#utility.yul\":773:785   */\n      revert\n        /* \"#utility.yul\":920:997   */\n    tag_223:\n        /* \"#utility.yul\":957:964   */\n      0x00\n        /* \"#utility.yul\":986:991   */\n      dup2\n        /* \"#utility.yul\":975:991   */\n      swap1\n      pop\n        /* \"#utility.yul\":920:997   */\n      swap2\n      swap1\n      pop\n      jump\t// out\n        /* \"#utility.yul\":1003:1125   */\n    tag_224:\n        /* \"#utility.yul\":1076:1100   */\n      tag_284\n        /* \"#utility.yul\":1094:1099   */\n      dup2\n        /* \"#utility.yul\":1076:1100   */\n      tag_223\n      jump\t// in\n    tag_284:\n        /* \"#utility.yul\":1069:1074   */\n      dup2\n        /* \"#utility.yul\":1066:1101   */\n      eq\n        /* \"#utility.yul\":1056:1119   */\n      tag_285\n      jumpi\n        /* \"#utility.yul\":1115:1116   */\n      0x00\n        /* \"#utility.yul\":1112:1113   */\n      dup1\n        /* \"#utility.yul\":1105:1117   */\n      revert\n        /* \"#utility.yul\":1056:1119   */\n    tag_285:\n        /* \"#utility.yul\":1003:1125   */\n      pop\n      jump\t// out\n        /* \"#utility.yul\":1131:1270   */\n    tag_225:\n        /* \"#utility.yul\":1177:1182   */\n      0x00\n        /* \"#utility.yul\":1215:1221   */\n      dup2\n        /* \"#utility.yul\":1202:1222   */\n      calldataload\n        /* \"#utility.yul\":1193:1222   */\n      swap1\n      pop\n        /* \"#utility.yul\":1231:1264   */\n      tag_287\n        /* \"#utility.yul\":1258:1263   */\n      dup2\n        /* \"#utility.yul\":1231:1264   */\n      tag_224\n      jump\t// in\n    tag_287:\n        /* \"#utility.yul\":1131:1270   */\n      swap3\n      swap2\n      pop\n      pop\n      jump\t// out\n        /* \"#utility.yul\":1276:1605   */\n    tag_29:\n        /* \"#utility.yul\":1335:1341   */\n      0x00\n        /* \"#utility.yul\":1384:1386   */\n      0x20\n        /* \"#utility.yul\":1372:1381   */\n      dup3\n        /* \"#utility.yul\":1363:1370   */\n      dup5\n        /* \"#utility.yul\":1359:1382   */\n      sub\n        /* \"#utility.yul\":1355:1387   */\n      slt\n        /* \"#utility.yul\":1352:1471   */\n      iszero\n      tag_289\n      jumpi\n        /* \"#utility.yul\":1390:1469   */\n      tag_290\n      tag_221\n      jump\t// in\n    tag_290:\n        /* \"#utility.yul\":1352:1471   */\n    tag_289:\n        /* \"#utility.yul\":1510:1511   */\n      0x00\n        /* \"#utility.yul\":1535:1588   */\n      tag_291\n        /* \"#utility.yul\":1580:1587   */\n      dup5\n        /* \"#utility.yul\":1571:1577   */\n      dup3\n        /* \"#utility.yul\":1560:1569   */\n      dup6\n        /* \"#utility.yul\":1556:1578   */\n      add\n        /* \"#utility.yul\":1535:1588   */\n      tag_225\n      jump\t// in\n    tag_291:\n        /* \"#utility.yul\":1525:1588   */\n      swap2\n      pop\n        /* \"#utility.yul\":1481:1598   */\n      pop\n        /* \"#utility.yul\":1276:1605   */\n      swap3\n      swap2\n      pop\n      pop\n      jump\t// out\n        /* \"#utility.yul\":1611:1733   */\n    tag_226:\n        /* \"#utility.yul\":1684:1708   */\n      tag_293\n        /* \"#utility.yul\":1702:1707   */\n      dup2\n        /* \"#utility.yul\":1684:1708   */\n      tag_218\n      jump\t// in\n    tag_293:\n        /* \"#utility.yul\":1677:1682   */\n      dup2\n        /* \"#utility.yul\":1674:1709   */\n      eq\n        /* \"#utility.yul\":1664:1727   */\n      tag_294\n      jumpi\n        /* \"#utility.yul\":1723:1724   */\n      0x00\n        /* \"#utility.yul\":1720:1721   */\n      dup1\n        /* \"#utility.yul\":1713:1725   */\n      revert\n        /* \"#utility.yul\":1664:1727   */\n    tag_294:\n        /* \"#utility.yul\":1611:1733   */\n      pop\n      jump\t// out\n        /* \"#utility.yul\":1739:1878   */\n    tag_227:\n        /* \"#utility.yul\":1785:1790   */\n      0x00\n        /* \"#utility.yul\":1823:1829   */\n      dup2\n        /* \"#utility.yul\":1810:1830   */\n      calldataload\n        /* \"#utility.yul\":1801:1830   */\n      swap1\n      pop\n        /* \"#utility.yul\":1839:1872   */\n      tag_296\n        /* \"#utility.yul\":1866:1871   */\n      dup2\n        /* \"#utility.yul\":1839:1872   */\n      tag_226\n      jump\t// in\n    tag_296:\n        /* \"#utility.yul\":1739:1878   */\n      swap3\n      swap2\n      pop\n      pop\n      jump\t// out\n        /* \"#utility.yul\":1884:2358   */\n    tag_33:\n        /* \"#utility.yul\":1952:1958   */\n      0x00\n        /* \"#utility.yul\":1960:1966   */\n      dup1\n        /* \"#utility.yul\":2009:2011   */\n      0x40\n        /* \"#utility.yul\":1997:2006   */\n      dup4\n        /* \"#utility.yul\":1988:1995   */\n      dup6\n        /* \"#utility.yul\":1984:2007   */\n      sub\n        /* \"#utility.yul\":1980:2012   */\n      slt\n        /* \"#utility.yul\":1977:2096   */\n      iszero\n      tag_298\n      jumpi\n        /* \"#utility.yul\":2015:2094   */\n      tag_299\n      tag_221\n      jump\t// in\n    tag_299:\n        /* \"#utility.yul\":1977:2096   */\n    tag_298:\n        /* \"#utility.yul\":2135:2136   */\n      0x00\n        /* \"#utility.yul\":2160:2213   */\n      tag_300\n        /* \"#utility.yul\":2205:2212   */\n      dup6\n        /* \"#utility.yul\":2196:2202   */\n      dup3\n        /* \"#utility.yul\":2185:2194   */\n      dup7\n        /* \"#utility.yul\":2181:2203   */\n      add\n        /* \"#utility.yul\":2160:2213   */\n      tag_227\n      jump\t// in\n    tag_300:\n        /* \"#utility.yul\":2150:2213   */\n      swap3\n      pop\n        /* \"#utility.yul\":2106:2223   */\n      pop\n        /* \"#utility.yul\":2262:2264   */\n      0x20\n        /* \"#utility.yul\":2288:2341   */\n      tag_301\n        /* \"#utility.yul\":2333:2340   */\n      dup6\n        /* \"#utility.yul\":2324:2330   */\n      dup3\n        /* \"#utility.yul\":2313:2322   */\n      dup7\n        /* \"#utility.yul\":2309:2331   */\n      add\n        /* \"#utility.yul\":2288:2341   */\n      tag_225\n      jump\t// in\n    tag_301:\n        /* \"#utility.yul\":2278:2341   */\n      swap2\n      pop\n        /* \"#utility.yul\":2233:2351   */\n      pop\n        /* \"#utility.yul\":1884:2358   */\n      swap3\n      pop\n      swap3\n      swap1\n      pop\n      jump\t// out\n        /* \"#utility.yul\":2364:2838   */\n    tag_49:\n        /* \"#utility.yul\":2432:2438   */\n      0x00\n        /* \"#utility.yul\":2440:2446   */\n      dup1\n        /* \"#utility.yul\":2489:2491   */\n      0x40\n        /* \"#utility.yul\":2477:2486   */\n      dup4\n        /* \"#utility.yul\":2468:2475   */\n      dup6\n        /* \"#utility.yul\":2464:2487   */\n      sub\n        /* \"#utility.yul\":2460:2492   */\n      slt\n        /* \"#utility.yul\":2457:2576   */\n      iszero\n      tag_303\n      jumpi\n        /* \"#utility.yul\":2495:2574   */\n      tag_304\n      tag_221\n      jump\t// in\n    tag_304:\n        /* \"#utility.yul\":2457:2576   */\n    tag_303:\n        /* \"#utility.yul\":2615:2616   */\n      0x00\n        /* \"#utility.yul\":2640:2693   */\n      tag_305\n        /* \"#utility.yul\":2685:2692   */\n      dup6\n        /* \"#utility.yul\":2676:2682   */\n      dup3\n        /* \"#utility.yul\":2665:2674   */\n      dup7\n        /* \"#utility.yul\":2661:2683   */\n      add\n        /* \"#utility.yul\":2640:2693   */\n      tag_227\n      jump\t// in\n    tag_305:\n        /* \"#utility.yul\":2630:2693   */\n      swap3\n      pop\n        /* \"#utility.yul\":2586:2703   */\n      pop\n        /* \"#utility.yul\":2742:2744   */\n      0x20\n        /* \"#utility.yul\":2768:2821   */\n      tag_306\n        /* \"#utility.yul\":2813:2820   */\n      dup6\n        /* \"#utility.yul\":2804:2810   */\n      dup3\n        /* \"#utility.yul\":2793:2802   */\n      dup7\n        /* \"#utility.yul\":2789:2811   */\n      add\n        /* \"#utility.yul\":2768:2821   */\n      tag_227\n      jump\t// in\n    tag_306:\n        /* \"#utility.yul\":2758:2821   */\n      swap2\n      pop\n        /* \"#utility.yul\":2713:2831   */\n      pop\n        /* \"#utility.yul\":2364:2838   */\n      swap3\n      pop\n      swap3\n      swap1\n      pop\n      jump\t// out\n        /* \"#utility.yul\":2844:2962   */\n    tag_228:\n        /* \"#utility.yul\":2931:2955   */\n      tag_308\n        /* \"#utility.yul\":2949:2954   */\n      dup2\n        /* \"#utility.yul\":2931:2955   */\n      tag_223\n      jump\t// in\n    tag_308:\n        /* \"#utility.yul\":2926:2929   */\n      dup3\n        /* \"#utility.yul\":2919:2956   */\n      mstore\n        /* \"#utility.yul\":2844:2962   */\n      pop\n      pop\n      jump\t// out\n        /* \"#utility.yul\":2968:3190   */\n    tag_52:\n        /* \"#utility.yul\":3061:3065   */\n      0x00\n        /* \"#utility.yul\":3099:3101   */\n      0x20\n        /* \"#utility.yul\":3088:3097   */\n      dup3\n        /* \"#utility.yul\":3084:3102   */\n      add\n        /* \"#utility.yul\":3076:3102   */\n      swap1\n      pop\n        /* \"#utility.yul\":3112:3183   */\n      tag_310\n        /* \"#utility.yul\":3180:3181   */\n      0x00\n        /* \"#utility.yul\":3169:3178   */\n      dup4\n        /* \"#utility.yul\":3165:3182   */\n      add\n        /* \"#utility.yul\":3156:3162   */\n      dup5\n        /* \"#utility.yul\":3112:3183   */\n      tag_228\n      jump\t// in\n    tag_310:\n        /* \"#utility.yul\":2968:3190   */\n      swap3\n      swap2\n      pop\n      pop\n      jump\t// out\n        /* \"#utility.yul\":3196:3286   */\n    tag_229:\n        /* \"#utility.yul\":3230:3237   */\n      0x00\n        /* \"#utility.yul\":3273:3278   */\n      dup2\n        /* \"#utility.yul\":3266:3279   */\n      iszero\n        /* \"#utility.yul\":3259:3280   */\n      iszero\n        /* \"#utility.yul\":3248:3280   */\n      swap1\n      pop\n        /* \"#utility.yul\":3196:3286   */\n      swap2\n      swap1\n      pop\n      jump\t// out\n        /* \"#utility.yul\":3292:3401   */\n    tag_230:\n        /* \"#utility.yul\":3373:3394   */\n      tag_313\n        /* \"#utility.yul\":3388:3393   */\n      dup2\n        /* \"#utility.yul\":3373:3394   */\n      tag_229\n      jump\t// in\n    tag_313:\n        /* \"#utility.yul\":3368:3371   */\n      dup3\n        /* \"#utility.yul\":3361:3395   */\n      mstore\n        /* \"#utility.yul\":3292:3401   */\n      pop\n      pop\n      jump\t// out\n        /* \"#utility.yul\":3407:4170   */\n    tag_58:\n        /* \"#utility.yul\":3634:3638   */\n      0x00\n        /* \"#utility.yul\":3672:3675   */\n      0xc0\n        /* \"#utility.yul\":3661:3670   */\n      dup3\n        /* \"#utility.yul\":3657:3676   */\n      add\n        /* \"#utility.yul\":3649:3676   */\n      swap1\n      pop\n        /* \"#utility.yul\":3686:3757   */\n      tag_315\n        /* \"#utility.yul\":3754:3755   */\n      0x00\n        /* \"#utility.yul\":3743:3752   */\n      dup4\n        /* \"#utility.yul\":3739:3756   */\n      add\n        /* \"#utility.yul\":3730:3736   */\n      dup10\n        /* \"#utility.yul\":3686:3757   */\n      tag_219\n      jump\t// in\n    tag_315:\n        /* \"#utility.yul\":3767:3839   */\n      tag_316\n        /* \"#utility.yul\":3835:3837   */\n      0x20\n        /* \"#utility.yul\":3824:3833   */\n      dup4\n        /* \"#utility.yul\":3820:3838   */\n      add\n        /* \"#utility.yul\":3811:3817   */\n      dup9\n        /* \"#utility.yul\":3767:3839   */\n      tag_219\n      jump\t// in\n    tag_316:\n        /* \"#utility.yul\":3849:3921   */\n      tag_317\n        /* \"#utility.yul\":3917:3919   */\n      0x40\n        /* \"#utility.yul\":3906:3915   */\n      dup4\n        /* \"#utility.yul\":3902:3920   */\n      add\n        /* \"#utility.yul\":3893:3899   */\n      dup8\n        /* \"#utility.yul\":3849:3921   */\n      tag_228\n      jump\t// in\n    tag_317:\n        /* \"#utility.yul\":3931:4003   */\n      tag_318\n        /* \"#utility.yul\":3999:4001   */\n      0x60\n        /* \"#utility.yul\":3988:3997   */\n      dup4\n        /* \"#utility.yul\":3984:4002   */\n      add\n        /* \"#utility.yul\":3975:3981   */\n      dup7\n        /* \"#utility.yul\":3931:4003   */\n      tag_219\n      jump\t// in\n    tag_318:\n        /* \"#utility.yul\":4013:4086   */\n      tag_319\n        /* \"#utility.yul\":4081:4084   */\n      0x80\n        /* \"#utility.yul\":4070:4079   */\n      dup4\n        /* \"#utility.yul\":4066:4085   */\n      add\n        /* \"#utility.yul\":4057:4063   */\n      dup6\n        /* \"#utility.yul\":4013:4086   */\n      tag_228\n      jump\t// in\n    tag_319:\n        /* \"#utility.yul\":4096:4163   */\n      tag_320\n        /* \"#utility.yul\":4158:4161   */\n      0xa0\n        /* \"#utility.yul\":4147:4156   */\n      dup4\n        /* \"#utility.yul\":4143:4162   */\n      add\n        /* \"#utility.yul\":4134:4140   */\n      dup5\n        /* \"#utility.yul\":4096:4163   */\n      tag_230\n      jump\t// in\n    tag_320:\n        /* \"#utility.yul\":3407:4170   */\n      swap8\n      swap7\n      pop\n      pop\n      pop\n      pop\n      pop\n      pop\n      pop\n      jump\t// out\n        /* \"#utility.yul\":4176:4311   */\n    tag_231:\n        /* \"#utility.yul\":4264:4270   */\n      0x00\n        /* \"#utility.yul\":4298:4303   */\n      dup2\n        /* \"#utility.yul\":4292:4304   */\n      mload\n        /* \"#utility.yul\":4282:4304   */\n      swap1\n      pop\n        /* \"#utility.yul\":4176:4311   */\n      swap2\n      swap1\n      pop\n      jump\t// out\n        /* \"#utility.yul\":4317:4522   */\n    tag_232:\n        /* \"#utility.yul\":4437:4448   */\n      0x00\n        /* \"#utility.yul\":4471:4477   */\n      dup3\n        /* \"#utility.yul\":4466:4469   */\n      dup3\n        /* \"#utility.yul\":4459:4478   */\n      mstore\n        /* \"#utility.yul\":4511:4515   */\n      0x20\n        /* \"#utility.yul\":4506:4509   */\n      dup3\n        /* \"#utility.yul\":4502:4516   */\n      add\n        /* \"#utility.yul\":4487:4516   */\n      swap1\n      pop\n        /* \"#utility.yul\":4317:4522   */\n      swap3\n      swap2\n      pop\n      pop\n      jump\t// out\n        /* \"#utility.yul\":4528:4681   */\n    tag_233:\n        /* \"#utility.yul\":4616:4620   */\n      0x00\n        /* \"#utility.yul\":4639:4642   */\n      dup2\n        /* \"#utility.yul\":4631:4642   */\n      swap1\n      pop\n        /* \"#utility.yul\":4669:4673   */\n      0x20\n        /* \"#utility.yul\":4664:4667   */\n      dup3\n        /* \"#utility.yul\":4660:4674   */\n      add\n        /* \"#utility.yul\":4652:4674   */\n      swap1\n      pop\n        /* \"#utility.yul\":4528:4681   */\n      swap2\n      swap1\n      pop\n      jump\t// out\n        /* \"#utility.yul\":4687:4795   */\n    tag_234:\n        /* \"#utility.yul\":4764:4788   */\n      tag_325\n        /* \"#utility.yul\":4782:4787   */\n      dup2\n        /* \"#utility.yul\":4764:4788   */\n      tag_218\n      jump\t// in\n    tag_325:\n        /* \"#utility.yul\":4759:4762   */\n      dup3\n        /* \"#utility.yul\":4752:4789   */\n      mstore\n        /* \"#utility.yul\":4687:4795   */\n      pop\n      pop\n      jump\t// out\n        /* \"#utility.yul\":4801:4909   */\n    tag_235:\n        /* \"#utility.yul\":4878:4902   */\n      tag_327\n        /* \"#utility.yul\":4896:4901   */\n      dup2\n        /* \"#utility.yul\":4878:4902   */\n      tag_223\n      jump\t// in\n    tag_327:\n        /* \"#utility.yul\":4873:4876   */\n      dup3\n        /* \"#utility.yul\":4866:4903   */\n      mstore\n        /* \"#utility.yul\":4801:4909   */\n      pop\n      pop\n      jump\t// out\n        /* \"#utility.yul\":4915:5014   */\n    tag_236:\n        /* \"#utility.yul\":4986:5007   */\n      tag_329\n        /* \"#utility.yul\":5001:5006   */\n      dup2\n        /* \"#utility.yul\":4986:5007   */\n      tag_229\n      jump\t// in\n    tag_329:\n        /* \"#utility.yul\":4981:4984   */\n      dup3\n        /* \"#utility.yul\":4974:5008   */\n      mstore\n        /* \"#utility.yul\":4915:5014   */\n      pop\n      pop\n      jump\t// out\n        /* \"#utility.yul\":5086:6307   */\n    tag_237:\n        /* \"#utility.yul\":5215:5219   */\n      0xc0\n        /* \"#utility.yul\":5210:5213   */\n      dup3\n        /* \"#utility.yul\":5206:5220   */\n      add\n        /* \"#utility.yul\":5306:5310   */\n      0x00\n        /* \"#utility.yul\":5299:5304   */\n      dup3\n        /* \"#utility.yul\":5295:5311   */\n      add\n        /* \"#utility.yul\":5289:5312   */\n      mload\n        /* \"#utility.yul\":5325:5388   */\n      tag_331\n        /* \"#utility.yul\":5382:5386   */\n      0x00\n        /* \"#utility.yul\":5377:5380   */\n      dup6\n        /* \"#utility.yul\":5373:5387   */\n      add\n        /* \"#utility.yul\":5359:5371   */\n      dup3\n        /* \"#utility.yul\":5325:5388   */\n      tag_234\n      jump\t// in\n    tag_331:\n        /* \"#utility.yul\":5230:5398   */\n      pop\n        /* \"#utility.yul\":5485:5489   */\n      0x20\n        /* \"#utility.yul\":5478:5483   */\n      dup3\n        /* \"#utility.yul\":5474:5490   */\n      add\n        /* \"#utility.yul\":5468:5491   */\n      mload\n        /* \"#utility.yul\":5504:5567   */\n      tag_332\n        /* \"#utility.yul\":5561:5565   */\n      0x20\n        /* \"#utility.yul\":5556:5559   */\n      dup6\n        /* \"#utility.yul\":5552:5566   */\n      add\n        /* \"#utility.yul\":5538:5550   */\n      dup3\n        /* \"#utility.yul\":5504:5567   */\n      tag_234\n      jump\t// in\n    tag_332:\n        /* \"#utility.yul\":5408:5577   */\n      pop\n        /* \"#utility.yul\":5665:5669   */\n      0x40\n        /* \"#utility.yul\":5658:5663   */\n      dup3\n        /* \"#utility.yul\":5654:5670   */\n      add\n        /* \"#utility.yul\":5648:5671   */\n      mload\n        /* \"#utility.yul\":5684:5747   */\n      tag_333\n        /* \"#utility.yul\":5741:5745   */\n      0x40\n        /* \"#utility.yul\":5736:5739   */\n      dup6\n        /* \"#utility.yul\":5732:5746   */\n      add\n        /* \"#utility.yul\":5718:5730   */\n      dup3\n        /* \"#utility.yul\":5684:5747   */\n      tag_235\n      jump\t// in\n    tag_333:\n        /* \"#utility.yul\":5587:5757   */\n      pop\n        /* \"#utility.yul\":5850:5854   */\n      0x60\n        /* \"#utility.yul\":5843:5848   */\n      dup3\n        /* \"#utility.yul\":5839:5855   */\n      add\n        /* \"#utility.yul\":5833:5856   */\n      mload\n        /* \"#utility.yul\":5869:5932   */\n      tag_334\n        /* \"#utility.yul\":5926:5930   */\n      0x60\n        /* \"#utility.yul\":5921:5924   */\n      dup6\n        /* \"#utility.yul\":5917:5931   */\n      add\n        /* \"#utility.yul\":5903:5915   */\n      dup3\n        /* \"#utility.yul\":5869:5932   */\n      tag_234\n      jump\t// in\n    tag_334:\n        /* \"#utility.yul\":5767:5942   */\n      pop\n        /* \"#utility.yul\":6036:6040   */\n      0x80\n        /* \"#utility.yul\":6029:6034   */\n      dup3\n        /* \"#utility.yul\":6025:6041   */\n      add\n        /* \"#utility.yul\":6019:6042   */\n      mload\n        /* \"#utility.yul\":6055:6118   */\n      tag_335\n        /* \"#utility.yul\":6112:6116   */\n      0x80\n        /* \"#utility.yul\":6107:6110   */\n      dup6\n        /* \"#utility.yul\":6103:6117   */\n      add\n        /* \"#utility.yul\":6089:6101   */\n      dup3\n        /* \"#utility.yul\":6055:6118   */\n      tag_235\n      jump\t// in\n    tag_335:\n        /* \"#utility.yul\":5952:6128   */\n      pop\n        /* \"#utility.yul\":6214:6218   */\n      0xa0\n        /* \"#utility.yul\":6207:6212   */\n      dup3\n        /* \"#utility.yul\":6203:6219   */\n      add\n        /* \"#utility.yul\":6197:6220   */\n      mload\n        /* \"#utility.yul\":6233:6290   */\n      tag_336\n        /* \"#utility.yul\":6284:6288   */\n      0xa0\n        /* \"#utility.yul\":6279:6282   */\n      dup6\n        /* \"#utility.yul\":6275:6289   */\n      add\n        /* \"#utility.yul\":6261:6273   */\n      dup3\n        /* \"#utility.yul\":6233:6290   */\n      tag_236\n      jump\t// in\n    tag_336:\n        /* \"#utility.yul\":6138:6300   */\n      pop\n        /* \"#utility.yul\":5184:6307   */\n      pop\n        /* \"#utility.yul\":5086:6307   */\n      pop\n      pop\n      jump\t// out\n        /* \"#utility.yul\":6313:6576   */\n    tag_238:\n        /* \"#utility.yul\":6424:6434   */\n      0x00\n        /* \"#utility.yul\":6445:6533   */\n      tag_338\n        /* \"#utility.yul\":6529:6532   */\n      dup4\n        /* \"#utility.yul\":6521:6527   */\n      dup4\n        /* \"#utility.yul\":6445:6533   */\n      tag_237\n      jump\t// in\n    tag_338:\n        /* \"#utility.yul\":6565:6569   */\n      0xc0\n        /* \"#utility.yul\":6560:6563   */\n      dup4\n        /* \"#utility.yul\":6556:6570   */\n      add\n        /* \"#utility.yul\":6542:6570   */\n      swap1\n      pop\n        /* \"#utility.yul\":6313:6576   */\n      swap3\n      swap2\n      pop\n      pop\n      jump\t// out\n        /* \"#utility.yul\":6582:6716   */\n    tag_239:\n        /* \"#utility.yul\":6673:6677   */\n      0x00\n        /* \"#utility.yul\":6705:6709   */\n      0x20\n        /* \"#utility.yul\":6700:6703   */\n      dup3\n        /* \"#utility.yul\":6696:6710   */\n      add\n        /* \"#utility.yul\":6688:6710   */\n      swap1\n      pop\n        /* \"#utility.yul\":6582:6716   */\n      swap2\n      swap1\n      pop\n      jump\t// out\n        /* \"#utility.yul\":6792:7692   */\n    tag_240:\n        /* \"#utility.yul\":6953:6956   */\n      0x00\n        /* \"#utility.yul\":6982:7057   */\n      tag_341\n        /* \"#utility.yul\":7051:7056   */\n      dup3\n        /* \"#utility.yul\":6982:7057   */\n      tag_231\n      jump\t// in\n    tag_341:\n        /* \"#utility.yul\":7073:7180   */\n      tag_342\n        /* \"#utility.yul\":7173:7179   */\n      dup2\n        /* \"#utility.yul\":7168:7171   */\n      dup6\n        /* \"#utility.yul\":7073:7180   */\n      tag_232\n      jump\t// in\n    tag_342:\n        /* \"#utility.yul\":7066:7180   */\n      swap4\n      pop\n        /* \"#utility.yul\":7204:7281   */\n      tag_343\n        /* \"#utility.yul\":7275:7280   */\n      dup4\n        /* \"#utility.yul\":7204:7281   */\n      tag_233\n      jump\t// in\n    tag_343:\n        /* \"#utility.yul\":7304:7311   */\n      dup1\n        /* \"#utility.yul\":7335:7336   */\n      0x00\n        /* \"#utility.yul\":7320:7667   */\n    tag_344:\n        /* \"#utility.yul\":7345:7351   */\n      dup4\n        /* \"#utility.yul\":7342:7343   */\n      dup2\n        /* \"#utility.yul\":7339:7352   */\n      lt\n        /* \"#utility.yul\":7320:7667   */\n      iszero\n      tag_346\n      jumpi\n        /* \"#utility.yul\":7421:7427   */\n      dup2\n        /* \"#utility.yul\":7415:7428   */\n      mload\n        /* \"#utility.yul\":7448:7553   */\n      tag_347\n        /* \"#utility.yul\":7549:7552   */\n      dup9\n        /* \"#utility.yul\":7534:7547   */\n      dup3\n        /* \"#utility.yul\":7448:7553   */\n      tag_238\n      jump\t// in\n    tag_347:\n        /* \"#utility.yul\":7441:7553   */\n      swap8\n      pop\n        /* \"#utility.yul\":7576:7657   */\n      tag_348\n        /* \"#utility.yul\":7650:7656   */\n      dup4\n        /* \"#utility.yul\":7576:7657   */\n      tag_239\n      jump\t// in\n    tag_348:\n        /* \"#utility.yul\":7566:7657   */\n      swap3\n      pop\n        /* \"#utility.yul\":7380:7667   */\n      pop\n        /* \"#utility.yul\":7367:7368   */\n      0x01\n        /* \"#utility.yul\":7364:7365   */\n      dup2\n        /* \"#utility.yul\":7360:7369   */\n      add\n        /* \"#utility.yul\":7355:7369   */\n      swap1\n      pop\n        /* \"#utility.yul\":7320:7667   */\n      jump(tag_344)\n    tag_346:\n        /* \"#utility.yul\":7324:7338   */\n      pop\n        /* \"#utility.yul\":7683:7686   */\n      dup6\n        /* \"#utility.yul\":7676:7686   */\n      swap4\n      pop\n        /* \"#utility.yul\":6958:7692   */\n      pop\n      pop\n      pop\n        /* \"#utility.yul\":6792:7692   */\n      swap3\n      swap2\n      pop\n      pop\n      jump\t// out\n        /* \"#utility.yul\":7698:8155   */\n    tag_63:\n        /* \"#utility.yul\":7883:7887   */\n      0x00\n        /* \"#utility.yul\":7921:7923   */\n      0x20\n        /* \"#utility.yul\":7910:7919   */\n      dup3\n        /* \"#utility.yul\":7906:7924   */\n      add\n        /* \"#utility.yul\":7898:7924   */\n      swap1\n      pop\n        /* \"#utility.yul\":7970:7979   */\n      dup2\n        /* \"#utility.yul\":7964:7968   */\n      dup2\n        /* \"#utility.yul\":7960:7980   */\n      sub\n        /* \"#utility.yul\":7956:7957   */\n      0x00\n        /* \"#utility.yul\":7945:7954   */\n      dup4\n        /* \"#utility.yul\":7941:7958   */\n      add\n        /* \"#utility.yul\":7934:7981   */\n      mstore\n        /* \"#utility.yul\":7998:8148   */\n      tag_350\n        /* \"#utility.yul\":8143:8147   */\n      dup2\n        /* \"#utility.yul\":8134:8140   */\n      dup5\n        /* \"#utility.yul\":7998:8148   */\n      tag_240\n      jump\t// in\n    tag_350:\n        /* \"#utility.yul\":7990:8148   */\n      swap1\n      pop\n        /* \"#utility.yul\":7698:8155   */\n      swap3\n      swap2\n      pop\n      pop\n      jump\t// out\n        /* \"#utility.yul\":8161:8926   */\n    tag_71:\n        /* \"#utility.yul\":8247:8253   */\n      0x00\n        /* \"#utility.yul\":8255:8261   */\n      dup1\n        /* \"#utility.yul\":8263:8269   */\n      0x00\n        /* \"#utility.yul\":8271:8277   */\n      dup1\n        /* \"#utility.yul\":8320:8323   */\n      0x80\n        /* \"#utility.yul\":8308:8317   */\n      dup6\n        /* \"#utility.yul\":8299:8306   */\n      dup8\n        /* \"#utility.yul\":8295:8318   */\n      sub\n        /* \"#utility.yul\":8291:8324   */\n      slt\n        /* \"#utility.yul\":8288:8408   */\n      iszero\n      tag_352\n      jumpi\n        /* \"#utility.yul\":8327:8406   */\n      tag_353\n      tag_221\n      jump\t// in\n    tag_353:\n        /* \"#utility.yul\":8288:8408   */\n    tag_352:\n        /* \"#utility.yul\":8447:8448   */\n      0x00\n        /* \"#utility.yul\":8472:8525   */\n      tag_354\n        /* \"#utility.yul\":8517:8524   */\n      dup8\n        /* \"#utility.yul\":8508:8514   */\n      dup3\n        /* \"#utility.yul\":8497:8506   */\n      dup9\n        /* \"#utility.yul\":8493:8515   */\n      add\n        /* \"#utility.yul\":8472:8525   */\n      tag_227\n      jump\t// in\n    tag_354:\n        /* \"#utility.yul\":8462:8525   */\n      swap5\n      pop\n        /* \"#utility.yul\":8418:8535   */\n      pop\n        /* \"#utility.yul\":8574:8576   */\n      0x20\n        /* \"#utility.yul\":8600:8653   */\n      tag_355\n        /* \"#utility.yul\":8645:8652   */\n      dup8\n        /* \"#utility.yul\":8636:8642   */\n      dup3\n        /* \"#utility.yul\":8625:8634   */\n      dup9\n        /* \"#utility.yul\":8621:8643   */\n      add\n        /* \"#utility.yul\":8600:8653   */\n      tag_225\n      jump\t// in\n    tag_355:\n        /* \"#utility.yul\":8590:8653   */\n      swap4\n      pop\n        /* \"#utility.yul\":8545:8663   */\n      pop\n        /* \"#utility.yul\":8702:8704   */\n      0x40\n        /* \"#utility.yul\":8728:8781   */\n      tag_356\n        /* \"#utility.yul\":8773:8780   */\n      dup8\n        /* \"#utility.yul\":8764:8770   */\n      dup3\n        /* \"#utility.yul\":8753:8762   */\n      dup9\n        /* \"#utility.yul\":8749:8771   */\n      add\n        /* \"#utility.yul\":8728:8781   */\n      tag_227\n      jump\t// in\n    tag_356:\n        /* \"#utility.yul\":8718:8781   */\n      swap3\n      pop\n        /* \"#utility.yul\":8673:8791   */\n      pop\n        /* \"#utility.yul\":8830:8832   */\n      0x60\n        /* \"#utility.yul\":8856:8909   */\n      tag_357\n        /* \"#utility.yul\":8901:8908   */\n      dup8\n        /* \"#utility.yul\":8892:8898   */\n      dup3\n        /* \"#utility.yul\":8881:8890   */\n      dup9\n        /* \"#utility.yul\":8877:8899   */\n      add\n        /* \"#utility.yul\":8856:8909   */\n      tag_225\n      jump\t// in\n    tag_357:\n        /* \"#utility.yul\":8846:8909   */\n      swap2\n      pop\n        /* \"#utility.yul\":8801:8919   */\n      pop\n        /* \"#utility.yul\":8161:8926   */\n      swap3\n      swap6\n      swap2\n      swap5\n      pop\n      swap3\n      pop\n      jump\t// out\n        /* \"#utility.yul\":8932:9261   */\n    tag_76:\n        /* \"#utility.yul\":8991:8997   */\n      0x00\n        /* \"#utility.yul\":9040:9042   */\n      0x20\n        /* \"#utility.yul\":9028:9037   */\n      dup3\n        /* \"#utility.yul\":9019:9026   */\n      dup5\n        /* \"#utility.yul\":9015:9038   */\n      sub\n        /* \"#utility.yul\":9011:9043   */\n      slt\n        /* \"#utility.yul\":9008:9127   */\n      iszero\n      tag_359\n      jumpi\n        /* \"#utility.yul\":9046:9125   */\n      tag_360\n      tag_221\n      jump\t// in\n    tag_360:\n        /* \"#utility.yul\":9008:9127   */\n    tag_359:\n        /* \"#utility.yul\":9166:9167   */\n      0x00\n        /* \"#utility.yul\":9191:9244   */\n      tag_361\n        /* \"#utility.yul\":9236:9243   */\n      dup5\n        /* \"#utility.yul\":9227:9233   */\n      dup3\n        /* \"#utility.yul\":9216:9225   */\n      dup6\n        /* \"#utility.yul\":9212:9234   */\n      add\n        /* \"#utility.yul\":9191:9244   */\n      tag_227\n      jump\t// in\n    tag_361:\n        /* \"#utility.yul\":9181:9244   */\n      swap2\n      pop\n        /* \"#utility.yul\":9137:9254   */\n      pop\n        /* \"#utility.yul\":8932:9261   */\n      swap3\n      swap2\n      pop\n      pop\n      jump\t// out\n        /* \"#utility.yul\":9267:9436   */\n    tag_241:\n        /* \"#utility.yul\":9351:9362   */\n      0x00\n        /* \"#utility.yul\":9385:9391   */\n      dup3\n        /* \"#utility.yul\":9380:9383   */\n      dup3\n        /* \"#utility.yul\":9373:9392   */\n      mstore\n        /* \"#utility.yul\":9425:9429   */\n      0x20\n        /* \"#utility.yul\":9420:9423   */\n      dup3\n        /* \"#utility.yul\":9416:9430   */\n      add\n        /* \"#utility.yul\":9401:9430   */\n      swap1\n      pop\n        /* \"#utility.yul\":9267:9436   */\n      swap3\n      swap2\n      pop\n      pop\n      jump\t// out\n        /* \"#utility.yul\":9442:9610   */\n    tag_242:\n        /* \"#utility.yul\":9582:9602   */\n      0x496e76616c6964206c6f616e20696e6465780000000000000000000000000000\n        /* \"#utility.yul\":9578:9579   */\n      0x00\n        /* \"#utility.yul\":9570:9576   */\n      dup3\n        /* \"#utility.yul\":9566:9580   */\n      add\n        /* \"#utility.yul\":9559:9603   */\n      mstore\n        /* \"#utility.yul\":9442:9610   */\n      pop\n      jump\t// out\n        /* \"#utility.yul\":9616:9982   */\n    tag_243:\n        /* \"#utility.yul\":9758:9761   */\n      0x00\n        /* \"#utility.yul\":9779:9846   */\n      tag_365\n        /* \"#utility.yul\":9843:9845   */\n      0x12\n        /* \"#utility.yul\":9838:9841   */\n      dup4\n        /* \"#utility.yul\":9779:9846   */\n      tag_241\n      jump\t// in\n    tag_365:\n        /* \"#utility.yul\":9772:9846   */\n      swap2\n      pop\n        /* \"#utility.yul\":9855:9948   */\n      tag_366\n        /* \"#utility.yul\":9944:9947   */\n      dup3\n        /* \"#utility.yul\":9855:9948   */\n      tag_242\n      jump\t// in\n    tag_366:\n        /* \"#utility.yul\":9973:9975   */\n      0x20\n        /* \"#utility.yul\":9968:9971   */\n      dup3\n        /* \"#utility.yul\":9964:9976   */\n      add\n        /* \"#utility.yul\":9957:9976   */\n      swap1\n      pop\n        /* \"#utility.yul\":9616:9982   */\n      swap2\n      swap1\n      pop\n      jump\t// out\n        /* \"#utility.yul\":9988:10407   */\n    tag_90:\n        /* \"#utility.yul\":10154:10158   */\n      0x00\n        /* \"#utility.yul\":10192:10194   */\n      0x20\n        /* \"#utility.yul\":10181:10190   */\n      dup3\n        /* \"#utility.yul\":10177:10195   */\n      add\n        /* \"#utility.yul\":10169:10195   */\n      swap1\n      pop\n        /* \"#utility.yul\":10241:10250   */\n      dup2\n        /* \"#utility.yul\":10235:10239   */\n      dup2\n        /* \"#utility.yul\":10231:10251   */\n      sub\n        /* \"#utility.yul\":10227:10228   */\n      0x00\n        /* \"#utility.yul\":10216:10225   */\n      dup4\n        /* \"#utility.yul\":10212:10229   */\n      add\n        /* \"#utility.yul\":10205:10252   */\n      mstore\n        /* \"#utility.yul\":10269:10400   */\n      tag_368\n        /* \"#utility.yul\":10395:10399   */\n      dup2\n        /* \"#utility.yul\":10269:10400   */\n      tag_243\n      jump\t// in\n    tag_368:\n        /* \"#utility.yul\":10261:10400   */\n      swap1\n      pop\n        /* \"#utility.yul\":9988:10407   */\n      swap2\n      swap1\n      pop\n      jump\t// out\n        /* \"#utility.yul\":10413:10593   */\n    tag_93:\n        /* \"#utility.yul\":10461:10538   */\n      0x4e487b7100000000000000000000000000000000000000000000000000000000\n        /* \"#utility.yul\":10458:10459   */\n      0x00\n        /* \"#utility.yul\":10451:10539   */\n      mstore\n        /* \"#utility.yul\":10558:10562   */\n      0x32\n        /* \"#utility.yul\":10555:10556   */\n      0x04\n        /* \"#utility.yul\":10548:10563   */\n      mstore\n        /* \"#utility.yul\":10582:10586   */\n      0x24\n        /* \"#utility.yul\":10579:10580   */\n      0x00\n        /* \"#utility.yul\":10572:10587   */\n      revert\n        /* \"#utility.yul\":10599:10768   */\n    tag_244:\n        /* \"#utility.yul\":10739:10760   */\n      0x4c6f616e20616c72656164792072657061696400000000000000000000000000\n        /* \"#utility.yul\":10735:10736   */\n      0x00\n        /* \"#utility.yul\":10727:10733   */\n      dup3\n        /* \"#utility.yul\":10723:10737   */\n      add\n        /* \"#utility.yul\":10716:10761   */\n      mstore\n        /* \"#utility.yul\":10599:10768   */\n      pop\n      jump\t// out\n        /* \"#utility.yul\":10774:11140   */\n    tag_245:\n        /* \"#utility.yul\":10916:10919   */\n      0x00\n        /* \"#utility.yul\":10937:11004   */\n      tag_372\n        /* \"#utility.yul\":11001:11003   */\n      0x13\n        /* \"#utility.yul\":10996:10999   */\n      dup4\n        /* \"#utility.yul\":10937:11004   */\n      tag_241\n      jump\t// in\n    tag_372:\n        /* \"#utility.yul\":10930:11004   */\n      swap2\n      pop\n        /* \"#utility.yul\":11013:11106   */\n      tag_373\n        /* \"#utility.yul\":11102:11105   */\n      dup3\n        /* \"#utility.yul\":11013:11106   */\n      tag_244\n      jump\t// in\n    tag_373:\n        /* \"#utility.yul\":11131:11133   */\n      0x20\n        /* \"#utility.yul\":11126:11129   */\n      dup3\n        /* \"#utility.yul\":11122:11134   */\n      add\n        /* \"#utility.yul\":11115:11134   */\n      swap1\n      pop\n        /* \"#utility.yul\":10774:11140   */\n      swap2\n      swap1\n      pop\n      jump\t// out\n        /* \"#utility.yul\":11146:11565   */\n    tag_97:\n        /* \"#utility.yul\":11312:11316   */\n      0x00\n        /* \"#utility.yul\":11350:11352   */\n      0x20\n        /* \"#utility.yul\":11339:11348   */\n      dup3\n        /* \"#utility.yul\":11335:11353   */\n      add\n        /* \"#utility.yul\":11327:11353   */\n      swap1\n      pop\n        /* \"#utility.yul\":11399:11408   */\n      dup2\n        /* \"#utility.yul\":11393:11397   */\n      dup2\n        /* \"#utility.yul\":11389:11409   */\n      sub\n        /* \"#utility.yul\":11385:11386   */\n      0x00\n        /* \"#utility.yul\":11374:11383   */\n      dup4\n        /* \"#utility.yul\":11370:11387   */\n      add\n        /* \"#utility.yul\":11363:11410   */\n      mstore\n        /* \"#utility.yul\":11427:11558   */\n      tag_375\n        /* \"#utility.yul\":11553:11557   */\n      dup2\n        /* \"#utility.yul\":11427:11558   */\n      tag_245\n      jump\t// in\n    tag_375:\n        /* \"#utility.yul\":11419:11558   */\n      swap1\n      pop\n        /* \"#utility.yul\":11146:11565   */\n      swap2\n      swap1\n      pop\n      jump\t// out\n        /* \"#utility.yul\":11571:11743   */\n    tag_246:\n        /* \"#utility.yul\":11711:11735   */\n      0x4554482072657061796d656e74206d69736d6174636800000000000000000000\n        /* \"#utility.yul\":11707:11708   */\n      0x00\n        /* \"#utility.yul\":11699:11705   */\n      dup3\n        /* \"#utility.yul\":11695:11709   */\n      add\n        /* \"#utility.yul\":11688:11736   */\n      mstore\n        /* \"#utility.yul\":11571:11743   */\n      pop\n      jump\t// out\n        /* \"#utility.yul\":11749:12115   */\n    tag_247:\n        /* \"#utility.yul\":11891:11894   */\n      0x00\n        /* \"#utility.yul\":11912:11979   */\n      tag_378\n        /* \"#utility.yul\":11976:11978   */\n      0x16\n        /* \"#utility.yul\":11971:11974   */\n      dup4\n        /* \"#utility.yul\":11912:11979   */\n      tag_241\n      jump\t// in\n    tag_378:\n        /* \"#utility.yul\":11905:11979   */\n      swap2\n      pop\n        /* \"#utility.yul\":11988:12081   */\n      tag_379\n        /* \"#utility.yul\":12077:12080   */\n      dup3\n        /* \"#utility.yul\":11988:12081   */\n      tag_246\n      jump\t// in\n    tag_379:\n        /* \"#utility.yul\":12106:12108   */\n      0x20\n        /* \"#utility.yul\":12101:12104   */\n      dup3\n        /* \"#utility.yul\":12097:12109   */\n      add\n        /* \"#utility.yul\":12090:12109   */\n      swap1\n      pop\n        /* \"#utility.yul\":11749:12115   */\n      swap2\n      swap1\n      pop\n      jump\t// out\n        /* \"#utility.yul\":12121:12540   */\n    tag_101:\n        /* \"#utility.yul\":12287:12291   */\n      0x00\n        /* \"#utility.yul\":12325:12327   */\n      0x20\n        /* \"#utility.yul\":12314:12323   */\n      dup3\n        /* \"#utility.yul\":12310:12328   */\n      add\n        /* \"#utility.yul\":12302:12328   */\n      swap1\n      pop\n        /* \"#utility.yul\":12374:12383   */\n      dup2\n        /* \"#utility.yul\":12368:12372   */\n      dup2\n        /* \"#utility.yul\":12364:12384   */\n      sub\n        /* \"#utility.yul\":12360:12361   */\n      0x00\n        /* \"#utility.yul\":12349:12358   */\n      dup4\n        /* \"#utility.yul\":12345:12362   */\n      add\n        /* \"#utility.yul\":12338:12385   */\n      mstore\n        /* \"#utility.yul\":12402:12533   */\n      tag_381\n        /* \"#utility.yul\":12528:12532   */\n      dup2\n        /* \"#utility.yul\":12402:12533   */\n      tag_247\n      jump\t// in\n    tag_381:\n        /* \"#utility.yul\":12394:12533   */\n      swap1\n      pop\n        /* \"#utility.yul\":12121:12540   */\n      swap2\n      swap1\n      pop\n      jump\t// out\n        /* \"#utility.yul\":12546:12988   */\n    tag_104:\n        /* \"#utility.yul\":12695:12699   */\n      0x00\n        /* \"#utility.yul\":12733:12735   */\n      0x60\n        /* \"#utility.yul\":12722:12731   */\n      dup3\n        /* \"#utility.yul\":12718:12736   */\n      add\n        /* \"#utility.yul\":12710:12736   */\n      swap1\n      pop\n        /* \"#utility.yul\":12746:12817   */\n      tag_383\n        /* \"#utility.yul\":12814:12815   */\n      0x00\n        /* \"#utility.yul\":12803:12812   */\n      dup4\n        /* \"#utility.yul\":12799:12816   */\n      add\n        /* \"#utility.yul\":12790:12796   */\n      dup7\n        /* \"#utility.yul\":12746:12817   */\n      tag_219\n      jump\t// in\n    tag_383:\n        /* \"#utility.yul\":12827:12899   */\n      tag_384\n        /* \"#utility.yul\":12895:12897   */\n      0x20\n        /* \"#utility.yul\":12884:12893   */\n      dup4\n        /* \"#utility.yul\":12880:12898   */\n      add\n        /* \"#utility.yul\":12871:12877   */\n      dup6\n        /* \"#utility.yul\":12827:12899   */\n      tag_219\n      jump\t// in\n    tag_384:\n        /* \"#utility.yul\":12909:12981   */\n      tag_385\n        /* \"#utility.yul\":12977:12979   */\n      0x40\n        /* \"#utility.yul\":12966:12975   */\n      dup4\n        /* \"#utility.yul\":12962:12980   */\n      add\n        /* \"#utility.yul\":12953:12959   */\n      dup5\n        /* \"#utility.yul\":12909:12981   */\n      tag_228\n      jump\t// in\n    tag_385:\n        /* \"#utility.yul\":12546:12988   */\n      swap5\n      swap4\n      pop\n      pop\n      pop\n      pop\n      jump\t// out\n        /* \"#utility.yul\":12994:13110   */\n    tag_248:\n        /* \"#utility.yul\":13064:13085   */\n      tag_387\n        /* \"#utility.yul\":13079:13084   */\n      dup2\n        /* \"#utility.yul\":13064:13085   */\n      tag_229\n      jump\t// in\n    tag_387:\n        /* \"#utility.yul\":13057:13062   */\n      dup2\n        /* \"#utility.yul\":13054:13086   */\n      eq\n        /* \"#utility.yul\":13044:13104   */\n      tag_388\n      jumpi\n        /* \"#utility.yul\":13100:13101   */\n      0x00\n        /* \"#utility.yul\":13097:13098   */\n      dup1\n        /* \"#utility.yul\":13090:13102   */\n      revert\n        /* \"#utility.yul\":13044:13104   */\n    tag_388:\n        /* \"#utility.yul\":12994:13110   */\n      pop\n      jump\t// out\n        /* \"#utility.yul\":13116:13253   */\n    tag_249:\n        /* \"#utility.yul\":13170:13175   */\n      0x00\n        /* \"#utility.yul\":13201:13207   */\n      dup2\n        /* \"#utility.yul\":13195:13208   */\n      mload\n        /* \"#utility.yul\":13186:13208   */\n      swap1\n      pop\n        /* \"#utility.yul\":13217:13247   */\n      tag_390\n        /* \"#utility.yul\":13241:13246   */\n      dup2\n        /* \"#utility.yul\":13217:13247   */\n      tag_248\n      jump\t// in\n    tag_390:\n        /* \"#utility.yul\":13116:13253   */\n      swap3\n      swap2\n      pop\n      pop\n      jump\t// out\n        /* \"#utility.yul\":13259:13604   */\n    tag_108:\n        /* \"#utility.yul\":13326:13332   */\n      0x00\n        /* \"#utility.yul\":13375:13377   */\n      0x20\n        /* \"#utility.yul\":13363:13372   */\n      dup3\n        /* \"#utility.yul\":13354:13361   */\n      dup5\n        /* \"#utility.yul\":13350:13373   */\n      sub\n        /* \"#utility.yul\":13346:13378   */\n      slt\n        /* \"#utility.yul\":13343:13462   */\n      iszero\n      tag_392\n      jumpi\n        /* \"#utility.yul\":13381:13460   */\n      tag_393\n      tag_221\n      jump\t// in\n    tag_393:\n        /* \"#utility.yul\":13343:13462   */\n    tag_392:\n        /* \"#utility.yul\":13501:13502   */\n      0x00\n        /* \"#utility.yul\":13526:13587   */\n      tag_394\n        /* \"#utility.yul\":13579:13586   */\n      dup5\n        /* \"#utility.yul\":13570:13576   */\n      dup3\n        /* \"#utility.yul\":13559:13568   */\n      dup6\n        /* \"#utility.yul\":13555:13577   */\n      add\n        /* \"#utility.yul\":13526:13587   */\n      tag_249\n      jump\t// in\n    tag_394:\n        /* \"#utility.yul\":13516:13587   */\n      swap2\n      pop\n        /* \"#utility.yul\":13472:13597   */\n      pop\n        /* \"#utility.yul\":13259:13604   */\n      swap3\n      swap2\n      pop\n      pop\n      jump\t// out\n        /* \"#utility.yul\":13610:13781   */\n    tag_250:\n        /* \"#utility.yul\":13750:13773   */\n      0x4c6f616e2072657061796d656e74206661696c65640000000000000000000000\n        /* \"#utility.yul\":13746:13747   */\n      0x00\n        /* \"#utility.yul\":13738:13744   */\n      dup3\n        /* \"#utility.yul\":13734:13748   */\n      add\n        /* \"#utility.yul\":13727:13774   */\n      mstore\n        /* \"#utility.yul\":13610:13781   */\n      pop\n      jump\t// out\n        /* \"#utility.yul\":13787:14153   */\n    tag_251:\n        /* \"#utility.yul\":13929:13932   */\n      0x00\n        /* \"#utility.yul\":13950:14017   */\n      tag_397\n        /* \"#utility.yul\":14014:14016   */\n      0x15\n        /* \"#utility.yul\":14009:14012   */\n      dup4\n        /* \"#utility.yul\":13950:14017   */\n      tag_241\n      jump\t// in\n    tag_397:\n        /* \"#utility.yul\":13943:14017   */\n      swap2\n      pop\n        /* \"#utility.yul\":14026:14119   */\n      tag_398\n        /* \"#utility.yul\":14115:14118   */\n      dup3\n        /* \"#utility.yul\":14026:14119   */\n      tag_250\n      jump\t// in\n    tag_398:\n        /* \"#utility.yul\":14144:14146   */\n      0x20\n        /* \"#utility.yul\":14139:14142   */\n      dup3\n        /* \"#utility.yul\":14135:14147   */\n      add\n        /* \"#utility.yul\":14128:14147   */\n      swap1\n      pop\n        /* \"#utility.yul\":13787:14153   */\n      swap2\n      swap1\n      pop\n      jump\t// out\n        /* \"#utility.yul\":14159:14578   */\n    tag_111:\n        /* \"#utility.yul\":14325:14329   */\n      0x00\n        /* \"#utility.yul\":14363:14365   */\n      0x20\n        /* \"#utility.yul\":14352:14361   */\n      dup3\n        /* \"#utility.yul\":14348:14366   */\n      add\n        /* \"#utility.yul\":14340:14366   */\n      swap1\n      pop\n        /* \"#utility.yul\":14412:14421   */\n      dup2\n        /* \"#utility.yul\":14406:14410   */\n      dup2\n        /* \"#utility.yul\":14402:14422   */\n      sub\n        /* \"#utility.yul\":14398:14399   */\n      0x00\n        /* \"#utility.yul\":14387:14396   */\n      dup4\n        /* \"#utility.yul\":14383:14400   */\n      add\n        /* \"#utility.yul\":14376:14423   */\n      mstore\n        /* \"#utility.yul\":14440:14571   */\n      tag_400\n        /* \"#utility.yul\":14566:14570   */\n      dup2\n        /* \"#utility.yul\":14440:14571   */\n      tag_251\n      jump\t// in\n    tag_400:\n        /* \"#utility.yul\":14432:14571   */\n      swap1\n      pop\n        /* \"#utility.yul\":14159:14578   */\n      swap2\n      swap1\n      pop\n      jump\t// out\n        /* \"#utility.yul\":14584:14764   */\n    tag_252:\n        /* \"#utility.yul\":14632:14709   */\n      0x4e487b7100000000000000000000000000000000000000000000000000000000\n        /* \"#utility.yul\":14629:14630   */\n      0x00\n        /* \"#utility.yul\":14622:14710   */\n      mstore\n        /* \"#utility.yul\":14729:14733   */\n      0x11\n        /* \"#utility.yul\":14726:14727   */\n      0x04\n        /* \"#utility.yul\":14719:14734   */\n      mstore\n        /* \"#utility.yul\":14753:14757   */\n      0x24\n        /* \"#utility.yul\":14750:14751   */\n      0x00\n        /* \"#utility.yul\":14743:14758   */\n      revert\n        /* \"#utility.yul\":14770:14961   */\n    tag_113:\n        /* \"#utility.yul\":14810:14813   */\n      0x00\n        /* \"#utility.yul\":14829:14849   */\n      tag_403\n        /* \"#utility.yul\":14847:14848   */\n      dup3\n        /* \"#utility.yul\":14829:14849   */\n      tag_223\n      jump\t// in\n    tag_403:\n        /* \"#utility.yul\":14824:14849   */\n      swap2\n      pop\n        /* \"#utility.yul\":14863:14883   */\n      tag_404\n        /* \"#utility.yul\":14881:14882   */\n      dup4\n        /* \"#utility.yul\":14863:14883   */\n      tag_223\n      jump\t// in\n    tag_404:\n        /* \"#utility.yul\":14858:14883   */\n      swap3\n      pop\n        /* \"#utility.yul\":14906:14907   */\n      dup3\n        /* \"#utility.yul\":14903:14904   */\n      dup3\n        /* \"#utility.yul\":14899:14908   */\n      add\n        /* \"#utility.yul\":14892:14908   */\n      swap1\n      pop\n        /* \"#utility.yul\":14927:14930   */\n      dup1\n        /* \"#utility.yul\":14924:14925   */\n      dup3\n        /* \"#utility.yul\":14921:14931   */\n      gt\n        /* \"#utility.yul\":14918:14954   */\n      iszero\n      tag_405\n      jumpi\n        /* \"#utility.yul\":14934:14952   */\n      tag_406\n      tag_252\n      jump\t// in\n    tag_406:\n        /* \"#utility.yul\":14918:14954   */\n    tag_405:\n        /* \"#utility.yul\":14770:14961   */\n      swap3\n      swap2\n      pop\n      pop\n      jump\t// out\n        /* \"#utility.yul\":14967:15136   */\n    tag_253:\n        /* \"#utility.yul\":15107:15128   */\n      0x45544820616d6f756e74206d69736d6174636800000000000000000000000000\n        /* \"#utility.yul\":15103:15104   */\n      0x00\n        /* \"#utility.yul\":15095:15101   */\n      dup3\n        /* \"#utility.yul\":15091:15105   */\n      add\n        /* \"#utility.yul\":15084:15129   */\n      mstore\n        /* \"#utility.yul\":14967:15136   */\n      pop\n      jump\t// out\n        /* \"#utility.yul\":15142:15508   */\n    tag_254:\n        /* \"#utility.yul\":15284:15287   */\n      0x00\n        /* \"#utility.yul\":15305:15372   */\n      tag_409\n        /* \"#utility.yul\":15369:15371   */\n      0x13\n        /* \"#utility.yul\":15364:15367   */\n      dup4\n        /* \"#utility.yul\":15305:15372   */\n      tag_241\n      jump\t// in\n    tag_409:\n        /* \"#utility.yul\":15298:15372   */\n      swap2\n      pop\n        /* \"#utility.yul\":15381:15474   */\n      tag_410\n        /* \"#utility.yul\":15470:15473   */\n      dup3\n        /* \"#utility.yul\":15381:15474   */\n      tag_253\n      jump\t// in\n    tag_410:\n        /* \"#utility.yul\":15499:15501   */\n      0x20\n        /* \"#utility.yul\":15494:15497   */\n      dup3\n        /* \"#utility.yul\":15490:15502   */\n      add\n        /* \"#utility.yul\":15483:15502   */\n      swap1\n      pop\n        /* \"#utility.yul\":15142:15508   */\n      swap2\n      swap1\n      pop\n      jump\t// out\n        /* \"#utility.yul\":15514:15933   */\n    tag_119:\n        /* \"#utility.yul\":15680:15684   */\n      0x00\n        /* \"#utility.yul\":15718:15720   */\n      0x20\n        /* \"#utility.yul\":15707:15716   */\n      dup3\n        /* \"#utility.yul\":15703:15721   */\n      add\n        /* \"#utility.yul\":15695:15721   */\n      swap1\n      pop\n        /* \"#utility.yul\":15767:15776   */\n      dup2\n        /* \"#utility.yul\":15761:15765   */\n      dup2\n        /* \"#utility.yul\":15757:15777   */\n      sub\n        /* \"#utility.yul\":15753:15754   */\n      0x00\n        /* \"#utility.yul\":15742:15751   */\n      dup4\n        /* \"#utility.yul\":15738:15755   */\n      add\n        /* \"#utility.yul\":15731:15778   */\n      mstore\n        /* \"#utility.yul\":15795:15926   */\n      tag_412\n        /* \"#utility.yul\":15921:15925   */\n      dup2\n        /* \"#utility.yul\":15795:15926   */\n      tag_254\n      jump\t// in\n    tag_412:\n        /* \"#utility.yul\":15787:15926   */\n      swap1\n      pop\n        /* \"#utility.yul\":15514:15933   */\n      swap2\n      swap1\n      pop\n      jump\t// out\n        /* \"#utility.yul\":15939:16102   */\n    tag_255:\n        /* \"#utility.yul\":16079:16094   */\n      0x496e76616c696420746f6b656e00000000000000000000000000000000000000\n        /* \"#utility.yul\":16075:16076   */\n      0x00\n        /* \"#utility.yul\":16067:16073   */\n      dup3\n        /* \"#utility.yul\":16063:16077   */\n      add\n        /* \"#utility.yul\":16056:16095   */\n      mstore\n        /* \"#utility.yul\":15939:16102   */\n      pop\n      jump\t// out\n        /* \"#utility.yul\":16108:16474   */\n    tag_256:\n        /* \"#utility.yul\":16250:16253   */\n      0x00\n        /* \"#utility.yul\":16271:16338   */\n      tag_415\n        /* \"#utility.yul\":16335:16337   */\n      0x0d\n        /* \"#utility.yul\":16330:16333   */\n      dup4\n        /* \"#utility.yul\":16271:16338   */\n      tag_241\n      jump\t// in\n    tag_415:\n        /* \"#utility.yul\":16264:16338   */\n      swap2\n      pop\n        /* \"#utility.yul\":16347:16440   */\n      tag_416\n        /* \"#utility.yul\":16436:16439   */\n      dup3\n        /* \"#utility.yul\":16347:16440   */\n      tag_255\n      jump\t// in\n    tag_416:\n        /* \"#utility.yul\":16465:16467   */\n      0x20\n        /* \"#utility.yul\":16460:16463   */\n      dup3\n        /* \"#utility.yul\":16456:16468   */\n      add\n        /* \"#utility.yul\":16449:16468   */\n      swap1\n      pop\n        /* \"#utility.yul\":16108:16474   */\n      swap2\n      swap1\n      pop\n      jump\t// out\n        /* \"#utility.yul\":16480:16899   */\n    tag_126:\n        /* \"#utility.yul\":16646:16650   */\n      0x00\n        /* \"#utility.yul\":16684:16686   */\n      0x20\n        /* \"#utility.yul\":16673:16682   */\n      dup3\n        /* \"#utility.yul\":16669:16687   */\n      add\n        /* \"#utility.yul\":16661:16687   */\n      swap1\n      pop\n        /* \"#utility.yul\":16733:16742   */\n      dup2\n        /* \"#utility.yul\":16727:16731   */\n      dup2\n        /* \"#utility.yul\":16723:16743   */\n      sub\n        /* \"#utility.yul\":16719:16720   */\n      0x00\n        /* \"#utility.yul\":16708:16717   */\n      dup4\n        /* \"#utility.yul\":16704:16721   */\n      add\n        /* \"#utility.yul\":16697:16744   */\n      mstore\n        /* \"#utility.yul\":16761:16892   */\n      tag_418\n        /* \"#utility.yul\":16887:16891   */\n      dup2\n        /* \"#utility.yul\":16761:16892   */\n      tag_256\n      jump\t// in\n    tag_418:\n        /* \"#utility.yul\":16753:16892   */\n      swap1\n      pop\n        /* \"#utility.yul\":16480:16899   */\n      swap2\n      swap1\n      pop\n      jump\t// out\n        /* \"#utility.yul\":16905:17070   */\n    tag_257:\n        /* \"#utility.yul\":17045:17062   */\n      0x5472616e73666572206661696c65640000000000000000000000000000000000\n        /* \"#utility.yul\":17041:17042   */\n      0x00\n        /* \"#utility.yul\":17033:17039   */\n      dup3\n        /* \"#utility.yul\":17029:17043   */\n      add\n        /* \"#utility.yul\":17022:17063   */\n      mstore\n        /* \"#utility.yul\":16905:17070   */\n      pop\n      jump\t// out\n        /* \"#utility.yul\":17076:17442   */\n    tag_258:\n        /* \"#utility.yul\":17218:17221   */\n      0x00\n        /* \"#utility.yul\":17239:17306   */\n      tag_421\n        /* \"#utility.yul\":17303:17305   */\n      0x0f\n        /* \"#utility.yul\":17298:17301   */\n      dup4\n        /* \"#utility.yul\":17239:17306   */\n      tag_241\n      jump\t// in\n    tag_421:\n        /* \"#utility.yul\":17232:17306   */\n      swap2\n      pop\n        /* \"#utility.yul\":17315:17408   */\n      tag_422\n        /* \"#utility.yul\":17404:17407   */\n      dup3\n        /* \"#utility.yul\":17315:17408   */\n      tag_257\n      jump\t// in\n    tag_422:\n        /* \"#utility.yul\":17433:17435   */\n      0x20\n        /* \"#utility.yul\":17428:17431   */\n      dup3\n        /* \"#utility.yul\":17424:17436   */\n      add\n        /* \"#utility.yul\":17417:17436   */\n      swap1\n      pop\n        /* \"#utility.yul\":17076:17442   */\n      swap2\n      swap1\n      pop\n      jump\t// out\n        /* \"#utility.yul\":17448:17867   */\n    tag_133:\n        /* \"#utility.yul\":17614:17618   */\n      0x00\n        /* \"#utility.yul\":17652:17654   */\n      0x20\n        /* \"#utility.yul\":17641:17650   */\n      dup3\n        /* \"#utility.yul\":17637:17655   */\n      add\n        /* \"#utility.yul\":17629:17655   */\n      swap1\n      pop\n        /* \"#utility.yul\":17701:17710   */\n      dup2\n        /* \"#utility.yul\":17695:17699   */\n      dup2\n        /* \"#utility.yul\":17691:17711   */\n      sub\n        /* \"#utility.yul\":17687:17688   */\n      0x00\n        /* \"#utility.yul\":17676:17685   */\n      dup4\n        /* \"#utility.yul\":17672:17689   */\n      add\n        /* \"#utility.yul\":17665:17712   */\n      mstore\n        /* \"#utility.yul\":17729:17860   */\n      tag_424\n        /* \"#utility.yul\":17855:17859   */\n      dup2\n        /* \"#utility.yul\":17729:17860   */\n      tag_258\n      jump\t// in\n    tag_424:\n        /* \"#utility.yul\":17721:17860   */\n      swap1\n      pop\n        /* \"#utility.yul\":17448:17867   */\n      swap2\n      swap1\n      pop\n      jump\t// out\n        /* \"#utility.yul\":17873:18041   */\n    tag_259:\n        /* \"#utility.yul\":18013:18033   */\n      0x496e76616c6964206c6f616e20746f6b656e0000000000000000000000000000\n        /* \"#utility.yul\":18009:18010   */\n      0x00\n        /* \"#utility.yul\":18001:18007   */\n      dup3\n        /* \"#utility.yul\":17997:18011   */\n      add\n        /* \"#utility.yul\":17990:18034   */\n      mstore\n        /* \"#utility.yul\":17873:18041   */\n      pop\n      jump\t// out\n        /* \"#utility.yul\":18047:18413   */\n    tag_260:\n        /* \"#utility.yul\":18189:18192   */\n      0x00\n        /* \"#utility.yul\":18210:18277   */\n      tag_427\n        /* \"#utility.yul\":18274:18276   */\n      0x12\n        /* \"#utility.yul\":18269:18272   */\n      dup4\n        /* \"#utility.yul\":18210:18277   */\n      tag_241\n      jump\t// in\n    tag_427:\n        /* \"#utility.yul\":18203:18277   */\n      swap2\n      pop\n        /* \"#utility.yul\":18286:18379   */\n      tag_428\n        /* \"#utility.yul\":18375:18378   */\n      dup3\n        /* \"#utility.yul\":18286:18379   */\n      tag_259\n      jump\t// in\n    tag_428:\n        /* \"#utility.yul\":18404:18406   */\n      0x20\n        /* \"#utility.yul\":18399:18402   */\n      dup3\n        /* \"#utility.yul\":18395:18407   */\n      add\n        /* \"#utility.yul\":18388:18407   */\n      swap1\n      pop\n        /* \"#utility.yul\":18047:18413   */\n      swap2\n      swap1\n      pop\n      jump\t// out\n        /* \"#utility.yul\":18419:18838   */\n    tag_155:\n        /* \"#utility.yul\":18585:18589   */\n      0x00\n        /* \"#utility.yul\":18623:18625   */\n      0x20\n        /* \"#utility.yul\":18612:18621   */\n      dup3\n        /* \"#utility.yul\":18608:18626   */\n      add\n        /* \"#utility.yul\":18600:18626   */\n      swap1\n      pop\n        /* \"#utility.yul\":18672:18681   */\n      dup2\n        /* \"#utility.yul\":18666:18670   */\n      dup2\n        /* \"#utility.yul\":18662:18682   */\n      sub\n        /* \"#utility.yul\":18658:18659   */\n      0x00\n        /* \"#utility.yul\":18647:18656   */\n      dup4\n        /* \"#utility.yul\":18643:18660   */\n      add\n        /* \"#utility.yul\":18636:18683   */\n      mstore\n        /* \"#utility.yul\":18700:18831   */\n      tag_430\n        /* \"#utility.yul\":18826:18830   */\n      dup2\n        /* \"#utility.yul\":18700:18831   */\n      tag_260\n      jump\t// in\n    tag_430:\n        /* \"#utility.yul\":18692:18831   */\n      swap1\n      pop\n        /* \"#utility.yul\":18419:18838   */\n      swap2\n      swap1\n      pop\n      jump\t// out\n        /* \"#utility.yul\":18844:19018   */\n    tag_261:\n        /* \"#utility.yul\":18984:19010   */\n      0x496e76616c696420636f6c6c61746572616c20746f6b656e0000000000000000\n        /* \"#utility.yul\":18980:18981   */\n      0x00\n        /* \"#utility.yul\":18972:18978   */\n      dup3\n        /* \"#utility.yul\":18968:18982   */\n      add\n        /* \"#utility.yul\":18961:19011   */\n      mstore\n        /* \"#utility.yul\":18844:19018   */\n      pop\n      jump\t// out\n        /* \"#utility.yul\":19024:19390   */\n    tag_262:\n        /* \"#utility.yul\":19166:19169   */\n      0x00\n        /* \"#utility.yul\":19187:19254   */\n      tag_433\n        /* \"#utility.yul\":19251:19253   */\n      0x18\n        /* \"#utility.yul\":19246:19249   */\n      dup4\n        /* \"#utility.yul\":19187:19254   */\n      tag_241\n      jump\t// in\n    tag_433:\n        /* \"#utility.yul\":19180:19254   */\n      swap2\n      pop\n        /* \"#utility.yul\":19263:19356   */\n      tag_434\n        /* \"#utility.yul\":19352:19355   */\n      dup3\n        /* \"#utility.yul\":19263:19356   */\n      tag_261\n      jump\t// in\n    tag_434:\n        /* \"#utility.yul\":19381:19383   */\n      0x20\n        /* \"#utility.yul\":19376:19379   */\n      dup3\n        /* \"#utility.yul\":19372:19384   */\n      add\n        /* \"#utility.yul\":19365:19384   */\n      swap1\n      pop\n        /* \"#utility.yul\":19024:19390   */\n      swap2\n      swap1\n      pop\n      jump\t// out\n        /* \"#utility.yul\":19396:19815   */\n    tag_161:\n        /* \"#utility.yul\":19562:19566   */\n      0x00\n        /* \"#utility.yul\":19600:19602   */\n      0x20\n        /* \"#utility.yul\":19589:19598   */\n      dup3\n        /* \"#utility.yul\":19585:19603   */\n      add\n        /* \"#utility.yul\":19577:19603   */\n      swap1\n      pop\n        /* \"#utility.yul\":19649:19658   */\n      dup2\n        /* \"#utility.yul\":19643:19647   */\n      dup2\n        /* \"#utility.yul\":19639:19659   */\n      sub\n        /* \"#utility.yul\":19635:19636   */\n      0x00\n        /* \"#utility.yul\":19624:19633   */\n      dup4\n        /* \"#utility.yul\":19620:19637   */\n      add\n        /* \"#utility.yul\":19613:19660   */\n      mstore\n        /* \"#utility.yul\":19677:19808   */\n      tag_436\n        /* \"#utility.yul\":19803:19807   */\n      dup2\n        /* \"#utility.yul\":19677:19808   */\n      tag_262\n      jump\t// in\n    tag_436:\n        /* \"#utility.yul\":19669:19808   */\n      swap1\n      pop\n        /* \"#utility.yul\":19396:19815   */\n      swap2\n      swap1\n      pop\n      jump\t// out\n        /* \"#utility.yul\":19821:20050   */\n    tag_263:\n        /* \"#utility.yul\":19961:19995   */\n      0x43616e6e6f7420626f72726f77207468652073616d6520746f6b656e20617320\n        /* \"#utility.yul\":19957:19958   */\n      0x00\n        /* \"#utility.yul\":19949:19955   */\n      dup3\n        /* \"#utility.yul\":19945:19959   */\n      add\n        /* \"#utility.yul\":19938:19996   */\n      mstore\n        /* \"#utility.yul\":20030:20042   */\n      0x636f6c6c61746572616c00000000000000000000000000000000000000000000\n        /* \"#utility.yul\":20025:20027   */\n      0x20\n        /* \"#utility.yul\":20017:20023   */\n      dup3\n        /* \"#utility.yul\":20013:20028   */\n      add\n        /* \"#utility.yul\":20006:20043   */\n      mstore\n        /* \"#utility.yul\":19821:20050   */\n      pop\n      jump\t// out\n        /* \"#utility.yul\":20056:20422   */\n    tag_264:\n        /* \"#utility.yul\":20198:20201   */\n      0x00\n        /* \"#utility.yul\":20219:20286   */\n      tag_439\n        /* \"#utility.yul\":20283:20285   */\n      0x2a\n        /* \"#utility.yul\":20278:20281   */\n      dup4\n        /* \"#utility.yul\":20219:20286   */\n      tag_241\n      jump\t// in\n    tag_439:\n        /* \"#utility.yul\":20212:20286   */\n      swap2\n      pop\n        /* \"#utility.yul\":20295:20388   */\n      tag_440\n        /* \"#utility.yul\":20384:20387   */\n      dup3\n        /* \"#utility.yul\":20295:20388   */\n      tag_263\n      jump\t// in\n    tag_440:\n        /* \"#utility.yul\":20413:20415   */\n      0x40\n        /* \"#utility.yul\":20408:20411   */\n      dup3\n        /* \"#utility.yul\":20404:20416   */\n      add\n        /* \"#utility.yul\":20397:20416   */\n      swap1\n      pop\n        /* \"#utility.yul\":20056:20422   */\n      swap2\n      swap1\n      pop\n      jump\t// out\n        /* \"#utility.yul\":20428:20847   */\n    tag_164:\n        /* \"#utility.yul\":20594:20598   */\n      0x00\n        /* \"#utility.yul\":20632:20634   */\n      0x20\n        /* \"#utility.yul\":20621:20630   */\n      dup3\n        /* \"#utility.yul\":20617:20635   */\n      add\n        /* \"#utility.yul\":20609:20635   */\n      swap1\n      pop\n        /* \"#utility.yul\":20681:20690   */\n      dup2\n        /* \"#utility.yul\":20675:20679   */\n      dup2\n        /* \"#utility.yul\":20671:20691   */\n      sub\n        /* \"#utility.yul\":20667:20668   */\n      0x00\n        /* \"#utility.yul\":20656:20665   */\n      dup4\n        /* \"#utility.yul\":20652:20669   */\n      add\n        /* \"#utility.yul\":20645:20692   */\n      mstore\n        /* \"#utility.yul\":20709:20840   */\n      tag_442\n        /* \"#utility.yul\":20835:20839   */\n      dup2\n        /* \"#utility.yul\":20709:20840   */\n      tag_264\n      jump\t// in\n    tag_442:\n        /* \"#utility.yul\":20701:20840   */\n      swap1\n      pop\n        /* \"#utility.yul\":20428:20847   */\n      swap2\n      swap1\n      pop\n      jump\t// out\n        /* \"#utility.yul\":20853:21026   */\n    tag_265:\n        /* \"#utility.yul\":20993:21018   */\n      0x496e73756666696369656e7420636f6c6c61746572616c000000000000000000\n        /* \"#utility.yul\":20989:20990   */\n      0x00\n        /* \"#utility.yul\":20981:20987   */\n      dup3\n        /* \"#utility.yul\":20977:20991   */\n      add\n        /* \"#utility.yul\":20970:21019   */\n      mstore\n        /* \"#utility.yul\":20853:21026   */\n      pop\n      jump\t// out\n        /* \"#utility.yul\":21032:21398   */\n    tag_266:\n        /* \"#utility.yul\":21174:21177   */\n      0x00\n        /* \"#utility.yul\":21195:21262   */\n      tag_445\n        /* \"#utility.yul\":21259:21261   */\n      0x17\n        /* \"#utility.yul\":21254:21257   */\n      dup4\n        /* \"#utility.yul\":21195:21262   */\n      tag_241\n      jump\t// in\n    tag_445:\n        /* \"#utility.yul\":21188:21262   */\n      swap2\n      pop\n        /* \"#utility.yul\":21271:21364   */\n      tag_446\n        /* \"#utility.yul\":21360:21363   */\n      dup3\n        /* \"#utility.yul\":21271:21364   */\n      tag_265\n      jump\t// in\n    tag_446:\n        /* \"#utility.yul\":21389:21391   */\n      0x20\n        /* \"#utility.yul\":21384:21387   */\n      dup3\n        /* \"#utility.yul\":21380:21392   */\n      add\n        /* \"#utility.yul\":21373:21392   */\n      swap1\n      pop\n        /* \"#utility.yul\":21032:21398   */\n      swap2\n      swap1\n      pop\n      jump\t// out\n        /* \"#utility.yul\":21404:21823   */\n    tag_167:\n        /* \"#utility.yul\":21570:21574   */\n      0x00\n        /* \"#utility.yul\":21608:21610   */\n      0x20\n        /* \"#utility.yul\":21597:21606   */\n      dup3\n        /* \"#utility.yul\":21593:21611   */\n      add\n        /* \"#utility.yul\":21585:21611   */\n      swap1\n      pop\n        /* \"#utility.yul\":21657:21666   */\n      dup2\n        /* \"#utility.yul\":21651:21655   */\n      dup2\n        /* \"#utility.yul\":21647:21667   */\n      sub\n        /* \"#utility.yul\":21643:21644   */\n      0x00\n        /* \"#utility.yul\":21632:21641   */\n      dup4\n        /* \"#utility.yul\":21628:21645   */\n      add\n        /* \"#utility.yul\":21621:21668   */\n      mstore\n        /* \"#utility.yul\":21685:21816   */\n      tag_448\n        /* \"#utility.yul\":21811:21815   */\n      dup2\n        /* \"#utility.yul\":21685:21816   */\n      tag_266\n      jump\t// in\n    tag_448:\n        /* \"#utility.yul\":21677:21816   */\n      swap1\n      pop\n        /* \"#utility.yul\":21404:21823   */\n      swap2\n      swap1\n      pop\n      jump\t// out\n        /* \"#utility.yul\":21829:22023   */\n    tag_169:\n        /* \"#utility.yul\":21869:21873   */\n      0x00\n        /* \"#utility.yul\":21889:21909   */\n      tag_450\n        /* \"#utility.yul\":21907:21908   */\n      dup3\n        /* \"#utility.yul\":21889:21909   */\n      tag_223\n      jump\t// in\n    tag_450:\n        /* \"#utility.yul\":21884:21909   */\n      swap2\n      pop\n        /* \"#utility.yul\":21923:21943   */\n      tag_451\n        /* \"#utility.yul\":21941:21942   */\n      dup4\n        /* \"#utility.yul\":21923:21943   */\n      tag_223\n      jump\t// in\n    tag_451:\n        /* \"#utility.yul\":21918:21943   */\n      swap3\n      pop\n        /* \"#utility.yul\":21967:21968   */\n      dup3\n        /* \"#utility.yul\":21964:21965   */\n      dup3\n        /* \"#utility.yul\":21960:21969   */\n      sub\n        /* \"#utility.yul\":21952:21969   */\n      swap1\n      pop\n        /* \"#utility.yul\":21991:21992   */\n      dup2\n        /* \"#utility.yul\":21985:21989   */\n      dup2\n        /* \"#utility.yul\":21982:21993   */\n      gt\n        /* \"#utility.yul\":21979:22016   */\n      iszero\n      tag_452\n      jumpi\n        /* \"#utility.yul\":21996:22014   */\n      tag_453\n      tag_252\n      jump\t// in\n    tag_453:\n        /* \"#utility.yul\":21979:22016   */\n    tag_452:\n        /* \"#utility.yul\":21829:22023   */\n      swap3\n      swap2\n      pop\n      pop\n      jump\t// out\n        /* \"#utility.yul\":22029:22361   */\n    tag_176:\n        /* \"#utility.yul\":22150:22154   */\n      0x00\n        /* \"#utility.yul\":22188:22190   */\n      0x40\n        /* \"#utility.yul\":22177:22186   */\n      dup3\n        /* \"#utility.yul\":22173:22191   */\n      add\n        /* \"#utility.yul\":22165:22191   */\n      swap1\n      pop\n        /* \"#utility.yul\":22201:22272   */\n      tag_455\n        /* \"#utility.yul\":22269:22270   */\n      0x00\n        /* \"#utility.yul\":22258:22267   */\n      dup4\n        /* \"#utility.yul\":22254:22271   */\n      add\n        /* \"#utility.yul\":22245:22251   */\n      dup6\n        /* \"#utility.yul\":22201:22272   */\n      tag_219\n      jump\t// in\n    tag_455:\n        /* \"#utility.yul\":22282:22354   */\n      tag_456\n        /* \"#utility.yul\":22350:22352   */\n      0x20\n        /* \"#utility.yul\":22339:22348   */\n      dup4\n        /* \"#utility.yul\":22335:22353   */\n      add\n        /* \"#utility.yul\":22326:22332   */\n      dup5\n        /* \"#utility.yul\":22282:22354   */\n      tag_228\n      jump\t// in\n    tag_456:\n        /* \"#utility.yul\":22029:22361   */\n      swap4\n      swap3\n      pop\n      pop\n      pop\n      jump\t// out\n        /* \"#utility.yul\":22367:22537   */\n    tag_267:\n        /* \"#utility.yul\":22507:22529   */\n      0x4c6f616e207472616e73666572206661696c6564000000000000000000000000\n        /* \"#utility.yul\":22503:22504   */\n      0x00\n        /* \"#utility.yul\":22495:22501   */\n      dup3\n        /* \"#utility.yul\":22491:22505   */\n      add\n        /* \"#utility.yul\":22484:22530   */\n      mstore\n        /* \"#utility.yul\":22367:22537   */\n      pop\n      jump\t// out\n        /* \"#utility.yul\":22543:22909   */\n    tag_268:\n        /* \"#utility.yul\":22685:22688   */\n      0x00\n        /* \"#utility.yul\":22706:22773   */\n      tag_459\n        /* \"#utility.yul\":22770:22772   */\n      0x14\n        /* \"#utility.yul\":22765:22768   */\n      dup4\n        /* \"#utility.yul\":22706:22773   */\n      tag_241\n      jump\t// in\n    tag_459:\n        /* \"#utility.yul\":22699:22773   */\n      swap2\n      pop\n        /* \"#utility.yul\":22782:22875   */\n      tag_460\n        /* \"#utility.yul\":22871:22874   */\n      dup3\n        /* \"#utility.yul\":22782:22875   */\n      tag_267\n      jump\t// in\n    tag_460:\n        /* \"#utility.yul\":22900:22902   */\n      0x20\n        /* \"#utility.yul\":22895:22898   */\n      dup3\n        /* \"#utility.yul\":22891:22903   */\n      add\n        /* \"#utility.yul\":22884:22903   */\n      swap1\n      pop\n        /* \"#utility.yul\":22543:22909   */\n      swap2\n      swap1\n      pop\n      jump\t// out\n        /* \"#utility.yul\":22915:23334   */\n    tag_182:\n        /* \"#utility.yul\":23081:23085   */\n      0x00\n        /* \"#utility.yul\":23119:23121   */\n      0x20\n        /* \"#utility.yul\":23108:23117   */\n      dup3\n        /* \"#utility.yul\":23104:23122   */\n      add\n        /* \"#utility.yul\":23096:23122   */\n      swap1\n      pop\n        /* \"#utility.yul\":23168:23177   */\n      dup2\n        /* \"#utility.yul\":23162:23166   */\n      dup2\n        /* \"#utility.yul\":23158:23178   */\n      sub\n        /* \"#utility.yul\":23154:23155   */\n      0x00\n        /* \"#utility.yul\":23143:23152   */\n      dup4\n        /* \"#utility.yul\":23139:23156   */\n      add\n        /* \"#utility.yul\":23132:23179   */\n      mstore\n        /* \"#utility.yul\":23196:23327   */\n      tag_462\n        /* \"#utility.yul\":23322:23326   */\n      dup2\n        /* \"#utility.yul\":23196:23327   */\n      tag_268\n      jump\t// in\n    tag_462:\n        /* \"#utility.yul\":23188:23327   */\n      swap1\n      pop\n        /* \"#utility.yul\":22915:23334   */\n      swap2\n      swap1\n      pop\n      jump\t// out\n        /* \"#utility.yul\":23340:23672   */\n    tag_184:\n        /* \"#utility.yul\":23461:23465   */\n      0x00\n        /* \"#utility.yul\":23499:23501   */\n      0x40\n        /* \"#utility.yul\":23488:23497   */\n      dup3\n        /* \"#utility.yul\":23484:23502   */\n      add\n        /* \"#utility.yul\":23476:23502   */\n      swap1\n      pop\n        /* \"#utility.yul\":23512:23583   */\n      tag_464\n        /* \"#utility.yul\":23580:23581   */\n      0x00\n        /* \"#utility.yul\":23569:23578   */\n      dup4\n        /* \"#utility.yul\":23565:23582   */\n      add\n        /* \"#utility.yul\":23556:23562   */\n      dup6\n        /* \"#utility.yul\":23512:23583   */\n      tag_228\n      jump\t// in\n    tag_464:\n        /* \"#utility.yul\":23593:23665   */\n      tag_465\n        /* \"#utility.yul\":23661:23663   */\n      0x20\n        /* \"#utility.yul\":23650:23659   */\n      dup4\n        /* \"#utility.yul\":23646:23664   */\n      add\n        /* \"#utility.yul\":23637:23643   */\n      dup5\n        /* \"#utility.yul\":23593:23665   */\n      tag_228\n      jump\t// in\n    tag_465:\n        /* \"#utility.yul\":23340:23672   */\n      swap4\n      swap3\n      pop\n      pop\n      pop\n      jump\t// out\n        /* \"#utility.yul\":23678:23848   */\n    tag_269:\n        /* \"#utility.yul\":23818:23840   */\n      0x496e73756666696369656e742062616c616e6365000000000000000000000000\n        /* \"#utility.yul\":23814:23815   */\n      0x00\n        /* \"#utility.yul\":23806:23812   */\n      dup3\n        /* \"#utility.yul\":23802:23816   */\n      add\n        /* \"#utility.yul\":23795:23841   */\n      mstore\n        /* \"#utility.yul\":23678:23848   */\n      pop\n      jump\t// out\n        /* \"#utility.yul\":23854:24220   */\n    tag_270:\n        /* \"#utility.yul\":23996:23999   */\n      0x00\n        /* \"#utility.yul\":24017:24084   */\n      tag_468\n        /* \"#utility.yul\":24081:24083   */\n      0x14\n        /* \"#utility.yul\":24076:24079   */\n      dup4\n        /* \"#utility.yul\":24017:24084   */\n      tag_241\n      jump\t// in\n    tag_468:\n        /* \"#utility.yul\":24010:24084   */\n      swap2\n      pop\n        /* \"#utility.yul\":24093:24186   */\n      tag_469\n        /* \"#utility.yul\":24182:24185   */\n      dup3\n        /* \"#utility.yul\":24093:24186   */\n      tag_269\n      jump\t// in\n    tag_469:\n        /* \"#utility.yul\":24211:24213   */\n      0x20\n        /* \"#utility.yul\":24206:24209   */\n      dup3\n        /* \"#utility.yul\":24202:24214   */\n      add\n        /* \"#utility.yul\":24195:24214   */\n      swap1\n      pop\n        /* \"#utility.yul\":23854:24220   */\n      swap2\n      swap1\n      pop\n      jump\t// out\n        /* \"#utility.yul\":24226:24645   */\n    tag_195:\n        /* \"#utility.yul\":24392:24396   */\n      0x00\n        /* \"#utility.yul\":24430:24432   */\n      0x20\n        /* \"#utility.yul\":24419:24428   */\n      dup3\n        /* \"#utility.yul\":24415:24433   */\n      add\n        /* \"#utility.yul\":24407:24433   */\n      swap1\n      pop\n        /* \"#utility.yul\":24479:24488   */\n      dup2\n        /* \"#utility.yul\":24473:24477   */\n      dup2\n        /* \"#utility.yul\":24469:24489   */\n      sub\n        /* \"#utility.yul\":24465:24466   */\n      0x00\n        /* \"#utility.yul\":24454:24463   */\n      dup4\n        /* \"#utility.yul\":24450:24467   */\n      add\n        /* \"#utility.yul\":24443:24490   */\n      mstore\n        /* \"#utility.yul\":24507:24638   */\n      tag_471\n        /* \"#utility.yul\":24633:24637   */\n      dup2\n        /* \"#utility.yul\":24507:24638   */\n      tag_270\n      jump\t// in\n    tag_471:\n        /* \"#utility.yul\":24499:24638   */\n      swap1\n      pop\n        /* \"#utility.yul\":24226:24645   */\n      swap2\n      swap1\n      pop\n      jump\t// out\n\n    auxdata: 0xa26469706673582212202a458b502d0ae29727e8d22a6d7970e4e08e0b3e7c2e2d94068dad769018a41264736f6c63430008140033\n}\n",
				"bytecode": {
					"linkReferences": {},
					"object": "60e060405234801562000010575f80fd5b5060405162002a7638038062002a76833981810160405281019062000036919062000287565b335f73ffffffffffffffffffffffffffffffffffffffff168173ffffffffffffffffffffffffffffffffffffffff1603620000aa575f6040517f1e4fbdf7000000000000000000000000000000000000000000000000000000008152600401620000a19190620002f1565b60405180910390fd5b620000bb816200016160201b60201c565b508273ffffffffffffffffffffffffffffffffffffffff1660808173ffffffffffffffffffffffffffffffffffffffff16815250508173ffffffffffffffffffffffffffffffffffffffff1660a08173ffffffffffffffffffffffffffffffffffffffff16815250508073ffffffffffffffffffffffffffffffffffffffff1660c08173ffffffffffffffffffffffffffffffffffffffff16815250505050506200030c565b5f805f9054906101000a900473ffffffffffffffffffffffffffffffffffffffff169050815f806101000a81548173ffffffffffffffffffffffffffffffffffffffff021916908373ffffffffffffffffffffffffffffffffffffffff1602179055508173ffffffffffffffffffffffffffffffffffffffff168173ffffffffffffffffffffffffffffffffffffffff167f8be0079c531659141344cd1fd0a4f28419497f9722a3daafe3b4186f6b6457e060405160405180910390a35050565b5f80fd5b5f73ffffffffffffffffffffffffffffffffffffffff82169050919050565b5f620002518262000226565b9050919050565b620002638162000245565b81146200026e575f80fd5b50565b5f81519050620002818162000258565b92915050565b5f805f60608486031215620002a157620002a062000222565b5b5f620002b08682870162000271565b9350506020620002c38682870162000271565b9250506040620002d68682870162000271565b9150509250925092565b620002eb8162000245565b82525050565b5f602082019050620003065f830184620002e0565b92915050565b60805160a05160c051612700620003765f395f81816108ec01528181610e2b01528181610f3001526110a001525f818161089601528181610b2f01528181610eda015261104a01525f818161033e0152818161084101528181610e840152610ff401526127005ff3fe6080604052600436106100e0575f3560e01c806398c61c371161007e578063d028053911610058578063d028053914610288578063e1254fba146102b0578063f2fde38b146102ec578063f3fef3a314610314576100e7565b806398c61c37146101f3578063aa4a871114610234578063c483a3081461025e576100e7565b80635f64b55b116100ba5780635f64b55b1461014d578063715018a6146101775780638da5cb5b1461018d5780638f601f66146101b7576100e7565b80630fc63d10146100eb578063371fd8e61461011557806347e7ef2414610131576100e7565b366100e757005b5f80fd5b3480156100f6575f80fd5b506100ff61033c565b60405161010c9190611bf5565b60405180910390f35b61012f600480360381019061012a9190611c45565b610360565b005b61014b60048036038101906101469190611c9a565b610737565b005b348015610158575f80fd5b50610161610b2d565b60405161016e9190611bf5565b60405180910390f35b348015610182575f80fd5b5061018b610b51565b005b348015610198575f80fd5b506101a1610b64565b6040516101ae9190611bf5565b60405180910390f35b3480156101c2575f80fd5b506101dd60048036038101906101d89190611cd8565b610b8b565b6040516101ea9190611d25565b60405180910390f35b3480156101fe575f80fd5b5061021960048036038101906102149190611c9a565b610bab565b60405161022b96959493929190611d58565b60405180910390f35b34801561023f575f80fd5b50610248610c66565b6040516102559190611f05565b60405180910390f35b348015610269575f80fd5b50610272610e29565b60405161027f9190611bf5565b60405180910390f35b348015610293575f80fd5b506102ae60048036038101906102a99190611f25565b610e4d565b005b3480156102bb575f80fd5b506102d660048036038101906102d19190611f89565b611679565b6040516102e39190611d25565b60405180910390f35b3480156102f7575f80fd5b50610312600480360381019061030d9190611f89565b6116fa565b005b34801561031f575f80fd5b5061033a60048036038101906103359190611c9a565b61177e565b005b7f000000000000000000000000000000000000000000000000000000000000000081565b60025f3373ffffffffffffffffffffffffffffffffffffffff1673ffffffffffffffffffffffffffffffffffffffff1681526020019081526020015f208054905081106103e2576040517f08c379a00000000000000000000000000000000000000000000000000000000081526004016103d99061200e565b60405180910390fd5b5f60025f3373ffffffffffffffffffffffffffffffffffffffff1673ffffffffffffffffffffffffffffffffffffffff1681526020019081526020015f2082815481106104325761043161202c565b5b905f5260205f2090600602019050806005015f9054906101000a900460ff16610490576040517f08c379a0000000000000000000000000000000000000000000000000000000008152600401610487906120a3565b60405180910390fd5b5f73ffffffffffffffffffffffffffffffffffffffff16816001015f9054906101000a900473ffffffffffffffffffffffffffffffffffffffff1673ffffffffffffffffffffffffffffffffffffffff1603610531578060020154341461052c576040517f08c379a00000000000000000000000000000000000000000000000000000000081526004016105239061210b565b60405180910390fd5b610615565b806001015f9054906101000a900473ffffffffffffffffffffffffffffffffffffffff1673ffffffffffffffffffffffffffffffffffffffff166323b872dd333084600201546040518463ffffffff1660e01b815260040161059593929190612129565b6020604051808303815f875af11580156105b1573d5f803e3d5ffd5b505050506040513d601f19601f820116820180604052508101906105d59190612188565b610614576040517f08c379a000000000000000000000000000000000000000000000000000000000815260040161060b906121fd565b60405180910390fd5b5b806004015460015f3373ffffffffffffffffffffffffffffffffffffffff1673ffffffffffffffffffffffffffffffffffffffff1681526020019081526020015f205f836003015f9054906101000a900473ffffffffffffffffffffffffffffffffffffffff1673ffffffffffffffffffffffffffffffffffffffff1673ffffffffffffffffffffffffffffffffffffffff1681526020019081526020015f205f8282546106c39190612248565b925050819055505f816005015f6101000a81548160ff0219169083151502179055503373ffffffffffffffffffffffffffffffffffffffff167f0516911bcc3a0a7412a44601057c0a0a1ec628bde049a84284bc4288665344888360405161072b9190611d25565b60405180910390a25050565b5f73ffffffffffffffffffffffffffffffffffffffff168273ffffffffffffffffffffffffffffffffffffffff160361083f578034146107ac576040517f08c379a00000000000000000000000000000000000000000000000000000000081526004016107a3906122c5565b60405180910390fd5b8060015f3373ffffffffffffffffffffffffffffffffffffffff1673ffffffffffffffffffffffffffffffffffffffff1681526020019081526020015f205f8073ffffffffffffffffffffffffffffffffffffffff1673ffffffffffffffffffffffffffffffffffffffff1681526020019081526020015f205f8282546108339190612248565b92505081905550610ac4565b7f000000000000000000000000000000000000000000000000000000000000000073ffffffffffffffffffffffffffffffffffffffff168273ffffffffffffffffffffffffffffffffffffffff1614806108e457507f000000000000000000000000000000000000000000000000000000000000000073ffffffffffffffffffffffffffffffffffffffff168273ffffffffffffffffffffffffffffffffffffffff16145b8061093a57507f000000000000000000000000000000000000000000000000000000000000000073ffffffffffffffffffffffffffffffffffffffff168273ffffffffffffffffffffffffffffffffffffffff16145b610979576040517f08c379a00000000000000000000000000000000000000000000000000000000081526004016109709061232d565b60405180910390fd5b8173ffffffffffffffffffffffffffffffffffffffff166323b872dd3330846040518463ffffffff1660e01b81526004016109b693929190612129565b6020604051808303815f875af11580156109d2573d5f803e3d5ffd5b505050506040513d601f19601f820116820180604052508101906109f69190612188565b610a35576040517f08c379a0000000000000000000000000000000000000000000000000000000008152600401610a2c90612395565b60405180910390fd5b8060015f3373ffffffffffffffffffffffffffffffffffffffff1673ffffffffffffffffffffffffffffffffffffffff1681526020019081526020015f205f8473ffffffffffffffffffffffffffffffffffffffff1673ffffffffffffffffffffffffffffffffffffffff1681526020019081526020015f205f828254610abc9190612248565b925050819055505b8173ffffffffffffffffffffffffffffffffffffffff163373ffffffffffffffffffffffffffffffffffffffff167f8752a472e571a816aea92eec8dae9baf628e840f4929fbcc2d155e6233ff68a783604051610b219190611d25565b60405180910390a35050565b7f000000000000000000000000000000000000000000000000000000000000000081565b610b59611a67565b610b625f611aee565b565b5f805f9054906101000a900473ffffffffffffffffffffffffffffffffffffffff16905090565b6001602052815f5260405f20602052805f5260405f205f91509150505481565b6002602052815f5260405f208181548110610bc4575f80fd5b905f5260205f2090600602015f9150915050805f015f9054906101000a900473ffffffffffffffffffffffffffffffffffffffff1690806001015f9054906101000a900473ffffffffffffffffffffffffffffffffffffffff1690806002015490806003015f9054906101000a900473ffffffffffffffffffffffffffffffffffffffff1690806004015490806005015f9054906101000a900460ff16905086565b606060025f3373ffffffffffffffffffffffffffffffffffffffff1673ffffffffffffffffffffffffffffffffffffffff1681526020019081526020015f20805480602002602001604051908101604052809291908181526020015f905b82821015610e20578382905f5260205f2090600602016040518060c00160405290815f82015f9054906101000a900473ffffffffffffffffffffffffffffffffffffffff1673ffffffffffffffffffffffffffffffffffffffff1673ffffffffffffffffffffffffffffffffffffffff168152602001600182015f9054906101000a900473ffffffffffffffffffffffffffffffffffffffff1673ffffffffffffffffffffffffffffffffffffffff1673ffffffffffffffffffffffffffffffffffffffff16815260200160028201548152602001600382015f9054906101000a900473ffffffffffffffffffffffffffffffffffffffff1673ffffffffffffffffffffffffffffffffffffffff1673ffffffffffffffffffffffffffffffffffffffff16815260200160048201548152602001600582015f9054906101000a900460ff16151515158152505081526020019060010190610cc4565b50505050905090565b7f000000000000000000000000000000000000000000000000000000000000000081565b5f73ffffffffffffffffffffffffffffffffffffffff168473ffffffffffffffffffffffffffffffffffffffff161480610ed257507f000000000000000000000000000000000000000000000000000000000000000073ffffffffffffffffffffffffffffffffffffffff168473ffffffffffffffffffffffffffffffffffffffff16145b80610f2857507f000000000000000000000000000000000000000000000000000000000000000073ffffffffffffffffffffffffffffffffffffffff168473ffffffffffffffffffffffffffffffffffffffff16145b80610f7e57507f000000000000000000000000000000000000000000000000000000000000000073ffffffffffffffffffffffffffffffffffffffff168473ffffffffffffffffffffffffffffffffffffffff16145b610fbd576040517f08c379a0000000000000000000000000000000000000000000000000000000008152600401610fb4906123fd565b60405180910390fd5b5f73ffffffffffffffffffffffffffffffffffffffff168273ffffffffffffffffffffffffffffffffffffffff16148061104257507f000000000000000000000000000000000000000000000000000000000000000073ffffffffffffffffffffffffffffffffffffffff168273ffffffffffffffffffffffffffffffffffffffff16145b8061109857507f000000000000000000000000000000000000000000000000000000000000000073ffffffffffffffffffffffffffffffffffffffff168273ffffffffffffffffffffffffffffffffffffffff16145b806110ee57507f000000000000000000000000000000000000000000000000000000000000000073ffffffffffffffffffffffffffffffffffffffff168273ffffffffffffffffffffffffffffffffffffffff16145b61112d576040517f08c379a000000000000000000000000000000000000000000000000000000000815260040161112490612465565b60405180910390fd5b8173ffffffffffffffffffffffffffffffffffffffff168473ffffffffffffffffffffffffffffffffffffffff160361119b576040517f08c379a0000000000000000000000000000000000000000000000000000000008152600401611192906124f3565b60405180910390fd5b8060015f3373ffffffffffffffffffffffffffffffffffffffff1673ffffffffffffffffffffffffffffffffffffffff1681526020019081526020015f205f8473ffffffffffffffffffffffffffffffffffffffff1673ffffffffffffffffffffffffffffffffffffffff1681526020019081526020015f20541015611256576040517f08c379a000000000000000000000000000000000000000000000000000000000815260040161124d9061255b565b60405180910390fd5b8060015f3373ffffffffffffffffffffffffffffffffffffffff1673ffffffffffffffffffffffffffffffffffffffff1681526020019081526020015f205f8473ffffffffffffffffffffffffffffffffffffffff1673ffffffffffffffffffffffffffffffffffffffff1681526020019081526020015f205f8282546112dd9190612579565b9250508190555060025f3373ffffffffffffffffffffffffffffffffffffffff1673ffffffffffffffffffffffffffffffffffffffff1681526020019081526020015f206040518060c001604052803373ffffffffffffffffffffffffffffffffffffffff1681526020018673ffffffffffffffffffffffffffffffffffffffff1681526020018581526020018473ffffffffffffffffffffffffffffffffffffffff16815260200183815260200160011515815250908060018154018082558091505060019003905f5260205f2090600602015f909190919091505f820151815f015f6101000a81548173ffffffffffffffffffffffffffffffffffffffff021916908373ffffffffffffffffffffffffffffffffffffffff1602179055506020820151816001015f6101000a81548173ffffffffffffffffffffffffffffffffffffffff021916908373ffffffffffffffffffffffffffffffffffffffff160217905550604082015181600201556060820151816003015f6101000a81548173ffffffffffffffffffffffffffffffffffffffff021916908373ffffffffffffffffffffffffffffffffffffffff1602179055506080820151816004015560a0820151816005015f6101000a81548160ff02191690831515021790555050505f73ffffffffffffffffffffffffffffffffffffffff168473ffffffffffffffffffffffffffffffffffffffff160361153a573373ffffffffffffffffffffffffffffffffffffffff166108fc8490811502906040515f60405180830381858888f19350505050158015611534573d5f803e3d5ffd5b506115f5565b8373ffffffffffffffffffffffffffffffffffffffff1663a9059cbb33856040518363ffffffff1660e01b81526004016115759291906125ac565b6020604051808303815f875af1158015611591573d5f803e3d5ffd5b505050506040513d601f19601f820116820180604052508101906115b59190612188565b6115f4576040517f08c379a00000000000000000000000000000000000000000000000000000000081526004016115eb9061261d565b60405180910390fd5b5b8173ffffffffffffffffffffffffffffffffffffffff168473ffffffffffffffffffffffffffffffffffffffff163373ffffffffffffffffffffffffffffffffffffffff167f96bf4d524a427510fe8ab2fc75ba6f1a56af9e8b6c33cdcc4f05ecc04e2b25fa868560405161166b92919061263b565b60405180910390a450505050565b5f60015f3373ffffffffffffffffffffffffffffffffffffffff1673ffffffffffffffffffffffffffffffffffffffff1681526020019081526020015f205f8373ffffffffffffffffffffffffffffffffffffffff1673ffffffffffffffffffffffffffffffffffffffff1681526020019081526020015f20549050919050565b611702611a67565b5f73ffffffffffffffffffffffffffffffffffffffff168173ffffffffffffffffffffffffffffffffffffffff1603611772575f6040517f1e4fbdf70000000000000000000000000000000000000000000000000000000081526004016117699190611bf5565b60405180910390fd5b61177b81611aee565b50565b8060015f3373ffffffffffffffffffffffffffffffffffffffff1673ffffffffffffffffffffffffffffffffffffffff1681526020019081526020015f205f8473ffffffffffffffffffffffffffffffffffffffff1673ffffffffffffffffffffffffffffffffffffffff1681526020019081526020015f20541015611839576040517f08c379a0000000000000000000000000000000000000000000000000000000008152600401611830906126ac565b60405180910390fd5b8060015f3373ffffffffffffffffffffffffffffffffffffffff1673ffffffffffffffffffffffffffffffffffffffff1681526020019081526020015f205f8473ffffffffffffffffffffffffffffffffffffffff1673ffffffffffffffffffffffffffffffffffffffff1681526020019081526020015f205f8282546118c09190612579565b925050819055505f73ffffffffffffffffffffffffffffffffffffffff168273ffffffffffffffffffffffffffffffffffffffff1603611943573373ffffffffffffffffffffffffffffffffffffffff166108fc8290811502906040515f60405180830381858888f1935050505015801561193d573d5f803e3d5ffd5b506119fe565b8173ffffffffffffffffffffffffffffffffffffffff1663a9059cbb33836040518363ffffffff1660e01b815260040161197e9291906125ac565b6020604051808303815f875af115801561199a573d5f803e3d5ffd5b505050506040513d601f19601f820116820180604052508101906119be9190612188565b6119fd576040517f08c379a00000000000000000000000000000000000000000000000000000000081526004016119f490612395565b60405180910390fd5b5b8173ffffffffffffffffffffffffffffffffffffffff163373ffffffffffffffffffffffffffffffffffffffff167fd1c19fbcd4551a5edfb66d43d2e337c04837afda3482b42bdf569a8fccdae5fb83604051611a5b9190611d25565b60405180910390a35050565b611a6f611baf565b73ffffffffffffffffffffffffffffffffffffffff16611a8d610b64565b73ffffffffffffffffffffffffffffffffffffffff1614611aec57611ab0611baf565b6040517f118cdaa7000000000000000000000000000000000000000000000000000000008152600401611ae39190611bf5565b60405180910390fd5b565b5f805f9054906101000a900473ffffffffffffffffffffffffffffffffffffffff169050815f806101000a81548173ffffffffffffffffffffffffffffffffffffffff021916908373ffffffffffffffffffffffffffffffffffffffff1602179055508173ffffffffffffffffffffffffffffffffffffffff168173ffffffffffffffffffffffffffffffffffffffff167f8be0079c531659141344cd1fd0a4f28419497f9722a3daafe3b4186f6b6457e060405160405180910390a35050565b5f33905090565b5f73ffffffffffffffffffffffffffffffffffffffff82169050919050565b5f611bdf82611bb6565b9050919050565b611bef81611bd5565b82525050565b5f602082019050611c085f830184611be6565b92915050565b5f80fd5b5f819050919050565b611c2481611c12565b8114611c2e575f80fd5b50565b5f81359050611c3f81611c1b565b92915050565b5f60208284031215611c5a57611c59611c0e565b5b5f611c6784828501611c31565b91505092915050565b611c7981611bd5565b8114611c83575f80fd5b50565b5f81359050611c9481611c70565b92915050565b5f8060408385031215611cb057611caf611c0e565b5b5f611cbd85828601611c86565b9250506020611cce85828601611c31565b9150509250929050565b5f8060408385031215611cee57611ced611c0e565b5b5f611cfb85828601611c86565b9250506020611d0c85828601611c86565b9150509250929050565b611d1f81611c12565b82525050565b5f602082019050611d385f830184611d16565b92915050565b5f8115159050919050565b611d5281611d3e565b82525050565b5f60c082019050611d6b5f830189611be6565b611d786020830188611be6565b611d856040830187611d16565b611d926060830186611be6565b611d9f6080830185611d16565b611dac60a0830184611d49565b979650505050505050565b5f81519050919050565b5f82825260208201905092915050565b5f819050602082019050919050565b611de981611bd5565b82525050565b611df881611c12565b82525050565b611e0781611d3e565b82525050565b60c082015f820151611e215f850182611de0565b506020820151611e346020850182611de0565b506040820151611e476040850182611def565b506060820151611e5a6060850182611de0565b506080820151611e6d6080850182611def565b5060a0820151611e8060a0850182611dfe565b50505050565b5f611e918383611e0d565b60c08301905092915050565b5f602082019050919050565b5f611eb382611db7565b611ebd8185611dc1565b9350611ec883611dd1565b805f5b83811015611ef8578151611edf8882611e86565b9750611eea83611e9d565b925050600181019050611ecb565b5085935050505092915050565b5f6020820190508181035f830152611f1d8184611ea9565b905092915050565b5f805f8060808587031215611f3d57611f3c611c0e565b5b5f611f4a87828801611c86565b9450506020611f5b87828801611c31565b9350506040611f6c87828801611c86565b9250506060611f7d87828801611c31565b91505092959194509250565b5f60208284031215611f9e57611f9d611c0e565b5b5f611fab84828501611c86565b91505092915050565b5f82825260208201905092915050565b7f496e76616c6964206c6f616e20696e64657800000000000000000000000000005f82015250565b5f611ff8601283611fb4565b915061200382611fc4565b602082019050919050565b5f6020820190508181035f83015261202581611fec565b9050919050565b7f4e487b71000000000000000000000000000000000000000000000000000000005f52603260045260245ffd5b7f4c6f616e20616c726561647920726570616964000000000000000000000000005f82015250565b5f61208d601383611fb4565b915061209882612059565b602082019050919050565b5f6020820190508181035f8301526120ba81612081565b9050919050565b7f4554482072657061796d656e74206d69736d61746368000000000000000000005f82015250565b5f6120f5601683611fb4565b9150612100826120c1565b602082019050919050565b5f6020820190508181035f830152612122816120e9565b9050919050565b5f60608201905061213c5f830186611be6565b6121496020830185611be6565b6121566040830184611d16565b949350505050565b61216781611d3e565b8114612171575f80fd5b50565b5f815190506121828161215e565b92915050565b5f6020828403121561219d5761219c611c0e565b5b5f6121aa84828501612174565b91505092915050565b7f4c6f616e2072657061796d656e74206661696c656400000000000000000000005f82015250565b5f6121e7601583611fb4565b91506121f2826121b3565b602082019050919050565b5f6020820190508181035f830152612214816121db565b9050919050565b7f4e487b71000000000000000000000000000000000000000000000000000000005f52601160045260245ffd5b5f61225282611c12565b915061225d83611c12565b92508282019050808211156122755761227461221b565b5b92915050565b7f45544820616d6f756e74206d69736d61746368000000000000000000000000005f82015250565b5f6122af601383611fb4565b91506122ba8261227b565b602082019050919050565b5f6020820190508181035f8301526122dc816122a3565b9050919050565b7f496e76616c696420746f6b656e000000000000000000000000000000000000005f82015250565b5f612317600d83611fb4565b9150612322826122e3565b602082019050919050565b5f6020820190508181035f8301526123448161230b565b9050919050565b7f5472616e73666572206661696c656400000000000000000000000000000000005f82015250565b5f61237f600f83611fb4565b915061238a8261234b565b602082019050919050565b5f6020820190508181035f8301526123ac81612373565b9050919050565b7f496e76616c6964206c6f616e20746f6b656e00000000000000000000000000005f82015250565b5f6123e7601283611fb4565b91506123f2826123b3565b602082019050919050565b5f6020820190508181035f830152612414816123db565b9050919050565b7f496e76616c696420636f6c6c61746572616c20746f6b656e00000000000000005f82015250565b5f61244f601883611fb4565b915061245a8261241b565b602082019050919050565b5f6020820190508181035f83015261247c81612443565b9050919050565b7f43616e6e6f7420626f72726f77207468652073616d6520746f6b656e206173205f8201527f636f6c6c61746572616c00000000000000000000000000000000000000000000602082015250565b5f6124dd602a83611fb4565b91506124e882612483565b604082019050919050565b5f6020820190508181035f83015261250a816124d1565b9050919050565b7f496e73756666696369656e7420636f6c6c61746572616c0000000000000000005f82015250565b5f612545601783611fb4565b915061255082612511565b602082019050919050565b5f6020820190508181035f83015261257281612539565b9050919050565b5f61258382611c12565b915061258e83611c12565b92508282039050818111156125a6576125a561221b565b5b92915050565b5f6040820190506125bf5f830185611be6565b6125cc6020830184611d16565b9392505050565b7f4c6f616e207472616e73666572206661696c65640000000000000000000000005f82015250565b5f612607601483611fb4565b9150612612826125d3565b602082019050919050565b5f6020820190508181035f830152612634816125fb565b9050919050565b5f60408201905061264e5f830185611d16565b61265b6020830184611d16565b9392505050565b7f496e73756666696369656e742062616c616e63650000000000000000000000005f82015250565b5f612696601483611fb4565b91506126a182612662565b602082019050919050565b5f6020820190508181035f8301526126c38161268a565b905091905056fea26469706673582212202a458b502d0ae29727e8d22a6d7970e4e08e0b3e7c2e2d94068dad769018a41264736f6c63430008140033",
					"opcodes": "PUSH1 0xE0 PUSH1 0x40 MSTORE CALLVALUE DUP1 ISZERO PUSH3 0x10 JUMPI PUSH0 DUP1 REVERT JUMPDEST POP PUSH1 0x40 MLOAD PUSH3 0x2A76 CODESIZE SUB DUP1 PUSH3 0x2A76 DUP4 CODECOPY DUP2 DUP2 ADD PUSH1 0x40 MSTORE DUP2 ADD SWAP1 PUSH3 0x36 SWAP2 SWAP1 PUSH3 0x287 JUMP JUMPDEST CALLER PUSH0 PUSH20 0xFFFFFFFFFFFFFFFFFFFFFFFFFFFFFFFFFFFFFFFF AND DUP2 PUSH20 0xFFFFFFFFFFFFFFFFFFFFFFFFFFFFFFFFFFFFFFFF AND SUB PUSH3 0xAA JUMPI PUSH0 PUSH1 0x40 MLOAD PUSH32 0x1E4FBDF700000000000000000000000000000000000000000000000000000000 DUP2 MSTORE PUSH1 0x4 ADD PUSH3 0xA1 SWAP2 SWAP1 PUSH3 0x2F1 JUMP JUMPDEST PUSH1 0x40 MLOAD DUP1 SWAP2 SUB SWAP1 REVERT JUMPDEST PUSH3 0xBB DUP2 PUSH3 0x161 PUSH1 0x20 SHL PUSH1 0x20 SHR JUMP JUMPDEST POP DUP3 PUSH20 0xFFFFFFFFFFFFFFFFFFFFFFFFFFFFFFFFFFFFFFFF AND PUSH1 0x80 DUP2 PUSH20 0xFFFFFFFFFFFFFFFFFFFFFFFFFFFFFFFFFFFFFFFF AND DUP2 MSTORE POP POP DUP2 PUSH20 0xFFFFFFFFFFFFFFFFFFFFFFFFFFFFFFFFFFFFFFFF AND PUSH1 0xA0 DUP2 PUSH20 0xFFFFFFFFFFFFFFFFFFFFFFFFFFFFFFFFFFFFFFFF AND DUP2 MSTORE POP POP DUP1 PUSH20 0xFFFFFFFFFFFFFFFFFFFFFFFFFFFFFFFFFFFFFFFF AND PUSH1 0xC0 DUP2 PUSH20 0xFFFFFFFFFFFFFFFFFFFFFFFFFFFFFFFFFFFFFFFF AND DUP2 MSTORE POP POP POP POP POP PUSH3 0x30C JUMP JUMPDEST PUSH0 DUP1 PUSH0 SWAP1 SLOAD SWAP1 PUSH2 0x100 EXP SWAP1 DIV PUSH20 0xFFFFFFFFFFFFFFFFFFFFFFFFFFFFFFFFFFFFFFFF AND SWAP1 POP DUP2 PUSH0 DUP1 PUSH2 0x100 EXP DUP2 SLOAD DUP2 PUSH20 0xFFFFFFFFFFFFFFFFFFFFFFFFFFFFFFFFFFFFFFFF MUL NOT AND SWAP1 DUP4 PUSH20 0xFFFFFFFFFFFFFFFFFFFFFFFFFFFFFFFFFFFFFFFF AND MUL OR SWAP1 SSTORE POP DUP2 PUSH20 0xFFFFFFFFFFFFFFFFFFFFFFFFFFFFFFFFFFFFFFFF AND DUP2 PUSH20 0xFFFFFFFFFFFFFFFFFFFFFFFFFFFFFFFFFFFFFFFF AND PUSH32 0x8BE0079C531659141344CD1FD0A4F28419497F9722A3DAAFE3B4186F6B6457E0 PUSH1 0x40 MLOAD PUSH1 0x40 MLOAD DUP1 SWAP2 SUB SWAP1 LOG3 POP POP JUMP JUMPDEST PUSH0 DUP1 REVERT JUMPDEST PUSH0 PUSH20 0xFFFFFFFFFFFFFFFFFFFFFFFFFFFFFFFFFFFFFFFF DUP3 AND SWAP1 POP SWAP2 SWAP1 POP JUMP JUMPDEST PUSH0 PUSH3 0x251 DUP3 PUSH3 0x226 JUMP JUMPDEST SWAP1 POP SWAP2 SWAP1 POP JUMP JUMPDEST PUSH3 0x263 DUP2 PUSH3 0x245 JUMP JUMPDEST DUP2 EQ PUSH3 0x26E JUMPI PUSH0 DUP1 REVERT JUMPDEST POP JUMP JUMPDEST PUSH0 DUP2 MLOAD SWAP1 POP PUSH3 0x281 DUP2 PUSH3 0x258 JUMP JUMPDEST SWAP3 SWAP2 POP POP JUMP JUMPDEST PUSH0 DUP1 PUSH0 PUSH1 0x60 DUP5 DUP7 SUB SLT ISZERO PUSH3 0x2A1 JUMPI PUSH3 0x2A0 PUSH3 0x222 JUMP JUMPDEST JUMPDEST PUSH0 PUSH3 0x2B0 DUP7 DUP3 DUP8 ADD PUSH3 0x271 JUMP JUMPDEST SWAP4 POP POP PUSH1 0x20 PUSH3 0x2C3 DUP7 DUP3 DUP8 ADD PUSH3 0x271 JUMP JUMPDEST SWAP3 POP POP PUSH1 0x40 PUSH3 0x2D6 DUP7 DUP3 DUP8 ADD PUSH3 0x271 JUMP JUMPDEST SWAP2 POP POP SWAP3 POP SWAP3 POP SWAP3 JUMP JUMPDEST PUSH3 0x2EB DUP2 PUSH3 0x245 JUMP JUMPDEST DUP3 MSTORE POP POP JUMP JUMPDEST PUSH0 PUSH1 0x20 DUP3 ADD SWAP1 POP PUSH3 0x306 PUSH0 DUP4 ADD DUP5 PUSH3 0x2E0 JUMP JUMPDEST SWAP3 SWAP2 POP POP JUMP JUMPDEST PUSH1 0x80 MLOAD PUSH1 0xA0 MLOAD PUSH1 0xC0 MLOAD PUSH2 0x2700 PUSH3 0x376 PUSH0 CODECOPY PUSH0 DUP2 DUP2 PUSH2 0x8EC ADD MSTORE DUP2 DUP2 PUSH2 0xE2B ADD MSTORE DUP2 DUP2 PUSH2 0xF30 ADD MSTORE PUSH2 0x10A0 ADD MSTORE PUSH0 DUP2 DUP2 PUSH2 0x896 ADD MSTORE DUP2 DUP2 PUSH2 0xB2F ADD MSTORE DUP2 DUP2 PUSH2 0xEDA ADD MSTORE PUSH2 0x104A ADD MSTORE PUSH0 DUP2 DUP2 PUSH2 0x33E ADD MSTORE DUP2 DUP2 PUSH2 0x841 ADD MSTORE DUP2 DUP2 PUSH2 0xE84 ADD MSTORE PUSH2 0xFF4 ADD MSTORE PUSH2 0x2700 PUSH0 RETURN INVALID PUSH1 0x80 PUSH1 0x40 MSTORE PUSH1 0x4 CALLDATASIZE LT PUSH2 0xE0 JUMPI PUSH0 CALLDATALOAD PUSH1 0xE0 SHR DUP1 PUSH4 0x98C61C37 GT PUSH2 0x7E JUMPI DUP1 PUSH4 0xD0280539 GT PUSH2 0x58 JUMPI DUP1 PUSH4 0xD0280539 EQ PUSH2 0x288 JUMPI DUP1 PUSH4 0xE1254FBA EQ PUSH2 0x2B0 JUMPI DUP1 PUSH4 0xF2FDE38B EQ PUSH2 0x2EC JUMPI DUP1 PUSH4 0xF3FEF3A3 EQ PUSH2 0x314 JUMPI PUSH2 0xE7 JUMP JUMPDEST DUP1 PUSH4 0x98C61C37 EQ PUSH2 0x1F3 JUMPI DUP1 PUSH4 0xAA4A8711 EQ PUSH2 0x234 JUMPI DUP1 PUSH4 0xC483A308 EQ PUSH2 0x25E JUMPI PUSH2 0xE7 JUMP JUMPDEST DUP1 PUSH4 0x5F64B55B GT PUSH2 0xBA JUMPI DUP1 PUSH4 0x5F64B55B EQ PUSH2 0x14D JUMPI DUP1 PUSH4 0x715018A6 EQ PUSH2 0x177 JUMPI DUP1 PUSH4 0x8DA5CB5B EQ PUSH2 0x18D JUMPI DUP1 PUSH4 0x8F601F66 EQ PUSH2 0x1B7 JUMPI PUSH2 0xE7 JUMP JUMPDEST DUP1 PUSH4 0xFC63D10 EQ PUSH2 0xEB JUMPI DUP1 PUSH4 0x371FD8E6 EQ PUSH2 0x115 JUMPI DUP1 PUSH4 0x47E7EF24 EQ PUSH2 0x131 JUMPI PUSH2 0xE7 JUMP JUMPDEST CALLDATASIZE PUSH2 0xE7 JUMPI STOP JUMPDEST PUSH0 DUP1 REVERT JUMPDEST CALLVALUE DUP1 ISZERO PUSH2 0xF6 JUMPI PUSH0 DUP1 REVERT JUMPDEST POP PUSH2 0xFF PUSH2 0x33C JUMP JUMPDEST PUSH1 0x40 MLOAD PUSH2 0x10C SWAP2 SWAP1 PUSH2 0x1BF5 JUMP JUMPDEST PUSH1 0x40 MLOAD DUP1 SWAP2 SUB SWAP1 RETURN JUMPDEST PUSH2 0x12F PUSH1 0x4 DUP1 CALLDATASIZE SUB DUP2 ADD SWAP1 PUSH2 0x12A SWAP2 SWAP1 PUSH2 0x1C45 JUMP JUMPDEST PUSH2 0x360 JUMP JUMPDEST STOP JUMPDEST PUSH2 0x14B PUSH1 0x4 DUP1 CALLDATASIZE SUB DUP2 ADD SWAP1 PUSH2 0x146 SWAP2 SWAP1 PUSH2 0x1C9A JUMP JUMPDEST PUSH2 0x737 JUMP JUMPDEST STOP JUMPDEST CALLVALUE DUP1 ISZERO PUSH2 0x158 JUMPI PUSH0 DUP1 REVERT JUMPDEST POP PUSH2 0x161 PUSH2 0xB2D JUMP JUMPDEST PUSH1 0x40 MLOAD PUSH2 0x16E SWAP2 SWAP1 PUSH2 0x1BF5 JUMP JUMPDEST PUSH1 0x40 MLOAD DUP1 SWAP2 SUB SWAP1 RETURN JUMPDEST CALLVALUE DUP1 ISZERO PUSH2 0x182 JUMPI PUSH0 DUP1 REVERT JUMPDEST POP PUSH2 0x18B PUSH2 0xB51 JUMP JUMPDEST STOP JUMPDEST CALLVALUE DUP1 ISZERO PUSH2 0x198 JUMPI PUSH0 DUP1 REVERT JUMPDEST POP PUSH2 0x1A1 PUSH2 0xB64 JUMP JUMPDEST PUSH1 0x40 MLOAD PUSH2 0x1AE SWAP2 SWAP1 PUSH2 0x1BF5 JUMP JUMPDEST PUSH1 0x40 MLOAD DUP1 SWAP2 SUB SWAP1 RETURN JUMPDEST CALLVALUE DUP1 ISZERO PUSH2 0x1C2 JUMPI PUSH0 DUP1 REVERT JUMPDEST POP PUSH2 0x1DD PUSH1 0x4 DUP1 CALLDATASIZE SUB DUP2 ADD SWAP1 PUSH2 0x1D8 SWAP2 SWAP1 PUSH2 0x1CD8 JUMP JUMPDEST PUSH2 0xB8B JUMP JUMPDEST PUSH1 0x40 MLOAD PUSH2 0x1EA SWAP2 SWAP1 PUSH2 0x1D25 JUMP JUMPDEST PUSH1 0x40 MLOAD DUP1 SWAP2 SUB SWAP1 RETURN JUMPDEST CALLVALUE DUP1 ISZERO PUSH2 0x1FE JUMPI PUSH0 DUP1 REVERT JUMPDEST POP PUSH2 0x219 PUSH1 0x4 DUP1 CALLDATASIZE SUB DUP2 ADD SWAP1 PUSH2 0x214 SWAP2 SWAP1 PUSH2 0x1C9A JUMP JUMPDEST PUSH2 0xBAB JUMP JUMPDEST PUSH1 0x40 MLOAD PUSH2 0x22B SWAP7 SWAP6 SWAP5 SWAP4 SWAP3 SWAP2 SWAP1 PUSH2 0x1D58 JUMP JUMPDEST PUSH1 0x40 MLOAD DUP1 SWAP2 SUB SWAP1 RETURN JUMPDEST CALLVALUE DUP1 ISZERO PUSH2 0x23F JUMPI PUSH0 DUP1 REVERT JUMPDEST POP PUSH2 0x248 PUSH2 0xC66 JUMP JUMPDEST PUSH1 0x40 MLOAD PUSH2 0x255 SWAP2 SWAP1 PUSH2 0x1F05 JUMP JUMPDEST PUSH1 0x40 MLOAD DUP1 SWAP2 SUB SWAP1 RETURN JUMPDEST CALLVALUE DUP1 ISZERO PUSH2 0x269 JUMPI PUSH0 DUP1 REVERT JUMPDEST POP PUSH2 0x272 PUSH2 0xE29 JUMP JUMPDEST PUSH1 0x40 MLOAD PUSH2 0x27F SWAP2 SWAP1 PUSH2 0x1BF5 JUMP JUMPDEST PUSH1 0x40 MLOAD DUP1 SWAP2 SUB SWAP1 RETURN JUMPDEST CALLVALUE DUP1 ISZERO PUSH2 0x293 JUMPI PUSH0 DUP1 REVERT JUMPDEST POP PUSH2 0x2AE PUSH1 0x4 DUP1 CALLDATASIZE SUB DUP2 ADD SWAP1 PUSH2 0x2A9 SWAP2 SWAP1 PUSH2 0x1F25 JUMP JUMPDEST PUSH2 0xE4D JUMP JUMPDEST STOP JUMPDEST CALLVALUE DUP1 ISZERO PUSH2 0x2BB JUMPI PUSH0 DUP1 REVERT JUMPDEST POP PUSH2 0x2D6 PUSH1 0x4 DUP1 CALLDATASIZE SUB DUP2 ADD SWAP1 PUSH2 0x2D1 SWAP2 SWAP1 PUSH2 0x1F89 JUMP JUMPDEST PUSH2 0x1679 JUMP JUMPDEST PUSH1 0x40 MLOAD PUSH2 0x2E3 SWAP2 SWAP1 PUSH2 0x1D25 JUMP JUMPDEST PUSH1 0x40 MLOAD DUP1 SWAP2 SUB SWAP1 RETURN JUMPDEST CALLVALUE DUP1 ISZERO PUSH2 0x2F7 JUMPI PUSH0 DUP1 REVERT JUMPDEST POP PUSH2 0x312 PUSH1 0x4 DUP1 CALLDATASIZE SUB DUP2 ADD SWAP1 PUSH2 0x30D SWAP2 SWAP1 PUSH2 0x1F89 JUMP JUMPDEST PUSH2 0x16FA JUMP JUMPDEST STOP JUMPDEST CALLVALUE DUP1 ISZERO PUSH2 0x31F JUMPI PUSH0 DUP1 REVERT JUMPDEST POP PUSH2 0x33A PUSH1 0x4 DUP1 CALLDATASIZE SUB DUP2 ADD SWAP1 PUSH2 0x335 SWAP2 SWAP1 PUSH2 0x1C9A JUMP JUMPDEST PUSH2 0x177E JUMP JUMPDEST STOP JUMPDEST PUSH32 0x0 DUP2 JUMP JUMPDEST PUSH1 0x2 PUSH0 CALLER PUSH20 0xFFFFFFFFFFFFFFFFFFFFFFFFFFFFFFFFFFFFFFFF AND PUSH20 0xFFFFFFFFFFFFFFFFFFFFFFFFFFFFFFFFFFFFFFFF AND DUP2 MSTORE PUSH1 0x20 ADD SWAP1 DUP2 MSTORE PUSH1 0x20 ADD PUSH0 KECCAK256 DUP1 SLOAD SWAP1 POP DUP2 LT PUSH2 0x3E2 JUMPI PUSH1 0x40 MLOAD PUSH32 0x8C379A000000000000000000000000000000000000000000000000000000000 DUP2 MSTORE PUSH1 0x4 ADD PUSH2 0x3D9 SWAP1 PUSH2 0x200E JUMP JUMPDEST PUSH1 0x40 MLOAD DUP1 SWAP2 SUB SWAP1 REVERT JUMPDEST PUSH0 PUSH1 0x2 PUSH0 CALLER PUSH20 0xFFFFFFFFFFFFFFFFFFFFFFFFFFFFFFFFFFFFFFFF AND PUSH20 0xFFFFFFFFFFFFFFFFFFFFFFFFFFFFFFFFFFFFFFFF AND DUP2 MSTORE PUSH1 0x20 ADD SWAP1 DUP2 MSTORE PUSH1 0x20 ADD PUSH0 KECCAK256 DUP3 DUP2 SLOAD DUP2 LT PUSH2 0x432 JUMPI PUSH2 0x431 PUSH2 0x202C JUMP JUMPDEST JUMPDEST SWAP1 PUSH0 MSTORE PUSH1 0x20 PUSH0 KECCAK256 SWAP1 PUSH1 0x6 MUL ADD SWAP1 POP DUP1 PUSH1 0x5 ADD PUSH0 SWAP1 SLOAD SWAP1 PUSH2 0x100 EXP SWAP1 DIV PUSH1 0xFF AND PUSH2 0x490 JUMPI PUSH1 0x40 MLOAD PUSH32 0x8C379A000000000000000000000000000000000000000000000000000000000 DUP2 MSTORE PUSH1 0x4 ADD PUSH2 0x487 SWAP1 PUSH2 0x20A3 JUMP JUMPDEST PUSH1 0x40 MLOAD DUP1 SWAP2 SUB SWAP1 REVERT JUMPDEST PUSH0 PUSH20 0xFFFFFFFFFFFFFFFFFFFFFFFFFFFFFFFFFFFFFFFF AND DUP2 PUSH1 0x1 ADD PUSH0 SWAP1 SLOAD SWAP1 PUSH2 0x100 EXP SWAP1 DIV PUSH20 0xFFFFFFFFFFFFFFFFFFFFFFFFFFFFFFFFFFFFFFFF AND PUSH20 0xFFFFFFFFFFFFFFFFFFFFFFFFFFFFFFFFFFFFFFFF AND SUB PUSH2 0x531 JUMPI DUP1 PUSH1 0x2 ADD SLOAD CALLVALUE EQ PUSH2 0x52C JUMPI PUSH1 0x40 MLOAD PUSH32 0x8C379A000000000000000000000000000000000000000000000000000000000 DUP2 MSTORE PUSH1 0x4 ADD PUSH2 0x523 SWAP1 PUSH2 0x210B JUMP JUMPDEST PUSH1 0x40 MLOAD DUP1 SWAP2 SUB SWAP1 REVERT JUMPDEST PUSH2 0x615 JUMP JUMPDEST DUP1 PUSH1 0x1 ADD PUSH0 SWAP1 SLOAD SWAP1 PUSH2 0x100 EXP SWAP1 DIV PUSH20 0xFFFFFFFFFFFFFFFFFFFFFFFFFFFFFFFFFFFFFFFF AND PUSH20 0xFFFFFFFFFFFFFFFFFFFFFFFFFFFFFFFFFFFFFFFF AND PUSH4 0x23B872DD CALLER ADDRESS DUP5 PUSH1 0x2 ADD SLOAD PUSH1 0x40 MLOAD DUP5 PUSH4 0xFFFFFFFF AND PUSH1 0xE0 SHL DUP2 MSTORE PUSH1 0x4 ADD PUSH2 0x595 SWAP4 SWAP3 SWAP2 SWAP1 PUSH2 0x2129 JUMP JUMPDEST PUSH1 0x20 PUSH1 0x40 MLOAD DUP1 DUP4 SUB DUP2 PUSH0 DUP8 GAS CALL ISZERO DUP1 ISZERO PUSH2 0x5B1 JUMPI RETURNDATASIZE PUSH0 DUP1 RETURNDATACOPY RETURNDATASIZE PUSH0 REVERT JUMPDEST POP POP POP POP PUSH1 0x40 MLOAD RETURNDATASIZE PUSH1 0x1F NOT PUSH1 0x1F DUP3 ADD AND DUP3 ADD DUP1 PUSH1 0x40 MSTORE POP DUP2 ADD SWAP1 PUSH2 0x5D5 SWAP2 SWAP1 PUSH2 0x2188 JUMP JUMPDEST PUSH2 0x614 JUMPI PUSH1 0x40 MLOAD PUSH32 0x8C379A000000000000000000000000000000000000000000000000000000000 DUP2 MSTORE PUSH1 0x4 ADD PUSH2 0x60B SWAP1 PUSH2 0x21FD JUMP JUMPDEST PUSH1 0x40 MLOAD DUP1 SWAP2 SUB SWAP1 REVERT JUMPDEST JUMPDEST DUP1 PUSH1 0x4 ADD SLOAD PUSH1 0x1 PUSH0 CALLER PUSH20 0xFFFFFFFFFFFFFFFFFFFFFFFFFFFFFFFFFFFFFFFF AND PUSH20 0xFFFFFFFFFFFFFFFFFFFFFFFFFFFFFFFFFFFFFFFF AND DUP2 MSTORE PUSH1 0x20 ADD SWAP1 DUP2 MSTORE PUSH1 0x20 ADD PUSH0 KECCAK256 PUSH0 DUP4 PUSH1 0x3 ADD PUSH0 SWAP1 SLOAD SWAP1 PUSH2 0x100 EXP SWAP1 DIV PUSH20 0xFFFFFFFFFFFFFFFFFFFFFFFFFFFFFFFFFFFFFFFF AND PUSH20 0xFFFFFFFFFFFFFFFFFFFFFFFFFFFFFFFFFFFFFFFF AND PUSH20 0xFFFFFFFFFFFFFFFFFFFFFFFFFFFFFFFFFFFFFFFF AND DUP2 MSTORE PUSH1 0x20 ADD SWAP1 DUP2 MSTORE PUSH1 0x20 ADD PUSH0 KECCAK256 PUSH0 DUP3 DUP3 SLOAD PUSH2 0x6C3 SWAP2 SWAP1 PUSH2 0x2248 JUMP JUMPDEST SWAP3 POP POP DUP2 SWAP1 SSTORE POP PUSH0 DUP2 PUSH1 0x5 ADD PUSH0 PUSH2 0x100 EXP DUP2 SLOAD DUP2 PUSH1 0xFF MUL NOT AND SWAP1 DUP4 ISZERO ISZERO MUL OR SWAP1 SSTORE POP CALLER PUSH20 0xFFFFFFFFFFFFFFFFFFFFFFFFFFFFFFFFFFFFFFFF AND PUSH32 0x516911BCC3A0A7412A44601057C0A0A1EC628BDE049A84284BC428866534488 DUP4 PUSH1 0x40 MLOAD PUSH2 0x72B SWAP2 SWAP1 PUSH2 0x1D25 JUMP JUMPDEST PUSH1 0x40 MLOAD DUP1 SWAP2 SUB SWAP1 LOG2 POP POP JUMP JUMPDEST PUSH0 PUSH20 0xFFFFFFFFFFFFFFFFFFFFFFFFFFFFFFFFFFFFFFFF AND DUP3 PUSH20 0xFFFFFFFFFFFFFFFFFFFFFFFFFFFFFFFFFFFFFFFF AND SUB PUSH2 0x83F JUMPI DUP1 CALLVALUE EQ PUSH2 0x7AC JUMPI PUSH1 0x40 MLOAD PUSH32 0x8C379A000000000000000000000000000000000000000000000000000000000 DUP2 MSTORE PUSH1 0x4 ADD PUSH2 0x7A3 SWAP1 PUSH2 0x22C5 JUMP JUMPDEST PUSH1 0x40 MLOAD DUP1 SWAP2 SUB SWAP1 REVERT JUMPDEST DUP1 PUSH1 0x1 PUSH0 CALLER PUSH20 0xFFFFFFFFFFFFFFFFFFFFFFFFFFFFFFFFFFFFFFFF AND PUSH20 0xFFFFFFFFFFFFFFFFFFFFFFFFFFFFFFFFFFFFFFFF AND DUP2 MSTORE PUSH1 0x20 ADD SWAP1 DUP2 MSTORE PUSH1 0x20 ADD PUSH0 KECCAK256 PUSH0 DUP1 PUSH20 0xFFFFFFFFFFFFFFFFFFFFFFFFFFFFFFFFFFFFFFFF AND PUSH20 0xFFFFFFFFFFFFFFFFFFFFFFFFFFFFFFFFFFFFFFFF AND DUP2 MSTORE PUSH1 0x20 ADD SWAP1 DUP2 MSTORE PUSH1 0x20 ADD PUSH0 KECCAK256 PUSH0 DUP3 DUP3 SLOAD PUSH2 0x833 SWAP2 SWAP1 PUSH2 0x2248 JUMP JUMPDEST SWAP3 POP POP DUP2 SWAP1 SSTORE POP PUSH2 0xAC4 JUMP JUMPDEST PUSH32 0x0 PUSH20 0xFFFFFFFFFFFFFFFFFFFFFFFFFFFFFFFFFFFFFFFF AND DUP3 PUSH20 0xFFFFFFFFFFFFFFFFFFFFFFFFFFFFFFFFFFFFFFFF AND EQ DUP1 PUSH2 0x8E4 JUMPI POP PUSH32 0x0 PUSH20 0xFFFFFFFFFFFFFFFFFFFFFFFFFFFFFFFFFFFFFFFF AND DUP3 PUSH20 0xFFFFFFFFFFFFFFFFFFFFFFFFFFFFFFFFFFFFFFFF AND EQ JUMPDEST DUP1 PUSH2 0x93A JUMPI POP PUSH32 0x0 PUSH20 0xFFFFFFFFFFFFFFFFFFFFFFFFFFFFFFFFFFFFFFFF AND DUP3 PUSH20 0xFFFFFFFFFFFFFFFFFFFFFFFFFFFFFFFFFFFFFFFF AND EQ JUMPDEST PUSH2 0x979 JUMPI PUSH1 0x40 MLOAD PUSH32 0x8C379A000000000000000000000000000000000000000000000000000000000 DUP2 MSTORE PUSH1 0x4 ADD PUSH2 0x970 SWAP1 PUSH2 0x232D JUMP JUMPDEST PUSH1 0x40 MLOAD DUP1 SWAP2 SUB SWAP1 REVERT JUMPDEST DUP2 PUSH20 0xFFFFFFFFFFFFFFFFFFFFFFFFFFFFFFFFFFFFFFFF AND PUSH4 0x23B872DD CALLER ADDRESS DUP5 PUSH1 0x40 MLOAD DUP5 PUSH4 0xFFFFFFFF AND PUSH1 0xE0 SHL DUP2 MSTORE PUSH1 0x4 ADD PUSH2 0x9B6 SWAP4 SWAP3 SWAP2 SWAP1 PUSH2 0x2129 JUMP JUMPDEST PUSH1 0x20 PUSH1 0x40 MLOAD DUP1 DUP4 SUB DUP2 PUSH0 DUP8 GAS CALL ISZERO DUP1 ISZERO PUSH2 0x9D2 JUMPI RETURNDATASIZE PUSH0 DUP1 RETURNDATACOPY RETURNDATASIZE PUSH0 REVERT JUMPDEST POP POP POP POP PUSH1 0x40 MLOAD RETURNDATASIZE PUSH1 0x1F NOT PUSH1 0x1F DUP3 ADD AND DUP3 ADD DUP1 PUSH1 0x40 MSTORE POP DUP2 ADD SWAP1 PUSH2 0x9F6 SWAP2 SWAP1 PUSH2 0x2188 JUMP JUMPDEST PUSH2 0xA35 JUMPI PUSH1 0x40 MLOAD PUSH32 0x8C379A000000000000000000000000000000000000000000000000000000000 DUP2 MSTORE PUSH1 0x4 ADD PUSH2 0xA2C SWAP1 PUSH2 0x2395 JUMP JUMPDEST PUSH1 0x40 MLOAD DUP1 SWAP2 SUB SWAP1 REVERT JUMPDEST DUP1 PUSH1 0x1 PUSH0 CALLER PUSH20 0xFFFFFFFFFFFFFFFFFFFFFFFFFFFFFFFFFFFFFFFF AND PUSH20 0xFFFFFFFFFFFFFFFFFFFFFFFFFFFFFFFFFFFFFFFF AND DUP2 MSTORE PUSH1 0x20 ADD SWAP1 DUP2 MSTORE PUSH1 0x20 ADD PUSH0 KECCAK256 PUSH0 DUP5 PUSH20 0xFFFFFFFFFFFFFFFFFFFFFFFFFFFFFFFFFFFFFFFF AND PUSH20 0xFFFFFFFFFFFFFFFFFFFFFFFFFFFFFFFFFFFFFFFF AND DUP2 MSTORE PUSH1 0x20 ADD SWAP1 DUP2 MSTORE PUSH1 0x20 ADD PUSH0 KECCAK256 PUSH0 DUP3 DUP3 SLOAD PUSH2 0xABC SWAP2 SWAP1 PUSH2 0x2248 JUMP JUMPDEST SWAP3 POP POP DUP2 SWAP1 SSTORE POP JUMPDEST DUP2 PUSH20 0xFFFFFFFFFFFFFFFFFFFFFFFFFFFFFFFFFFFFFFFF AND CALLER PUSH20 0xFFFFFFFFFFFFFFFFFFFFFFFFFFFFFFFFFFFFFFFF AND PUSH32 0x8752A472E571A816AEA92EEC8DAE9BAF628E840F4929FBCC2D155E6233FF68A7 DUP4 PUSH1 0x40 MLOAD PUSH2 0xB21 SWAP2 SWAP1 PUSH2 0x1D25 JUMP JUMPDEST PUSH1 0x40 MLOAD DUP1 SWAP2 SUB SWAP1 LOG3 POP POP JUMP JUMPDEST PUSH32 0x0 DUP2 JUMP JUMPDEST PUSH2 0xB59 PUSH2 0x1A67 JUMP JUMPDEST PUSH2 0xB62 PUSH0 PUSH2 0x1AEE JUMP JUMPDEST JUMP JUMPDEST PUSH0 DUP1 PUSH0 SWAP1 SLOAD SWAP1 PUSH2 0x100 EXP SWAP1 DIV PUSH20 0xFFFFFFFFFFFFFFFFFFFFFFFFFFFFFFFFFFFFFFFF AND SWAP1 POP SWAP1 JUMP JUMPDEST PUSH1 0x1 PUSH1 0x20 MSTORE DUP2 PUSH0 MSTORE PUSH1 0x40 PUSH0 KECCAK256 PUSH1 0x20 MSTORE DUP1 PUSH0 MSTORE PUSH1 0x40 PUSH0 KECCAK256 PUSH0 SWAP2 POP SWAP2 POP POP SLOAD DUP2 JUMP JUMPDEST PUSH1 0x2 PUSH1 0x20 MSTORE DUP2 PUSH0 MSTORE PUSH1 0x40 PUSH0 KECCAK256 DUP2 DUP2 SLOAD DUP2 LT PUSH2 0xBC4 JUMPI PUSH0 DUP1 REVERT JUMPDEST SWAP1 PUSH0 MSTORE PUSH1 0x20 PUSH0 KECCAK256 SWAP1 PUSH1 0x6 MUL ADD PUSH0 SWAP2 POP SWAP2 POP POP DUP1 PUSH0 ADD PUSH0 SWAP1 SLOAD SWAP1 PUSH2 0x100 EXP SWAP1 DIV PUSH20 0xFFFFFFFFFFFFFFFFFFFFFFFFFFFFFFFFFFFFFFFF AND SWAP1 DUP1 PUSH1 0x1 ADD PUSH0 SWAP1 SLOAD SWAP1 PUSH2 0x100 EXP SWAP1 DIV PUSH20 0xFFFFFFFFFFFFFFFFFFFFFFFFFFFFFFFFFFFFFFFF AND SWAP1 DUP1 PUSH1 0x2 ADD SLOAD SWAP1 DUP1 PUSH1 0x3 ADD PUSH0 SWAP1 SLOAD SWAP1 PUSH2 0x100 EXP SWAP1 DIV PUSH20 0xFFFFFFFFFFFFFFFFFFFFFFFFFFFFFFFFFFFFFFFF AND SWAP1 DUP1 PUSH1 0x4 ADD SLOAD SWAP1 DUP1 PUSH1 0x5 ADD PUSH0 SWAP1 SLOAD SWAP1 PUSH2 0x100 EXP SWAP1 DIV PUSH1 0xFF AND SWAP1 POP DUP7 JUMP JUMPDEST PUSH1 0x60 PUSH1 0x2 PUSH0 CALLER PUSH20 0xFFFFFFFFFFFFFFFFFFFFFFFFFFFFFFFFFFFFFFFF AND PUSH20 0xFFFFFFFFFFFFFFFFFFFFFFFFFFFFFFFFFFFFFFFF AND DUP2 MSTORE PUSH1 0x20 ADD SWAP1 DUP2 MSTORE PUSH1 0x20 ADD PUSH0 KECCAK256 DUP1 SLOAD DUP1 PUSH1 0x20 MUL PUSH1 0x20 ADD PUSH1 0x40 MLOAD SWAP1 DUP2 ADD PUSH1 0x40 MSTORE DUP1 SWAP3 SWAP2 SWAP1 DUP2 DUP2 MSTORE PUSH1 0x20 ADD PUSH0 SWAP1 JUMPDEST DUP3 DUP3 LT ISZERO PUSH2 0xE20 JUMPI DUP4 DUP3 SWAP1 PUSH0 MSTORE PUSH1 0x20 PUSH0 KECCAK256 SWAP1 PUSH1 0x6 MUL ADD PUSH1 0x40 MLOAD DUP1 PUSH1 0xC0 ADD PUSH1 0x40 MSTORE SWAP1 DUP2 PUSH0 DUP3 ADD PUSH0 SWAP1 SLOAD SWAP1 PUSH2 0x100 EXP SWAP1 DIV PUSH20 0xFFFFFFFFFFFFFFFFFFFFFFFFFFFFFFFFFFFFFFFF AND PUSH20 0xFFFFFFFFFFFFFFFFFFFFFFFFFFFFFFFFFFFFFFFF AND PUSH20 0xFFFFFFFFFFFFFFFFFFFFFFFFFFFFFFFFFFFFFFFF AND DUP2 MSTORE PUSH1 0x20 ADD PUSH1 0x1 DUP3 ADD PUSH0 SWAP1 SLOAD SWAP1 PUSH2 0x100 EXP SWAP1 DIV PUSH20 0xFFFFFFFFFFFFFFFFFFFFFFFFFFFFFFFFFFFFFFFF AND PUSH20 0xFFFFFFFFFFFFFFFFFFFFFFFFFFFFFFFFFFFFFFFF AND PUSH20 0xFFFFFFFFFFFFFFFFFFFFFFFFFFFFFFFFFFFFFFFF AND DUP2 MSTORE PUSH1 0x20 ADD PUSH1 0x2 DUP3 ADD SLOAD DUP2 MSTORE PUSH1 0x20 ADD PUSH1 0x3 DUP3 ADD PUSH0 SWAP1 SLOAD SWAP1 PUSH2 0x100 EXP SWAP1 DIV PUSH20 0xFFFFFFFFFFFFFFFFFFFFFFFFFFFFFFFFFFFFFFFF AND PUSH20 0xFFFFFFFFFFFFFFFFFFFFFFFFFFFFFFFFFFFFFFFF AND PUSH20 0xFFFFFFFFFFFFFFFFFFFFFFFFFFFFFFFFFFFFFFFF AND DUP2 MSTORE PUSH1 0x20 ADD PUSH1 0x4 DUP3 ADD SLOAD DUP2 MSTORE PUSH1 0x20 ADD PUSH1 0x5 DUP3 ADD PUSH0 SWAP1 SLOAD SWAP1 PUSH2 0x100 EXP SWAP1 DIV PUSH1 0xFF AND ISZERO ISZERO ISZERO ISZERO DUP2 MSTORE POP POP DUP2 MSTORE PUSH1 0x20 ADD SWAP1 PUSH1 0x1 ADD SWAP1 PUSH2 0xCC4 JUMP JUMPDEST POP POP POP POP SWAP1 POP SWAP1 JUMP JUMPDEST PUSH32 0x0 DUP2 JUMP JUMPDEST PUSH0 PUSH20 0xFFFFFFFFFFFFFFFFFFFFFFFFFFFFFFFFFFFFFFFF AND DUP5 PUSH20 0xFFFFFFFFFFFFFFFFFFFFFFFFFFFFFFFFFFFFFFFF AND EQ DUP1 PUSH2 0xED2 JUMPI POP PUSH32 0x0 PUSH20 0xFFFFFFFFFFFFFFFFFFFFFFFFFFFFFFFFFFFFFFFF AND DUP5 PUSH20 0xFFFFFFFFFFFFFFFFFFFFFFFFFFFFFFFFFFFFFFFF AND EQ JUMPDEST DUP1 PUSH2 0xF28 JUMPI POP PUSH32 0x0 PUSH20 0xFFFFFFFFFFFFFFFFFFFFFFFFFFFFFFFFFFFFFFFF AND DUP5 PUSH20 0xFFFFFFFFFFFFFFFFFFFFFFFFFFFFFFFFFFFFFFFF AND EQ JUMPDEST DUP1 PUSH2 0xF7E JUMPI POP PUSH32 0x0 PUSH20 0xFFFFFFFFFFFFFFFFFFFFFFFFFFFFFFFFFFFFFFFF AND DUP5 PUSH20 0xFFFFFFFFFFFFFFFFFFFFFFFFFFFFFFFFFFFFFFFF AND EQ JUMPDEST PUSH2 0xFBD JUMPI PUSH1 0x40 MLOAD PUSH32 0x8C379A000000000000000000000000000000000000000000000000000000000 DUP2 MSTORE PUSH1 0x4 ADD PUSH2 0xFB4 SWAP1 PUSH2 0x23FD JUMP JUMPDEST PUSH1 0x40 MLOAD DUP1 SWAP2 SUB SWAP1 REVERT JUMPDEST PUSH0 PUSH20 0xFFFFFFFFFFFFFFFFFFFFFFFFFFFFFFFFFFFFFFFF AND DUP3 PUSH20 0xFFFFFFFFFFFFFFFFFFFFFFFFFFFFFFFFFFFFFFFF AND EQ DUP1 PUSH2 0x1042 JUMPI POP PUSH32 0x0 PUSH20 0xFFFFFFFFFFFFFFFFFFFFFFFFFFFFFFFFFFFFFFFF AND DUP3 PUSH20 0xFFFFFFFFFFFFFFFFFFFFFFFFFFFFFFFFFFFFFFFF AND EQ JUMPDEST DUP1 PUSH2 0x1098 JUMPI POP PUSH32 0x0 PUSH20 0xFFFFFFFFFFFFFFFFFFFFFFFFFFFFFFFFFFFFFFFF AND DUP3 PUSH20 0xFFFFFFFFFFFFFFFFFFFFFFFFFFFFFFFFFFFFFFFF AND EQ JUMPDEST DUP1 PUSH2 0x10EE JUMPI POP PUSH32 0x0 PUSH20 0xFFFFFFFFFFFFFFFFFFFFFFFFFFFFFFFFFFFFFFFF AND DUP3 PUSH20 0xFFFFFFFFFFFFFFFFFFFFFFFFFFFFFFFFFFFFFFFF AND EQ JUMPDEST PUSH2 0x112D JUMPI PUSH1 0x40 MLOAD PUSH32 0x8C379A000000000000000000000000000000000000000000000000000000000 DUP2 MSTORE PUSH1 0x4 ADD PUSH2 0x1124 SWAP1 PUSH2 0x2465 JUMP JUMPDEST PUSH1 0x40 MLOAD DUP1 SWAP2 SUB SWAP1 REVERT JUMPDEST DUP2 PUSH20 0xFFFFFFFFFFFFFFFFFFFFFFFFFFFFFFFFFFFFFFFF AND DUP5 PUSH20 0xFFFFFFFFFFFFFFFFFFFFFFFFFFFFFFFFFFFFFFFF AND SUB PUSH2 0x119B JUMPI PUSH1 0x40 MLOAD PUSH32 0x8C379A000000000000000000000000000000000000000000000000000000000 DUP2 MSTORE PUSH1 0x4 ADD PUSH2 0x1192 SWAP1 PUSH2 0x24F3 JUMP JUMPDEST PUSH1 0x40 MLOAD DUP1 SWAP2 SUB SWAP1 REVERT JUMPDEST DUP1 PUSH1 0x1 PUSH0 CALLER PUSH20 0xFFFFFFFFFFFFFFFFFFFFFFFFFFFFFFFFFFFFFFFF AND PUSH20 0xFFFFFFFFFFFFFFFFFFFFFFFFFFFFFFFFFFFFFFFF AND DUP2 MSTORE PUSH1 0x20 ADD SWAP1 DUP2 MSTORE PUSH1 0x20 ADD PUSH0 KECCAK256 PUSH0 DUP5 PUSH20 0xFFFFFFFFFFFFFFFFFFFFFFFFFFFFFFFFFFFFFFFF AND PUSH20 0xFFFFFFFFFFFFFFFFFFFFFFFFFFFFFFFFFFFFFFFF AND DUP2 MSTORE PUSH1 0x20 ADD SWAP1 DUP2 MSTORE PUSH1 0x20 ADD PUSH0 KECCAK256 SLOAD LT ISZERO PUSH2 0x1256 JUMPI PUSH1 0x40 MLOAD PUSH32 0x8C379A000000000000000000000000000000000000000000000000000000000 DUP2 MSTORE PUSH1 0x4 ADD PUSH2 0x124D SWAP1 PUSH2 0x255B JUMP JUMPDEST PUSH1 0x40 MLOAD DUP1 SWAP2 SUB SWAP1 REVERT JUMPDEST DUP1 PUSH1 0x1 PUSH0 CALLER PUSH20 0xFFFFFFFFFFFFFFFFFFFFFFFFFFFFFFFFFFFFFFFF AND PUSH20 0xFFFFFFFFFFFFFFFFFFFFFFFFFFFFFFFFFFFFFFFF AND DUP2 MSTORE PUSH1 0x20 ADD SWAP1 DUP2 MSTORE PUSH1 0x20 ADD PUSH0 KECCAK256 PUSH0 DUP5 PUSH20 0xFFFFFFFFFFFFFFFFFFFFFFFFFFFFFFFFFFFFFFFF AND PUSH20 0xFFFFFFFFFFFFFFFFFFFFFFFFFFFFFFFFFFFFFFFF AND DUP2 MSTORE PUSH1 0x20 ADD SWAP1 DUP2 MSTORE PUSH1 0x20 ADD PUSH0 KECCAK256 PUSH0 DUP3 DUP3 SLOAD PUSH2 0x12DD SWAP2 SWAP1 PUSH2 0x2579 JUMP JUMPDEST SWAP3 POP POP DUP2 SWAP1 SSTORE POP PUSH1 0x2 PUSH0 CALLER PUSH20 0xFFFFFFFFFFFFFFFFFFFFFFFFFFFFFFFFFFFFFFFF AND PUSH20 0xFFFFFFFFFFFFFFFFFFFFFFFFFFFFFFFFFFFFFFFF AND DUP2 MSTORE PUSH1 0x20 ADD SWAP1 DUP2 MSTORE PUSH1 0x20 ADD PUSH0 KECCAK256 PUSH1 0x40 MLOAD DUP1 PUSH1 0xC0 ADD PUSH1 0x40 MSTORE DUP1 CALLER PUSH20 0xFFFFFFFFFFFFFFFFFFFFFFFFFFFFFFFFFFFFFFFF AND DUP2 MSTORE PUSH1 0x20 ADD DUP7 PUSH20 0xFFFFFFFFFFFFFFFFFFFFFFFFFFFFFFFFFFFFFFFF AND DUP2 MSTORE PUSH1 0x20 ADD DUP6 DUP2 MSTORE PUSH1 0x20 ADD DUP5 PUSH20 0xFFFFFFFFFFFFFFFFFFFFFFFFFFFFFFFFFFFFFFFF AND DUP2 MSTORE PUSH1 0x20 ADD DUP4 DUP2 MSTORE PUSH1 0x20 ADD PUSH1 0x1 ISZERO ISZERO DUP2 MSTORE POP SWAP1 DUP1 PUSH1 0x1 DUP2 SLOAD ADD DUP1 DUP3 SSTORE DUP1 SWAP2 POP POP PUSH1 0x1 SWAP1 SUB SWAP1 PUSH0 MSTORE PUSH1 0x20 PUSH0 KECCAK256 SWAP1 PUSH1 0x6 MUL ADD PUSH0 SWAP1 SWAP2 SWAP1 SWAP2 SWAP1 SWAP2 POP PUSH0 DUP3 ADD MLOAD DUP2 PUSH0 ADD PUSH0 PUSH2 0x100 EXP DUP2 SLOAD DUP2 PUSH20 0xFFFFFFFFFFFFFFFFFFFFFFFFFFFFFFFFFFFFFFFF MUL NOT AND SWAP1 DUP4 PUSH20 0xFFFFFFFFFFFFFFFFFFFFFFFFFFFFFFFFFFFFFFFF AND MUL OR SWAP1 SSTORE POP PUSH1 0x20 DUP3 ADD MLOAD DUP2 PUSH1 0x1 ADD PUSH0 PUSH2 0x100 EXP DUP2 SLOAD DUP2 PUSH20 0xFFFFFFFFFFFFFFFFFFFFFFFFFFFFFFFFFFFFFFFF MUL NOT AND SWAP1 DUP4 PUSH20 0xFFFFFFFFFFFFFFFFFFFFFFFFFFFFFFFFFFFFFFFF AND MUL OR SWAP1 SSTORE POP PUSH1 0x40 DUP3 ADD MLOAD DUP2 PUSH1 0x2 ADD SSTORE PUSH1 0x60 DUP3 ADD MLOAD DUP2 PUSH1 0x3 ADD PUSH0 PUSH2 0x100 EXP DUP2 SLOAD DUP2 PUSH20 0xFFFFFFFFFFFFFFFFFFFFFFFFFFFFFFFFFFFFFFFF MUL NOT AND SWAP1 DUP4 PUSH20 0xFFFFFFFFFFFFFFFFFFFFFFFFFFFFFFFFFFFFFFFF AND MUL OR SWAP1 SSTORE POP PUSH1 0x80 DUP3 ADD MLOAD DUP2 PUSH1 0x4 ADD SSTORE PUSH1 0xA0 DUP3 ADD MLOAD DUP2 PUSH1 0x5 ADD PUSH0 PUSH2 0x100 EXP DUP2 SLOAD DUP2 PUSH1 0xFF MUL NOT AND SWAP1 DUP4 ISZERO ISZERO MUL OR SWAP1 SSTORE POP POP POP PUSH0 PUSH20 0xFFFFFFFFFFFFFFFFFFFFFFFFFFFFFFFFFFFFFFFF AND DUP5 PUSH20 0xFFFFFFFFFFFFFFFFFFFFFFFFFFFFFFFFFFFFFFFF AND SUB PUSH2 0x153A JUMPI CALLER PUSH20 0xFFFFFFFFFFFFFFFFFFFFFFFFFFFFFFFFFFFFFFFF AND PUSH2 0x8FC DUP5 SWAP1 DUP2 ISZERO MUL SWAP1 PUSH1 0x40 MLOAD PUSH0 PUSH1 0x40 MLOAD DUP1 DUP4 SUB DUP2 DUP6 DUP9 DUP9 CALL SWAP4 POP POP POP POP ISZERO DUP1 ISZERO PUSH2 0x1534 JUMPI RETURNDATASIZE PUSH0 DUP1 RETURNDATACOPY RETURNDATASIZE PUSH0 REVERT JUMPDEST POP PUSH2 0x15F5 JUMP JUMPDEST DUP4 PUSH20 0xFFFFFFFFFFFFFFFFFFFFFFFFFFFFFFFFFFFFFFFF AND PUSH4 0xA9059CBB CALLER DUP6 PUSH1 0x40 MLOAD DUP4 PUSH4 0xFFFFFFFF AND PUSH1 0xE0 SHL DUP2 MSTORE PUSH1 0x4 ADD PUSH2 0x1575 SWAP3 SWAP2 SWAP1 PUSH2 0x25AC JUMP JUMPDEST PUSH1 0x20 PUSH1 0x40 MLOAD DUP1 DUP4 SUB DUP2 PUSH0 DUP8 GAS CALL ISZERO DUP1 ISZERO PUSH2 0x1591 JUMPI RETURNDATASIZE PUSH0 DUP1 RETURNDATACOPY RETURNDATASIZE PUSH0 REVERT JUMPDEST POP POP POP POP PUSH1 0x40 MLOAD RETURNDATASIZE PUSH1 0x1F NOT PUSH1 0x1F DUP3 ADD AND DUP3 ADD DUP1 PUSH1 0x40 MSTORE POP DUP2 ADD SWAP1 PUSH2 0x15B5 SWAP2 SWAP1 PUSH2 0x2188 JUMP JUMPDEST PUSH2 0x15F4 JUMPI PUSH1 0x40 MLOAD PUSH32 0x8C379A000000000000000000000000000000000000000000000000000000000 DUP2 MSTORE PUSH1 0x4 ADD PUSH2 0x15EB SWAP1 PUSH2 0x261D JUMP JUMPDEST PUSH1 0x40 MLOAD DUP1 SWAP2 SUB SWAP1 REVERT JUMPDEST JUMPDEST DUP2 PUSH20 0xFFFFFFFFFFFFFFFFFFFFFFFFFFFFFFFFFFFFFFFF AND DUP5 PUSH20 0xFFFFFFFFFFFFFFFFFFFFFFFFFFFFFFFFFFFFFFFF AND CALLER PUSH20 0xFFFFFFFFFFFFFFFFFFFFFFFFFFFFFFFFFFFFFFFF AND PUSH32 0x96BF4D524A427510FE8AB2FC75BA6F1A56AF9E8B6C33CDCC4F05ECC04E2B25FA DUP7 DUP6 PUSH1 0x40 MLOAD PUSH2 0x166B SWAP3 SWAP2 SWAP1 PUSH2 0x263B JUMP JUMPDEST PUSH1 0x40 MLOAD DUP1 SWAP2 SUB SWAP1 LOG4 POP POP POP POP JUMP JUMPDEST PUSH0 PUSH1 0x1 PUSH0 CALLER PUSH20 0xFFFFFFFFFFFFFFFFFFFFFFFFFFFFFFFFFFFFFFFF AND PUSH20 0xFFFFFFFFFFFFFFFFFFFFFFFFFFFFFFFFFFFFFFFF AND DUP2 MSTORE PUSH1 0x20 ADD SWAP1 DUP2 MSTORE PUSH1 0x20 ADD PUSH0 KECCAK256 PUSH0 DUP4 PUSH20 0xFFFFFFFFFFFFFFFFFFFFFFFFFFFFFFFFFFFFFFFF AND PUSH20 0xFFFFFFFFFFFFFFFFFFFFFFFFFFFFFFFFFFFFFFFF AND DUP2 MSTORE PUSH1 0x20 ADD SWAP1 DUP2 MSTORE PUSH1 0x20 ADD PUSH0 KECCAK256 SLOAD SWAP1 POP SWAP2 SWAP1 POP JUMP JUMPDEST PUSH2 0x1702 PUSH2 0x1A67 JUMP JUMPDEST PUSH0 PUSH20 0xFFFFFFFFFFFFFFFFFFFFFFFFFFFFFFFFFFFFFFFF AND DUP2 PUSH20 0xFFFFFFFFFFFFFFFFFFFFFFFFFFFFFFFFFFFFFFFF AND SUB PUSH2 0x1772 JUMPI PUSH0 PUSH1 0x40 MLOAD PUSH32 0x1E4FBDF700000000000000000000000000000000000000000000000000000000 DUP2 MSTORE PUSH1 0x4 ADD PUSH2 0x1769 SWAP2 SWAP1 PUSH2 0x1BF5 JUMP JUMPDEST PUSH1 0x40 MLOAD DUP1 SWAP2 SUB SWAP1 REVERT JUMPDEST PUSH2 0x177B DUP2 PUSH2 0x1AEE JUMP JUMPDEST POP JUMP JUMPDEST DUP1 PUSH1 0x1 PUSH0 CALLER PUSH20 0xFFFFFFFFFFFFFFFFFFFFFFFFFFFFFFFFFFFFFFFF AND PUSH20 0xFFFFFFFFFFFFFFFFFFFFFFFFFFFFFFFFFFFFFFFF AND DUP2 MSTORE PUSH1 0x20 ADD SWAP1 DUP2 MSTORE PUSH1 0x20 ADD PUSH0 KECCAK256 PUSH0 DUP5 PUSH20 0xFFFFFFFFFFFFFFFFFFFFFFFFFFFFFFFFFFFFFFFF AND PUSH20 0xFFFFFFFFFFFFFFFFFFFFFFFFFFFFFFFFFFFFFFFF AND DUP2 MSTORE PUSH1 0x20 ADD SWAP1 DUP2 MSTORE PUSH1 0x20 ADD PUSH0 KECCAK256 SLOAD LT ISZERO PUSH2 0x1839 JUMPI PUSH1 0x40 MLOAD PUSH32 0x8C379A000000000000000000000000000000000000000000000000000000000 DUP2 MSTORE PUSH1 0x4 ADD PUSH2 0x1830 SWAP1 PUSH2 0x26AC JUMP JUMPDEST PUSH1 0x40 MLOAD DUP1 SWAP2 SUB SWAP1 REVERT JUMPDEST DUP1 PUSH1 0x1 PUSH0 CALLER PUSH20 0xFFFFFFFFFFFFFFFFFFFFFFFFFFFFFFFFFFFFFFFF AND PUSH20 0xFFFFFFFFFFFFFFFFFFFFFFFFFFFFFFFFFFFFFFFF AND DUP2 MSTORE PUSH1 0x20 ADD SWAP1 DUP2 MSTORE PUSH1 0x20 ADD PUSH0 KECCAK256 PUSH0 DUP5 PUSH20 0xFFFFFFFFFFFFFFFFFFFFFFFFFFFFFFFFFFFFFFFF AND PUSH20 0xFFFFFFFFFFFFFFFFFFFFFFFFFFFFFFFFFFFFFFFF AND DUP2 MSTORE PUSH1 0x20 ADD SWAP1 DUP2 MSTORE PUSH1 0x20 ADD PUSH0 KECCAK256 PUSH0 DUP3 DUP3 SLOAD PUSH2 0x18C0 SWAP2 SWAP1 PUSH2 0x2579 JUMP JUMPDEST SWAP3 POP POP DUP2 SWAP1 SSTORE POP PUSH0 PUSH20 0xFFFFFFFFFFFFFFFFFFFFFFFFFFFFFFFFFFFFFFFF AND DUP3 PUSH20 0xFFFFFFFFFFFFFFFFFFFFFFFFFFFFFFFFFFFFFFFF AND SUB PUSH2 0x1943 JUMPI CALLER PUSH20 0xFFFFFFFFFFFFFFFFFFFFFFFFFFFFFFFFFFFFFFFF AND PUSH2 0x8FC DUP3 SWAP1 DUP2 ISZERO MUL SWAP1 PUSH1 0x40 MLOAD PUSH0 PUSH1 0x40 MLOAD DUP1 DUP4 SUB DUP2 DUP6 DUP9 DUP9 CALL SWAP4 POP POP POP POP ISZERO DUP1 ISZERO PUSH2 0x193D JUMPI RETURNDATASIZE PUSH0 DUP1 RETURNDATACOPY RETURNDATASIZE PUSH0 REVERT JUMPDEST POP PUSH2 0x19FE JUMP JUMPDEST DUP2 PUSH20 0xFFFFFFFFFFFFFFFFFFFFFFFFFFFFFFFFFFFFFFFF AND PUSH4 0xA9059CBB CALLER DUP4 PUSH1 0x40 MLOAD DUP4 PUSH4 0xFFFFFFFF AND PUSH1 0xE0 SHL DUP2 MSTORE PUSH1 0x4 ADD PUSH2 0x197E SWAP3 SWAP2 SWAP1 PUSH2 0x25AC JUMP JUMPDEST PUSH1 0x20 PUSH1 0x40 MLOAD DUP1 DUP4 SUB DUP2 PUSH0 DUP8 GAS CALL ISZERO DUP1 ISZERO PUSH2 0x199A JUMPI RETURNDATASIZE PUSH0 DUP1 RETURNDATACOPY RETURNDATASIZE PUSH0 REVERT JUMPDEST POP POP POP POP PUSH1 0x40 MLOAD RETURNDATASIZE PUSH1 0x1F NOT PUSH1 0x1F DUP3 ADD AND DUP3 ADD DUP1 PUSH1 0x40 MSTORE POP DUP2 ADD SWAP1 PUSH2 0x19BE SWAP2 SWAP1 PUSH2 0x2188 JUMP JUMPDEST PUSH2 0x19FD JUMPI PUSH1 0x40 MLOAD PUSH32 0x8C379A000000000000000000000000000000000000000000000000000000000 DUP2 MSTORE PUSH1 0x4 ADD PUSH2 0x19F4 SWAP1 PUSH2 0x2395 JUMP JUMPDEST PUSH1 0x40 MLOAD DUP1 SWAP2 SUB SWAP1 REVERT JUMPDEST JUMPDEST DUP2 PUSH20 0xFFFFFFFFFFFFFFFFFFFFFFFFFFFFFFFFFFFFFFFF AND CALLER PUSH20 0xFFFFFFFFFFFFFFFFFFFFFFFFFFFFFFFFFFFFFFFF AND PUSH32 0xD1C19FBCD4551A5EDFB66D43D2E337C04837AFDA3482B42BDF569A8FCCDAE5FB DUP4 PUSH1 0x40 MLOAD PUSH2 0x1A5B SWAP2 SWAP1 PUSH2 0x1D25 JUMP JUMPDEST PUSH1 0x40 MLOAD DUP1 SWAP2 SUB SWAP1 LOG3 POP POP JUMP JUMPDEST PUSH2 0x1A6F PUSH2 0x1BAF JUMP JUMPDEST PUSH20 0xFFFFFFFFFFFFFFFFFFFFFFFFFFFFFFFFFFFFFFFF AND PUSH2 0x1A8D PUSH2 0xB64 JUMP JUMPDEST PUSH20 0xFFFFFFFFFFFFFFFFFFFFFFFFFFFFFFFFFFFFFFFF AND EQ PUSH2 0x1AEC JUMPI PUSH2 0x1AB0 PUSH2 0x1BAF JUMP JUMPDEST PUSH1 0x40 MLOAD PUSH32 0x118CDAA700000000000000000000000000000000000000000000000000000000 DUP2 MSTORE PUSH1 0x4 ADD PUSH2 0x1AE3 SWAP2 SWAP1 PUSH2 0x1BF5 JUMP JUMPDEST PUSH1 0x40 MLOAD DUP1 SWAP2 SUB SWAP1 REVERT JUMPDEST JUMP JUMPDEST PUSH0 DUP1 PUSH0 SWAP1 SLOAD SWAP1 PUSH2 0x100 EXP SWAP1 DIV PUSH20 0xFFFFFFFFFFFFFFFFFFFFFFFFFFFFFFFFFFFFFFFF AND SWAP1 POP DUP2 PUSH0 DUP1 PUSH2 0x100 EXP DUP2 SLOAD DUP2 PUSH20 0xFFFFFFFFFFFFFFFFFFFFFFFFFFFFFFFFFFFFFFFF MUL NOT AND SWAP1 DUP4 PUSH20 0xFFFFFFFFFFFFFFFFFFFFFFFFFFFFFFFFFFFFFFFF AND MUL OR SWAP1 SSTORE POP DUP2 PUSH20 0xFFFFFFFFFFFFFFFFFFFFFFFFFFFFFFFFFFFFFFFF AND DUP2 PUSH20 0xFFFFFFFFFFFFFFFFFFFFFFFFFFFFFFFFFFFFFFFF AND PUSH32 0x8BE0079C531659141344CD1FD0A4F28419497F9722A3DAAFE3B4186F6B6457E0 PUSH1 0x40 MLOAD PUSH1 0x40 MLOAD DUP1 SWAP2 SUB SWAP1 LOG3 POP POP JUMP JUMPDEST PUSH0 CALLER SWAP1 POP SWAP1 JUMP JUMPDEST PUSH0 PUSH20 0xFFFFFFFFFFFFFFFFFFFFFFFFFFFFFFFFFFFFFFFF DUP3 AND SWAP1 POP SWAP2 SWAP1 POP JUMP JUMPDEST PUSH0 PUSH2 0x1BDF DUP3 PUSH2 0x1BB6 JUMP JUMPDEST SWAP1 POP SWAP2 SWAP1 POP JUMP JUMPDEST PUSH2 0x1BEF DUP2 PUSH2 0x1BD5 JUMP JUMPDEST DUP3 MSTORE POP POP JUMP JUMPDEST PUSH0 PUSH1 0x20 DUP3 ADD SWAP1 POP PUSH2 0x1C08 PUSH0 DUP4 ADD DUP5 PUSH2 0x1BE6 JUMP JUMPDEST SWAP3 SWAP2 POP POP JUMP JUMPDEST PUSH0 DUP1 REVERT JUMPDEST PUSH0 DUP2 SWAP1 POP SWAP2 SWAP1 POP JUMP JUMPDEST PUSH2 0x1C24 DUP2 PUSH2 0x1C12 JUMP JUMPDEST DUP2 EQ PUSH2 0x1C2E JUMPI PUSH0 DUP1 REVERT JUMPDEST POP JUMP JUMPDEST PUSH0 DUP2 CALLDATALOAD SWAP1 POP PUSH2 0x1C3F DUP2 PUSH2 0x1C1B JUMP JUMPDEST SWAP3 SWAP2 POP POP JUMP JUMPDEST PUSH0 PUSH1 0x20 DUP3 DUP5 SUB SLT ISZERO PUSH2 0x1C5A JUMPI PUSH2 0x1C59 PUSH2 0x1C0E JUMP JUMPDEST JUMPDEST PUSH0 PUSH2 0x1C67 DUP5 DUP3 DUP6 ADD PUSH2 0x1C31 JUMP JUMPDEST SWAP2 POP POP SWAP3 SWAP2 POP POP JUMP JUMPDEST PUSH2 0x1C79 DUP2 PUSH2 0x1BD5 JUMP JUMPDEST DUP2 EQ PUSH2 0x1C83 JUMPI PUSH0 DUP1 REVERT JUMPDEST POP JUMP JUMPDEST PUSH0 DUP2 CALLDATALOAD SWAP1 POP PUSH2 0x1C94 DUP2 PUSH2 0x1C70 JUMP JUMPDEST SWAP3 SWAP2 POP POP JUMP JUMPDEST PUSH0 DUP1 PUSH1 0x40 DUP4 DUP6 SUB SLT ISZERO PUSH2 0x1CB0 JUMPI PUSH2 0x1CAF PUSH2 0x1C0E JUMP JUMPDEST JUMPDEST PUSH0 PUSH2 0x1CBD DUP6 DUP3 DUP7 ADD PUSH2 0x1C86 JUMP JUMPDEST SWAP3 POP POP PUSH1 0x20 PUSH2 0x1CCE DUP6 DUP3 DUP7 ADD PUSH2 0x1C31 JUMP JUMPDEST SWAP2 POP POP SWAP3 POP SWAP3 SWAP1 POP JUMP JUMPDEST PUSH0 DUP1 PUSH1 0x40 DUP4 DUP6 SUB SLT ISZERO PUSH2 0x1CEE JUMPI PUSH2 0x1CED PUSH2 0x1C0E JUMP JUMPDEST JUMPDEST PUSH0 PUSH2 0x1CFB DUP6 DUP3 DUP7 ADD PUSH2 0x1C86 JUMP JUMPDEST SWAP3 POP POP PUSH1 0x20 PUSH2 0x1D0C DUP6 DUP3 DUP7 ADD PUSH2 0x1C86 JUMP JUMPDEST SWAP2 POP POP SWAP3 POP SWAP3 SWAP1 POP JUMP JUMPDEST PUSH2 0x1D1F DUP2 PUSH2 0x1C12 JUMP JUMPDEST DUP3 MSTORE POP POP JUMP JUMPDEST PUSH0 PUSH1 0x20 DUP3 ADD SWAP1 POP PUSH2 0x1D38 PUSH0 DUP4 ADD DUP5 PUSH2 0x1D16 JUMP JUMPDEST SWAP3 SWAP2 POP POP JUMP JUMPDEST PUSH0 DUP2 ISZERO ISZERO SWAP1 POP SWAP2 SWAP1 POP JUMP JUMPDEST PUSH2 0x1D52 DUP2 PUSH2 0x1D3E JUMP JUMPDEST DUP3 MSTORE POP POP JUMP JUMPDEST PUSH0 PUSH1 0xC0 DUP3 ADD SWAP1 POP PUSH2 0x1D6B PUSH0 DUP4 ADD DUP10 PUSH2 0x1BE6 JUMP JUMPDEST PUSH2 0x1D78 PUSH1 0x20 DUP4 ADD DUP9 PUSH2 0x1BE6 JUMP JUMPDEST PUSH2 0x1D85 PUSH1 0x40 DUP4 ADD DUP8 PUSH2 0x1D16 JUMP JUMPDEST PUSH2 0x1D92 PUSH1 0x60 DUP4 ADD DUP7 PUSH2 0x1BE6 JUMP JUMPDEST PUSH2 0x1D9F PUSH1 0x80 DUP4 ADD DUP6 PUSH2 0x1D16 JUMP JUMPDEST PUSH2 0x1DAC PUSH1 0xA0 DUP4 ADD DUP5 PUSH2 0x1D49 JUMP JUMPDEST SWAP8 SWAP7 POP POP POP POP POP POP POP JUMP JUMPDEST PUSH0 DUP2 MLOAD SWAP1 POP SWAP2 SWAP1 POP JUMP JUMPDEST PUSH0 DUP3 DUP3 MSTORE PUSH1 0x20 DUP3 ADD SWAP1 POP SWAP3 SWAP2 POP POP JUMP JUMPDEST PUSH0 DUP2 SWAP1 POP PUSH1 0x20 DUP3 ADD SWAP1 POP SWAP2 SWAP1 POP JUMP JUMPDEST PUSH2 0x1DE9 DUP2 PUSH2 0x1BD5 JUMP JUMPDEST DUP3 MSTORE POP POP JUMP JUMPDEST PUSH2 0x1DF8 DUP2 PUSH2 0x1C12 JUMP JUMPDEST DUP3 MSTORE POP POP JUMP JUMPDEST PUSH2 0x1E07 DUP2 PUSH2 0x1D3E JUMP JUMPDEST DUP3 MSTORE POP POP JUMP JUMPDEST PUSH1 0xC0 DUP3 ADD PUSH0 DUP3 ADD MLOAD PUSH2 0x1E21 PUSH0 DUP6 ADD DUP3 PUSH2 0x1DE0 JUMP JUMPDEST POP PUSH1 0x20 DUP3 ADD MLOAD PUSH2 0x1E34 PUSH1 0x20 DUP6 ADD DUP3 PUSH2 0x1DE0 JUMP JUMPDEST POP PUSH1 0x40 DUP3 ADD MLOAD PUSH2 0x1E47 PUSH1 0x40 DUP6 ADD DUP3 PUSH2 0x1DEF JUMP JUMPDEST POP PUSH1 0x60 DUP3 ADD MLOAD PUSH2 0x1E5A PUSH1 0x60 DUP6 ADD DUP3 PUSH2 0x1DE0 JUMP JUMPDEST POP PUSH1 0x80 DUP3 ADD MLOAD PUSH2 0x1E6D PUSH1 0x80 DUP6 ADD DUP3 PUSH2 0x1DEF JUMP JUMPDEST POP PUSH1 0xA0 DUP3 ADD MLOAD PUSH2 0x1E80 PUSH1 0xA0 DUP6 ADD DUP3 PUSH2 0x1DFE JUMP JUMPDEST POP POP POP POP JUMP JUMPDEST PUSH0 PUSH2 0x1E91 DUP4 DUP4 PUSH2 0x1E0D JUMP JUMPDEST PUSH1 0xC0 DUP4 ADD SWAP1 POP SWAP3 SWAP2 POP POP JUMP JUMPDEST PUSH0 PUSH1 0x20 DUP3 ADD SWAP1 POP SWAP2 SWAP1 POP JUMP JUMPDEST PUSH0 PUSH2 0x1EB3 DUP3 PUSH2 0x1DB7 JUMP JUMPDEST PUSH2 0x1EBD DUP2 DUP6 PUSH2 0x1DC1 JUMP JUMPDEST SWAP4 POP PUSH2 0x1EC8 DUP4 PUSH2 0x1DD1 JUMP JUMPDEST DUP1 PUSH0 JUMPDEST DUP4 DUP2 LT ISZERO PUSH2 0x1EF8 JUMPI DUP2 MLOAD PUSH2 0x1EDF DUP9 DUP3 PUSH2 0x1E86 JUMP JUMPDEST SWAP8 POP PUSH2 0x1EEA DUP4 PUSH2 0x1E9D JUMP JUMPDEST SWAP3 POP POP PUSH1 0x1 DUP2 ADD SWAP1 POP PUSH2 0x1ECB JUMP JUMPDEST POP DUP6 SWAP4 POP POP POP POP SWAP3 SWAP2 POP POP JUMP JUMPDEST PUSH0 PUSH1 0x20 DUP3 ADD SWAP1 POP DUP2 DUP2 SUB PUSH0 DUP4 ADD MSTORE PUSH2 0x1F1D DUP2 DUP5 PUSH2 0x1EA9 JUMP JUMPDEST SWAP1 POP SWAP3 SWAP2 POP POP JUMP JUMPDEST PUSH0 DUP1 PUSH0 DUP1 PUSH1 0x80 DUP6 DUP8 SUB SLT ISZERO PUSH2 0x1F3D JUMPI PUSH2 0x1F3C PUSH2 0x1C0E JUMP JUMPDEST JUMPDEST PUSH0 PUSH2 0x1F4A DUP8 DUP3 DUP9 ADD PUSH2 0x1C86 JUMP JUMPDEST SWAP5 POP POP PUSH1 0x20 PUSH2 0x1F5B DUP8 DUP3 DUP9 ADD PUSH2 0x1C31 JUMP JUMPDEST SWAP4 POP POP PUSH1 0x40 PUSH2 0x1F6C DUP8 DUP3 DUP9 ADD PUSH2 0x1C86 JUMP JUMPDEST SWAP3 POP POP PUSH1 0x60 PUSH2 0x1F7D DUP8 DUP3 DUP9 ADD PUSH2 0x1C31 JUMP JUMPDEST SWAP2 POP POP SWAP3 SWAP6 SWAP2 SWAP5 POP SWAP3 POP JUMP JUMPDEST PUSH0 PUSH1 0x20 DUP3 DUP5 SUB SLT ISZERO PUSH2 0x1F9E JUMPI PUSH2 0x1F9D PUSH2 0x1C0E JUMP JUMPDEST JUMPDEST PUSH0 PUSH2 0x1FAB DUP5 DUP3 DUP6 ADD PUSH2 0x1C86 JUMP JUMPDEST SWAP2 POP POP SWAP3 SWAP2 POP POP JUMP JUMPDEST PUSH0 DUP3 DUP3 MSTORE PUSH1 0x20 DUP3 ADD SWAP1 POP SWAP3 SWAP2 POP POP JUMP JUMPDEST PUSH32 0x496E76616C6964206C6F616E20696E6465780000000000000000000000000000 PUSH0 DUP3 ADD MSTORE POP JUMP JUMPDEST PUSH0 PUSH2 0x1FF8 PUSH1 0x12 DUP4 PUSH2 0x1FB4 JUMP JUMPDEST SWAP2 POP PUSH2 0x2003 DUP3 PUSH2 0x1FC4 JUMP JUMPDEST PUSH1 0x20 DUP3 ADD SWAP1 POP SWAP2 SWAP1 POP JUMP JUMPDEST PUSH0 PUSH1 0x20 DUP3 ADD SWAP1 POP DUP2 DUP2 SUB PUSH0 DUP4 ADD MSTORE PUSH2 0x2025 DUP2 PUSH2 0x1FEC JUMP JUMPDEST SWAP1 POP SWAP2 SWAP1 POP JUMP JUMPDEST PUSH32 0x4E487B7100000000000000000000000000000000000000000000000000000000 PUSH0 MSTORE PUSH1 0x32 PUSH1 0x4 MSTORE PUSH1 0x24 PUSH0 REVERT JUMPDEST PUSH32 0x4C6F616E20616C72656164792072657061696400000000000000000000000000 PUSH0 DUP3 ADD MSTORE POP JUMP JUMPDEST PUSH0 PUSH2 0x208D PUSH1 0x13 DUP4 PUSH2 0x1FB4 JUMP JUMPDEST SWAP2 POP PUSH2 0x2098 DUP3 PUSH2 0x2059 JUMP JUMPDEST PUSH1 0x20 DUP3 ADD SWAP1 POP SWAP2 SWAP1 POP JUMP JUMPDEST PUSH0 PUSH1 0x20 DUP3 ADD SWAP1 POP DUP2 DUP2 SUB PUSH0 DUP4 ADD MSTORE PUSH2 0x20BA DUP2 PUSH2 0x2081 JUMP JUMPDEST SWAP1 POP SWAP2 SWAP1 POP JUMP JUMPDEST PUSH32 0x4554482072657061796D656E74206D69736D6174636800000000000000000000 PUSH0 DUP3 ADD MSTORE POP JUMP JUMPDEST PUSH0 PUSH2 0x20F5 PUSH1 0x16 DUP4 PUSH2 0x1FB4 JUMP JUMPDEST SWAP2 POP PUSH2 0x2100 DUP3 PUSH2 0x20C1 JUMP JUMPDEST PUSH1 0x20 DUP3 ADD SWAP1 POP SWAP2 SWAP1 POP JUMP JUMPDEST PUSH0 PUSH1 0x20 DUP3 ADD SWAP1 POP DUP2 DUP2 SUB PUSH0 DUP4 ADD MSTORE PUSH2 0x2122 DUP2 PUSH2 0x20E9 JUMP JUMPDEST SWAP1 POP SWAP2 SWAP1 POP JUMP JUMPDEST PUSH0 PUSH1 0x60 DUP3 ADD SWAP1 POP PUSH2 0x213C PUSH0 DUP4 ADD DUP7 PUSH2 0x1BE6 JUMP JUMPDEST PUSH2 0x2149 PUSH1 0x20 DUP4 ADD DUP6 PUSH2 0x1BE6 JUMP JUMPDEST PUSH2 0x2156 PUSH1 0x40 DUP4 ADD DUP5 PUSH2 0x1D16 JUMP JUMPDEST SWAP5 SWAP4 POP POP POP POP JUMP JUMPDEST PUSH2 0x2167 DUP2 PUSH2 0x1D3E JUMP JUMPDEST DUP2 EQ PUSH2 0x2171 JUMPI PUSH0 DUP1 REVERT JUMPDEST POP JUMP JUMPDEST PUSH0 DUP2 MLOAD SWAP1 POP PUSH2 0x2182 DUP2 PUSH2 0x215E JUMP JUMPDEST SWAP3 SWAP2 POP POP JUMP JUMPDEST PUSH0 PUSH1 0x20 DUP3 DUP5 SUB SLT ISZERO PUSH2 0x219D JUMPI PUSH2 0x219C PUSH2 0x1C0E JUMP JUMPDEST JUMPDEST PUSH0 PUSH2 0x21AA DUP5 DUP3 DUP6 ADD PUSH2 0x2174 JUMP JUMPDEST SWAP2 POP POP SWAP3 SWAP2 POP POP JUMP JUMPDEST PUSH32 0x4C6F616E2072657061796D656E74206661696C65640000000000000000000000 PUSH0 DUP3 ADD MSTORE POP JUMP JUMPDEST PUSH0 PUSH2 0x21E7 PUSH1 0x15 DUP4 PUSH2 0x1FB4 JUMP JUMPDEST SWAP2 POP PUSH2 0x21F2 DUP3 PUSH2 0x21B3 JUMP JUMPDEST PUSH1 0x20 DUP3 ADD SWAP1 POP SWAP2 SWAP1 POP JUMP JUMPDEST PUSH0 PUSH1 0x20 DUP3 ADD SWAP1 POP DUP2 DUP2 SUB PUSH0 DUP4 ADD MSTORE PUSH2 0x2214 DUP2 PUSH2 0x21DB JUMP JUMPDEST SWAP1 POP SWAP2 SWAP1 POP JUMP JUMPDEST PUSH32 0x4E487B7100000000000000000000000000000000000000000000000000000000 PUSH0 MSTORE PUSH1 0x11 PUSH1 0x4 MSTORE PUSH1 0x24 PUSH0 REVERT JUMPDEST PUSH0 PUSH2 0x2252 DUP3 PUSH2 0x1C12 JUMP JUMPDEST SWAP2 POP PUSH2 0x225D DUP4 PUSH2 0x1C12 JUMP JUMPDEST SWAP3 POP DUP3 DUP3 ADD SWAP1 POP DUP1 DUP3 GT ISZERO PUSH2 0x2275 JUMPI PUSH2 0x2274 PUSH2 0x221B JUMP JUMPDEST JUMPDEST SWAP3 SWAP2 POP POP JUMP JUMPDEST PUSH32 0x45544820616D6F756E74206D69736D6174636800000000000000000000000000 PUSH0 DUP3 ADD MSTORE POP JUMP JUMPDEST PUSH0 PUSH2 0x22AF PUSH1 0x13 DUP4 PUSH2 0x1FB4 JUMP JUMPDEST SWAP2 POP PUSH2 0x22BA DUP3 PUSH2 0x227B JUMP JUMPDEST PUSH1 0x20 DUP3 ADD SWAP1 POP SWAP2 SWAP1 POP JUMP JUMPDEST PUSH0 PUSH1 0x20 DUP3 ADD SWAP1 POP DUP2 DUP2 SUB PUSH0 DUP4 ADD MSTORE PUSH2 0x22DC DUP2 PUSH2 0x22A3 JUMP JUMPDEST SWAP1 POP SWAP2 SWAP1 POP JUMP JUMPDEST PUSH32 0x496E76616C696420746F6B656E00000000000000000000000000000000000000 PUSH0 DUP3 ADD MSTORE POP JUMP JUMPDEST PUSH0 PUSH2 0x2317 PUSH1 0xD DUP4 PUSH2 0x1FB4 JUMP JUMPDEST SWAP2 POP PUSH2 0x2322 DUP3 PUSH2 0x22E3 JUMP JUMPDEST PUSH1 0x20 DUP3 ADD SWAP1 POP SWAP2 SWAP1 POP JUMP JUMPDEST PUSH0 PUSH1 0x20 DUP3 ADD SWAP1 POP DUP2 DUP2 SUB PUSH0 DUP4 ADD MSTORE PUSH2 0x2344 DUP2 PUSH2 0x230B JUMP JUMPDEST SWAP1 POP SWAP2 SWAP1 POP JUMP JUMPDEST PUSH32 0x5472616E73666572206661696C65640000000000000000000000000000000000 PUSH0 DUP3 ADD MSTORE POP JUMP JUMPDEST PUSH0 PUSH2 0x237F PUSH1 0xF DUP4 PUSH2 0x1FB4 JUMP JUMPDEST SWAP2 POP PUSH2 0x238A DUP3 PUSH2 0x234B JUMP JUMPDEST PUSH1 0x20 DUP3 ADD SWAP1 POP SWAP2 SWAP1 POP JUMP JUMPDEST PUSH0 PUSH1 0x20 DUP3 ADD SWAP1 POP DUP2 DUP2 SUB PUSH0 DUP4 ADD MSTORE PUSH2 0x23AC DUP2 PUSH2 0x2373 JUMP JUMPDEST SWAP1 POP SWAP2 SWAP1 POP JUMP JUMPDEST PUSH32 0x496E76616C6964206C6F616E20746F6B656E0000000000000000000000000000 PUSH0 DUP3 ADD MSTORE POP JUMP JUMPDEST PUSH0 PUSH2 0x23E7 PUSH1 0x12 DUP4 PUSH2 0x1FB4 JUMP JUMPDEST SWAP2 POP PUSH2 0x23F2 DUP3 PUSH2 0x23B3 JUMP JUMPDEST PUSH1 0x20 DUP3 ADD SWAP1 POP SWAP2 SWAP1 POP JUMP JUMPDEST PUSH0 PUSH1 0x20 DUP3 ADD SWAP1 POP DUP2 DUP2 SUB PUSH0 DUP4 ADD MSTORE PUSH2 0x2414 DUP2 PUSH2 0x23DB JUMP JUMPDEST SWAP1 POP SWAP2 SWAP1 POP JUMP JUMPDEST PUSH32 0x496E76616C696420636F6C6C61746572616C20746F6B656E0000000000000000 PUSH0 DUP3 ADD MSTORE POP JUMP JUMPDEST PUSH0 PUSH2 0x244F PUSH1 0x18 DUP4 PUSH2 0x1FB4 JUMP JUMPDEST SWAP2 POP PUSH2 0x245A DUP3 PUSH2 0x241B JUMP JUMPDEST PUSH1 0x20 DUP3 ADD SWAP1 POP SWAP2 SWAP1 POP JUMP JUMPDEST PUSH0 PUSH1 0x20 DUP3 ADD SWAP1 POP DUP2 DUP2 SUB PUSH0 DUP4 ADD MSTORE PUSH2 0x247C DUP2 PUSH2 0x2443 JUMP JUMPDEST SWAP1 POP SWAP2 SWAP1 POP JUMP JUMPDEST PUSH32 0x43616E6E6F7420626F72726F77207468652073616D6520746F6B656E20617320 PUSH0 DUP3 ADD MSTORE PUSH32 0x636F6C6C61746572616C00000000000000000000000000000000000000000000 PUSH1 0x20 DUP3 ADD MSTORE POP JUMP JUMPDEST PUSH0 PUSH2 0x24DD PUSH1 0x2A DUP4 PUSH2 0x1FB4 JUMP JUMPDEST SWAP2 POP PUSH2 0x24E8 DUP3 PUSH2 0x2483 JUMP JUMPDEST PUSH1 0x40 DUP3 ADD SWAP1 POP SWAP2 SWAP1 POP JUMP JUMPDEST PUSH0 PUSH1 0x20 DUP3 ADD SWAP1 POP DUP2 DUP2 SUB PUSH0 DUP4 ADD MSTORE PUSH2 0x250A DUP2 PUSH2 0x24D1 JUMP JUMPDEST SWAP1 POP SWAP2 SWAP1 POP JUMP JUMPDEST PUSH32 0x496E73756666696369656E7420636F6C6C61746572616C000000000000000000 PUSH0 DUP3 ADD MSTORE POP JUMP JUMPDEST PUSH0 PUSH2 0x2545 PUSH1 0x17 DUP4 PUSH2 0x1FB4 JUMP JUMPDEST SWAP2 POP PUSH2 0x2550 DUP3 PUSH2 0x2511 JUMP JUMPDEST PUSH1 0x20 DUP3 ADD SWAP1 POP SWAP2 SWAP1 POP JUMP JUMPDEST PUSH0 PUSH1 0x20 DUP3 ADD SWAP1 POP DUP2 DUP2 SUB PUSH0 DUP4 ADD MSTORE PUSH2 0x2572 DUP2 PUSH2 0x2539 JUMP JUMPDEST SWAP1 POP SWAP2 SWAP1 POP JUMP JUMPDEST PUSH0 PUSH2 0x2583 DUP3 PUSH2 0x1C12 JUMP JUMPDEST SWAP2 POP PUSH2 0x258E DUP4 PUSH2 0x1C12 JUMP JUMPDEST SWAP3 POP DUP3 DUP3 SUB SWAP1 POP DUP2 DUP2 GT ISZERO PUSH2 0x25A6 JUMPI PUSH2 0x25A5 PUSH2 0x221B JUMP JUMPDEST JUMPDEST SWAP3 SWAP2 POP POP JUMP JUMPDEST PUSH0 PUSH1 0x40 DUP3 ADD SWAP1 POP PUSH2 0x25BF PUSH0 DUP4 ADD DUP6 PUSH2 0x1BE6 JUMP JUMPDEST PUSH2 0x25CC PUSH1 0x20 DUP4 ADD DUP5 PUSH2 0x1D16 JUMP JUMPDEST SWAP4 SWAP3 POP POP POP JUMP JUMPDEST PUSH32 0x4C6F616E207472616E73666572206661696C6564000000000000000000000000 PUSH0 DUP3 ADD MSTORE POP JUMP JUMPDEST PUSH0 PUSH2 0x2607 PUSH1 0x14 DUP4 PUSH2 0x1FB4 JUMP JUMPDEST SWAP2 POP PUSH2 0x2612 DUP3 PUSH2 0x25D3 JUMP JUMPDEST PUSH1 0x20 DUP3 ADD SWAP1 POP SWAP2 SWAP1 POP JUMP JUMPDEST PUSH0 PUSH1 0x20 DUP3 ADD SWAP1 POP DUP2 DUP2 SUB PUSH0 DUP4 ADD MSTORE PUSH2 0x2634 DUP2 PUSH2 0x25FB JUMP JUMPDEST SWAP1 POP SWAP2 SWAP1 POP JUMP JUMPDEST PUSH0 PUSH1 0x40 DUP3 ADD SWAP1 POP PUSH2 0x264E PUSH0 DUP4 ADD DUP6 PUSH2 0x1D16 JUMP JUMPDEST PUSH2 0x265B PUSH1 0x20 DUP4 ADD DUP5 PUSH2 0x1D16 JUMP JUMPDEST SWAP4 SWAP3 POP POP POP JUMP JUMPDEST PUSH32 0x496E73756666696369656E742062616C616E6365000000000000000000000000 PUSH0 DUP3 ADD MSTORE POP JUMP JUMPDEST PUSH0 PUSH2 0x2696 PUSH1 0x14 DUP4 PUSH2 0x1FB4 JUMP JUMPDEST SWAP2 POP PUSH2 0x26A1 DUP3 PUSH2 0x2662 JUMP JUMPDEST PUSH1 0x20 DUP3 ADD SWAP1 POP SWAP2 SWAP1 POP JUMP JUMPDEST PUSH0 PUSH1 0x20 DUP3 ADD SWAP1 POP DUP2 DUP2 SUB PUSH0 DUP4 ADD MSTORE PUSH2 0x26C3 DUP2 PUSH2 0x268A JUMP JUMPDEST SWAP1 POP SWAP2 SWAP1 POP JUMP INVALID LOG2 PUSH5 0x6970667358 0x22 SLT KECCAK256 0x2A GASLIMIT DUP12 POP 0x2D EXP 0xE2 SWAP8 0x27 0xE8 0xD2 0x2A PUSH14 0x7970E4E08E0B3E7C2E2D94068DAD PUSH23 0x9018A41264736F6C634300081400330000000000000000 "
				},
				"gasEstimates": {
					"creation": {
						"codeDepositCost": "1996800",
						"executionCost": "infinite",
						"totalCost": "infinite"
					},
					"external": {
						"borrow(address,uint256,address,uint256)": "infinite",
						"deposit(address,uint256)": "infinite",
						"deposits(address,address)": "infinite",
						"getDeposit(address)": "2960",
						"getLoans()": "infinite",
						"loans(address,uint256)": "infinite",
						"owner()": "2582",
						"renounceOwnership()": "infinite",
						"repay(uint256)": "infinite",
						"tokenA()": "infinite",
						"tokenB()": "infinite",
						"tokenC()": "infinite",
						"transferOwnership(address)": "infinite",
						"withdraw(address,uint256)": "infinite"
					}
				},
				"methodIdentifiers": {
					"borrow(address,uint256,address,uint256)": "d0280539",
					"deposit(address,uint256)": "47e7ef24",
					"deposits(address,address)": "8f601f66",
					"getDeposit(address)": "e1254fba",
					"getLoans()": "aa4a8711",
					"loans(address,uint256)": "98c61c37",
					"owner()": "8da5cb5b",
					"renounceOwnership()": "715018a6",
					"repay(uint256)": "371fd8e6",
					"tokenA()": "0fc63d10",
					"tokenB()": "5f64b55b",
					"tokenC()": "c483a308",
					"transferOwnership(address)": "f2fde38b",
					"withdraw(address,uint256)": "f3fef3a3"
				}
			},
			"storageLayout": {
				"storage": [
					{
						"astId": 8,
						"contract": "contracts/Loanable.sol:LendingContract",
						"label": "_owner",
						"offset": 0,
						"slot": "0",
						"type": "t_address"
					},
					{
						"astId": 286,
						"contract": "contracts/Loanable.sol:LendingContract",
						"label": "deposits",
						"offset": 0,
						"slot": "1",
						"type": "t_mapping(t_address,t_mapping(t_address,t_uint256))"
					},
					{
						"astId": 292,
						"contract": "contracts/Loanable.sol:LendingContract",
						"label": "loans",
						"offset": 0,
						"slot": "2",
						"type": "t_mapping(t_address,t_array(t_struct(Loan)280_storage)dyn_storage)"
					}
				],
				"types": {
					"t_address": {
						"encoding": "inplace",
						"label": "address",
						"numberOfBytes": "20"
					},
					"t_array(t_struct(Loan)280_storage)dyn_storage": {
						"base": "t_struct(Loan)280_storage",
						"encoding": "dynamic_array",
						"label": "struct LendingContract.Loan[]",
						"numberOfBytes": "32"
					},
					"t_bool": {
						"encoding": "inplace",
						"label": "bool",
						"numberOfBytes": "1"
					},
					"t_mapping(t_address,t_array(t_struct(Loan)280_storage)dyn_storage)": {
						"encoding": "mapping",
						"key": "t_address",
						"label": "mapping(address => struct LendingContract.Loan[])",
						"numberOfBytes": "32",
						"value": "t_array(t_struct(Loan)280_storage)dyn_storage"
					},
					"t_mapping(t_address,t_mapping(t_address,t_uint256))": {
						"encoding": "mapping",
						"key": "t_address",
						"label": "mapping(address => mapping(address => uint256))",
						"numberOfBytes": "32",
						"value": "t_mapping(t_address,t_uint256)"
					},
					"t_mapping(t_address,t_uint256)": {
						"encoding": "mapping",
						"key": "t_address",
						"label": "mapping(address => uint256)",
						"numberOfBytes": "32",
						"value": "t_uint256"
					},
					"t_struct(Loan)280_storage": {
						"encoding": "inplace",
						"label": "struct LendingContract.Loan",
						"members": [
							{
								"astId": 269,
								"contract": "contracts/Loanable.sol:LendingContract",
								"label": "borrower",
								"offset": 0,
								"slot": "0",
								"type": "t_address"
							},
							{
								"astId": 271,
								"contract": "contracts/Loanable.sol:LendingContract",
								"label": "loanToken",
								"offset": 0,
								"slot": "1",
								"type": "t_address"
							},
							{
								"astId": 273,
								"contract": "contracts/Loanable.sol:LendingContract",
								"label": "loanAmount",
								"offset": 0,
								"slot": "2",
								"type": "t_uint256"
							},
							{
								"astId": 275,
								"contract": "contracts/Loanable.sol:LendingContract",
								"label": "collateralToken",
								"offset": 0,
								"slot": "3",
								"type": "t_address"
							},
							{
								"astId": 277,
								"contract": "contracts/Loanable.sol:LendingContract",
								"label": "collateralAmount",
								"offset": 0,
								"slot": "4",
								"type": "t_uint256"
							},
							{
								"astId": 279,
								"contract": "contracts/Loanable.sol:LendingContract",
								"label": "isActive",
								"offset": 0,
								"slot": "5",
								"type": "t_bool"
							}
						],
						"numberOfBytes": "192"
					},
					"t_uint256": {
						"encoding": "inplace",
						"label": "uint256",
						"numberOfBytes": "32"
					}
				}
			},
			"userdoc": {
				"kind": "user",
				"methods": {
					"borrow(address,uint256,address,uint256)": {
						"notice": "抵押 `collateralToken` 以借出 `loanToken`"
					},
					"deposit(address,uint256)": {
						"notice": "存入 ETH 或 Token"
					},
					"getDeposit(address)": {
						"notice": "查询存款余额"
					},
					"getLoans()": {
						"notice": "查询所有贷款信息"
					},
					"repay(uint256)": {
						"notice": "归还贷款并取回抵押品"
					},
					"withdraw(address,uint256)": {
						"notice": "取出 ETH 或 Token"
					}
				},
				"version": 1
			}
		}
	}
}