{
	"contracts/Time.sol": {
		"CurrentTime": {
			"abi": [
				{
					"anonymous": false,
					"inputs": [
						{
							"indexed": false,
							"internalType": "uint256",
							"name": "timestamp",
							"type": "uint256"
						}
					],
					"name": "TimeFetched",
					"type": "event"
				},
				{
					"inputs": [],
					"name": "getCurrentTime",
					"outputs": [
						{
							"internalType": "uint256",
							"name": "",
							"type": "uint256"
						}
					],
					"stateMutability": "nonpayable",
					"type": "function"
				},
				{
					"inputs": [],
					"name": "getCurrentTimeView",
					"outputs": [
						{
							"internalType": "uint256",
							"name": "",
							"type": "uint256"
						}
					],
					"stateMutability": "view",
					"type": "function"
				}
			],
			"devdoc": {
				"kind": "dev",
				"methods": {},
				"version": 1
			},
			"evm": {
				"assembly": "    /* \"contracts/Time.sol\":61:490  contract CurrentTime {... */\n  mstore(0x40, 0x80)\n  callvalue\n  dup1\n  iszero\n  tag_1\n  jumpi\n  0x00\n  dup1\n  revert\ntag_1:\n  pop\n  dataSize(sub_0)\n  dup1\n  dataOffset(sub_0)\n  0x00\n  codecopy\n  0x00\n  return\nstop\n\nsub_0: assembly {\n        /* \"contracts/Time.sol\":61:490  contract CurrentTime {... */\n      mstore(0x40, 0x80)\n      callvalue\n      dup1\n      iszero\n      tag_1\n      jumpi\n      0x00\n      dup1\n      revert\n    tag_1:\n      pop\n      jumpi(tag_2, lt(calldatasize, 0x04))\n      shr(0xe0, calldataload(0x00))\n      dup1\n      0x29cb924d\n      eq\n      tag_3\n      jumpi\n      dup1\n      0xb2d039a6\n      eq\n      tag_4\n      jumpi\n    tag_2:\n      0x00\n      dup1\n      revert\n        /* \"contracts/Time.sol\":197:376  function getCurrentTime() external returns (uint256) {... */\n    tag_3:\n      tag_5\n      tag_6\n      jump\t// in\n    tag_5:\n      mload(0x40)\n      tag_7\n      swap2\n      swap1\n      tag_8\n      jump\t// in\n    tag_7:\n      mload(0x40)\n      dup1\n      swap2\n      sub\n      swap1\n      return\n        /* \"contracts/Time.sol\":384:487  function getCurrentTimeView() external view returns (uint256) {... */\n    tag_4:\n      tag_9\n      tag_10\n      jump\t// in\n    tag_9:\n      mload(0x40)\n      tag_11\n      swap2\n      swap1\n      tag_8\n      jump\t// in\n    tag_11:\n      mload(0x40)\n      dup1\n      swap2\n      sub\n      swap1\n      return\n        /* \"contracts/Time.sol\":197:376  function getCurrentTime() external returns (uint256) {... */\n    tag_6:\n        /* \"contracts/Time.sol\":241:248  uint256 */\n      0x00\n        /* \"contracts/Time.sol\":261:280  uint256 currentTime */\n      dup1\n        /* \"contracts/Time.sol\":283:298  block.timestamp */\n      timestamp\n        /* \"contracts/Time.sol\":261:298  uint256 currentTime = block.timestamp */\n      swap1\n      pop\n        /* \"contracts/Time.sol\":315:339  TimeFetched(currentTime) */\n      0xc483656caba696da41bea62333e170e646cce65721927ee12561bfba9a1a0ecd\n        /* \"contracts/Time.sol\":327:338  currentTime */\n      dup2\n        /* \"contracts/Time.sol\":315:339  TimeFetched(currentTime) */\n      mload(0x40)\n      tag_13\n      swap2\n      swap1\n      tag_8\n      jump\t// in\n    tag_13:\n      mload(0x40)\n      dup1\n      swap2\n      sub\n      swap1\n      log1\n        /* \"contracts/Time.sol\":357:368  currentTime */\n      dup1\n        /* \"contracts/Time.sol\":350:368  return currentTime */\n      swap2\n      pop\n      pop\n        /* \"contracts/Time.sol\":197:376  function getCurrentTime() external returns (uint256) {... */\n      swap1\n      jump\t// out\n        /* \"contracts/Time.sol\":384:487  function getCurrentTimeView() external view returns (uint256) {... */\n    tag_10:\n        /* \"contracts/Time.sol\":437:444  uint256 */\n      0x00\n        /* \"contracts/Time.sol\":464:479  block.timestamp */\n      timestamp\n        /* \"contracts/Time.sol\":457:479  return block.timestamp */\n      swap1\n      pop\n        /* \"contracts/Time.sol\":384:487  function getCurrentTimeView() external view returns (uint256) {... */\n      swap1\n      jump\t// out\n        /* \"#utility.yul\":7:84   */\n    tag_15:\n        /* \"#utility.yul\":44:51   */\n      0x00\n        /* \"#utility.yul\":73:78   */\n      dup2\n        /* \"#utility.yul\":62:78   */\n      swap1\n      pop\n        /* \"#utility.yul\":7:84   */\n      swap2\n      swap1\n      pop\n      jump\t// out\n        /* \"#utility.yul\":90:208   */\n    tag_16:\n        /* \"#utility.yul\":177:201   */\n      tag_20\n        /* \"#utility.yul\":195:200   */\n      dup2\n        /* \"#utility.yul\":177:201   */\n      tag_15\n      jump\t// in\n    tag_20:\n        /* \"#utility.yul\":172:175   */\n      dup3\n        /* \"#utility.yul\":165:202   */\n      mstore\n        /* \"#utility.yul\":90:208   */\n      pop\n      pop\n      jump\t// out\n        /* \"#utility.yul\":214:436   */\n    tag_8:\n        /* \"#utility.yul\":307:311   */\n      0x00\n        /* \"#utility.yul\":345:347   */\n      0x20\n        /* \"#utility.yul\":334:343   */\n      dup3\n        /* \"#utility.yul\":330:348   */\n      add\n        /* \"#utility.yul\":322:348   */\n      swap1\n      pop\n        /* \"#utility.yul\":358:429   */\n      tag_22\n        /* \"#utility.yul\":426:427   */\n      0x00\n        /* \"#utility.yul\":415:424   */\n      dup4\n        /* \"#utility.yul\":411:428   */\n      add\n        /* \"#utility.yul\":402:408   */\n      dup5\n        /* \"#utility.yul\":358:429   */\n      tag_16\n      jump\t// in\n    tag_22:\n        /* \"#utility.yul\":214:436   */\n      swap3\n      swap2\n      pop\n      pop\n      jump\t// out\n\n    auxdata: 0xa264697066735822122022a9615efb1202c300714a9eba62490f914b9e4d674680f65cf4c4cb4a5964e064736f6c63430008140033\n}\n",
				"bytecode": {
					"linkReferences": {},
					"object": "608060405234801561000f575f80fd5b506101138061001d5f395ff3fe6080604052348015600e575f80fd5b50600436106030575f3560e01c806329cb924d146034578063b2d039a614604e575b5f80fd5b603a6068565b6040516045919060c6565b60405180910390f35b605460a9565b604051605f919060c6565b60405180910390f35b5f804290507fc483656caba696da41bea62333e170e646cce65721927ee12561bfba9a1a0ecd81604051609a919060c6565b60405180910390a18091505090565b5f42905090565b5f819050919050565b60c08160b0565b82525050565b5f60208201905060d75f83018460b9565b9291505056fea264697066735822122022a9615efb1202c300714a9eba62490f914b9e4d674680f65cf4c4cb4a5964e064736f6c63430008140033",
					"opcodes": "PUSH1 0x80 PUSH1 0x40 MSTORE CALLVALUE DUP1 ISZERO PUSH2 0xF JUMPI PUSH0 DUP1 REVERT JUMPDEST POP PUSH2 0x113 DUP1 PUSH2 0x1D PUSH0 CODECOPY PUSH0 RETURN INVALID PUSH1 0x80 PUSH1 0x40 MSTORE CALLVALUE DUP1 ISZERO PUSH1 0xE JUMPI PUSH0 DUP1 REVERT JUMPDEST POP PUSH1 0x4 CALLDATASIZE LT PUSH1 0x30 JUMPI PUSH0 CALLDATALOAD PUSH1 0xE0 SHR DUP1 PUSH4 0x29CB924D EQ PUSH1 0x34 JUMPI DUP1 PUSH4 0xB2D039A6 EQ PUSH1 0x4E JUMPI JUMPDEST PUSH0 DUP1 REVERT JUMPDEST PUSH1 0x3A PUSH1 0x68 JUMP JUMPDEST PUSH1 0x40 MLOAD PUSH1 0x45 SWAP2 SWAP1 PUSH1 0xC6 JUMP JUMPDEST PUSH1 0x40 MLOAD DUP1 SWAP2 SUB SWAP1 RETURN JUMPDEST PUSH1 0x54 PUSH1 0xA9 JUMP JUMPDEST PUSH1 0x40 MLOAD PUSH1 0x5F SWAP2 SWAP1 PUSH1 0xC6 JUMP JUMPDEST PUSH1 0x40 MLOAD DUP1 SWAP2 SUB SWAP1 RETURN JUMPDEST PUSH0 DUP1 TIMESTAMP SWAP1 POP PUSH32 0xC483656CABA696DA41BEA62333E170E646CCE65721927EE12561BFBA9A1A0ECD DUP2 PUSH1 0x40 MLOAD PUSH1 0x9A SWAP2 SWAP1 PUSH1 0xC6 JUMP JUMPDEST PUSH1 0x40 MLOAD DUP1 SWAP2 SUB SWAP1 LOG1 DUP1 SWAP2 POP POP SWAP1 JUMP JUMPDEST PUSH0 TIMESTAMP SWAP1 POP SWAP1 JUMP JUMPDEST PUSH0 DUP2 SWAP1 POP SWAP2 SWAP1 POP JUMP JUMPDEST PUSH1 0xC0 DUP2 PUSH1 0xB0 JUMP JUMPDEST DUP3 MSTORE POP POP JUMP JUMPDEST PUSH0 PUSH1 0x20 DUP3 ADD SWAP1 POP PUSH1 0xD7 PUSH0 DUP4 ADD DUP5 PUSH1 0xB9 JUMP JUMPDEST SWAP3 SWAP2 POP POP JUMP INVALID LOG2 PUSH5 0x6970667358 0x22 SLT KECCAK256 0x22 0xA9 PUSH2 0x5EFB SLT MUL 0xC3 STOP PUSH18 0x4A9EBA62490F914B9E4D674680F65CF4C4CB 0x4A MSIZE PUSH5 0xE064736F6C PUSH4 0x43000814 STOP CALLER "
				},
				"gasEstimates": {
					"creation": {
						"codeDepositCost": "55000",
						"executionCost": "103",
						"totalCost": "55103"
					},
					"external": {
						"getCurrentTime()": "infinite",
						"getCurrentTimeView()": "331"
					}
				},
				"methodIdentifiers": {
					"getCurrentTime()": "29cb924d",
					"getCurrentTimeView()": "b2d039a6"
				}
			},
			"storageLayout": {
				"storage": [],
				"types": null
			},
			"userdoc": {
				"kind": "user",
				"methods": {},
				"version": 1
			}
		}
	}
}